{
	"compilerInput": "{\"language\":\"Solidity\",\"sources\":{\"myOFT.sol\":{\"content\":\"// SPDX-License-Identifier: MIT\\r\\npragma solidity ^0.8.22;\\r\\n\\r\\n// This is a simple implementation of an OFT (Omnichain Fungible Token) contract\\r\\n// MyOFT.json is the hardhat compiled artifact for this contract\\r\\n\\r\\nimport { Ownable } from \\\"@openzeppelin/contracts/access/Ownable.sol\\\";\\r\\nimport { OFT } from \\\"@layerzerolabs/oft-evm/contracts/OFT.sol\\\";\\r\\n\\r\\ncontract MyOFT is OFT {\\r\\n\\r\\n    constructor(\\r\\n        string memory _name,\\r\\n        string memory _symbol,\\r\\n        uint256 _initialSupply,\\r\\n        address _lzEndpoint,\\r\\n        address _delegate\\r\\n    ) OFT(_name, _symbol, _lzEndpoint, _delegate) Ownable(_delegate) {\\r\\n        _mint(_delegate, _initialSupply * 10 ** decimals());\\r\\n    }\\r\\n}\\r\\n\"},\"@layerzerolabs/oft-evm/contracts/OFT.sol\":{\"content\":\"// SPDX-License-Identifier: MIT\\n\\npragma solidity ^0.8.20;\\n\\nimport { ERC20 } from \\\"@openzeppelin/contracts/token/ERC20/ERC20.sol\\\";\\nimport { IOFT, OFTCore } from \\\"./OFTCore.sol\\\";\\n\\n/**\\n * @title OFT Contract\\n * @dev OFT is an ERC-20 token that extends the functionality of the OFTCore contract.\\n */\\nabstract contract OFT is OFTCore, ERC20 {\\n    /**\\n     * @dev Constructor for the OFT contract.\\n     * @param _name The name of the OFT.\\n     * @param _symbol The symbol of the OFT.\\n     * @param _lzEndpoint The LayerZero endpoint address.\\n     * @param _delegate The delegate capable of making OApp configurations inside of the endpoint.\\n     */\\n    constructor(\\n        string memory _name,\\n        string memory _symbol,\\n        address _lzEndpoint,\\n        address _delegate\\n    ) ERC20(_name, _symbol) OFTCore(decimals(), _lzEndpoint, _delegate) {}\\n\\n    /**\\n     * @dev Retrieves the address of the underlying ERC20 implementation.\\n     * @return The address of the OFT token.\\n     *\\n     * @dev In the case of OFT, address(this) and erc20 are the same contract.\\n     */\\n    function token() public view returns (address) {\\n        return address(this);\\n    }\\n\\n    /**\\n     * @notice Indicates whether the OFT contract requires approval of the 'token()' to send.\\n     * @return requiresApproval Needs approval of the underlying token implementation.\\n     *\\n     * @dev In the case of OFT where the contract IS the token, approval is NOT required.\\n     */\\n    function approvalRequired() external pure virtual returns (bool) {\\n        return false;\\n    }\\n\\n    /**\\n     * @dev Burns tokens from the sender's specified balance.\\n     * @param _from The address to debit the tokens from.\\n     * @param _amountLD The amount of tokens to send in local decimals.\\n     * @param _minAmountLD The minimum amount to send in local decimals.\\n     * @param _dstEid The destination chain ID.\\n     * @return amountSentLD The amount sent in local decimals.\\n     * @return amountReceivedLD The amount received in local decimals on the remote.\\n     */\\n    function _debit(\\n        address _from,\\n        uint256 _amountLD,\\n        uint256 _minAmountLD,\\n        uint32 _dstEid\\n    ) internal virtual override returns (uint256 amountSentLD, uint256 amountReceivedLD) {\\n        (amountSentLD, amountReceivedLD) = _debitView(_amountLD, _minAmountLD, _dstEid);\\n\\n        // @dev In NON-default OFT, amountSentLD could be 100, with a 10% fee, the amountReceivedLD amount is 90,\\n        // therefore amountSentLD CAN differ from amountReceivedLD.\\n\\n        // @dev Default OFT burns on src.\\n        _burn(_from, amountSentLD);\\n    }\\n\\n    /**\\n     * @dev Credits tokens to the specified address.\\n     * @param _to The address to credit the tokens to.\\n     * @param _amountLD The amount of tokens to credit in local decimals.\\n     * @dev _srcEid The source chain ID.\\n     * @return amountReceivedLD The amount of tokens ACTUALLY received in local decimals.\\n     */\\n    function _credit(\\n        address _to,\\n        uint256 _amountLD,\\n        uint32 /*_srcEid*/\\n    ) internal virtual override returns (uint256 amountReceivedLD) {\\n        if (_to == address(0x0)) _to = address(0xdead); // _mint(...) does not support address(0x0)\\n        // @dev Default OFT mints on dst.\\n        _mint(_to, _amountLD);\\n        // @dev In the case of NON-default OFT, the _amountLD MIGHT not be == amountReceivedLD.\\n        return _amountLD;\\n    }\\n}\\n\"},\"@openzeppelin/contracts/access/Ownable.sol\":{\"content\":\"// SPDX-License-Identifier: MIT\\n// OpenZeppelin Contracts (last updated v5.0.0) (access/Ownable.sol)\\n\\npragma solidity ^0.8.20;\\n\\nimport {Context} from \\\"../utils/Context.sol\\\";\\n\\n/**\\n * @dev Contract module which provides a basic access control mechanism, where\\n * there is an account (an owner) that can be granted exclusive access to\\n * specific functions.\\n *\\n * The initial owner is set to the address provided by the deployer. This can\\n * later be changed with {transferOwnership}.\\n *\\n * This module is used through inheritance. It will make available the modifier\\n * `onlyOwner`, which can be applied to your functions to restrict their use to\\n * the owner.\\n */\\nabstract contract Ownable is Context {\\n    address private _owner;\\n\\n    /**\\n     * @dev The caller account is not authorized to perform an operation.\\n     */\\n    error OwnableUnauthorizedAccount(address account);\\n\\n    /**\\n     * @dev The owner is not a valid owner account. (eg. `address(0)`)\\n     */\\n    error OwnableInvalidOwner(address owner);\\n\\n    event OwnershipTransferred(address indexed previousOwner, address indexed newOwner);\\n\\n    /**\\n     * @dev Initializes the contract setting the address provided by the deployer as the initial owner.\\n     */\\n    constructor(address initialOwner) {\\n        if (initialOwner == address(0)) {\\n            revert OwnableInvalidOwner(address(0));\\n        }\\n        _transferOwnership(initialOwner);\\n    }\\n\\n    /**\\n     * @dev Throws if called by any account other than the owner.\\n     */\\n    modifier onlyOwner() {\\n        _checkOwner();\\n        _;\\n    }\\n\\n    /**\\n     * @dev Returns the address of the current owner.\\n     */\\n    function owner() public view virtual returns (address) {\\n        return _owner;\\n    }\\n\\n    /**\\n     * @dev Throws if the sender is not the owner.\\n     */\\n    function _checkOwner() internal view virtual {\\n        if (owner() != _msgSender()) {\\n            revert OwnableUnauthorizedAccount(_msgSender());\\n        }\\n    }\\n\\n    /**\\n     * @dev Leaves the contract without owner. It will not be possible to call\\n     * `onlyOwner` functions. Can only be called by the current owner.\\n     *\\n     * NOTE: Renouncing ownership will leave the contract without an owner,\\n     * thereby disabling any functionality that is only available to the owner.\\n     */\\n    function renounceOwnership() public virtual onlyOwner {\\n        _transferOwnership(address(0));\\n    }\\n\\n    /**\\n     * @dev Transfers ownership of the contract to a new account (`newOwner`).\\n     * Can only be called by the current owner.\\n     */\\n    function transferOwnership(address newOwner) public virtual onlyOwner {\\n        if (newOwner == address(0)) {\\n            revert OwnableInvalidOwner(address(0));\\n        }\\n        _transferOwnership(newOwner);\\n    }\\n\\n    /**\\n     * @dev Transfers ownership of the contract to a new account (`newOwner`).\\n     * Internal function without access restriction.\\n     */\\n    function _transferOwnership(address newOwner) internal virtual {\\n        address oldOwner = _owner;\\n        _owner = newOwner;\\n        emit OwnershipTransferred(oldOwner, newOwner);\\n    }\\n}\\n\"},\"@openzeppelin/contracts/utils/Context.sol\":{\"content\":\"// SPDX-License-Identifier: MIT\\n// OpenZeppelin Contracts (last updated v5.0.1) (utils/Context.sol)\\n\\npragma solidity ^0.8.20;\\n\\n/**\\n * @dev Provides information about the current execution context, including the\\n * sender of the transaction and its data. While these are generally available\\n * via msg.sender and msg.data, they should not be accessed in such a direct\\n * manner, since when dealing with meta-transactions the account sending and\\n * paying for execution may not be the actual sender (as far as an application\\n * is concerned).\\n *\\n * This contract is only required for intermediate, library-like contracts.\\n */\\nabstract contract Context {\\n    function _msgSender() internal view virtual returns (address) {\\n        return msg.sender;\\n    }\\n\\n    function _msgData() internal view virtual returns (bytes calldata) {\\n        return msg.data;\\n    }\\n\\n    function _contextSuffixLength() internal view virtual returns (uint256) {\\n        return 0;\\n    }\\n}\\n\"},\"@layerzerolabs/oft-evm/contracts/OFTCore.sol\":{\"content\":\"// SPDX-License-Identifier: MIT\\n\\npragma solidity ^0.8.20;\\n\\nimport { IERC20 } from \\\"@openzeppelin/contracts/token/ERC20/IERC20.sol\\\";\\n\\nimport { OApp, Origin } from \\\"@layerzerolabs/oapp-evm/contracts/oapp/OApp.sol\\\";\\nimport { OAppOptionsType3 } from \\\"@layerzerolabs/oapp-evm/contracts/oapp/libs/OAppOptionsType3.sol\\\";\\nimport { IOAppMsgInspector } from \\\"@layerzerolabs/oapp-evm/contracts/oapp/interfaces/IOAppMsgInspector.sol\\\";\\n\\nimport { OAppPreCrimeSimulator } from \\\"@layerzerolabs/oapp-evm/contracts/precrime/OAppPreCrimeSimulator.sol\\\";\\n\\nimport { IOFT, SendParam, OFTLimit, OFTReceipt, OFTFeeDetail, MessagingReceipt, MessagingFee } from \\\"./interfaces/IOFT.sol\\\";\\nimport { OFTMsgCodec } from \\\"./libs/OFTMsgCodec.sol\\\";\\nimport { OFTComposeMsgCodec } from \\\"./libs/OFTComposeMsgCodec.sol\\\";\\n\\n/**\\n * @title OFTCore\\n * @dev Abstract contract for the OftChain (OFT) token.\\n */\\nabstract contract OFTCore is IOFT, OApp, OAppPreCrimeSimulator, OAppOptionsType3 {\\n    using OFTMsgCodec for bytes;\\n    using OFTMsgCodec for bytes32;\\n\\n    // @notice Provides a conversion rate when swapping between denominations of SD and LD\\n    //      - shareDecimals == SD == shared Decimals\\n    //      - localDecimals == LD == local decimals\\n    // @dev Considers that tokens have different decimal amounts on various chains.\\n    // @dev eg.\\n    //  For a token\\n    //      - locally with 4 decimals --> 1.2345 => uint(12345)\\n    //      - remotely with 2 decimals --> 1.23 => uint(123)\\n    //      - The conversion rate would be 10 ** (4 - 2) = 100\\n    //  @dev If you want to send 1.2345 -> (uint 12345), you CANNOT represent that value on the remote,\\n    //  you can only display 1.23 -> uint(123).\\n    //  @dev To preserve the dust that would otherwise be lost on that conversion,\\n    //  we need to unify a denomination that can be represented on ALL chains inside of the OFT mesh\\n    uint256 public immutable decimalConversionRate;\\n\\n    // @notice Msg types that are used to identify the various OFT operations.\\n    // @dev This can be extended in child contracts for non-default oft operations\\n    // @dev These values are used in things like combineOptions() in OAppOptionsType3.sol.\\n    uint16 public constant SEND = 1;\\n    uint16 public constant SEND_AND_CALL = 2;\\n\\n    // Address of an optional contract to inspect both 'message' and 'options'\\n    address public msgInspector;\\n    event MsgInspectorSet(address inspector);\\n\\n    /**\\n     * @dev Constructor.\\n     * @param _localDecimals The decimals of the token on the local chain (this chain).\\n     * @param _endpoint The address of the LayerZero endpoint.\\n     * @param _delegate The delegate capable of making OApp configurations inside of the endpoint.\\n     */\\n    constructor(uint8 _localDecimals, address _endpoint, address _delegate) OApp(_endpoint, _delegate) {\\n        if (_localDecimals < sharedDecimals()) revert InvalidLocalDecimals();\\n        decimalConversionRate = 10 ** (_localDecimals - sharedDecimals());\\n    }\\n\\n    /**\\n     * @notice Retrieves interfaceID and the version of the OFT.\\n     * @return interfaceId The interface ID.\\n     * @return version The version.\\n     *\\n     * @dev interfaceId: This specific interface ID is '0x02e49c2c'.\\n     * @dev version: Indicates a cross-chain compatible msg encoding with other OFTs.\\n     * @dev If a new feature is added to the OFT cross-chain msg encoding, the version will be incremented.\\n     * ie. localOFT version(x,1) CAN send messages to remoteOFT version(x,1)\\n     */\\n    function oftVersion() external pure virtual returns (bytes4 interfaceId, uint64 version) {\\n        return (type(IOFT).interfaceId, 1);\\n    }\\n\\n    /**\\n     * @dev Retrieves the shared decimals of the OFT.\\n     * @return The shared decimals of the OFT.\\n     *\\n     * @dev Sets an implicit cap on the amount of tokens, over uint64.max() will need some sort of outbound cap / totalSupply cap\\n     * Lowest common decimal denominator between chains.\\n     * Defaults to 6 decimal places to provide up to 18,446,744,073,709.551615 units (max uint64).\\n     * For tokens exceeding this totalSupply(), they will need to override the sharedDecimals function with something smaller.\\n     * ie. 4 sharedDecimals would be 1,844,674,407,370,955.1615\\n     */\\n    function sharedDecimals() public view virtual returns (uint8) {\\n        return 6;\\n    }\\n\\n    /**\\n     * @dev Sets the message inspector address for the OFT.\\n     * @param _msgInspector The address of the message inspector.\\n     *\\n     * @dev This is an optional contract that can be used to inspect both 'message' and 'options'.\\n     * @dev Set it to address(0) to disable it, or set it to a contract address to enable it.\\n     */\\n    function setMsgInspector(address _msgInspector) public virtual onlyOwner {\\n        msgInspector = _msgInspector;\\n        emit MsgInspectorSet(_msgInspector);\\n    }\\n\\n    /**\\n     * @notice Provides the fee breakdown and settings data for an OFT. Unused in the default implementation.\\n     * @param _sendParam The parameters for the send operation.\\n     * @return oftLimit The OFT limit information.\\n     * @return oftFeeDetails The details of OFT fees.\\n     * @return oftReceipt The OFT receipt information.\\n     */\\n    function quoteOFT(\\n        SendParam calldata _sendParam\\n    )\\n        external\\n        view\\n        virtual\\n        returns (OFTLimit memory oftLimit, OFTFeeDetail[] memory oftFeeDetails, OFTReceipt memory oftReceipt)\\n    {\\n        uint256 minAmountLD = 0; // Unused in the default implementation.\\n        uint256 maxAmountLD = IERC20(this.token()).totalSupply(); // Unused in the default implementation.\\n        oftLimit = OFTLimit(minAmountLD, maxAmountLD);\\n\\n        // Unused in the default implementation; reserved for future complex fee details.\\n        oftFeeDetails = new OFTFeeDetail[](0);\\n\\n        // @dev This is the same as the send() operation, but without the actual send.\\n        // - amountSentLD is the amount in local decimals that would be sent from the sender.\\n        // - amountReceivedLD is the amount in local decimals that will be credited to the recipient on the remote OFT instance.\\n        // @dev The amountSentLD MIGHT not equal the amount the user actually receives. HOWEVER, the default does.\\n        (uint256 amountSentLD, uint256 amountReceivedLD) = _debitView(\\n            _sendParam.amountLD,\\n            _sendParam.minAmountLD,\\n            _sendParam.dstEid\\n        );\\n        oftReceipt = OFTReceipt(amountSentLD, amountReceivedLD);\\n    }\\n\\n    /**\\n     * @notice Provides a quote for the send() operation.\\n     * @param _sendParam The parameters for the send() operation.\\n     * @param _payInLzToken Flag indicating whether the caller is paying in the LZ token.\\n     * @return msgFee The calculated LayerZero messaging fee from the send() operation.\\n     *\\n     * @dev MessagingFee: LayerZero msg fee\\n     *  - nativeFee: The native fee.\\n     *  - lzTokenFee: The lzToken fee.\\n     */\\n    function quoteSend(\\n        SendParam calldata _sendParam,\\n        bool _payInLzToken\\n    ) external view virtual returns (MessagingFee memory msgFee) {\\n        // @dev mock the amount to receive, this is the same operation used in the send().\\n        // The quote is as similar as possible to the actual send() operation.\\n        (, uint256 amountReceivedLD) = _debitView(_sendParam.amountLD, _sendParam.minAmountLD, _sendParam.dstEid);\\n\\n        // @dev Builds the options and OFT message to quote in the endpoint.\\n        (bytes memory message, bytes memory options) = _buildMsgAndOptions(_sendParam, amountReceivedLD);\\n\\n        // @dev Calculates the LayerZero fee for the send() operation.\\n        return _quote(_sendParam.dstEid, message, options, _payInLzToken);\\n    }\\n\\n    /**\\n     * @dev Executes the send operation.\\n     * @param _sendParam The parameters for the send operation.\\n     * @param _fee The calculated fee for the send() operation.\\n     *      - nativeFee: The native fee.\\n     *      - lzTokenFee: The lzToken fee.\\n     * @param _refundAddress The address to receive any excess funds.\\n     * @return msgReceipt The receipt for the send operation.\\n     * @return oftReceipt The OFT receipt information.\\n     *\\n     * @dev MessagingReceipt: LayerZero msg receipt\\n     *  - guid: The unique identifier for the sent message.\\n     *  - nonce: The nonce of the sent message.\\n     *  - fee: The LayerZero fee incurred for the message.\\n     */\\n    function send(\\n        SendParam calldata _sendParam,\\n        MessagingFee calldata _fee,\\n        address _refundAddress\\n    ) external payable virtual returns (MessagingReceipt memory msgReceipt, OFTReceipt memory oftReceipt) {\\n        return _send(_sendParam, _fee, _refundAddress);\\n    }\\n\\n    /**\\n     * @dev Internal function to execute the send operation.\\n     * @param _sendParam The parameters for the send operation.\\n     * @param _fee The calculated fee for the send() operation.\\n     *      - nativeFee: The native fee.\\n     *      - lzTokenFee: The lzToken fee.\\n     * @param _refundAddress The address to receive any excess funds.\\n     * @return msgReceipt The receipt for the send operation.\\n     * @return oftReceipt The OFT receipt information.\\n     *\\n     * @dev MessagingReceipt: LayerZero msg receipt\\n     *  - guid: The unique identifier for the sent message.\\n     *  - nonce: The nonce of the sent message.\\n     *  - fee: The LayerZero fee incurred for the message.\\n     */\\n    function _send(\\n        SendParam calldata _sendParam,\\n        MessagingFee calldata _fee,\\n        address _refundAddress\\n    ) internal virtual returns (MessagingReceipt memory msgReceipt, OFTReceipt memory oftReceipt) {\\n        // @dev Applies the token transfers regarding this send() operation.\\n        // - amountSentLD is the amount in local decimals that was ACTUALLY sent/debited from the sender.\\n        // - amountReceivedLD is the amount in local decimals that will be received/credited to the recipient on the remote OFT instance.\\n        (uint256 amountSentLD, uint256 amountReceivedLD) = _debit(\\n            msg.sender,\\n            _sendParam.amountLD,\\n            _sendParam.minAmountLD,\\n            _sendParam.dstEid\\n        );\\n\\n        // @dev Builds the options and OFT message to quote in the endpoint.\\n        (bytes memory message, bytes memory options) = _buildMsgAndOptions(_sendParam, amountReceivedLD);\\n\\n        // @dev Sends the message to the LayerZero endpoint and returns the LayerZero msg receipt.\\n        msgReceipt = _lzSend(_sendParam.dstEid, message, options, _fee, _refundAddress);\\n        // @dev Formulate the OFT receipt.\\n        oftReceipt = OFTReceipt(amountSentLD, amountReceivedLD);\\n\\n        emit OFTSent(msgReceipt.guid, _sendParam.dstEid, msg.sender, amountSentLD, amountReceivedLD);\\n    }\\n\\n    /**\\n     * @dev Internal function to build the message and options.\\n     * @param _sendParam The parameters for the send() operation.\\n     * @param _amountLD The amount in local decimals.\\n     * @return message The encoded message.\\n     * @return options The encoded options.\\n     */\\n    function _buildMsgAndOptions(\\n        SendParam calldata _sendParam,\\n        uint256 _amountLD\\n    ) internal view virtual returns (bytes memory message, bytes memory options) {\\n        bool hasCompose;\\n        // @dev This generated message has the msg.sender encoded into the payload so the remote knows who the caller is.\\n        (message, hasCompose) = OFTMsgCodec.encode(\\n            _sendParam.to,\\n            _toSD(_amountLD),\\n            // @dev Must be include a non empty bytes if you want to compose, EVEN if you dont need it on the remote.\\n            // EVEN if you dont require an arbitrary payload to be sent... eg. '0x01'\\n            _sendParam.composeMsg\\n        );\\n        // @dev Change the msg type depending if its composed or not.\\n        uint16 msgType = hasCompose ? SEND_AND_CALL : SEND;\\n        // @dev Combine the callers _extraOptions with the enforced options via the OAppOptionsType3.\\n        options = combineOptions(_sendParam.dstEid, msgType, _sendParam.extraOptions);\\n\\n        // @dev Optionally inspect the message and options depending if the OApp owner has set a msg inspector.\\n        // @dev If it fails inspection, needs to revert in the implementation. ie. does not rely on return boolean\\n        address inspector = msgInspector; // caches the msgInspector to avoid potential double storage read\\n        if (inspector != address(0)) IOAppMsgInspector(inspector).inspect(message, options);\\n    }\\n\\n    /**\\n     * @dev Internal function to handle the receive on the LayerZero endpoint.\\n     * @param _origin The origin information.\\n     *  - srcEid: The source chain endpoint ID.\\n     *  - sender: The sender address from the src chain.\\n     *  - nonce: The nonce of the LayerZero message.\\n     * @param _guid The unique identifier for the received LayerZero message.\\n     * @param _message The encoded message.\\n     * @dev _executor The address of the executor.\\n     * @dev _extraData Additional data.\\n     */\\n    function _lzReceive(\\n        Origin calldata _origin,\\n        bytes32 _guid,\\n        bytes calldata _message,\\n        address /*_executor*/, // @dev unused in the default implementation.\\n        bytes calldata /*_extraData*/ // @dev unused in the default implementation.\\n    ) internal virtual override {\\n        // @dev The src sending chain doesnt know the address length on this chain (potentially non-evm)\\n        // Thus everything is bytes32() encoded in flight.\\n        address toAddress = _message.sendTo().bytes32ToAddress();\\n        // @dev Credit the amountLD to the recipient and return the ACTUAL amount the recipient received in local decimals\\n        uint256 amountReceivedLD = _credit(toAddress, _toLD(_message.amountSD()), _origin.srcEid);\\n\\n        if (_message.isComposed()) {\\n            // @dev Proprietary composeMsg format for the OFT.\\n            bytes memory composeMsg = OFTComposeMsgCodec.encode(\\n                _origin.nonce,\\n                _origin.srcEid,\\n                amountReceivedLD,\\n                _message.composeMsg()\\n            );\\n\\n            // @dev Stores the lzCompose payload that will be executed in a separate tx.\\n            // Standardizes functionality for executing arbitrary contract invocation on some non-evm chains.\\n            // @dev The off-chain executor will listen and process the msg based on the src-chain-callers compose options passed.\\n            // @dev The index is used when a OApp needs to compose multiple msgs on lzReceive.\\n            // For default OFT implementation there is only 1 compose msg per lzReceive, thus its always 0.\\n            endpoint.sendCompose(toAddress, _guid, 0 /* the index of the composed message*/, composeMsg);\\n        }\\n\\n        emit OFTReceived(_guid, _origin.srcEid, toAddress, amountReceivedLD);\\n    }\\n\\n    /**\\n     * @dev Internal function to handle the OAppPreCrimeSimulator simulated receive.\\n     * @param _origin The origin information.\\n     *  - srcEid: The source chain endpoint ID.\\n     *  - sender: The sender address from the src chain.\\n     *  - nonce: The nonce of the LayerZero message.\\n     * @param _guid The unique identifier for the received LayerZero message.\\n     * @param _message The LayerZero message.\\n     * @param _executor The address of the off-chain executor.\\n     * @param _extraData Arbitrary data passed by the msg executor.\\n     *\\n     * @dev Enables the preCrime simulator to mock sending lzReceive() messages,\\n     * routes the msg down from the OAppPreCrimeSimulator, and back up to the OAppReceiver.\\n     */\\n    function _lzReceiveSimulate(\\n        Origin calldata _origin,\\n        bytes32 _guid,\\n        bytes calldata _message,\\n        address _executor,\\n        bytes calldata _extraData\\n    ) internal virtual override {\\n        _lzReceive(_origin, _guid, _message, _executor, _extraData);\\n    }\\n\\n    /**\\n     * @dev Check if the peer is considered 'trusted' by the OApp.\\n     * @param _eid The endpoint ID to check.\\n     * @param _peer The peer to check.\\n     * @return Whether the peer passed is considered 'trusted' by the OApp.\\n     *\\n     * @dev Enables OAppPreCrimeSimulator to check whether a potential Inbound Packet is from a trusted source.\\n     */\\n    function isPeer(uint32 _eid, bytes32 _peer) public view virtual override returns (bool) {\\n        return peers[_eid] == _peer;\\n    }\\n\\n    /**\\n     * @dev Internal function to remove dust from the given local decimal amount.\\n     * @param _amountLD The amount in local decimals.\\n     * @return amountLD The amount after removing dust.\\n     *\\n     * @dev Prevents the loss of dust when moving amounts between chains with different decimals.\\n     * @dev eg. uint(123) with a conversion rate of 100 becomes uint(100).\\n     */\\n    function _removeDust(uint256 _amountLD) internal view virtual returns (uint256 amountLD) {\\n        return (_amountLD / decimalConversionRate) * decimalConversionRate;\\n    }\\n\\n    /**\\n     * @dev Internal function to convert an amount from shared decimals into local decimals.\\n     * @param _amountSD The amount in shared decimals.\\n     * @return amountLD The amount in local decimals.\\n     */\\n    function _toLD(uint64 _amountSD) internal view virtual returns (uint256 amountLD) {\\n        return _amountSD * decimalConversionRate;\\n    }\\n\\n    /**\\n     * @dev Internal function to convert an amount from local decimals into shared decimals.\\n     * @param _amountLD The amount in local decimals.\\n     * @return amountSD The amount in shared decimals.\\n     */\\n    function _toSD(uint256 _amountLD) internal view virtual returns (uint64 amountSD) {\\n        return uint64(_amountLD / decimalConversionRate);\\n    }\\n\\n    /**\\n     * @dev Internal function to mock the amount mutation from a OFT debit() operation.\\n     * @param _amountLD The amount to send in local decimals.\\n     * @param _minAmountLD The minimum amount to send in local decimals.\\n     * @dev _dstEid The destination endpoint ID.\\n     * @return amountSentLD The amount sent, in local decimals.\\n     * @return amountReceivedLD The amount to be received on the remote chain, in local decimals.\\n     *\\n     * @dev This is where things like fees would be calculated and deducted from the amount to be received on the remote.\\n     */\\n    function _debitView(\\n        uint256 _amountLD,\\n        uint256 _minAmountLD,\\n        uint32 /*_dstEid*/\\n    ) internal view virtual returns (uint256 amountSentLD, uint256 amountReceivedLD) {\\n        // @dev Remove the dust so nothing is lost on the conversion between chains with different decimals for the token.\\n        amountSentLD = _removeDust(_amountLD);\\n        // @dev The amount to send is the same as amount received in the default implementation.\\n        amountReceivedLD = amountSentLD;\\n\\n        // @dev Check for slippage.\\n        if (amountReceivedLD < _minAmountLD) {\\n            revert SlippageExceeded(amountReceivedLD, _minAmountLD);\\n        }\\n    }\\n\\n    /**\\n     * @dev Internal function to perform a debit operation.\\n     * @param _from The address to debit.\\n     * @param _amountLD The amount to send in local decimals.\\n     * @param _minAmountLD The minimum amount to send in local decimals.\\n     * @param _dstEid The destination endpoint ID.\\n     * @return amountSentLD The amount sent in local decimals.\\n     * @return amountReceivedLD The amount received in local decimals on the remote.\\n     *\\n     * @dev Defined here but are intended to be overriden depending on the OFT implementation.\\n     * @dev Depending on OFT implementation the _amountLD could differ from the amountReceivedLD.\\n     */\\n    function _debit(\\n        address _from,\\n        uint256 _amountLD,\\n        uint256 _minAmountLD,\\n        uint32 _dstEid\\n    ) internal virtual returns (uint256 amountSentLD, uint256 amountReceivedLD);\\n\\n    /**\\n     * @dev Internal function to perform a credit operation.\\n     * @param _to The address to credit.\\n     * @param _amountLD The amount to credit in local decimals.\\n     * @param _srcEid The source endpoint ID.\\n     * @return amountReceivedLD The amount ACTUALLY received in local decimals.\\n     *\\n     * @dev Defined here but are intended to be overriden depending on the OFT implementation.\\n     * @dev Depending on OFT implementation the _amountLD could differ from the amountReceivedLD.\\n     */\\n    function _credit(\\n        address _to,\\n        uint256 _amountLD,\\n        uint32 _srcEid\\n    ) internal virtual returns (uint256 amountReceivedLD);\\n}\\n\"},\"@openzeppelin/contracts/token/ERC20/ERC20.sol\":{\"content\":\"// SPDX-License-Identifier: MIT\\n// OpenZeppelin Contracts (last updated v5.3.0) (token/ERC20/ERC20.sol)\\n\\npragma solidity ^0.8.20;\\n\\nimport {IERC20} from \\\"./IERC20.sol\\\";\\nimport {IERC20Metadata} from \\\"./extensions/IERC20Metadata.sol\\\";\\nimport {Context} from \\\"../../utils/Context.sol\\\";\\nimport {IERC20Errors} from \\\"../../interfaces/draft-IERC6093.sol\\\";\\n\\n/**\\n * @dev Implementation of the {IERC20} interface.\\n *\\n * This implementation is agnostic to the way tokens are created. This means\\n * that a supply mechanism has to be added in a derived contract using {_mint}.\\n *\\n * TIP: For a detailed writeup see our guide\\n * https://forum.openzeppelin.com/t/how-to-implement-erc20-supply-mechanisms/226[How\\n * to implement supply mechanisms].\\n *\\n * The default value of {decimals} is 18. To change this, you should override\\n * this function so it returns a different value.\\n *\\n * We have followed general OpenZeppelin Contracts guidelines: functions revert\\n * instead returning `false` on failure. This behavior is nonetheless\\n * conventional and does not conflict with the expectations of ERC-20\\n * applications.\\n */\\nabstract contract ERC20 is Context, IERC20, IERC20Metadata, IERC20Errors {\\n    mapping(address account => uint256) private _balances;\\n\\n    mapping(address account => mapping(address spender => uint256)) private _allowances;\\n\\n    uint256 private _totalSupply;\\n\\n    string private _name;\\n    string private _symbol;\\n\\n    /**\\n     * @dev Sets the values for {name} and {symbol}.\\n     *\\n     * Both values are immutable: they can only be set once during construction.\\n     */\\n    constructor(string memory name_, string memory symbol_) {\\n        _name = name_;\\n        _symbol = symbol_;\\n    }\\n\\n    /**\\n     * @dev Returns the name of the token.\\n     */\\n    function name() public view virtual returns (string memory) {\\n        return _name;\\n    }\\n\\n    /**\\n     * @dev Returns the symbol of the token, usually a shorter version of the\\n     * name.\\n     */\\n    function symbol() public view virtual returns (string memory) {\\n        return _symbol;\\n    }\\n\\n    /**\\n     * @dev Returns the number of decimals used to get its user representation.\\n     * For example, if `decimals` equals `2`, a balance of `505` tokens should\\n     * be displayed to a user as `5.05` (`505 / 10 ** 2`).\\n     *\\n     * Tokens usually opt for a value of 18, imitating the relationship between\\n     * Ether and Wei. This is the default value returned by this function, unless\\n     * it's overridden.\\n     *\\n     * NOTE: This information is only used for _display_ purposes: it in\\n     * no way affects any of the arithmetic of the contract, including\\n     * {IERC20-balanceOf} and {IERC20-transfer}.\\n     */\\n    function decimals() public view virtual returns (uint8) {\\n        return 18;\\n    }\\n\\n    /**\\n     * @dev See {IERC20-totalSupply}.\\n     */\\n    function totalSupply() public view virtual returns (uint256) {\\n        return _totalSupply;\\n    }\\n\\n    /**\\n     * @dev See {IERC20-balanceOf}.\\n     */\\n    function balanceOf(address account) public view virtual returns (uint256) {\\n        return _balances[account];\\n    }\\n\\n    /**\\n     * @dev See {IERC20-transfer}.\\n     *\\n     * Requirements:\\n     *\\n     * - `to` cannot be the zero address.\\n     * - the caller must have a balance of at least `value`.\\n     */\\n    function transfer(address to, uint256 value) public virtual returns (bool) {\\n        address owner = _msgSender();\\n        _transfer(owner, to, value);\\n        return true;\\n    }\\n\\n    /**\\n     * @dev See {IERC20-allowance}.\\n     */\\n    function allowance(address owner, address spender) public view virtual returns (uint256) {\\n        return _allowances[owner][spender];\\n    }\\n\\n    /**\\n     * @dev See {IERC20-approve}.\\n     *\\n     * NOTE: If `value` is the maximum `uint256`, the allowance is not updated on\\n     * `transferFrom`. This is semantically equivalent to an infinite approval.\\n     *\\n     * Requirements:\\n     *\\n     * - `spender` cannot be the zero address.\\n     */\\n    function approve(address spender, uint256 value) public virtual returns (bool) {\\n        address owner = _msgSender();\\n        _approve(owner, spender, value);\\n        return true;\\n    }\\n\\n    /**\\n     * @dev See {IERC20-transferFrom}.\\n     *\\n     * Skips emitting an {Approval} event indicating an allowance update. This is not\\n     * required by the ERC. See {xref-ERC20-_approve-address-address-uint256-bool-}[_approve].\\n     *\\n     * NOTE: Does not update the allowance if the current allowance\\n     * is the maximum `uint256`.\\n     *\\n     * Requirements:\\n     *\\n     * - `from` and `to` cannot be the zero address.\\n     * - `from` must have a balance of at least `value`.\\n     * - the caller must have allowance for ``from``'s tokens of at least\\n     * `value`.\\n     */\\n    function transferFrom(address from, address to, uint256 value) public virtual returns (bool) {\\n        address spender = _msgSender();\\n        _spendAllowance(from, spender, value);\\n        _transfer(from, to, value);\\n        return true;\\n    }\\n\\n    /**\\n     * @dev Moves a `value` amount of tokens from `from` to `to`.\\n     *\\n     * This internal function is equivalent to {transfer}, and can be used to\\n     * e.g. implement automatic token fees, slashing mechanisms, etc.\\n     *\\n     * Emits a {Transfer} event.\\n     *\\n     * NOTE: This function is not virtual, {_update} should be overridden instead.\\n     */\\n    function _transfer(address from, address to, uint256 value) internal {\\n        if (from == address(0)) {\\n            revert ERC20InvalidSender(address(0));\\n        }\\n        if (to == address(0)) {\\n            revert ERC20InvalidReceiver(address(0));\\n        }\\n        _update(from, to, value);\\n    }\\n\\n    /**\\n     * @dev Transfers a `value` amount of tokens from `from` to `to`, or alternatively mints (or burns) if `from`\\n     * (or `to`) is the zero address. All customizations to transfers, mints, and burns should be done by overriding\\n     * this function.\\n     *\\n     * Emits a {Transfer} event.\\n     */\\n    function _update(address from, address to, uint256 value) internal virtual {\\n        if (from == address(0)) {\\n            // Overflow check required: The rest of the code assumes that totalSupply never overflows\\n            _totalSupply += value;\\n        } else {\\n            uint256 fromBalance = _balances[from];\\n            if (fromBalance < value) {\\n                revert ERC20InsufficientBalance(from, fromBalance, value);\\n            }\\n            unchecked {\\n                // Overflow not possible: value <= fromBalance <= totalSupply.\\n                _balances[from] = fromBalance - value;\\n            }\\n        }\\n\\n        if (to == address(0)) {\\n            unchecked {\\n                // Overflow not possible: value <= totalSupply or value <= fromBalance <= totalSupply.\\n                _totalSupply -= value;\\n            }\\n        } else {\\n            unchecked {\\n                // Overflow not possible: balance + value is at most totalSupply, which we know fits into a uint256.\\n                _balances[to] += value;\\n            }\\n        }\\n\\n        emit Transfer(from, to, value);\\n    }\\n\\n    /**\\n     * @dev Creates a `value` amount of tokens and assigns them to `account`, by transferring it from address(0).\\n     * Relies on the `_update` mechanism\\n     *\\n     * Emits a {Transfer} event with `from` set to the zero address.\\n     *\\n     * NOTE: This function is not virtual, {_update} should be overridden instead.\\n     */\\n    function _mint(address account, uint256 value) internal {\\n        if (account == address(0)) {\\n            revert ERC20InvalidReceiver(address(0));\\n        }\\n        _update(address(0), account, value);\\n    }\\n\\n    /**\\n     * @dev Destroys a `value` amount of tokens from `account`, lowering the total supply.\\n     * Relies on the `_update` mechanism.\\n     *\\n     * Emits a {Transfer} event with `to` set to the zero address.\\n     *\\n     * NOTE: This function is not virtual, {_update} should be overridden instead\\n     */\\n    function _burn(address account, uint256 value) internal {\\n        if (account == address(0)) {\\n            revert ERC20InvalidSender(address(0));\\n        }\\n        _update(account, address(0), value);\\n    }\\n\\n    /**\\n     * @dev Sets `value` as the allowance of `spender` over the `owner`'s tokens.\\n     *\\n     * This internal function is equivalent to `approve`, and can be used to\\n     * e.g. set automatic allowances for certain subsystems, etc.\\n     *\\n     * Emits an {Approval} event.\\n     *\\n     * Requirements:\\n     *\\n     * - `owner` cannot be the zero address.\\n     * - `spender` cannot be the zero address.\\n     *\\n     * Overrides to this logic should be done to the variant with an additional `bool emitEvent` argument.\\n     */\\n    function _approve(address owner, address spender, uint256 value) internal {\\n        _approve(owner, spender, value, true);\\n    }\\n\\n    /**\\n     * @dev Variant of {_approve} with an optional flag to enable or disable the {Approval} event.\\n     *\\n     * By default (when calling {_approve}) the flag is set to true. On the other hand, approval changes made by\\n     * `_spendAllowance` during the `transferFrom` operation set the flag to false. This saves gas by not emitting any\\n     * `Approval` event during `transferFrom` operations.\\n     *\\n     * Anyone who wishes to continue emitting `Approval` events on the`transferFrom` operation can force the flag to\\n     * true using the following override:\\n     *\\n     * ```solidity\\n     * function _approve(address owner, address spender, uint256 value, bool) internal virtual override {\\n     *     super._approve(owner, spender, value, true);\\n     * }\\n     * ```\\n     *\\n     * Requirements are the same as {_approve}.\\n     */\\n    function _approve(address owner, address spender, uint256 value, bool emitEvent) internal virtual {\\n        if (owner == address(0)) {\\n            revert ERC20InvalidApprover(address(0));\\n        }\\n        if (spender == address(0)) {\\n            revert ERC20InvalidSpender(address(0));\\n        }\\n        _allowances[owner][spender] = value;\\n        if (emitEvent) {\\n            emit Approval(owner, spender, value);\\n        }\\n    }\\n\\n    /**\\n     * @dev Updates `owner`'s allowance for `spender` based on spent `value`.\\n     *\\n     * Does not update the allowance value in case of infinite allowance.\\n     * Revert if not enough allowance is available.\\n     *\\n     * Does not emit an {Approval} event.\\n     */\\n    function _spendAllowance(address owner, address spender, uint256 value) internal virtual {\\n        uint256 currentAllowance = allowance(owner, spender);\\n        if (currentAllowance < type(uint256).max) {\\n            if (currentAllowance < value) {\\n                revert ERC20InsufficientAllowance(spender, currentAllowance, value);\\n            }\\n            unchecked {\\n                _approve(owner, spender, currentAllowance - value, false);\\n            }\\n        }\\n    }\\n}\\n\"},\"@openzeppelin/contracts/interfaces/draft-IERC6093.sol\":{\"content\":\"// SPDX-License-Identifier: MIT\\n// OpenZeppelin Contracts (last updated v5.1.0) (interfaces/draft-IERC6093.sol)\\npragma solidity ^0.8.20;\\n\\n/**\\n * @dev Standard ERC-20 Errors\\n * Interface of the https://eips.ethereum.org/EIPS/eip-6093[ERC-6093] custom errors for ERC-20 tokens.\\n */\\ninterface IERC20Errors {\\n    /**\\n     * @dev Indicates an error related to the current `balance` of a `sender`. Used in transfers.\\n     * @param sender Address whose tokens are being transferred.\\n     * @param balance Current balance for the interacting account.\\n     * @param needed Minimum amount required to perform a transfer.\\n     */\\n    error ERC20InsufficientBalance(address sender, uint256 balance, uint256 needed);\\n\\n    /**\\n     * @dev Indicates a failure with the token `sender`. Used in transfers.\\n     * @param sender Address whose tokens are being transferred.\\n     */\\n    error ERC20InvalidSender(address sender);\\n\\n    /**\\n     * @dev Indicates a failure with the token `receiver`. Used in transfers.\\n     * @param receiver Address to which tokens are being transferred.\\n     */\\n    error ERC20InvalidReceiver(address receiver);\\n\\n    /**\\n     * @dev Indicates a failure with the `spender`’s `allowance`. Used in transfers.\\n     * @param spender Address that may be allowed to operate on tokens without being their owner.\\n     * @param allowance Amount of tokens a `spender` is allowed to operate with.\\n     * @param needed Minimum amount required to perform a transfer.\\n     */\\n    error ERC20InsufficientAllowance(address spender, uint256 allowance, uint256 needed);\\n\\n    /**\\n     * @dev Indicates a failure with the `approver` of a token to be approved. Used in approvals.\\n     * @param approver Address initiating an approval operation.\\n     */\\n    error ERC20InvalidApprover(address approver);\\n\\n    /**\\n     * @dev Indicates a failure with the `spender` to be approved. Used in approvals.\\n     * @param spender Address that may be allowed to operate on tokens without being their owner.\\n     */\\n    error ERC20InvalidSpender(address spender);\\n}\\n\\n/**\\n * @dev Standard ERC-721 Errors\\n * Interface of the https://eips.ethereum.org/EIPS/eip-6093[ERC-6093] custom errors for ERC-721 tokens.\\n */\\ninterface IERC721Errors {\\n    /**\\n     * @dev Indicates that an address can't be an owner. For example, `address(0)` is a forbidden owner in ERC-20.\\n     * Used in balance queries.\\n     * @param owner Address of the current owner of a token.\\n     */\\n    error ERC721InvalidOwner(address owner);\\n\\n    /**\\n     * @dev Indicates a `tokenId` whose `owner` is the zero address.\\n     * @param tokenId Identifier number of a token.\\n     */\\n    error ERC721NonexistentToken(uint256 tokenId);\\n\\n    /**\\n     * @dev Indicates an error related to the ownership over a particular token. Used in transfers.\\n     * @param sender Address whose tokens are being transferred.\\n     * @param tokenId Identifier number of a token.\\n     * @param owner Address of the current owner of a token.\\n     */\\n    error ERC721IncorrectOwner(address sender, uint256 tokenId, address owner);\\n\\n    /**\\n     * @dev Indicates a failure with the token `sender`. Used in transfers.\\n     * @param sender Address whose tokens are being transferred.\\n     */\\n    error ERC721InvalidSender(address sender);\\n\\n    /**\\n     * @dev Indicates a failure with the token `receiver`. Used in transfers.\\n     * @param receiver Address to which tokens are being transferred.\\n     */\\n    error ERC721InvalidReceiver(address receiver);\\n\\n    /**\\n     * @dev Indicates a failure with the `operator`’s approval. Used in transfers.\\n     * @param operator Address that may be allowed to operate on tokens without being their owner.\\n     * @param tokenId Identifier number of a token.\\n     */\\n    error ERC721InsufficientApproval(address operator, uint256 tokenId);\\n\\n    /**\\n     * @dev Indicates a failure with the `approver` of a token to be approved. Used in approvals.\\n     * @param approver Address initiating an approval operation.\\n     */\\n    error ERC721InvalidApprover(address approver);\\n\\n    /**\\n     * @dev Indicates a failure with the `operator` to be approved. Used in approvals.\\n     * @param operator Address that may be allowed to operate on tokens without being their owner.\\n     */\\n    error ERC721InvalidOperator(address operator);\\n}\\n\\n/**\\n * @dev Standard ERC-1155 Errors\\n * Interface of the https://eips.ethereum.org/EIPS/eip-6093[ERC-6093] custom errors for ERC-1155 tokens.\\n */\\ninterface IERC1155Errors {\\n    /**\\n     * @dev Indicates an error related to the current `balance` of a `sender`. Used in transfers.\\n     * @param sender Address whose tokens are being transferred.\\n     * @param balance Current balance for the interacting account.\\n     * @param needed Minimum amount required to perform a transfer.\\n     * @param tokenId Identifier number of a token.\\n     */\\n    error ERC1155InsufficientBalance(address sender, uint256 balance, uint256 needed, uint256 tokenId);\\n\\n    /**\\n     * @dev Indicates a failure with the token `sender`. Used in transfers.\\n     * @param sender Address whose tokens are being transferred.\\n     */\\n    error ERC1155InvalidSender(address sender);\\n\\n    /**\\n     * @dev Indicates a failure with the token `receiver`. Used in transfers.\\n     * @param receiver Address to which tokens are being transferred.\\n     */\\n    error ERC1155InvalidReceiver(address receiver);\\n\\n    /**\\n     * @dev Indicates a failure with the `operator`’s approval. Used in transfers.\\n     * @param operator Address that may be allowed to operate on tokens without being their owner.\\n     * @param owner Address of the current owner of a token.\\n     */\\n    error ERC1155MissingApprovalForAll(address operator, address owner);\\n\\n    /**\\n     * @dev Indicates a failure with the `approver` of a token to be approved. Used in approvals.\\n     * @param approver Address initiating an approval operation.\\n     */\\n    error ERC1155InvalidApprover(address approver);\\n\\n    /**\\n     * @dev Indicates a failure with the `operator` to be approved. Used in approvals.\\n     * @param operator Address that may be allowed to operate on tokens without being their owner.\\n     */\\n    error ERC1155InvalidOperator(address operator);\\n\\n    /**\\n     * @dev Indicates an array length mismatch between ids and values in a safeBatchTransferFrom operation.\\n     * Used in batch transfers.\\n     * @param idsLength Length of the array of token identifiers\\n     * @param valuesLength Length of the array of token amounts\\n     */\\n    error ERC1155InvalidArrayLength(uint256 idsLength, uint256 valuesLength);\\n}\\n\"},\"@openzeppelin/contracts/token/ERC20/extensions/IERC20Metadata.sol\":{\"content\":\"// SPDX-License-Identifier: MIT\\n// OpenZeppelin Contracts (last updated v5.1.0) (token/ERC20/extensions/IERC20Metadata.sol)\\n\\npragma solidity ^0.8.20;\\n\\nimport {IERC20} from \\\"../IERC20.sol\\\";\\n\\n/**\\n * @dev Interface for the optional metadata functions from the ERC-20 standard.\\n */\\ninterface IERC20Metadata is IERC20 {\\n    /**\\n     * @dev Returns the name of the token.\\n     */\\n    function name() external view returns (string memory);\\n\\n    /**\\n     * @dev Returns the symbol of the token.\\n     */\\n    function symbol() external view returns (string memory);\\n\\n    /**\\n     * @dev Returns the decimals places of the token.\\n     */\\n    function decimals() external view returns (uint8);\\n}\\n\"},\"@openzeppelin/contracts/token/ERC20/IERC20.sol\":{\"content\":\"// SPDX-License-Identifier: MIT\\n// OpenZeppelin Contracts (last updated v5.1.0) (token/ERC20/IERC20.sol)\\n\\npragma solidity ^0.8.20;\\n\\n/**\\n * @dev Interface of the ERC-20 standard as defined in the ERC.\\n */\\ninterface IERC20 {\\n    /**\\n     * @dev Emitted when `value` tokens are moved from one account (`from`) to\\n     * another (`to`).\\n     *\\n     * Note that `value` may be zero.\\n     */\\n    event Transfer(address indexed from, address indexed to, uint256 value);\\n\\n    /**\\n     * @dev Emitted when the allowance of a `spender` for an `owner` is set by\\n     * a call to {approve}. `value` is the new allowance.\\n     */\\n    event Approval(address indexed owner, address indexed spender, uint256 value);\\n\\n    /**\\n     * @dev Returns the value of tokens in existence.\\n     */\\n    function totalSupply() external view returns (uint256);\\n\\n    /**\\n     * @dev Returns the value of tokens owned by `account`.\\n     */\\n    function balanceOf(address account) external view returns (uint256);\\n\\n    /**\\n     * @dev Moves a `value` amount of tokens from the caller's account to `to`.\\n     *\\n     * Returns a boolean value indicating whether the operation succeeded.\\n     *\\n     * Emits a {Transfer} event.\\n     */\\n    function transfer(address to, uint256 value) external returns (bool);\\n\\n    /**\\n     * @dev Returns the remaining number of tokens that `spender` will be\\n     * allowed to spend on behalf of `owner` through {transferFrom}. This is\\n     * zero by default.\\n     *\\n     * This value changes when {approve} or {transferFrom} are called.\\n     */\\n    function allowance(address owner, address spender) external view returns (uint256);\\n\\n    /**\\n     * @dev Sets a `value` amount of tokens as the allowance of `spender` over the\\n     * caller's tokens.\\n     *\\n     * Returns a boolean value indicating whether the operation succeeded.\\n     *\\n     * IMPORTANT: Beware that changing an allowance with this method brings the risk\\n     * that someone may use both the old and the new allowance by unfortunate\\n     * transaction ordering. One possible solution to mitigate this race\\n     * condition is to first reduce the spender's allowance to 0 and set the\\n     * desired value afterwards:\\n     * https://github.com/ethereum/EIPs/issues/20#issuecomment-263524729\\n     *\\n     * Emits an {Approval} event.\\n     */\\n    function approve(address spender, uint256 value) external returns (bool);\\n\\n    /**\\n     * @dev Moves a `value` amount of tokens from `from` to `to` using the\\n     * allowance mechanism. `value` is then deducted from the caller's\\n     * allowance.\\n     *\\n     * Returns a boolean value indicating whether the operation succeeded.\\n     *\\n     * Emits a {Transfer} event.\\n     */\\n    function transferFrom(address from, address to, uint256 value) external returns (bool);\\n}\\n\"},\"@layerzerolabs/oft-evm/contracts/libs/OFTComposeMsgCodec.sol\":{\"content\":\"// SPDX-License-Identifier: MIT\\n\\npragma solidity ^0.8.20;\\n\\nlibrary OFTComposeMsgCodec {\\n    // Offset constants for decoding composed messages\\n    uint8 private constant NONCE_OFFSET = 8;\\n    uint8 private constant SRC_EID_OFFSET = 12;\\n    uint8 private constant AMOUNT_LD_OFFSET = 44;\\n    uint8 private constant COMPOSE_FROM_OFFSET = 76;\\n\\n    /**\\n     * @dev Encodes a OFT composed message.\\n     * @param _nonce The nonce value.\\n     * @param _srcEid The source endpoint ID.\\n     * @param _amountLD The amount in local decimals.\\n     * @param _composeMsg The composed message.\\n     * @return _msg The encoded Composed message.\\n     */\\n    function encode(\\n        uint64 _nonce,\\n        uint32 _srcEid,\\n        uint256 _amountLD,\\n        bytes memory _composeMsg // 0x[composeFrom][composeMsg]\\n    ) internal pure returns (bytes memory _msg) {\\n        _msg = abi.encodePacked(_nonce, _srcEid, _amountLD, _composeMsg);\\n    }\\n\\n    /**\\n     * @dev Retrieves the nonce for the composed message.\\n     * @param _msg The message.\\n     * @return The nonce value.\\n     */\\n    function nonce(bytes calldata _msg) internal pure returns (uint64) {\\n        return uint64(bytes8(_msg[:NONCE_OFFSET]));\\n    }\\n\\n    /**\\n     * @dev Retrieves the source endpoint ID for the composed message.\\n     * @param _msg The message.\\n     * @return The source endpoint ID.\\n     */\\n    function srcEid(bytes calldata _msg) internal pure returns (uint32) {\\n        return uint32(bytes4(_msg[NONCE_OFFSET:SRC_EID_OFFSET]));\\n    }\\n\\n    /**\\n     * @dev Retrieves the amount in local decimals from the composed message.\\n     * @param _msg The message.\\n     * @return The amount in local decimals.\\n     */\\n    function amountLD(bytes calldata _msg) internal pure returns (uint256) {\\n        return uint256(bytes32(_msg[SRC_EID_OFFSET:AMOUNT_LD_OFFSET]));\\n    }\\n\\n    /**\\n     * @dev Retrieves the composeFrom value from the composed message.\\n     * @param _msg The message.\\n     * @return The composeFrom value.\\n     */\\n    function composeFrom(bytes calldata _msg) internal pure returns (bytes32) {\\n        return bytes32(_msg[AMOUNT_LD_OFFSET:COMPOSE_FROM_OFFSET]);\\n    }\\n\\n    /**\\n     * @dev Retrieves the composed message.\\n     * @param _msg The message.\\n     * @return The composed message.\\n     */\\n    function composeMsg(bytes calldata _msg) internal pure returns (bytes memory) {\\n        return _msg[COMPOSE_FROM_OFFSET:];\\n    }\\n\\n    /**\\n     * @dev Converts an address to bytes32.\\n     * @param _addr The address to convert.\\n     * @return The bytes32 representation of the address.\\n     */\\n    function addressToBytes32(address _addr) internal pure returns (bytes32) {\\n        return bytes32(uint256(uint160(_addr)));\\n    }\\n\\n    /**\\n     * @dev Converts bytes32 to an address.\\n     * @param _b The bytes32 value to convert.\\n     * @return The address representation of bytes32.\\n     */\\n    function bytes32ToAddress(bytes32 _b) internal pure returns (address) {\\n        return address(uint160(uint256(_b)));\\n    }\\n}\\n\"},\"@layerzerolabs/oft-evm/contracts/libs/OFTMsgCodec.sol\":{\"content\":\"// SPDX-License-Identifier: MIT\\n\\npragma solidity ^0.8.20;\\n\\nlibrary OFTMsgCodec {\\n    // Offset constants for encoding and decoding OFT messages\\n    uint8 private constant SEND_TO_OFFSET = 32;\\n    uint8 private constant SEND_AMOUNT_SD_OFFSET = 40;\\n\\n    /**\\n     * @dev Encodes an OFT LayerZero message.\\n     * @param _sendTo The recipient address.\\n     * @param _amountShared The amount in shared decimals.\\n     * @param _composeMsg The composed message.\\n     * @return _msg The encoded message.\\n     * @return hasCompose A boolean indicating whether the message has a composed payload.\\n     */\\n    function encode(\\n        bytes32 _sendTo,\\n        uint64 _amountShared,\\n        bytes memory _composeMsg\\n    ) internal view returns (bytes memory _msg, bool hasCompose) {\\n        hasCompose = _composeMsg.length > 0;\\n        // @dev Remote chains will want to know the composed function caller ie. msg.sender on the src.\\n        _msg = hasCompose\\n            ? abi.encodePacked(_sendTo, _amountShared, addressToBytes32(msg.sender), _composeMsg)\\n            : abi.encodePacked(_sendTo, _amountShared);\\n    }\\n\\n    /**\\n     * @dev Checks if the OFT message is composed.\\n     * @param _msg The OFT message.\\n     * @return A boolean indicating whether the message is composed.\\n     */\\n    function isComposed(bytes calldata _msg) internal pure returns (bool) {\\n        return _msg.length > SEND_AMOUNT_SD_OFFSET;\\n    }\\n\\n    /**\\n     * @dev Retrieves the recipient address from the OFT message.\\n     * @param _msg The OFT message.\\n     * @return The recipient address.\\n     */\\n    function sendTo(bytes calldata _msg) internal pure returns (bytes32) {\\n        return bytes32(_msg[:SEND_TO_OFFSET]);\\n    }\\n\\n    /**\\n     * @dev Retrieves the amount in shared decimals from the OFT message.\\n     * @param _msg The OFT message.\\n     * @return The amount in shared decimals.\\n     */\\n    function amountSD(bytes calldata _msg) internal pure returns (uint64) {\\n        return uint64(bytes8(_msg[SEND_TO_OFFSET:SEND_AMOUNT_SD_OFFSET]));\\n    }\\n\\n    /**\\n     * @dev Retrieves the composed message from the OFT message.\\n     * @param _msg The OFT message.\\n     * @return The composed message.\\n     */\\n    function composeMsg(bytes calldata _msg) internal pure returns (bytes memory) {\\n        return _msg[SEND_AMOUNT_SD_OFFSET:];\\n    }\\n\\n    /**\\n     * @dev Converts an address to bytes32.\\n     * @param _addr The address to convert.\\n     * @return The bytes32 representation of the address.\\n     */\\n    function addressToBytes32(address _addr) internal pure returns (bytes32) {\\n        return bytes32(uint256(uint160(_addr)));\\n    }\\n\\n    /**\\n     * @dev Converts bytes32 to an address.\\n     * @param _b The bytes32 value to convert.\\n     * @return The address representation of bytes32.\\n     */\\n    function bytes32ToAddress(bytes32 _b) internal pure returns (address) {\\n        return address(uint160(uint256(_b)));\\n    }\\n}\\n\"},\"@layerzerolabs/oft-evm/contracts/interfaces/IOFT.sol\":{\"content\":\"// SPDX-License-Identifier: MIT\\n\\npragma solidity ^0.8.20;\\n\\nimport { MessagingReceipt, MessagingFee } from \\\"@layerzerolabs/oapp-evm/contracts/oapp/OAppSender.sol\\\";\\n\\n/**\\n * @dev Struct representing token parameters for the OFT send() operation.\\n */\\nstruct SendParam {\\n    uint32 dstEid; // Destination endpoint ID.\\n    bytes32 to; // Recipient address.\\n    uint256 amountLD; // Amount to send in local decimals.\\n    uint256 minAmountLD; // Minimum amount to send in local decimals.\\n    bytes extraOptions; // Additional options supplied by the caller to be used in the LayerZero message.\\n    bytes composeMsg; // The composed message for the send() operation.\\n    bytes oftCmd; // The OFT command to be executed, unused in default OFT implementations.\\n}\\n\\n/**\\n * @dev Struct representing OFT limit information.\\n * @dev These amounts can change dynamically and are up the specific oft implementation.\\n */\\nstruct OFTLimit {\\n    uint256 minAmountLD; // Minimum amount in local decimals that can be sent to the recipient.\\n    uint256 maxAmountLD; // Maximum amount in local decimals that can be sent to the recipient.\\n}\\n\\n/**\\n * @dev Struct representing OFT receipt information.\\n */\\nstruct OFTReceipt {\\n    uint256 amountSentLD; // Amount of tokens ACTUALLY debited from the sender in local decimals.\\n    // @dev In non-default implementations, the amountReceivedLD COULD differ from this value.\\n    uint256 amountReceivedLD; // Amount of tokens to be received on the remote side.\\n}\\n\\n/**\\n * @dev Struct representing OFT fee details.\\n * @dev Future proof mechanism to provide a standardized way to communicate fees to things like a UI.\\n */\\nstruct OFTFeeDetail {\\n    int256 feeAmountLD; // Amount of the fee in local decimals.\\n    string description; // Description of the fee.\\n}\\n\\n/**\\n * @title IOFT\\n * @dev Interface for the OftChain (OFT) token.\\n * @dev Does not inherit ERC20 to accommodate usage by OFTAdapter as well.\\n * @dev This specific interface ID is '0x02e49c2c'.\\n */\\ninterface IOFT {\\n    // Custom error messages\\n    error InvalidLocalDecimals();\\n    error SlippageExceeded(uint256 amountLD, uint256 minAmountLD);\\n\\n    // Events\\n    event OFTSent(\\n        bytes32 indexed guid, // GUID of the OFT message.\\n        uint32 dstEid, // Destination Endpoint ID.\\n        address indexed fromAddress, // Address of the sender on the src chain.\\n        uint256 amountSentLD, // Amount of tokens sent in local decimals.\\n        uint256 amountReceivedLD // Amount of tokens received in local decimals.\\n    );\\n    event OFTReceived(\\n        bytes32 indexed guid, // GUID of the OFT message.\\n        uint32 srcEid, // Source Endpoint ID.\\n        address indexed toAddress, // Address of the recipient on the dst chain.\\n        uint256 amountReceivedLD // Amount of tokens received in local decimals.\\n    );\\n\\n    /**\\n     * @notice Retrieves interfaceID and the version of the OFT.\\n     * @return interfaceId The interface ID.\\n     * @return version The version.\\n     *\\n     * @dev interfaceId: This specific interface ID is '0x02e49c2c'.\\n     * @dev version: Indicates a cross-chain compatible msg encoding with other OFTs.\\n     * @dev If a new feature is added to the OFT cross-chain msg encoding, the version will be incremented.\\n     * ie. localOFT version(x,1) CAN send messages to remoteOFT version(x,1)\\n     */\\n    function oftVersion() external view returns (bytes4 interfaceId, uint64 version);\\n\\n    /**\\n     * @notice Retrieves the address of the token associated with the OFT.\\n     * @return token The address of the ERC20 token implementation.\\n     */\\n    function token() external view returns (address);\\n\\n    /**\\n     * @notice Indicates whether the OFT contract requires approval of the 'token()' to send.\\n     * @return requiresApproval Needs approval of the underlying token implementation.\\n     *\\n     * @dev Allows things like wallet implementers to determine integration requirements,\\n     * without understanding the underlying token implementation.\\n     */\\n    function approvalRequired() external view returns (bool);\\n\\n    /**\\n     * @notice Retrieves the shared decimals of the OFT.\\n     * @return sharedDecimals The shared decimals of the OFT.\\n     */\\n    function sharedDecimals() external view returns (uint8);\\n\\n    /**\\n     * @notice Provides the fee breakdown and settings data for an OFT. Unused in the default implementation.\\n     * @param _sendParam The parameters for the send operation.\\n     * @return limit The OFT limit information.\\n     * @return oftFeeDetails The details of OFT fees.\\n     * @return receipt The OFT receipt information.\\n     */\\n    function quoteOFT(\\n        SendParam calldata _sendParam\\n    ) external view returns (OFTLimit memory, OFTFeeDetail[] memory oftFeeDetails, OFTReceipt memory);\\n\\n    /**\\n     * @notice Provides a quote for the send() operation.\\n     * @param _sendParam The parameters for the send() operation.\\n     * @param _payInLzToken Flag indicating whether the caller is paying in the LZ token.\\n     * @return fee The calculated LayerZero messaging fee from the send() operation.\\n     *\\n     * @dev MessagingFee: LayerZero msg fee\\n     *  - nativeFee: The native fee.\\n     *  - lzTokenFee: The lzToken fee.\\n     */\\n    function quoteSend(SendParam calldata _sendParam, bool _payInLzToken) external view returns (MessagingFee memory);\\n\\n    /**\\n     * @notice Executes the send() operation.\\n     * @param _sendParam The parameters for the send operation.\\n     * @param _fee The fee information supplied by the caller.\\n     *      - nativeFee: The native fee.\\n     *      - lzTokenFee: The lzToken fee.\\n     * @param _refundAddress The address to receive any excess funds from fees etc. on the src.\\n     * @return receipt The LayerZero messaging receipt from the send() operation.\\n     * @return oftReceipt The OFT receipt information.\\n     *\\n     * @dev MessagingReceipt: LayerZero msg receipt\\n     *  - guid: The unique identifier for the sent message.\\n     *  - nonce: The nonce of the sent message.\\n     *  - fee: The LayerZero fee incurred for the message.\\n     */\\n    function send(\\n        SendParam calldata _sendParam,\\n        MessagingFee calldata _fee,\\n        address _refundAddress\\n    ) external payable returns (MessagingReceipt memory, OFTReceipt memory);\\n}\\n\"},\"@layerzerolabs/oapp-evm/contracts/precrime/OAppPreCrimeSimulator.sol\":{\"content\":\"// SPDX-License-Identifier: MIT\\n\\npragma solidity ^0.8.20;\\n\\nimport { Ownable } from \\\"@openzeppelin/contracts/access/Ownable.sol\\\";\\nimport { IPreCrime } from \\\"./interfaces/IPreCrime.sol\\\";\\nimport { IOAppPreCrimeSimulator, InboundPacket, Origin } from \\\"./interfaces/IOAppPreCrimeSimulator.sol\\\";\\n\\n/**\\n * @title OAppPreCrimeSimulator\\n * @dev Abstract contract serving as the base for preCrime simulation functionality in an OApp.\\n */\\nabstract contract OAppPreCrimeSimulator is IOAppPreCrimeSimulator, Ownable {\\n    // The address of the preCrime implementation.\\n    address public preCrime;\\n\\n    /**\\n     * @dev Retrieves the address of the OApp contract.\\n     * @return The address of the OApp contract.\\n     *\\n     * @dev The simulator contract is the base contract for the OApp by default.\\n     * @dev If the simulator is a separate contract, override this function.\\n     */\\n    function oApp() external view virtual returns (address) {\\n        return address(this);\\n    }\\n\\n    /**\\n     * @dev Sets the preCrime contract address.\\n     * @param _preCrime The address of the preCrime contract.\\n     */\\n    function setPreCrime(address _preCrime) public virtual onlyOwner {\\n        preCrime = _preCrime;\\n        emit PreCrimeSet(_preCrime);\\n    }\\n\\n    /**\\n     * @dev Interface for pre-crime simulations. Always reverts at the end with the simulation results.\\n     * @param _packets An array of InboundPacket objects representing received packets to be delivered.\\n     *\\n     * @dev WARNING: MUST revert at the end with the simulation results.\\n     * @dev Gives the preCrime implementation the ability to mock sending packets to the lzReceive function,\\n     * WITHOUT actually executing them.\\n     */\\n    function lzReceiveAndRevert(InboundPacket[] calldata _packets) public payable virtual {\\n        for (uint256 i = 0; i < _packets.length; i++) {\\n            InboundPacket calldata packet = _packets[i];\\n\\n            // Ignore packets that are not from trusted peers.\\n            if (!isPeer(packet.origin.srcEid, packet.origin.sender)) continue;\\n\\n            // @dev Because a verifier is calling this function, it doesnt have access to executor params:\\n            //  - address _executor\\n            //  - bytes calldata _extraData\\n            // preCrime will NOT work for OApps that rely on these two parameters inside of their _lzReceive().\\n            // They are instead stubbed to default values, address(0) and bytes(\\\"\\\")\\n            // @dev Calling this.lzReceiveSimulate removes ability for assembly return 0 callstack exit,\\n            // which would cause the revert to be ignored.\\n            this.lzReceiveSimulate{ value: packet.value }(\\n                packet.origin,\\n                packet.guid,\\n                packet.message,\\n                packet.executor,\\n                packet.extraData\\n            );\\n        }\\n\\n        // @dev Revert with the simulation results. msg.sender must implement IPreCrime.buildSimulationResult().\\n        revert SimulationResult(IPreCrime(msg.sender).buildSimulationResult());\\n    }\\n\\n    /**\\n     * @dev Is effectively an internal function because msg.sender must be address(this).\\n     * Allows resetting the call stack for 'internal' calls.\\n     * @param _origin The origin information containing the source endpoint and sender address.\\n     *  - srcEid: The source chain endpoint ID.\\n     *  - sender: The sender address on the src chain.\\n     *  - nonce: The nonce of the message.\\n     * @param _guid The unique identifier of the packet.\\n     * @param _message The message payload of the packet.\\n     * @param _executor The executor address for the packet.\\n     * @param _extraData Additional data for the packet.\\n     */\\n    function lzReceiveSimulate(\\n        Origin calldata _origin,\\n        bytes32 _guid,\\n        bytes calldata _message,\\n        address _executor,\\n        bytes calldata _extraData\\n    ) external payable virtual {\\n        // @dev Ensure ONLY can be called 'internally'.\\n        if (msg.sender != address(this)) revert OnlySelf();\\n        _lzReceiveSimulate(_origin, _guid, _message, _executor, _extraData);\\n    }\\n\\n    /**\\n     * @dev Internal function to handle the OAppPreCrimeSimulator simulated receive.\\n     * @param _origin The origin information.\\n     *  - srcEid: The source chain endpoint ID.\\n     *  - sender: The sender address from the src chain.\\n     *  - nonce: The nonce of the LayerZero message.\\n     * @param _guid The GUID of the LayerZero message.\\n     * @param _message The LayerZero message.\\n     * @param _executor The address of the off-chain executor.\\n     * @param _extraData Arbitrary data passed by the msg executor.\\n     *\\n     * @dev Enables the preCrime simulator to mock sending lzReceive() messages,\\n     * routes the msg down from the OAppPreCrimeSimulator, and back up to the OAppReceiver.\\n     */\\n    function _lzReceiveSimulate(\\n        Origin calldata _origin,\\n        bytes32 _guid,\\n        bytes calldata _message,\\n        address _executor,\\n        bytes calldata _extraData\\n    ) internal virtual;\\n\\n    /**\\n     * @dev checks if the specified peer is considered 'trusted' by the OApp.\\n     * @param _eid The endpoint Id to check.\\n     * @param _peer The peer to check.\\n     * @return Whether the peer passed is considered 'trusted' by the OApp.\\n     */\\n    function isPeer(uint32 _eid, bytes32 _peer) public view virtual returns (bool);\\n}\\n\"},\"@layerzerolabs/oapp-evm/contracts/oapp/interfaces/IOAppMsgInspector.sol\":{\"content\":\"// SPDX-License-Identifier: MIT\\n\\npragma solidity ^0.8.20;\\n\\n/**\\n * @title IOAppMsgInspector\\n * @dev Interface for the OApp Message Inspector, allowing examination of message and options contents.\\n */\\ninterface IOAppMsgInspector {\\n    // Custom error message for inspection failure\\n    error InspectionFailed(bytes message, bytes options);\\n\\n    /**\\n     * @notice Allows the inspector to examine LayerZero message contents and optionally throw a revert if invalid.\\n     * @param _message The message payload to be inspected.\\n     * @param _options Additional options or parameters for inspection.\\n     * @return valid A boolean indicating whether the inspection passed (true) or failed (false).\\n     *\\n     * @dev Optionally done as a revert, OR use the boolean provided to handle the failure.\\n     */\\n    function inspect(bytes calldata _message, bytes calldata _options) external view returns (bool valid);\\n}\\n\"},\"@layerzerolabs/oapp-evm/contracts/oapp/libs/OAppOptionsType3.sol\":{\"content\":\"// SPDX-License-Identifier: MIT\\n\\npragma solidity ^0.8.20;\\n\\nimport { Ownable } from \\\"@openzeppelin/contracts/access/Ownable.sol\\\";\\nimport { IOAppOptionsType3, EnforcedOptionParam } from \\\"../interfaces/IOAppOptionsType3.sol\\\";\\n\\n/**\\n * @title OAppOptionsType3\\n * @dev Abstract contract implementing the IOAppOptionsType3 interface with type 3 options.\\n */\\nabstract contract OAppOptionsType3 is IOAppOptionsType3, Ownable {\\n    uint16 internal constant OPTION_TYPE_3 = 3;\\n\\n    // @dev The \\\"msgType\\\" should be defined in the child contract.\\n    mapping(uint32 eid => mapping(uint16 msgType => bytes enforcedOption)) public enforcedOptions;\\n\\n    /**\\n     * @dev Sets the enforced options for specific endpoint and message type combinations.\\n     * @param _enforcedOptions An array of EnforcedOptionParam structures specifying enforced options.\\n     *\\n     * @dev Only the owner/admin of the OApp can call this function.\\n     * @dev Provides a way for the OApp to enforce things like paying for PreCrime, AND/OR minimum dst lzReceive gas amounts etc.\\n     * @dev These enforced options can vary as the potential options/execution on the remote may differ as per the msgType.\\n     * eg. Amount of lzReceive() gas necessary to deliver a lzCompose() message adds overhead you dont want to pay\\n     * if you are only making a standard LayerZero message ie. lzReceive() WITHOUT sendCompose().\\n     */\\n    function setEnforcedOptions(EnforcedOptionParam[] calldata _enforcedOptions) public virtual onlyOwner {\\n        _setEnforcedOptions(_enforcedOptions);\\n    }\\n\\n    /**\\n     * @dev Sets the enforced options for specific endpoint and message type combinations.\\n     * @param _enforcedOptions An array of EnforcedOptionParam structures specifying enforced options.\\n     *\\n     * @dev Provides a way for the OApp to enforce things like paying for PreCrime, AND/OR minimum dst lzReceive gas amounts etc.\\n     * @dev These enforced options can vary as the potential options/execution on the remote may differ as per the msgType.\\n     * eg. Amount of lzReceive() gas necessary to deliver a lzCompose() message adds overhead you dont want to pay\\n     * if you are only making a standard LayerZero message ie. lzReceive() WITHOUT sendCompose().\\n     */\\n    function _setEnforcedOptions(EnforcedOptionParam[] memory _enforcedOptions) internal virtual {\\n        for (uint256 i = 0; i < _enforcedOptions.length; i++) {\\n            // @dev Enforced options are only available for optionType 3, as type 1 and 2 dont support combining.\\n            _assertOptionsType3(_enforcedOptions[i].options);\\n            enforcedOptions[_enforcedOptions[i].eid][_enforcedOptions[i].msgType] = _enforcedOptions[i].options;\\n        }\\n\\n        emit EnforcedOptionSet(_enforcedOptions);\\n    }\\n\\n    /**\\n     * @notice Combines options for a given endpoint and message type.\\n     * @param _eid The endpoint ID.\\n     * @param _msgType The OAPP message type.\\n     * @param _extraOptions Additional options passed by the caller.\\n     * @return options The combination of caller specified options AND enforced options.\\n     *\\n     * @dev If there is an enforced lzReceive option:\\n     * - {gasLimit: 200k, msg.value: 1 ether} AND a caller supplies a lzReceive option: {gasLimit: 100k, msg.value: 0.5 ether}\\n     * - The resulting options will be {gasLimit: 300k, msg.value: 1.5 ether} when the message is executed on the remote lzReceive() function.\\n     * @dev This presence of duplicated options is handled off-chain in the verifier/executor.\\n     */\\n    function combineOptions(\\n        uint32 _eid,\\n        uint16 _msgType,\\n        bytes calldata _extraOptions\\n    ) public view virtual returns (bytes memory) {\\n        bytes memory enforced = enforcedOptions[_eid][_msgType];\\n\\n        // No enforced options, pass whatever the caller supplied, even if it's empty or legacy type 1/2 options.\\n        if (enforced.length == 0) return _extraOptions;\\n\\n        // No caller options, return enforced\\n        if (_extraOptions.length == 0) return enforced;\\n\\n        // @dev If caller provided _extraOptions, must be type 3 as its the ONLY type that can be combined.\\n        if (_extraOptions.length >= 2) {\\n            _assertOptionsType3(_extraOptions);\\n            // @dev Remove the first 2 bytes containing the type from the _extraOptions and combine with enforced.\\n            return bytes.concat(enforced, _extraOptions[2:]);\\n        }\\n\\n        // No valid set of options was found.\\n        revert InvalidOptions(_extraOptions);\\n    }\\n\\n    /**\\n     * @dev Internal function to assert that options are of type 3.\\n     * @param _options The options to be checked.\\n     */\\n    function _assertOptionsType3(bytes memory _options) internal pure virtual {\\n        uint16 optionsType;\\n        assembly {\\n            optionsType := mload(add(_options, 2))\\n        }\\n        if (optionsType != OPTION_TYPE_3) revert InvalidOptions(_options);\\n    }\\n}\\n\"},\"@layerzerolabs/oapp-evm/contracts/oapp/OApp.sol\":{\"content\":\"// SPDX-License-Identifier: MIT\\n\\npragma solidity ^0.8.20;\\n\\n// @dev Import the 'MessagingFee' and 'MessagingReceipt' so it's exposed to OApp implementers\\n// solhint-disable-next-line no-unused-import\\nimport { OAppSender, MessagingFee, MessagingReceipt } from \\\"./OAppSender.sol\\\";\\n// @dev Import the 'Origin' so it's exposed to OApp implementers\\n// solhint-disable-next-line no-unused-import\\nimport { OAppReceiver, Origin } from \\\"./OAppReceiver.sol\\\";\\nimport { OAppCore } from \\\"./OAppCore.sol\\\";\\n\\n/**\\n * @title OApp\\n * @dev Abstract contract serving as the base for OApp implementation, combining OAppSender and OAppReceiver functionality.\\n */\\nabstract contract OApp is OAppSender, OAppReceiver {\\n    /**\\n     * @dev Constructor to initialize the OApp with the provided endpoint and owner.\\n     * @param _endpoint The address of the LOCAL LayerZero endpoint.\\n     * @param _delegate The delegate capable of making OApp configurations inside of the endpoint.\\n     */\\n    constructor(address _endpoint, address _delegate) OAppCore(_endpoint, _delegate) {}\\n\\n    /**\\n     * @notice Retrieves the OApp version information.\\n     * @return senderVersion The version of the OAppSender.sol implementation.\\n     * @return receiverVersion The version of the OAppReceiver.sol implementation.\\n     */\\n    function oAppVersion()\\n        public\\n        pure\\n        virtual\\n        override(OAppSender, OAppReceiver)\\n        returns (uint64 senderVersion, uint64 receiverVersion)\\n    {\\n        return (SENDER_VERSION, RECEIVER_VERSION);\\n    }\\n}\\n\"},\"@layerzerolabs/oapp-evm/contracts/oapp/OAppSender.sol\":{\"content\":\"// SPDX-License-Identifier: MIT\\n\\npragma solidity ^0.8.20;\\n\\nimport { SafeERC20, IERC20 } from \\\"@openzeppelin/contracts/token/ERC20/utils/SafeERC20.sol\\\";\\nimport { MessagingParams, MessagingFee, MessagingReceipt } from \\\"@layerzerolabs/lz-evm-protocol-v2/contracts/interfaces/ILayerZeroEndpointV2.sol\\\";\\nimport { OAppCore } from \\\"./OAppCore.sol\\\";\\n\\n/**\\n * @title OAppSender\\n * @dev Abstract contract implementing the OAppSender functionality for sending messages to a LayerZero endpoint.\\n */\\nabstract contract OAppSender is OAppCore {\\n    using SafeERC20 for IERC20;\\n\\n    // Custom error messages\\n    error NotEnoughNative(uint256 msgValue);\\n    error LzTokenUnavailable();\\n\\n    // @dev The version of the OAppSender implementation.\\n    // @dev Version is bumped when changes are made to this contract.\\n    uint64 internal constant SENDER_VERSION = 1;\\n\\n    /**\\n     * @notice Retrieves the OApp version information.\\n     * @return senderVersion The version of the OAppSender.sol contract.\\n     * @return receiverVersion The version of the OAppReceiver.sol contract.\\n     *\\n     * @dev Providing 0 as the default for OAppReceiver version. Indicates that the OAppReceiver is not implemented.\\n     * ie. this is a SEND only OApp.\\n     * @dev If the OApp uses both OAppSender and OAppReceiver, then this needs to be override returning the correct versions\\n     */\\n    function oAppVersion() public view virtual returns (uint64 senderVersion, uint64 receiverVersion) {\\n        return (SENDER_VERSION, 0);\\n    }\\n\\n    /**\\n     * @dev Internal function to interact with the LayerZero EndpointV2.quote() for fee calculation.\\n     * @param _dstEid The destination endpoint ID.\\n     * @param _message The message payload.\\n     * @param _options Additional options for the message.\\n     * @param _payInLzToken Flag indicating whether to pay the fee in LZ tokens.\\n     * @return fee The calculated MessagingFee for the message.\\n     *      - nativeFee: The native fee for the message.\\n     *      - lzTokenFee: The LZ token fee for the message.\\n     */\\n    function _quote(\\n        uint32 _dstEid,\\n        bytes memory _message,\\n        bytes memory _options,\\n        bool _payInLzToken\\n    ) internal view virtual returns (MessagingFee memory fee) {\\n        return\\n            endpoint.quote(\\n                MessagingParams(_dstEid, _getPeerOrRevert(_dstEid), _message, _options, _payInLzToken),\\n                address(this)\\n            );\\n    }\\n\\n    /**\\n     * @dev Internal function to interact with the LayerZero EndpointV2.send() for sending a message.\\n     * @param _dstEid The destination endpoint ID.\\n     * @param _message The message payload.\\n     * @param _options Additional options for the message.\\n     * @param _fee The calculated LayerZero fee for the message.\\n     *      - nativeFee: The native fee.\\n     *      - lzTokenFee: The lzToken fee.\\n     * @param _refundAddress The address to receive any excess fee values sent to the endpoint.\\n     * @return receipt The receipt for the sent message.\\n     *      - guid: The unique identifier for the sent message.\\n     *      - nonce: The nonce of the sent message.\\n     *      - fee: The LayerZero fee incurred for the message.\\n     */\\n    function _lzSend(\\n        uint32 _dstEid,\\n        bytes memory _message,\\n        bytes memory _options,\\n        MessagingFee memory _fee,\\n        address _refundAddress\\n    ) internal virtual returns (MessagingReceipt memory receipt) {\\n        // @dev Push corresponding fees to the endpoint, any excess is sent back to the _refundAddress from the endpoint.\\n        uint256 messageValue = _payNative(_fee.nativeFee);\\n        if (_fee.lzTokenFee > 0) _payLzToken(_fee.lzTokenFee);\\n\\n        return\\n            // solhint-disable-next-line check-send-result\\n            endpoint.send{ value: messageValue }(\\n                MessagingParams(_dstEid, _getPeerOrRevert(_dstEid), _message, _options, _fee.lzTokenFee > 0),\\n                _refundAddress\\n            );\\n    }\\n\\n    /**\\n     * @dev Internal function to pay the native fee associated with the message.\\n     * @param _nativeFee The native fee to be paid.\\n     * @return nativeFee The amount of native currency paid.\\n     *\\n     * @dev If the OApp needs to initiate MULTIPLE LayerZero messages in a single transaction,\\n     * this will need to be overridden because msg.value would contain multiple lzFees.\\n     * @dev Should be overridden in the event the LayerZero endpoint requires a different native currency.\\n     * @dev Some EVMs use an ERC20 as a method for paying transactions/gasFees.\\n     * @dev The endpoint is EITHER/OR, ie. it will NOT support both types of native payment at a time.\\n     */\\n    function _payNative(uint256 _nativeFee) internal virtual returns (uint256 nativeFee) {\\n        if (msg.value != _nativeFee) revert NotEnoughNative(msg.value);\\n        return _nativeFee;\\n    }\\n\\n    /**\\n     * @dev Internal function to pay the LZ token fee associated with the message.\\n     * @param _lzTokenFee The LZ token fee to be paid.\\n     *\\n     * @dev If the caller is trying to pay in the specified lzToken, then the lzTokenFee is passed to the endpoint.\\n     * @dev Any excess sent, is passed back to the specified _refundAddress in the _lzSend().\\n     */\\n    function _payLzToken(uint256 _lzTokenFee) internal virtual {\\n        // @dev Cannot cache the token because it is not immutable in the endpoint.\\n        address lzToken = endpoint.lzToken();\\n        if (lzToken == address(0)) revert LzTokenUnavailable();\\n\\n        // Pay LZ token fee by sending tokens to the endpoint.\\n        IERC20(lzToken).safeTransferFrom(msg.sender, address(endpoint), _lzTokenFee);\\n    }\\n}\\n\"},\"@layerzerolabs/oapp-evm/contracts/precrime/interfaces/IOAppPreCrimeSimulator.sol\":{\"content\":\"// SPDX-License-Identifier: MIT\\n\\npragma solidity ^0.8.20;\\n\\n// @dev Import the Origin so it's exposed to OAppPreCrimeSimulator implementers.\\n// solhint-disable-next-line no-unused-import\\nimport { InboundPacket, Origin } from \\\"../libs/Packet.sol\\\";\\n\\n/**\\n * @title IOAppPreCrimeSimulator Interface\\n * @dev Interface for the preCrime simulation functionality in an OApp.\\n */\\ninterface IOAppPreCrimeSimulator {\\n    // @dev simulation result used in PreCrime implementation\\n    error SimulationResult(bytes result);\\n    error OnlySelf();\\n\\n    /**\\n     * @dev Emitted when the preCrime contract address is set.\\n     * @param preCrimeAddress The address of the preCrime contract.\\n     */\\n    event PreCrimeSet(address preCrimeAddress);\\n\\n    /**\\n     * @dev Retrieves the address of the preCrime contract implementation.\\n     * @return The address of the preCrime contract.\\n     */\\n    function preCrime() external view returns (address);\\n\\n    /**\\n     * @dev Retrieves the address of the OApp contract.\\n     * @return The address of the OApp contract.\\n     */\\n    function oApp() external view returns (address);\\n\\n    /**\\n     * @dev Sets the preCrime contract address.\\n     * @param _preCrime The address of the preCrime contract.\\n     */\\n    function setPreCrime(address _preCrime) external;\\n\\n    /**\\n     * @dev Mocks receiving a packet, then reverts with a series of data to infer the state/result.\\n     * @param _packets An array of LayerZero InboundPacket objects representing received packets.\\n     */\\n    function lzReceiveAndRevert(InboundPacket[] calldata _packets) external payable;\\n\\n    /**\\n     * @dev checks if the specified peer is considered 'trusted' by the OApp.\\n     * @param _eid The endpoint Id to check.\\n     * @param _peer The peer to check.\\n     * @return Whether the peer passed is considered 'trusted' by the OApp.\\n     */\\n    function isPeer(uint32 _eid, bytes32 _peer) external view returns (bool);\\n}\\n\"},\"@layerzerolabs/oapp-evm/contracts/precrime/interfaces/IPreCrime.sol\":{\"content\":\"// SPDX-License-Identifier: MIT\\n\\npragma solidity ^0.8.20;\\nstruct PreCrimePeer {\\n    uint32 eid;\\n    bytes32 preCrime;\\n    bytes32 oApp;\\n}\\n\\n// TODO not done yet\\ninterface IPreCrime {\\n    error OnlyOffChain();\\n\\n    // for simulate()\\n    error PacketOversize(uint256 max, uint256 actual);\\n    error PacketUnsorted();\\n    error SimulationFailed(bytes reason);\\n\\n    // for preCrime()\\n    error SimulationResultNotFound(uint32 eid);\\n    error InvalidSimulationResult(uint32 eid, bytes reason);\\n    error CrimeFound(bytes crime);\\n\\n    function getConfig(bytes[] calldata _packets, uint256[] calldata _packetMsgValues) external returns (bytes memory);\\n\\n    function simulate(\\n        bytes[] calldata _packets,\\n        uint256[] calldata _packetMsgValues\\n    ) external payable returns (bytes memory);\\n\\n    function buildSimulationResult() external view returns (bytes memory);\\n\\n    function preCrime(\\n        bytes[] calldata _packets,\\n        uint256[] calldata _packetMsgValues,\\n        bytes[] calldata _simulations\\n    ) external;\\n\\n    function version() external view returns (uint64 major, uint8 minor);\\n}\\n\"},\"@layerzerolabs/oapp-evm/contracts/oapp/interfaces/IOAppOptionsType3.sol\":{\"content\":\"// SPDX-License-Identifier: MIT\\n\\npragma solidity ^0.8.20;\\n\\n/**\\n * @dev Struct representing enforced option parameters.\\n */\\nstruct EnforcedOptionParam {\\n    uint32 eid; // Endpoint ID\\n    uint16 msgType; // Message Type\\n    bytes options; // Additional options\\n}\\n\\n/**\\n * @title IOAppOptionsType3\\n * @dev Interface for the OApp with Type 3 Options, allowing the setting and combining of enforced options.\\n */\\ninterface IOAppOptionsType3 {\\n    // Custom error message for invalid options\\n    error InvalidOptions(bytes options);\\n\\n    // Event emitted when enforced options are set\\n    event EnforcedOptionSet(EnforcedOptionParam[] _enforcedOptions);\\n\\n    /**\\n     * @notice Sets enforced options for specific endpoint and message type combinations.\\n     * @param _enforcedOptions An array of EnforcedOptionParam structures specifying enforced options.\\n     */\\n    function setEnforcedOptions(EnforcedOptionParam[] calldata _enforcedOptions) external;\\n\\n    /**\\n     * @notice Combines options for a given endpoint and message type.\\n     * @param _eid The endpoint ID.\\n     * @param _msgType The OApp message type.\\n     * @param _extraOptions Additional options passed by the caller.\\n     * @return options The combination of caller specified options AND enforced options.\\n     */\\n    function combineOptions(\\n        uint32 _eid,\\n        uint16 _msgType,\\n        bytes calldata _extraOptions\\n    ) external view returns (bytes memory options);\\n}\\n\"},\"@layerzerolabs/oapp-evm/contracts/oapp/OAppCore.sol\":{\"content\":\"// SPDX-License-Identifier: MIT\\n\\npragma solidity ^0.8.20;\\n\\nimport { Ownable } from \\\"@openzeppelin/contracts/access/Ownable.sol\\\";\\nimport { IOAppCore, ILayerZeroEndpointV2 } from \\\"./interfaces/IOAppCore.sol\\\";\\n\\n/**\\n * @title OAppCore\\n * @dev Abstract contract implementing the IOAppCore interface with basic OApp configurations.\\n */\\nabstract contract OAppCore is IOAppCore, Ownable {\\n    // The LayerZero endpoint associated with the given OApp\\n    ILayerZeroEndpointV2 public immutable endpoint;\\n\\n    // Mapping to store peers associated with corresponding endpoints\\n    mapping(uint32 eid => bytes32 peer) public peers;\\n\\n    /**\\n     * @dev Constructor to initialize the OAppCore with the provided endpoint and delegate.\\n     * @param _endpoint The address of the LOCAL Layer Zero endpoint.\\n     * @param _delegate The delegate capable of making OApp configurations inside of the endpoint.\\n     *\\n     * @dev The delegate typically should be set as the owner of the contract.\\n     */\\n    constructor(address _endpoint, address _delegate) {\\n        endpoint = ILayerZeroEndpointV2(_endpoint);\\n\\n        if (_delegate == address(0)) revert InvalidDelegate();\\n        endpoint.setDelegate(_delegate);\\n    }\\n\\n    /**\\n     * @notice Sets the peer address (OApp instance) for a corresponding endpoint.\\n     * @param _eid The endpoint ID.\\n     * @param _peer The address of the peer to be associated with the corresponding endpoint.\\n     *\\n     * @dev Only the owner/admin of the OApp can call this function.\\n     * @dev Indicates that the peer is trusted to send LayerZero messages to this OApp.\\n     * @dev Set this to bytes32(0) to remove the peer address.\\n     * @dev Peer is a bytes32 to accommodate non-evm chains.\\n     */\\n    function setPeer(uint32 _eid, bytes32 _peer) public virtual onlyOwner {\\n        _setPeer(_eid, _peer);\\n    }\\n\\n    /**\\n     * @notice Sets the peer address (OApp instance) for a corresponding endpoint.\\n     * @param _eid The endpoint ID.\\n     * @param _peer The address of the peer to be associated with the corresponding endpoint.\\n     *\\n     * @dev Indicates that the peer is trusted to send LayerZero messages to this OApp.\\n     * @dev Set this to bytes32(0) to remove the peer address.\\n     * @dev Peer is a bytes32 to accommodate non-evm chains.\\n     */\\n    function _setPeer(uint32 _eid, bytes32 _peer) internal virtual {\\n        peers[_eid] = _peer;\\n        emit PeerSet(_eid, _peer);\\n    }\\n\\n    /**\\n     * @notice Internal function to get the peer address associated with a specific endpoint; reverts if NOT set.\\n     * ie. the peer is set to bytes32(0).\\n     * @param _eid The endpoint ID.\\n     * @return peer The address of the peer associated with the specified endpoint.\\n     */\\n    function _getPeerOrRevert(uint32 _eid) internal view virtual returns (bytes32) {\\n        bytes32 peer = peers[_eid];\\n        if (peer == bytes32(0)) revert NoPeer(_eid);\\n        return peer;\\n    }\\n\\n    /**\\n     * @notice Sets the delegate address for the OApp.\\n     * @param _delegate The address of the delegate to be set.\\n     *\\n     * @dev Only the owner/admin of the OApp can call this function.\\n     * @dev Provides the ability for a delegate to set configs, on behalf of the OApp, directly on the Endpoint contract.\\n     */\\n    function setDelegate(address _delegate) public onlyOwner {\\n        endpoint.setDelegate(_delegate);\\n    }\\n}\\n\"},\"@layerzerolabs/oapp-evm/contracts/oapp/OAppReceiver.sol\":{\"content\":\"// SPDX-License-Identifier: MIT\\n\\npragma solidity ^0.8.20;\\n\\nimport { IOAppReceiver, Origin } from \\\"./interfaces/IOAppReceiver.sol\\\";\\nimport { OAppCore } from \\\"./OAppCore.sol\\\";\\n\\n/**\\n * @title OAppReceiver\\n * @dev Abstract contract implementing the ILayerZeroReceiver interface and extending OAppCore for OApp receivers.\\n */\\nabstract contract OAppReceiver is IOAppReceiver, OAppCore {\\n    // Custom error message for when the caller is not the registered endpoint/\\n    error OnlyEndpoint(address addr);\\n\\n    // @dev The version of the OAppReceiver implementation.\\n    // @dev Version is bumped when changes are made to this contract.\\n    uint64 internal constant RECEIVER_VERSION = 2;\\n\\n    /**\\n     * @notice Retrieves the OApp version information.\\n     * @return senderVersion The version of the OAppSender.sol contract.\\n     * @return receiverVersion The version of the OAppReceiver.sol contract.\\n     *\\n     * @dev Providing 0 as the default for OAppSender version. Indicates that the OAppSender is not implemented.\\n     * ie. this is a RECEIVE only OApp.\\n     * @dev If the OApp uses both OAppSender and OAppReceiver, then this needs to be override returning the correct versions.\\n     */\\n    function oAppVersion() public view virtual returns (uint64 senderVersion, uint64 receiverVersion) {\\n        return (0, RECEIVER_VERSION);\\n    }\\n\\n    /**\\n     * @notice Indicates whether an address is an approved composeMsg sender to the Endpoint.\\n     * @dev _origin The origin information containing the source endpoint and sender address.\\n     *  - srcEid: The source chain endpoint ID.\\n     *  - sender: The sender address on the src chain.\\n     *  - nonce: The nonce of the message.\\n     * @dev _message The lzReceive payload.\\n     * @param _sender The sender address.\\n     * @return isSender Is a valid sender.\\n     *\\n     * @dev Applications can optionally choose to implement separate composeMsg senders that are NOT the bridging layer.\\n     * @dev The default sender IS the OAppReceiver implementer.\\n     */\\n    function isComposeMsgSender(\\n        Origin calldata /*_origin*/,\\n        bytes calldata /*_message*/,\\n        address _sender\\n    ) public view virtual returns (bool) {\\n        return _sender == address(this);\\n    }\\n\\n    /**\\n     * @notice Checks if the path initialization is allowed based on the provided origin.\\n     * @param origin The origin information containing the source endpoint and sender address.\\n     * @return Whether the path has been initialized.\\n     *\\n     * @dev This indicates to the endpoint that the OApp has enabled msgs for this particular path to be received.\\n     * @dev This defaults to assuming if a peer has been set, its initialized.\\n     * Can be overridden by the OApp if there is other logic to determine this.\\n     */\\n    function allowInitializePath(Origin calldata origin) public view virtual returns (bool) {\\n        return peers[origin.srcEid] == origin.sender;\\n    }\\n\\n    /**\\n     * @notice Retrieves the next nonce for a given source endpoint and sender address.\\n     * @dev _srcEid The source endpoint ID.\\n     * @dev _sender The sender address.\\n     * @return nonce The next nonce.\\n     *\\n     * @dev The path nonce starts from 1. If 0 is returned it means that there is NO nonce ordered enforcement.\\n     * @dev Is required by the off-chain executor to determine the OApp expects msg execution is ordered.\\n     * @dev This is also enforced by the OApp.\\n     * @dev By default this is NOT enabled. ie. nextNonce is hardcoded to return 0.\\n     */\\n    function nextNonce(uint32 /*_srcEid*/, bytes32 /*_sender*/) public view virtual returns (uint64 nonce) {\\n        return 0;\\n    }\\n\\n    /**\\n     * @dev Entry point for receiving messages or packets from the endpoint.\\n     * @param _origin The origin information containing the source endpoint and sender address.\\n     *  - srcEid: The source chain endpoint ID.\\n     *  - sender: The sender address on the src chain.\\n     *  - nonce: The nonce of the message.\\n     * @param _guid The unique identifier for the received LayerZero message.\\n     * @param _message The payload of the received message.\\n     * @param _executor The address of the executor for the received message.\\n     * @param _extraData Additional arbitrary data provided by the corresponding executor.\\n     *\\n     * @dev Entry point for receiving msg/packet from the LayerZero endpoint.\\n     */\\n    function lzReceive(\\n        Origin calldata _origin,\\n        bytes32 _guid,\\n        bytes calldata _message,\\n        address _executor,\\n        bytes calldata _extraData\\n    ) public payable virtual {\\n        // Ensures that only the endpoint can attempt to lzReceive() messages to this OApp.\\n        if (address(endpoint) != msg.sender) revert OnlyEndpoint(msg.sender);\\n\\n        // Ensure that the sender matches the expected peer for the source endpoint.\\n        if (_getPeerOrRevert(_origin.srcEid) != _origin.sender) revert OnlyPeer(_origin.srcEid, _origin.sender);\\n\\n        // Call the internal OApp implementation of lzReceive.\\n        _lzReceive(_origin, _guid, _message, _executor, _extraData);\\n    }\\n\\n    /**\\n     * @dev Internal function to implement lzReceive logic without needing to copy the basic parameter validation.\\n     */\\n    function _lzReceive(\\n        Origin calldata _origin,\\n        bytes32 _guid,\\n        bytes calldata _message,\\n        address _executor,\\n        bytes calldata _extraData\\n    ) internal virtual;\\n}\\n\"},\"@layerzerolabs/oapp-evm/contracts/precrime/libs/Packet.sol\":{\"content\":\"// SPDX-License-Identifier: MIT\\n\\npragma solidity ^0.8.20;\\n\\nimport { Origin } from \\\"@layerzerolabs/lz-evm-protocol-v2/contracts/interfaces/ILayerZeroEndpointV2.sol\\\";\\nimport { PacketV1Codec } from \\\"@layerzerolabs/lz-evm-protocol-v2/contracts/messagelib/libs/PacketV1Codec.sol\\\";\\n\\n/**\\n * @title InboundPacket\\n * @dev Structure representing an inbound packet received by the contract.\\n */\\nstruct InboundPacket {\\n    Origin origin; // Origin information of the packet.\\n    uint32 dstEid; // Destination endpointId of the packet.\\n    address receiver; // Receiver address for the packet.\\n    bytes32 guid; // Unique identifier of the packet.\\n    uint256 value; // msg.value of the packet.\\n    address executor; // Executor address for the packet.\\n    bytes message; // Message payload of the packet.\\n    bytes extraData; // Additional arbitrary data for the packet.\\n}\\n\\n/**\\n * @title PacketDecoder\\n * @dev Library for decoding LayerZero packets.\\n */\\nlibrary PacketDecoder {\\n    using PacketV1Codec for bytes;\\n\\n    /**\\n     * @dev Decode an inbound packet from the given packet data.\\n     * @param _packet The packet data to decode.\\n     * @return packet An InboundPacket struct representing the decoded packet.\\n     */\\n    function decode(bytes calldata _packet) internal pure returns (InboundPacket memory packet) {\\n        packet.origin = Origin(_packet.srcEid(), _packet.sender(), _packet.nonce());\\n        packet.dstEid = _packet.dstEid();\\n        packet.receiver = _packet.receiverB20();\\n        packet.guid = _packet.guid();\\n        packet.message = _packet.message();\\n    }\\n\\n    /**\\n     * @dev Decode multiple inbound packets from the given packet data and associated message values.\\n     * @param _packets An array of packet data to decode.\\n     * @param _packetMsgValues An array of associated message values for each packet.\\n     * @return packets An array of InboundPacket structs representing the decoded packets.\\n     */\\n    function decode(\\n        bytes[] calldata _packets,\\n        uint256[] memory _packetMsgValues\\n    ) internal pure returns (InboundPacket[] memory packets) {\\n        packets = new InboundPacket[](_packets.length);\\n        for (uint256 i = 0; i < _packets.length; i++) {\\n            bytes calldata packet = _packets[i];\\n            packets[i] = PacketDecoder.decode(packet);\\n            // @dev Allows the verifier to specify the msg.value that gets passed in lzReceive.\\n            packets[i].value = _packetMsgValues[i];\\n        }\\n    }\\n}\\n\"},\"@layerzerolabs/lz-evm-protocol-v2/contracts/interfaces/ILayerZeroEndpointV2.sol\":{\"content\":\"// SPDX-License-Identifier: MIT\\n\\npragma solidity >=0.8.0;\\n\\nimport { IMessageLibManager } from \\\"./IMessageLibManager.sol\\\";\\nimport { IMessagingComposer } from \\\"./IMessagingComposer.sol\\\";\\nimport { IMessagingChannel } from \\\"./IMessagingChannel.sol\\\";\\nimport { IMessagingContext } from \\\"./IMessagingContext.sol\\\";\\n\\nstruct MessagingParams {\\n    uint32 dstEid;\\n    bytes32 receiver;\\n    bytes message;\\n    bytes options;\\n    bool payInLzToken;\\n}\\n\\nstruct MessagingReceipt {\\n    bytes32 guid;\\n    uint64 nonce;\\n    MessagingFee fee;\\n}\\n\\nstruct MessagingFee {\\n    uint256 nativeFee;\\n    uint256 lzTokenFee;\\n}\\n\\nstruct Origin {\\n    uint32 srcEid;\\n    bytes32 sender;\\n    uint64 nonce;\\n}\\n\\ninterface ILayerZeroEndpointV2 is IMessageLibManager, IMessagingComposer, IMessagingChannel, IMessagingContext {\\n    event PacketSent(bytes encodedPayload, bytes options, address sendLibrary);\\n\\n    event PacketVerified(Origin origin, address receiver, bytes32 payloadHash);\\n\\n    event PacketDelivered(Origin origin, address receiver);\\n\\n    event LzReceiveAlert(\\n        address indexed receiver,\\n        address indexed executor,\\n        Origin origin,\\n        bytes32 guid,\\n        uint256 gas,\\n        uint256 value,\\n        bytes message,\\n        bytes extraData,\\n        bytes reason\\n    );\\n\\n    event LzTokenSet(address token);\\n\\n    event DelegateSet(address sender, address delegate);\\n\\n    function quote(MessagingParams calldata _params, address _sender) external view returns (MessagingFee memory);\\n\\n    function send(\\n        MessagingParams calldata _params,\\n        address _refundAddress\\n    ) external payable returns (MessagingReceipt memory);\\n\\n    function verify(Origin calldata _origin, address _receiver, bytes32 _payloadHash) external;\\n\\n    function verifiable(Origin calldata _origin, address _receiver) external view returns (bool);\\n\\n    function initializable(Origin calldata _origin, address _receiver) external view returns (bool);\\n\\n    function lzReceive(\\n        Origin calldata _origin,\\n        address _receiver,\\n        bytes32 _guid,\\n        bytes calldata _message,\\n        bytes calldata _extraData\\n    ) external payable;\\n\\n    // oapp can burn messages partially by calling this function with its own business logic if messages are verified in order\\n    function clear(address _oapp, Origin calldata _origin, bytes32 _guid, bytes calldata _message) external;\\n\\n    function setLzToken(address _lzToken) external;\\n\\n    function lzToken() external view returns (address);\\n\\n    function nativeToken() external view returns (address);\\n\\n    function setDelegate(address _delegate) external;\\n}\\n\"},\"@openzeppelin/contracts/token/ERC20/utils/SafeERC20.sol\":{\"content\":\"// SPDX-License-Identifier: MIT\\n// OpenZeppelin Contracts (last updated v5.3.0) (token/ERC20/utils/SafeERC20.sol)\\n\\npragma solidity ^0.8.20;\\n\\nimport {IERC20} from \\\"../IERC20.sol\\\";\\nimport {IERC1363} from \\\"../../../interfaces/IERC1363.sol\\\";\\n\\n/**\\n * @title SafeERC20\\n * @dev Wrappers around ERC-20 operations that throw on failure (when the token\\n * contract returns false). Tokens that return no value (and instead revert or\\n * throw on failure) are also supported, non-reverting calls are assumed to be\\n * successful.\\n * To use this library you can add a `using SafeERC20 for IERC20;` statement to your contract,\\n * which allows you to call the safe operations as `token.safeTransfer(...)`, etc.\\n */\\nlibrary SafeERC20 {\\n    /**\\n     * @dev An operation with an ERC-20 token failed.\\n     */\\n    error SafeERC20FailedOperation(address token);\\n\\n    /**\\n     * @dev Indicates a failed `decreaseAllowance` request.\\n     */\\n    error SafeERC20FailedDecreaseAllowance(address spender, uint256 currentAllowance, uint256 requestedDecrease);\\n\\n    /**\\n     * @dev Transfer `value` amount of `token` from the calling contract to `to`. If `token` returns no value,\\n     * non-reverting calls are assumed to be successful.\\n     */\\n    function safeTransfer(IERC20 token, address to, uint256 value) internal {\\n        _callOptionalReturn(token, abi.encodeCall(token.transfer, (to, value)));\\n    }\\n\\n    /**\\n     * @dev Transfer `value` amount of `token` from `from` to `to`, spending the approval given by `from` to the\\n     * calling contract. If `token` returns no value, non-reverting calls are assumed to be successful.\\n     */\\n    function safeTransferFrom(IERC20 token, address from, address to, uint256 value) internal {\\n        _callOptionalReturn(token, abi.encodeCall(token.transferFrom, (from, to, value)));\\n    }\\n\\n    /**\\n     * @dev Variant of {safeTransfer} that returns a bool instead of reverting if the operation is not successful.\\n     */\\n    function trySafeTransfer(IERC20 token, address to, uint256 value) internal returns (bool) {\\n        return _callOptionalReturnBool(token, abi.encodeCall(token.transfer, (to, value)));\\n    }\\n\\n    /**\\n     * @dev Variant of {safeTransferFrom} that returns a bool instead of reverting if the operation is not successful.\\n     */\\n    function trySafeTransferFrom(IERC20 token, address from, address to, uint256 value) internal returns (bool) {\\n        return _callOptionalReturnBool(token, abi.encodeCall(token.transferFrom, (from, to, value)));\\n    }\\n\\n    /**\\n     * @dev Increase the calling contract's allowance toward `spender` by `value`. If `token` returns no value,\\n     * non-reverting calls are assumed to be successful.\\n     *\\n     * IMPORTANT: If the token implements ERC-7674 (ERC-20 with temporary allowance), and if the \\\"client\\\"\\n     * smart contract uses ERC-7674 to set temporary allowances, then the \\\"client\\\" smart contract should avoid using\\n     * this function. Performing a {safeIncreaseAllowance} or {safeDecreaseAllowance} operation on a token contract\\n     * that has a non-zero temporary allowance (for that particular owner-spender) will result in unexpected behavior.\\n     */\\n    function safeIncreaseAllowance(IERC20 token, address spender, uint256 value) internal {\\n        uint256 oldAllowance = token.allowance(address(this), spender);\\n        forceApprove(token, spender, oldAllowance + value);\\n    }\\n\\n    /**\\n     * @dev Decrease the calling contract's allowance toward `spender` by `requestedDecrease`. If `token` returns no\\n     * value, non-reverting calls are assumed to be successful.\\n     *\\n     * IMPORTANT: If the token implements ERC-7674 (ERC-20 with temporary allowance), and if the \\\"client\\\"\\n     * smart contract uses ERC-7674 to set temporary allowances, then the \\\"client\\\" smart contract should avoid using\\n     * this function. Performing a {safeIncreaseAllowance} or {safeDecreaseAllowance} operation on a token contract\\n     * that has a non-zero temporary allowance (for that particular owner-spender) will result in unexpected behavior.\\n     */\\n    function safeDecreaseAllowance(IERC20 token, address spender, uint256 requestedDecrease) internal {\\n        unchecked {\\n            uint256 currentAllowance = token.allowance(address(this), spender);\\n            if (currentAllowance < requestedDecrease) {\\n                revert SafeERC20FailedDecreaseAllowance(spender, currentAllowance, requestedDecrease);\\n            }\\n            forceApprove(token, spender, currentAllowance - requestedDecrease);\\n        }\\n    }\\n\\n    /**\\n     * @dev Set the calling contract's allowance toward `spender` to `value`. If `token` returns no value,\\n     * non-reverting calls are assumed to be successful. Meant to be used with tokens that require the approval\\n     * to be set to zero before setting it to a non-zero value, such as USDT.\\n     *\\n     * NOTE: If the token implements ERC-7674, this function will not modify any temporary allowance. This function\\n     * only sets the \\\"standard\\\" allowance. Any temporary allowance will remain active, in addition to the value being\\n     * set here.\\n     */\\n    function forceApprove(IERC20 token, address spender, uint256 value) internal {\\n        bytes memory approvalCall = abi.encodeCall(token.approve, (spender, value));\\n\\n        if (!_callOptionalReturnBool(token, approvalCall)) {\\n            _callOptionalReturn(token, abi.encodeCall(token.approve, (spender, 0)));\\n            _callOptionalReturn(token, approvalCall);\\n        }\\n    }\\n\\n    /**\\n     * @dev Performs an {ERC1363} transferAndCall, with a fallback to the simple {ERC20} transfer if the target has no\\n     * code. This can be used to implement an {ERC721}-like safe transfer that rely on {ERC1363} checks when\\n     * targeting contracts.\\n     *\\n     * Reverts if the returned value is other than `true`.\\n     */\\n    function transferAndCallRelaxed(IERC1363 token, address to, uint256 value, bytes memory data) internal {\\n        if (to.code.length == 0) {\\n            safeTransfer(token, to, value);\\n        } else if (!token.transferAndCall(to, value, data)) {\\n            revert SafeERC20FailedOperation(address(token));\\n        }\\n    }\\n\\n    /**\\n     * @dev Performs an {ERC1363} transferFromAndCall, with a fallback to the simple {ERC20} transferFrom if the target\\n     * has no code. This can be used to implement an {ERC721}-like safe transfer that rely on {ERC1363} checks when\\n     * targeting contracts.\\n     *\\n     * Reverts if the returned value is other than `true`.\\n     */\\n    function transferFromAndCallRelaxed(\\n        IERC1363 token,\\n        address from,\\n        address to,\\n        uint256 value,\\n        bytes memory data\\n    ) internal {\\n        if (to.code.length == 0) {\\n            safeTransferFrom(token, from, to, value);\\n        } else if (!token.transferFromAndCall(from, to, value, data)) {\\n            revert SafeERC20FailedOperation(address(token));\\n        }\\n    }\\n\\n    /**\\n     * @dev Performs an {ERC1363} approveAndCall, with a fallback to the simple {ERC20} approve if the target has no\\n     * code. This can be used to implement an {ERC721}-like safe transfer that rely on {ERC1363} checks when\\n     * targeting contracts.\\n     *\\n     * NOTE: When the recipient address (`to`) has no code (i.e. is an EOA), this function behaves as {forceApprove}.\\n     * Opposedly, when the recipient address (`to`) has code, this function only attempts to call {ERC1363-approveAndCall}\\n     * once without retrying, and relies on the returned value to be true.\\n     *\\n     * Reverts if the returned value is other than `true`.\\n     */\\n    function approveAndCallRelaxed(IERC1363 token, address to, uint256 value, bytes memory data) internal {\\n        if (to.code.length == 0) {\\n            forceApprove(token, to, value);\\n        } else if (!token.approveAndCall(to, value, data)) {\\n            revert SafeERC20FailedOperation(address(token));\\n        }\\n    }\\n\\n    /**\\n     * @dev Imitates a Solidity high-level call (i.e. a regular function call to a contract), relaxing the requirement\\n     * on the return value: the return value is optional (but if data is returned, it must not be false).\\n     * @param token The token targeted by the call.\\n     * @param data The call data (encoded using abi.encode or one of its variants).\\n     *\\n     * This is a variant of {_callOptionalReturnBool} that reverts if call fails to meet the requirements.\\n     */\\n    function _callOptionalReturn(IERC20 token, bytes memory data) private {\\n        uint256 returnSize;\\n        uint256 returnValue;\\n        assembly (\\\"memory-safe\\\") {\\n            let success := call(gas(), token, 0, add(data, 0x20), mload(data), 0, 0x20)\\n            // bubble errors\\n            if iszero(success) {\\n                let ptr := mload(0x40)\\n                returndatacopy(ptr, 0, returndatasize())\\n                revert(ptr, returndatasize())\\n            }\\n            returnSize := returndatasize()\\n            returnValue := mload(0)\\n        }\\n\\n        if (returnSize == 0 ? address(token).code.length == 0 : returnValue != 1) {\\n            revert SafeERC20FailedOperation(address(token));\\n        }\\n    }\\n\\n    /**\\n     * @dev Imitates a Solidity high-level call (i.e. a regular function call to a contract), relaxing the requirement\\n     * on the return value: the return value is optional (but if data is returned, it must not be false).\\n     * @param token The token targeted by the call.\\n     * @param data The call data (encoded using abi.encode or one of its variants).\\n     *\\n     * This is a variant of {_callOptionalReturn} that silently catches all reverts and returns a bool instead.\\n     */\\n    function _callOptionalReturnBool(IERC20 token, bytes memory data) private returns (bool) {\\n        bool success;\\n        uint256 returnSize;\\n        uint256 returnValue;\\n        assembly (\\\"memory-safe\\\") {\\n            success := call(gas(), token, 0, add(data, 0x20), mload(data), 0, 0x20)\\n            returnSize := returndatasize()\\n            returnValue := mload(0)\\n        }\\n        return success && (returnSize == 0 ? address(token).code.length > 0 : returnValue == 1);\\n    }\\n}\\n\"},\"@layerzerolabs/oapp-evm/contracts/oapp/interfaces/IOAppReceiver.sol\":{\"content\":\"// SPDX-License-Identifier: MIT\\npragma solidity ^0.8.20;\\n\\nimport { ILayerZeroReceiver, Origin } from \\\"@layerzerolabs/lz-evm-protocol-v2/contracts/interfaces/ILayerZeroReceiver.sol\\\";\\n\\ninterface IOAppReceiver is ILayerZeroReceiver {\\n    /**\\n     * @notice Indicates whether an address is an approved composeMsg sender to the Endpoint.\\n     * @param _origin The origin information containing the source endpoint and sender address.\\n     *  - srcEid: The source chain endpoint ID.\\n     *  - sender: The sender address on the src chain.\\n     *  - nonce: The nonce of the message.\\n     * @param _message The lzReceive payload.\\n     * @param _sender The sender address.\\n     * @return isSender Is a valid sender.\\n     *\\n     * @dev Applications can optionally choose to implement a separate composeMsg sender that is NOT the bridging layer.\\n     * @dev The default sender IS the OAppReceiver implementer.\\n     */\\n    function isComposeMsgSender(\\n        Origin calldata _origin,\\n        bytes calldata _message,\\n        address _sender\\n    ) external view returns (bool isSender);\\n}\\n\"},\"@layerzerolabs/oapp-evm/contracts/oapp/interfaces/IOAppCore.sol\":{\"content\":\"// SPDX-License-Identifier: MIT\\n\\npragma solidity ^0.8.20;\\n\\nimport { ILayerZeroEndpointV2 } from \\\"@layerzerolabs/lz-evm-protocol-v2/contracts/interfaces/ILayerZeroEndpointV2.sol\\\";\\n\\n/**\\n * @title IOAppCore\\n */\\ninterface IOAppCore {\\n    // Custom error messages\\n    error OnlyPeer(uint32 eid, bytes32 sender);\\n    error NoPeer(uint32 eid);\\n    error InvalidEndpointCall();\\n    error InvalidDelegate();\\n\\n    // Event emitted when a peer (OApp) is set for a corresponding endpoint\\n    event PeerSet(uint32 eid, bytes32 peer);\\n\\n    /**\\n     * @notice Retrieves the OApp version information.\\n     * @return senderVersion The version of the OAppSender.sol contract.\\n     * @return receiverVersion The version of the OAppReceiver.sol contract.\\n     */\\n    function oAppVersion() external view returns (uint64 senderVersion, uint64 receiverVersion);\\n\\n    /**\\n     * @notice Retrieves the LayerZero endpoint associated with the OApp.\\n     * @return iEndpoint The LayerZero endpoint as an interface.\\n     */\\n    function endpoint() external view returns (ILayerZeroEndpointV2 iEndpoint);\\n\\n    /**\\n     * @notice Retrieves the peer (OApp) associated with a corresponding endpoint.\\n     * @param _eid The endpoint ID.\\n     * @return peer The peer address (OApp instance) associated with the corresponding endpoint.\\n     */\\n    function peers(uint32 _eid) external view returns (bytes32 peer);\\n\\n    /**\\n     * @notice Sets the peer address (OApp instance) for a corresponding endpoint.\\n     * @param _eid The endpoint ID.\\n     * @param _peer The address of the peer to be associated with the corresponding endpoint.\\n     */\\n    function setPeer(uint32 _eid, bytes32 _peer) external;\\n\\n    /**\\n     * @notice Sets the delegate address for the OApp Core.\\n     * @param _delegate The address of the delegate to be set.\\n     */\\n    function setDelegate(address _delegate) external;\\n}\\n\"},\"@openzeppelin/contracts/interfaces/IERC1363.sol\":{\"content\":\"// SPDX-License-Identifier: MIT\\n// OpenZeppelin Contracts (last updated v5.1.0) (interfaces/IERC1363.sol)\\n\\npragma solidity ^0.8.20;\\n\\nimport {IERC20} from \\\"./IERC20.sol\\\";\\nimport {IERC165} from \\\"./IERC165.sol\\\";\\n\\n/**\\n * @title IERC1363\\n * @dev Interface of the ERC-1363 standard as defined in the https://eips.ethereum.org/EIPS/eip-1363[ERC-1363].\\n *\\n * Defines an extension interface for ERC-20 tokens that supports executing code on a recipient contract\\n * after `transfer` or `transferFrom`, or code on a spender contract after `approve`, in a single transaction.\\n */\\ninterface IERC1363 is IERC20, IERC165 {\\n    /*\\n     * Note: the ERC-165 identifier for this interface is 0xb0202a11.\\n     * 0xb0202a11 ===\\n     *   bytes4(keccak256('transferAndCall(address,uint256)')) ^\\n     *   bytes4(keccak256('transferAndCall(address,uint256,bytes)')) ^\\n     *   bytes4(keccak256('transferFromAndCall(address,address,uint256)')) ^\\n     *   bytes4(keccak256('transferFromAndCall(address,address,uint256,bytes)')) ^\\n     *   bytes4(keccak256('approveAndCall(address,uint256)')) ^\\n     *   bytes4(keccak256('approveAndCall(address,uint256,bytes)'))\\n     */\\n\\n    /**\\n     * @dev Moves a `value` amount of tokens from the caller's account to `to`\\n     * and then calls {IERC1363Receiver-onTransferReceived} on `to`.\\n     * @param to The address which you want to transfer to.\\n     * @param value The amount of tokens to be transferred.\\n     * @return A boolean value indicating whether the operation succeeded unless throwing.\\n     */\\n    function transferAndCall(address to, uint256 value) external returns (bool);\\n\\n    /**\\n     * @dev Moves a `value` amount of tokens from the caller's account to `to`\\n     * and then calls {IERC1363Receiver-onTransferReceived} on `to`.\\n     * @param to The address which you want to transfer to.\\n     * @param value The amount of tokens to be transferred.\\n     * @param data Additional data with no specified format, sent in call to `to`.\\n     * @return A boolean value indicating whether the operation succeeded unless throwing.\\n     */\\n    function transferAndCall(address to, uint256 value, bytes calldata data) external returns (bool);\\n\\n    /**\\n     * @dev Moves a `value` amount of tokens from `from` to `to` using the allowance mechanism\\n     * and then calls {IERC1363Receiver-onTransferReceived} on `to`.\\n     * @param from The address which you want to send tokens from.\\n     * @param to The address which you want to transfer to.\\n     * @param value The amount of tokens to be transferred.\\n     * @return A boolean value indicating whether the operation succeeded unless throwing.\\n     */\\n    function transferFromAndCall(address from, address to, uint256 value) external returns (bool);\\n\\n    /**\\n     * @dev Moves a `value` amount of tokens from `from` to `to` using the allowance mechanism\\n     * and then calls {IERC1363Receiver-onTransferReceived} on `to`.\\n     * @param from The address which you want to send tokens from.\\n     * @param to The address which you want to transfer to.\\n     * @param value The amount of tokens to be transferred.\\n     * @param data Additional data with no specified format, sent in call to `to`.\\n     * @return A boolean value indicating whether the operation succeeded unless throwing.\\n     */\\n    function transferFromAndCall(address from, address to, uint256 value, bytes calldata data) external returns (bool);\\n\\n    /**\\n     * @dev Sets a `value` amount of tokens as the allowance of `spender` over the\\n     * caller's tokens and then calls {IERC1363Spender-onApprovalReceived} on `spender`.\\n     * @param spender The address which will spend the funds.\\n     * @param value The amount of tokens to be spent.\\n     * @return A boolean value indicating whether the operation succeeded unless throwing.\\n     */\\n    function approveAndCall(address spender, uint256 value) external returns (bool);\\n\\n    /**\\n     * @dev Sets a `value` amount of tokens as the allowance of `spender` over the\\n     * caller's tokens and then calls {IERC1363Spender-onApprovalReceived} on `spender`.\\n     * @param spender The address which will spend the funds.\\n     * @param value The amount of tokens to be spent.\\n     * @param data Additional data with no specified format, sent in call to `spender`.\\n     * @return A boolean value indicating whether the operation succeeded unless throwing.\\n     */\\n    function approveAndCall(address spender, uint256 value, bytes calldata data) external returns (bool);\\n}\\n\"},\"@layerzerolabs/lz-evm-protocol-v2/contracts/messagelib/libs/PacketV1Codec.sol\":{\"content\":\"// SPDX-License-Identifier: LZBL-1.2\\n\\npragma solidity ^0.8.20;\\n\\nimport { Packet } from \\\"../../interfaces/ISendLib.sol\\\";\\nimport { AddressCast } from \\\"../../libs/AddressCast.sol\\\";\\n\\nlibrary PacketV1Codec {\\n    using AddressCast for address;\\n    using AddressCast for bytes32;\\n\\n    uint8 internal constant PACKET_VERSION = 1;\\n\\n    // header (version + nonce + path)\\n    // version\\n    uint256 private constant PACKET_VERSION_OFFSET = 0;\\n    //    nonce\\n    uint256 private constant NONCE_OFFSET = 1;\\n    //    path\\n    uint256 private constant SRC_EID_OFFSET = 9;\\n    uint256 private constant SENDER_OFFSET = 13;\\n    uint256 private constant DST_EID_OFFSET = 45;\\n    uint256 private constant RECEIVER_OFFSET = 49;\\n    // payload (guid + message)\\n    uint256 private constant GUID_OFFSET = 81; // keccak256(nonce + path)\\n    uint256 private constant MESSAGE_OFFSET = 113;\\n\\n    function encode(Packet memory _packet) internal pure returns (bytes memory encodedPacket) {\\n        encodedPacket = abi.encodePacked(\\n            PACKET_VERSION,\\n            _packet.nonce,\\n            _packet.srcEid,\\n            _packet.sender.toBytes32(),\\n            _packet.dstEid,\\n            _packet.receiver,\\n            _packet.guid,\\n            _packet.message\\n        );\\n    }\\n\\n    function encodePacketHeader(Packet memory _packet) internal pure returns (bytes memory) {\\n        return\\n            abi.encodePacked(\\n                PACKET_VERSION,\\n                _packet.nonce,\\n                _packet.srcEid,\\n                _packet.sender.toBytes32(),\\n                _packet.dstEid,\\n                _packet.receiver\\n            );\\n    }\\n\\n    function encodePayload(Packet memory _packet) internal pure returns (bytes memory) {\\n        return abi.encodePacked(_packet.guid, _packet.message);\\n    }\\n\\n    function header(bytes calldata _packet) internal pure returns (bytes calldata) {\\n        return _packet[0:GUID_OFFSET];\\n    }\\n\\n    function version(bytes calldata _packet) internal pure returns (uint8) {\\n        return uint8(bytes1(_packet[PACKET_VERSION_OFFSET:NONCE_OFFSET]));\\n    }\\n\\n    function nonce(bytes calldata _packet) internal pure returns (uint64) {\\n        return uint64(bytes8(_packet[NONCE_OFFSET:SRC_EID_OFFSET]));\\n    }\\n\\n    function srcEid(bytes calldata _packet) internal pure returns (uint32) {\\n        return uint32(bytes4(_packet[SRC_EID_OFFSET:SENDER_OFFSET]));\\n    }\\n\\n    function sender(bytes calldata _packet) internal pure returns (bytes32) {\\n        return bytes32(_packet[SENDER_OFFSET:DST_EID_OFFSET]);\\n    }\\n\\n    function senderAddressB20(bytes calldata _packet) internal pure returns (address) {\\n        return sender(_packet).toAddress();\\n    }\\n\\n    function dstEid(bytes calldata _packet) internal pure returns (uint32) {\\n        return uint32(bytes4(_packet[DST_EID_OFFSET:RECEIVER_OFFSET]));\\n    }\\n\\n    function receiver(bytes calldata _packet) internal pure returns (bytes32) {\\n        return bytes32(_packet[RECEIVER_OFFSET:GUID_OFFSET]);\\n    }\\n\\n    function receiverB20(bytes calldata _packet) internal pure returns (address) {\\n        return receiver(_packet).toAddress();\\n    }\\n\\n    function guid(bytes calldata _packet) internal pure returns (bytes32) {\\n        return bytes32(_packet[GUID_OFFSET:MESSAGE_OFFSET]);\\n    }\\n\\n    function message(bytes calldata _packet) internal pure returns (bytes calldata) {\\n        return bytes(_packet[MESSAGE_OFFSET:]);\\n    }\\n\\n    function payload(bytes calldata _packet) internal pure returns (bytes calldata) {\\n        return bytes(_packet[GUID_OFFSET:]);\\n    }\\n\\n    function payloadHash(bytes calldata _packet) internal pure returns (bytes32) {\\n        return keccak256(payload(_packet));\\n    }\\n}\\n\"},\"@layerzerolabs/lz-evm-protocol-v2/contracts/interfaces/ILayerZeroReceiver.sol\":{\"content\":\"// SPDX-License-Identifier: MIT\\n\\npragma solidity >=0.8.0;\\n\\nimport { Origin } from \\\"./ILayerZeroEndpointV2.sol\\\";\\n\\ninterface ILayerZeroReceiver {\\n    function allowInitializePath(Origin calldata _origin) external view returns (bool);\\n\\n    function nextNonce(uint32 _eid, bytes32 _sender) external view returns (uint64);\\n\\n    function lzReceive(\\n        Origin calldata _origin,\\n        bytes32 _guid,\\n        bytes calldata _message,\\n        address _executor,\\n        bytes calldata _extraData\\n    ) external payable;\\n}\\n\"},\"@layerzerolabs/lz-evm-protocol-v2/contracts/interfaces/IMessagingContext.sol\":{\"content\":\"// SPDX-License-Identifier: MIT\\n\\npragma solidity >=0.8.0;\\n\\ninterface IMessagingContext {\\n    function isSendingMessage() external view returns (bool);\\n\\n    function getSendContext() external view returns (uint32 dstEid, address sender);\\n}\\n\"},\"@layerzerolabs/lz-evm-protocol-v2/contracts/interfaces/IMessagingChannel.sol\":{\"content\":\"// SPDX-License-Identifier: MIT\\n\\npragma solidity >=0.8.0;\\n\\ninterface IMessagingChannel {\\n    event InboundNonceSkipped(uint32 srcEid, bytes32 sender, address receiver, uint64 nonce);\\n    event PacketNilified(uint32 srcEid, bytes32 sender, address receiver, uint64 nonce, bytes32 payloadHash);\\n    event PacketBurnt(uint32 srcEid, bytes32 sender, address receiver, uint64 nonce, bytes32 payloadHash);\\n\\n    function eid() external view returns (uint32);\\n\\n    // this is an emergency function if a message cannot be verified for some reasons\\n    // required to provide _nextNonce to avoid race condition\\n    function skip(address _oapp, uint32 _srcEid, bytes32 _sender, uint64 _nonce) external;\\n\\n    function nilify(address _oapp, uint32 _srcEid, bytes32 _sender, uint64 _nonce, bytes32 _payloadHash) external;\\n\\n    function burn(address _oapp, uint32 _srcEid, bytes32 _sender, uint64 _nonce, bytes32 _payloadHash) external;\\n\\n    function nextGuid(address _sender, uint32 _dstEid, bytes32 _receiver) external view returns (bytes32);\\n\\n    function inboundNonce(address _receiver, uint32 _srcEid, bytes32 _sender) external view returns (uint64);\\n\\n    function outboundNonce(address _sender, uint32 _dstEid, bytes32 _receiver) external view returns (uint64);\\n\\n    function inboundPayloadHash(\\n        address _receiver,\\n        uint32 _srcEid,\\n        bytes32 _sender,\\n        uint64 _nonce\\n    ) external view returns (bytes32);\\n\\n    function lazyInboundNonce(address _receiver, uint32 _srcEid, bytes32 _sender) external view returns (uint64);\\n}\\n\"},\"@layerzerolabs/lz-evm-protocol-v2/contracts/interfaces/IMessagingComposer.sol\":{\"content\":\"// SPDX-License-Identifier: MIT\\n\\npragma solidity >=0.8.0;\\n\\ninterface IMessagingComposer {\\n    event ComposeSent(address from, address to, bytes32 guid, uint16 index, bytes message);\\n    event ComposeDelivered(address from, address to, bytes32 guid, uint16 index);\\n    event LzComposeAlert(\\n        address indexed from,\\n        address indexed to,\\n        address indexed executor,\\n        bytes32 guid,\\n        uint16 index,\\n        uint256 gas,\\n        uint256 value,\\n        bytes message,\\n        bytes extraData,\\n        bytes reason\\n    );\\n\\n    function composeQueue(\\n        address _from,\\n        address _to,\\n        bytes32 _guid,\\n        uint16 _index\\n    ) external view returns (bytes32 messageHash);\\n\\n    function sendCompose(address _to, bytes32 _guid, uint16 _index, bytes calldata _message) external;\\n\\n    function lzCompose(\\n        address _from,\\n        address _to,\\n        bytes32 _guid,\\n        uint16 _index,\\n        bytes calldata _message,\\n        bytes calldata _extraData\\n    ) external payable;\\n}\\n\"},\"@layerzerolabs/lz-evm-protocol-v2/contracts/interfaces/IMessageLibManager.sol\":{\"content\":\"// SPDX-License-Identifier: MIT\\n\\npragma solidity >=0.8.0;\\n\\nstruct SetConfigParam {\\n    uint32 eid;\\n    uint32 configType;\\n    bytes config;\\n}\\n\\ninterface IMessageLibManager {\\n    struct Timeout {\\n        address lib;\\n        uint256 expiry;\\n    }\\n\\n    event LibraryRegistered(address newLib);\\n    event DefaultSendLibrarySet(uint32 eid, address newLib);\\n    event DefaultReceiveLibrarySet(uint32 eid, address newLib);\\n    event DefaultReceiveLibraryTimeoutSet(uint32 eid, address oldLib, uint256 expiry);\\n    event SendLibrarySet(address sender, uint32 eid, address newLib);\\n    event ReceiveLibrarySet(address receiver, uint32 eid, address newLib);\\n    event ReceiveLibraryTimeoutSet(address receiver, uint32 eid, address oldLib, uint256 timeout);\\n\\n    function registerLibrary(address _lib) external;\\n\\n    function isRegisteredLibrary(address _lib) external view returns (bool);\\n\\n    function getRegisteredLibraries() external view returns (address[] memory);\\n\\n    function setDefaultSendLibrary(uint32 _eid, address _newLib) external;\\n\\n    function defaultSendLibrary(uint32 _eid) external view returns (address);\\n\\n    function setDefaultReceiveLibrary(uint32 _eid, address _newLib, uint256 _gracePeriod) external;\\n\\n    function defaultReceiveLibrary(uint32 _eid) external view returns (address);\\n\\n    function setDefaultReceiveLibraryTimeout(uint32 _eid, address _lib, uint256 _expiry) external;\\n\\n    function defaultReceiveLibraryTimeout(uint32 _eid) external view returns (address lib, uint256 expiry);\\n\\n    function isSupportedEid(uint32 _eid) external view returns (bool);\\n\\n    function isValidReceiveLibrary(address _receiver, uint32 _eid, address _lib) external view returns (bool);\\n\\n    /// ------------------- OApp interfaces -------------------\\n    function setSendLibrary(address _oapp, uint32 _eid, address _newLib) external;\\n\\n    function getSendLibrary(address _sender, uint32 _eid) external view returns (address lib);\\n\\n    function isDefaultSendLibrary(address _sender, uint32 _eid) external view returns (bool);\\n\\n    function setReceiveLibrary(address _oapp, uint32 _eid, address _newLib, uint256 _gracePeriod) external;\\n\\n    function getReceiveLibrary(address _receiver, uint32 _eid) external view returns (address lib, bool isDefault);\\n\\n    function setReceiveLibraryTimeout(address _oapp, uint32 _eid, address _lib, uint256 _expiry) external;\\n\\n    function receiveLibraryTimeout(address _receiver, uint32 _eid) external view returns (address lib, uint256 expiry);\\n\\n    function setConfig(address _oapp, address _lib, SetConfigParam[] calldata _params) external;\\n\\n    function getConfig(\\n        address _oapp,\\n        address _lib,\\n        uint32 _eid,\\n        uint32 _configType\\n    ) external view returns (bytes memory config);\\n}\\n\"},\"@openzeppelin/contracts/interfaces/IERC165.sol\":{\"content\":\"// SPDX-License-Identifier: MIT\\n// OpenZeppelin Contracts (last updated v5.0.0) (interfaces/IERC165.sol)\\n\\npragma solidity ^0.8.20;\\n\\nimport {IERC165} from \\\"../utils/introspection/IERC165.sol\\\";\\n\"},\"@openzeppelin/contracts/interfaces/IERC20.sol\":{\"content\":\"// SPDX-License-Identifier: MIT\\n// OpenZeppelin Contracts (last updated v5.0.0) (interfaces/IERC20.sol)\\n\\npragma solidity ^0.8.20;\\n\\nimport {IERC20} from \\\"../token/ERC20/IERC20.sol\\\";\\n\"},\"@layerzerolabs/lz-evm-protocol-v2/contracts/libs/AddressCast.sol\":{\"content\":\"// SPDX-License-Identifier: LZBL-1.2\\n\\npragma solidity ^0.8.20;\\n\\nlibrary AddressCast {\\n    error AddressCast_InvalidSizeForAddress();\\n    error AddressCast_InvalidAddress();\\n\\n    function toBytes32(bytes calldata _addressBytes) internal pure returns (bytes32 result) {\\n        if (_addressBytes.length > 32) revert AddressCast_InvalidAddress();\\n        result = bytes32(_addressBytes);\\n        unchecked {\\n            uint256 offset = 32 - _addressBytes.length;\\n            result = result >> (offset * 8);\\n        }\\n    }\\n\\n    function toBytes32(address _address) internal pure returns (bytes32 result) {\\n        result = bytes32(uint256(uint160(_address)));\\n    }\\n\\n    function toBytes(bytes32 _addressBytes32, uint256 _size) internal pure returns (bytes memory result) {\\n        if (_size == 0 || _size > 32) revert AddressCast_InvalidSizeForAddress();\\n        result = new bytes(_size);\\n        unchecked {\\n            uint256 offset = 256 - _size * 8;\\n            assembly {\\n                mstore(add(result, 32), shl(offset, _addressBytes32))\\n            }\\n        }\\n    }\\n\\n    function toAddress(bytes32 _addressBytes32) internal pure returns (address result) {\\n        result = address(uint160(uint256(_addressBytes32)));\\n    }\\n\\n    function toAddress(bytes calldata _addressBytes) internal pure returns (address result) {\\n        if (_addressBytes.length != 20) revert AddressCast_InvalidAddress();\\n        result = address(bytes20(_addressBytes));\\n    }\\n}\\n\"},\"@layerzerolabs/lz-evm-protocol-v2/contracts/interfaces/ISendLib.sol\":{\"content\":\"// SPDX-License-Identifier: MIT\\n\\npragma solidity >=0.8.0;\\n\\nimport { MessagingFee } from \\\"./ILayerZeroEndpointV2.sol\\\";\\nimport { IMessageLib } from \\\"./IMessageLib.sol\\\";\\n\\nstruct Packet {\\n    uint64 nonce;\\n    uint32 srcEid;\\n    address sender;\\n    uint32 dstEid;\\n    bytes32 receiver;\\n    bytes32 guid;\\n    bytes message;\\n}\\n\\ninterface ISendLib is IMessageLib {\\n    function send(\\n        Packet calldata _packet,\\n        bytes calldata _options,\\n        bool _payInLzToken\\n    ) external returns (MessagingFee memory, bytes memory encodedPacket);\\n\\n    function quote(\\n        Packet calldata _packet,\\n        bytes calldata _options,\\n        bool _payInLzToken\\n    ) external view returns (MessagingFee memory);\\n\\n    function setTreasury(address _treasury) external;\\n\\n    function withdrawFee(address _to, uint256 _amount) external;\\n\\n    function withdrawLzTokenFee(address _lzToken, address _to, uint256 _amount) external;\\n}\\n\"},\"@openzeppelin/contracts/utils/introspection/IERC165.sol\":{\"content\":\"// SPDX-License-Identifier: MIT\\n// OpenZeppelin Contracts (last updated v5.1.0) (utils/introspection/IERC165.sol)\\n\\npragma solidity ^0.8.20;\\n\\n/**\\n * @dev Interface of the ERC-165 standard, as defined in the\\n * https://eips.ethereum.org/EIPS/eip-165[ERC].\\n *\\n * Implementers can declare support of contract interfaces, which can then be\\n * queried by others ({ERC165Checker}).\\n *\\n * For an implementation, see {ERC165}.\\n */\\ninterface IERC165 {\\n    /**\\n     * @dev Returns true if this contract implements the interface defined by\\n     * `interfaceId`. See the corresponding\\n     * https://eips.ethereum.org/EIPS/eip-165#how-interfaces-are-identified[ERC section]\\n     * to learn more about how these ids are created.\\n     *\\n     * This function call must use less than 30 000 gas.\\n     */\\n    function supportsInterface(bytes4 interfaceId) external view returns (bool);\\n}\\n\"},\"@layerzerolabs/lz-evm-protocol-v2/contracts/interfaces/IMessageLib.sol\":{\"content\":\"// SPDX-License-Identifier: MIT\\n\\npragma solidity >=0.8.0;\\n\\nimport { IERC165 } from \\\"@openzeppelin/contracts/utils/introspection/IERC165.sol\\\";\\n\\nimport { SetConfigParam } from \\\"./IMessageLibManager.sol\\\";\\n\\nenum MessageLibType {\\n    Send,\\n    Receive,\\n    SendAndReceive\\n}\\n\\ninterface IMessageLib is IERC165 {\\n    function setConfig(address _oapp, SetConfigParam[] calldata _config) external;\\n\\n    function getConfig(uint32 _eid, address _oapp, uint32 _configType) external view returns (bytes memory config);\\n\\n    function isSupportedEid(uint32 _eid) external view returns (bool);\\n\\n    // message libs of same major version are compatible\\n    function version() external view returns (uint64 major, uint8 minor, uint8 endpointVersion);\\n\\n    function messageLibType() external view returns (MessageLibType);\\n}\\n\"}},\"settings\":{\"optimizer\":{\"enabled\":false,\"runs\":200},\"outputSelection\":{\"*\":{\"\":[\"ast\"],\"*\":[\"abi\",\"metadata\",\"devdoc\",\"userdoc\",\"storageLayout\",\"evm.legacyAssembly\",\"evm.bytecode\",\"evm.deployedBytecode\",\"evm.methodIdentifiers\",\"evm.gasEstimates\",\"evm.assembly\"]}},\"remappings\":[],\"evmVersion\":\"cancun\"}}",
	"name": "MyOFT",
	"bytecode": {
		"linkReferences": {},
		"object": "60c060405234801562000010575f80fd5b50604051620060dc380380620060dc833981810160405281019062000036919062000878565b8484838383836200004c620002d860201b60201c565b8484818181818d5f73ffffffffffffffffffffffffffffffffffffffff168173ffffffffffffffffffffffffffffffffffffffff1603620000c6575f6040517f1e4fbdf7000000000000000000000000000000000000000000000000000000008152600401620000bd91906200094b565b60405180910390fd5b620000d781620002e060201b60201c565b508173ffffffffffffffffffffffffffffffffffffffff1660808173ffffffffffffffffffffffffffffffffffffffff16815250505f73ffffffffffffffffffffffffffffffffffffffff168173ffffffffffffffffffffffffffffffffffffffff160362000172576040517fb586360400000000000000000000000000000000000000000000000000000000815260040160405180910390fd5b60805173ffffffffffffffffffffffffffffffffffffffff1663ca5eb5e1826040518263ffffffff1660e01b8152600401620001af91906200094b565b5f604051808303815f87803b158015620001c7575f80fd5b505af1158015620001da573d5f803e3d5ffd5b5050505050505050620001f2620003a160201b60201c565b60ff168360ff16101562000232576040517f1e9714b000000000000000000000000000000000000000000000000000000000815260040160405180910390fd5b62000242620003a160201b60201c565b836200024f91906200099f565b600a6200025d919062000b2a565b60a08181525050505050816008908162000278919062000da8565b5080600990816200028a919062000da8565b50505050505050620002cd81620002a6620002d860201b60201c565b600a620002b4919062000b2a565b85620002c1919062000e8c565b620003a960201b60201c565b505050505062000f77565b5f6012905090565b5f805f9054906101000a900473ffffffffffffffffffffffffffffffffffffffff169050815f806101000a81548173ffffffffffffffffffffffffffffffffffffffff021916908373ffffffffffffffffffffffffffffffffffffffff1602179055508173ffffffffffffffffffffffffffffffffffffffff168173ffffffffffffffffffffffffffffffffffffffff167f8be0079c531659141344cd1fd0a4f28419497f9722a3daafe3b4186f6b6457e060405160405180910390a35050565b5f6006905090565b5f73ffffffffffffffffffffffffffffffffffffffff168273ffffffffffffffffffffffffffffffffffffffff16036200041c575f6040517fec442f050000000000000000000000000000000000000000000000000000000081526004016200041391906200094b565b60405180910390fd5b6200042f5f83836200043360201b60201c565b5050565b5f73ffffffffffffffffffffffffffffffffffffffff168373ffffffffffffffffffffffffffffffffffffffff160362000487578060075f8282546200047a919062000ed6565b925050819055506200055a565b5f60055f8573ffffffffffffffffffffffffffffffffffffffff1673ffffffffffffffffffffffffffffffffffffffff1681526020019081526020015f205490508181101562000514578381836040517fe450d38c0000000000000000000000000000000000000000000000000000000081526004016200050b9392919062000f21565b60405180910390fd5b81810360055f8673ffffffffffffffffffffffffffffffffffffffff1673ffffffffffffffffffffffffffffffffffffffff1681526020019081526020015f2081905550505b5f73ffffffffffffffffffffffffffffffffffffffff168273ffffffffffffffffffffffffffffffffffffffff1603620005a3578060075f8282540392505081905550620005ee565b8060055f8473ffffffffffffffffffffffffffffffffffffffff1673ffffffffffffffffffffffffffffffffffffffff1681526020019081526020015f205f82825401925050819055505b8173ffffffffffffffffffffffffffffffffffffffff168373ffffffffffffffffffffffffffffffffffffffff167fddf252ad1be2c89b69c2b068fc378daa952ba7f163c4a11628f55a4df523b3ef836040516200064d919062000f5c565b60405180910390a3505050565b5f604051905090565b5f80fd5b5f80fd5b5f80fd5b5f80fd5b5f601f19601f8301169050919050565b7f4e487b71000000000000000000000000000000000000000000000000000000005f52604160045260245ffd5b620006bb8262000673565b810181811067ffffffffffffffff82111715620006dd57620006dc62000683565b5b80604052505050565b5f620006f16200065a565b9050620006ff8282620006b0565b919050565b5f67ffffffffffffffff82111562000721576200072062000683565b5b6200072c8262000673565b9050602081019050919050565b5f5b83811015620007585780820151818401526020810190506200073b565b5f8484015250505050565b5f62000779620007738462000704565b620006e6565b9050828152602081018484840111156200079857620007976200066f565b5b620007a584828562000739565b509392505050565b5f82601f830112620007c457620007c36200066b565b5b8151620007d684826020860162000763565b91505092915050565b5f819050919050565b620007f381620007df565b8114620007fe575f80fd5b50565b5f815190506200081181620007e8565b92915050565b5f73ffffffffffffffffffffffffffffffffffffffff82169050919050565b5f620008428262000817565b9050919050565b620008548162000836565b81146200085f575f80fd5b50565b5f81519050620008728162000849565b92915050565b5f805f805f60a0868803121562000894576200089362000663565b5b5f86015167ffffffffffffffff811115620008b457620008b362000667565b5b620008c288828901620007ad565b955050602086015167ffffffffffffffff811115620008e657620008e562000667565b5b620008f488828901620007ad565b9450506040620009078882890162000801565b93505060606200091a8882890162000862565b92505060806200092d8882890162000862565b9150509295509295909350565b620009458162000836565b82525050565b5f602082019050620009605f8301846200093a565b92915050565b5f60ff82169050919050565b7f4e487b71000000000000000000000000000000000000000000000000000000005f52601160045260245ffd5b5f620009ab8262000966565b9150620009b88362000966565b9250828203905060ff811115620009d457620009d362000972565b5b92915050565b5f8160011c9050919050565b5f808291508390505b600185111562000a375780860481111562000a0f5762000a0e62000972565b5b600185161562000a1f5780820291505b808102905062000a2f85620009da565b9450620009ef565b94509492505050565b5f8262000a51576001905062000b23565b8162000a60575f905062000b23565b816001811462000a79576002811462000a845762000aba565b600191505062000b23565b60ff84111562000a995762000a9862000972565b5b8360020a91508482111562000ab35762000ab262000972565b5b5062000b23565b5060208310610133831016604e8410600b841016171562000af45782820a90508381111562000aee5762000aed62000972565b5b62000b23565b62000b038484846001620009e6565b9250905081840481111562000b1d5762000b1c62000972565b5b81810290505b9392505050565b5f62000b3682620007df565b915062000b438362000966565b925062000b727fffffffffffffffffffffffffffffffffffffffffffffffffffffffffffffffff848462000a40565b905092915050565b5f81519050919050565b7f4e487b71000000000000000000000000000000000000000000000000000000005f52602260045260245ffd5b5f600282049050600182168062000bc957607f821691505b60208210810362000bdf5762000bde62000b84565b5b50919050565b5f819050815f5260205f209050919050565b5f6020601f8301049050919050565b5f82821b905092915050565b5f6008830262000c437fffffffffffffffffffffffffffffffffffffffffffffffffffffffffffffffff8262000c06565b62000c4f868362000c06565b95508019841693508086168417925050509392505050565b5f819050919050565b5f62000c9062000c8a62000c8484620007df565b62000c67565b620007df565b9050919050565b5f819050919050565b62000cab8362000c70565b62000cc362000cba8262000c97565b84845462000c12565b825550505050565b5f90565b62000cd962000ccb565b62000ce681848462000ca0565b505050565b5b8181101562000d0d5762000d015f8262000ccf565b60018101905062000cec565b5050565b601f82111562000d5c5762000d268162000be5565b62000d318462000bf7565b8101602085101562000d41578190505b62000d5962000d508562000bf7565b83018262000ceb565b50505b505050565b5f82821c905092915050565b5f62000d7e5f198460080262000d61565b1980831691505092915050565b5f62000d98838362000d6d565b9150826002028217905092915050565b62000db38262000b7a565b67ffffffffffffffff81111562000dcf5762000dce62000683565b5b62000ddb825462000bb1565b62000de882828562000d11565b5f60209050601f83116001811462000e1e575f841562000e09578287015190505b62000e15858262000d8b565b86555062000e84565b601f19841662000e2e8662000be5565b5f5b8281101562000e575784890151825560018201915060208501945060208101905062000e30565b8683101562000e77578489015162000e73601f89168262000d6d565b8355505b6001600288020188555050505b505050505050565b5f62000e9882620007df565b915062000ea583620007df565b925082820262000eb581620007df565b9150828204841483151762000ecf5762000ece62000972565b5b5092915050565b5f62000ee282620007df565b915062000eef83620007df565b925082820190508082111562000f0a5762000f0962000972565b5b92915050565b62000f1b81620007df565b82525050565b5f60608201905062000f365f8301866200093a565b62000f45602083018562000f10565b62000f54604083018462000f10565b949350505050565b5f60208201905062000f715f83018462000f10565b92915050565b60805160a0516150f662000fe65f395f818161116d0152818161254b0152818161256c01528181612610015261295f01525f8181610c8d01528181610f6e0152818161160f01528181611a5901528181611f5601528181612a5901528181612cab0152612da301526150f65ff3fe608060405260043610610250575f3560e01c80637d25a05e11610138578063bb0b6a53116100b5578063d045a0dc11610079578063d045a0dc146108e7578063d424388514610903578063dd62ed3e1461092b578063f2fde38b14610967578063fc0c546a1461098f578063ff7bd03d146109b957610250565b8063bb0b6a53146107fa578063bc70b35414610836578063bd815db014610872578063c7c7f5b31461088e578063ca5eb5e1146108bf57610250565b8063963efcaa116100fc578063963efcaa146107185780639f68b96414610742578063a9059cbb1461076c578063b731ea0a146107a8578063b98bd070146107d257610250565b80637d25a05e1461062257806382413eac1461065e578063857749b01461069a5780638da5cb5b146106c457806395d89b41146106ee57610250565b806323b872dd116101d15780635535d461116101955780635535d461146105065780635a0dfe4d146105425780635e280f111461057e5780636fc1b31e146105a857806370a08231146105d0578063715018a61461060c57610250565b806323b872dd14610412578063313ce5671461044e5780633400288b146104785780633b6f743b146104a057806352ae2879146104dc57610250565b8063134d4f2511610218578063134d4f251461033e578063156a0d0f1461036857806317442b701461039357806318160ddd146103be5780631f5e1334146103e857610250565b806306fdde0314610254578063095ea7b31461027e5780630d35b415146102ba578063111ecdad146102f857806313137d6514610322575b5f80fd5b34801561025f575f80fd5b506102686109f5565b6040516102759190613028565b60405180910390f35b348015610289575f80fd5b506102a4600480360381019061029f91906130e6565b610a85565b6040516102b1919061313e565b60405180910390f35b3480156102c5575f80fd5b506102e060048036038101906102db9190613179565b610aa7565b6040516102ef9392919061337e565b60405180910390f35b348015610303575f80fd5b5061030c610c4f565b60405161031991906133c9565b60405180910390f35b61033c60048036038101906103379190613494565b610c74565b005b348015610349575f80fd5b50610352610d94565b60405161035f9190613567565b60405180910390f35b348015610373575f80fd5b5061037c610d99565b60405161038a9291906135dc565b60405180910390f35b34801561039e575f80fd5b506103a7610dc6565b6040516103b5929190613603565b60405180910390f35b3480156103c9575f80fd5b506103d2610dd4565b6040516103df9190613639565b60405180910390f35b3480156103f3575f80fd5b506103fc610ddd565b6040516104099190613567565b60405180910390f35b34801561041d575f80fd5b5061043860048036038101906104339190613652565b610de2565b604051610445919061313e565b60405180910390f35b348015610459575f80fd5b50610462610e10565b60405161046f91906136bd565b60405180910390f35b348015610483575f80fd5b5061049e6004803603810190610499919061370f565b610e18565b005b3480156104ab575f80fd5b506104c660048036038101906104c19190613777565b610e2e565b6040516104d391906137fe565b60405180910390f35b3480156104e7575f80fd5b506104f0610e96565b6040516104fd91906133c9565b60405180910390f35b348015610511575f80fd5b5061052c60048036038101906105279190613841565b610e9d565b60405161053991906138d1565b60405180910390f35b34801561054d575f80fd5b506105686004803603810190610563919061370f565b610f43565b604051610575919061313e565b60405180910390f35b348015610589575f80fd5b50610592610f6c565b60405161059f919061394c565b60405180910390f35b3480156105b3575f80fd5b506105ce60048036038101906105c99190613965565b610f90565b005b3480156105db575f80fd5b506105f660048036038101906105f19190613965565b611012565b6040516106039190613639565b60405180910390f35b348015610617575f80fd5b50610620611058565b005b34801561062d575f80fd5b506106486004803603810190610643919061370f565b61106b565b6040516106559190613990565b60405180910390f35b348015610669575f80fd5b50610684600480360381019061067f91906139a9565b611072565b604051610691919061313e565b60405180910390f35b3480156106a5575f80fd5b506106ae6110ac565b6040516106bb91906136bd565b60405180910390f35b3480156106cf575f80fd5b506106d86110b4565b6040516106e591906133c9565b60405180910390f35b3480156106f9575f80fd5b506107026110db565b60405161070f9190613028565b60405180910390f35b348015610723575f80fd5b5061072c61116b565b6040516107399190613639565b60405180910390f35b34801561074d575f80fd5b5061075661118f565b604051610763919061313e565b60405180910390f35b348015610777575f80fd5b50610792600480360381019061078d91906130e6565b611193565b60405161079f919061313e565b60405180910390f35b3480156107b3575f80fd5b506107bc6111b5565b6040516107c991906133c9565b60405180910390f35b3480156107dd575f80fd5b506107f860048036038101906107f39190613a6f565b6111da565b005b348015610805575f80fd5b50610820600480360381019061081b9190613aba565b6111fb565b60405161082d9190613af4565b60405180910390f35b348015610841575f80fd5b5061085c60048036038101906108579190613b0d565b611210565b60405161086991906138d1565b60405180910390f35b61088c60048036038101906108879190613bd3565b611412565b005b6108a860048036038101906108a39190613c3c565b6115de565b6040516108b6929190613d33565b60405180910390f35b3480156108ca575f80fd5b506108e560048036038101906108e09190613965565b611605565b005b61090160048036038101906108fc9190613494565b611696565b005b34801561090e575f80fd5b5061092960048036038101906109249190613965565b611713565b005b348015610936575f80fd5b50610951600480360381019061094c9190613d5a565b611795565b60405161095e9190613639565b60405180910390f35b348015610972575f80fd5b5061098d60048036038101906109889190613965565b611817565b005b34801561099a575f80fd5b506109a361189b565b6040516109b091906133c9565b60405180910390f35b3480156109c4575f80fd5b506109df60048036038101906109da9190613d98565b6118a2565b6040516109ec919061313e565b60405180910390f35b606060088054610a0490613df0565b80601f0160208091040260200160405190810160405280929190818152602001828054610a3090613df0565b8015610a7b5780601f10610a5257610100808354040283529160200191610a7b565b820191905f5260205f20905b815481529060010190602001808311610a5e57829003601f168201915b5050505050905090565b5f80610a8f6118df565b9050610a9c8185856118e6565b600191505092915050565b610aaf612f0b565b6060610ab9612f23565b5f803073ffffffffffffffffffffffffffffffffffffffff1663fc0c546a6040518163ffffffff1660e01b8152600401602060405180830381865afa158015610b04573d5f803e3d5ffd5b505050506040513d601f19601f82011682018060405250810190610b289190613e34565b73ffffffffffffffffffffffffffffffffffffffff166318160ddd6040518163ffffffff1660e01b8152600401602060405180830381865afa158015610b70573d5f803e3d5ffd5b505050506040513d601f19601f82011682018060405250810190610b949190613e73565b905060405180604001604052808381526020018281525094505f67ffffffffffffffff811115610bc757610bc6613e9e565b5b604051908082528060200260200182016040528015610c0057816020015b610bed612f3b565b815260200190600190039081610be55790505b5093505f80610c29886040013589606001358a5f016020810190610c249190613aba565b6118f8565b915091506040518060400160405280838152602001828152509450505050509193909250565b60045f9054906101000a900473ffffffffffffffffffffffffffffffffffffffff1681565b3373ffffffffffffffffffffffffffffffffffffffff167f000000000000000000000000000000000000000000000000000000000000000073ffffffffffffffffffffffffffffffffffffffff1614610d0457336040517f91ac5e4f000000000000000000000000000000000000000000000000000000008152600401610cfb91906133c9565b60405180910390fd5b8660200135610d23885f016020810190610d1e9190613aba565b611957565b14610d7c57865f016020810190610d3a9190613aba565b87602001356040517fc26bebcc000000000000000000000000000000000000000000000000000000008152600401610d73929190613eda565b60405180910390fd5b610d8b878787878787876119c8565b50505050505050565b600281565b5f807f02e49c2c000000000000000000000000000000000000000000000000000000006001915091509091565b5f8060016002915091509091565b5f600754905090565b600181565b5f80610dec6118df565b9050610df9858285611b52565b610e04858585611be5565b60019150509392505050565b5f6012905090565b610e20611cd5565b610e2a8282611d5c565b5050565b610e36612f54565b5f610e5b84604001358560600135865f016020810190610e569190613aba565b6118f8565b9150505f80610e6a8684611dbb565b91509150610e8b865f016020810190610e839190613aba565b838388611f4c565b935050505092915050565b5f30905090565b6003602052815f5260405f20602052805f5260405f205f91509150508054610ec490613df0565b80601f0160208091040260200160405190810160405280929190818152602001828054610ef090613df0565b8015610f3b5780601f10610f1257610100808354040283529160200191610f3b565b820191905f5260205f20905b815481529060010190602001808311610f1e57829003601f168201915b505050505081565b5f8160015f8563ffffffff1663ffffffff1681526020019081526020015f205414905092915050565b7f000000000000000000000000000000000000000000000000000000000000000081565b610f98611cd5565b8060045f6101000a81548173ffffffffffffffffffffffffffffffffffffffff021916908373ffffffffffffffffffffffffffffffffffffffff1602179055507ff0be4f1e87349231d80c36b33f9e8639658eeaf474014dee15a3e6a4d44141978160405161100791906133c9565b60405180910390a150565b5f60055f8373ffffffffffffffffffffffffffffffffffffffff1673ffffffffffffffffffffffffffffffffffffffff1681526020019081526020015f20549050919050565b611060611cd5565b6110695f61202d565b565b5f92915050565b5f3073ffffffffffffffffffffffffffffffffffffffff168273ffffffffffffffffffffffffffffffffffffffff16149050949350505050565b5f6006905090565b5f805f9054906101000a900473ffffffffffffffffffffffffffffffffffffffff16905090565b6060600980546110ea90613df0565b80601f016020809104026020016040519081016040528092919081815260200182805461111690613df0565b80156111615780601f1061113857610100808354040283529160200191611161565b820191905f5260205f20905b81548152906001019060200180831161114457829003601f168201915b5050505050905090565b7f000000000000000000000000000000000000000000000000000000000000000081565b5f90565b5f8061119d6118df565b90506111aa818585611be5565b600191505092915050565b60025f9054906101000a900473ffffffffffffffffffffffffffffffffffffffff1681565b6111e2611cd5565b6111f78282906111f29190614132565b6120ee565b5050565b6001602052805f5260405f205f915090505481565b60605f60035f8763ffffffff1663ffffffff1681526020019081526020015f205f8661ffff1661ffff1681526020019081526020015f20805461125290613df0565b80601f016020809104026020016040519081016040528092919081815260200182805461127e90613df0565b80156112c95780601f106112a0576101008083540402835291602001916112c9565b820191905f5260205f20905b8154815290600101906020018083116112ac57829003601f168201915b505050505090505f8151036113245783838080601f0160208091040260200160405190810160405280939291908181526020018383808284375f81840152601f19601f8201169050808301925050505050505091505061140a565b5f8484905003611337578091505061140a565b600284849050106113cb5761138e84848080601f0160208091040260200160405190810160405280939291908181526020018383808284375f81840152601f19601f82011690508083019250505050505050612203565b80848460029080926113a29392919061414e565b6040516020016113b4939291906141e6565b60405160208183030381529060405291505061140a565b83836040517f9a6d49cd000000000000000000000000000000000000000000000000000000008152600401611401929190614237565b60405180910390fd5b949350505050565b5f5b82829050811015611531573683838381811061143357611432614259565b5b90506020028101906114459190614292565b905061146a815f015f01602081019061145e9190613aba565b825f0160200135610f43565b6114745750611524565b3073ffffffffffffffffffffffffffffffffffffffff1663d045a0dc8260c00135835f018460a00135858061010001906114ae91906142ba565b8760e00160208101906114c19190613965565b888061012001906114d291906142ba565b6040518963ffffffff1660e01b81526004016114f497969594939291906143ef565b5f604051808303818588803b15801561150b575f80fd5b505af115801561151d573d5f803e3d5ffd5b5050505050505b8080600101915050611414565b503373ffffffffffffffffffffffffffffffffffffffff16638e9e70996040518163ffffffff1660e01b81526004015f60405180830381865afa15801561157a573d5f803e3d5ffd5b505050506040513d5f823e3d601f19601f820116820180604052508101906115a291906144c0565b6040517f8351eea70000000000000000000000000000000000000000000000000000000081526004016115d591906138d1565b60405180910390fd5b6115e6612f6c565b6115ee612f23565b6115f985858561225c565b91509150935093915050565b61160d611cd5565b7f000000000000000000000000000000000000000000000000000000000000000073ffffffffffffffffffffffffffffffffffffffff1663ca5eb5e1826040518263ffffffff1660e01b815260040161166691906133c9565b5f604051808303815f87803b15801561167d575f80fd5b505af115801561168f573d5f803e3d5ffd5b5050505050565b3073ffffffffffffffffffffffffffffffffffffffff163373ffffffffffffffffffffffffffffffffffffffff16146116fb576040517f14d4a4e800000000000000000000000000000000000000000000000000000000815260040160405180910390fd5b61170a87878787878787612361565b50505050505050565b61171b611cd5565b8060025f6101000a81548173ffffffffffffffffffffffffffffffffffffffff021916908373ffffffffffffffffffffffffffffffffffffffff1602179055507fd48d879cef83a1c0bdda516f27b13ddb1b3f8bbac1c9e1511bb2a659c24277608160405161178a91906133c9565b60405180910390a150565b5f60065f8473ffffffffffffffffffffffffffffffffffffffff1673ffffffffffffffffffffffffffffffffffffffff1681526020019081526020015f205f8373ffffffffffffffffffffffffffffffffffffffff1673ffffffffffffffffffffffffffffffffffffffff1681526020019081526020015f2054905092915050565b61181f611cd5565b5f73ffffffffffffffffffffffffffffffffffffffff168173ffffffffffffffffffffffffffffffffffffffff160361188f575f6040517f1e4fbdf700000000000000000000000000000000000000000000000000000000815260040161188691906133c9565b60405180910390fd5b6118988161202d565b50565b5f30905090565b5f816020013560015f845f0160208101906118bd9190613aba565b63ffffffff1663ffffffff1681526020019081526020015f2054149050919050565b5f33905090565b6118f38383836001612379565b505050565b5f8061190385612548565b91508190508381101561194f5780846040517f71c4efed000000000000000000000000000000000000000000000000000000008152600401611946929190614507565b60405180910390fd5b935093915050565b5f8060015f8463ffffffff1663ffffffff1681526020019081526020015f205490505f801b81036119bf57826040517ff6ff4fb70000000000000000000000000000000000000000000000000000000081526004016119b6919061452e565b60405180910390fd5b80915050919050565b5f6119db6119d687876125a7565b6125d1565b90505f611a0b826119f46119ef8a8a6125dc565b61260d565b8b5f016020810190611a069190613aba565b61264b565b9050611a178787612699565b15611ae5575f611a558a6040016020810190611a339190614547565b8b5f016020810190611a459190613aba565b84611a508c8c6126ac565b61270e565b90507f000000000000000000000000000000000000000000000000000000000000000073ffffffffffffffffffffffffffffffffffffffff16637cb59012848b5f856040518563ffffffff1660e01b8152600401611ab694939291906145ab565b5f604051808303815f87803b158015611acd575f80fd5b505af1158015611adf573d5f803e3d5ffd5b50505050505b8173ffffffffffffffffffffffffffffffffffffffff16887fefed6d3500546b29533b128a29e3a94d70788727f0507505ac12eaf2e578fd9c8b5f016020810190611b309190613aba565b84604051611b3f9291906145f5565b60405180910390a3505050505050505050565b5f611b5d8484611795565b90507fffffffffffffffffffffffffffffffffffffffffffffffffffffffffffffffff811015611bdf5781811015611bd0578281836040517ffb8f41b2000000000000000000000000000000000000000000000000000000008152600401611bc79392919061461c565b60405180910390fd5b611bde84848484035f612379565b5b50505050565b5f73ffffffffffffffffffffffffffffffffffffffff168373ffffffffffffffffffffffffffffffffffffffff1603611c55575f6040517f96c6fd1e000000000000000000000000000000000000000000000000000000008152600401611c4c91906133c9565b60405180910390fd5b5f73ffffffffffffffffffffffffffffffffffffffff168273ffffffffffffffffffffffffffffffffffffffff1603611cc5575f6040517fec442f05000000000000000000000000000000000000000000000000000000008152600401611cbc91906133c9565b60405180910390fd5b611cd0838383612740565b505050565b611cdd6118df565b73ffffffffffffffffffffffffffffffffffffffff16611cfb6110b4565b73ffffffffffffffffffffffffffffffffffffffff1614611d5a57611d1e6118df565b6040517f118cdaa7000000000000000000000000000000000000000000000000000000008152600401611d5191906133c9565b60405180910390fd5b565b8060015f8463ffffffff1663ffffffff1681526020019081526020015f20819055507f238399d427b947898edb290f5ff0f9109849b1c3ba196a42e35f00c50a54b98b8282604051611daf929190613eda565b60405180910390a15050565b6060805f611e278560200135611dd08661295c565b878060a00190611de091906142ba565b8080601f0160208091040260200160405190810160405280939291908181526020018383808284375f81840152601f19601f82011690508083019250505050505050612990565b80925081945050505f81611e3c576001611e3f565b60025b9050611e6c865f016020810190611e569190613aba565b82888060800190611e6791906142ba565b611210565b92505f60045f9054906101000a900473ffffffffffffffffffffffffffffffffffffffff1690505f73ffffffffffffffffffffffffffffffffffffffff168173ffffffffffffffffffffffffffffffffffffffff1614611f42578073ffffffffffffffffffffffffffffffffffffffff1663043a78eb86866040518363ffffffff1660e01b8152600401611f01929190614651565b602060405180830381865afa158015611f1c573d5f803e3d5ffd5b505050506040513d601f19601f82011682018060405250810190611f40919061469a565b505b5050509250929050565b611f54612f54565b7f000000000000000000000000000000000000000000000000000000000000000073ffffffffffffffffffffffffffffffffffffffff1663ddc28c586040518060a001604052808863ffffffff168152602001611fb089611957565b8152602001878152602001868152602001851515815250306040518363ffffffff1660e01b8152600401611fe5929190614796565b6040805180830381865afa158015611fff573d5f803e3d5ffd5b505050506040513d601f19601f820116820180604052508101906120239190614811565b9050949350505050565b5f805f9054906101000a900473ffffffffffffffffffffffffffffffffffffffff169050815f806101000a81548173ffffffffffffffffffffffffffffffffffffffff021916908373ffffffffffffffffffffffffffffffffffffffff1602179055508173ffffffffffffffffffffffffffffffffffffffff168173ffffffffffffffffffffffffffffffffffffffff167f8be0079c531659141344cd1fd0a4f28419497f9722a3daafe3b4186f6b6457e060405160405180910390a35050565b5f5b81518110156121c85761212082828151811061210f5761210e614259565b5b602002602001015160400151612203565b81818151811061213357612132614259565b5b60200260200101516040015160035f84848151811061215557612154614259565b5b60200260200101515f015163ffffffff1663ffffffff1681526020019081526020015f205f84848151811061218d5761218c614259565b5b60200260200101516020015161ffff1661ffff1681526020019081526020015f2090816121ba91906149d0565b5080806001019150506120f0565b507fbe4864a8e820971c0247f5992e2da559595f7bf076a21cb5928d443d2a13b674816040516121f89190614bb6565b60405180910390a150565b5f60028201519050600361ffff168161ffff161461225857816040517f9a6d49cd00000000000000000000000000000000000000000000000000000000815260040161224f91906138d1565b60405180910390fd5b5050565b612264612f6c565b61226c612f23565b5f8061229333886040013589606001358a5f01602081019061228e9190613aba565b6129fe565b915091505f806122a38984611dbb565b915091506122d5895f0160208101906122bc9190613aba565b83838b8036038101906122cf9190614c23565b8b612a26565b955060405180604001604052808581526020018481525094503373ffffffffffffffffffffffffffffffffffffffff16865f01517f85496b760a4b7f8d66384b9df21b381f5d1b1e79f229a47aaf4c232edc2fe59a8b5f01602081019061233c9190613aba565b878760405161234d93929190614c4e565b60405180910390a350505050935093915050565b612370878787878787876119c8565b50505050505050565b5f73ffffffffffffffffffffffffffffffffffffffff168473ffffffffffffffffffffffffffffffffffffffff16036123e9575f6040517fe602df050000000000000000000000000000000000000000000000000000000081526004016123e091906133c9565b60405180910390fd5b5f73ffffffffffffffffffffffffffffffffffffffff168373ffffffffffffffffffffffffffffffffffffffff1603612459575f6040517f94280d6200000000000000000000000000000000000000000000000000000000815260040161245091906133c9565b60405180910390fd5b8160065f8673ffffffffffffffffffffffffffffffffffffffff1673ffffffffffffffffffffffffffffffffffffffff1681526020019081526020015f205f8573ffffffffffffffffffffffffffffffffffffffff1673ffffffffffffffffffffffffffffffffffffffff1681526020019081526020015f20819055508015612542578273ffffffffffffffffffffffffffffffffffffffff168473ffffffffffffffffffffffffffffffffffffffff167f8c5be1e5ebec7d5bd14f71427d1e84f3dd0314c0f7b2291e5b200ac8c7c3b925846040516125399190613639565b60405180910390a35b50505050565b5f7f00000000000000000000000000000000000000000000000000000000000000007f0000000000000000000000000000000000000000000000000000000000000000836125969190614cdd565b6125a09190614d0d565b9050919050565b5f82825f90602060ff16926125be9392919061414e565b906125c99190614d58565b905092915050565b5f815f1c9050919050565b5f8282602060ff1690602860ff16926125f79392919061414e565b906126029190614de1565b60c01c905092915050565b5f7f00000000000000000000000000000000000000000000000000000000000000008267ffffffffffffffff166126449190614d0d565b9050919050565b5f8073ffffffffffffffffffffffffffffffffffffffff168473ffffffffffffffffffffffffffffffffffffffff16036126855761dead93505b61268f8484612b3c565b8290509392505050565b5f602860ff168383905011905092915050565b60608282602860ff169080926126c49392919061414e565b8080601f0160208091040260200160405190810160405280939291908181526020018383808284375f81840152601f19601f82011690508083019250505050505050905092915050565b6060848484846040516020016127279493929190614ec7565b6040516020818303038152906040529050949350505050565b5f73ffffffffffffffffffffffffffffffffffffffff168373ffffffffffffffffffffffffffffffffffffffff1603612790578060075f8282546127849190614f10565b92505081905550612860565b5f60055f8573ffffffffffffffffffffffffffffffffffffffff1673ffffffffffffffffffffffffffffffffffffffff1681526020019081526020015f205490508181101561281a578381836040517fe450d38c0000000000000000000000000000000000000000000000000000000081526004016128119392919061461c565b60405180910390fd5b81810360055f8673ffffffffffffffffffffffffffffffffffffffff1673ffffffffffffffffffffffffffffffffffffffff1681526020019081526020015f2081905550505b5f73ffffffffffffffffffffffffffffffffffffffff168273ffffffffffffffffffffffffffffffffffffffff16036128a7578060075f82825403925050819055506128f2565b8060055f8473ffffffffffffffffffffffffffffffffffffffff1673ffffffffffffffffffffffffffffffffffffffff1681526020019081526020015f205f82825401925050819055505b8173ffffffffffffffffffffffffffffffffffffffff168373ffffffffffffffffffffffffffffffffffffffff167fddf252ad1be2c89b69c2b068fc378daa952ba7f163c4a11628f55a4df523b3ef8360405161294f9190613639565b60405180910390a3505050565b5f7f0000000000000000000000000000000000000000000000000000000000000000826129899190614cdd565b9050919050565b60605f808351119050806129c55784846040516020016129b1929190614f63565b6040516020818303038152906040526129f4565b84846129d033612bbb565b856040516020016129e49493929190614f8e565b6040516020818303038152906040525b9150935093915050565b5f80612a0b8585856118f8565b8092508193505050612a1d8683612bdc565b94509492505050565b612a2e612f6c565b5f612a3b845f0151612c5b565b90505f84602001511115612a5757612a568460200151612ca8565b5b7f000000000000000000000000000000000000000000000000000000000000000073ffffffffffffffffffffffffffffffffffffffff16632637a450826040518060a001604052808b63ffffffff168152602001612ab48c611957565b81526020018a81526020018981526020015f8960200151111515815250866040518463ffffffff1660e01b8152600401612aef929190614796565b60806040518083038185885af1158015612b0b573d5f803e3d5ffd5b50505050506040513d601f19601f82011682018060405250810190612b309190615060565b91505095945050505050565b5f73ffffffffffffffffffffffffffffffffffffffff168273ffffffffffffffffffffffffffffffffffffffff1603612bac575f6040517fec442f05000000000000000000000000000000000000000000000000000000008152600401612ba391906133c9565b60405180910390fd5b612bb75f8383612740565b5050565b5f8173ffffffffffffffffffffffffffffffffffffffff165f1b9050919050565b5f73ffffffffffffffffffffffffffffffffffffffff168273ffffffffffffffffffffffffffffffffffffffff1603612c4c575f6040517f96c6fd1e000000000000000000000000000000000000000000000000000000008152600401612c4391906133c9565b60405180910390fd5b612c57825f83612740565b5050565b5f813414612ca057346040517f9f704120000000000000000000000000000000000000000000000000000000008152600401612c979190613639565b60405180910390fd5b819050919050565b5f7f000000000000000000000000000000000000000000000000000000000000000073ffffffffffffffffffffffffffffffffffffffff1663e4fe1d946040518163ffffffff1660e01b8152600401602060405180830381865afa158015612d12573d5f803e3d5ffd5b505050506040513d601f19601f82011682018060405250810190612d369190613e34565b90505f73ffffffffffffffffffffffffffffffffffffffff168173ffffffffffffffffffffffffffffffffffffffff1603612d9d576040517f5373352a00000000000000000000000000000000000000000000000000000000815260040160405180910390fd5b612dea337f0000000000000000000000000000000000000000000000000000000000000000848473ffffffffffffffffffffffffffffffffffffffff16612dee909392919063ffffffff16565b5050565b612e6a848573ffffffffffffffffffffffffffffffffffffffff166323b872dd868686604051602401612e239392919061508b565b604051602081830303815290604052915060e01b6020820180517bffffffffffffffffffffffffffffffffffffffffffffffffffffffff8381831617835250505050612e70565b50505050565b5f8060205f8451602086015f885af180612e8f576040513d5f823e3d81fd5b3d92505f519150505f8214612ea8576001811415612ec3565b5f8473ffffffffffffffffffffffffffffffffffffffff163b145b15612f0557836040517f5274afe7000000000000000000000000000000000000000000000000000000008152600401612efc91906133c9565b60405180910390fd5b50505050565b60405180604001604052805f81526020015f81525090565b60405180604001604052805f81526020015f81525090565b60405180604001604052805f8152602001606081525090565b60405180604001604052805f81526020015f81525090565b60405180606001604052805f80191681526020015f67ffffffffffffffff168152602001612f98612f54565b81525090565b5f81519050919050565b5f82825260208201905092915050565b5f5b83811015612fd5578082015181840152602081019050612fba565b5f8484015250505050565b5f601f19601f8301169050919050565b5f612ffa82612f9e565b6130048185612fa8565b9350613014818560208601612fb8565b61301d81612fe0565b840191505092915050565b5f6020820190508181035f8301526130408184612ff0565b905092915050565b5f604051905090565b5f80fd5b5f80fd5b5f73ffffffffffffffffffffffffffffffffffffffff82169050919050565b5f61308282613059565b9050919050565b61309281613078565b811461309c575f80fd5b50565b5f813590506130ad81613089565b92915050565b5f819050919050565b6130c5816130b3565b81146130cf575f80fd5b50565b5f813590506130e0816130bc565b92915050565b5f80604083850312156130fc576130fb613051565b5b5f6131098582860161309f565b925050602061311a858286016130d2565b9150509250929050565b5f8115159050919050565b61313881613124565b82525050565b5f6020820190506131515f83018461312f565b92915050565b5f80fd5b5f60e082840312156131705761316f613157565b5b81905092915050565b5f6020828403121561318e5761318d613051565b5b5f82013567ffffffffffffffff8111156131ab576131aa613055565b5b6131b78482850161315b565b91505092915050565b6131c9816130b3565b82525050565b604082015f8201516131e35f8501826131c0565b5060208201516131f660208501826131c0565b50505050565b5f81519050919050565b5f82825260208201905092915050565b5f819050602082019050919050565b5f819050919050565b61323781613225565b82525050565b5f82825260208201905092915050565b5f61325782612f9e565b613261818561323d565b9350613271818560208601612fb8565b61327a81612fe0565b840191505092915050565b5f604083015f83015161329a5f86018261322e565b50602083015184820360208601526132b2828261324d565b9150508091505092915050565b5f6132ca8383613285565b905092915050565b5f602082019050919050565b5f6132e8826131fc565b6132f28185613206565b93508360208202850161330485613216565b805f5b8581101561333f578484038952815161332085826132bf565b945061332b836132d2565b925060208a01995050600181019050613307565b50829750879550505050505092915050565b604082015f8201516133655f8501826131c0565b50602082015161337860208501826131c0565b50505050565b5f60a0820190506133915f8301866131cf565b81810360408301526133a381856132de565b90506133b26060830184613351565b949350505050565b6133c381613078565b82525050565b5f6020820190506133dc5f8301846133ba565b92915050565b5f606082840312156133f7576133f6613157565b5b81905092915050565b5f819050919050565b61341281613400565b811461341c575f80fd5b50565b5f8135905061342d81613409565b92915050565b5f80fd5b5f80fd5b5f80fd5b5f8083601f84011261345457613453613433565b5b8235905067ffffffffffffffff81111561347157613470613437565b5b60208301915083600182028301111561348d5761348c61343b565b5b9250929050565b5f805f805f805f60e0888a0312156134af576134ae613051565b5b5f6134bc8a828b016133e2565b97505060606134cd8a828b0161341f565b965050608088013567ffffffffffffffff8111156134ee576134ed613055565b5b6134fa8a828b0161343f565b955095505060a061350d8a828b0161309f565b93505060c088013567ffffffffffffffff81111561352e5761352d613055565b5b61353a8a828b0161343f565b925092505092959891949750929550565b5f61ffff82169050919050565b6135618161354b565b82525050565b5f60208201905061357a5f830184613558565b92915050565b5f7fffffffff0000000000000000000000000000000000000000000000000000000082169050919050565b6135b481613580565b82525050565b5f67ffffffffffffffff82169050919050565b6135d6816135ba565b82525050565b5f6040820190506135ef5f8301856135ab565b6135fc60208301846135cd565b9392505050565b5f6040820190506136165f8301856135cd565b61362360208301846135cd565b9392505050565b613633816130b3565b82525050565b5f60208201905061364c5f83018461362a565b92915050565b5f805f6060848603121561366957613668613051565b5b5f6136768682870161309f565b93505060206136878682870161309f565b9250506040613698868287016130d2565b9150509250925092565b5f60ff82169050919050565b6136b7816136a2565b82525050565b5f6020820190506136d05f8301846136ae565b92915050565b5f63ffffffff82169050919050565b6136ee816136d6565b81146136f8575f80fd5b50565b5f81359050613709816136e5565b92915050565b5f806040838503121561372557613724613051565b5b5f613732858286016136fb565b92505060206137438582860161341f565b9150509250929050565b61375681613124565b8114613760575f80fd5b50565b5f813590506137718161374d565b92915050565b5f806040838503121561378d5761378c613051565b5b5f83013567ffffffffffffffff8111156137aa576137a9613055565b5b6137b68582860161315b565b92505060206137c785828601613763565b9150509250929050565b604082015f8201516137e55f8501826131c0565b5060208201516137f860208501826131c0565b50505050565b5f6040820190506138115f8301846137d1565b92915050565b6138208161354b565b811461382a575f80fd5b50565b5f8135905061383b81613817565b92915050565b5f806040838503121561385757613856613051565b5b5f613864858286016136fb565b92505060206138758582860161382d565b9150509250929050565b5f81519050919050565b5f82825260208201905092915050565b5f6138a38261387f565b6138ad8185613889565b93506138bd818560208601612fb8565b6138c681612fe0565b840191505092915050565b5f6020820190508181035f8301526138e98184613899565b905092915050565b5f819050919050565b5f61391461390f61390a84613059565b6138f1565b613059565b9050919050565b5f613925826138fa565b9050919050565b5f6139368261391b565b9050919050565b6139468161392c565b82525050565b5f60208201905061395f5f83018461393d565b92915050565b5f6020828403121561397a57613979613051565b5b5f6139878482850161309f565b91505092915050565b5f6020820190506139a35f8301846135cd565b92915050565b5f805f8060a085870312156139c1576139c0613051565b5b5f6139ce878288016133e2565b945050606085013567ffffffffffffffff8111156139ef576139ee613055565b5b6139fb8782880161343f565b93509350506080613a0e8782880161309f565b91505092959194509250565b5f8083601f840112613a2f57613a2e613433565b5b8235905067ffffffffffffffff811115613a4c57613a4b613437565b5b602083019150836020820283011115613a6857613a6761343b565b5b9250929050565b5f8060208385031215613a8557613a84613051565b5b5f83013567ffffffffffffffff811115613aa257613aa1613055565b5b613aae85828601613a1a565b92509250509250929050565b5f60208284031215613acf57613ace613051565b5b5f613adc848285016136fb565b91505092915050565b613aee81613400565b82525050565b5f602082019050613b075f830184613ae5565b92915050565b5f805f8060608587031215613b2557613b24613051565b5b5f613b32878288016136fb565b9450506020613b438782880161382d565b935050604085013567ffffffffffffffff811115613b6457613b63613055565b5b613b708782880161343f565b925092505092959194509250565b5f8083601f840112613b9357613b92613433565b5b8235905067ffffffffffffffff811115613bb057613baf613437565b5b602083019150836020820283011115613bcc57613bcb61343b565b5b9250929050565b5f8060208385031215613be957613be8613051565b5b5f83013567ffffffffffffffff811115613c0657613c05613055565b5b613c1285828601613b7e565b92509250509250929050565b5f60408284031215613c3357613c32613157565b5b81905092915050565b5f805f60808486031215613c5357613c52613051565b5b5f84013567ffffffffffffffff811115613c7057613c6f613055565b5b613c7c8682870161315b565b9350506020613c8d86828701613c1e565b9250506060613c9e8682870161309f565b9150509250925092565b613cb181613400565b82525050565b613cc0816135ba565b82525050565b604082015f820151613cda5f8501826131c0565b506020820151613ced60208501826131c0565b50505050565b608082015f820151613d075f850182613ca8565b506020820151613d1a6020850182613cb7565b506040820151613d2d6040850182613cc6565b50505050565b5f60c082019050613d465f830185613cf3565b613d536080830184613351565b9392505050565b5f8060408385031215613d7057613d6f613051565b5b5f613d7d8582860161309f565b9250506020613d8e8582860161309f565b9150509250929050565b5f60608284031215613dad57613dac613051565b5b5f613dba848285016133e2565b91505092915050565b7f4e487b71000000000000000000000000000000000000000000000000000000005f52602260045260245ffd5b5f6002820490506001821680613e0757607f821691505b602082108103613e1a57613e19613dc3565b5b50919050565b5f81519050613e2e81613089565b92915050565b5f60208284031215613e4957613e48613051565b5b5f613e5684828501613e20565b91505092915050565b5f81519050613e6d816130bc565b92915050565b5f60208284031215613e8857613e87613051565b5b5f613e9584828501613e5f565b91505092915050565b7f4e487b71000000000000000000000000000000000000000000000000000000005f52604160045260245ffd5b613ed4816136d6565b82525050565b5f604082019050613eed5f830185613ecb565b613efa6020830184613ae5565b9392505050565b613f0a82612fe0565b810181811067ffffffffffffffff82111715613f2957613f28613e9e565b5b80604052505050565b5f613f3b613048565b9050613f478282613f01565b919050565b5f67ffffffffffffffff821115613f6657613f65613e9e565b5b602082029050602081019050919050565b5f80fd5b5f80fd5b5f80fd5b5f67ffffffffffffffff821115613f9d57613f9c613e9e565b5b613fa682612fe0565b9050602081019050919050565b828183375f83830152505050565b5f613fd3613fce84613f83565b613f32565b905082815260208101848484011115613fef57613fee613f7f565b5b613ffa848285613fb3565b509392505050565b5f82601f83011261401657614015613433565b5b8135614026848260208601613fc1565b91505092915050565b5f6060828403121561404457614043613f77565b5b61404e6060613f32565b90505f61405d848285016136fb565b5f8301525060206140708482850161382d565b602083015250604082013567ffffffffffffffff81111561409457614093613f7b565b5b6140a084828501614002565b60408301525092915050565b5f6140be6140b984613f4c565b613f32565b905080838252602082019050602084028301858111156140e1576140e061343b565b5b835b8181101561412857803567ffffffffffffffff81111561410657614105613433565b5b808601614113898261402f565b855260208501945050506020810190506140e3565b5050509392505050565b5f61413e3684846140ac565b905092915050565b5f80fd5b5f80fd5b5f808585111561416157614160614146565b5b838611156141725761417161414a565b5b6001850283019150848603905094509492505050565b5f81905092915050565b5f61419c8261387f565b6141a68185614188565b93506141b6818560208601612fb8565b80840191505092915050565b5f6141cd8385614188565b93506141da838584613fb3565b82840190509392505050565b5f6141f18286614192565b91506141fe8284866141c2565b9150819050949350505050565b5f6142168385613889565b9350614223838584613fb3565b61422c83612fe0565b840190509392505050565b5f6020820190508181035f83015261425081848661420b565b90509392505050565b7f4e487b71000000000000000000000000000000000000000000000000000000005f52603260045260245ffd5b5f80fd5b5f80fd5b5f80fd5b5f82356001610140038336030381126142ae576142ad614286565b5b80830191505092915050565b5f80833560016020038436030381126142d6576142d5614286565b5b80840192508235915067ffffffffffffffff8211156142f8576142f761428a565b5b6020830192506001820236038313156143145761431361428e565b5b509250929050565b5f61432a60208401846136fb565b905092915050565b61433b816136d6565b82525050565b5f61434f602084018461341f565b905092915050565b614360816135ba565b811461436a575f80fd5b50565b5f8135905061437b81614357565b92915050565b5f61438f602084018461436d565b905092915050565b606082016143a75f83018361431c565b6143b35f850182614332565b506143c16020830183614341565b6143ce6020850182613ca8565b506143dc6040830183614381565b6143e96040850182613cb7565b50505050565b5f60e0820190506144025f83018a614397565b61440f6060830189613ae5565b818103608083015261442281878961420b565b905061443160a08301866133ba565b81810360c083015261444481848661420b565b905098975050505050505050565b5f61446461445f84613f83565b613f32565b9050828152602081018484840111156144805761447f613f7f565b5b61448b848285612fb8565b509392505050565b5f82601f8301126144a7576144a6613433565b5b81516144b7848260208601614452565b91505092915050565b5f602082840312156144d5576144d4613051565b5b5f82015167ffffffffffffffff8111156144f2576144f1613055565b5b6144fe84828501614493565b91505092915050565b5f60408201905061451a5f83018561362a565b614527602083018461362a565b9392505050565b5f6020820190506145415f830184613ecb565b92915050565b5f6020828403121561455c5761455b613051565b5b5f6145698482850161436d565b91505092915050565b5f819050919050565b5f61459561459061458b84614572565b6138f1565b61354b565b9050919050565b6145a58161457b565b82525050565b5f6080820190506145be5f8301876133ba565b6145cb6020830186613ae5565b6145d8604083018561459c565b81810360608301526145ea8184613899565b905095945050505050565b5f6040820190506146085f830185613ecb565b614615602083018461362a565b9392505050565b5f60608201905061462f5f8301866133ba565b61463c602083018561362a565b614649604083018461362a565b949350505050565b5f6040820190508181035f8301526146698185613899565b9050818103602083015261467d8184613899565b90509392505050565b5f815190506146948161374d565b92915050565b5f602082840312156146af576146ae613051565b5b5f6146bc84828501614686565b91505092915050565b5f82825260208201905092915050565b5f6146df8261387f565b6146e981856146c5565b93506146f9818560208601612fb8565b61470281612fe0565b840191505092915050565b61471681613124565b82525050565b5f60a083015f8301516147315f860182614332565b5060208301516147446020860182613ca8565b506040830151848203604086015261475c82826146d5565b9150506060830151848203606086015261477682826146d5565b915050608083015161478b608086018261470d565b508091505092915050565b5f6040820190508181035f8301526147ae818561471c565b90506147bd60208301846133ba565b9392505050565b5f604082840312156147d9576147d8613f77565b5b6147e36040613f32565b90505f6147f284828501613e5f565b5f83015250602061480584828501613e5f565b60208301525092915050565b5f6040828403121561482657614825613051565b5b5f614833848285016147c4565b91505092915050565b5f819050815f5260205f209050919050565b5f6020601f8301049050919050565b5f82821b905092915050565b5f600883026148987fffffffffffffffffffffffffffffffffffffffffffffffffffffffffffffffff8261485d565b6148a2868361485d565b95508019841693508086168417925050509392505050565b5f6148d46148cf6148ca846130b3565b6138f1565b6130b3565b9050919050565b5f819050919050565b6148ed836148ba565b6149016148f9826148db565b848454614869565b825550505050565b5f90565b614915614909565b6149208184846148e4565b505050565b5b81811015614943576149385f8261490d565b600181019050614926565b5050565b601f821115614988576149598161483c565b6149628461484e565b81016020851015614971578190505b61498561497d8561484e565b830182614925565b50505b505050565b5f82821c905092915050565b5f6149a85f198460080261498d565b1980831691505092915050565b5f6149c08383614999565b9150826002028217905092915050565b6149d98261387f565b67ffffffffffffffff8111156149f2576149f1613e9e565b5b6149fc8254613df0565b614a07828285614947565b5f60209050601f831160018114614a38575f8415614a26578287015190505b614a3085826149b5565b865550614a97565b601f198416614a468661483c565b5f5b82811015614a6d57848901518255600182019150602085019450602081019050614a48565b86831015614a8a5784890151614a86601f891682614999565b8355505b6001600288020188555050505b505050505050565b5f81519050919050565b5f82825260208201905092915050565b5f819050602082019050919050565b614ad18161354b565b82525050565b5f606083015f830151614aec5f860182614332565b506020830151614aff6020860182614ac8565b5060408301518482036040860152614b1782826146d5565b9150508091505092915050565b5f614b2f8383614ad7565b905092915050565b5f602082019050919050565b5f614b4d82614a9f565b614b578185614aa9565b935083602082028501614b6985614ab9565b805f5b85811015614ba45784840389528151614b858582614b24565b9450614b9083614b37565b925060208a01995050600181019050614b6c565b50829750879550505050505092915050565b5f6020820190508181035f830152614bce8184614b43565b905092915050565b5f60408284031215614beb57614bea613f77565b5b614bf56040613f32565b90505f614c04848285016130d2565b5f830152506020614c17848285016130d2565b60208301525092915050565b5f60408284031215614c3857614c37613051565b5b5f614c4584828501614bd6565b91505092915050565b5f606082019050614c615f830186613ecb565b614c6e602083018561362a565b614c7b604083018461362a565b949350505050565b7f4e487b71000000000000000000000000000000000000000000000000000000005f52601260045260245ffd5b7f4e487b71000000000000000000000000000000000000000000000000000000005f52601160045260245ffd5b5f614ce7826130b3565b9150614cf2836130b3565b925082614d0257614d01614c83565b5b828204905092915050565b5f614d17826130b3565b9150614d22836130b3565b9250828202614d30816130b3565b91508282048414831517614d4757614d46614cb0565b5b5092915050565b5f82905092915050565b5f614d638383614d4e565b82614d6e8135613400565b92506020821015614dae57614da97fffffffffffffffffffffffffffffffffffffffffffffffffffffffffffffffff8360200360080261485d565b831692505b505092915050565b5f7fffffffffffffffff00000000000000000000000000000000000000000000000082169050919050565b5f614dec8383614d4e565b82614df78135614db6565b92506008821015614e3757614e327fffffffffffffffff0000000000000000000000000000000000000000000000008360080360080261485d565b831692505b505092915050565b5f8160c01b9050919050565b5f614e5582614e3f565b9050919050565b614e6d614e68826135ba565b614e4b565b82525050565b5f8160e01b9050919050565b5f614e8982614e73565b9050919050565b614ea1614e9c826136d6565b614e7f565b82525050565b5f819050919050565b614ec1614ebc826130b3565b614ea7565b82525050565b5f614ed28287614e5c565b600882019150614ee28286614e90565b600482019150614ef28285614eb0565b602082019150614f028284614192565b915081905095945050505050565b5f614f1a826130b3565b9150614f25836130b3565b9250828201905080821115614f3d57614f3c614cb0565b5b92915050565b5f819050919050565b614f5d614f5882613400565b614f43565b82525050565b5f614f6e8285614f4c565b602082019150614f7e8284614e5c565b6008820191508190509392505050565b5f614f998287614f4c565b602082019150614fa98286614e5c565b600882019150614fb98285614f4c565b602082019150614fc98284614192565b915081905095945050505050565b5f81519050614fe581613409565b92915050565b5f81519050614ff981614357565b92915050565b5f6080828403121561501457615013613f77565b5b61501e6060613f32565b90505f61502d84828501614fd7565b5f83015250602061504084828501614feb565b6020830152506040615054848285016147c4565b60408301525092915050565b5f6080828403121561507557615074613051565b5b5f61508284828501614fff565b91505092915050565b5f60608201905061509e5f8301866133ba565b6150ab60208301856133ba565b6150b8604083018461362a565b94935050505056fea2646970667358221220832b90eba63331b2acb40d8e35786ec952268846213c4537dc6b1465d8dd4f2764736f6c63430008180033",
		"opcodes": "PUSH1 0xC0 PUSH1 0x40 MSTORE CALLVALUE DUP1 ISZERO PUSH3 0x10 JUMPI PUSH0 DUP1 REVERT JUMPDEST POP PUSH1 0x40 MLOAD PUSH3 0x60DC CODESIZE SUB DUP1 PUSH3 0x60DC DUP4 CODECOPY DUP2 DUP2 ADD PUSH1 0x40 MSTORE DUP2 ADD SWAP1 PUSH3 0x36 SWAP2 SWAP1 PUSH3 0x878 JUMP JUMPDEST DUP5 DUP5 DUP4 DUP4 DUP4 DUP4 PUSH3 0x4C PUSH3 0x2D8 PUSH1 0x20 SHL PUSH1 0x20 SHR JUMP JUMPDEST DUP5 DUP5 DUP2 DUP2 DUP2 DUP2 DUP14 PUSH0 PUSH20 0xFFFFFFFFFFFFFFFFFFFFFFFFFFFFFFFFFFFFFFFF AND DUP2 PUSH20 0xFFFFFFFFFFFFFFFFFFFFFFFFFFFFFFFFFFFFFFFF AND SUB PUSH3 0xC6 JUMPI PUSH0 PUSH1 0x40 MLOAD PUSH32 0x1E4FBDF700000000000000000000000000000000000000000000000000000000 DUP2 MSTORE PUSH1 0x4 ADD PUSH3 0xBD SWAP2 SWAP1 PUSH3 0x94B JUMP JUMPDEST PUSH1 0x40 MLOAD DUP1 SWAP2 SUB SWAP1 REVERT JUMPDEST PUSH3 0xD7 DUP2 PUSH3 0x2E0 PUSH1 0x20 SHL PUSH1 0x20 SHR JUMP JUMPDEST POP DUP2 PUSH20 0xFFFFFFFFFFFFFFFFFFFFFFFFFFFFFFFFFFFFFFFF AND PUSH1 0x80 DUP2 PUSH20 0xFFFFFFFFFFFFFFFFFFFFFFFFFFFFFFFFFFFFFFFF AND DUP2 MSTORE POP POP PUSH0 PUSH20 0xFFFFFFFFFFFFFFFFFFFFFFFFFFFFFFFFFFFFFFFF AND DUP2 PUSH20 0xFFFFFFFFFFFFFFFFFFFFFFFFFFFFFFFFFFFFFFFF AND SUB PUSH3 0x172 JUMPI PUSH1 0x40 MLOAD PUSH32 0xB586360400000000000000000000000000000000000000000000000000000000 DUP2 MSTORE PUSH1 0x4 ADD PUSH1 0x40 MLOAD DUP1 SWAP2 SUB SWAP1 REVERT JUMPDEST PUSH1 0x80 MLOAD PUSH20 0xFFFFFFFFFFFFFFFFFFFFFFFFFFFFFFFFFFFFFFFF AND PUSH4 0xCA5EB5E1 DUP3 PUSH1 0x40 MLOAD DUP3 PUSH4 0xFFFFFFFF AND PUSH1 0xE0 SHL DUP2 MSTORE PUSH1 0x4 ADD PUSH3 0x1AF SWAP2 SWAP1 PUSH3 0x94B JUMP JUMPDEST PUSH0 PUSH1 0x40 MLOAD DUP1 DUP4 SUB DUP2 PUSH0 DUP8 DUP1 EXTCODESIZE ISZERO DUP1 ISZERO PUSH3 0x1C7 JUMPI PUSH0 DUP1 REVERT JUMPDEST POP GAS CALL ISZERO DUP1 ISZERO PUSH3 0x1DA JUMPI RETURNDATASIZE PUSH0 DUP1 RETURNDATACOPY RETURNDATASIZE PUSH0 REVERT JUMPDEST POP POP POP POP POP POP POP POP PUSH3 0x1F2 PUSH3 0x3A1 PUSH1 0x20 SHL PUSH1 0x20 SHR JUMP JUMPDEST PUSH1 0xFF AND DUP4 PUSH1 0xFF AND LT ISZERO PUSH3 0x232 JUMPI PUSH1 0x40 MLOAD PUSH32 0x1E9714B000000000000000000000000000000000000000000000000000000000 DUP2 MSTORE PUSH1 0x4 ADD PUSH1 0x40 MLOAD DUP1 SWAP2 SUB SWAP1 REVERT JUMPDEST PUSH3 0x242 PUSH3 0x3A1 PUSH1 0x20 SHL PUSH1 0x20 SHR JUMP JUMPDEST DUP4 PUSH3 0x24F SWAP2 SWAP1 PUSH3 0x99F JUMP JUMPDEST PUSH1 0xA PUSH3 0x25D SWAP2 SWAP1 PUSH3 0xB2A JUMP JUMPDEST PUSH1 0xA0 DUP2 DUP2 MSTORE POP POP POP POP POP DUP2 PUSH1 0x8 SWAP1 DUP2 PUSH3 0x278 SWAP2 SWAP1 PUSH3 0xDA8 JUMP JUMPDEST POP DUP1 PUSH1 0x9 SWAP1 DUP2 PUSH3 0x28A SWAP2 SWAP1 PUSH3 0xDA8 JUMP JUMPDEST POP POP POP POP POP POP POP PUSH3 0x2CD DUP2 PUSH3 0x2A6 PUSH3 0x2D8 PUSH1 0x20 SHL PUSH1 0x20 SHR JUMP JUMPDEST PUSH1 0xA PUSH3 0x2B4 SWAP2 SWAP1 PUSH3 0xB2A JUMP JUMPDEST DUP6 PUSH3 0x2C1 SWAP2 SWAP1 PUSH3 0xE8C JUMP JUMPDEST PUSH3 0x3A9 PUSH1 0x20 SHL PUSH1 0x20 SHR JUMP JUMPDEST POP POP POP POP POP PUSH3 0xF77 JUMP JUMPDEST PUSH0 PUSH1 0x12 SWAP1 POP SWAP1 JUMP JUMPDEST PUSH0 DUP1 PUSH0 SWAP1 SLOAD SWAP1 PUSH2 0x100 EXP SWAP1 DIV PUSH20 0xFFFFFFFFFFFFFFFFFFFFFFFFFFFFFFFFFFFFFFFF AND SWAP1 POP DUP2 PUSH0 DUP1 PUSH2 0x100 EXP DUP2 SLOAD DUP2 PUSH20 0xFFFFFFFFFFFFFFFFFFFFFFFFFFFFFFFFFFFFFFFF MUL NOT AND SWAP1 DUP4 PUSH20 0xFFFFFFFFFFFFFFFFFFFFFFFFFFFFFFFFFFFFFFFF AND MUL OR SWAP1 SSTORE POP DUP2 PUSH20 0xFFFFFFFFFFFFFFFFFFFFFFFFFFFFFFFFFFFFFFFF AND DUP2 PUSH20 0xFFFFFFFFFFFFFFFFFFFFFFFFFFFFFFFFFFFFFFFF AND PUSH32 0x8BE0079C531659141344CD1FD0A4F28419497F9722A3DAAFE3B4186F6B6457E0 PUSH1 0x40 MLOAD PUSH1 0x40 MLOAD DUP1 SWAP2 SUB SWAP1 LOG3 POP POP JUMP JUMPDEST PUSH0 PUSH1 0x6 SWAP1 POP SWAP1 JUMP JUMPDEST PUSH0 PUSH20 0xFFFFFFFFFFFFFFFFFFFFFFFFFFFFFFFFFFFFFFFF AND DUP3 PUSH20 0xFFFFFFFFFFFFFFFFFFFFFFFFFFFFFFFFFFFFFFFF AND SUB PUSH3 0x41C JUMPI PUSH0 PUSH1 0x40 MLOAD PUSH32 0xEC442F0500000000000000000000000000000000000000000000000000000000 DUP2 MSTORE PUSH1 0x4 ADD PUSH3 0x413 SWAP2 SWAP1 PUSH3 0x94B JUMP JUMPDEST PUSH1 0x40 MLOAD DUP1 SWAP2 SUB SWAP1 REVERT JUMPDEST PUSH3 0x42F PUSH0 DUP4 DUP4 PUSH3 0x433 PUSH1 0x20 SHL PUSH1 0x20 SHR JUMP JUMPDEST POP POP JUMP JUMPDEST PUSH0 PUSH20 0xFFFFFFFFFFFFFFFFFFFFFFFFFFFFFFFFFFFFFFFF AND DUP4 PUSH20 0xFFFFFFFFFFFFFFFFFFFFFFFFFFFFFFFFFFFFFFFF AND SUB PUSH3 0x487 JUMPI DUP1 PUSH1 0x7 PUSH0 DUP3 DUP3 SLOAD PUSH3 0x47A SWAP2 SWAP1 PUSH3 0xED6 JUMP JUMPDEST SWAP3 POP POP DUP2 SWAP1 SSTORE POP PUSH3 0x55A JUMP JUMPDEST PUSH0 PUSH1 0x5 PUSH0 DUP6 PUSH20 0xFFFFFFFFFFFFFFFFFFFFFFFFFFFFFFFFFFFFFFFF AND PUSH20 0xFFFFFFFFFFFFFFFFFFFFFFFFFFFFFFFFFFFFFFFF AND DUP2 MSTORE PUSH1 0x20 ADD SWAP1 DUP2 MSTORE PUSH1 0x20 ADD PUSH0 KECCAK256 SLOAD SWAP1 POP DUP2 DUP2 LT ISZERO PUSH3 0x514 JUMPI DUP4 DUP2 DUP4 PUSH1 0x40 MLOAD PUSH32 0xE450D38C00000000000000000000000000000000000000000000000000000000 DUP2 MSTORE PUSH1 0x4 ADD PUSH3 0x50B SWAP4 SWAP3 SWAP2 SWAP1 PUSH3 0xF21 JUMP JUMPDEST PUSH1 0x40 MLOAD DUP1 SWAP2 SUB SWAP1 REVERT JUMPDEST DUP2 DUP2 SUB PUSH1 0x5 PUSH0 DUP7 PUSH20 0xFFFFFFFFFFFFFFFFFFFFFFFFFFFFFFFFFFFFFFFF AND PUSH20 0xFFFFFFFFFFFFFFFFFFFFFFFFFFFFFFFFFFFFFFFF AND DUP2 MSTORE PUSH1 0x20 ADD SWAP1 DUP2 MSTORE PUSH1 0x20 ADD PUSH0 KECCAK256 DUP2 SWAP1 SSTORE POP POP JUMPDEST PUSH0 PUSH20 0xFFFFFFFFFFFFFFFFFFFFFFFFFFFFFFFFFFFFFFFF AND DUP3 PUSH20 0xFFFFFFFFFFFFFFFFFFFFFFFFFFFFFFFFFFFFFFFF AND SUB PUSH3 0x5A3 JUMPI DUP1 PUSH1 0x7 PUSH0 DUP3 DUP3 SLOAD SUB SWAP3 POP POP DUP2 SWAP1 SSTORE POP PUSH3 0x5EE JUMP JUMPDEST DUP1 PUSH1 0x5 PUSH0 DUP5 PUSH20 0xFFFFFFFFFFFFFFFFFFFFFFFFFFFFFFFFFFFFFFFF AND PUSH20 0xFFFFFFFFFFFFFFFFFFFFFFFFFFFFFFFFFFFFFFFF AND DUP2 MSTORE PUSH1 0x20 ADD SWAP1 DUP2 MSTORE PUSH1 0x20 ADD PUSH0 KECCAK256 PUSH0 DUP3 DUP3 SLOAD ADD SWAP3 POP POP DUP2 SWAP1 SSTORE POP JUMPDEST DUP2 PUSH20 0xFFFFFFFFFFFFFFFFFFFFFFFFFFFFFFFFFFFFFFFF AND DUP4 PUSH20 0xFFFFFFFFFFFFFFFFFFFFFFFFFFFFFFFFFFFFFFFF AND PUSH32 0xDDF252AD1BE2C89B69C2B068FC378DAA952BA7F163C4A11628F55A4DF523B3EF DUP4 PUSH1 0x40 MLOAD PUSH3 0x64D SWAP2 SWAP1 PUSH3 0xF5C JUMP JUMPDEST PUSH1 0x40 MLOAD DUP1 SWAP2 SUB SWAP1 LOG3 POP POP POP JUMP JUMPDEST PUSH0 PUSH1 0x40 MLOAD SWAP1 POP SWAP1 JUMP JUMPDEST PUSH0 DUP1 REVERT JUMPDEST PUSH0 DUP1 REVERT JUMPDEST PUSH0 DUP1 REVERT JUMPDEST PUSH0 DUP1 REVERT JUMPDEST PUSH0 PUSH1 0x1F NOT PUSH1 0x1F DUP4 ADD AND SWAP1 POP SWAP2 SWAP1 POP JUMP JUMPDEST PUSH32 0x4E487B7100000000000000000000000000000000000000000000000000000000 PUSH0 MSTORE PUSH1 0x41 PUSH1 0x4 MSTORE PUSH1 0x24 PUSH0 REVERT JUMPDEST PUSH3 0x6BB DUP3 PUSH3 0x673 JUMP JUMPDEST DUP2 ADD DUP2 DUP2 LT PUSH8 0xFFFFFFFFFFFFFFFF DUP3 GT OR ISZERO PUSH3 0x6DD JUMPI PUSH3 0x6DC PUSH3 0x683 JUMP JUMPDEST JUMPDEST DUP1 PUSH1 0x40 MSTORE POP POP POP JUMP JUMPDEST PUSH0 PUSH3 0x6F1 PUSH3 0x65A JUMP JUMPDEST SWAP1 POP PUSH3 0x6FF DUP3 DUP3 PUSH3 0x6B0 JUMP JUMPDEST SWAP2 SWAP1 POP JUMP JUMPDEST PUSH0 PUSH8 0xFFFFFFFFFFFFFFFF DUP3 GT ISZERO PUSH3 0x721 JUMPI PUSH3 0x720 PUSH3 0x683 JUMP JUMPDEST JUMPDEST PUSH3 0x72C DUP3 PUSH3 0x673 JUMP JUMPDEST SWAP1 POP PUSH1 0x20 DUP2 ADD SWAP1 POP SWAP2 SWAP1 POP JUMP JUMPDEST PUSH0 JUMPDEST DUP4 DUP2 LT ISZERO PUSH3 0x758 JUMPI DUP1 DUP3 ADD MLOAD DUP2 DUP5 ADD MSTORE PUSH1 0x20 DUP2 ADD SWAP1 POP PUSH3 0x73B JUMP JUMPDEST PUSH0 DUP5 DUP5 ADD MSTORE POP POP POP POP JUMP JUMPDEST PUSH0 PUSH3 0x779 PUSH3 0x773 DUP5 PUSH3 0x704 JUMP JUMPDEST PUSH3 0x6E6 JUMP JUMPDEST SWAP1 POP DUP3 DUP2 MSTORE PUSH1 0x20 DUP2 ADD DUP5 DUP5 DUP5 ADD GT ISZERO PUSH3 0x798 JUMPI PUSH3 0x797 PUSH3 0x66F JUMP JUMPDEST JUMPDEST PUSH3 0x7A5 DUP5 DUP3 DUP6 PUSH3 0x739 JUMP JUMPDEST POP SWAP4 SWAP3 POP POP POP JUMP JUMPDEST PUSH0 DUP3 PUSH1 0x1F DUP4 ADD SLT PUSH3 0x7C4 JUMPI PUSH3 0x7C3 PUSH3 0x66B JUMP JUMPDEST JUMPDEST DUP2 MLOAD PUSH3 0x7D6 DUP5 DUP3 PUSH1 0x20 DUP7 ADD PUSH3 0x763 JUMP JUMPDEST SWAP2 POP POP SWAP3 SWAP2 POP POP JUMP JUMPDEST PUSH0 DUP2 SWAP1 POP SWAP2 SWAP1 POP JUMP JUMPDEST PUSH3 0x7F3 DUP2 PUSH3 0x7DF JUMP JUMPDEST DUP2 EQ PUSH3 0x7FE JUMPI PUSH0 DUP1 REVERT JUMPDEST POP JUMP JUMPDEST PUSH0 DUP2 MLOAD SWAP1 POP PUSH3 0x811 DUP2 PUSH3 0x7E8 JUMP JUMPDEST SWAP3 SWAP2 POP POP JUMP JUMPDEST PUSH0 PUSH20 0xFFFFFFFFFFFFFFFFFFFFFFFFFFFFFFFFFFFFFFFF DUP3 AND SWAP1 POP SWAP2 SWAP1 POP JUMP JUMPDEST PUSH0 PUSH3 0x842 DUP3 PUSH3 0x817 JUMP JUMPDEST SWAP1 POP SWAP2 SWAP1 POP JUMP JUMPDEST PUSH3 0x854 DUP2 PUSH3 0x836 JUMP JUMPDEST DUP2 EQ PUSH3 0x85F JUMPI PUSH0 DUP1 REVERT JUMPDEST POP JUMP JUMPDEST PUSH0 DUP2 MLOAD SWAP1 POP PUSH3 0x872 DUP2 PUSH3 0x849 JUMP JUMPDEST SWAP3 SWAP2 POP POP JUMP JUMPDEST PUSH0 DUP1 PUSH0 DUP1 PUSH0 PUSH1 0xA0 DUP7 DUP9 SUB SLT ISZERO PUSH3 0x894 JUMPI PUSH3 0x893 PUSH3 0x663 JUMP JUMPDEST JUMPDEST PUSH0 DUP7 ADD MLOAD PUSH8 0xFFFFFFFFFFFFFFFF DUP2 GT ISZERO PUSH3 0x8B4 JUMPI PUSH3 0x8B3 PUSH3 0x667 JUMP JUMPDEST JUMPDEST PUSH3 0x8C2 DUP9 DUP3 DUP10 ADD PUSH3 0x7AD JUMP JUMPDEST SWAP6 POP POP PUSH1 0x20 DUP7 ADD MLOAD PUSH8 0xFFFFFFFFFFFFFFFF DUP2 GT ISZERO PUSH3 0x8E6 JUMPI PUSH3 0x8E5 PUSH3 0x667 JUMP JUMPDEST JUMPDEST PUSH3 0x8F4 DUP9 DUP3 DUP10 ADD PUSH3 0x7AD JUMP JUMPDEST SWAP5 POP POP PUSH1 0x40 PUSH3 0x907 DUP9 DUP3 DUP10 ADD PUSH3 0x801 JUMP JUMPDEST SWAP4 POP POP PUSH1 0x60 PUSH3 0x91A DUP9 DUP3 DUP10 ADD PUSH3 0x862 JUMP JUMPDEST SWAP3 POP POP PUSH1 0x80 PUSH3 0x92D DUP9 DUP3 DUP10 ADD PUSH3 0x862 JUMP JUMPDEST SWAP2 POP POP SWAP3 SWAP6 POP SWAP3 SWAP6 SWAP1 SWAP4 POP JUMP JUMPDEST PUSH3 0x945 DUP2 PUSH3 0x836 JUMP JUMPDEST DUP3 MSTORE POP POP JUMP JUMPDEST PUSH0 PUSH1 0x20 DUP3 ADD SWAP1 POP PUSH3 0x960 PUSH0 DUP4 ADD DUP5 PUSH3 0x93A JUMP JUMPDEST SWAP3 SWAP2 POP POP JUMP JUMPDEST PUSH0 PUSH1 0xFF DUP3 AND SWAP1 POP SWAP2 SWAP1 POP JUMP JUMPDEST PUSH32 0x4E487B7100000000000000000000000000000000000000000000000000000000 PUSH0 MSTORE PUSH1 0x11 PUSH1 0x4 MSTORE PUSH1 0x24 PUSH0 REVERT JUMPDEST PUSH0 PUSH3 0x9AB DUP3 PUSH3 0x966 JUMP JUMPDEST SWAP2 POP PUSH3 0x9B8 DUP4 PUSH3 0x966 JUMP JUMPDEST SWAP3 POP DUP3 DUP3 SUB SWAP1 POP PUSH1 0xFF DUP2 GT ISZERO PUSH3 0x9D4 JUMPI PUSH3 0x9D3 PUSH3 0x972 JUMP JUMPDEST JUMPDEST SWAP3 SWAP2 POP POP JUMP JUMPDEST PUSH0 DUP2 PUSH1 0x1 SHR SWAP1 POP SWAP2 SWAP1 POP JUMP JUMPDEST PUSH0 DUP1 DUP3 SWAP2 POP DUP4 SWAP1 POP JUMPDEST PUSH1 0x1 DUP6 GT ISZERO PUSH3 0xA37 JUMPI DUP1 DUP7 DIV DUP2 GT ISZERO PUSH3 0xA0F JUMPI PUSH3 0xA0E PUSH3 0x972 JUMP JUMPDEST JUMPDEST PUSH1 0x1 DUP6 AND ISZERO PUSH3 0xA1F JUMPI DUP1 DUP3 MUL SWAP2 POP JUMPDEST DUP1 DUP2 MUL SWAP1 POP PUSH3 0xA2F DUP6 PUSH3 0x9DA JUMP JUMPDEST SWAP5 POP PUSH3 0x9EF JUMP JUMPDEST SWAP5 POP SWAP5 SWAP3 POP POP POP JUMP JUMPDEST PUSH0 DUP3 PUSH3 0xA51 JUMPI PUSH1 0x1 SWAP1 POP PUSH3 0xB23 JUMP JUMPDEST DUP2 PUSH3 0xA60 JUMPI PUSH0 SWAP1 POP PUSH3 0xB23 JUMP JUMPDEST DUP2 PUSH1 0x1 DUP2 EQ PUSH3 0xA79 JUMPI PUSH1 0x2 DUP2 EQ PUSH3 0xA84 JUMPI PUSH3 0xABA JUMP JUMPDEST PUSH1 0x1 SWAP2 POP POP PUSH3 0xB23 JUMP JUMPDEST PUSH1 0xFF DUP5 GT ISZERO PUSH3 0xA99 JUMPI PUSH3 0xA98 PUSH3 0x972 JUMP JUMPDEST JUMPDEST DUP4 PUSH1 0x2 EXP SWAP2 POP DUP5 DUP3 GT ISZERO PUSH3 0xAB3 JUMPI PUSH3 0xAB2 PUSH3 0x972 JUMP JUMPDEST JUMPDEST POP PUSH3 0xB23 JUMP JUMPDEST POP PUSH1 0x20 DUP4 LT PUSH2 0x133 DUP4 LT AND PUSH1 0x4E DUP5 LT PUSH1 0xB DUP5 LT AND OR ISZERO PUSH3 0xAF4 JUMPI DUP3 DUP3 EXP SWAP1 POP DUP4 DUP2 GT ISZERO PUSH3 0xAEE JUMPI PUSH3 0xAED PUSH3 0x972 JUMP JUMPDEST JUMPDEST PUSH3 0xB23 JUMP JUMPDEST PUSH3 0xB03 DUP5 DUP5 DUP5 PUSH1 0x1 PUSH3 0x9E6 JUMP JUMPDEST SWAP3 POP SWAP1 POP DUP2 DUP5 DIV DUP2 GT ISZERO PUSH3 0xB1D JUMPI PUSH3 0xB1C PUSH3 0x972 JUMP JUMPDEST JUMPDEST DUP2 DUP2 MUL SWAP1 POP JUMPDEST SWAP4 SWAP3 POP POP POP JUMP JUMPDEST PUSH0 PUSH3 0xB36 DUP3 PUSH3 0x7DF JUMP JUMPDEST SWAP2 POP PUSH3 0xB43 DUP4 PUSH3 0x966 JUMP JUMPDEST SWAP3 POP PUSH3 0xB72 PUSH32 0xFFFFFFFFFFFFFFFFFFFFFFFFFFFFFFFFFFFFFFFFFFFFFFFFFFFFFFFFFFFFFFFF DUP5 DUP5 PUSH3 0xA40 JUMP JUMPDEST SWAP1 POP SWAP3 SWAP2 POP POP JUMP JUMPDEST PUSH0 DUP2 MLOAD SWAP1 POP SWAP2 SWAP1 POP JUMP JUMPDEST PUSH32 0x4E487B7100000000000000000000000000000000000000000000000000000000 PUSH0 MSTORE PUSH1 0x22 PUSH1 0x4 MSTORE PUSH1 0x24 PUSH0 REVERT JUMPDEST PUSH0 PUSH1 0x2 DUP3 DIV SWAP1 POP PUSH1 0x1 DUP3 AND DUP1 PUSH3 0xBC9 JUMPI PUSH1 0x7F DUP3 AND SWAP2 POP JUMPDEST PUSH1 0x20 DUP3 LT DUP2 SUB PUSH3 0xBDF JUMPI PUSH3 0xBDE PUSH3 0xB84 JUMP JUMPDEST JUMPDEST POP SWAP2 SWAP1 POP JUMP JUMPDEST PUSH0 DUP2 SWAP1 POP DUP2 PUSH0 MSTORE PUSH1 0x20 PUSH0 KECCAK256 SWAP1 POP SWAP2 SWAP1 POP JUMP JUMPDEST PUSH0 PUSH1 0x20 PUSH1 0x1F DUP4 ADD DIV SWAP1 POP SWAP2 SWAP1 POP JUMP JUMPDEST PUSH0 DUP3 DUP3 SHL SWAP1 POP SWAP3 SWAP2 POP POP JUMP JUMPDEST PUSH0 PUSH1 0x8 DUP4 MUL PUSH3 0xC43 PUSH32 0xFFFFFFFFFFFFFFFFFFFFFFFFFFFFFFFFFFFFFFFFFFFFFFFFFFFFFFFFFFFFFFFF DUP3 PUSH3 0xC06 JUMP JUMPDEST PUSH3 0xC4F DUP7 DUP4 PUSH3 0xC06 JUMP JUMPDEST SWAP6 POP DUP1 NOT DUP5 AND SWAP4 POP DUP1 DUP7 AND DUP5 OR SWAP3 POP POP POP SWAP4 SWAP3 POP POP POP JUMP JUMPDEST PUSH0 DUP2 SWAP1 POP SWAP2 SWAP1 POP JUMP JUMPDEST PUSH0 PUSH3 0xC90 PUSH3 0xC8A PUSH3 0xC84 DUP5 PUSH3 0x7DF JUMP JUMPDEST PUSH3 0xC67 JUMP JUMPDEST PUSH3 0x7DF JUMP JUMPDEST SWAP1 POP SWAP2 SWAP1 POP JUMP JUMPDEST PUSH0 DUP2 SWAP1 POP SWAP2 SWAP1 POP JUMP JUMPDEST PUSH3 0xCAB DUP4 PUSH3 0xC70 JUMP JUMPDEST PUSH3 0xCC3 PUSH3 0xCBA DUP3 PUSH3 0xC97 JUMP JUMPDEST DUP5 DUP5 SLOAD PUSH3 0xC12 JUMP JUMPDEST DUP3 SSTORE POP POP POP POP JUMP JUMPDEST PUSH0 SWAP1 JUMP JUMPDEST PUSH3 0xCD9 PUSH3 0xCCB JUMP JUMPDEST PUSH3 0xCE6 DUP2 DUP5 DUP5 PUSH3 0xCA0 JUMP JUMPDEST POP POP POP JUMP JUMPDEST JUMPDEST DUP2 DUP2 LT ISZERO PUSH3 0xD0D JUMPI PUSH3 0xD01 PUSH0 DUP3 PUSH3 0xCCF JUMP JUMPDEST PUSH1 0x1 DUP2 ADD SWAP1 POP PUSH3 0xCEC JUMP JUMPDEST POP POP JUMP JUMPDEST PUSH1 0x1F DUP3 GT ISZERO PUSH3 0xD5C JUMPI PUSH3 0xD26 DUP2 PUSH3 0xBE5 JUMP JUMPDEST PUSH3 0xD31 DUP5 PUSH3 0xBF7 JUMP JUMPDEST DUP2 ADD PUSH1 0x20 DUP6 LT ISZERO PUSH3 0xD41 JUMPI DUP2 SWAP1 POP JUMPDEST PUSH3 0xD59 PUSH3 0xD50 DUP6 PUSH3 0xBF7 JUMP JUMPDEST DUP4 ADD DUP3 PUSH3 0xCEB JUMP JUMPDEST POP POP JUMPDEST POP POP POP JUMP JUMPDEST PUSH0 DUP3 DUP3 SHR SWAP1 POP SWAP3 SWAP2 POP POP JUMP JUMPDEST PUSH0 PUSH3 0xD7E PUSH0 NOT DUP5 PUSH1 0x8 MUL PUSH3 0xD61 JUMP JUMPDEST NOT DUP1 DUP4 AND SWAP2 POP POP SWAP3 SWAP2 POP POP JUMP JUMPDEST PUSH0 PUSH3 0xD98 DUP4 DUP4 PUSH3 0xD6D JUMP JUMPDEST SWAP2 POP DUP3 PUSH1 0x2 MUL DUP3 OR SWAP1 POP SWAP3 SWAP2 POP POP JUMP JUMPDEST PUSH3 0xDB3 DUP3 PUSH3 0xB7A JUMP JUMPDEST PUSH8 0xFFFFFFFFFFFFFFFF DUP2 GT ISZERO PUSH3 0xDCF JUMPI PUSH3 0xDCE PUSH3 0x683 JUMP JUMPDEST JUMPDEST PUSH3 0xDDB DUP3 SLOAD PUSH3 0xBB1 JUMP JUMPDEST PUSH3 0xDE8 DUP3 DUP3 DUP6 PUSH3 0xD11 JUMP JUMPDEST PUSH0 PUSH1 0x20 SWAP1 POP PUSH1 0x1F DUP4 GT PUSH1 0x1 DUP2 EQ PUSH3 0xE1E JUMPI PUSH0 DUP5 ISZERO PUSH3 0xE09 JUMPI DUP3 DUP8 ADD MLOAD SWAP1 POP JUMPDEST PUSH3 0xE15 DUP6 DUP3 PUSH3 0xD8B JUMP JUMPDEST DUP7 SSTORE POP PUSH3 0xE84 JUMP JUMPDEST PUSH1 0x1F NOT DUP5 AND PUSH3 0xE2E DUP7 PUSH3 0xBE5 JUMP JUMPDEST PUSH0 JUMPDEST DUP3 DUP2 LT ISZERO PUSH3 0xE57 JUMPI DUP5 DUP10 ADD MLOAD DUP3 SSTORE PUSH1 0x1 DUP3 ADD SWAP2 POP PUSH1 0x20 DUP6 ADD SWAP5 POP PUSH1 0x20 DUP2 ADD SWAP1 POP PUSH3 0xE30 JUMP JUMPDEST DUP7 DUP4 LT ISZERO PUSH3 0xE77 JUMPI DUP5 DUP10 ADD MLOAD PUSH3 0xE73 PUSH1 0x1F DUP10 AND DUP3 PUSH3 0xD6D JUMP JUMPDEST DUP4 SSTORE POP JUMPDEST PUSH1 0x1 PUSH1 0x2 DUP9 MUL ADD DUP9 SSTORE POP POP POP JUMPDEST POP POP POP POP POP POP JUMP JUMPDEST PUSH0 PUSH3 0xE98 DUP3 PUSH3 0x7DF JUMP JUMPDEST SWAP2 POP PUSH3 0xEA5 DUP4 PUSH3 0x7DF JUMP JUMPDEST SWAP3 POP DUP3 DUP3 MUL PUSH3 0xEB5 DUP2 PUSH3 0x7DF JUMP JUMPDEST SWAP2 POP DUP3 DUP3 DIV DUP5 EQ DUP4 ISZERO OR PUSH3 0xECF JUMPI PUSH3 0xECE PUSH3 0x972 JUMP JUMPDEST JUMPDEST POP SWAP3 SWAP2 POP POP JUMP JUMPDEST PUSH0 PUSH3 0xEE2 DUP3 PUSH3 0x7DF JUMP JUMPDEST SWAP2 POP PUSH3 0xEEF DUP4 PUSH3 0x7DF JUMP JUMPDEST SWAP3 POP DUP3 DUP3 ADD SWAP1 POP DUP1 DUP3 GT ISZERO PUSH3 0xF0A JUMPI PUSH3 0xF09 PUSH3 0x972 JUMP JUMPDEST JUMPDEST SWAP3 SWAP2 POP POP JUMP JUMPDEST PUSH3 0xF1B DUP2 PUSH3 0x7DF JUMP JUMPDEST DUP3 MSTORE POP POP JUMP JUMPDEST PUSH0 PUSH1 0x60 DUP3 ADD SWAP1 POP PUSH3 0xF36 PUSH0 DUP4 ADD DUP7 PUSH3 0x93A JUMP JUMPDEST PUSH3 0xF45 PUSH1 0x20 DUP4 ADD DUP6 PUSH3 0xF10 JUMP JUMPDEST PUSH3 0xF54 PUSH1 0x40 DUP4 ADD DUP5 PUSH3 0xF10 JUMP JUMPDEST SWAP5 SWAP4 POP POP POP POP JUMP JUMPDEST PUSH0 PUSH1 0x20 DUP3 ADD SWAP1 POP PUSH3 0xF71 PUSH0 DUP4 ADD DUP5 PUSH3 0xF10 JUMP JUMPDEST SWAP3 SWAP2 POP POP JUMP JUMPDEST PUSH1 0x80 MLOAD PUSH1 0xA0 MLOAD PUSH2 0x50F6 PUSH3 0xFE6 PUSH0 CODECOPY PUSH0 DUP2 DUP2 PUSH2 0x116D ADD MSTORE DUP2 DUP2 PUSH2 0x254B ADD MSTORE DUP2 DUP2 PUSH2 0x256C ADD MSTORE DUP2 DUP2 PUSH2 0x2610 ADD MSTORE PUSH2 0x295F ADD MSTORE PUSH0 DUP2 DUP2 PUSH2 0xC8D ADD MSTORE DUP2 DUP2 PUSH2 0xF6E ADD MSTORE DUP2 DUP2 PUSH2 0x160F ADD MSTORE DUP2 DUP2 PUSH2 0x1A59 ADD MSTORE DUP2 DUP2 PUSH2 0x1F56 ADD MSTORE DUP2 DUP2 PUSH2 0x2A59 ADD MSTORE DUP2 DUP2 PUSH2 0x2CAB ADD MSTORE PUSH2 0x2DA3 ADD MSTORE PUSH2 0x50F6 PUSH0 RETURN INVALID PUSH1 0x80 PUSH1 0x40 MSTORE PUSH1 0x4 CALLDATASIZE LT PUSH2 0x250 JUMPI PUSH0 CALLDATALOAD PUSH1 0xE0 SHR DUP1 PUSH4 0x7D25A05E GT PUSH2 0x138 JUMPI DUP1 PUSH4 0xBB0B6A53 GT PUSH2 0xB5 JUMPI DUP1 PUSH4 0xD045A0DC GT PUSH2 0x79 JUMPI DUP1 PUSH4 0xD045A0DC EQ PUSH2 0x8E7 JUMPI DUP1 PUSH4 0xD4243885 EQ PUSH2 0x903 JUMPI DUP1 PUSH4 0xDD62ED3E EQ PUSH2 0x92B JUMPI DUP1 PUSH4 0xF2FDE38B EQ PUSH2 0x967 JUMPI DUP1 PUSH4 0xFC0C546A EQ PUSH2 0x98F JUMPI DUP1 PUSH4 0xFF7BD03D EQ PUSH2 0x9B9 JUMPI PUSH2 0x250 JUMP JUMPDEST DUP1 PUSH4 0xBB0B6A53 EQ PUSH2 0x7FA JUMPI DUP1 PUSH4 0xBC70B354 EQ PUSH2 0x836 JUMPI DUP1 PUSH4 0xBD815DB0 EQ PUSH2 0x872 JUMPI DUP1 PUSH4 0xC7C7F5B3 EQ PUSH2 0x88E JUMPI DUP1 PUSH4 0xCA5EB5E1 EQ PUSH2 0x8BF JUMPI PUSH2 0x250 JUMP JUMPDEST DUP1 PUSH4 0x963EFCAA GT PUSH2 0xFC JUMPI DUP1 PUSH4 0x963EFCAA EQ PUSH2 0x718 JUMPI DUP1 PUSH4 0x9F68B964 EQ PUSH2 0x742 JUMPI DUP1 PUSH4 0xA9059CBB EQ PUSH2 0x76C JUMPI DUP1 PUSH4 0xB731EA0A EQ PUSH2 0x7A8 JUMPI DUP1 PUSH4 0xB98BD070 EQ PUSH2 0x7D2 JUMPI PUSH2 0x250 JUMP JUMPDEST DUP1 PUSH4 0x7D25A05E EQ PUSH2 0x622 JUMPI DUP1 PUSH4 0x82413EAC EQ PUSH2 0x65E JUMPI DUP1 PUSH4 0x857749B0 EQ PUSH2 0x69A JUMPI DUP1 PUSH4 0x8DA5CB5B EQ PUSH2 0x6C4 JUMPI DUP1 PUSH4 0x95D89B41 EQ PUSH2 0x6EE JUMPI PUSH2 0x250 JUMP JUMPDEST DUP1 PUSH4 0x23B872DD GT PUSH2 0x1D1 JUMPI DUP1 PUSH4 0x5535D461 GT PUSH2 0x195 JUMPI DUP1 PUSH4 0x5535D461 EQ PUSH2 0x506 JUMPI DUP1 PUSH4 0x5A0DFE4D EQ PUSH2 0x542 JUMPI DUP1 PUSH4 0x5E280F11 EQ PUSH2 0x57E JUMPI DUP1 PUSH4 0x6FC1B31E EQ PUSH2 0x5A8 JUMPI DUP1 PUSH4 0x70A08231 EQ PUSH2 0x5D0 JUMPI DUP1 PUSH4 0x715018A6 EQ PUSH2 0x60C JUMPI PUSH2 0x250 JUMP JUMPDEST DUP1 PUSH4 0x23B872DD EQ PUSH2 0x412 JUMPI DUP1 PUSH4 0x313CE567 EQ PUSH2 0x44E JUMPI DUP1 PUSH4 0x3400288B EQ PUSH2 0x478 JUMPI DUP1 PUSH4 0x3B6F743B EQ PUSH2 0x4A0 JUMPI DUP1 PUSH4 0x52AE2879 EQ PUSH2 0x4DC JUMPI PUSH2 0x250 JUMP JUMPDEST DUP1 PUSH4 0x134D4F25 GT PUSH2 0x218 JUMPI DUP1 PUSH4 0x134D4F25 EQ PUSH2 0x33E JUMPI DUP1 PUSH4 0x156A0D0F EQ PUSH2 0x368 JUMPI DUP1 PUSH4 0x17442B70 EQ PUSH2 0x393 JUMPI DUP1 PUSH4 0x18160DDD EQ PUSH2 0x3BE JUMPI DUP1 PUSH4 0x1F5E1334 EQ PUSH2 0x3E8 JUMPI PUSH2 0x250 JUMP JUMPDEST DUP1 PUSH4 0x6FDDE03 EQ PUSH2 0x254 JUMPI DUP1 PUSH4 0x95EA7B3 EQ PUSH2 0x27E JUMPI DUP1 PUSH4 0xD35B415 EQ PUSH2 0x2BA JUMPI DUP1 PUSH4 0x111ECDAD EQ PUSH2 0x2F8 JUMPI DUP1 PUSH4 0x13137D65 EQ PUSH2 0x322 JUMPI JUMPDEST PUSH0 DUP1 REVERT JUMPDEST CALLVALUE DUP1 ISZERO PUSH2 0x25F JUMPI PUSH0 DUP1 REVERT JUMPDEST POP PUSH2 0x268 PUSH2 0x9F5 JUMP JUMPDEST PUSH1 0x40 MLOAD PUSH2 0x275 SWAP2 SWAP1 PUSH2 0x3028 JUMP JUMPDEST PUSH1 0x40 MLOAD DUP1 SWAP2 SUB SWAP1 RETURN JUMPDEST CALLVALUE DUP1 ISZERO PUSH2 0x289 JUMPI PUSH0 DUP1 REVERT JUMPDEST POP PUSH2 0x2A4 PUSH1 0x4 DUP1 CALLDATASIZE SUB DUP2 ADD SWAP1 PUSH2 0x29F SWAP2 SWAP1 PUSH2 0x30E6 JUMP JUMPDEST PUSH2 0xA85 JUMP JUMPDEST PUSH1 0x40 MLOAD PUSH2 0x2B1 SWAP2 SWAP1 PUSH2 0x313E JUMP JUMPDEST PUSH1 0x40 MLOAD DUP1 SWAP2 SUB SWAP1 RETURN JUMPDEST CALLVALUE DUP1 ISZERO PUSH2 0x2C5 JUMPI PUSH0 DUP1 REVERT JUMPDEST POP PUSH2 0x2E0 PUSH1 0x4 DUP1 CALLDATASIZE SUB DUP2 ADD SWAP1 PUSH2 0x2DB SWAP2 SWAP1 PUSH2 0x3179 JUMP JUMPDEST PUSH2 0xAA7 JUMP JUMPDEST PUSH1 0x40 MLOAD PUSH2 0x2EF SWAP4 SWAP3 SWAP2 SWAP1 PUSH2 0x337E JUMP JUMPDEST PUSH1 0x40 MLOAD DUP1 SWAP2 SUB SWAP1 RETURN JUMPDEST CALLVALUE DUP1 ISZERO PUSH2 0x303 JUMPI PUSH0 DUP1 REVERT JUMPDEST POP PUSH2 0x30C PUSH2 0xC4F JUMP JUMPDEST PUSH1 0x40 MLOAD PUSH2 0x319 SWAP2 SWAP1 PUSH2 0x33C9 JUMP JUMPDEST PUSH1 0x40 MLOAD DUP1 SWAP2 SUB SWAP1 RETURN JUMPDEST PUSH2 0x33C PUSH1 0x4 DUP1 CALLDATASIZE SUB DUP2 ADD SWAP1 PUSH2 0x337 SWAP2 SWAP1 PUSH2 0x3494 JUMP JUMPDEST PUSH2 0xC74 JUMP JUMPDEST STOP JUMPDEST CALLVALUE DUP1 ISZERO PUSH2 0x349 JUMPI PUSH0 DUP1 REVERT JUMPDEST POP PUSH2 0x352 PUSH2 0xD94 JUMP JUMPDEST PUSH1 0x40 MLOAD PUSH2 0x35F SWAP2 SWAP1 PUSH2 0x3567 JUMP JUMPDEST PUSH1 0x40 MLOAD DUP1 SWAP2 SUB SWAP1 RETURN JUMPDEST CALLVALUE DUP1 ISZERO PUSH2 0x373 JUMPI PUSH0 DUP1 REVERT JUMPDEST POP PUSH2 0x37C PUSH2 0xD99 JUMP JUMPDEST PUSH1 0x40 MLOAD PUSH2 0x38A SWAP3 SWAP2 SWAP1 PUSH2 0x35DC JUMP JUMPDEST PUSH1 0x40 MLOAD DUP1 SWAP2 SUB SWAP1 RETURN JUMPDEST CALLVALUE DUP1 ISZERO PUSH2 0x39E JUMPI PUSH0 DUP1 REVERT JUMPDEST POP PUSH2 0x3A7 PUSH2 0xDC6 JUMP JUMPDEST PUSH1 0x40 MLOAD PUSH2 0x3B5 SWAP3 SWAP2 SWAP1 PUSH2 0x3603 JUMP JUMPDEST PUSH1 0x40 MLOAD DUP1 SWAP2 SUB SWAP1 RETURN JUMPDEST CALLVALUE DUP1 ISZERO PUSH2 0x3C9 JUMPI PUSH0 DUP1 REVERT JUMPDEST POP PUSH2 0x3D2 PUSH2 0xDD4 JUMP JUMPDEST PUSH1 0x40 MLOAD PUSH2 0x3DF SWAP2 SWAP1 PUSH2 0x3639 JUMP JUMPDEST PUSH1 0x40 MLOAD DUP1 SWAP2 SUB SWAP1 RETURN JUMPDEST CALLVALUE DUP1 ISZERO PUSH2 0x3F3 JUMPI PUSH0 DUP1 REVERT JUMPDEST POP PUSH2 0x3FC PUSH2 0xDDD JUMP JUMPDEST PUSH1 0x40 MLOAD PUSH2 0x409 SWAP2 SWAP1 PUSH2 0x3567 JUMP JUMPDEST PUSH1 0x40 MLOAD DUP1 SWAP2 SUB SWAP1 RETURN JUMPDEST CALLVALUE DUP1 ISZERO PUSH2 0x41D JUMPI PUSH0 DUP1 REVERT JUMPDEST POP PUSH2 0x438 PUSH1 0x4 DUP1 CALLDATASIZE SUB DUP2 ADD SWAP1 PUSH2 0x433 SWAP2 SWAP1 PUSH2 0x3652 JUMP JUMPDEST PUSH2 0xDE2 JUMP JUMPDEST PUSH1 0x40 MLOAD PUSH2 0x445 SWAP2 SWAP1 PUSH2 0x313E JUMP JUMPDEST PUSH1 0x40 MLOAD DUP1 SWAP2 SUB SWAP1 RETURN JUMPDEST CALLVALUE DUP1 ISZERO PUSH2 0x459 JUMPI PUSH0 DUP1 REVERT JUMPDEST POP PUSH2 0x462 PUSH2 0xE10 JUMP JUMPDEST PUSH1 0x40 MLOAD PUSH2 0x46F SWAP2 SWAP1 PUSH2 0x36BD JUMP JUMPDEST PUSH1 0x40 MLOAD DUP1 SWAP2 SUB SWAP1 RETURN JUMPDEST CALLVALUE DUP1 ISZERO PUSH2 0x483 JUMPI PUSH0 DUP1 REVERT JUMPDEST POP PUSH2 0x49E PUSH1 0x4 DUP1 CALLDATASIZE SUB DUP2 ADD SWAP1 PUSH2 0x499 SWAP2 SWAP1 PUSH2 0x370F JUMP JUMPDEST PUSH2 0xE18 JUMP JUMPDEST STOP JUMPDEST CALLVALUE DUP1 ISZERO PUSH2 0x4AB JUMPI PUSH0 DUP1 REVERT JUMPDEST POP PUSH2 0x4C6 PUSH1 0x4 DUP1 CALLDATASIZE SUB DUP2 ADD SWAP1 PUSH2 0x4C1 SWAP2 SWAP1 PUSH2 0x3777 JUMP JUMPDEST PUSH2 0xE2E JUMP JUMPDEST PUSH1 0x40 MLOAD PUSH2 0x4D3 SWAP2 SWAP1 PUSH2 0x37FE JUMP JUMPDEST PUSH1 0x40 MLOAD DUP1 SWAP2 SUB SWAP1 RETURN JUMPDEST CALLVALUE DUP1 ISZERO PUSH2 0x4E7 JUMPI PUSH0 DUP1 REVERT JUMPDEST POP PUSH2 0x4F0 PUSH2 0xE96 JUMP JUMPDEST PUSH1 0x40 MLOAD PUSH2 0x4FD SWAP2 SWAP1 PUSH2 0x33C9 JUMP JUMPDEST PUSH1 0x40 MLOAD DUP1 SWAP2 SUB SWAP1 RETURN JUMPDEST CALLVALUE DUP1 ISZERO PUSH2 0x511 JUMPI PUSH0 DUP1 REVERT JUMPDEST POP PUSH2 0x52C PUSH1 0x4 DUP1 CALLDATASIZE SUB DUP2 ADD SWAP1 PUSH2 0x527 SWAP2 SWAP1 PUSH2 0x3841 JUMP JUMPDEST PUSH2 0xE9D JUMP JUMPDEST PUSH1 0x40 MLOAD PUSH2 0x539 SWAP2 SWAP1 PUSH2 0x38D1 JUMP JUMPDEST PUSH1 0x40 MLOAD DUP1 SWAP2 SUB SWAP1 RETURN JUMPDEST CALLVALUE DUP1 ISZERO PUSH2 0x54D JUMPI PUSH0 DUP1 REVERT JUMPDEST POP PUSH2 0x568 PUSH1 0x4 DUP1 CALLDATASIZE SUB DUP2 ADD SWAP1 PUSH2 0x563 SWAP2 SWAP1 PUSH2 0x370F JUMP JUMPDEST PUSH2 0xF43 JUMP JUMPDEST PUSH1 0x40 MLOAD PUSH2 0x575 SWAP2 SWAP1 PUSH2 0x313E JUMP JUMPDEST PUSH1 0x40 MLOAD DUP1 SWAP2 SUB SWAP1 RETURN JUMPDEST CALLVALUE DUP1 ISZERO PUSH2 0x589 JUMPI PUSH0 DUP1 REVERT JUMPDEST POP PUSH2 0x592 PUSH2 0xF6C JUMP JUMPDEST PUSH1 0x40 MLOAD PUSH2 0x59F SWAP2 SWAP1 PUSH2 0x394C JUMP JUMPDEST PUSH1 0x40 MLOAD DUP1 SWAP2 SUB SWAP1 RETURN JUMPDEST CALLVALUE DUP1 ISZERO PUSH2 0x5B3 JUMPI PUSH0 DUP1 REVERT JUMPDEST POP PUSH2 0x5CE PUSH1 0x4 DUP1 CALLDATASIZE SUB DUP2 ADD SWAP1 PUSH2 0x5C9 SWAP2 SWAP1 PUSH2 0x3965 JUMP JUMPDEST PUSH2 0xF90 JUMP JUMPDEST STOP JUMPDEST CALLVALUE DUP1 ISZERO PUSH2 0x5DB JUMPI PUSH0 DUP1 REVERT JUMPDEST POP PUSH2 0x5F6 PUSH1 0x4 DUP1 CALLDATASIZE SUB DUP2 ADD SWAP1 PUSH2 0x5F1 SWAP2 SWAP1 PUSH2 0x3965 JUMP JUMPDEST PUSH2 0x1012 JUMP JUMPDEST PUSH1 0x40 MLOAD PUSH2 0x603 SWAP2 SWAP1 PUSH2 0x3639 JUMP JUMPDEST PUSH1 0x40 MLOAD DUP1 SWAP2 SUB SWAP1 RETURN JUMPDEST CALLVALUE DUP1 ISZERO PUSH2 0x617 JUMPI PUSH0 DUP1 REVERT JUMPDEST POP PUSH2 0x620 PUSH2 0x1058 JUMP JUMPDEST STOP JUMPDEST CALLVALUE DUP1 ISZERO PUSH2 0x62D JUMPI PUSH0 DUP1 REVERT JUMPDEST POP PUSH2 0x648 PUSH1 0x4 DUP1 CALLDATASIZE SUB DUP2 ADD SWAP1 PUSH2 0x643 SWAP2 SWAP1 PUSH2 0x370F JUMP JUMPDEST PUSH2 0x106B JUMP JUMPDEST PUSH1 0x40 MLOAD PUSH2 0x655 SWAP2 SWAP1 PUSH2 0x3990 JUMP JUMPDEST PUSH1 0x40 MLOAD DUP1 SWAP2 SUB SWAP1 RETURN JUMPDEST CALLVALUE DUP1 ISZERO PUSH2 0x669 JUMPI PUSH0 DUP1 REVERT JUMPDEST POP PUSH2 0x684 PUSH1 0x4 DUP1 CALLDATASIZE SUB DUP2 ADD SWAP1 PUSH2 0x67F SWAP2 SWAP1 PUSH2 0x39A9 JUMP JUMPDEST PUSH2 0x1072 JUMP JUMPDEST PUSH1 0x40 MLOAD PUSH2 0x691 SWAP2 SWAP1 PUSH2 0x313E JUMP JUMPDEST PUSH1 0x40 MLOAD DUP1 SWAP2 SUB SWAP1 RETURN JUMPDEST CALLVALUE DUP1 ISZERO PUSH2 0x6A5 JUMPI PUSH0 DUP1 REVERT JUMPDEST POP PUSH2 0x6AE PUSH2 0x10AC JUMP JUMPDEST PUSH1 0x40 MLOAD PUSH2 0x6BB SWAP2 SWAP1 PUSH2 0x36BD JUMP JUMPDEST PUSH1 0x40 MLOAD DUP1 SWAP2 SUB SWAP1 RETURN JUMPDEST CALLVALUE DUP1 ISZERO PUSH2 0x6CF JUMPI PUSH0 DUP1 REVERT JUMPDEST POP PUSH2 0x6D8 PUSH2 0x10B4 JUMP JUMPDEST PUSH1 0x40 MLOAD PUSH2 0x6E5 SWAP2 SWAP1 PUSH2 0x33C9 JUMP JUMPDEST PUSH1 0x40 MLOAD DUP1 SWAP2 SUB SWAP1 RETURN JUMPDEST CALLVALUE DUP1 ISZERO PUSH2 0x6F9 JUMPI PUSH0 DUP1 REVERT JUMPDEST POP PUSH2 0x702 PUSH2 0x10DB JUMP JUMPDEST PUSH1 0x40 MLOAD PUSH2 0x70F SWAP2 SWAP1 PUSH2 0x3028 JUMP JUMPDEST PUSH1 0x40 MLOAD DUP1 SWAP2 SUB SWAP1 RETURN JUMPDEST CALLVALUE DUP1 ISZERO PUSH2 0x723 JUMPI PUSH0 DUP1 REVERT JUMPDEST POP PUSH2 0x72C PUSH2 0x116B JUMP JUMPDEST PUSH1 0x40 MLOAD PUSH2 0x739 SWAP2 SWAP1 PUSH2 0x3639 JUMP JUMPDEST PUSH1 0x40 MLOAD DUP1 SWAP2 SUB SWAP1 RETURN JUMPDEST CALLVALUE DUP1 ISZERO PUSH2 0x74D JUMPI PUSH0 DUP1 REVERT JUMPDEST POP PUSH2 0x756 PUSH2 0x118F JUMP JUMPDEST PUSH1 0x40 MLOAD PUSH2 0x763 SWAP2 SWAP1 PUSH2 0x313E JUMP JUMPDEST PUSH1 0x40 MLOAD DUP1 SWAP2 SUB SWAP1 RETURN JUMPDEST CALLVALUE DUP1 ISZERO PUSH2 0x777 JUMPI PUSH0 DUP1 REVERT JUMPDEST POP PUSH2 0x792 PUSH1 0x4 DUP1 CALLDATASIZE SUB DUP2 ADD SWAP1 PUSH2 0x78D SWAP2 SWAP1 PUSH2 0x30E6 JUMP JUMPDEST PUSH2 0x1193 JUMP JUMPDEST PUSH1 0x40 MLOAD PUSH2 0x79F SWAP2 SWAP1 PUSH2 0x313E JUMP JUMPDEST PUSH1 0x40 MLOAD DUP1 SWAP2 SUB SWAP1 RETURN JUMPDEST CALLVALUE DUP1 ISZERO PUSH2 0x7B3 JUMPI PUSH0 DUP1 REVERT JUMPDEST POP PUSH2 0x7BC PUSH2 0x11B5 JUMP JUMPDEST PUSH1 0x40 MLOAD PUSH2 0x7C9 SWAP2 SWAP1 PUSH2 0x33C9 JUMP JUMPDEST PUSH1 0x40 MLOAD DUP1 SWAP2 SUB SWAP1 RETURN JUMPDEST CALLVALUE DUP1 ISZERO PUSH2 0x7DD JUMPI PUSH0 DUP1 REVERT JUMPDEST POP PUSH2 0x7F8 PUSH1 0x4 DUP1 CALLDATASIZE SUB DUP2 ADD SWAP1 PUSH2 0x7F3 SWAP2 SWAP1 PUSH2 0x3A6F JUMP JUMPDEST PUSH2 0x11DA JUMP JUMPDEST STOP JUMPDEST CALLVALUE DUP1 ISZERO PUSH2 0x805 JUMPI PUSH0 DUP1 REVERT JUMPDEST POP PUSH2 0x820 PUSH1 0x4 DUP1 CALLDATASIZE SUB DUP2 ADD SWAP1 PUSH2 0x81B SWAP2 SWAP1 PUSH2 0x3ABA JUMP JUMPDEST PUSH2 0x11FB JUMP JUMPDEST PUSH1 0x40 MLOAD PUSH2 0x82D SWAP2 SWAP1 PUSH2 0x3AF4 JUMP JUMPDEST PUSH1 0x40 MLOAD DUP1 SWAP2 SUB SWAP1 RETURN JUMPDEST CALLVALUE DUP1 ISZERO PUSH2 0x841 JUMPI PUSH0 DUP1 REVERT JUMPDEST POP PUSH2 0x85C PUSH1 0x4 DUP1 CALLDATASIZE SUB DUP2 ADD SWAP1 PUSH2 0x857 SWAP2 SWAP1 PUSH2 0x3B0D JUMP JUMPDEST PUSH2 0x1210 JUMP JUMPDEST PUSH1 0x40 MLOAD PUSH2 0x869 SWAP2 SWAP1 PUSH2 0x38D1 JUMP JUMPDEST PUSH1 0x40 MLOAD DUP1 SWAP2 SUB SWAP1 RETURN JUMPDEST PUSH2 0x88C PUSH1 0x4 DUP1 CALLDATASIZE SUB DUP2 ADD SWAP1 PUSH2 0x887 SWAP2 SWAP1 PUSH2 0x3BD3 JUMP JUMPDEST PUSH2 0x1412 JUMP JUMPDEST STOP JUMPDEST PUSH2 0x8A8 PUSH1 0x4 DUP1 CALLDATASIZE SUB DUP2 ADD SWAP1 PUSH2 0x8A3 SWAP2 SWAP1 PUSH2 0x3C3C JUMP JUMPDEST PUSH2 0x15DE JUMP JUMPDEST PUSH1 0x40 MLOAD PUSH2 0x8B6 SWAP3 SWAP2 SWAP1 PUSH2 0x3D33 JUMP JUMPDEST PUSH1 0x40 MLOAD DUP1 SWAP2 SUB SWAP1 RETURN JUMPDEST CALLVALUE DUP1 ISZERO PUSH2 0x8CA JUMPI PUSH0 DUP1 REVERT JUMPDEST POP PUSH2 0x8E5 PUSH1 0x4 DUP1 CALLDATASIZE SUB DUP2 ADD SWAP1 PUSH2 0x8E0 SWAP2 SWAP1 PUSH2 0x3965 JUMP JUMPDEST PUSH2 0x1605 JUMP JUMPDEST STOP JUMPDEST PUSH2 0x901 PUSH1 0x4 DUP1 CALLDATASIZE SUB DUP2 ADD SWAP1 PUSH2 0x8FC SWAP2 SWAP1 PUSH2 0x3494 JUMP JUMPDEST PUSH2 0x1696 JUMP JUMPDEST STOP JUMPDEST CALLVALUE DUP1 ISZERO PUSH2 0x90E JUMPI PUSH0 DUP1 REVERT JUMPDEST POP PUSH2 0x929 PUSH1 0x4 DUP1 CALLDATASIZE SUB DUP2 ADD SWAP1 PUSH2 0x924 SWAP2 SWAP1 PUSH2 0x3965 JUMP JUMPDEST PUSH2 0x1713 JUMP JUMPDEST STOP JUMPDEST CALLVALUE DUP1 ISZERO PUSH2 0x936 JUMPI PUSH0 DUP1 REVERT JUMPDEST POP PUSH2 0x951 PUSH1 0x4 DUP1 CALLDATASIZE SUB DUP2 ADD SWAP1 PUSH2 0x94C SWAP2 SWAP1 PUSH2 0x3D5A JUMP JUMPDEST PUSH2 0x1795 JUMP JUMPDEST PUSH1 0x40 MLOAD PUSH2 0x95E SWAP2 SWAP1 PUSH2 0x3639 JUMP JUMPDEST PUSH1 0x40 MLOAD DUP1 SWAP2 SUB SWAP1 RETURN JUMPDEST CALLVALUE DUP1 ISZERO PUSH2 0x972 JUMPI PUSH0 DUP1 REVERT JUMPDEST POP PUSH2 0x98D PUSH1 0x4 DUP1 CALLDATASIZE SUB DUP2 ADD SWAP1 PUSH2 0x988 SWAP2 SWAP1 PUSH2 0x3965 JUMP JUMPDEST PUSH2 0x1817 JUMP JUMPDEST STOP JUMPDEST CALLVALUE DUP1 ISZERO PUSH2 0x99A JUMPI PUSH0 DUP1 REVERT JUMPDEST POP PUSH2 0x9A3 PUSH2 0x189B JUMP JUMPDEST PUSH1 0x40 MLOAD PUSH2 0x9B0 SWAP2 SWAP1 PUSH2 0x33C9 JUMP JUMPDEST PUSH1 0x40 MLOAD DUP1 SWAP2 SUB SWAP1 RETURN JUMPDEST CALLVALUE DUP1 ISZERO PUSH2 0x9C4 JUMPI PUSH0 DUP1 REVERT JUMPDEST POP PUSH2 0x9DF PUSH1 0x4 DUP1 CALLDATASIZE SUB DUP2 ADD SWAP1 PUSH2 0x9DA SWAP2 SWAP1 PUSH2 0x3D98 JUMP JUMPDEST PUSH2 0x18A2 JUMP JUMPDEST PUSH1 0x40 MLOAD PUSH2 0x9EC SWAP2 SWAP1 PUSH2 0x313E JUMP JUMPDEST PUSH1 0x40 MLOAD DUP1 SWAP2 SUB SWAP1 RETURN JUMPDEST PUSH1 0x60 PUSH1 0x8 DUP1 SLOAD PUSH2 0xA04 SWAP1 PUSH2 0x3DF0 JUMP JUMPDEST DUP1 PUSH1 0x1F ADD PUSH1 0x20 DUP1 SWAP2 DIV MUL PUSH1 0x20 ADD PUSH1 0x40 MLOAD SWAP1 DUP2 ADD PUSH1 0x40 MSTORE DUP1 SWAP3 SWAP2 SWAP1 DUP2 DUP2 MSTORE PUSH1 0x20 ADD DUP3 DUP1 SLOAD PUSH2 0xA30 SWAP1 PUSH2 0x3DF0 JUMP JUMPDEST DUP1 ISZERO PUSH2 0xA7B JUMPI DUP1 PUSH1 0x1F LT PUSH2 0xA52 JUMPI PUSH2 0x100 DUP1 DUP4 SLOAD DIV MUL DUP4 MSTORE SWAP2 PUSH1 0x20 ADD SWAP2 PUSH2 0xA7B JUMP JUMPDEST DUP3 ADD SWAP2 SWAP1 PUSH0 MSTORE PUSH1 0x20 PUSH0 KECCAK256 SWAP1 JUMPDEST DUP2 SLOAD DUP2 MSTORE SWAP1 PUSH1 0x1 ADD SWAP1 PUSH1 0x20 ADD DUP1 DUP4 GT PUSH2 0xA5E JUMPI DUP3 SWAP1 SUB PUSH1 0x1F AND DUP3 ADD SWAP2 JUMPDEST POP POP POP POP POP SWAP1 POP SWAP1 JUMP JUMPDEST PUSH0 DUP1 PUSH2 0xA8F PUSH2 0x18DF JUMP JUMPDEST SWAP1 POP PUSH2 0xA9C DUP2 DUP6 DUP6 PUSH2 0x18E6 JUMP JUMPDEST PUSH1 0x1 SWAP2 POP POP SWAP3 SWAP2 POP POP JUMP JUMPDEST PUSH2 0xAAF PUSH2 0x2F0B JUMP JUMPDEST PUSH1 0x60 PUSH2 0xAB9 PUSH2 0x2F23 JUMP JUMPDEST PUSH0 DUP1 ADDRESS PUSH20 0xFFFFFFFFFFFFFFFFFFFFFFFFFFFFFFFFFFFFFFFF AND PUSH4 0xFC0C546A PUSH1 0x40 MLOAD DUP2 PUSH4 0xFFFFFFFF AND PUSH1 0xE0 SHL DUP2 MSTORE PUSH1 0x4 ADD PUSH1 0x20 PUSH1 0x40 MLOAD DUP1 DUP4 SUB DUP2 DUP7 GAS STATICCALL ISZERO DUP1 ISZERO PUSH2 0xB04 JUMPI RETURNDATASIZE PUSH0 DUP1 RETURNDATACOPY RETURNDATASIZE PUSH0 REVERT JUMPDEST POP POP POP POP PUSH1 0x40 MLOAD RETURNDATASIZE PUSH1 0x1F NOT PUSH1 0x1F DUP3 ADD AND DUP3 ADD DUP1 PUSH1 0x40 MSTORE POP DUP2 ADD SWAP1 PUSH2 0xB28 SWAP2 SWAP1 PUSH2 0x3E34 JUMP JUMPDEST PUSH20 0xFFFFFFFFFFFFFFFFFFFFFFFFFFFFFFFFFFFFFFFF AND PUSH4 0x18160DDD PUSH1 0x40 MLOAD DUP2 PUSH4 0xFFFFFFFF AND PUSH1 0xE0 SHL DUP2 MSTORE PUSH1 0x4 ADD PUSH1 0x20 PUSH1 0x40 MLOAD DUP1 DUP4 SUB DUP2 DUP7 GAS STATICCALL ISZERO DUP1 ISZERO PUSH2 0xB70 JUMPI RETURNDATASIZE PUSH0 DUP1 RETURNDATACOPY RETURNDATASIZE PUSH0 REVERT JUMPDEST POP POP POP POP PUSH1 0x40 MLOAD RETURNDATASIZE PUSH1 0x1F NOT PUSH1 0x1F DUP3 ADD AND DUP3 ADD DUP1 PUSH1 0x40 MSTORE POP DUP2 ADD SWAP1 PUSH2 0xB94 SWAP2 SWAP1 PUSH2 0x3E73 JUMP JUMPDEST SWAP1 POP PUSH1 0x40 MLOAD DUP1 PUSH1 0x40 ADD PUSH1 0x40 MSTORE DUP1 DUP4 DUP2 MSTORE PUSH1 0x20 ADD DUP3 DUP2 MSTORE POP SWAP5 POP PUSH0 PUSH8 0xFFFFFFFFFFFFFFFF DUP2 GT ISZERO PUSH2 0xBC7 JUMPI PUSH2 0xBC6 PUSH2 0x3E9E JUMP JUMPDEST JUMPDEST PUSH1 0x40 MLOAD SWAP1 DUP1 DUP3 MSTORE DUP1 PUSH1 0x20 MUL PUSH1 0x20 ADD DUP3 ADD PUSH1 0x40 MSTORE DUP1 ISZERO PUSH2 0xC00 JUMPI DUP2 PUSH1 0x20 ADD JUMPDEST PUSH2 0xBED PUSH2 0x2F3B JUMP JUMPDEST DUP2 MSTORE PUSH1 0x20 ADD SWAP1 PUSH1 0x1 SWAP1 SUB SWAP1 DUP2 PUSH2 0xBE5 JUMPI SWAP1 POP JUMPDEST POP SWAP4 POP PUSH0 DUP1 PUSH2 0xC29 DUP9 PUSH1 0x40 ADD CALLDATALOAD DUP10 PUSH1 0x60 ADD CALLDATALOAD DUP11 PUSH0 ADD PUSH1 0x20 DUP2 ADD SWAP1 PUSH2 0xC24 SWAP2 SWAP1 PUSH2 0x3ABA JUMP JUMPDEST PUSH2 0x18F8 JUMP JUMPDEST SWAP2 POP SWAP2 POP PUSH1 0x40 MLOAD DUP1 PUSH1 0x40 ADD PUSH1 0x40 MSTORE DUP1 DUP4 DUP2 MSTORE PUSH1 0x20 ADD DUP3 DUP2 MSTORE POP SWAP5 POP POP POP POP POP SWAP2 SWAP4 SWAP1 SWAP3 POP JUMP JUMPDEST PUSH1 0x4 PUSH0 SWAP1 SLOAD SWAP1 PUSH2 0x100 EXP SWAP1 DIV PUSH20 0xFFFFFFFFFFFFFFFFFFFFFFFFFFFFFFFFFFFFFFFF AND DUP2 JUMP JUMPDEST CALLER PUSH20 0xFFFFFFFFFFFFFFFFFFFFFFFFFFFFFFFFFFFFFFFF AND PUSH32 0x0 PUSH20 0xFFFFFFFFFFFFFFFFFFFFFFFFFFFFFFFFFFFFFFFF AND EQ PUSH2 0xD04 JUMPI CALLER PUSH1 0x40 MLOAD PUSH32 0x91AC5E4F00000000000000000000000000000000000000000000000000000000 DUP2 MSTORE PUSH1 0x4 ADD PUSH2 0xCFB SWAP2 SWAP1 PUSH2 0x33C9 JUMP JUMPDEST PUSH1 0x40 MLOAD DUP1 SWAP2 SUB SWAP1 REVERT JUMPDEST DUP7 PUSH1 0x20 ADD CALLDATALOAD PUSH2 0xD23 DUP9 PUSH0 ADD PUSH1 0x20 DUP2 ADD SWAP1 PUSH2 0xD1E SWAP2 SWAP1 PUSH2 0x3ABA JUMP JUMPDEST PUSH2 0x1957 JUMP JUMPDEST EQ PUSH2 0xD7C JUMPI DUP7 PUSH0 ADD PUSH1 0x20 DUP2 ADD SWAP1 PUSH2 0xD3A SWAP2 SWAP1 PUSH2 0x3ABA JUMP JUMPDEST DUP8 PUSH1 0x20 ADD CALLDATALOAD PUSH1 0x40 MLOAD PUSH32 0xC26BEBCC00000000000000000000000000000000000000000000000000000000 DUP2 MSTORE PUSH1 0x4 ADD PUSH2 0xD73 SWAP3 SWAP2 SWAP1 PUSH2 0x3EDA JUMP JUMPDEST PUSH1 0x40 MLOAD DUP1 SWAP2 SUB SWAP1 REVERT JUMPDEST PUSH2 0xD8B DUP8 DUP8 DUP8 DUP8 DUP8 DUP8 DUP8 PUSH2 0x19C8 JUMP JUMPDEST POP POP POP POP POP POP POP JUMP JUMPDEST PUSH1 0x2 DUP2 JUMP JUMPDEST PUSH0 DUP1 PUSH32 0x2E49C2C00000000000000000000000000000000000000000000000000000000 PUSH1 0x1 SWAP2 POP SWAP2 POP SWAP1 SWAP2 JUMP JUMPDEST PUSH0 DUP1 PUSH1 0x1 PUSH1 0x2 SWAP2 POP SWAP2 POP SWAP1 SWAP2 JUMP JUMPDEST PUSH0 PUSH1 0x7 SLOAD SWAP1 POP SWAP1 JUMP JUMPDEST PUSH1 0x1 DUP2 JUMP JUMPDEST PUSH0 DUP1 PUSH2 0xDEC PUSH2 0x18DF JUMP JUMPDEST SWAP1 POP PUSH2 0xDF9 DUP6 DUP3 DUP6 PUSH2 0x1B52 JUMP JUMPDEST PUSH2 0xE04 DUP6 DUP6 DUP6 PUSH2 0x1BE5 JUMP JUMPDEST PUSH1 0x1 SWAP2 POP POP SWAP4 SWAP3 POP POP POP JUMP JUMPDEST PUSH0 PUSH1 0x12 SWAP1 POP SWAP1 JUMP JUMPDEST PUSH2 0xE20 PUSH2 0x1CD5 JUMP JUMPDEST PUSH2 0xE2A DUP3 DUP3 PUSH2 0x1D5C JUMP JUMPDEST POP POP JUMP JUMPDEST PUSH2 0xE36 PUSH2 0x2F54 JUMP JUMPDEST PUSH0 PUSH2 0xE5B DUP5 PUSH1 0x40 ADD CALLDATALOAD DUP6 PUSH1 0x60 ADD CALLDATALOAD DUP7 PUSH0 ADD PUSH1 0x20 DUP2 ADD SWAP1 PUSH2 0xE56 SWAP2 SWAP1 PUSH2 0x3ABA JUMP JUMPDEST PUSH2 0x18F8 JUMP JUMPDEST SWAP2 POP POP PUSH0 DUP1 PUSH2 0xE6A DUP7 DUP5 PUSH2 0x1DBB JUMP JUMPDEST SWAP2 POP SWAP2 POP PUSH2 0xE8B DUP7 PUSH0 ADD PUSH1 0x20 DUP2 ADD SWAP1 PUSH2 0xE83 SWAP2 SWAP1 PUSH2 0x3ABA JUMP JUMPDEST DUP4 DUP4 DUP9 PUSH2 0x1F4C JUMP JUMPDEST SWAP4 POP POP POP POP SWAP3 SWAP2 POP POP JUMP JUMPDEST PUSH0 ADDRESS SWAP1 POP SWAP1 JUMP JUMPDEST PUSH1 0x3 PUSH1 0x20 MSTORE DUP2 PUSH0 MSTORE PUSH1 0x40 PUSH0 KECCAK256 PUSH1 0x20 MSTORE DUP1 PUSH0 MSTORE PUSH1 0x40 PUSH0 KECCAK256 PUSH0 SWAP2 POP SWAP2 POP POP DUP1 SLOAD PUSH2 0xEC4 SWAP1 PUSH2 0x3DF0 JUMP JUMPDEST DUP1 PUSH1 0x1F ADD PUSH1 0x20 DUP1 SWAP2 DIV MUL PUSH1 0x20 ADD PUSH1 0x40 MLOAD SWAP1 DUP2 ADD PUSH1 0x40 MSTORE DUP1 SWAP3 SWAP2 SWAP1 DUP2 DUP2 MSTORE PUSH1 0x20 ADD DUP3 DUP1 SLOAD PUSH2 0xEF0 SWAP1 PUSH2 0x3DF0 JUMP JUMPDEST DUP1 ISZERO PUSH2 0xF3B JUMPI DUP1 PUSH1 0x1F LT PUSH2 0xF12 JUMPI PUSH2 0x100 DUP1 DUP4 SLOAD DIV MUL DUP4 MSTORE SWAP2 PUSH1 0x20 ADD SWAP2 PUSH2 0xF3B JUMP JUMPDEST DUP3 ADD SWAP2 SWAP1 PUSH0 MSTORE PUSH1 0x20 PUSH0 KECCAK256 SWAP1 JUMPDEST DUP2 SLOAD DUP2 MSTORE SWAP1 PUSH1 0x1 ADD SWAP1 PUSH1 0x20 ADD DUP1 DUP4 GT PUSH2 0xF1E JUMPI DUP3 SWAP1 SUB PUSH1 0x1F AND DUP3 ADD SWAP2 JUMPDEST POP POP POP POP POP DUP2 JUMP JUMPDEST PUSH0 DUP2 PUSH1 0x1 PUSH0 DUP6 PUSH4 0xFFFFFFFF AND PUSH4 0xFFFFFFFF AND DUP2 MSTORE PUSH1 0x20 ADD SWAP1 DUP2 MSTORE PUSH1 0x20 ADD PUSH0 KECCAK256 SLOAD EQ SWAP1 POP SWAP3 SWAP2 POP POP JUMP JUMPDEST PUSH32 0x0 DUP2 JUMP JUMPDEST PUSH2 0xF98 PUSH2 0x1CD5 JUMP JUMPDEST DUP1 PUSH1 0x4 PUSH0 PUSH2 0x100 EXP DUP2 SLOAD DUP2 PUSH20 0xFFFFFFFFFFFFFFFFFFFFFFFFFFFFFFFFFFFFFFFF MUL NOT AND SWAP1 DUP4 PUSH20 0xFFFFFFFFFFFFFFFFFFFFFFFFFFFFFFFFFFFFFFFF AND MUL OR SWAP1 SSTORE POP PUSH32 0xF0BE4F1E87349231D80C36B33F9E8639658EEAF474014DEE15A3E6A4D4414197 DUP2 PUSH1 0x40 MLOAD PUSH2 0x1007 SWAP2 SWAP1 PUSH2 0x33C9 JUMP JUMPDEST PUSH1 0x40 MLOAD DUP1 SWAP2 SUB SWAP1 LOG1 POP JUMP JUMPDEST PUSH0 PUSH1 0x5 PUSH0 DUP4 PUSH20 0xFFFFFFFFFFFFFFFFFFFFFFFFFFFFFFFFFFFFFFFF AND PUSH20 0xFFFFFFFFFFFFFFFFFFFFFFFFFFFFFFFFFFFFFFFF AND DUP2 MSTORE PUSH1 0x20 ADD SWAP1 DUP2 MSTORE PUSH1 0x20 ADD PUSH0 KECCAK256 SLOAD SWAP1 POP SWAP2 SWAP1 POP JUMP JUMPDEST PUSH2 0x1060 PUSH2 0x1CD5 JUMP JUMPDEST PUSH2 0x1069 PUSH0 PUSH2 0x202D JUMP JUMPDEST JUMP JUMPDEST PUSH0 SWAP3 SWAP2 POP POP JUMP JUMPDEST PUSH0 ADDRESS PUSH20 0xFFFFFFFFFFFFFFFFFFFFFFFFFFFFFFFFFFFFFFFF AND DUP3 PUSH20 0xFFFFFFFFFFFFFFFFFFFFFFFFFFFFFFFFFFFFFFFF AND EQ SWAP1 POP SWAP5 SWAP4 POP POP POP POP JUMP JUMPDEST PUSH0 PUSH1 0x6 SWAP1 POP SWAP1 JUMP JUMPDEST PUSH0 DUP1 PUSH0 SWAP1 SLOAD SWAP1 PUSH2 0x100 EXP SWAP1 DIV PUSH20 0xFFFFFFFFFFFFFFFFFFFFFFFFFFFFFFFFFFFFFFFF AND SWAP1 POP SWAP1 JUMP JUMPDEST PUSH1 0x60 PUSH1 0x9 DUP1 SLOAD PUSH2 0x10EA SWAP1 PUSH2 0x3DF0 JUMP JUMPDEST DUP1 PUSH1 0x1F ADD PUSH1 0x20 DUP1 SWAP2 DIV MUL PUSH1 0x20 ADD PUSH1 0x40 MLOAD SWAP1 DUP2 ADD PUSH1 0x40 MSTORE DUP1 SWAP3 SWAP2 SWAP1 DUP2 DUP2 MSTORE PUSH1 0x20 ADD DUP3 DUP1 SLOAD PUSH2 0x1116 SWAP1 PUSH2 0x3DF0 JUMP JUMPDEST DUP1 ISZERO PUSH2 0x1161 JUMPI DUP1 PUSH1 0x1F LT PUSH2 0x1138 JUMPI PUSH2 0x100 DUP1 DUP4 SLOAD DIV MUL DUP4 MSTORE SWAP2 PUSH1 0x20 ADD SWAP2 PUSH2 0x1161 JUMP JUMPDEST DUP3 ADD SWAP2 SWAP1 PUSH0 MSTORE PUSH1 0x20 PUSH0 KECCAK256 SWAP1 JUMPDEST DUP2 SLOAD DUP2 MSTORE SWAP1 PUSH1 0x1 ADD SWAP1 PUSH1 0x20 ADD DUP1 DUP4 GT PUSH2 0x1144 JUMPI DUP3 SWAP1 SUB PUSH1 0x1F AND DUP3 ADD SWAP2 JUMPDEST POP POP POP POP POP SWAP1 POP SWAP1 JUMP JUMPDEST PUSH32 0x0 DUP2 JUMP JUMPDEST PUSH0 SWAP1 JUMP JUMPDEST PUSH0 DUP1 PUSH2 0x119D PUSH2 0x18DF JUMP JUMPDEST SWAP1 POP PUSH2 0x11AA DUP2 DUP6 DUP6 PUSH2 0x1BE5 JUMP JUMPDEST PUSH1 0x1 SWAP2 POP POP SWAP3 SWAP2 POP POP JUMP JUMPDEST PUSH1 0x2 PUSH0 SWAP1 SLOAD SWAP1 PUSH2 0x100 EXP SWAP1 DIV PUSH20 0xFFFFFFFFFFFFFFFFFFFFFFFFFFFFFFFFFFFFFFFF AND DUP2 JUMP JUMPDEST PUSH2 0x11E2 PUSH2 0x1CD5 JUMP JUMPDEST PUSH2 0x11F7 DUP3 DUP3 SWAP1 PUSH2 0x11F2 SWAP2 SWAP1 PUSH2 0x4132 JUMP JUMPDEST PUSH2 0x20EE JUMP JUMPDEST POP POP JUMP JUMPDEST PUSH1 0x1 PUSH1 0x20 MSTORE DUP1 PUSH0 MSTORE PUSH1 0x40 PUSH0 KECCAK256 PUSH0 SWAP2 POP SWAP1 POP SLOAD DUP2 JUMP JUMPDEST PUSH1 0x60 PUSH0 PUSH1 0x3 PUSH0 DUP8 PUSH4 0xFFFFFFFF AND PUSH4 0xFFFFFFFF AND DUP2 MSTORE PUSH1 0x20 ADD SWAP1 DUP2 MSTORE PUSH1 0x20 ADD PUSH0 KECCAK256 PUSH0 DUP7 PUSH2 0xFFFF AND PUSH2 0xFFFF AND DUP2 MSTORE PUSH1 0x20 ADD SWAP1 DUP2 MSTORE PUSH1 0x20 ADD PUSH0 KECCAK256 DUP1 SLOAD PUSH2 0x1252 SWAP1 PUSH2 0x3DF0 JUMP JUMPDEST DUP1 PUSH1 0x1F ADD PUSH1 0x20 DUP1 SWAP2 DIV MUL PUSH1 0x20 ADD PUSH1 0x40 MLOAD SWAP1 DUP2 ADD PUSH1 0x40 MSTORE DUP1 SWAP3 SWAP2 SWAP1 DUP2 DUP2 MSTORE PUSH1 0x20 ADD DUP3 DUP1 SLOAD PUSH2 0x127E SWAP1 PUSH2 0x3DF0 JUMP JUMPDEST DUP1 ISZERO PUSH2 0x12C9 JUMPI DUP1 PUSH1 0x1F LT PUSH2 0x12A0 JUMPI PUSH2 0x100 DUP1 DUP4 SLOAD DIV MUL DUP4 MSTORE SWAP2 PUSH1 0x20 ADD SWAP2 PUSH2 0x12C9 JUMP JUMPDEST DUP3 ADD SWAP2 SWAP1 PUSH0 MSTORE PUSH1 0x20 PUSH0 KECCAK256 SWAP1 JUMPDEST DUP2 SLOAD DUP2 MSTORE SWAP1 PUSH1 0x1 ADD SWAP1 PUSH1 0x20 ADD DUP1 DUP4 GT PUSH2 0x12AC JUMPI DUP3 SWAP1 SUB PUSH1 0x1F AND DUP3 ADD SWAP2 JUMPDEST POP POP POP POP POP SWAP1 POP PUSH0 DUP2 MLOAD SUB PUSH2 0x1324 JUMPI DUP4 DUP4 DUP1 DUP1 PUSH1 0x1F ADD PUSH1 0x20 DUP1 SWAP2 DIV MUL PUSH1 0x20 ADD PUSH1 0x40 MLOAD SWAP1 DUP2 ADD PUSH1 0x40 MSTORE DUP1 SWAP4 SWAP3 SWAP2 SWAP1 DUP2 DUP2 MSTORE PUSH1 0x20 ADD DUP4 DUP4 DUP1 DUP3 DUP5 CALLDATACOPY PUSH0 DUP2 DUP5 ADD MSTORE PUSH1 0x1F NOT PUSH1 0x1F DUP3 ADD AND SWAP1 POP DUP1 DUP4 ADD SWAP3 POP POP POP POP POP POP POP SWAP2 POP POP PUSH2 0x140A JUMP JUMPDEST PUSH0 DUP5 DUP5 SWAP1 POP SUB PUSH2 0x1337 JUMPI DUP1 SWAP2 POP POP PUSH2 0x140A JUMP JUMPDEST PUSH1 0x2 DUP5 DUP5 SWAP1 POP LT PUSH2 0x13CB JUMPI PUSH2 0x138E DUP5 DUP5 DUP1 DUP1 PUSH1 0x1F ADD PUSH1 0x20 DUP1 SWAP2 DIV MUL PUSH1 0x20 ADD PUSH1 0x40 MLOAD SWAP1 DUP2 ADD PUSH1 0x40 MSTORE DUP1 SWAP4 SWAP3 SWAP2 SWAP1 DUP2 DUP2 MSTORE PUSH1 0x20 ADD DUP4 DUP4 DUP1 DUP3 DUP5 CALLDATACOPY PUSH0 DUP2 DUP5 ADD MSTORE PUSH1 0x1F NOT PUSH1 0x1F DUP3 ADD AND SWAP1 POP DUP1 DUP4 ADD SWAP3 POP POP POP POP POP POP POP PUSH2 0x2203 JUMP JUMPDEST DUP1 DUP5 DUP5 PUSH1 0x2 SWAP1 DUP1 SWAP3 PUSH2 0x13A2 SWAP4 SWAP3 SWAP2 SWAP1 PUSH2 0x414E JUMP JUMPDEST PUSH1 0x40 MLOAD PUSH1 0x20 ADD PUSH2 0x13B4 SWAP4 SWAP3 SWAP2 SWAP1 PUSH2 0x41E6 JUMP JUMPDEST PUSH1 0x40 MLOAD PUSH1 0x20 DUP2 DUP4 SUB SUB DUP2 MSTORE SWAP1 PUSH1 0x40 MSTORE SWAP2 POP POP PUSH2 0x140A JUMP JUMPDEST DUP4 DUP4 PUSH1 0x40 MLOAD PUSH32 0x9A6D49CD00000000000000000000000000000000000000000000000000000000 DUP2 MSTORE PUSH1 0x4 ADD PUSH2 0x1401 SWAP3 SWAP2 SWAP1 PUSH2 0x4237 JUMP JUMPDEST PUSH1 0x40 MLOAD DUP1 SWAP2 SUB SWAP1 REVERT JUMPDEST SWAP5 SWAP4 POP POP POP POP JUMP JUMPDEST PUSH0 JUMPDEST DUP3 DUP3 SWAP1 POP DUP2 LT ISZERO PUSH2 0x1531 JUMPI CALLDATASIZE DUP4 DUP4 DUP4 DUP2 DUP2 LT PUSH2 0x1433 JUMPI PUSH2 0x1432 PUSH2 0x4259 JUMP JUMPDEST JUMPDEST SWAP1 POP PUSH1 0x20 MUL DUP2 ADD SWAP1 PUSH2 0x1445 SWAP2 SWAP1 PUSH2 0x4292 JUMP JUMPDEST SWAP1 POP PUSH2 0x146A DUP2 PUSH0 ADD PUSH0 ADD PUSH1 0x20 DUP2 ADD SWAP1 PUSH2 0x145E SWAP2 SWAP1 PUSH2 0x3ABA JUMP JUMPDEST DUP3 PUSH0 ADD PUSH1 0x20 ADD CALLDATALOAD PUSH2 0xF43 JUMP JUMPDEST PUSH2 0x1474 JUMPI POP PUSH2 0x1524 JUMP JUMPDEST ADDRESS PUSH20 0xFFFFFFFFFFFFFFFFFFFFFFFFFFFFFFFFFFFFFFFF AND PUSH4 0xD045A0DC DUP3 PUSH1 0xC0 ADD CALLDATALOAD DUP4 PUSH0 ADD DUP5 PUSH1 0xA0 ADD CALLDATALOAD DUP6 DUP1 PUSH2 0x100 ADD SWAP1 PUSH2 0x14AE SWAP2 SWAP1 PUSH2 0x42BA JUMP JUMPDEST DUP8 PUSH1 0xE0 ADD PUSH1 0x20 DUP2 ADD SWAP1 PUSH2 0x14C1 SWAP2 SWAP1 PUSH2 0x3965 JUMP JUMPDEST DUP9 DUP1 PUSH2 0x120 ADD SWAP1 PUSH2 0x14D2 SWAP2 SWAP1 PUSH2 0x42BA JUMP JUMPDEST PUSH1 0x40 MLOAD DUP10 PUSH4 0xFFFFFFFF AND PUSH1 0xE0 SHL DUP2 MSTORE PUSH1 0x4 ADD PUSH2 0x14F4 SWAP8 SWAP7 SWAP6 SWAP5 SWAP4 SWAP3 SWAP2 SWAP1 PUSH2 0x43EF JUMP JUMPDEST PUSH0 PUSH1 0x40 MLOAD DUP1 DUP4 SUB DUP2 DUP6 DUP9 DUP1 EXTCODESIZE ISZERO DUP1 ISZERO PUSH2 0x150B JUMPI PUSH0 DUP1 REVERT JUMPDEST POP GAS CALL ISZERO DUP1 ISZERO PUSH2 0x151D JUMPI RETURNDATASIZE PUSH0 DUP1 RETURNDATACOPY RETURNDATASIZE PUSH0 REVERT JUMPDEST POP POP POP POP POP POP JUMPDEST DUP1 DUP1 PUSH1 0x1 ADD SWAP2 POP POP PUSH2 0x1414 JUMP JUMPDEST POP CALLER PUSH20 0xFFFFFFFFFFFFFFFFFFFFFFFFFFFFFFFFFFFFFFFF AND PUSH4 0x8E9E7099 PUSH1 0x40 MLOAD DUP2 PUSH4 0xFFFFFFFF AND PUSH1 0xE0 SHL DUP2 MSTORE PUSH1 0x4 ADD PUSH0 PUSH1 0x40 MLOAD DUP1 DUP4 SUB DUP2 DUP7 GAS STATICCALL ISZERO DUP1 ISZERO PUSH2 0x157A JUMPI RETURNDATASIZE PUSH0 DUP1 RETURNDATACOPY RETURNDATASIZE PUSH0 REVERT JUMPDEST POP POP POP POP PUSH1 0x40 MLOAD RETURNDATASIZE PUSH0 DUP3 RETURNDATACOPY RETURNDATASIZE PUSH1 0x1F NOT PUSH1 0x1F DUP3 ADD AND DUP3 ADD DUP1 PUSH1 0x40 MSTORE POP DUP2 ADD SWAP1 PUSH2 0x15A2 SWAP2 SWAP1 PUSH2 0x44C0 JUMP JUMPDEST PUSH1 0x40 MLOAD PUSH32 0x8351EEA700000000000000000000000000000000000000000000000000000000 DUP2 MSTORE PUSH1 0x4 ADD PUSH2 0x15D5 SWAP2 SWAP1 PUSH2 0x38D1 JUMP JUMPDEST PUSH1 0x40 MLOAD DUP1 SWAP2 SUB SWAP1 REVERT JUMPDEST PUSH2 0x15E6 PUSH2 0x2F6C JUMP JUMPDEST PUSH2 0x15EE PUSH2 0x2F23 JUMP JUMPDEST PUSH2 0x15F9 DUP6 DUP6 DUP6 PUSH2 0x225C JUMP JUMPDEST SWAP2 POP SWAP2 POP SWAP4 POP SWAP4 SWAP2 POP POP JUMP JUMPDEST PUSH2 0x160D PUSH2 0x1CD5 JUMP JUMPDEST PUSH32 0x0 PUSH20 0xFFFFFFFFFFFFFFFFFFFFFFFFFFFFFFFFFFFFFFFF AND PUSH4 0xCA5EB5E1 DUP3 PUSH1 0x40 MLOAD DUP3 PUSH4 0xFFFFFFFF AND PUSH1 0xE0 SHL DUP2 MSTORE PUSH1 0x4 ADD PUSH2 0x1666 SWAP2 SWAP1 PUSH2 0x33C9 JUMP JUMPDEST PUSH0 PUSH1 0x40 MLOAD DUP1 DUP4 SUB DUP2 PUSH0 DUP8 DUP1 EXTCODESIZE ISZERO DUP1 ISZERO PUSH2 0x167D JUMPI PUSH0 DUP1 REVERT JUMPDEST POP GAS CALL ISZERO DUP1 ISZERO PUSH2 0x168F JUMPI RETURNDATASIZE PUSH0 DUP1 RETURNDATACOPY RETURNDATASIZE PUSH0 REVERT JUMPDEST POP POP POP POP POP JUMP JUMPDEST ADDRESS PUSH20 0xFFFFFFFFFFFFFFFFFFFFFFFFFFFFFFFFFFFFFFFF AND CALLER PUSH20 0xFFFFFFFFFFFFFFFFFFFFFFFFFFFFFFFFFFFFFFFF AND EQ PUSH2 0x16FB JUMPI PUSH1 0x40 MLOAD PUSH32 0x14D4A4E800000000000000000000000000000000000000000000000000000000 DUP2 MSTORE PUSH1 0x4 ADD PUSH1 0x40 MLOAD DUP1 SWAP2 SUB SWAP1 REVERT JUMPDEST PUSH2 0x170A DUP8 DUP8 DUP8 DUP8 DUP8 DUP8 DUP8 PUSH2 0x2361 JUMP JUMPDEST POP POP POP POP POP POP POP JUMP JUMPDEST PUSH2 0x171B PUSH2 0x1CD5 JUMP JUMPDEST DUP1 PUSH1 0x2 PUSH0 PUSH2 0x100 EXP DUP2 SLOAD DUP2 PUSH20 0xFFFFFFFFFFFFFFFFFFFFFFFFFFFFFFFFFFFFFFFF MUL NOT AND SWAP1 DUP4 PUSH20 0xFFFFFFFFFFFFFFFFFFFFFFFFFFFFFFFFFFFFFFFF AND MUL OR SWAP1 SSTORE POP PUSH32 0xD48D879CEF83A1C0BDDA516F27B13DDB1B3F8BBAC1C9E1511BB2A659C2427760 DUP2 PUSH1 0x40 MLOAD PUSH2 0x178A SWAP2 SWAP1 PUSH2 0x33C9 JUMP JUMPDEST PUSH1 0x40 MLOAD DUP1 SWAP2 SUB SWAP1 LOG1 POP JUMP JUMPDEST PUSH0 PUSH1 0x6 PUSH0 DUP5 PUSH20 0xFFFFFFFFFFFFFFFFFFFFFFFFFFFFFFFFFFFFFFFF AND PUSH20 0xFFFFFFFFFFFFFFFFFFFFFFFFFFFFFFFFFFFFFFFF AND DUP2 MSTORE PUSH1 0x20 ADD SWAP1 DUP2 MSTORE PUSH1 0x20 ADD PUSH0 KECCAK256 PUSH0 DUP4 PUSH20 0xFFFFFFFFFFFFFFFFFFFFFFFFFFFFFFFFFFFFFFFF AND PUSH20 0xFFFFFFFFFFFFFFFFFFFFFFFFFFFFFFFFFFFFFFFF AND DUP2 MSTORE PUSH1 0x20 ADD SWAP1 DUP2 MSTORE PUSH1 0x20 ADD PUSH0 KECCAK256 SLOAD SWAP1 POP SWAP3 SWAP2 POP POP JUMP JUMPDEST PUSH2 0x181F PUSH2 0x1CD5 JUMP JUMPDEST PUSH0 PUSH20 0xFFFFFFFFFFFFFFFFFFFFFFFFFFFFFFFFFFFFFFFF AND DUP2 PUSH20 0xFFFFFFFFFFFFFFFFFFFFFFFFFFFFFFFFFFFFFFFF AND SUB PUSH2 0x188F JUMPI PUSH0 PUSH1 0x40 MLOAD PUSH32 0x1E4FBDF700000000000000000000000000000000000000000000000000000000 DUP2 MSTORE PUSH1 0x4 ADD PUSH2 0x1886 SWAP2 SWAP1 PUSH2 0x33C9 JUMP JUMPDEST PUSH1 0x40 MLOAD DUP1 SWAP2 SUB SWAP1 REVERT JUMPDEST PUSH2 0x1898 DUP2 PUSH2 0x202D JUMP JUMPDEST POP JUMP JUMPDEST PUSH0 ADDRESS SWAP1 POP SWAP1 JUMP JUMPDEST PUSH0 DUP2 PUSH1 0x20 ADD CALLDATALOAD PUSH1 0x1 PUSH0 DUP5 PUSH0 ADD PUSH1 0x20 DUP2 ADD SWAP1 PUSH2 0x18BD SWAP2 SWAP1 PUSH2 0x3ABA JUMP JUMPDEST PUSH4 0xFFFFFFFF AND PUSH4 0xFFFFFFFF AND DUP2 MSTORE PUSH1 0x20 ADD SWAP1 DUP2 MSTORE PUSH1 0x20 ADD PUSH0 KECCAK256 SLOAD EQ SWAP1 POP SWAP2 SWAP1 POP JUMP JUMPDEST PUSH0 CALLER SWAP1 POP SWAP1 JUMP JUMPDEST PUSH2 0x18F3 DUP4 DUP4 DUP4 PUSH1 0x1 PUSH2 0x2379 JUMP JUMPDEST POP POP POP JUMP JUMPDEST PUSH0 DUP1 PUSH2 0x1903 DUP6 PUSH2 0x2548 JUMP JUMPDEST SWAP2 POP DUP2 SWAP1 POP DUP4 DUP2 LT ISZERO PUSH2 0x194F JUMPI DUP1 DUP5 PUSH1 0x40 MLOAD PUSH32 0x71C4EFED00000000000000000000000000000000000000000000000000000000 DUP2 MSTORE PUSH1 0x4 ADD PUSH2 0x1946 SWAP3 SWAP2 SWAP1 PUSH2 0x4507 JUMP JUMPDEST PUSH1 0x40 MLOAD DUP1 SWAP2 SUB SWAP1 REVERT JUMPDEST SWAP4 POP SWAP4 SWAP2 POP POP JUMP JUMPDEST PUSH0 DUP1 PUSH1 0x1 PUSH0 DUP5 PUSH4 0xFFFFFFFF AND PUSH4 0xFFFFFFFF AND DUP2 MSTORE PUSH1 0x20 ADD SWAP1 DUP2 MSTORE PUSH1 0x20 ADD PUSH0 KECCAK256 SLOAD SWAP1 POP PUSH0 DUP1 SHL DUP2 SUB PUSH2 0x19BF JUMPI DUP3 PUSH1 0x40 MLOAD PUSH32 0xF6FF4FB700000000000000000000000000000000000000000000000000000000 DUP2 MSTORE PUSH1 0x4 ADD PUSH2 0x19B6 SWAP2 SWAP1 PUSH2 0x452E JUMP JUMPDEST PUSH1 0x40 MLOAD DUP1 SWAP2 SUB SWAP1 REVERT JUMPDEST DUP1 SWAP2 POP POP SWAP2 SWAP1 POP JUMP JUMPDEST PUSH0 PUSH2 0x19DB PUSH2 0x19D6 DUP8 DUP8 PUSH2 0x25A7 JUMP JUMPDEST PUSH2 0x25D1 JUMP JUMPDEST SWAP1 POP PUSH0 PUSH2 0x1A0B DUP3 PUSH2 0x19F4 PUSH2 0x19EF DUP11 DUP11 PUSH2 0x25DC JUMP JUMPDEST PUSH2 0x260D JUMP JUMPDEST DUP12 PUSH0 ADD PUSH1 0x20 DUP2 ADD SWAP1 PUSH2 0x1A06 SWAP2 SWAP1 PUSH2 0x3ABA JUMP JUMPDEST PUSH2 0x264B JUMP JUMPDEST SWAP1 POP PUSH2 0x1A17 DUP8 DUP8 PUSH2 0x2699 JUMP JUMPDEST ISZERO PUSH2 0x1AE5 JUMPI PUSH0 PUSH2 0x1A55 DUP11 PUSH1 0x40 ADD PUSH1 0x20 DUP2 ADD SWAP1 PUSH2 0x1A33 SWAP2 SWAP1 PUSH2 0x4547 JUMP JUMPDEST DUP12 PUSH0 ADD PUSH1 0x20 DUP2 ADD SWAP1 PUSH2 0x1A45 SWAP2 SWAP1 PUSH2 0x3ABA JUMP JUMPDEST DUP5 PUSH2 0x1A50 DUP13 DUP13 PUSH2 0x26AC JUMP JUMPDEST PUSH2 0x270E JUMP JUMPDEST SWAP1 POP PUSH32 0x0 PUSH20 0xFFFFFFFFFFFFFFFFFFFFFFFFFFFFFFFFFFFFFFFF AND PUSH4 0x7CB59012 DUP5 DUP12 PUSH0 DUP6 PUSH1 0x40 MLOAD DUP6 PUSH4 0xFFFFFFFF AND PUSH1 0xE0 SHL DUP2 MSTORE PUSH1 0x4 ADD PUSH2 0x1AB6 SWAP5 SWAP4 SWAP3 SWAP2 SWAP1 PUSH2 0x45AB JUMP JUMPDEST PUSH0 PUSH1 0x40 MLOAD DUP1 DUP4 SUB DUP2 PUSH0 DUP8 DUP1 EXTCODESIZE ISZERO DUP1 ISZERO PUSH2 0x1ACD JUMPI PUSH0 DUP1 REVERT JUMPDEST POP GAS CALL ISZERO DUP1 ISZERO PUSH2 0x1ADF JUMPI RETURNDATASIZE PUSH0 DUP1 RETURNDATACOPY RETURNDATASIZE PUSH0 REVERT JUMPDEST POP POP POP POP POP JUMPDEST DUP2 PUSH20 0xFFFFFFFFFFFFFFFFFFFFFFFFFFFFFFFFFFFFFFFF AND DUP9 PUSH32 0xEFED6D3500546B29533B128A29E3A94D70788727F0507505AC12EAF2E578FD9C DUP12 PUSH0 ADD PUSH1 0x20 DUP2 ADD SWAP1 PUSH2 0x1B30 SWAP2 SWAP1 PUSH2 0x3ABA JUMP JUMPDEST DUP5 PUSH1 0x40 MLOAD PUSH2 0x1B3F SWAP3 SWAP2 SWAP1 PUSH2 0x45F5 JUMP JUMPDEST PUSH1 0x40 MLOAD DUP1 SWAP2 SUB SWAP1 LOG3 POP POP POP POP POP POP POP POP POP JUMP JUMPDEST PUSH0 PUSH2 0x1B5D DUP5 DUP5 PUSH2 0x1795 JUMP JUMPDEST SWAP1 POP PUSH32 0xFFFFFFFFFFFFFFFFFFFFFFFFFFFFFFFFFFFFFFFFFFFFFFFFFFFFFFFFFFFFFFFF DUP2 LT ISZERO PUSH2 0x1BDF JUMPI DUP2 DUP2 LT ISZERO PUSH2 0x1BD0 JUMPI DUP3 DUP2 DUP4 PUSH1 0x40 MLOAD PUSH32 0xFB8F41B200000000000000000000000000000000000000000000000000000000 DUP2 MSTORE PUSH1 0x4 ADD PUSH2 0x1BC7 SWAP4 SWAP3 SWAP2 SWAP1 PUSH2 0x461C JUMP JUMPDEST PUSH1 0x40 MLOAD DUP1 SWAP2 SUB SWAP1 REVERT JUMPDEST PUSH2 0x1BDE DUP5 DUP5 DUP5 DUP5 SUB PUSH0 PUSH2 0x2379 JUMP JUMPDEST JUMPDEST POP POP POP POP JUMP JUMPDEST PUSH0 PUSH20 0xFFFFFFFFFFFFFFFFFFFFFFFFFFFFFFFFFFFFFFFF AND DUP4 PUSH20 0xFFFFFFFFFFFFFFFFFFFFFFFFFFFFFFFFFFFFFFFF AND SUB PUSH2 0x1C55 JUMPI PUSH0 PUSH1 0x40 MLOAD PUSH32 0x96C6FD1E00000000000000000000000000000000000000000000000000000000 DUP2 MSTORE PUSH1 0x4 ADD PUSH2 0x1C4C SWAP2 SWAP1 PUSH2 0x33C9 JUMP JUMPDEST PUSH1 0x40 MLOAD DUP1 SWAP2 SUB SWAP1 REVERT JUMPDEST PUSH0 PUSH20 0xFFFFFFFFFFFFFFFFFFFFFFFFFFFFFFFFFFFFFFFF AND DUP3 PUSH20 0xFFFFFFFFFFFFFFFFFFFFFFFFFFFFFFFFFFFFFFFF AND SUB PUSH2 0x1CC5 JUMPI PUSH0 PUSH1 0x40 MLOAD PUSH32 0xEC442F0500000000000000000000000000000000000000000000000000000000 DUP2 MSTORE PUSH1 0x4 ADD PUSH2 0x1CBC SWAP2 SWAP1 PUSH2 0x33C9 JUMP JUMPDEST PUSH1 0x40 MLOAD DUP1 SWAP2 SUB SWAP1 REVERT JUMPDEST PUSH2 0x1CD0 DUP4 DUP4 DUP4 PUSH2 0x2740 JUMP JUMPDEST POP POP POP JUMP JUMPDEST PUSH2 0x1CDD PUSH2 0x18DF JUMP JUMPDEST PUSH20 0xFFFFFFFFFFFFFFFFFFFFFFFFFFFFFFFFFFFFFFFF AND PUSH2 0x1CFB PUSH2 0x10B4 JUMP JUMPDEST PUSH20 0xFFFFFFFFFFFFFFFFFFFFFFFFFFFFFFFFFFFFFFFF AND EQ PUSH2 0x1D5A JUMPI PUSH2 0x1D1E PUSH2 0x18DF JUMP JUMPDEST PUSH1 0x40 MLOAD PUSH32 0x118CDAA700000000000000000000000000000000000000000000000000000000 DUP2 MSTORE PUSH1 0x4 ADD PUSH2 0x1D51 SWAP2 SWAP1 PUSH2 0x33C9 JUMP JUMPDEST PUSH1 0x40 MLOAD DUP1 SWAP2 SUB SWAP1 REVERT JUMPDEST JUMP JUMPDEST DUP1 PUSH1 0x1 PUSH0 DUP5 PUSH4 0xFFFFFFFF AND PUSH4 0xFFFFFFFF AND DUP2 MSTORE PUSH1 0x20 ADD SWAP1 DUP2 MSTORE PUSH1 0x20 ADD PUSH0 KECCAK256 DUP2 SWAP1 SSTORE POP PUSH32 0x238399D427B947898EDB290F5FF0F9109849B1C3BA196A42E35F00C50A54B98B DUP3 DUP3 PUSH1 0x40 MLOAD PUSH2 0x1DAF SWAP3 SWAP2 SWAP1 PUSH2 0x3EDA JUMP JUMPDEST PUSH1 0x40 MLOAD DUP1 SWAP2 SUB SWAP1 LOG1 POP POP JUMP JUMPDEST PUSH1 0x60 DUP1 PUSH0 PUSH2 0x1E27 DUP6 PUSH1 0x20 ADD CALLDATALOAD PUSH2 0x1DD0 DUP7 PUSH2 0x295C JUMP JUMPDEST DUP8 DUP1 PUSH1 0xA0 ADD SWAP1 PUSH2 0x1DE0 SWAP2 SWAP1 PUSH2 0x42BA JUMP JUMPDEST DUP1 DUP1 PUSH1 0x1F ADD PUSH1 0x20 DUP1 SWAP2 DIV MUL PUSH1 0x20 ADD PUSH1 0x40 MLOAD SWAP1 DUP2 ADD PUSH1 0x40 MSTORE DUP1 SWAP4 SWAP3 SWAP2 SWAP1 DUP2 DUP2 MSTORE PUSH1 0x20 ADD DUP4 DUP4 DUP1 DUP3 DUP5 CALLDATACOPY PUSH0 DUP2 DUP5 ADD MSTORE PUSH1 0x1F NOT PUSH1 0x1F DUP3 ADD AND SWAP1 POP DUP1 DUP4 ADD SWAP3 POP POP POP POP POP POP POP PUSH2 0x2990 JUMP JUMPDEST DUP1 SWAP3 POP DUP2 SWAP5 POP POP POP PUSH0 DUP2 PUSH2 0x1E3C JUMPI PUSH1 0x1 PUSH2 0x1E3F JUMP JUMPDEST PUSH1 0x2 JUMPDEST SWAP1 POP PUSH2 0x1E6C DUP7 PUSH0 ADD PUSH1 0x20 DUP2 ADD SWAP1 PUSH2 0x1E56 SWAP2 SWAP1 PUSH2 0x3ABA JUMP JUMPDEST DUP3 DUP9 DUP1 PUSH1 0x80 ADD SWAP1 PUSH2 0x1E67 SWAP2 SWAP1 PUSH2 0x42BA JUMP JUMPDEST PUSH2 0x1210 JUMP JUMPDEST SWAP3 POP PUSH0 PUSH1 0x4 PUSH0 SWAP1 SLOAD SWAP1 PUSH2 0x100 EXP SWAP1 DIV PUSH20 0xFFFFFFFFFFFFFFFFFFFFFFFFFFFFFFFFFFFFFFFF AND SWAP1 POP PUSH0 PUSH20 0xFFFFFFFFFFFFFFFFFFFFFFFFFFFFFFFFFFFFFFFF AND DUP2 PUSH20 0xFFFFFFFFFFFFFFFFFFFFFFFFFFFFFFFFFFFFFFFF AND EQ PUSH2 0x1F42 JUMPI DUP1 PUSH20 0xFFFFFFFFFFFFFFFFFFFFFFFFFFFFFFFFFFFFFFFF AND PUSH4 0x43A78EB DUP7 DUP7 PUSH1 0x40 MLOAD DUP4 PUSH4 0xFFFFFFFF AND PUSH1 0xE0 SHL DUP2 MSTORE PUSH1 0x4 ADD PUSH2 0x1F01 SWAP3 SWAP2 SWAP1 PUSH2 0x4651 JUMP JUMPDEST PUSH1 0x20 PUSH1 0x40 MLOAD DUP1 DUP4 SUB DUP2 DUP7 GAS STATICCALL ISZERO DUP1 ISZERO PUSH2 0x1F1C JUMPI RETURNDATASIZE PUSH0 DUP1 RETURNDATACOPY RETURNDATASIZE PUSH0 REVERT JUMPDEST POP POP POP POP PUSH1 0x40 MLOAD RETURNDATASIZE PUSH1 0x1F NOT PUSH1 0x1F DUP3 ADD AND DUP3 ADD DUP1 PUSH1 0x40 MSTORE POP DUP2 ADD SWAP1 PUSH2 0x1F40 SWAP2 SWAP1 PUSH2 0x469A JUMP JUMPDEST POP JUMPDEST POP POP POP SWAP3 POP SWAP3 SWAP1 POP JUMP JUMPDEST PUSH2 0x1F54 PUSH2 0x2F54 JUMP JUMPDEST PUSH32 0x0 PUSH20 0xFFFFFFFFFFFFFFFFFFFFFFFFFFFFFFFFFFFFFFFF AND PUSH4 0xDDC28C58 PUSH1 0x40 MLOAD DUP1 PUSH1 0xA0 ADD PUSH1 0x40 MSTORE DUP1 DUP9 PUSH4 0xFFFFFFFF AND DUP2 MSTORE PUSH1 0x20 ADD PUSH2 0x1FB0 DUP10 PUSH2 0x1957 JUMP JUMPDEST DUP2 MSTORE PUSH1 0x20 ADD DUP8 DUP2 MSTORE PUSH1 0x20 ADD DUP7 DUP2 MSTORE PUSH1 0x20 ADD DUP6 ISZERO ISZERO DUP2 MSTORE POP ADDRESS PUSH1 0x40 MLOAD DUP4 PUSH4 0xFFFFFFFF AND PUSH1 0xE0 SHL DUP2 MSTORE PUSH1 0x4 ADD PUSH2 0x1FE5 SWAP3 SWAP2 SWAP1 PUSH2 0x4796 JUMP JUMPDEST PUSH1 0x40 DUP1 MLOAD DUP1 DUP4 SUB DUP2 DUP7 GAS STATICCALL ISZERO DUP1 ISZERO PUSH2 0x1FFF JUMPI RETURNDATASIZE PUSH0 DUP1 RETURNDATACOPY RETURNDATASIZE PUSH0 REVERT JUMPDEST POP POP POP POP PUSH1 0x40 MLOAD RETURNDATASIZE PUSH1 0x1F NOT PUSH1 0x1F DUP3 ADD AND DUP3 ADD DUP1 PUSH1 0x40 MSTORE POP DUP2 ADD SWAP1 PUSH2 0x2023 SWAP2 SWAP1 PUSH2 0x4811 JUMP JUMPDEST SWAP1 POP SWAP5 SWAP4 POP POP POP POP JUMP JUMPDEST PUSH0 DUP1 PUSH0 SWAP1 SLOAD SWAP1 PUSH2 0x100 EXP SWAP1 DIV PUSH20 0xFFFFFFFFFFFFFFFFFFFFFFFFFFFFFFFFFFFFFFFF AND SWAP1 POP DUP2 PUSH0 DUP1 PUSH2 0x100 EXP DUP2 SLOAD DUP2 PUSH20 0xFFFFFFFFFFFFFFFFFFFFFFFFFFFFFFFFFFFFFFFF MUL NOT AND SWAP1 DUP4 PUSH20 0xFFFFFFFFFFFFFFFFFFFFFFFFFFFFFFFFFFFFFFFF AND MUL OR SWAP1 SSTORE POP DUP2 PUSH20 0xFFFFFFFFFFFFFFFFFFFFFFFFFFFFFFFFFFFFFFFF AND DUP2 PUSH20 0xFFFFFFFFFFFFFFFFFFFFFFFFFFFFFFFFFFFFFFFF AND PUSH32 0x8BE0079C531659141344CD1FD0A4F28419497F9722A3DAAFE3B4186F6B6457E0 PUSH1 0x40 MLOAD PUSH1 0x40 MLOAD DUP1 SWAP2 SUB SWAP1 LOG3 POP POP JUMP JUMPDEST PUSH0 JUMPDEST DUP2 MLOAD DUP2 LT ISZERO PUSH2 0x21C8 JUMPI PUSH2 0x2120 DUP3 DUP3 DUP2 MLOAD DUP2 LT PUSH2 0x210F JUMPI PUSH2 0x210E PUSH2 0x4259 JUMP JUMPDEST JUMPDEST PUSH1 0x20 MUL PUSH1 0x20 ADD ADD MLOAD PUSH1 0x40 ADD MLOAD PUSH2 0x2203 JUMP JUMPDEST DUP2 DUP2 DUP2 MLOAD DUP2 LT PUSH2 0x2133 JUMPI PUSH2 0x2132 PUSH2 0x4259 JUMP JUMPDEST JUMPDEST PUSH1 0x20 MUL PUSH1 0x20 ADD ADD MLOAD PUSH1 0x40 ADD MLOAD PUSH1 0x3 PUSH0 DUP5 DUP5 DUP2 MLOAD DUP2 LT PUSH2 0x2155 JUMPI PUSH2 0x2154 PUSH2 0x4259 JUMP JUMPDEST JUMPDEST PUSH1 0x20 MUL PUSH1 0x20 ADD ADD MLOAD PUSH0 ADD MLOAD PUSH4 0xFFFFFFFF AND PUSH4 0xFFFFFFFF AND DUP2 MSTORE PUSH1 0x20 ADD SWAP1 DUP2 MSTORE PUSH1 0x20 ADD PUSH0 KECCAK256 PUSH0 DUP5 DUP5 DUP2 MLOAD DUP2 LT PUSH2 0x218D JUMPI PUSH2 0x218C PUSH2 0x4259 JUMP JUMPDEST JUMPDEST PUSH1 0x20 MUL PUSH1 0x20 ADD ADD MLOAD PUSH1 0x20 ADD MLOAD PUSH2 0xFFFF AND PUSH2 0xFFFF AND DUP2 MSTORE PUSH1 0x20 ADD SWAP1 DUP2 MSTORE PUSH1 0x20 ADD PUSH0 KECCAK256 SWAP1 DUP2 PUSH2 0x21BA SWAP2 SWAP1 PUSH2 0x49D0 JUMP JUMPDEST POP DUP1 DUP1 PUSH1 0x1 ADD SWAP2 POP POP PUSH2 0x20F0 JUMP JUMPDEST POP PUSH32 0xBE4864A8E820971C0247F5992E2DA559595F7BF076A21CB5928D443D2A13B674 DUP2 PUSH1 0x40 MLOAD PUSH2 0x21F8 SWAP2 SWAP1 PUSH2 0x4BB6 JUMP JUMPDEST PUSH1 0x40 MLOAD DUP1 SWAP2 SUB SWAP1 LOG1 POP JUMP JUMPDEST PUSH0 PUSH1 0x2 DUP3 ADD MLOAD SWAP1 POP PUSH1 0x3 PUSH2 0xFFFF AND DUP2 PUSH2 0xFFFF AND EQ PUSH2 0x2258 JUMPI DUP2 PUSH1 0x40 MLOAD PUSH32 0x9A6D49CD00000000000000000000000000000000000000000000000000000000 DUP2 MSTORE PUSH1 0x4 ADD PUSH2 0x224F SWAP2 SWAP1 PUSH2 0x38D1 JUMP JUMPDEST PUSH1 0x40 MLOAD DUP1 SWAP2 SUB SWAP1 REVERT JUMPDEST POP POP JUMP JUMPDEST PUSH2 0x2264 PUSH2 0x2F6C JUMP JUMPDEST PUSH2 0x226C PUSH2 0x2F23 JUMP JUMPDEST PUSH0 DUP1 PUSH2 0x2293 CALLER DUP9 PUSH1 0x40 ADD CALLDATALOAD DUP10 PUSH1 0x60 ADD CALLDATALOAD DUP11 PUSH0 ADD PUSH1 0x20 DUP2 ADD SWAP1 PUSH2 0x228E SWAP2 SWAP1 PUSH2 0x3ABA JUMP JUMPDEST PUSH2 0x29FE JUMP JUMPDEST SWAP2 POP SWAP2 POP PUSH0 DUP1 PUSH2 0x22A3 DUP10 DUP5 PUSH2 0x1DBB JUMP JUMPDEST SWAP2 POP SWAP2 POP PUSH2 0x22D5 DUP10 PUSH0 ADD PUSH1 0x20 DUP2 ADD SWAP1 PUSH2 0x22BC SWAP2 SWAP1 PUSH2 0x3ABA JUMP JUMPDEST DUP4 DUP4 DUP12 DUP1 CALLDATASIZE SUB DUP2 ADD SWAP1 PUSH2 0x22CF SWAP2 SWAP1 PUSH2 0x4C23 JUMP JUMPDEST DUP12 PUSH2 0x2A26 JUMP JUMPDEST SWAP6 POP PUSH1 0x40 MLOAD DUP1 PUSH1 0x40 ADD PUSH1 0x40 MSTORE DUP1 DUP6 DUP2 MSTORE PUSH1 0x20 ADD DUP5 DUP2 MSTORE POP SWAP5 POP CALLER PUSH20 0xFFFFFFFFFFFFFFFFFFFFFFFFFFFFFFFFFFFFFFFF AND DUP7 PUSH0 ADD MLOAD PUSH32 0x85496B760A4B7F8D66384B9DF21B381F5D1B1E79F229A47AAF4C232EDC2FE59A DUP12 PUSH0 ADD PUSH1 0x20 DUP2 ADD SWAP1 PUSH2 0x233C SWAP2 SWAP1 PUSH2 0x3ABA JUMP JUMPDEST DUP8 DUP8 PUSH1 0x40 MLOAD PUSH2 0x234D SWAP4 SWAP3 SWAP2 SWAP1 PUSH2 0x4C4E JUMP JUMPDEST PUSH1 0x40 MLOAD DUP1 SWAP2 SUB SWAP1 LOG3 POP POP POP POP SWAP4 POP SWAP4 SWAP2 POP POP JUMP JUMPDEST PUSH2 0x2370 DUP8 DUP8 DUP8 DUP8 DUP8 DUP8 DUP8 PUSH2 0x19C8 JUMP JUMPDEST POP POP POP POP POP POP POP JUMP JUMPDEST PUSH0 PUSH20 0xFFFFFFFFFFFFFFFFFFFFFFFFFFFFFFFFFFFFFFFF AND DUP5 PUSH20 0xFFFFFFFFFFFFFFFFFFFFFFFFFFFFFFFFFFFFFFFF AND SUB PUSH2 0x23E9 JUMPI PUSH0 PUSH1 0x40 MLOAD PUSH32 0xE602DF0500000000000000000000000000000000000000000000000000000000 DUP2 MSTORE PUSH1 0x4 ADD PUSH2 0x23E0 SWAP2 SWAP1 PUSH2 0x33C9 JUMP JUMPDEST PUSH1 0x40 MLOAD DUP1 SWAP2 SUB SWAP1 REVERT JUMPDEST PUSH0 PUSH20 0xFFFFFFFFFFFFFFFFFFFFFFFFFFFFFFFFFFFFFFFF AND DUP4 PUSH20 0xFFFFFFFFFFFFFFFFFFFFFFFFFFFFFFFFFFFFFFFF AND SUB PUSH2 0x2459 JUMPI PUSH0 PUSH1 0x40 MLOAD PUSH32 0x94280D6200000000000000000000000000000000000000000000000000000000 DUP2 MSTORE PUSH1 0x4 ADD PUSH2 0x2450 SWAP2 SWAP1 PUSH2 0x33C9 JUMP JUMPDEST PUSH1 0x40 MLOAD DUP1 SWAP2 SUB SWAP1 REVERT JUMPDEST DUP2 PUSH1 0x6 PUSH0 DUP7 PUSH20 0xFFFFFFFFFFFFFFFFFFFFFFFFFFFFFFFFFFFFFFFF AND PUSH20 0xFFFFFFFFFFFFFFFFFFFFFFFFFFFFFFFFFFFFFFFF AND DUP2 MSTORE PUSH1 0x20 ADD SWAP1 DUP2 MSTORE PUSH1 0x20 ADD PUSH0 KECCAK256 PUSH0 DUP6 PUSH20 0xFFFFFFFFFFFFFFFFFFFFFFFFFFFFFFFFFFFFFFFF AND PUSH20 0xFFFFFFFFFFFFFFFFFFFFFFFFFFFFFFFFFFFFFFFF AND DUP2 MSTORE PUSH1 0x20 ADD SWAP1 DUP2 MSTORE PUSH1 0x20 ADD PUSH0 KECCAK256 DUP2 SWAP1 SSTORE POP DUP1 ISZERO PUSH2 0x2542 JUMPI DUP3 PUSH20 0xFFFFFFFFFFFFFFFFFFFFFFFFFFFFFFFFFFFFFFFF AND DUP5 PUSH20 0xFFFFFFFFFFFFFFFFFFFFFFFFFFFFFFFFFFFFFFFF AND PUSH32 0x8C5BE1E5EBEC7D5BD14F71427D1E84F3DD0314C0F7B2291E5B200AC8C7C3B925 DUP5 PUSH1 0x40 MLOAD PUSH2 0x2539 SWAP2 SWAP1 PUSH2 0x3639 JUMP JUMPDEST PUSH1 0x40 MLOAD DUP1 SWAP2 SUB SWAP1 LOG3 JUMPDEST POP POP POP POP JUMP JUMPDEST PUSH0 PUSH32 0x0 PUSH32 0x0 DUP4 PUSH2 0x2596 SWAP2 SWAP1 PUSH2 0x4CDD JUMP JUMPDEST PUSH2 0x25A0 SWAP2 SWAP1 PUSH2 0x4D0D JUMP JUMPDEST SWAP1 POP SWAP2 SWAP1 POP JUMP JUMPDEST PUSH0 DUP3 DUP3 PUSH0 SWAP1 PUSH1 0x20 PUSH1 0xFF AND SWAP3 PUSH2 0x25BE SWAP4 SWAP3 SWAP2 SWAP1 PUSH2 0x414E JUMP JUMPDEST SWAP1 PUSH2 0x25C9 SWAP2 SWAP1 PUSH2 0x4D58 JUMP JUMPDEST SWAP1 POP SWAP3 SWAP2 POP POP JUMP JUMPDEST PUSH0 DUP2 PUSH0 SHR SWAP1 POP SWAP2 SWAP1 POP JUMP JUMPDEST PUSH0 DUP3 DUP3 PUSH1 0x20 PUSH1 0xFF AND SWAP1 PUSH1 0x28 PUSH1 0xFF AND SWAP3 PUSH2 0x25F7 SWAP4 SWAP3 SWAP2 SWAP1 PUSH2 0x414E JUMP JUMPDEST SWAP1 PUSH2 0x2602 SWAP2 SWAP1 PUSH2 0x4DE1 JUMP JUMPDEST PUSH1 0xC0 SHR SWAP1 POP SWAP3 SWAP2 POP POP JUMP JUMPDEST PUSH0 PUSH32 0x0 DUP3 PUSH8 0xFFFFFFFFFFFFFFFF AND PUSH2 0x2644 SWAP2 SWAP1 PUSH2 0x4D0D JUMP JUMPDEST SWAP1 POP SWAP2 SWAP1 POP JUMP JUMPDEST PUSH0 DUP1 PUSH20 0xFFFFFFFFFFFFFFFFFFFFFFFFFFFFFFFFFFFFFFFF AND DUP5 PUSH20 0xFFFFFFFFFFFFFFFFFFFFFFFFFFFFFFFFFFFFFFFF AND SUB PUSH2 0x2685 JUMPI PUSH2 0xDEAD SWAP4 POP JUMPDEST PUSH2 0x268F DUP5 DUP5 PUSH2 0x2B3C JUMP JUMPDEST DUP3 SWAP1 POP SWAP4 SWAP3 POP POP POP JUMP JUMPDEST PUSH0 PUSH1 0x28 PUSH1 0xFF AND DUP4 DUP4 SWAP1 POP GT SWAP1 POP SWAP3 SWAP2 POP POP JUMP JUMPDEST PUSH1 0x60 DUP3 DUP3 PUSH1 0x28 PUSH1 0xFF AND SWAP1 DUP1 SWAP3 PUSH2 0x26C4 SWAP4 SWAP3 SWAP2 SWAP1 PUSH2 0x414E JUMP JUMPDEST DUP1 DUP1 PUSH1 0x1F ADD PUSH1 0x20 DUP1 SWAP2 DIV MUL PUSH1 0x20 ADD PUSH1 0x40 MLOAD SWAP1 DUP2 ADD PUSH1 0x40 MSTORE DUP1 SWAP4 SWAP3 SWAP2 SWAP1 DUP2 DUP2 MSTORE PUSH1 0x20 ADD DUP4 DUP4 DUP1 DUP3 DUP5 CALLDATACOPY PUSH0 DUP2 DUP5 ADD MSTORE PUSH1 0x1F NOT PUSH1 0x1F DUP3 ADD AND SWAP1 POP DUP1 DUP4 ADD SWAP3 POP POP POP POP POP POP POP SWAP1 POP SWAP3 SWAP2 POP POP JUMP JUMPDEST PUSH1 0x60 DUP5 DUP5 DUP5 DUP5 PUSH1 0x40 MLOAD PUSH1 0x20 ADD PUSH2 0x2727 SWAP5 SWAP4 SWAP3 SWAP2 SWAP1 PUSH2 0x4EC7 JUMP JUMPDEST PUSH1 0x40 MLOAD PUSH1 0x20 DUP2 DUP4 SUB SUB DUP2 MSTORE SWAP1 PUSH1 0x40 MSTORE SWAP1 POP SWAP5 SWAP4 POP POP POP POP JUMP JUMPDEST PUSH0 PUSH20 0xFFFFFFFFFFFFFFFFFFFFFFFFFFFFFFFFFFFFFFFF AND DUP4 PUSH20 0xFFFFFFFFFFFFFFFFFFFFFFFFFFFFFFFFFFFFFFFF AND SUB PUSH2 0x2790 JUMPI DUP1 PUSH1 0x7 PUSH0 DUP3 DUP3 SLOAD PUSH2 0x2784 SWAP2 SWAP1 PUSH2 0x4F10 JUMP JUMPDEST SWAP3 POP POP DUP2 SWAP1 SSTORE POP PUSH2 0x2860 JUMP JUMPDEST PUSH0 PUSH1 0x5 PUSH0 DUP6 PUSH20 0xFFFFFFFFFFFFFFFFFFFFFFFFFFFFFFFFFFFFFFFF AND PUSH20 0xFFFFFFFFFFFFFFFFFFFFFFFFFFFFFFFFFFFFFFFF AND DUP2 MSTORE PUSH1 0x20 ADD SWAP1 DUP2 MSTORE PUSH1 0x20 ADD PUSH0 KECCAK256 SLOAD SWAP1 POP DUP2 DUP2 LT ISZERO PUSH2 0x281A JUMPI DUP4 DUP2 DUP4 PUSH1 0x40 MLOAD PUSH32 0xE450D38C00000000000000000000000000000000000000000000000000000000 DUP2 MSTORE PUSH1 0x4 ADD PUSH2 0x2811 SWAP4 SWAP3 SWAP2 SWAP1 PUSH2 0x461C JUMP JUMPDEST PUSH1 0x40 MLOAD DUP1 SWAP2 SUB SWAP1 REVERT JUMPDEST DUP2 DUP2 SUB PUSH1 0x5 PUSH0 DUP7 PUSH20 0xFFFFFFFFFFFFFFFFFFFFFFFFFFFFFFFFFFFFFFFF AND PUSH20 0xFFFFFFFFFFFFFFFFFFFFFFFFFFFFFFFFFFFFFFFF AND DUP2 MSTORE PUSH1 0x20 ADD SWAP1 DUP2 MSTORE PUSH1 0x20 ADD PUSH0 KECCAK256 DUP2 SWAP1 SSTORE POP POP JUMPDEST PUSH0 PUSH20 0xFFFFFFFFFFFFFFFFFFFFFFFFFFFFFFFFFFFFFFFF AND DUP3 PUSH20 0xFFFFFFFFFFFFFFFFFFFFFFFFFFFFFFFFFFFFFFFF AND SUB PUSH2 0x28A7 JUMPI DUP1 PUSH1 0x7 PUSH0 DUP3 DUP3 SLOAD SUB SWAP3 POP POP DUP2 SWAP1 SSTORE POP PUSH2 0x28F2 JUMP JUMPDEST DUP1 PUSH1 0x5 PUSH0 DUP5 PUSH20 0xFFFFFFFFFFFFFFFFFFFFFFFFFFFFFFFFFFFFFFFF AND PUSH20 0xFFFFFFFFFFFFFFFFFFFFFFFFFFFFFFFFFFFFFFFF AND DUP2 MSTORE PUSH1 0x20 ADD SWAP1 DUP2 MSTORE PUSH1 0x20 ADD PUSH0 KECCAK256 PUSH0 DUP3 DUP3 SLOAD ADD SWAP3 POP POP DUP2 SWAP1 SSTORE POP JUMPDEST DUP2 PUSH20 0xFFFFFFFFFFFFFFFFFFFFFFFFFFFFFFFFFFFFFFFF AND DUP4 PUSH20 0xFFFFFFFFFFFFFFFFFFFFFFFFFFFFFFFFFFFFFFFF AND PUSH32 0xDDF252AD1BE2C89B69C2B068FC378DAA952BA7F163C4A11628F55A4DF523B3EF DUP4 PUSH1 0x40 MLOAD PUSH2 0x294F SWAP2 SWAP1 PUSH2 0x3639 JUMP JUMPDEST PUSH1 0x40 MLOAD DUP1 SWAP2 SUB SWAP1 LOG3 POP POP POP JUMP JUMPDEST PUSH0 PUSH32 0x0 DUP3 PUSH2 0x2989 SWAP2 SWAP1 PUSH2 0x4CDD JUMP JUMPDEST SWAP1 POP SWAP2 SWAP1 POP JUMP JUMPDEST PUSH1 0x60 PUSH0 DUP1 DUP4 MLOAD GT SWAP1 POP DUP1 PUSH2 0x29C5 JUMPI DUP5 DUP5 PUSH1 0x40 MLOAD PUSH1 0x20 ADD PUSH2 0x29B1 SWAP3 SWAP2 SWAP1 PUSH2 0x4F63 JUMP JUMPDEST PUSH1 0x40 MLOAD PUSH1 0x20 DUP2 DUP4 SUB SUB DUP2 MSTORE SWAP1 PUSH1 0x40 MSTORE PUSH2 0x29F4 JUMP JUMPDEST DUP5 DUP5 PUSH2 0x29D0 CALLER PUSH2 0x2BBB JUMP JUMPDEST DUP6 PUSH1 0x40 MLOAD PUSH1 0x20 ADD PUSH2 0x29E4 SWAP5 SWAP4 SWAP3 SWAP2 SWAP1 PUSH2 0x4F8E JUMP JUMPDEST PUSH1 0x40 MLOAD PUSH1 0x20 DUP2 DUP4 SUB SUB DUP2 MSTORE SWAP1 PUSH1 0x40 MSTORE JUMPDEST SWAP2 POP SWAP4 POP SWAP4 SWAP2 POP POP JUMP JUMPDEST PUSH0 DUP1 PUSH2 0x2A0B DUP6 DUP6 DUP6 PUSH2 0x18F8 JUMP JUMPDEST DUP1 SWAP3 POP DUP2 SWAP4 POP POP POP PUSH2 0x2A1D DUP7 DUP4 PUSH2 0x2BDC JUMP JUMPDEST SWAP5 POP SWAP5 SWAP3 POP POP POP JUMP JUMPDEST PUSH2 0x2A2E PUSH2 0x2F6C JUMP JUMPDEST PUSH0 PUSH2 0x2A3B DUP5 PUSH0 ADD MLOAD PUSH2 0x2C5B JUMP JUMPDEST SWAP1 POP PUSH0 DUP5 PUSH1 0x20 ADD MLOAD GT ISZERO PUSH2 0x2A57 JUMPI PUSH2 0x2A56 DUP5 PUSH1 0x20 ADD MLOAD PUSH2 0x2CA8 JUMP JUMPDEST JUMPDEST PUSH32 0x0 PUSH20 0xFFFFFFFFFFFFFFFFFFFFFFFFFFFFFFFFFFFFFFFF AND PUSH4 0x2637A450 DUP3 PUSH1 0x40 MLOAD DUP1 PUSH1 0xA0 ADD PUSH1 0x40 MSTORE DUP1 DUP12 PUSH4 0xFFFFFFFF AND DUP2 MSTORE PUSH1 0x20 ADD PUSH2 0x2AB4 DUP13 PUSH2 0x1957 JUMP JUMPDEST DUP2 MSTORE PUSH1 0x20 ADD DUP11 DUP2 MSTORE PUSH1 0x20 ADD DUP10 DUP2 MSTORE PUSH1 0x20 ADD PUSH0 DUP10 PUSH1 0x20 ADD MLOAD GT ISZERO ISZERO DUP2 MSTORE POP DUP7 PUSH1 0x40 MLOAD DUP5 PUSH4 0xFFFFFFFF AND PUSH1 0xE0 SHL DUP2 MSTORE PUSH1 0x4 ADD PUSH2 0x2AEF SWAP3 SWAP2 SWAP1 PUSH2 0x4796 JUMP JUMPDEST PUSH1 0x80 PUSH1 0x40 MLOAD DUP1 DUP4 SUB DUP2 DUP6 DUP9 GAS CALL ISZERO DUP1 ISZERO PUSH2 0x2B0B JUMPI RETURNDATASIZE PUSH0 DUP1 RETURNDATACOPY RETURNDATASIZE PUSH0 REVERT JUMPDEST POP POP POP POP POP PUSH1 0x40 MLOAD RETURNDATASIZE PUSH1 0x1F NOT PUSH1 0x1F DUP3 ADD AND DUP3 ADD DUP1 PUSH1 0x40 MSTORE POP DUP2 ADD SWAP1 PUSH2 0x2B30 SWAP2 SWAP1 PUSH2 0x5060 JUMP JUMPDEST SWAP2 POP POP SWAP6 SWAP5 POP POP POP POP POP JUMP JUMPDEST PUSH0 PUSH20 0xFFFFFFFFFFFFFFFFFFFFFFFFFFFFFFFFFFFFFFFF AND DUP3 PUSH20 0xFFFFFFFFFFFFFFFFFFFFFFFFFFFFFFFFFFFFFFFF AND SUB PUSH2 0x2BAC JUMPI PUSH0 PUSH1 0x40 MLOAD PUSH32 0xEC442F0500000000000000000000000000000000000000000000000000000000 DUP2 MSTORE PUSH1 0x4 ADD PUSH2 0x2BA3 SWAP2 SWAP1 PUSH2 0x33C9 JUMP JUMPDEST PUSH1 0x40 MLOAD DUP1 SWAP2 SUB SWAP1 REVERT JUMPDEST PUSH2 0x2BB7 PUSH0 DUP4 DUP4 PUSH2 0x2740 JUMP JUMPDEST POP POP JUMP JUMPDEST PUSH0 DUP2 PUSH20 0xFFFFFFFFFFFFFFFFFFFFFFFFFFFFFFFFFFFFFFFF AND PUSH0 SHL SWAP1 POP SWAP2 SWAP1 POP JUMP JUMPDEST PUSH0 PUSH20 0xFFFFFFFFFFFFFFFFFFFFFFFFFFFFFFFFFFFFFFFF AND DUP3 PUSH20 0xFFFFFFFFFFFFFFFFFFFFFFFFFFFFFFFFFFFFFFFF AND SUB PUSH2 0x2C4C JUMPI PUSH0 PUSH1 0x40 MLOAD PUSH32 0x96C6FD1E00000000000000000000000000000000000000000000000000000000 DUP2 MSTORE PUSH1 0x4 ADD PUSH2 0x2C43 SWAP2 SWAP1 PUSH2 0x33C9 JUMP JUMPDEST PUSH1 0x40 MLOAD DUP1 SWAP2 SUB SWAP1 REVERT JUMPDEST PUSH2 0x2C57 DUP3 PUSH0 DUP4 PUSH2 0x2740 JUMP JUMPDEST POP POP JUMP JUMPDEST PUSH0 DUP2 CALLVALUE EQ PUSH2 0x2CA0 JUMPI CALLVALUE PUSH1 0x40 MLOAD PUSH32 0x9F70412000000000000000000000000000000000000000000000000000000000 DUP2 MSTORE PUSH1 0x4 ADD PUSH2 0x2C97 SWAP2 SWAP1 PUSH2 0x3639 JUMP JUMPDEST PUSH1 0x40 MLOAD DUP1 SWAP2 SUB SWAP1 REVERT JUMPDEST DUP2 SWAP1 POP SWAP2 SWAP1 POP JUMP JUMPDEST PUSH0 PUSH32 0x0 PUSH20 0xFFFFFFFFFFFFFFFFFFFFFFFFFFFFFFFFFFFFFFFF AND PUSH4 0xE4FE1D94 PUSH1 0x40 MLOAD DUP2 PUSH4 0xFFFFFFFF AND PUSH1 0xE0 SHL DUP2 MSTORE PUSH1 0x4 ADD PUSH1 0x20 PUSH1 0x40 MLOAD DUP1 DUP4 SUB DUP2 DUP7 GAS STATICCALL ISZERO DUP1 ISZERO PUSH2 0x2D12 JUMPI RETURNDATASIZE PUSH0 DUP1 RETURNDATACOPY RETURNDATASIZE PUSH0 REVERT JUMPDEST POP POP POP POP PUSH1 0x40 MLOAD RETURNDATASIZE PUSH1 0x1F NOT PUSH1 0x1F DUP3 ADD AND DUP3 ADD DUP1 PUSH1 0x40 MSTORE POP DUP2 ADD SWAP1 PUSH2 0x2D36 SWAP2 SWAP1 PUSH2 0x3E34 JUMP JUMPDEST SWAP1 POP PUSH0 PUSH20 0xFFFFFFFFFFFFFFFFFFFFFFFFFFFFFFFFFFFFFFFF AND DUP2 PUSH20 0xFFFFFFFFFFFFFFFFFFFFFFFFFFFFFFFFFFFFFFFF AND SUB PUSH2 0x2D9D JUMPI PUSH1 0x40 MLOAD PUSH32 0x5373352A00000000000000000000000000000000000000000000000000000000 DUP2 MSTORE PUSH1 0x4 ADD PUSH1 0x40 MLOAD DUP1 SWAP2 SUB SWAP1 REVERT JUMPDEST PUSH2 0x2DEA CALLER PUSH32 0x0 DUP5 DUP5 PUSH20 0xFFFFFFFFFFFFFFFFFFFFFFFFFFFFFFFFFFFFFFFF AND PUSH2 0x2DEE SWAP1 SWAP4 SWAP3 SWAP2 SWAP1 PUSH4 0xFFFFFFFF AND JUMP JUMPDEST POP POP JUMP JUMPDEST PUSH2 0x2E6A DUP5 DUP6 PUSH20 0xFFFFFFFFFFFFFFFFFFFFFFFFFFFFFFFFFFFFFFFF AND PUSH4 0x23B872DD DUP7 DUP7 DUP7 PUSH1 0x40 MLOAD PUSH1 0x24 ADD PUSH2 0x2E23 SWAP4 SWAP3 SWAP2 SWAP1 PUSH2 0x508B JUMP JUMPDEST PUSH1 0x40 MLOAD PUSH1 0x20 DUP2 DUP4 SUB SUB DUP2 MSTORE SWAP1 PUSH1 0x40 MSTORE SWAP2 POP PUSH1 0xE0 SHL PUSH1 0x20 DUP3 ADD DUP1 MLOAD PUSH28 0xFFFFFFFFFFFFFFFFFFFFFFFFFFFFFFFFFFFFFFFFFFFFFFFFFFFFFFFF DUP4 DUP2 DUP4 AND OR DUP4 MSTORE POP POP POP POP PUSH2 0x2E70 JUMP JUMPDEST POP POP POP POP JUMP JUMPDEST PUSH0 DUP1 PUSH1 0x20 PUSH0 DUP5 MLOAD PUSH1 0x20 DUP7 ADD PUSH0 DUP9 GAS CALL DUP1 PUSH2 0x2E8F JUMPI PUSH1 0x40 MLOAD RETURNDATASIZE PUSH0 DUP3 RETURNDATACOPY RETURNDATASIZE DUP2 REVERT JUMPDEST RETURNDATASIZE SWAP3 POP PUSH0 MLOAD SWAP2 POP POP PUSH0 DUP3 EQ PUSH2 0x2EA8 JUMPI PUSH1 0x1 DUP2 EQ ISZERO PUSH2 0x2EC3 JUMP JUMPDEST PUSH0 DUP5 PUSH20 0xFFFFFFFFFFFFFFFFFFFFFFFFFFFFFFFFFFFFFFFF AND EXTCODESIZE EQ JUMPDEST ISZERO PUSH2 0x2F05 JUMPI DUP4 PUSH1 0x40 MLOAD PUSH32 0x5274AFE700000000000000000000000000000000000000000000000000000000 DUP2 MSTORE PUSH1 0x4 ADD PUSH2 0x2EFC SWAP2 SWAP1 PUSH2 0x33C9 JUMP JUMPDEST PUSH1 0x40 MLOAD DUP1 SWAP2 SUB SWAP1 REVERT JUMPDEST POP POP POP POP JUMP JUMPDEST PUSH1 0x40 MLOAD DUP1 PUSH1 0x40 ADD PUSH1 0x40 MSTORE DUP1 PUSH0 DUP2 MSTORE PUSH1 0x20 ADD PUSH0 DUP2 MSTORE POP SWAP1 JUMP JUMPDEST PUSH1 0x40 MLOAD DUP1 PUSH1 0x40 ADD PUSH1 0x40 MSTORE DUP1 PUSH0 DUP2 MSTORE PUSH1 0x20 ADD PUSH0 DUP2 MSTORE POP SWAP1 JUMP JUMPDEST PUSH1 0x40 MLOAD DUP1 PUSH1 0x40 ADD PUSH1 0x40 MSTORE DUP1 PUSH0 DUP2 MSTORE PUSH1 0x20 ADD PUSH1 0x60 DUP2 MSTORE POP SWAP1 JUMP JUMPDEST PUSH1 0x40 MLOAD DUP1 PUSH1 0x40 ADD PUSH1 0x40 MSTORE DUP1 PUSH0 DUP2 MSTORE PUSH1 0x20 ADD PUSH0 DUP2 MSTORE POP SWAP1 JUMP JUMPDEST PUSH1 0x40 MLOAD DUP1 PUSH1 0x60 ADD PUSH1 0x40 MSTORE DUP1 PUSH0 DUP1 NOT AND DUP2 MSTORE PUSH1 0x20 ADD PUSH0 PUSH8 0xFFFFFFFFFFFFFFFF AND DUP2 MSTORE PUSH1 0x20 ADD PUSH2 0x2F98 PUSH2 0x2F54 JUMP JUMPDEST DUP2 MSTORE POP SWAP1 JUMP JUMPDEST PUSH0 DUP2 MLOAD SWAP1 POP SWAP2 SWAP1 POP JUMP JUMPDEST PUSH0 DUP3 DUP3 MSTORE PUSH1 0x20 DUP3 ADD SWAP1 POP SWAP3 SWAP2 POP POP JUMP JUMPDEST PUSH0 JUMPDEST DUP4 DUP2 LT ISZERO PUSH2 0x2FD5 JUMPI DUP1 DUP3 ADD MLOAD DUP2 DUP5 ADD MSTORE PUSH1 0x20 DUP2 ADD SWAP1 POP PUSH2 0x2FBA JUMP JUMPDEST PUSH0 DUP5 DUP5 ADD MSTORE POP POP POP POP JUMP JUMPDEST PUSH0 PUSH1 0x1F NOT PUSH1 0x1F DUP4 ADD AND SWAP1 POP SWAP2 SWAP1 POP JUMP JUMPDEST PUSH0 PUSH2 0x2FFA DUP3 PUSH2 0x2F9E JUMP JUMPDEST PUSH2 0x3004 DUP2 DUP6 PUSH2 0x2FA8 JUMP JUMPDEST SWAP4 POP PUSH2 0x3014 DUP2 DUP6 PUSH1 0x20 DUP7 ADD PUSH2 0x2FB8 JUMP JUMPDEST PUSH2 0x301D DUP2 PUSH2 0x2FE0 JUMP JUMPDEST DUP5 ADD SWAP2 POP POP SWAP3 SWAP2 POP POP JUMP JUMPDEST PUSH0 PUSH1 0x20 DUP3 ADD SWAP1 POP DUP2 DUP2 SUB PUSH0 DUP4 ADD MSTORE PUSH2 0x3040 DUP2 DUP5 PUSH2 0x2FF0 JUMP JUMPDEST SWAP1 POP SWAP3 SWAP2 POP POP JUMP JUMPDEST PUSH0 PUSH1 0x40 MLOAD SWAP1 POP SWAP1 JUMP JUMPDEST PUSH0 DUP1 REVERT JUMPDEST PUSH0 DUP1 REVERT JUMPDEST PUSH0 PUSH20 0xFFFFFFFFFFFFFFFFFFFFFFFFFFFFFFFFFFFFFFFF DUP3 AND SWAP1 POP SWAP2 SWAP1 POP JUMP JUMPDEST PUSH0 PUSH2 0x3082 DUP3 PUSH2 0x3059 JUMP JUMPDEST SWAP1 POP SWAP2 SWAP1 POP JUMP JUMPDEST PUSH2 0x3092 DUP2 PUSH2 0x3078 JUMP JUMPDEST DUP2 EQ PUSH2 0x309C JUMPI PUSH0 DUP1 REVERT JUMPDEST POP JUMP JUMPDEST PUSH0 DUP2 CALLDATALOAD SWAP1 POP PUSH2 0x30AD DUP2 PUSH2 0x3089 JUMP JUMPDEST SWAP3 SWAP2 POP POP JUMP JUMPDEST PUSH0 DUP2 SWAP1 POP SWAP2 SWAP1 POP JUMP JUMPDEST PUSH2 0x30C5 DUP2 PUSH2 0x30B3 JUMP JUMPDEST DUP2 EQ PUSH2 0x30CF JUMPI PUSH0 DUP1 REVERT JUMPDEST POP JUMP JUMPDEST PUSH0 DUP2 CALLDATALOAD SWAP1 POP PUSH2 0x30E0 DUP2 PUSH2 0x30BC JUMP JUMPDEST SWAP3 SWAP2 POP POP JUMP JUMPDEST PUSH0 DUP1 PUSH1 0x40 DUP4 DUP6 SUB SLT ISZERO PUSH2 0x30FC JUMPI PUSH2 0x30FB PUSH2 0x3051 JUMP JUMPDEST JUMPDEST PUSH0 PUSH2 0x3109 DUP6 DUP3 DUP7 ADD PUSH2 0x309F JUMP JUMPDEST SWAP3 POP POP PUSH1 0x20 PUSH2 0x311A DUP6 DUP3 DUP7 ADD PUSH2 0x30D2 JUMP JUMPDEST SWAP2 POP POP SWAP3 POP SWAP3 SWAP1 POP JUMP JUMPDEST PUSH0 DUP2 ISZERO ISZERO SWAP1 POP SWAP2 SWAP1 POP JUMP JUMPDEST PUSH2 0x3138 DUP2 PUSH2 0x3124 JUMP JUMPDEST DUP3 MSTORE POP POP JUMP JUMPDEST PUSH0 PUSH1 0x20 DUP3 ADD SWAP1 POP PUSH2 0x3151 PUSH0 DUP4 ADD DUP5 PUSH2 0x312F JUMP JUMPDEST SWAP3 SWAP2 POP POP JUMP JUMPDEST PUSH0 DUP1 REVERT JUMPDEST PUSH0 PUSH1 0xE0 DUP3 DUP5 SUB SLT ISZERO PUSH2 0x3170 JUMPI PUSH2 0x316F PUSH2 0x3157 JUMP JUMPDEST JUMPDEST DUP2 SWAP1 POP SWAP3 SWAP2 POP POP JUMP JUMPDEST PUSH0 PUSH1 0x20 DUP3 DUP5 SUB SLT ISZERO PUSH2 0x318E JUMPI PUSH2 0x318D PUSH2 0x3051 JUMP JUMPDEST JUMPDEST PUSH0 DUP3 ADD CALLDATALOAD PUSH8 0xFFFFFFFFFFFFFFFF DUP2 GT ISZERO PUSH2 0x31AB JUMPI PUSH2 0x31AA PUSH2 0x3055 JUMP JUMPDEST JUMPDEST PUSH2 0x31B7 DUP5 DUP3 DUP6 ADD PUSH2 0x315B JUMP JUMPDEST SWAP2 POP POP SWAP3 SWAP2 POP POP JUMP JUMPDEST PUSH2 0x31C9 DUP2 PUSH2 0x30B3 JUMP JUMPDEST DUP3 MSTORE POP POP JUMP JUMPDEST PUSH1 0x40 DUP3 ADD PUSH0 DUP3 ADD MLOAD PUSH2 0x31E3 PUSH0 DUP6 ADD DUP3 PUSH2 0x31C0 JUMP JUMPDEST POP PUSH1 0x20 DUP3 ADD MLOAD PUSH2 0x31F6 PUSH1 0x20 DUP6 ADD DUP3 PUSH2 0x31C0 JUMP JUMPDEST POP POP POP POP JUMP JUMPDEST PUSH0 DUP2 MLOAD SWAP1 POP SWAP2 SWAP1 POP JUMP JUMPDEST PUSH0 DUP3 DUP3 MSTORE PUSH1 0x20 DUP3 ADD SWAP1 POP SWAP3 SWAP2 POP POP JUMP JUMPDEST PUSH0 DUP2 SWAP1 POP PUSH1 0x20 DUP3 ADD SWAP1 POP SWAP2 SWAP1 POP JUMP JUMPDEST PUSH0 DUP2 SWAP1 POP SWAP2 SWAP1 POP JUMP JUMPDEST PUSH2 0x3237 DUP2 PUSH2 0x3225 JUMP JUMPDEST DUP3 MSTORE POP POP JUMP JUMPDEST PUSH0 DUP3 DUP3 MSTORE PUSH1 0x20 DUP3 ADD SWAP1 POP SWAP3 SWAP2 POP POP JUMP JUMPDEST PUSH0 PUSH2 0x3257 DUP3 PUSH2 0x2F9E JUMP JUMPDEST PUSH2 0x3261 DUP2 DUP6 PUSH2 0x323D JUMP JUMPDEST SWAP4 POP PUSH2 0x3271 DUP2 DUP6 PUSH1 0x20 DUP7 ADD PUSH2 0x2FB8 JUMP JUMPDEST PUSH2 0x327A DUP2 PUSH2 0x2FE0 JUMP JUMPDEST DUP5 ADD SWAP2 POP POP SWAP3 SWAP2 POP POP JUMP JUMPDEST PUSH0 PUSH1 0x40 DUP4 ADD PUSH0 DUP4 ADD MLOAD PUSH2 0x329A PUSH0 DUP7 ADD DUP3 PUSH2 0x322E JUMP JUMPDEST POP PUSH1 0x20 DUP4 ADD MLOAD DUP5 DUP3 SUB PUSH1 0x20 DUP7 ADD MSTORE PUSH2 0x32B2 DUP3 DUP3 PUSH2 0x324D JUMP JUMPDEST SWAP2 POP POP DUP1 SWAP2 POP POP SWAP3 SWAP2 POP POP JUMP JUMPDEST PUSH0 PUSH2 0x32CA DUP4 DUP4 PUSH2 0x3285 JUMP JUMPDEST SWAP1 POP SWAP3 SWAP2 POP POP JUMP JUMPDEST PUSH0 PUSH1 0x20 DUP3 ADD SWAP1 POP SWAP2 SWAP1 POP JUMP JUMPDEST PUSH0 PUSH2 0x32E8 DUP3 PUSH2 0x31FC JUMP JUMPDEST PUSH2 0x32F2 DUP2 DUP6 PUSH2 0x3206 JUMP JUMPDEST SWAP4 POP DUP4 PUSH1 0x20 DUP3 MUL DUP6 ADD PUSH2 0x3304 DUP6 PUSH2 0x3216 JUMP JUMPDEST DUP1 PUSH0 JUMPDEST DUP6 DUP2 LT ISZERO PUSH2 0x333F JUMPI DUP5 DUP5 SUB DUP10 MSTORE DUP2 MLOAD PUSH2 0x3320 DUP6 DUP3 PUSH2 0x32BF JUMP JUMPDEST SWAP5 POP PUSH2 0x332B DUP4 PUSH2 0x32D2 JUMP JUMPDEST SWAP3 POP PUSH1 0x20 DUP11 ADD SWAP10 POP POP PUSH1 0x1 DUP2 ADD SWAP1 POP PUSH2 0x3307 JUMP JUMPDEST POP DUP3 SWAP8 POP DUP8 SWAP6 POP POP POP POP POP POP SWAP3 SWAP2 POP POP JUMP JUMPDEST PUSH1 0x40 DUP3 ADD PUSH0 DUP3 ADD MLOAD PUSH2 0x3365 PUSH0 DUP6 ADD DUP3 PUSH2 0x31C0 JUMP JUMPDEST POP PUSH1 0x20 DUP3 ADD MLOAD PUSH2 0x3378 PUSH1 0x20 DUP6 ADD DUP3 PUSH2 0x31C0 JUMP JUMPDEST POP POP POP POP JUMP JUMPDEST PUSH0 PUSH1 0xA0 DUP3 ADD SWAP1 POP PUSH2 0x3391 PUSH0 DUP4 ADD DUP7 PUSH2 0x31CF JUMP JUMPDEST DUP2 DUP2 SUB PUSH1 0x40 DUP4 ADD MSTORE PUSH2 0x33A3 DUP2 DUP6 PUSH2 0x32DE JUMP JUMPDEST SWAP1 POP PUSH2 0x33B2 PUSH1 0x60 DUP4 ADD DUP5 PUSH2 0x3351 JUMP JUMPDEST SWAP5 SWAP4 POP POP POP POP JUMP JUMPDEST PUSH2 0x33C3 DUP2 PUSH2 0x3078 JUMP JUMPDEST DUP3 MSTORE POP POP JUMP JUMPDEST PUSH0 PUSH1 0x20 DUP3 ADD SWAP1 POP PUSH2 0x33DC PUSH0 DUP4 ADD DUP5 PUSH2 0x33BA JUMP JUMPDEST SWAP3 SWAP2 POP POP JUMP JUMPDEST PUSH0 PUSH1 0x60 DUP3 DUP5 SUB SLT ISZERO PUSH2 0x33F7 JUMPI PUSH2 0x33F6 PUSH2 0x3157 JUMP JUMPDEST JUMPDEST DUP2 SWAP1 POP SWAP3 SWAP2 POP POP JUMP JUMPDEST PUSH0 DUP2 SWAP1 POP SWAP2 SWAP1 POP JUMP JUMPDEST PUSH2 0x3412 DUP2 PUSH2 0x3400 JUMP JUMPDEST DUP2 EQ PUSH2 0x341C JUMPI PUSH0 DUP1 REVERT JUMPDEST POP JUMP JUMPDEST PUSH0 DUP2 CALLDATALOAD SWAP1 POP PUSH2 0x342D DUP2 PUSH2 0x3409 JUMP JUMPDEST SWAP3 SWAP2 POP POP JUMP JUMPDEST PUSH0 DUP1 REVERT JUMPDEST PUSH0 DUP1 REVERT JUMPDEST PUSH0 DUP1 REVERT JUMPDEST PUSH0 DUP1 DUP4 PUSH1 0x1F DUP5 ADD SLT PUSH2 0x3454 JUMPI PUSH2 0x3453 PUSH2 0x3433 JUMP JUMPDEST JUMPDEST DUP3 CALLDATALOAD SWAP1 POP PUSH8 0xFFFFFFFFFFFFFFFF DUP2 GT ISZERO PUSH2 0x3471 JUMPI PUSH2 0x3470 PUSH2 0x3437 JUMP JUMPDEST JUMPDEST PUSH1 0x20 DUP4 ADD SWAP2 POP DUP4 PUSH1 0x1 DUP3 MUL DUP4 ADD GT ISZERO PUSH2 0x348D JUMPI PUSH2 0x348C PUSH2 0x343B JUMP JUMPDEST JUMPDEST SWAP3 POP SWAP3 SWAP1 POP JUMP JUMPDEST PUSH0 DUP1 PUSH0 DUP1 PUSH0 DUP1 PUSH0 PUSH1 0xE0 DUP9 DUP11 SUB SLT ISZERO PUSH2 0x34AF JUMPI PUSH2 0x34AE PUSH2 0x3051 JUMP JUMPDEST JUMPDEST PUSH0 PUSH2 0x34BC DUP11 DUP3 DUP12 ADD PUSH2 0x33E2 JUMP JUMPDEST SWAP8 POP POP PUSH1 0x60 PUSH2 0x34CD DUP11 DUP3 DUP12 ADD PUSH2 0x341F JUMP JUMPDEST SWAP7 POP POP PUSH1 0x80 DUP9 ADD CALLDATALOAD PUSH8 0xFFFFFFFFFFFFFFFF DUP2 GT ISZERO PUSH2 0x34EE JUMPI PUSH2 0x34ED PUSH2 0x3055 JUMP JUMPDEST JUMPDEST PUSH2 0x34FA DUP11 DUP3 DUP12 ADD PUSH2 0x343F JUMP JUMPDEST SWAP6 POP SWAP6 POP POP PUSH1 0xA0 PUSH2 0x350D DUP11 DUP3 DUP12 ADD PUSH2 0x309F JUMP JUMPDEST SWAP4 POP POP PUSH1 0xC0 DUP9 ADD CALLDATALOAD PUSH8 0xFFFFFFFFFFFFFFFF DUP2 GT ISZERO PUSH2 0x352E JUMPI PUSH2 0x352D PUSH2 0x3055 JUMP JUMPDEST JUMPDEST PUSH2 0x353A DUP11 DUP3 DUP12 ADD PUSH2 0x343F JUMP JUMPDEST SWAP3 POP SWAP3 POP POP SWAP3 SWAP6 SWAP9 SWAP2 SWAP5 SWAP8 POP SWAP3 SWAP6 POP JUMP JUMPDEST PUSH0 PUSH2 0xFFFF DUP3 AND SWAP1 POP SWAP2 SWAP1 POP JUMP JUMPDEST PUSH2 0x3561 DUP2 PUSH2 0x354B JUMP JUMPDEST DUP3 MSTORE POP POP JUMP JUMPDEST PUSH0 PUSH1 0x20 DUP3 ADD SWAP1 POP PUSH2 0x357A PUSH0 DUP4 ADD DUP5 PUSH2 0x3558 JUMP JUMPDEST SWAP3 SWAP2 POP POP JUMP JUMPDEST PUSH0 PUSH32 0xFFFFFFFF00000000000000000000000000000000000000000000000000000000 DUP3 AND SWAP1 POP SWAP2 SWAP1 POP JUMP JUMPDEST PUSH2 0x35B4 DUP2 PUSH2 0x3580 JUMP JUMPDEST DUP3 MSTORE POP POP JUMP JUMPDEST PUSH0 PUSH8 0xFFFFFFFFFFFFFFFF DUP3 AND SWAP1 POP SWAP2 SWAP1 POP JUMP JUMPDEST PUSH2 0x35D6 DUP2 PUSH2 0x35BA JUMP JUMPDEST DUP3 MSTORE POP POP JUMP JUMPDEST PUSH0 PUSH1 0x40 DUP3 ADD SWAP1 POP PUSH2 0x35EF PUSH0 DUP4 ADD DUP6 PUSH2 0x35AB JUMP JUMPDEST PUSH2 0x35FC PUSH1 0x20 DUP4 ADD DUP5 PUSH2 0x35CD JUMP JUMPDEST SWAP4 SWAP3 POP POP POP JUMP JUMPDEST PUSH0 PUSH1 0x40 DUP3 ADD SWAP1 POP PUSH2 0x3616 PUSH0 DUP4 ADD DUP6 PUSH2 0x35CD JUMP JUMPDEST PUSH2 0x3623 PUSH1 0x20 DUP4 ADD DUP5 PUSH2 0x35CD JUMP JUMPDEST SWAP4 SWAP3 POP POP POP JUMP JUMPDEST PUSH2 0x3633 DUP2 PUSH2 0x30B3 JUMP JUMPDEST DUP3 MSTORE POP POP JUMP JUMPDEST PUSH0 PUSH1 0x20 DUP3 ADD SWAP1 POP PUSH2 0x364C PUSH0 DUP4 ADD DUP5 PUSH2 0x362A JUMP JUMPDEST SWAP3 SWAP2 POP POP JUMP JUMPDEST PUSH0 DUP1 PUSH0 PUSH1 0x60 DUP5 DUP7 SUB SLT ISZERO PUSH2 0x3669 JUMPI PUSH2 0x3668 PUSH2 0x3051 JUMP JUMPDEST JUMPDEST PUSH0 PUSH2 0x3676 DUP7 DUP3 DUP8 ADD PUSH2 0x309F JUMP JUMPDEST SWAP4 POP POP PUSH1 0x20 PUSH2 0x3687 DUP7 DUP3 DUP8 ADD PUSH2 0x309F JUMP JUMPDEST SWAP3 POP POP PUSH1 0x40 PUSH2 0x3698 DUP7 DUP3 DUP8 ADD PUSH2 0x30D2 JUMP JUMPDEST SWAP2 POP POP SWAP3 POP SWAP3 POP SWAP3 JUMP JUMPDEST PUSH0 PUSH1 0xFF DUP3 AND SWAP1 POP SWAP2 SWAP1 POP JUMP JUMPDEST PUSH2 0x36B7 DUP2 PUSH2 0x36A2 JUMP JUMPDEST DUP3 MSTORE POP POP JUMP JUMPDEST PUSH0 PUSH1 0x20 DUP3 ADD SWAP1 POP PUSH2 0x36D0 PUSH0 DUP4 ADD DUP5 PUSH2 0x36AE JUMP JUMPDEST SWAP3 SWAP2 POP POP JUMP JUMPDEST PUSH0 PUSH4 0xFFFFFFFF DUP3 AND SWAP1 POP SWAP2 SWAP1 POP JUMP JUMPDEST PUSH2 0x36EE DUP2 PUSH2 0x36D6 JUMP JUMPDEST DUP2 EQ PUSH2 0x36F8 JUMPI PUSH0 DUP1 REVERT JUMPDEST POP JUMP JUMPDEST PUSH0 DUP2 CALLDATALOAD SWAP1 POP PUSH2 0x3709 DUP2 PUSH2 0x36E5 JUMP JUMPDEST SWAP3 SWAP2 POP POP JUMP JUMPDEST PUSH0 DUP1 PUSH1 0x40 DUP4 DUP6 SUB SLT ISZERO PUSH2 0x3725 JUMPI PUSH2 0x3724 PUSH2 0x3051 JUMP JUMPDEST JUMPDEST PUSH0 PUSH2 0x3732 DUP6 DUP3 DUP7 ADD PUSH2 0x36FB JUMP JUMPDEST SWAP3 POP POP PUSH1 0x20 PUSH2 0x3743 DUP6 DUP3 DUP7 ADD PUSH2 0x341F JUMP JUMPDEST SWAP2 POP POP SWAP3 POP SWAP3 SWAP1 POP JUMP JUMPDEST PUSH2 0x3756 DUP2 PUSH2 0x3124 JUMP JUMPDEST DUP2 EQ PUSH2 0x3760 JUMPI PUSH0 DUP1 REVERT JUMPDEST POP JUMP JUMPDEST PUSH0 DUP2 CALLDATALOAD SWAP1 POP PUSH2 0x3771 DUP2 PUSH2 0x374D JUMP JUMPDEST SWAP3 SWAP2 POP POP JUMP JUMPDEST PUSH0 DUP1 PUSH1 0x40 DUP4 DUP6 SUB SLT ISZERO PUSH2 0x378D JUMPI PUSH2 0x378C PUSH2 0x3051 JUMP JUMPDEST JUMPDEST PUSH0 DUP4 ADD CALLDATALOAD PUSH8 0xFFFFFFFFFFFFFFFF DUP2 GT ISZERO PUSH2 0x37AA JUMPI PUSH2 0x37A9 PUSH2 0x3055 JUMP JUMPDEST JUMPDEST PUSH2 0x37B6 DUP6 DUP3 DUP7 ADD PUSH2 0x315B JUMP JUMPDEST SWAP3 POP POP PUSH1 0x20 PUSH2 0x37C7 DUP6 DUP3 DUP7 ADD PUSH2 0x3763 JUMP JUMPDEST SWAP2 POP POP SWAP3 POP SWAP3 SWAP1 POP JUMP JUMPDEST PUSH1 0x40 DUP3 ADD PUSH0 DUP3 ADD MLOAD PUSH2 0x37E5 PUSH0 DUP6 ADD DUP3 PUSH2 0x31C0 JUMP JUMPDEST POP PUSH1 0x20 DUP3 ADD MLOAD PUSH2 0x37F8 PUSH1 0x20 DUP6 ADD DUP3 PUSH2 0x31C0 JUMP JUMPDEST POP POP POP POP JUMP JUMPDEST PUSH0 PUSH1 0x40 DUP3 ADD SWAP1 POP PUSH2 0x3811 PUSH0 DUP4 ADD DUP5 PUSH2 0x37D1 JUMP JUMPDEST SWAP3 SWAP2 POP POP JUMP JUMPDEST PUSH2 0x3820 DUP2 PUSH2 0x354B JUMP JUMPDEST DUP2 EQ PUSH2 0x382A JUMPI PUSH0 DUP1 REVERT JUMPDEST POP JUMP JUMPDEST PUSH0 DUP2 CALLDATALOAD SWAP1 POP PUSH2 0x383B DUP2 PUSH2 0x3817 JUMP JUMPDEST SWAP3 SWAP2 POP POP JUMP JUMPDEST PUSH0 DUP1 PUSH1 0x40 DUP4 DUP6 SUB SLT ISZERO PUSH2 0x3857 JUMPI PUSH2 0x3856 PUSH2 0x3051 JUMP JUMPDEST JUMPDEST PUSH0 PUSH2 0x3864 DUP6 DUP3 DUP7 ADD PUSH2 0x36FB JUMP JUMPDEST SWAP3 POP POP PUSH1 0x20 PUSH2 0x3875 DUP6 DUP3 DUP7 ADD PUSH2 0x382D JUMP JUMPDEST SWAP2 POP POP SWAP3 POP SWAP3 SWAP1 POP JUMP JUMPDEST PUSH0 DUP2 MLOAD SWAP1 POP SWAP2 SWAP1 POP JUMP JUMPDEST PUSH0 DUP3 DUP3 MSTORE PUSH1 0x20 DUP3 ADD SWAP1 POP SWAP3 SWAP2 POP POP JUMP JUMPDEST PUSH0 PUSH2 0x38A3 DUP3 PUSH2 0x387F JUMP JUMPDEST PUSH2 0x38AD DUP2 DUP6 PUSH2 0x3889 JUMP JUMPDEST SWAP4 POP PUSH2 0x38BD DUP2 DUP6 PUSH1 0x20 DUP7 ADD PUSH2 0x2FB8 JUMP JUMPDEST PUSH2 0x38C6 DUP2 PUSH2 0x2FE0 JUMP JUMPDEST DUP5 ADD SWAP2 POP POP SWAP3 SWAP2 POP POP JUMP JUMPDEST PUSH0 PUSH1 0x20 DUP3 ADD SWAP1 POP DUP2 DUP2 SUB PUSH0 DUP4 ADD MSTORE PUSH2 0x38E9 DUP2 DUP5 PUSH2 0x3899 JUMP JUMPDEST SWAP1 POP SWAP3 SWAP2 POP POP JUMP JUMPDEST PUSH0 DUP2 SWAP1 POP SWAP2 SWAP1 POP JUMP JUMPDEST PUSH0 PUSH2 0x3914 PUSH2 0x390F PUSH2 0x390A DUP5 PUSH2 0x3059 JUMP JUMPDEST PUSH2 0x38F1 JUMP JUMPDEST PUSH2 0x3059 JUMP JUMPDEST SWAP1 POP SWAP2 SWAP1 POP JUMP JUMPDEST PUSH0 PUSH2 0x3925 DUP3 PUSH2 0x38FA JUMP JUMPDEST SWAP1 POP SWAP2 SWAP1 POP JUMP JUMPDEST PUSH0 PUSH2 0x3936 DUP3 PUSH2 0x391B JUMP JUMPDEST SWAP1 POP SWAP2 SWAP1 POP JUMP JUMPDEST PUSH2 0x3946 DUP2 PUSH2 0x392C JUMP JUMPDEST DUP3 MSTORE POP POP JUMP JUMPDEST PUSH0 PUSH1 0x20 DUP3 ADD SWAP1 POP PUSH2 0x395F PUSH0 DUP4 ADD DUP5 PUSH2 0x393D JUMP JUMPDEST SWAP3 SWAP2 POP POP JUMP JUMPDEST PUSH0 PUSH1 0x20 DUP3 DUP5 SUB SLT ISZERO PUSH2 0x397A JUMPI PUSH2 0x3979 PUSH2 0x3051 JUMP JUMPDEST JUMPDEST PUSH0 PUSH2 0x3987 DUP5 DUP3 DUP6 ADD PUSH2 0x309F JUMP JUMPDEST SWAP2 POP POP SWAP3 SWAP2 POP POP JUMP JUMPDEST PUSH0 PUSH1 0x20 DUP3 ADD SWAP1 POP PUSH2 0x39A3 PUSH0 DUP4 ADD DUP5 PUSH2 0x35CD JUMP JUMPDEST SWAP3 SWAP2 POP POP JUMP JUMPDEST PUSH0 DUP1 PUSH0 DUP1 PUSH1 0xA0 DUP6 DUP8 SUB SLT ISZERO PUSH2 0x39C1 JUMPI PUSH2 0x39C0 PUSH2 0x3051 JUMP JUMPDEST JUMPDEST PUSH0 PUSH2 0x39CE DUP8 DUP3 DUP9 ADD PUSH2 0x33E2 JUMP JUMPDEST SWAP5 POP POP PUSH1 0x60 DUP6 ADD CALLDATALOAD PUSH8 0xFFFFFFFFFFFFFFFF DUP2 GT ISZERO PUSH2 0x39EF JUMPI PUSH2 0x39EE PUSH2 0x3055 JUMP JUMPDEST JUMPDEST PUSH2 0x39FB DUP8 DUP3 DUP9 ADD PUSH2 0x343F JUMP JUMPDEST SWAP4 POP SWAP4 POP POP PUSH1 0x80 PUSH2 0x3A0E DUP8 DUP3 DUP9 ADD PUSH2 0x309F JUMP JUMPDEST SWAP2 POP POP SWAP3 SWAP6 SWAP2 SWAP5 POP SWAP3 POP JUMP JUMPDEST PUSH0 DUP1 DUP4 PUSH1 0x1F DUP5 ADD SLT PUSH2 0x3A2F JUMPI PUSH2 0x3A2E PUSH2 0x3433 JUMP JUMPDEST JUMPDEST DUP3 CALLDATALOAD SWAP1 POP PUSH8 0xFFFFFFFFFFFFFFFF DUP2 GT ISZERO PUSH2 0x3A4C JUMPI PUSH2 0x3A4B PUSH2 0x3437 JUMP JUMPDEST JUMPDEST PUSH1 0x20 DUP4 ADD SWAP2 POP DUP4 PUSH1 0x20 DUP3 MUL DUP4 ADD GT ISZERO PUSH2 0x3A68 JUMPI PUSH2 0x3A67 PUSH2 0x343B JUMP JUMPDEST JUMPDEST SWAP3 POP SWAP3 SWAP1 POP JUMP JUMPDEST PUSH0 DUP1 PUSH1 0x20 DUP4 DUP6 SUB SLT ISZERO PUSH2 0x3A85 JUMPI PUSH2 0x3A84 PUSH2 0x3051 JUMP JUMPDEST JUMPDEST PUSH0 DUP4 ADD CALLDATALOAD PUSH8 0xFFFFFFFFFFFFFFFF DUP2 GT ISZERO PUSH2 0x3AA2 JUMPI PUSH2 0x3AA1 PUSH2 0x3055 JUMP JUMPDEST JUMPDEST PUSH2 0x3AAE DUP6 DUP3 DUP7 ADD PUSH2 0x3A1A JUMP JUMPDEST SWAP3 POP SWAP3 POP POP SWAP3 POP SWAP3 SWAP1 POP JUMP JUMPDEST PUSH0 PUSH1 0x20 DUP3 DUP5 SUB SLT ISZERO PUSH2 0x3ACF JUMPI PUSH2 0x3ACE PUSH2 0x3051 JUMP JUMPDEST JUMPDEST PUSH0 PUSH2 0x3ADC DUP5 DUP3 DUP6 ADD PUSH2 0x36FB JUMP JUMPDEST SWAP2 POP POP SWAP3 SWAP2 POP POP JUMP JUMPDEST PUSH2 0x3AEE DUP2 PUSH2 0x3400 JUMP JUMPDEST DUP3 MSTORE POP POP JUMP JUMPDEST PUSH0 PUSH1 0x20 DUP3 ADD SWAP1 POP PUSH2 0x3B07 PUSH0 DUP4 ADD DUP5 PUSH2 0x3AE5 JUMP JUMPDEST SWAP3 SWAP2 POP POP JUMP JUMPDEST PUSH0 DUP1 PUSH0 DUP1 PUSH1 0x60 DUP6 DUP8 SUB SLT ISZERO PUSH2 0x3B25 JUMPI PUSH2 0x3B24 PUSH2 0x3051 JUMP JUMPDEST JUMPDEST PUSH0 PUSH2 0x3B32 DUP8 DUP3 DUP9 ADD PUSH2 0x36FB JUMP JUMPDEST SWAP5 POP POP PUSH1 0x20 PUSH2 0x3B43 DUP8 DUP3 DUP9 ADD PUSH2 0x382D JUMP JUMPDEST SWAP4 POP POP PUSH1 0x40 DUP6 ADD CALLDATALOAD PUSH8 0xFFFFFFFFFFFFFFFF DUP2 GT ISZERO PUSH2 0x3B64 JUMPI PUSH2 0x3B63 PUSH2 0x3055 JUMP JUMPDEST JUMPDEST PUSH2 0x3B70 DUP8 DUP3 DUP9 ADD PUSH2 0x343F JUMP JUMPDEST SWAP3 POP SWAP3 POP POP SWAP3 SWAP6 SWAP2 SWAP5 POP SWAP3 POP JUMP JUMPDEST PUSH0 DUP1 DUP4 PUSH1 0x1F DUP5 ADD SLT PUSH2 0x3B93 JUMPI PUSH2 0x3B92 PUSH2 0x3433 JUMP JUMPDEST JUMPDEST DUP3 CALLDATALOAD SWAP1 POP PUSH8 0xFFFFFFFFFFFFFFFF DUP2 GT ISZERO PUSH2 0x3BB0 JUMPI PUSH2 0x3BAF PUSH2 0x3437 JUMP JUMPDEST JUMPDEST PUSH1 0x20 DUP4 ADD SWAP2 POP DUP4 PUSH1 0x20 DUP3 MUL DUP4 ADD GT ISZERO PUSH2 0x3BCC JUMPI PUSH2 0x3BCB PUSH2 0x343B JUMP JUMPDEST JUMPDEST SWAP3 POP SWAP3 SWAP1 POP JUMP JUMPDEST PUSH0 DUP1 PUSH1 0x20 DUP4 DUP6 SUB SLT ISZERO PUSH2 0x3BE9 JUMPI PUSH2 0x3BE8 PUSH2 0x3051 JUMP JUMPDEST JUMPDEST PUSH0 DUP4 ADD CALLDATALOAD PUSH8 0xFFFFFFFFFFFFFFFF DUP2 GT ISZERO PUSH2 0x3C06 JUMPI PUSH2 0x3C05 PUSH2 0x3055 JUMP JUMPDEST JUMPDEST PUSH2 0x3C12 DUP6 DUP3 DUP7 ADD PUSH2 0x3B7E JUMP JUMPDEST SWAP3 POP SWAP3 POP POP SWAP3 POP SWAP3 SWAP1 POP JUMP JUMPDEST PUSH0 PUSH1 0x40 DUP3 DUP5 SUB SLT ISZERO PUSH2 0x3C33 JUMPI PUSH2 0x3C32 PUSH2 0x3157 JUMP JUMPDEST JUMPDEST DUP2 SWAP1 POP SWAP3 SWAP2 POP POP JUMP JUMPDEST PUSH0 DUP1 PUSH0 PUSH1 0x80 DUP5 DUP7 SUB SLT ISZERO PUSH2 0x3C53 JUMPI PUSH2 0x3C52 PUSH2 0x3051 JUMP JUMPDEST JUMPDEST PUSH0 DUP5 ADD CALLDATALOAD PUSH8 0xFFFFFFFFFFFFFFFF DUP2 GT ISZERO PUSH2 0x3C70 JUMPI PUSH2 0x3C6F PUSH2 0x3055 JUMP JUMPDEST JUMPDEST PUSH2 0x3C7C DUP7 DUP3 DUP8 ADD PUSH2 0x315B JUMP JUMPDEST SWAP4 POP POP PUSH1 0x20 PUSH2 0x3C8D DUP7 DUP3 DUP8 ADD PUSH2 0x3C1E JUMP JUMPDEST SWAP3 POP POP PUSH1 0x60 PUSH2 0x3C9E DUP7 DUP3 DUP8 ADD PUSH2 0x309F JUMP JUMPDEST SWAP2 POP POP SWAP3 POP SWAP3 POP SWAP3 JUMP JUMPDEST PUSH2 0x3CB1 DUP2 PUSH2 0x3400 JUMP JUMPDEST DUP3 MSTORE POP POP JUMP JUMPDEST PUSH2 0x3CC0 DUP2 PUSH2 0x35BA JUMP JUMPDEST DUP3 MSTORE POP POP JUMP JUMPDEST PUSH1 0x40 DUP3 ADD PUSH0 DUP3 ADD MLOAD PUSH2 0x3CDA PUSH0 DUP6 ADD DUP3 PUSH2 0x31C0 JUMP JUMPDEST POP PUSH1 0x20 DUP3 ADD MLOAD PUSH2 0x3CED PUSH1 0x20 DUP6 ADD DUP3 PUSH2 0x31C0 JUMP JUMPDEST POP POP POP POP JUMP JUMPDEST PUSH1 0x80 DUP3 ADD PUSH0 DUP3 ADD MLOAD PUSH2 0x3D07 PUSH0 DUP6 ADD DUP3 PUSH2 0x3CA8 JUMP JUMPDEST POP PUSH1 0x20 DUP3 ADD MLOAD PUSH2 0x3D1A PUSH1 0x20 DUP6 ADD DUP3 PUSH2 0x3CB7 JUMP JUMPDEST POP PUSH1 0x40 DUP3 ADD MLOAD PUSH2 0x3D2D PUSH1 0x40 DUP6 ADD DUP3 PUSH2 0x3CC6 JUMP JUMPDEST POP POP POP POP JUMP JUMPDEST PUSH0 PUSH1 0xC0 DUP3 ADD SWAP1 POP PUSH2 0x3D46 PUSH0 DUP4 ADD DUP6 PUSH2 0x3CF3 JUMP JUMPDEST PUSH2 0x3D53 PUSH1 0x80 DUP4 ADD DUP5 PUSH2 0x3351 JUMP JUMPDEST SWAP4 SWAP3 POP POP POP JUMP JUMPDEST PUSH0 DUP1 PUSH1 0x40 DUP4 DUP6 SUB SLT ISZERO PUSH2 0x3D70 JUMPI PUSH2 0x3D6F PUSH2 0x3051 JUMP JUMPDEST JUMPDEST PUSH0 PUSH2 0x3D7D DUP6 DUP3 DUP7 ADD PUSH2 0x309F JUMP JUMPDEST SWAP3 POP POP PUSH1 0x20 PUSH2 0x3D8E DUP6 DUP3 DUP7 ADD PUSH2 0x309F JUMP JUMPDEST SWAP2 POP POP SWAP3 POP SWAP3 SWAP1 POP JUMP JUMPDEST PUSH0 PUSH1 0x60 DUP3 DUP5 SUB SLT ISZERO PUSH2 0x3DAD JUMPI PUSH2 0x3DAC PUSH2 0x3051 JUMP JUMPDEST JUMPDEST PUSH0 PUSH2 0x3DBA DUP5 DUP3 DUP6 ADD PUSH2 0x33E2 JUMP JUMPDEST SWAP2 POP POP SWAP3 SWAP2 POP POP JUMP JUMPDEST PUSH32 0x4E487B7100000000000000000000000000000000000000000000000000000000 PUSH0 MSTORE PUSH1 0x22 PUSH1 0x4 MSTORE PUSH1 0x24 PUSH0 REVERT JUMPDEST PUSH0 PUSH1 0x2 DUP3 DIV SWAP1 POP PUSH1 0x1 DUP3 AND DUP1 PUSH2 0x3E07 JUMPI PUSH1 0x7F DUP3 AND SWAP2 POP JUMPDEST PUSH1 0x20 DUP3 LT DUP2 SUB PUSH2 0x3E1A JUMPI PUSH2 0x3E19 PUSH2 0x3DC3 JUMP JUMPDEST JUMPDEST POP SWAP2 SWAP1 POP JUMP JUMPDEST PUSH0 DUP2 MLOAD SWAP1 POP PUSH2 0x3E2E DUP2 PUSH2 0x3089 JUMP JUMPDEST SWAP3 SWAP2 POP POP JUMP JUMPDEST PUSH0 PUSH1 0x20 DUP3 DUP5 SUB SLT ISZERO PUSH2 0x3E49 JUMPI PUSH2 0x3E48 PUSH2 0x3051 JUMP JUMPDEST JUMPDEST PUSH0 PUSH2 0x3E56 DUP5 DUP3 DUP6 ADD PUSH2 0x3E20 JUMP JUMPDEST SWAP2 POP POP SWAP3 SWAP2 POP POP JUMP JUMPDEST PUSH0 DUP2 MLOAD SWAP1 POP PUSH2 0x3E6D DUP2 PUSH2 0x30BC JUMP JUMPDEST SWAP3 SWAP2 POP POP JUMP JUMPDEST PUSH0 PUSH1 0x20 DUP3 DUP5 SUB SLT ISZERO PUSH2 0x3E88 JUMPI PUSH2 0x3E87 PUSH2 0x3051 JUMP JUMPDEST JUMPDEST PUSH0 PUSH2 0x3E95 DUP5 DUP3 DUP6 ADD PUSH2 0x3E5F JUMP JUMPDEST SWAP2 POP POP SWAP3 SWAP2 POP POP JUMP JUMPDEST PUSH32 0x4E487B7100000000000000000000000000000000000000000000000000000000 PUSH0 MSTORE PUSH1 0x41 PUSH1 0x4 MSTORE PUSH1 0x24 PUSH0 REVERT JUMPDEST PUSH2 0x3ED4 DUP2 PUSH2 0x36D6 JUMP JUMPDEST DUP3 MSTORE POP POP JUMP JUMPDEST PUSH0 PUSH1 0x40 DUP3 ADD SWAP1 POP PUSH2 0x3EED PUSH0 DUP4 ADD DUP6 PUSH2 0x3ECB JUMP JUMPDEST PUSH2 0x3EFA PUSH1 0x20 DUP4 ADD DUP5 PUSH2 0x3AE5 JUMP JUMPDEST SWAP4 SWAP3 POP POP POP JUMP JUMPDEST PUSH2 0x3F0A DUP3 PUSH2 0x2FE0 JUMP JUMPDEST DUP2 ADD DUP2 DUP2 LT PUSH8 0xFFFFFFFFFFFFFFFF DUP3 GT OR ISZERO PUSH2 0x3F29 JUMPI PUSH2 0x3F28 PUSH2 0x3E9E JUMP JUMPDEST JUMPDEST DUP1 PUSH1 0x40 MSTORE POP POP POP JUMP JUMPDEST PUSH0 PUSH2 0x3F3B PUSH2 0x3048 JUMP JUMPDEST SWAP1 POP PUSH2 0x3F47 DUP3 DUP3 PUSH2 0x3F01 JUMP JUMPDEST SWAP2 SWAP1 POP JUMP JUMPDEST PUSH0 PUSH8 0xFFFFFFFFFFFFFFFF DUP3 GT ISZERO PUSH2 0x3F66 JUMPI PUSH2 0x3F65 PUSH2 0x3E9E JUMP JUMPDEST JUMPDEST PUSH1 0x20 DUP3 MUL SWAP1 POP PUSH1 0x20 DUP2 ADD SWAP1 POP SWAP2 SWAP1 POP JUMP JUMPDEST PUSH0 DUP1 REVERT JUMPDEST PUSH0 DUP1 REVERT JUMPDEST PUSH0 DUP1 REVERT JUMPDEST PUSH0 PUSH8 0xFFFFFFFFFFFFFFFF DUP3 GT ISZERO PUSH2 0x3F9D JUMPI PUSH2 0x3F9C PUSH2 0x3E9E JUMP JUMPDEST JUMPDEST PUSH2 0x3FA6 DUP3 PUSH2 0x2FE0 JUMP JUMPDEST SWAP1 POP PUSH1 0x20 DUP2 ADD SWAP1 POP SWAP2 SWAP1 POP JUMP JUMPDEST DUP3 DUP2 DUP4 CALLDATACOPY PUSH0 DUP4 DUP4 ADD MSTORE POP POP POP JUMP JUMPDEST PUSH0 PUSH2 0x3FD3 PUSH2 0x3FCE DUP5 PUSH2 0x3F83 JUMP JUMPDEST PUSH2 0x3F32 JUMP JUMPDEST SWAP1 POP DUP3 DUP2 MSTORE PUSH1 0x20 DUP2 ADD DUP5 DUP5 DUP5 ADD GT ISZERO PUSH2 0x3FEF JUMPI PUSH2 0x3FEE PUSH2 0x3F7F JUMP JUMPDEST JUMPDEST PUSH2 0x3FFA DUP5 DUP3 DUP6 PUSH2 0x3FB3 JUMP JUMPDEST POP SWAP4 SWAP3 POP POP POP JUMP JUMPDEST PUSH0 DUP3 PUSH1 0x1F DUP4 ADD SLT PUSH2 0x4016 JUMPI PUSH2 0x4015 PUSH2 0x3433 JUMP JUMPDEST JUMPDEST DUP2 CALLDATALOAD PUSH2 0x4026 DUP5 DUP3 PUSH1 0x20 DUP7 ADD PUSH2 0x3FC1 JUMP JUMPDEST SWAP2 POP POP SWAP3 SWAP2 POP POP JUMP JUMPDEST PUSH0 PUSH1 0x60 DUP3 DUP5 SUB SLT ISZERO PUSH2 0x4044 JUMPI PUSH2 0x4043 PUSH2 0x3F77 JUMP JUMPDEST JUMPDEST PUSH2 0x404E PUSH1 0x60 PUSH2 0x3F32 JUMP JUMPDEST SWAP1 POP PUSH0 PUSH2 0x405D DUP5 DUP3 DUP6 ADD PUSH2 0x36FB JUMP JUMPDEST PUSH0 DUP4 ADD MSTORE POP PUSH1 0x20 PUSH2 0x4070 DUP5 DUP3 DUP6 ADD PUSH2 0x382D JUMP JUMPDEST PUSH1 0x20 DUP4 ADD MSTORE POP PUSH1 0x40 DUP3 ADD CALLDATALOAD PUSH8 0xFFFFFFFFFFFFFFFF DUP2 GT ISZERO PUSH2 0x4094 JUMPI PUSH2 0x4093 PUSH2 0x3F7B JUMP JUMPDEST JUMPDEST PUSH2 0x40A0 DUP5 DUP3 DUP6 ADD PUSH2 0x4002 JUMP JUMPDEST PUSH1 0x40 DUP4 ADD MSTORE POP SWAP3 SWAP2 POP POP JUMP JUMPDEST PUSH0 PUSH2 0x40BE PUSH2 0x40B9 DUP5 PUSH2 0x3F4C JUMP JUMPDEST PUSH2 0x3F32 JUMP JUMPDEST SWAP1 POP DUP1 DUP4 DUP3 MSTORE PUSH1 0x20 DUP3 ADD SWAP1 POP PUSH1 0x20 DUP5 MUL DUP4 ADD DUP6 DUP2 GT ISZERO PUSH2 0x40E1 JUMPI PUSH2 0x40E0 PUSH2 0x343B JUMP JUMPDEST JUMPDEST DUP4 JUMPDEST DUP2 DUP2 LT ISZERO PUSH2 0x4128 JUMPI DUP1 CALLDATALOAD PUSH8 0xFFFFFFFFFFFFFFFF DUP2 GT ISZERO PUSH2 0x4106 JUMPI PUSH2 0x4105 PUSH2 0x3433 JUMP JUMPDEST JUMPDEST DUP1 DUP7 ADD PUSH2 0x4113 DUP10 DUP3 PUSH2 0x402F JUMP JUMPDEST DUP6 MSTORE PUSH1 0x20 DUP6 ADD SWAP5 POP POP POP PUSH1 0x20 DUP2 ADD SWAP1 POP PUSH2 0x40E3 JUMP JUMPDEST POP POP POP SWAP4 SWAP3 POP POP POP JUMP JUMPDEST PUSH0 PUSH2 0x413E CALLDATASIZE DUP5 DUP5 PUSH2 0x40AC JUMP JUMPDEST SWAP1 POP SWAP3 SWAP2 POP POP JUMP JUMPDEST PUSH0 DUP1 REVERT JUMPDEST PUSH0 DUP1 REVERT JUMPDEST PUSH0 DUP1 DUP6 DUP6 GT ISZERO PUSH2 0x4161 JUMPI PUSH2 0x4160 PUSH2 0x4146 JUMP JUMPDEST JUMPDEST DUP4 DUP7 GT ISZERO PUSH2 0x4172 JUMPI PUSH2 0x4171 PUSH2 0x414A JUMP JUMPDEST JUMPDEST PUSH1 0x1 DUP6 MUL DUP4 ADD SWAP2 POP DUP5 DUP7 SUB SWAP1 POP SWAP5 POP SWAP5 SWAP3 POP POP POP JUMP JUMPDEST PUSH0 DUP2 SWAP1 POP SWAP3 SWAP2 POP POP JUMP JUMPDEST PUSH0 PUSH2 0x419C DUP3 PUSH2 0x387F JUMP JUMPDEST PUSH2 0x41A6 DUP2 DUP6 PUSH2 0x4188 JUMP JUMPDEST SWAP4 POP PUSH2 0x41B6 DUP2 DUP6 PUSH1 0x20 DUP7 ADD PUSH2 0x2FB8 JUMP JUMPDEST DUP1 DUP5 ADD SWAP2 POP POP SWAP3 SWAP2 POP POP JUMP JUMPDEST PUSH0 PUSH2 0x41CD DUP4 DUP6 PUSH2 0x4188 JUMP JUMPDEST SWAP4 POP PUSH2 0x41DA DUP4 DUP6 DUP5 PUSH2 0x3FB3 JUMP JUMPDEST DUP3 DUP5 ADD SWAP1 POP SWAP4 SWAP3 POP POP POP JUMP JUMPDEST PUSH0 PUSH2 0x41F1 DUP3 DUP7 PUSH2 0x4192 JUMP JUMPDEST SWAP2 POP PUSH2 0x41FE DUP3 DUP5 DUP7 PUSH2 0x41C2 JUMP JUMPDEST SWAP2 POP DUP2 SWAP1 POP SWAP5 SWAP4 POP POP POP POP JUMP JUMPDEST PUSH0 PUSH2 0x4216 DUP4 DUP6 PUSH2 0x3889 JUMP JUMPDEST SWAP4 POP PUSH2 0x4223 DUP4 DUP6 DUP5 PUSH2 0x3FB3 JUMP JUMPDEST PUSH2 0x422C DUP4 PUSH2 0x2FE0 JUMP JUMPDEST DUP5 ADD SWAP1 POP SWAP4 SWAP3 POP POP POP JUMP JUMPDEST PUSH0 PUSH1 0x20 DUP3 ADD SWAP1 POP DUP2 DUP2 SUB PUSH0 DUP4 ADD MSTORE PUSH2 0x4250 DUP2 DUP5 DUP7 PUSH2 0x420B JUMP JUMPDEST SWAP1 POP SWAP4 SWAP3 POP POP POP JUMP JUMPDEST PUSH32 0x4E487B7100000000000000000000000000000000000000000000000000000000 PUSH0 MSTORE PUSH1 0x32 PUSH1 0x4 MSTORE PUSH1 0x24 PUSH0 REVERT JUMPDEST PUSH0 DUP1 REVERT JUMPDEST PUSH0 DUP1 REVERT JUMPDEST PUSH0 DUP1 REVERT JUMPDEST PUSH0 DUP3 CALLDATALOAD PUSH1 0x1 PUSH2 0x140 SUB DUP4 CALLDATASIZE SUB SUB DUP2 SLT PUSH2 0x42AE JUMPI PUSH2 0x42AD PUSH2 0x4286 JUMP JUMPDEST JUMPDEST DUP1 DUP4 ADD SWAP2 POP POP SWAP3 SWAP2 POP POP JUMP JUMPDEST PUSH0 DUP1 DUP4 CALLDATALOAD PUSH1 0x1 PUSH1 0x20 SUB DUP5 CALLDATASIZE SUB SUB DUP2 SLT PUSH2 0x42D6 JUMPI PUSH2 0x42D5 PUSH2 0x4286 JUMP JUMPDEST JUMPDEST DUP1 DUP5 ADD SWAP3 POP DUP3 CALLDATALOAD SWAP2 POP PUSH8 0xFFFFFFFFFFFFFFFF DUP3 GT ISZERO PUSH2 0x42F8 JUMPI PUSH2 0x42F7 PUSH2 0x428A JUMP JUMPDEST JUMPDEST PUSH1 0x20 DUP4 ADD SWAP3 POP PUSH1 0x1 DUP3 MUL CALLDATASIZE SUB DUP4 SGT ISZERO PUSH2 0x4314 JUMPI PUSH2 0x4313 PUSH2 0x428E JUMP JUMPDEST JUMPDEST POP SWAP3 POP SWAP3 SWAP1 POP JUMP JUMPDEST PUSH0 PUSH2 0x432A PUSH1 0x20 DUP5 ADD DUP5 PUSH2 0x36FB JUMP JUMPDEST SWAP1 POP SWAP3 SWAP2 POP POP JUMP JUMPDEST PUSH2 0x433B DUP2 PUSH2 0x36D6 JUMP JUMPDEST DUP3 MSTORE POP POP JUMP JUMPDEST PUSH0 PUSH2 0x434F PUSH1 0x20 DUP5 ADD DUP5 PUSH2 0x341F JUMP JUMPDEST SWAP1 POP SWAP3 SWAP2 POP POP JUMP JUMPDEST PUSH2 0x4360 DUP2 PUSH2 0x35BA JUMP JUMPDEST DUP2 EQ PUSH2 0x436A JUMPI PUSH0 DUP1 REVERT JUMPDEST POP JUMP JUMPDEST PUSH0 DUP2 CALLDATALOAD SWAP1 POP PUSH2 0x437B DUP2 PUSH2 0x4357 JUMP JUMPDEST SWAP3 SWAP2 POP POP JUMP JUMPDEST PUSH0 PUSH2 0x438F PUSH1 0x20 DUP5 ADD DUP5 PUSH2 0x436D JUMP JUMPDEST SWAP1 POP SWAP3 SWAP2 POP POP JUMP JUMPDEST PUSH1 0x60 DUP3 ADD PUSH2 0x43A7 PUSH0 DUP4 ADD DUP4 PUSH2 0x431C JUMP JUMPDEST PUSH2 0x43B3 PUSH0 DUP6 ADD DUP3 PUSH2 0x4332 JUMP JUMPDEST POP PUSH2 0x43C1 PUSH1 0x20 DUP4 ADD DUP4 PUSH2 0x4341 JUMP JUMPDEST PUSH2 0x43CE PUSH1 0x20 DUP6 ADD DUP3 PUSH2 0x3CA8 JUMP JUMPDEST POP PUSH2 0x43DC PUSH1 0x40 DUP4 ADD DUP4 PUSH2 0x4381 JUMP JUMPDEST PUSH2 0x43E9 PUSH1 0x40 DUP6 ADD DUP3 PUSH2 0x3CB7 JUMP JUMPDEST POP POP POP POP JUMP JUMPDEST PUSH0 PUSH1 0xE0 DUP3 ADD SWAP1 POP PUSH2 0x4402 PUSH0 DUP4 ADD DUP11 PUSH2 0x4397 JUMP JUMPDEST PUSH2 0x440F PUSH1 0x60 DUP4 ADD DUP10 PUSH2 0x3AE5 JUMP JUMPDEST DUP2 DUP2 SUB PUSH1 0x80 DUP4 ADD MSTORE PUSH2 0x4422 DUP2 DUP8 DUP10 PUSH2 0x420B JUMP JUMPDEST SWAP1 POP PUSH2 0x4431 PUSH1 0xA0 DUP4 ADD DUP7 PUSH2 0x33BA JUMP JUMPDEST DUP2 DUP2 SUB PUSH1 0xC0 DUP4 ADD MSTORE PUSH2 0x4444 DUP2 DUP5 DUP7 PUSH2 0x420B JUMP JUMPDEST SWAP1 POP SWAP9 SWAP8 POP POP POP POP POP POP POP POP JUMP JUMPDEST PUSH0 PUSH2 0x4464 PUSH2 0x445F DUP5 PUSH2 0x3F83 JUMP JUMPDEST PUSH2 0x3F32 JUMP JUMPDEST SWAP1 POP DUP3 DUP2 MSTORE PUSH1 0x20 DUP2 ADD DUP5 DUP5 DUP5 ADD GT ISZERO PUSH2 0x4480 JUMPI PUSH2 0x447F PUSH2 0x3F7F JUMP JUMPDEST JUMPDEST PUSH2 0x448B DUP5 DUP3 DUP6 PUSH2 0x2FB8 JUMP JUMPDEST POP SWAP4 SWAP3 POP POP POP JUMP JUMPDEST PUSH0 DUP3 PUSH1 0x1F DUP4 ADD SLT PUSH2 0x44A7 JUMPI PUSH2 0x44A6 PUSH2 0x3433 JUMP JUMPDEST JUMPDEST DUP2 MLOAD PUSH2 0x44B7 DUP5 DUP3 PUSH1 0x20 DUP7 ADD PUSH2 0x4452 JUMP JUMPDEST SWAP2 POP POP SWAP3 SWAP2 POP POP JUMP JUMPDEST PUSH0 PUSH1 0x20 DUP3 DUP5 SUB SLT ISZERO PUSH2 0x44D5 JUMPI PUSH2 0x44D4 PUSH2 0x3051 JUMP JUMPDEST JUMPDEST PUSH0 DUP3 ADD MLOAD PUSH8 0xFFFFFFFFFFFFFFFF DUP2 GT ISZERO PUSH2 0x44F2 JUMPI PUSH2 0x44F1 PUSH2 0x3055 JUMP JUMPDEST JUMPDEST PUSH2 0x44FE DUP5 DUP3 DUP6 ADD PUSH2 0x4493 JUMP JUMPDEST SWAP2 POP POP SWAP3 SWAP2 POP POP JUMP JUMPDEST PUSH0 PUSH1 0x40 DUP3 ADD SWAP1 POP PUSH2 0x451A PUSH0 DUP4 ADD DUP6 PUSH2 0x362A JUMP JUMPDEST PUSH2 0x4527 PUSH1 0x20 DUP4 ADD DUP5 PUSH2 0x362A JUMP JUMPDEST SWAP4 SWAP3 POP POP POP JUMP JUMPDEST PUSH0 PUSH1 0x20 DUP3 ADD SWAP1 POP PUSH2 0x4541 PUSH0 DUP4 ADD DUP5 PUSH2 0x3ECB JUMP JUMPDEST SWAP3 SWAP2 POP POP JUMP JUMPDEST PUSH0 PUSH1 0x20 DUP3 DUP5 SUB SLT ISZERO PUSH2 0x455C JUMPI PUSH2 0x455B PUSH2 0x3051 JUMP JUMPDEST JUMPDEST PUSH0 PUSH2 0x4569 DUP5 DUP3 DUP6 ADD PUSH2 0x436D JUMP JUMPDEST SWAP2 POP POP SWAP3 SWAP2 POP POP JUMP JUMPDEST PUSH0 DUP2 SWAP1 POP SWAP2 SWAP1 POP JUMP JUMPDEST PUSH0 PUSH2 0x4595 PUSH2 0x4590 PUSH2 0x458B DUP5 PUSH2 0x4572 JUMP JUMPDEST PUSH2 0x38F1 JUMP JUMPDEST PUSH2 0x354B JUMP JUMPDEST SWAP1 POP SWAP2 SWAP1 POP JUMP JUMPDEST PUSH2 0x45A5 DUP2 PUSH2 0x457B JUMP JUMPDEST DUP3 MSTORE POP POP JUMP JUMPDEST PUSH0 PUSH1 0x80 DUP3 ADD SWAP1 POP PUSH2 0x45BE PUSH0 DUP4 ADD DUP8 PUSH2 0x33BA JUMP JUMPDEST PUSH2 0x45CB PUSH1 0x20 DUP4 ADD DUP7 PUSH2 0x3AE5 JUMP JUMPDEST PUSH2 0x45D8 PUSH1 0x40 DUP4 ADD DUP6 PUSH2 0x459C JUMP JUMPDEST DUP2 DUP2 SUB PUSH1 0x60 DUP4 ADD MSTORE PUSH2 0x45EA DUP2 DUP5 PUSH2 0x3899 JUMP JUMPDEST SWAP1 POP SWAP6 SWAP5 POP POP POP POP POP JUMP JUMPDEST PUSH0 PUSH1 0x40 DUP3 ADD SWAP1 POP PUSH2 0x4608 PUSH0 DUP4 ADD DUP6 PUSH2 0x3ECB JUMP JUMPDEST PUSH2 0x4615 PUSH1 0x20 DUP4 ADD DUP5 PUSH2 0x362A JUMP JUMPDEST SWAP4 SWAP3 POP POP POP JUMP JUMPDEST PUSH0 PUSH1 0x60 DUP3 ADD SWAP1 POP PUSH2 0x462F PUSH0 DUP4 ADD DUP7 PUSH2 0x33BA JUMP JUMPDEST PUSH2 0x463C PUSH1 0x20 DUP4 ADD DUP6 PUSH2 0x362A JUMP JUMPDEST PUSH2 0x4649 PUSH1 0x40 DUP4 ADD DUP5 PUSH2 0x362A JUMP JUMPDEST SWAP5 SWAP4 POP POP POP POP JUMP JUMPDEST PUSH0 PUSH1 0x40 DUP3 ADD SWAP1 POP DUP2 DUP2 SUB PUSH0 DUP4 ADD MSTORE PUSH2 0x4669 DUP2 DUP6 PUSH2 0x3899 JUMP JUMPDEST SWAP1 POP DUP2 DUP2 SUB PUSH1 0x20 DUP4 ADD MSTORE PUSH2 0x467D DUP2 DUP5 PUSH2 0x3899 JUMP JUMPDEST SWAP1 POP SWAP4 SWAP3 POP POP POP JUMP JUMPDEST PUSH0 DUP2 MLOAD SWAP1 POP PUSH2 0x4694 DUP2 PUSH2 0x374D JUMP JUMPDEST SWAP3 SWAP2 POP POP JUMP JUMPDEST PUSH0 PUSH1 0x20 DUP3 DUP5 SUB SLT ISZERO PUSH2 0x46AF JUMPI PUSH2 0x46AE PUSH2 0x3051 JUMP JUMPDEST JUMPDEST PUSH0 PUSH2 0x46BC DUP5 DUP3 DUP6 ADD PUSH2 0x4686 JUMP JUMPDEST SWAP2 POP POP SWAP3 SWAP2 POP POP JUMP JUMPDEST PUSH0 DUP3 DUP3 MSTORE PUSH1 0x20 DUP3 ADD SWAP1 POP SWAP3 SWAP2 POP POP JUMP JUMPDEST PUSH0 PUSH2 0x46DF DUP3 PUSH2 0x387F JUMP JUMPDEST PUSH2 0x46E9 DUP2 DUP6 PUSH2 0x46C5 JUMP JUMPDEST SWAP4 POP PUSH2 0x46F9 DUP2 DUP6 PUSH1 0x20 DUP7 ADD PUSH2 0x2FB8 JUMP JUMPDEST PUSH2 0x4702 DUP2 PUSH2 0x2FE0 JUMP JUMPDEST DUP5 ADD SWAP2 POP POP SWAP3 SWAP2 POP POP JUMP JUMPDEST PUSH2 0x4716 DUP2 PUSH2 0x3124 JUMP JUMPDEST DUP3 MSTORE POP POP JUMP JUMPDEST PUSH0 PUSH1 0xA0 DUP4 ADD PUSH0 DUP4 ADD MLOAD PUSH2 0x4731 PUSH0 DUP7 ADD DUP3 PUSH2 0x4332 JUMP JUMPDEST POP PUSH1 0x20 DUP4 ADD MLOAD PUSH2 0x4744 PUSH1 0x20 DUP7 ADD DUP3 PUSH2 0x3CA8 JUMP JUMPDEST POP PUSH1 0x40 DUP4 ADD MLOAD DUP5 DUP3 SUB PUSH1 0x40 DUP7 ADD MSTORE PUSH2 0x475C DUP3 DUP3 PUSH2 0x46D5 JUMP JUMPDEST SWAP2 POP POP PUSH1 0x60 DUP4 ADD MLOAD DUP5 DUP3 SUB PUSH1 0x60 DUP7 ADD MSTORE PUSH2 0x4776 DUP3 DUP3 PUSH2 0x46D5 JUMP JUMPDEST SWAP2 POP POP PUSH1 0x80 DUP4 ADD MLOAD PUSH2 0x478B PUSH1 0x80 DUP7 ADD DUP3 PUSH2 0x470D JUMP JUMPDEST POP DUP1 SWAP2 POP POP SWAP3 SWAP2 POP POP JUMP JUMPDEST PUSH0 PUSH1 0x40 DUP3 ADD SWAP1 POP DUP2 DUP2 SUB PUSH0 DUP4 ADD MSTORE PUSH2 0x47AE DUP2 DUP6 PUSH2 0x471C JUMP JUMPDEST SWAP1 POP PUSH2 0x47BD PUSH1 0x20 DUP4 ADD DUP5 PUSH2 0x33BA JUMP JUMPDEST SWAP4 SWAP3 POP POP POP JUMP JUMPDEST PUSH0 PUSH1 0x40 DUP3 DUP5 SUB SLT ISZERO PUSH2 0x47D9 JUMPI PUSH2 0x47D8 PUSH2 0x3F77 JUMP JUMPDEST JUMPDEST PUSH2 0x47E3 PUSH1 0x40 PUSH2 0x3F32 JUMP JUMPDEST SWAP1 POP PUSH0 PUSH2 0x47F2 DUP5 DUP3 DUP6 ADD PUSH2 0x3E5F JUMP JUMPDEST PUSH0 DUP4 ADD MSTORE POP PUSH1 0x20 PUSH2 0x4805 DUP5 DUP3 DUP6 ADD PUSH2 0x3E5F JUMP JUMPDEST PUSH1 0x20 DUP4 ADD MSTORE POP SWAP3 SWAP2 POP POP JUMP JUMPDEST PUSH0 PUSH1 0x40 DUP3 DUP5 SUB SLT ISZERO PUSH2 0x4826 JUMPI PUSH2 0x4825 PUSH2 0x3051 JUMP JUMPDEST JUMPDEST PUSH0 PUSH2 0x4833 DUP5 DUP3 DUP6 ADD PUSH2 0x47C4 JUMP JUMPDEST SWAP2 POP POP SWAP3 SWAP2 POP POP JUMP JUMPDEST PUSH0 DUP2 SWAP1 POP DUP2 PUSH0 MSTORE PUSH1 0x20 PUSH0 KECCAK256 SWAP1 POP SWAP2 SWAP1 POP JUMP JUMPDEST PUSH0 PUSH1 0x20 PUSH1 0x1F DUP4 ADD DIV SWAP1 POP SWAP2 SWAP1 POP JUMP JUMPDEST PUSH0 DUP3 DUP3 SHL SWAP1 POP SWAP3 SWAP2 POP POP JUMP JUMPDEST PUSH0 PUSH1 0x8 DUP4 MUL PUSH2 0x4898 PUSH32 0xFFFFFFFFFFFFFFFFFFFFFFFFFFFFFFFFFFFFFFFFFFFFFFFFFFFFFFFFFFFFFFFF DUP3 PUSH2 0x485D JUMP JUMPDEST PUSH2 0x48A2 DUP7 DUP4 PUSH2 0x485D JUMP JUMPDEST SWAP6 POP DUP1 NOT DUP5 AND SWAP4 POP DUP1 DUP7 AND DUP5 OR SWAP3 POP POP POP SWAP4 SWAP3 POP POP POP JUMP JUMPDEST PUSH0 PUSH2 0x48D4 PUSH2 0x48CF PUSH2 0x48CA DUP5 PUSH2 0x30B3 JUMP JUMPDEST PUSH2 0x38F1 JUMP JUMPDEST PUSH2 0x30B3 JUMP JUMPDEST SWAP1 POP SWAP2 SWAP1 POP JUMP JUMPDEST PUSH0 DUP2 SWAP1 POP SWAP2 SWAP1 POP JUMP JUMPDEST PUSH2 0x48ED DUP4 PUSH2 0x48BA JUMP JUMPDEST PUSH2 0x4901 PUSH2 0x48F9 DUP3 PUSH2 0x48DB JUMP JUMPDEST DUP5 DUP5 SLOAD PUSH2 0x4869 JUMP JUMPDEST DUP3 SSTORE POP POP POP POP JUMP JUMPDEST PUSH0 SWAP1 JUMP JUMPDEST PUSH2 0x4915 PUSH2 0x4909 JUMP JUMPDEST PUSH2 0x4920 DUP2 DUP5 DUP5 PUSH2 0x48E4 JUMP JUMPDEST POP POP POP JUMP JUMPDEST JUMPDEST DUP2 DUP2 LT ISZERO PUSH2 0x4943 JUMPI PUSH2 0x4938 PUSH0 DUP3 PUSH2 0x490D JUMP JUMPDEST PUSH1 0x1 DUP2 ADD SWAP1 POP PUSH2 0x4926 JUMP JUMPDEST POP POP JUMP JUMPDEST PUSH1 0x1F DUP3 GT ISZERO PUSH2 0x4988 JUMPI PUSH2 0x4959 DUP2 PUSH2 0x483C JUMP JUMPDEST PUSH2 0x4962 DUP5 PUSH2 0x484E JUMP JUMPDEST DUP2 ADD PUSH1 0x20 DUP6 LT ISZERO PUSH2 0x4971 JUMPI DUP2 SWAP1 POP JUMPDEST PUSH2 0x4985 PUSH2 0x497D DUP6 PUSH2 0x484E JUMP JUMPDEST DUP4 ADD DUP3 PUSH2 0x4925 JUMP JUMPDEST POP POP JUMPDEST POP POP POP JUMP JUMPDEST PUSH0 DUP3 DUP3 SHR SWAP1 POP SWAP3 SWAP2 POP POP JUMP JUMPDEST PUSH0 PUSH2 0x49A8 PUSH0 NOT DUP5 PUSH1 0x8 MUL PUSH2 0x498D JUMP JUMPDEST NOT DUP1 DUP4 AND SWAP2 POP POP SWAP3 SWAP2 POP POP JUMP JUMPDEST PUSH0 PUSH2 0x49C0 DUP4 DUP4 PUSH2 0x4999 JUMP JUMPDEST SWAP2 POP DUP3 PUSH1 0x2 MUL DUP3 OR SWAP1 POP SWAP3 SWAP2 POP POP JUMP JUMPDEST PUSH2 0x49D9 DUP3 PUSH2 0x387F JUMP JUMPDEST PUSH8 0xFFFFFFFFFFFFFFFF DUP2 GT ISZERO PUSH2 0x49F2 JUMPI PUSH2 0x49F1 PUSH2 0x3E9E JUMP JUMPDEST JUMPDEST PUSH2 0x49FC DUP3 SLOAD PUSH2 0x3DF0 JUMP JUMPDEST PUSH2 0x4A07 DUP3 DUP3 DUP6 PUSH2 0x4947 JUMP JUMPDEST PUSH0 PUSH1 0x20 SWAP1 POP PUSH1 0x1F DUP4 GT PUSH1 0x1 DUP2 EQ PUSH2 0x4A38 JUMPI PUSH0 DUP5 ISZERO PUSH2 0x4A26 JUMPI DUP3 DUP8 ADD MLOAD SWAP1 POP JUMPDEST PUSH2 0x4A30 DUP6 DUP3 PUSH2 0x49B5 JUMP JUMPDEST DUP7 SSTORE POP PUSH2 0x4A97 JUMP JUMPDEST PUSH1 0x1F NOT DUP5 AND PUSH2 0x4A46 DUP7 PUSH2 0x483C JUMP JUMPDEST PUSH0 JUMPDEST DUP3 DUP2 LT ISZERO PUSH2 0x4A6D JUMPI DUP5 DUP10 ADD MLOAD DUP3 SSTORE PUSH1 0x1 DUP3 ADD SWAP2 POP PUSH1 0x20 DUP6 ADD SWAP5 POP PUSH1 0x20 DUP2 ADD SWAP1 POP PUSH2 0x4A48 JUMP JUMPDEST DUP7 DUP4 LT ISZERO PUSH2 0x4A8A JUMPI DUP5 DUP10 ADD MLOAD PUSH2 0x4A86 PUSH1 0x1F DUP10 AND DUP3 PUSH2 0x4999 JUMP JUMPDEST DUP4 SSTORE POP JUMPDEST PUSH1 0x1 PUSH1 0x2 DUP9 MUL ADD DUP9 SSTORE POP POP POP JUMPDEST POP POP POP POP POP POP JUMP JUMPDEST PUSH0 DUP2 MLOAD SWAP1 POP SWAP2 SWAP1 POP JUMP JUMPDEST PUSH0 DUP3 DUP3 MSTORE PUSH1 0x20 DUP3 ADD SWAP1 POP SWAP3 SWAP2 POP POP JUMP JUMPDEST PUSH0 DUP2 SWAP1 POP PUSH1 0x20 DUP3 ADD SWAP1 POP SWAP2 SWAP1 POP JUMP JUMPDEST PUSH2 0x4AD1 DUP2 PUSH2 0x354B JUMP JUMPDEST DUP3 MSTORE POP POP JUMP JUMPDEST PUSH0 PUSH1 0x60 DUP4 ADD PUSH0 DUP4 ADD MLOAD PUSH2 0x4AEC PUSH0 DUP7 ADD DUP3 PUSH2 0x4332 JUMP JUMPDEST POP PUSH1 0x20 DUP4 ADD MLOAD PUSH2 0x4AFF PUSH1 0x20 DUP7 ADD DUP3 PUSH2 0x4AC8 JUMP JUMPDEST POP PUSH1 0x40 DUP4 ADD MLOAD DUP5 DUP3 SUB PUSH1 0x40 DUP7 ADD MSTORE PUSH2 0x4B17 DUP3 DUP3 PUSH2 0x46D5 JUMP JUMPDEST SWAP2 POP POP DUP1 SWAP2 POP POP SWAP3 SWAP2 POP POP JUMP JUMPDEST PUSH0 PUSH2 0x4B2F DUP4 DUP4 PUSH2 0x4AD7 JUMP JUMPDEST SWAP1 POP SWAP3 SWAP2 POP POP JUMP JUMPDEST PUSH0 PUSH1 0x20 DUP3 ADD SWAP1 POP SWAP2 SWAP1 POP JUMP JUMPDEST PUSH0 PUSH2 0x4B4D DUP3 PUSH2 0x4A9F JUMP JUMPDEST PUSH2 0x4B57 DUP2 DUP6 PUSH2 0x4AA9 JUMP JUMPDEST SWAP4 POP DUP4 PUSH1 0x20 DUP3 MUL DUP6 ADD PUSH2 0x4B69 DUP6 PUSH2 0x4AB9 JUMP JUMPDEST DUP1 PUSH0 JUMPDEST DUP6 DUP2 LT ISZERO PUSH2 0x4BA4 JUMPI DUP5 DUP5 SUB DUP10 MSTORE DUP2 MLOAD PUSH2 0x4B85 DUP6 DUP3 PUSH2 0x4B24 JUMP JUMPDEST SWAP5 POP PUSH2 0x4B90 DUP4 PUSH2 0x4B37 JUMP JUMPDEST SWAP3 POP PUSH1 0x20 DUP11 ADD SWAP10 POP POP PUSH1 0x1 DUP2 ADD SWAP1 POP PUSH2 0x4B6C JUMP JUMPDEST POP DUP3 SWAP8 POP DUP8 SWAP6 POP POP POP POP POP POP SWAP3 SWAP2 POP POP JUMP JUMPDEST PUSH0 PUSH1 0x20 DUP3 ADD SWAP1 POP DUP2 DUP2 SUB PUSH0 DUP4 ADD MSTORE PUSH2 0x4BCE DUP2 DUP5 PUSH2 0x4B43 JUMP JUMPDEST SWAP1 POP SWAP3 SWAP2 POP POP JUMP JUMPDEST PUSH0 PUSH1 0x40 DUP3 DUP5 SUB SLT ISZERO PUSH2 0x4BEB JUMPI PUSH2 0x4BEA PUSH2 0x3F77 JUMP JUMPDEST JUMPDEST PUSH2 0x4BF5 PUSH1 0x40 PUSH2 0x3F32 JUMP JUMPDEST SWAP1 POP PUSH0 PUSH2 0x4C04 DUP5 DUP3 DUP6 ADD PUSH2 0x30D2 JUMP JUMPDEST PUSH0 DUP4 ADD MSTORE POP PUSH1 0x20 PUSH2 0x4C17 DUP5 DUP3 DUP6 ADD PUSH2 0x30D2 JUMP JUMPDEST PUSH1 0x20 DUP4 ADD MSTORE POP SWAP3 SWAP2 POP POP JUMP JUMPDEST PUSH0 PUSH1 0x40 DUP3 DUP5 SUB SLT ISZERO PUSH2 0x4C38 JUMPI PUSH2 0x4C37 PUSH2 0x3051 JUMP JUMPDEST JUMPDEST PUSH0 PUSH2 0x4C45 DUP5 DUP3 DUP6 ADD PUSH2 0x4BD6 JUMP JUMPDEST SWAP2 POP POP SWAP3 SWAP2 POP POP JUMP JUMPDEST PUSH0 PUSH1 0x60 DUP3 ADD SWAP1 POP PUSH2 0x4C61 PUSH0 DUP4 ADD DUP7 PUSH2 0x3ECB JUMP JUMPDEST PUSH2 0x4C6E PUSH1 0x20 DUP4 ADD DUP6 PUSH2 0x362A JUMP JUMPDEST PUSH2 0x4C7B PUSH1 0x40 DUP4 ADD DUP5 PUSH2 0x362A JUMP JUMPDEST SWAP5 SWAP4 POP POP POP POP JUMP JUMPDEST PUSH32 0x4E487B7100000000000000000000000000000000000000000000000000000000 PUSH0 MSTORE PUSH1 0x12 PUSH1 0x4 MSTORE PUSH1 0x24 PUSH0 REVERT JUMPDEST PUSH32 0x4E487B7100000000000000000000000000000000000000000000000000000000 PUSH0 MSTORE PUSH1 0x11 PUSH1 0x4 MSTORE PUSH1 0x24 PUSH0 REVERT JUMPDEST PUSH0 PUSH2 0x4CE7 DUP3 PUSH2 0x30B3 JUMP JUMPDEST SWAP2 POP PUSH2 0x4CF2 DUP4 PUSH2 0x30B3 JUMP JUMPDEST SWAP3 POP DUP3 PUSH2 0x4D02 JUMPI PUSH2 0x4D01 PUSH2 0x4C83 JUMP JUMPDEST JUMPDEST DUP3 DUP3 DIV SWAP1 POP SWAP3 SWAP2 POP POP JUMP JUMPDEST PUSH0 PUSH2 0x4D17 DUP3 PUSH2 0x30B3 JUMP JUMPDEST SWAP2 POP PUSH2 0x4D22 DUP4 PUSH2 0x30B3 JUMP JUMPDEST SWAP3 POP DUP3 DUP3 MUL PUSH2 0x4D30 DUP2 PUSH2 0x30B3 JUMP JUMPDEST SWAP2 POP DUP3 DUP3 DIV DUP5 EQ DUP4 ISZERO OR PUSH2 0x4D47 JUMPI PUSH2 0x4D46 PUSH2 0x4CB0 JUMP JUMPDEST JUMPDEST POP SWAP3 SWAP2 POP POP JUMP JUMPDEST PUSH0 DUP3 SWAP1 POP SWAP3 SWAP2 POP POP JUMP JUMPDEST PUSH0 PUSH2 0x4D63 DUP4 DUP4 PUSH2 0x4D4E JUMP JUMPDEST DUP3 PUSH2 0x4D6E DUP2 CALLDATALOAD PUSH2 0x3400 JUMP JUMPDEST SWAP3 POP PUSH1 0x20 DUP3 LT ISZERO PUSH2 0x4DAE JUMPI PUSH2 0x4DA9 PUSH32 0xFFFFFFFFFFFFFFFFFFFFFFFFFFFFFFFFFFFFFFFFFFFFFFFFFFFFFFFFFFFFFFFF DUP4 PUSH1 0x20 SUB PUSH1 0x8 MUL PUSH2 0x485D JUMP JUMPDEST DUP4 AND SWAP3 POP JUMPDEST POP POP SWAP3 SWAP2 POP POP JUMP JUMPDEST PUSH0 PUSH32 0xFFFFFFFFFFFFFFFF000000000000000000000000000000000000000000000000 DUP3 AND SWAP1 POP SWAP2 SWAP1 POP JUMP JUMPDEST PUSH0 PUSH2 0x4DEC DUP4 DUP4 PUSH2 0x4D4E JUMP JUMPDEST DUP3 PUSH2 0x4DF7 DUP2 CALLDATALOAD PUSH2 0x4DB6 JUMP JUMPDEST SWAP3 POP PUSH1 0x8 DUP3 LT ISZERO PUSH2 0x4E37 JUMPI PUSH2 0x4E32 PUSH32 0xFFFFFFFFFFFFFFFF000000000000000000000000000000000000000000000000 DUP4 PUSH1 0x8 SUB PUSH1 0x8 MUL PUSH2 0x485D JUMP JUMPDEST DUP4 AND SWAP3 POP JUMPDEST POP POP SWAP3 SWAP2 POP POP JUMP JUMPDEST PUSH0 DUP2 PUSH1 0xC0 SHL SWAP1 POP SWAP2 SWAP1 POP JUMP JUMPDEST PUSH0 PUSH2 0x4E55 DUP3 PUSH2 0x4E3F JUMP JUMPDEST SWAP1 POP SWAP2 SWAP1 POP JUMP JUMPDEST PUSH2 0x4E6D PUSH2 0x4E68 DUP3 PUSH2 0x35BA JUMP JUMPDEST PUSH2 0x4E4B JUMP JUMPDEST DUP3 MSTORE POP POP JUMP JUMPDEST PUSH0 DUP2 PUSH1 0xE0 SHL SWAP1 POP SWAP2 SWAP1 POP JUMP JUMPDEST PUSH0 PUSH2 0x4E89 DUP3 PUSH2 0x4E73 JUMP JUMPDEST SWAP1 POP SWAP2 SWAP1 POP JUMP JUMPDEST PUSH2 0x4EA1 PUSH2 0x4E9C DUP3 PUSH2 0x36D6 JUMP JUMPDEST PUSH2 0x4E7F JUMP JUMPDEST DUP3 MSTORE POP POP JUMP JUMPDEST PUSH0 DUP2 SWAP1 POP SWAP2 SWAP1 POP JUMP JUMPDEST PUSH2 0x4EC1 PUSH2 0x4EBC DUP3 PUSH2 0x30B3 JUMP JUMPDEST PUSH2 0x4EA7 JUMP JUMPDEST DUP3 MSTORE POP POP JUMP JUMPDEST PUSH0 PUSH2 0x4ED2 DUP3 DUP8 PUSH2 0x4E5C JUMP JUMPDEST PUSH1 0x8 DUP3 ADD SWAP2 POP PUSH2 0x4EE2 DUP3 DUP7 PUSH2 0x4E90 JUMP JUMPDEST PUSH1 0x4 DUP3 ADD SWAP2 POP PUSH2 0x4EF2 DUP3 DUP6 PUSH2 0x4EB0 JUMP JUMPDEST PUSH1 0x20 DUP3 ADD SWAP2 POP PUSH2 0x4F02 DUP3 DUP5 PUSH2 0x4192 JUMP JUMPDEST SWAP2 POP DUP2 SWAP1 POP SWAP6 SWAP5 POP POP POP POP POP JUMP JUMPDEST PUSH0 PUSH2 0x4F1A DUP3 PUSH2 0x30B3 JUMP JUMPDEST SWAP2 POP PUSH2 0x4F25 DUP4 PUSH2 0x30B3 JUMP JUMPDEST SWAP3 POP DUP3 DUP3 ADD SWAP1 POP DUP1 DUP3 GT ISZERO PUSH2 0x4F3D JUMPI PUSH2 0x4F3C PUSH2 0x4CB0 JUMP JUMPDEST JUMPDEST SWAP3 SWAP2 POP POP JUMP JUMPDEST PUSH0 DUP2 SWAP1 POP SWAP2 SWAP1 POP JUMP JUMPDEST PUSH2 0x4F5D PUSH2 0x4F58 DUP3 PUSH2 0x3400 JUMP JUMPDEST PUSH2 0x4F43 JUMP JUMPDEST DUP3 MSTORE POP POP JUMP JUMPDEST PUSH0 PUSH2 0x4F6E DUP3 DUP6 PUSH2 0x4F4C JUMP JUMPDEST PUSH1 0x20 DUP3 ADD SWAP2 POP PUSH2 0x4F7E DUP3 DUP5 PUSH2 0x4E5C JUMP JUMPDEST PUSH1 0x8 DUP3 ADD SWAP2 POP DUP2 SWAP1 POP SWAP4 SWAP3 POP POP POP JUMP JUMPDEST PUSH0 PUSH2 0x4F99 DUP3 DUP8 PUSH2 0x4F4C JUMP JUMPDEST PUSH1 0x20 DUP3 ADD SWAP2 POP PUSH2 0x4FA9 DUP3 DUP7 PUSH2 0x4E5C JUMP JUMPDEST PUSH1 0x8 DUP3 ADD SWAP2 POP PUSH2 0x4FB9 DUP3 DUP6 PUSH2 0x4F4C JUMP JUMPDEST PUSH1 0x20 DUP3 ADD SWAP2 POP PUSH2 0x4FC9 DUP3 DUP5 PUSH2 0x4192 JUMP JUMPDEST SWAP2 POP DUP2 SWAP1 POP SWAP6 SWAP5 POP POP POP POP POP JUMP JUMPDEST PUSH0 DUP2 MLOAD SWAP1 POP PUSH2 0x4FE5 DUP2 PUSH2 0x3409 JUMP JUMPDEST SWAP3 SWAP2 POP POP JUMP JUMPDEST PUSH0 DUP2 MLOAD SWAP1 POP PUSH2 0x4FF9 DUP2 PUSH2 0x4357 JUMP JUMPDEST SWAP3 SWAP2 POP POP JUMP JUMPDEST PUSH0 PUSH1 0x80 DUP3 DUP5 SUB SLT ISZERO PUSH2 0x5014 JUMPI PUSH2 0x5013 PUSH2 0x3F77 JUMP JUMPDEST JUMPDEST PUSH2 0x501E PUSH1 0x60 PUSH2 0x3F32 JUMP JUMPDEST SWAP1 POP PUSH0 PUSH2 0x502D DUP5 DUP3 DUP6 ADD PUSH2 0x4FD7 JUMP JUMPDEST PUSH0 DUP4 ADD MSTORE POP PUSH1 0x20 PUSH2 0x5040 DUP5 DUP3 DUP6 ADD PUSH2 0x4FEB JUMP JUMPDEST PUSH1 0x20 DUP4 ADD MSTORE POP PUSH1 0x40 PUSH2 0x5054 DUP5 DUP3 DUP6 ADD PUSH2 0x47C4 JUMP JUMPDEST PUSH1 0x40 DUP4 ADD MSTORE POP SWAP3 SWAP2 POP POP JUMP JUMPDEST PUSH0 PUSH1 0x80 DUP3 DUP5 SUB SLT ISZERO PUSH2 0x5075 JUMPI PUSH2 0x5074 PUSH2 0x3051 JUMP JUMPDEST JUMPDEST PUSH0 PUSH2 0x5082 DUP5 DUP3 DUP6 ADD PUSH2 0x4FFF JUMP JUMPDEST SWAP2 POP POP SWAP3 SWAP2 POP POP JUMP JUMPDEST PUSH0 PUSH1 0x60 DUP3 ADD SWAP1 POP PUSH2 0x509E PUSH0 DUP4 ADD DUP7 PUSH2 0x33BA JUMP JUMPDEST PUSH2 0x50AB PUSH1 0x20 DUP4 ADD DUP6 PUSH2 0x33BA JUMP JUMPDEST PUSH2 0x50B8 PUSH1 0x40 DUP4 ADD DUP5 PUSH2 0x362A JUMP JUMPDEST SWAP5 SWAP4 POP POP POP POP JUMP INVALID LOG2 PUSH5 0x6970667358 0x22 SLT KECCAK256 DUP4 0x2B SWAP1 0xEB 0xA6 CALLER BALANCE 0xB2 0xAC 0xB4 0xD DUP15 CALLDATALOAD PUSH25 0x6EC952268846213C4537DC6B1465D8DD4F2764736F6C634300 ADDMOD XOR STOP CALLER "
	},
	"abi": [
		{
			"inputs": [
				{
					"internalType": "string",
					"name": "_name",
					"type": "string"
				},
				{
					"internalType": "string",
					"name": "_symbol",
					"type": "string"
				},
				{
					"internalType": "uint256",
					"name": "_initialSupply",
					"type": "uint256"
				},
				{
					"internalType": "address",
					"name": "_lzEndpoint",
					"type": "address"
				},
				{
					"internalType": "address",
					"name": "_delegate",
					"type": "address"
				}
			],
			"stateMutability": "nonpayable",
			"type": "constructor"
		},
		{
			"inputs": [
				{
					"internalType": "address",
					"name": "spender",
					"type": "address"
				},
				{
					"internalType": "uint256",
					"name": "allowance",
					"type": "uint256"
				},
				{
					"internalType": "uint256",
					"name": "needed",
					"type": "uint256"
				}
			],
			"name": "ERC20InsufficientAllowance",
			"type": "error"
		},
		{
			"inputs": [
				{
					"internalType": "address",
					"name": "sender",
					"type": "address"
				},
				{
					"internalType": "uint256",
					"name": "balance",
					"type": "uint256"
				},
				{
					"internalType": "uint256",
					"name": "needed",
					"type": "uint256"
				}
			],
			"name": "ERC20InsufficientBalance",
			"type": "error"
		},
		{
			"inputs": [
				{
					"internalType": "address",
					"name": "approver",
					"type": "address"
				}
			],
			"name": "ERC20InvalidApprover",
			"type": "error"
		},
		{
			"inputs": [
				{
					"internalType": "address",
					"name": "receiver",
					"type": "address"
				}
			],
			"name": "ERC20InvalidReceiver",
			"type": "error"
		},
		{
			"inputs": [
				{
					"internalType": "address",
					"name": "sender",
					"type": "address"
				}
			],
			"name": "ERC20InvalidSender",
			"type": "error"
		},
		{
			"inputs": [
				{
					"internalType": "address",
					"name": "spender",
					"type": "address"
				}
			],
			"name": "ERC20InvalidSpender",
			"type": "error"
		},
		{
			"inputs": [],
			"name": "InvalidDelegate",
			"type": "error"
		},
		{
			"inputs": [],
			"name": "InvalidEndpointCall",
			"type": "error"
		},
		{
			"inputs": [],
			"name": "InvalidLocalDecimals",
			"type": "error"
		},
		{
			"inputs": [
				{
					"internalType": "bytes",
					"name": "options",
					"type": "bytes"
				}
			],
			"name": "InvalidOptions",
			"type": "error"
		},
		{
			"inputs": [],
			"name": "LzTokenUnavailable",
			"type": "error"
		},
		{
			"inputs": [
				{
					"internalType": "uint32",
					"name": "eid",
					"type": "uint32"
				}
			],
			"name": "NoPeer",
			"type": "error"
		},
		{
			"inputs": [
				{
					"internalType": "uint256",
					"name": "msgValue",
					"type": "uint256"
				}
			],
			"name": "NotEnoughNative",
			"type": "error"
		},
		{
			"inputs": [
				{
					"internalType": "address",
					"name": "addr",
					"type": "address"
				}
			],
			"name": "OnlyEndpoint",
			"type": "error"
		},
		{
			"inputs": [
				{
					"internalType": "uint32",
					"name": "eid",
					"type": "uint32"
				},
				{
					"internalType": "bytes32",
					"name": "sender",
					"type": "bytes32"
				}
			],
			"name": "OnlyPeer",
			"type": "error"
		},
		{
			"inputs": [],
			"name": "OnlySelf",
			"type": "error"
		},
		{
			"inputs": [
				{
					"internalType": "address",
					"name": "owner",
					"type": "address"
				}
			],
			"name": "OwnableInvalidOwner",
			"type": "error"
		},
		{
			"inputs": [
				{
					"internalType": "address",
					"name": "account",
					"type": "address"
				}
			],
			"name": "OwnableUnauthorizedAccount",
			"type": "error"
		},
		{
			"inputs": [
				{
					"internalType": "address",
					"name": "token",
					"type": "address"
				}
			],
			"name": "SafeERC20FailedOperation",
			"type": "error"
		},
		{
			"inputs": [
				{
					"internalType": "bytes",
					"name": "result",
					"type": "bytes"
				}
			],
			"name": "SimulationResult",
			"type": "error"
		},
		{
			"inputs": [
				{
					"internalType": "uint256",
					"name": "amountLD",
					"type": "uint256"
				},
				{
					"internalType": "uint256",
					"name": "minAmountLD",
					"type": "uint256"
				}
			],
			"name": "SlippageExceeded",
			"type": "error"
		},
		{
			"anonymous": false,
			"inputs": [
				{
					"indexed": true,
					"internalType": "address",
					"name": "owner",
					"type": "address"
				},
				{
					"indexed": true,
					"internalType": "address",
					"name": "spender",
					"type": "address"
				},
				{
					"indexed": false,
					"internalType": "uint256",
					"name": "value",
					"type": "uint256"
				}
			],
			"name": "Approval",
			"type": "event"
		},
		{
			"anonymous": false,
			"inputs": [
				{
					"components": [
						{
							"internalType": "uint32",
							"name": "eid",
							"type": "uint32"
						},
						{
							"internalType": "uint16",
							"name": "msgType",
							"type": "uint16"
						},
						{
							"internalType": "bytes",
							"name": "options",
							"type": "bytes"
						}
					],
					"indexed": false,
					"internalType": "struct EnforcedOptionParam[]",
					"name": "_enforcedOptions",
					"type": "tuple[]"
				}
			],
			"name": "EnforcedOptionSet",
			"type": "event"
		},
		{
			"anonymous": false,
			"inputs": [
				{
					"indexed": false,
					"internalType": "address",
					"name": "inspector",
					"type": "address"
				}
			],
			"name": "MsgInspectorSet",
			"type": "event"
		},
		{
			"anonymous": false,
			"inputs": [
				{
					"indexed": true,
					"internalType": "bytes32",
					"name": "guid",
					"type": "bytes32"
				},
				{
					"indexed": false,
					"internalType": "uint32",
					"name": "srcEid",
					"type": "uint32"
				},
				{
					"indexed": true,
					"internalType": "address",
					"name": "toAddress",
					"type": "address"
				},
				{
					"indexed": false,
					"internalType": "uint256",
					"name": "amountReceivedLD",
					"type": "uint256"
				}
			],
			"name": "OFTReceived",
			"type": "event"
		},
		{
			"anonymous": false,
			"inputs": [
				{
					"indexed": true,
					"internalType": "bytes32",
					"name": "guid",
					"type": "bytes32"
				},
				{
					"indexed": false,
					"internalType": "uint32",
					"name": "dstEid",
					"type": "uint32"
				},
				{
					"indexed": true,
					"internalType": "address",
					"name": "fromAddress",
					"type": "address"
				},
				{
					"indexed": false,
					"internalType": "uint256",
					"name": "amountSentLD",
					"type": "uint256"
				},
				{
					"indexed": false,
					"internalType": "uint256",
					"name": "amountReceivedLD",
					"type": "uint256"
				}
			],
			"name": "OFTSent",
			"type": "event"
		},
		{
			"anonymous": false,
			"inputs": [
				{
					"indexed": true,
					"internalType": "address",
					"name": "previousOwner",
					"type": "address"
				},
				{
					"indexed": true,
					"internalType": "address",
					"name": "newOwner",
					"type": "address"
				}
			],
			"name": "OwnershipTransferred",
			"type": "event"
		},
		{
			"anonymous": false,
			"inputs": [
				{
					"indexed": false,
					"internalType": "uint32",
					"name": "eid",
					"type": "uint32"
				},
				{
					"indexed": false,
					"internalType": "bytes32",
					"name": "peer",
					"type": "bytes32"
				}
			],
			"name": "PeerSet",
			"type": "event"
		},
		{
			"anonymous": false,
			"inputs": [
				{
					"indexed": false,
					"internalType": "address",
					"name": "preCrimeAddress",
					"type": "address"
				}
			],
			"name": "PreCrimeSet",
			"type": "event"
		},
		{
			"anonymous": false,
			"inputs": [
				{
					"indexed": true,
					"internalType": "address",
					"name": "from",
					"type": "address"
				},
				{
					"indexed": true,
					"internalType": "address",
					"name": "to",
					"type": "address"
				},
				{
					"indexed": false,
					"internalType": "uint256",
					"name": "value",
					"type": "uint256"
				}
			],
			"name": "Transfer",
			"type": "event"
		},
		{
			"inputs": [],
			"name": "SEND",
			"outputs": [
				{
					"internalType": "uint16",
					"name": "",
					"type": "uint16"
				}
			],
			"stateMutability": "view",
			"type": "function"
		},
		{
			"inputs": [],
			"name": "SEND_AND_CALL",
			"outputs": [
				{
					"internalType": "uint16",
					"name": "",
					"type": "uint16"
				}
			],
			"stateMutability": "view",
			"type": "function"
		},
		{
			"inputs": [
				{
					"components": [
						{
							"internalType": "uint32",
							"name": "srcEid",
							"type": "uint32"
						},
						{
							"internalType": "bytes32",
							"name": "sender",
							"type": "bytes32"
						},
						{
							"internalType": "uint64",
							"name": "nonce",
							"type": "uint64"
						}
					],
					"internalType": "struct Origin",
					"name": "origin",
					"type": "tuple"
				}
			],
			"name": "allowInitializePath",
			"outputs": [
				{
					"internalType": "bool",
					"name": "",
					"type": "bool"
				}
			],
			"stateMutability": "view",
			"type": "function"
		},
		{
			"inputs": [
				{
					"internalType": "address",
					"name": "owner",
					"type": "address"
				},
				{
					"internalType": "address",
					"name": "spender",
					"type": "address"
				}
			],
			"name": "allowance",
			"outputs": [
				{
					"internalType": "uint256",
					"name": "",
					"type": "uint256"
				}
			],
			"stateMutability": "view",
			"type": "function"
		},
		{
			"inputs": [],
			"name": "approvalRequired",
			"outputs": [
				{
					"internalType": "bool",
					"name": "",
					"type": "bool"
				}
			],
			"stateMutability": "pure",
			"type": "function"
		},
		{
			"inputs": [
				{
					"internalType": "address",
					"name": "spender",
					"type": "address"
				},
				{
					"internalType": "uint256",
					"name": "value",
					"type": "uint256"
				}
			],
			"name": "approve",
			"outputs": [
				{
					"internalType": "bool",
					"name": "",
					"type": "bool"
				}
			],
			"stateMutability": "nonpayable",
			"type": "function"
		},
		{
			"inputs": [
				{
					"internalType": "address",
					"name": "account",
					"type": "address"
				}
			],
			"name": "balanceOf",
			"outputs": [
				{
					"internalType": "uint256",
					"name": "",
					"type": "uint256"
				}
			],
			"stateMutability": "view",
			"type": "function"
		},
		{
			"inputs": [
				{
					"internalType": "uint32",
					"name": "_eid",
					"type": "uint32"
				},
				{
					"internalType": "uint16",
					"name": "_msgType",
					"type": "uint16"
				},
				{
					"internalType": "bytes",
					"name": "_extraOptions",
					"type": "bytes"
				}
			],
			"name": "combineOptions",
			"outputs": [
				{
					"internalType": "bytes",
					"name": "",
					"type": "bytes"
				}
			],
			"stateMutability": "view",
			"type": "function"
		},
		{
			"inputs": [],
			"name": "decimalConversionRate",
			"outputs": [
				{
					"internalType": "uint256",
					"name": "",
					"type": "uint256"
				}
			],
			"stateMutability": "view",
			"type": "function"
		},
		{
			"inputs": [],
			"name": "decimals",
			"outputs": [
				{
					"internalType": "uint8",
					"name": "",
					"type": "uint8"
				}
			],
			"stateMutability": "view",
			"type": "function"
		},
		{
			"inputs": [],
			"name": "endpoint",
			"outputs": [
				{
					"internalType": "contract ILayerZeroEndpointV2",
					"name": "",
					"type": "address"
				}
			],
			"stateMutability": "view",
			"type": "function"
		},
		{
			"inputs": [
				{
					"internalType": "uint32",
					"name": "eid",
					"type": "uint32"
				},
				{
					"internalType": "uint16",
					"name": "msgType",
					"type": "uint16"
				}
			],
			"name": "enforcedOptions",
			"outputs": [
				{
					"internalType": "bytes",
					"name": "enforcedOption",
					"type": "bytes"
				}
			],
			"stateMutability": "view",
			"type": "function"
		},
		{
			"inputs": [
				{
					"components": [
						{
							"internalType": "uint32",
							"name": "srcEid",
							"type": "uint32"
						},
						{
							"internalType": "bytes32",
							"name": "sender",
							"type": "bytes32"
						},
						{
							"internalType": "uint64",
							"name": "nonce",
							"type": "uint64"
						}
					],
					"internalType": "struct Origin",
					"name": "",
					"type": "tuple"
				},
				{
					"internalType": "bytes",
					"name": "",
					"type": "bytes"
				},
				{
					"internalType": "address",
					"name": "_sender",
					"type": "address"
				}
			],
			"name": "isComposeMsgSender",
			"outputs": [
				{
					"internalType": "bool",
					"name": "",
					"type": "bool"
				}
			],
			"stateMutability": "view",
			"type": "function"
		},
		{
			"inputs": [
				{
					"internalType": "uint32",
					"name": "_eid",
					"type": "uint32"
				},
				{
					"internalType": "bytes32",
					"name": "_peer",
					"type": "bytes32"
				}
			],
			"name": "isPeer",
			"outputs": [
				{
					"internalType": "bool",
					"name": "",
					"type": "bool"
				}
			],
			"stateMutability": "view",
			"type": "function"
		},
		{
			"inputs": [
				{
					"components": [
						{
							"internalType": "uint32",
							"name": "srcEid",
							"type": "uint32"
						},
						{
							"internalType": "bytes32",
							"name": "sender",
							"type": "bytes32"
						},
						{
							"internalType": "uint64",
							"name": "nonce",
							"type": "uint64"
						}
					],
					"internalType": "struct Origin",
					"name": "_origin",
					"type": "tuple"
				},
				{
					"internalType": "bytes32",
					"name": "_guid",
					"type": "bytes32"
				},
				{
					"internalType": "bytes",
					"name": "_message",
					"type": "bytes"
				},
				{
					"internalType": "address",
					"name": "_executor",
					"type": "address"
				},
				{
					"internalType": "bytes",
					"name": "_extraData",
					"type": "bytes"
				}
			],
			"name": "lzReceive",
			"outputs": [],
			"stateMutability": "payable",
			"type": "function"
		},
		{
			"inputs": [
				{
					"components": [
						{
							"components": [
								{
									"internalType": "uint32",
									"name": "srcEid",
									"type": "uint32"
								},
								{
									"internalType": "bytes32",
									"name": "sender",
									"type": "bytes32"
								},
								{
									"internalType": "uint64",
									"name": "nonce",
									"type": "uint64"
								}
							],
							"internalType": "struct Origin",
							"name": "origin",
							"type": "tuple"
						},
						{
							"internalType": "uint32",
							"name": "dstEid",
							"type": "uint32"
						},
						{
							"internalType": "address",
							"name": "receiver",
							"type": "address"
						},
						{
							"internalType": "bytes32",
							"name": "guid",
							"type": "bytes32"
						},
						{
							"internalType": "uint256",
							"name": "value",
							"type": "uint256"
						},
						{
							"internalType": "address",
							"name": "executor",
							"type": "address"
						},
						{
							"internalType": "bytes",
							"name": "message",
							"type": "bytes"
						},
						{
							"internalType": "bytes",
							"name": "extraData",
							"type": "bytes"
						}
					],
					"internalType": "struct InboundPacket[]",
					"name": "_packets",
					"type": "tuple[]"
				}
			],
			"name": "lzReceiveAndRevert",
			"outputs": [],
			"stateMutability": "payable",
			"type": "function"
		},
		{
			"inputs": [
				{
					"components": [
						{
							"internalType": "uint32",
							"name": "srcEid",
							"type": "uint32"
						},
						{
							"internalType": "bytes32",
							"name": "sender",
							"type": "bytes32"
						},
						{
							"internalType": "uint64",
							"name": "nonce",
							"type": "uint64"
						}
					],
					"internalType": "struct Origin",
					"name": "_origin",
					"type": "tuple"
				},
				{
					"internalType": "bytes32",
					"name": "_guid",
					"type": "bytes32"
				},
				{
					"internalType": "bytes",
					"name": "_message",
					"type": "bytes"
				},
				{
					"internalType": "address",
					"name": "_executor",
					"type": "address"
				},
				{
					"internalType": "bytes",
					"name": "_extraData",
					"type": "bytes"
				}
			],
			"name": "lzReceiveSimulate",
			"outputs": [],
			"stateMutability": "payable",
			"type": "function"
		},
		{
			"inputs": [],
			"name": "msgInspector",
			"outputs": [
				{
					"internalType": "address",
					"name": "",
					"type": "address"
				}
			],
			"stateMutability": "view",
			"type": "function"
		},
		{
			"inputs": [],
			"name": "name",
			"outputs": [
				{
					"internalType": "string",
					"name": "",
					"type": "string"
				}
			],
			"stateMutability": "view",
			"type": "function"
		},
		{
			"inputs": [
				{
					"internalType": "uint32",
					"name": "",
					"type": "uint32"
				},
				{
					"internalType": "bytes32",
					"name": "",
					"type": "bytes32"
				}
			],
			"name": "nextNonce",
			"outputs": [
				{
					"internalType": "uint64",
					"name": "nonce",
					"type": "uint64"
				}
			],
			"stateMutability": "view",
			"type": "function"
		},
		{
			"inputs": [],
			"name": "oApp",
			"outputs": [
				{
					"internalType": "address",
					"name": "",
					"type": "address"
				}
			],
			"stateMutability": "view",
			"type": "function"
		},
		{
			"inputs": [],
			"name": "oAppVersion",
			"outputs": [
				{
					"internalType": "uint64",
					"name": "senderVersion",
					"type": "uint64"
				},
				{
					"internalType": "uint64",
					"name": "receiverVersion",
					"type": "uint64"
				}
			],
			"stateMutability": "pure",
			"type": "function"
		},
		{
			"inputs": [],
			"name": "oftVersion",
			"outputs": [
				{
					"internalType": "bytes4",
					"name": "interfaceId",
					"type": "bytes4"
				},
				{
					"internalType": "uint64",
					"name": "version",
					"type": "uint64"
				}
			],
			"stateMutability": "pure",
			"type": "function"
		},
		{
			"inputs": [],
			"name": "owner",
			"outputs": [
				{
					"internalType": "address",
					"name": "",
					"type": "address"
				}
			],
			"stateMutability": "view",
			"type": "function"
		},
		{
			"inputs": [
				{
					"internalType": "uint32",
					"name": "eid",
					"type": "uint32"
				}
			],
			"name": "peers",
			"outputs": [
				{
					"internalType": "bytes32",
					"name": "peer",
					"type": "bytes32"
				}
			],
			"stateMutability": "view",
			"type": "function"
		},
		{
			"inputs": [],
			"name": "preCrime",
			"outputs": [
				{
					"internalType": "address",
					"name": "",
					"type": "address"
				}
			],
			"stateMutability": "view",
			"type": "function"
		},
		{
			"inputs": [
				{
					"components": [
						{
							"internalType": "uint32",
							"name": "dstEid",
							"type": "uint32"
						},
						{
							"internalType": "bytes32",
							"name": "to",
							"type": "bytes32"
						},
						{
							"internalType": "uint256",
							"name": "amountLD",
							"type": "uint256"
						},
						{
							"internalType": "uint256",
							"name": "minAmountLD",
							"type": "uint256"
						},
						{
							"internalType": "bytes",
							"name": "extraOptions",
							"type": "bytes"
						},
						{
							"internalType": "bytes",
							"name": "composeMsg",
							"type": "bytes"
						},
						{
							"internalType": "bytes",
							"name": "oftCmd",
							"type": "bytes"
						}
					],
					"internalType": "struct SendParam",
					"name": "_sendParam",
					"type": "tuple"
				}
			],
			"name": "quoteOFT",
			"outputs": [
				{
					"components": [
						{
							"internalType": "uint256",
							"name": "minAmountLD",
							"type": "uint256"
						},
						{
							"internalType": "uint256",
							"name": "maxAmountLD",
							"type": "uint256"
						}
					],
					"internalType": "struct OFTLimit",
					"name": "oftLimit",
					"type": "tuple"
				},
				{
					"components": [
						{
							"internalType": "int256",
							"name": "feeAmountLD",
							"type": "int256"
						},
						{
							"internalType": "string",
							"name": "description",
							"type": "string"
						}
					],
					"internalType": "struct OFTFeeDetail[]",
					"name": "oftFeeDetails",
					"type": "tuple[]"
				},
				{
					"components": [
						{
							"internalType": "uint256",
							"name": "amountSentLD",
							"type": "uint256"
						},
						{
							"internalType": "uint256",
							"name": "amountReceivedLD",
							"type": "uint256"
						}
					],
					"internalType": "struct OFTReceipt",
					"name": "oftReceipt",
					"type": "tuple"
				}
			],
			"stateMutability": "view",
			"type": "function"
		},
		{
			"inputs": [
				{
					"components": [
						{
							"internalType": "uint32",
							"name": "dstEid",
							"type": "uint32"
						},
						{
							"internalType": "bytes32",
							"name": "to",
							"type": "bytes32"
						},
						{
							"internalType": "uint256",
							"name": "amountLD",
							"type": "uint256"
						},
						{
							"internalType": "uint256",
							"name": "minAmountLD",
							"type": "uint256"
						},
						{
							"internalType": "bytes",
							"name": "extraOptions",
							"type": "bytes"
						},
						{
							"internalType": "bytes",
							"name": "composeMsg",
							"type": "bytes"
						},
						{
							"internalType": "bytes",
							"name": "oftCmd",
							"type": "bytes"
						}
					],
					"internalType": "struct SendParam",
					"name": "_sendParam",
					"type": "tuple"
				},
				{
					"internalType": "bool",
					"name": "_payInLzToken",
					"type": "bool"
				}
			],
			"name": "quoteSend",
			"outputs": [
				{
					"components": [
						{
							"internalType": "uint256",
							"name": "nativeFee",
							"type": "uint256"
						},
						{
							"internalType": "uint256",
							"name": "lzTokenFee",
							"type": "uint256"
						}
					],
					"internalType": "struct MessagingFee",
					"name": "msgFee",
					"type": "tuple"
				}
			],
			"stateMutability": "view",
			"type": "function"
		},
		{
			"inputs": [],
			"name": "renounceOwnership",
			"outputs": [],
			"stateMutability": "nonpayable",
			"type": "function"
		},
		{
			"inputs": [
				{
					"components": [
						{
							"internalType": "uint32",
							"name": "dstEid",
							"type": "uint32"
						},
						{
							"internalType": "bytes32",
							"name": "to",
							"type": "bytes32"
						},
						{
							"internalType": "uint256",
							"name": "amountLD",
							"type": "uint256"
						},
						{
							"internalType": "uint256",
							"name": "minAmountLD",
							"type": "uint256"
						},
						{
							"internalType": "bytes",
							"name": "extraOptions",
							"type": "bytes"
						},
						{
							"internalType": "bytes",
							"name": "composeMsg",
							"type": "bytes"
						},
						{
							"internalType": "bytes",
							"name": "oftCmd",
							"type": "bytes"
						}
					],
					"internalType": "struct SendParam",
					"name": "_sendParam",
					"type": "tuple"
				},
				{
					"components": [
						{
							"internalType": "uint256",
							"name": "nativeFee",
							"type": "uint256"
						},
						{
							"internalType": "uint256",
							"name": "lzTokenFee",
							"type": "uint256"
						}
					],
					"internalType": "struct MessagingFee",
					"name": "_fee",
					"type": "tuple"
				},
				{
					"internalType": "address",
					"name": "_refundAddress",
					"type": "address"
				}
			],
			"name": "send",
			"outputs": [
				{
					"components": [
						{
							"internalType": "bytes32",
							"name": "guid",
							"type": "bytes32"
						},
						{
							"internalType": "uint64",
							"name": "nonce",
							"type": "uint64"
						},
						{
							"components": [
								{
									"internalType": "uint256",
									"name": "nativeFee",
									"type": "uint256"
								},
								{
									"internalType": "uint256",
									"name": "lzTokenFee",
									"type": "uint256"
								}
							],
							"internalType": "struct MessagingFee",
							"name": "fee",
							"type": "tuple"
						}
					],
					"internalType": "struct MessagingReceipt",
					"name": "msgReceipt",
					"type": "tuple"
				},
				{
					"components": [
						{
							"internalType": "uint256",
							"name": "amountSentLD",
							"type": "uint256"
						},
						{
							"internalType": "uint256",
							"name": "amountReceivedLD",
							"type": "uint256"
						}
					],
					"internalType": "struct OFTReceipt",
					"name": "oftReceipt",
					"type": "tuple"
				}
			],
			"stateMutability": "payable",
			"type": "function"
		},
		{
			"inputs": [
				{
					"internalType": "address",
					"name": "_delegate",
					"type": "address"
				}
			],
			"name": "setDelegate",
			"outputs": [],
			"stateMutability": "nonpayable",
			"type": "function"
		},
		{
			"inputs": [
				{
					"components": [
						{
							"internalType": "uint32",
							"name": "eid",
							"type": "uint32"
						},
						{
							"internalType": "uint16",
							"name": "msgType",
							"type": "uint16"
						},
						{
							"internalType": "bytes",
							"name": "options",
							"type": "bytes"
						}
					],
					"internalType": "struct EnforcedOptionParam[]",
					"name": "_enforcedOptions",
					"type": "tuple[]"
				}
			],
			"name": "setEnforcedOptions",
			"outputs": [],
			"stateMutability": "nonpayable",
			"type": "function"
		},
		{
			"inputs": [
				{
					"internalType": "address",
					"name": "_msgInspector",
					"type": "address"
				}
			],
			"name": "setMsgInspector",
			"outputs": [],
			"stateMutability": "nonpayable",
			"type": "function"
		},
		{
			"inputs": [
				{
					"internalType": "uint32",
					"name": "_eid",
					"type": "uint32"
				},
				{
					"internalType": "bytes32",
					"name": "_peer",
					"type": "bytes32"
				}
			],
			"name": "setPeer",
			"outputs": [],
			"stateMutability": "nonpayable",
			"type": "function"
		},
		{
			"inputs": [
				{
					"internalType": "address",
					"name": "_preCrime",
					"type": "address"
				}
			],
			"name": "setPreCrime",
			"outputs": [],
			"stateMutability": "nonpayable",
			"type": "function"
		},
		{
			"inputs": [],
			"name": "sharedDecimals",
			"outputs": [
				{
					"internalType": "uint8",
					"name": "",
					"type": "uint8"
				}
			],
			"stateMutability": "view",
			"type": "function"
		},
		{
			"inputs": [],
			"name": "symbol",
			"outputs": [
				{
					"internalType": "string",
					"name": "",
					"type": "string"
				}
			],
			"stateMutability": "view",
			"type": "function"
		},
		{
			"inputs": [],
			"name": "token",
			"outputs": [
				{
					"internalType": "address",
					"name": "",
					"type": "address"
				}
			],
			"stateMutability": "view",
			"type": "function"
		},
		{
			"inputs": [],
			"name": "totalSupply",
			"outputs": [
				{
					"internalType": "uint256",
					"name": "",
					"type": "uint256"
				}
			],
			"stateMutability": "view",
			"type": "function"
		},
		{
			"inputs": [
				{
					"internalType": "address",
					"name": "to",
					"type": "address"
				},
				{
					"internalType": "uint256",
					"name": "value",
					"type": "uint256"
				}
			],
			"name": "transfer",
			"outputs": [
				{
					"internalType": "bool",
					"name": "",
					"type": "bool"
				}
			],
			"stateMutability": "nonpayable",
			"type": "function"
		},
		{
			"inputs": [
				{
					"internalType": "address",
					"name": "from",
					"type": "address"
				},
				{
					"internalType": "address",
					"name": "to",
					"type": "address"
				},
				{
					"internalType": "uint256",
					"name": "value",
					"type": "uint256"
				}
			],
			"name": "transferFrom",
			"outputs": [
				{
					"internalType": "bool",
					"name": "",
					"type": "bool"
				}
			],
			"stateMutability": "nonpayable",
			"type": "function"
		},
		{
			"inputs": [
				{
					"internalType": "address",
					"name": "newOwner",
					"type": "address"
				}
			],
			"name": "transferOwnership",
			"outputs": [],
			"stateMutability": "nonpayable",
			"type": "function"
		}
	],
	"storageLayout": {
		"storage": [
			{
				"astId": 3841,
				"contract": "myOFT.sol:MyOFT",
				"label": "_owner",
				"offset": 0,
				"slot": "0",
				"type": "t_address"
			},
			{
				"astId": 1390,
				"contract": "myOFT.sol:MyOFT",
				"label": "peers",
				"offset": 0,
				"slot": "1",
				"type": "t_mapping(t_uint32,t_bytes32)"
			},
			{
				"astId": 2166,
				"contract": "myOFT.sol:MyOFT",
				"label": "preCrime",
				"offset": 0,
				"slot": "2",
				"type": "t_address"
			},
			{
				"astId": 2006,
				"contract": "myOFT.sol:MyOFT",
				"label": "enforcedOptions",
				"offset": 0,
				"slot": "3",
				"type": "t_mapping(t_uint32,t_mapping(t_uint16,t_bytes_storage))"
			},
			{
				"astId": 2786,
				"contract": "myOFT.sol:MyOFT",
				"label": "msgInspector",
				"offset": 0,
				"slot": "4",
				"type": "t_address"
			},
			{
				"astId": 4230,
				"contract": "myOFT.sol:MyOFT",
				"label": "_balances",
				"offset": 0,
				"slot": "5",
				"type": "t_mapping(t_address,t_uint256)"
			},
			{
				"astId": 4236,
				"contract": "myOFT.sol:MyOFT",
				"label": "_allowances",
				"offset": 0,
				"slot": "6",
				"type": "t_mapping(t_address,t_mapping(t_address,t_uint256))"
			},
			{
				"astId": 4238,
				"contract": "myOFT.sol:MyOFT",
				"label": "_totalSupply",
				"offset": 0,
				"slot": "7",
				"type": "t_uint256"
			},
			{
				"astId": 4240,
				"contract": "myOFT.sol:MyOFT",
				"label": "_name",
				"offset": 0,
				"slot": "8",
				"type": "t_string_storage"
			},
			{
				"astId": 4242,
				"contract": "myOFT.sol:MyOFT",
				"label": "_symbol",
				"offset": 0,
				"slot": "9",
				"type": "t_string_storage"
			}
		],
		"types": {
			"t_address": {
				"encoding": "inplace",
				"label": "address",
				"numberOfBytes": "20"
			},
			"t_bytes32": {
				"encoding": "inplace",
				"label": "bytes32",
				"numberOfBytes": "32"
			},
			"t_bytes_storage": {
				"encoding": "bytes",
				"label": "bytes",
				"numberOfBytes": "32"
			},
			"t_mapping(t_address,t_mapping(t_address,t_uint256))": {
				"encoding": "mapping",
				"key": "t_address",
				"label": "mapping(address => mapping(address => uint256))",
				"numberOfBytes": "32",
				"value": "t_mapping(t_address,t_uint256)"
			},
			"t_mapping(t_address,t_uint256)": {
				"encoding": "mapping",
				"key": "t_address",
				"label": "mapping(address => uint256)",
				"numberOfBytes": "32",
				"value": "t_uint256"
			},
			"t_mapping(t_uint16,t_bytes_storage)": {
				"encoding": "mapping",
				"key": "t_uint16",
				"label": "mapping(uint16 => bytes)",
				"numberOfBytes": "32",
				"value": "t_bytes_storage"
			},
			"t_mapping(t_uint32,t_bytes32)": {
				"encoding": "mapping",
				"key": "t_uint32",
				"label": "mapping(uint32 => bytes32)",
				"numberOfBytes": "32",
				"value": "t_bytes32"
			},
			"t_mapping(t_uint32,t_mapping(t_uint16,t_bytes_storage))": {
				"encoding": "mapping",
				"key": "t_uint32",
				"label": "mapping(uint32 => mapping(uint16 => bytes))",
				"numberOfBytes": "32",
				"value": "t_mapping(t_uint16,t_bytes_storage)"
			},
			"t_string_storage": {
				"encoding": "bytes",
				"label": "string",
				"numberOfBytes": "32"
			},
			"t_uint16": {
				"encoding": "inplace",
				"label": "uint16",
				"numberOfBytes": "2"
			},
			"t_uint256": {
				"encoding": "inplace",
				"label": "uint256",
				"numberOfBytes": "32"
			},
			"t_uint32": {
				"encoding": "inplace",
				"label": "uint32",
				"numberOfBytes": "4"
			}
		}
	},
	"web3Deploy": "var _name = /* var of type string here */ ;\nvar _symbol = /* var of type string here */ ;\nvar _initialSupply = /* var of type uint256 here */ ;\nvar _lzEndpoint = /* var of type address here */ ;\nvar _delegate = /* var of type address here */ ;\nvar myoftContract = new web3.eth.Contract([{\"inputs\":[{\"internalType\":\"string\",\"name\":\"_name\",\"type\":\"string\"},{\"internalType\":\"string\",\"name\":\"_symbol\",\"type\":\"string\"},{\"internalType\":\"uint256\",\"name\":\"_initialSupply\",\"type\":\"uint256\"},{\"internalType\":\"address\",\"name\":\"_lzEndpoint\",\"type\":\"address\"},{\"internalType\":\"address\",\"name\":\"_delegate\",\"type\":\"address\"}],\"stateMutability\":\"nonpayable\",\"type\":\"constructor\"},{\"inputs\":[{\"internalType\":\"address\",\"name\":\"spender\",\"type\":\"address\"},{\"internalType\":\"uint256\",\"name\":\"allowance\",\"type\":\"uint256\"},{\"internalType\":\"uint256\",\"name\":\"needed\",\"type\":\"uint256\"}],\"name\":\"ERC20InsufficientAllowance\",\"type\":\"error\"},{\"inputs\":[{\"internalType\":\"address\",\"name\":\"sender\",\"type\":\"address\"},{\"internalType\":\"uint256\",\"name\":\"balance\",\"type\":\"uint256\"},{\"internalType\":\"uint256\",\"name\":\"needed\",\"type\":\"uint256\"}],\"name\":\"ERC20InsufficientBalance\",\"type\":\"error\"},{\"inputs\":[{\"internalType\":\"address\",\"name\":\"approver\",\"type\":\"address\"}],\"name\":\"ERC20InvalidApprover\",\"type\":\"error\"},{\"inputs\":[{\"internalType\":\"address\",\"name\":\"receiver\",\"type\":\"address\"}],\"name\":\"ERC20InvalidReceiver\",\"type\":\"error\"},{\"inputs\":[{\"internalType\":\"address\",\"name\":\"sender\",\"type\":\"address\"}],\"name\":\"ERC20InvalidSender\",\"type\":\"error\"},{\"inputs\":[{\"internalType\":\"address\",\"name\":\"spender\",\"type\":\"address\"}],\"name\":\"ERC20InvalidSpender\",\"type\":\"error\"},{\"inputs\":[],\"name\":\"InvalidDelegate\",\"type\":\"error\"},{\"inputs\":[],\"name\":\"InvalidEndpointCall\",\"type\":\"error\"},{\"inputs\":[],\"name\":\"InvalidLocalDecimals\",\"type\":\"error\"},{\"inputs\":[{\"internalType\":\"bytes\",\"name\":\"options\",\"type\":\"bytes\"}],\"name\":\"InvalidOptions\",\"type\":\"error\"},{\"inputs\":[],\"name\":\"LzTokenUnavailable\",\"type\":\"error\"},{\"inputs\":[{\"internalType\":\"uint32\",\"name\":\"eid\",\"type\":\"uint32\"}],\"name\":\"NoPeer\",\"type\":\"error\"},{\"inputs\":[{\"internalType\":\"uint256\",\"name\":\"msgValue\",\"type\":\"uint256\"}],\"name\":\"NotEnoughNative\",\"type\":\"error\"},{\"inputs\":[{\"internalType\":\"address\",\"name\":\"addr\",\"type\":\"address\"}],\"name\":\"OnlyEndpoint\",\"type\":\"error\"},{\"inputs\":[{\"internalType\":\"uint32\",\"name\":\"eid\",\"type\":\"uint32\"},{\"internalType\":\"bytes32\",\"name\":\"sender\",\"type\":\"bytes32\"}],\"name\":\"OnlyPeer\",\"type\":\"error\"},{\"inputs\":[],\"name\":\"OnlySelf\",\"type\":\"error\"},{\"inputs\":[{\"internalType\":\"address\",\"name\":\"owner\",\"type\":\"address\"}],\"name\":\"OwnableInvalidOwner\",\"type\":\"error\"},{\"inputs\":[{\"internalType\":\"address\",\"name\":\"account\",\"type\":\"address\"}],\"name\":\"OwnableUnauthorizedAccount\",\"type\":\"error\"},{\"inputs\":[{\"internalType\":\"address\",\"name\":\"token\",\"type\":\"address\"}],\"name\":\"SafeERC20FailedOperation\",\"type\":\"error\"},{\"inputs\":[{\"internalType\":\"bytes\",\"name\":\"result\",\"type\":\"bytes\"}],\"name\":\"SimulationResult\",\"type\":\"error\"},{\"inputs\":[{\"internalType\":\"uint256\",\"name\":\"amountLD\",\"type\":\"uint256\"},{\"internalType\":\"uint256\",\"name\":\"minAmountLD\",\"type\":\"uint256\"}],\"name\":\"SlippageExceeded\",\"type\":\"error\"},{\"anonymous\":false,\"inputs\":[{\"indexed\":true,\"internalType\":\"address\",\"name\":\"owner\",\"type\":\"address\"},{\"indexed\":true,\"internalType\":\"address\",\"name\":\"spender\",\"type\":\"address\"},{\"indexed\":false,\"internalType\":\"uint256\",\"name\":\"value\",\"type\":\"uint256\"}],\"name\":\"Approval\",\"type\":\"event\"},{\"anonymous\":false,\"inputs\":[{\"components\":[{\"internalType\":\"uint32\",\"name\":\"eid\",\"type\":\"uint32\"},{\"internalType\":\"uint16\",\"name\":\"msgType\",\"type\":\"uint16\"},{\"internalType\":\"bytes\",\"name\":\"options\",\"type\":\"bytes\"}],\"indexed\":false,\"internalType\":\"struct EnforcedOptionParam[]\",\"name\":\"_enforcedOptions\",\"type\":\"tuple[]\"}],\"name\":\"EnforcedOptionSet\",\"type\":\"event\"},{\"anonymous\":false,\"inputs\":[{\"indexed\":false,\"internalType\":\"address\",\"name\":\"inspector\",\"type\":\"address\"}],\"name\":\"MsgInspectorSet\",\"type\":\"event\"},{\"anonymous\":false,\"inputs\":[{\"indexed\":true,\"internalType\":\"bytes32\",\"name\":\"guid\",\"type\":\"bytes32\"},{\"indexed\":false,\"internalType\":\"uint32\",\"name\":\"srcEid\",\"type\":\"uint32\"},{\"indexed\":true,\"internalType\":\"address\",\"name\":\"toAddress\",\"type\":\"address\"},{\"indexed\":false,\"internalType\":\"uint256\",\"name\":\"amountReceivedLD\",\"type\":\"uint256\"}],\"name\":\"OFTReceived\",\"type\":\"event\"},{\"anonymous\":false,\"inputs\":[{\"indexed\":true,\"internalType\":\"bytes32\",\"name\":\"guid\",\"type\":\"bytes32\"},{\"indexed\":false,\"internalType\":\"uint32\",\"name\":\"dstEid\",\"type\":\"uint32\"},{\"indexed\":true,\"internalType\":\"address\",\"name\":\"fromAddress\",\"type\":\"address\"},{\"indexed\":false,\"internalType\":\"uint256\",\"name\":\"amountSentLD\",\"type\":\"uint256\"},{\"indexed\":false,\"internalType\":\"uint256\",\"name\":\"amountReceivedLD\",\"type\":\"uint256\"}],\"name\":\"OFTSent\",\"type\":\"event\"},{\"anonymous\":false,\"inputs\":[{\"indexed\":true,\"internalType\":\"address\",\"name\":\"previousOwner\",\"type\":\"address\"},{\"indexed\":true,\"internalType\":\"address\",\"name\":\"newOwner\",\"type\":\"address\"}],\"name\":\"OwnershipTransferred\",\"type\":\"event\"},{\"anonymous\":false,\"inputs\":[{\"indexed\":false,\"internalType\":\"uint32\",\"name\":\"eid\",\"type\":\"uint32\"},{\"indexed\":false,\"internalType\":\"bytes32\",\"name\":\"peer\",\"type\":\"bytes32\"}],\"name\":\"PeerSet\",\"type\":\"event\"},{\"anonymous\":false,\"inputs\":[{\"indexed\":false,\"internalType\":\"address\",\"name\":\"preCrimeAddress\",\"type\":\"address\"}],\"name\":\"PreCrimeSet\",\"type\":\"event\"},{\"anonymous\":false,\"inputs\":[{\"indexed\":true,\"internalType\":\"address\",\"name\":\"from\",\"type\":\"address\"},{\"indexed\":true,\"internalType\":\"address\",\"name\":\"to\",\"type\":\"address\"},{\"indexed\":false,\"internalType\":\"uint256\",\"name\":\"value\",\"type\":\"uint256\"}],\"name\":\"Transfer\",\"type\":\"event\"},{\"inputs\":[],\"name\":\"SEND\",\"outputs\":[{\"internalType\":\"uint16\",\"name\":\"\",\"type\":\"uint16\"}],\"stateMutability\":\"view\",\"type\":\"function\"},{\"inputs\":[],\"name\":\"SEND_AND_CALL\",\"outputs\":[{\"internalType\":\"uint16\",\"name\":\"\",\"type\":\"uint16\"}],\"stateMutability\":\"view\",\"type\":\"function\"},{\"inputs\":[{\"components\":[{\"internalType\":\"uint32\",\"name\":\"srcEid\",\"type\":\"uint32\"},{\"internalType\":\"bytes32\",\"name\":\"sender\",\"type\":\"bytes32\"},{\"internalType\":\"uint64\",\"name\":\"nonce\",\"type\":\"uint64\"}],\"internalType\":\"struct Origin\",\"name\":\"origin\",\"type\":\"tuple\"}],\"name\":\"allowInitializePath\",\"outputs\":[{\"internalType\":\"bool\",\"name\":\"\",\"type\":\"bool\"}],\"stateMutability\":\"view\",\"type\":\"function\"},{\"inputs\":[{\"internalType\":\"address\",\"name\":\"owner\",\"type\":\"address\"},{\"internalType\":\"address\",\"name\":\"spender\",\"type\":\"address\"}],\"name\":\"allowance\",\"outputs\":[{\"internalType\":\"uint256\",\"name\":\"\",\"type\":\"uint256\"}],\"stateMutability\":\"view\",\"type\":\"function\"},{\"inputs\":[],\"name\":\"approvalRequired\",\"outputs\":[{\"internalType\":\"bool\",\"name\":\"\",\"type\":\"bool\"}],\"stateMutability\":\"pure\",\"type\":\"function\"},{\"inputs\":[{\"internalType\":\"address\",\"name\":\"spender\",\"type\":\"address\"},{\"internalType\":\"uint256\",\"name\":\"value\",\"type\":\"uint256\"}],\"name\":\"approve\",\"outputs\":[{\"internalType\":\"bool\",\"name\":\"\",\"type\":\"bool\"}],\"stateMutability\":\"nonpayable\",\"type\":\"function\"},{\"inputs\":[{\"internalType\":\"address\",\"name\":\"account\",\"type\":\"address\"}],\"name\":\"balanceOf\",\"outputs\":[{\"internalType\":\"uint256\",\"name\":\"\",\"type\":\"uint256\"}],\"stateMutability\":\"view\",\"type\":\"function\"},{\"inputs\":[{\"internalType\":\"uint32\",\"name\":\"_eid\",\"type\":\"uint32\"},{\"internalType\":\"uint16\",\"name\":\"_msgType\",\"type\":\"uint16\"},{\"internalType\":\"bytes\",\"name\":\"_extraOptions\",\"type\":\"bytes\"}],\"name\":\"combineOptions\",\"outputs\":[{\"internalType\":\"bytes\",\"name\":\"\",\"type\":\"bytes\"}],\"stateMutability\":\"view\",\"type\":\"function\"},{\"inputs\":[],\"name\":\"decimalConversionRate\",\"outputs\":[{\"internalType\":\"uint256\",\"name\":\"\",\"type\":\"uint256\"}],\"stateMutability\":\"view\",\"type\":\"function\"},{\"inputs\":[],\"name\":\"decimals\",\"outputs\":[{\"internalType\":\"uint8\",\"name\":\"\",\"type\":\"uint8\"}],\"stateMutability\":\"view\",\"type\":\"function\"},{\"inputs\":[],\"name\":\"endpoint\",\"outputs\":[{\"internalType\":\"contract ILayerZeroEndpointV2\",\"name\":\"\",\"type\":\"address\"}],\"stateMutability\":\"view\",\"type\":\"function\"},{\"inputs\":[{\"internalType\":\"uint32\",\"name\":\"eid\",\"type\":\"uint32\"},{\"internalType\":\"uint16\",\"name\":\"msgType\",\"type\":\"uint16\"}],\"name\":\"enforcedOptions\",\"outputs\":[{\"internalType\":\"bytes\",\"name\":\"enforcedOption\",\"type\":\"bytes\"}],\"stateMutability\":\"view\",\"type\":\"function\"},{\"inputs\":[{\"components\":[{\"internalType\":\"uint32\",\"name\":\"srcEid\",\"type\":\"uint32\"},{\"internalType\":\"bytes32\",\"name\":\"sender\",\"type\":\"bytes32\"},{\"internalType\":\"uint64\",\"name\":\"nonce\",\"type\":\"uint64\"}],\"internalType\":\"struct Origin\",\"name\":\"\",\"type\":\"tuple\"},{\"internalType\":\"bytes\",\"name\":\"\",\"type\":\"bytes\"},{\"internalType\":\"address\",\"name\":\"_sender\",\"type\":\"address\"}],\"name\":\"isComposeMsgSender\",\"outputs\":[{\"internalType\":\"bool\",\"name\":\"\",\"type\":\"bool\"}],\"stateMutability\":\"view\",\"type\":\"function\"},{\"inputs\":[{\"internalType\":\"uint32\",\"name\":\"_eid\",\"type\":\"uint32\"},{\"internalType\":\"bytes32\",\"name\":\"_peer\",\"type\":\"bytes32\"}],\"name\":\"isPeer\",\"outputs\":[{\"internalType\":\"bool\",\"name\":\"\",\"type\":\"bool\"}],\"stateMutability\":\"view\",\"type\":\"function\"},{\"inputs\":[{\"components\":[{\"internalType\":\"uint32\",\"name\":\"srcEid\",\"type\":\"uint32\"},{\"internalType\":\"bytes32\",\"name\":\"sender\",\"type\":\"bytes32\"},{\"internalType\":\"uint64\",\"name\":\"nonce\",\"type\":\"uint64\"}],\"internalType\":\"struct Origin\",\"name\":\"_origin\",\"type\":\"tuple\"},{\"internalType\":\"bytes32\",\"name\":\"_guid\",\"type\":\"bytes32\"},{\"internalType\":\"bytes\",\"name\":\"_message\",\"type\":\"bytes\"},{\"internalType\":\"address\",\"name\":\"_executor\",\"type\":\"address\"},{\"internalType\":\"bytes\",\"name\":\"_extraData\",\"type\":\"bytes\"}],\"name\":\"lzReceive\",\"outputs\":[],\"stateMutability\":\"payable\",\"type\":\"function\"},{\"inputs\":[{\"components\":[{\"components\":[{\"internalType\":\"uint32\",\"name\":\"srcEid\",\"type\":\"uint32\"},{\"internalType\":\"bytes32\",\"name\":\"sender\",\"type\":\"bytes32\"},{\"internalType\":\"uint64\",\"name\":\"nonce\",\"type\":\"uint64\"}],\"internalType\":\"struct Origin\",\"name\":\"origin\",\"type\":\"tuple\"},{\"internalType\":\"uint32\",\"name\":\"dstEid\",\"type\":\"uint32\"},{\"internalType\":\"address\",\"name\":\"receiver\",\"type\":\"address\"},{\"internalType\":\"bytes32\",\"name\":\"guid\",\"type\":\"bytes32\"},{\"internalType\":\"uint256\",\"name\":\"value\",\"type\":\"uint256\"},{\"internalType\":\"address\",\"name\":\"executor\",\"type\":\"address\"},{\"internalType\":\"bytes\",\"name\":\"message\",\"type\":\"bytes\"},{\"internalType\":\"bytes\",\"name\":\"extraData\",\"type\":\"bytes\"}],\"internalType\":\"struct InboundPacket[]\",\"name\":\"_packets\",\"type\":\"tuple[]\"}],\"name\":\"lzReceiveAndRevert\",\"outputs\":[],\"stateMutability\":\"payable\",\"type\":\"function\"},{\"inputs\":[{\"components\":[{\"internalType\":\"uint32\",\"name\":\"srcEid\",\"type\":\"uint32\"},{\"internalType\":\"bytes32\",\"name\":\"sender\",\"type\":\"bytes32\"},{\"internalType\":\"uint64\",\"name\":\"nonce\",\"type\":\"uint64\"}],\"internalType\":\"struct Origin\",\"name\":\"_origin\",\"type\":\"tuple\"},{\"internalType\":\"bytes32\",\"name\":\"_guid\",\"type\":\"bytes32\"},{\"internalType\":\"bytes\",\"name\":\"_message\",\"type\":\"bytes\"},{\"internalType\":\"address\",\"name\":\"_executor\",\"type\":\"address\"},{\"internalType\":\"bytes\",\"name\":\"_extraData\",\"type\":\"bytes\"}],\"name\":\"lzReceiveSimulate\",\"outputs\":[],\"stateMutability\":\"payable\",\"type\":\"function\"},{\"inputs\":[],\"name\":\"msgInspector\",\"outputs\":[{\"internalType\":\"address\",\"name\":\"\",\"type\":\"address\"}],\"stateMutability\":\"view\",\"type\":\"function\"},{\"inputs\":[],\"name\":\"name\",\"outputs\":[{\"internalType\":\"string\",\"name\":\"\",\"type\":\"string\"}],\"stateMutability\":\"view\",\"type\":\"function\"},{\"inputs\":[{\"internalType\":\"uint32\",\"name\":\"\",\"type\":\"uint32\"},{\"internalType\":\"bytes32\",\"name\":\"\",\"type\":\"bytes32\"}],\"name\":\"nextNonce\",\"outputs\":[{\"internalType\":\"uint64\",\"name\":\"nonce\",\"type\":\"uint64\"}],\"stateMutability\":\"view\",\"type\":\"function\"},{\"inputs\":[],\"name\":\"oApp\",\"outputs\":[{\"internalType\":\"address\",\"name\":\"\",\"type\":\"address\"}],\"stateMutability\":\"view\",\"type\":\"function\"},{\"inputs\":[],\"name\":\"oAppVersion\",\"outputs\":[{\"internalType\":\"uint64\",\"name\":\"senderVersion\",\"type\":\"uint64\"},{\"internalType\":\"uint64\",\"name\":\"receiverVersion\",\"type\":\"uint64\"}],\"stateMutability\":\"pure\",\"type\":\"function\"},{\"inputs\":[],\"name\":\"oftVersion\",\"outputs\":[{\"internalType\":\"bytes4\",\"name\":\"interfaceId\",\"type\":\"bytes4\"},{\"internalType\":\"uint64\",\"name\":\"version\",\"type\":\"uint64\"}],\"stateMutability\":\"pure\",\"type\":\"function\"},{\"inputs\":[],\"name\":\"owner\",\"outputs\":[{\"internalType\":\"address\",\"name\":\"\",\"type\":\"address\"}],\"stateMutability\":\"view\",\"type\":\"function\"},{\"inputs\":[{\"internalType\":\"uint32\",\"name\":\"eid\",\"type\":\"uint32\"}],\"name\":\"peers\",\"outputs\":[{\"internalType\":\"bytes32\",\"name\":\"peer\",\"type\":\"bytes32\"}],\"stateMutability\":\"view\",\"type\":\"function\"},{\"inputs\":[],\"name\":\"preCrime\",\"outputs\":[{\"internalType\":\"address\",\"name\":\"\",\"type\":\"address\"}],\"stateMutability\":\"view\",\"type\":\"function\"},{\"inputs\":[{\"components\":[{\"internalType\":\"uint32\",\"name\":\"dstEid\",\"type\":\"uint32\"},{\"internalType\":\"bytes32\",\"name\":\"to\",\"type\":\"bytes32\"},{\"internalType\":\"uint256\",\"name\":\"amountLD\",\"type\":\"uint256\"},{\"internalType\":\"uint256\",\"name\":\"minAmountLD\",\"type\":\"uint256\"},{\"internalType\":\"bytes\",\"name\":\"extraOptions\",\"type\":\"bytes\"},{\"internalType\":\"bytes\",\"name\":\"composeMsg\",\"type\":\"bytes\"},{\"internalType\":\"bytes\",\"name\":\"oftCmd\",\"type\":\"bytes\"}],\"internalType\":\"struct SendParam\",\"name\":\"_sendParam\",\"type\":\"tuple\"}],\"name\":\"quoteOFT\",\"outputs\":[{\"components\":[{\"internalType\":\"uint256\",\"name\":\"minAmountLD\",\"type\":\"uint256\"},{\"internalType\":\"uint256\",\"name\":\"maxAmountLD\",\"type\":\"uint256\"}],\"internalType\":\"struct OFTLimit\",\"name\":\"oftLimit\",\"type\":\"tuple\"},{\"components\":[{\"internalType\":\"int256\",\"name\":\"feeAmountLD\",\"type\":\"int256\"},{\"internalType\":\"string\",\"name\":\"description\",\"type\":\"string\"}],\"internalType\":\"struct OFTFeeDetail[]\",\"name\":\"oftFeeDetails\",\"type\":\"tuple[]\"},{\"components\":[{\"internalType\":\"uint256\",\"name\":\"amountSentLD\",\"type\":\"uint256\"},{\"internalType\":\"uint256\",\"name\":\"amountReceivedLD\",\"type\":\"uint256\"}],\"internalType\":\"struct OFTReceipt\",\"name\":\"oftReceipt\",\"type\":\"tuple\"}],\"stateMutability\":\"view\",\"type\":\"function\"},{\"inputs\":[{\"components\":[{\"internalType\":\"uint32\",\"name\":\"dstEid\",\"type\":\"uint32\"},{\"internalType\":\"bytes32\",\"name\":\"to\",\"type\":\"bytes32\"},{\"internalType\":\"uint256\",\"name\":\"amountLD\",\"type\":\"uint256\"},{\"internalType\":\"uint256\",\"name\":\"minAmountLD\",\"type\":\"uint256\"},{\"internalType\":\"bytes\",\"name\":\"extraOptions\",\"type\":\"bytes\"},{\"internalType\":\"bytes\",\"name\":\"composeMsg\",\"type\":\"bytes\"},{\"internalType\":\"bytes\",\"name\":\"oftCmd\",\"type\":\"bytes\"}],\"internalType\":\"struct SendParam\",\"name\":\"_sendParam\",\"type\":\"tuple\"},{\"internalType\":\"bool\",\"name\":\"_payInLzToken\",\"type\":\"bool\"}],\"name\":\"quoteSend\",\"outputs\":[{\"components\":[{\"internalType\":\"uint256\",\"name\":\"nativeFee\",\"type\":\"uint256\"},{\"internalType\":\"uint256\",\"name\":\"lzTokenFee\",\"type\":\"uint256\"}],\"internalType\":\"struct MessagingFee\",\"name\":\"msgFee\",\"type\":\"tuple\"}],\"stateMutability\":\"view\",\"type\":\"function\"},{\"inputs\":[],\"name\":\"renounceOwnership\",\"outputs\":[],\"stateMutability\":\"nonpayable\",\"type\":\"function\"},{\"inputs\":[{\"components\":[{\"internalType\":\"uint32\",\"name\":\"dstEid\",\"type\":\"uint32\"},{\"internalType\":\"bytes32\",\"name\":\"to\",\"type\":\"bytes32\"},{\"internalType\":\"uint256\",\"name\":\"amountLD\",\"type\":\"uint256\"},{\"internalType\":\"uint256\",\"name\":\"minAmountLD\",\"type\":\"uint256\"},{\"internalType\":\"bytes\",\"name\":\"extraOptions\",\"type\":\"bytes\"},{\"internalType\":\"bytes\",\"name\":\"composeMsg\",\"type\":\"bytes\"},{\"internalType\":\"bytes\",\"name\":\"oftCmd\",\"type\":\"bytes\"}],\"internalType\":\"struct SendParam\",\"name\":\"_sendParam\",\"type\":\"tuple\"},{\"components\":[{\"internalType\":\"uint256\",\"name\":\"nativeFee\",\"type\":\"uint256\"},{\"internalType\":\"uint256\",\"name\":\"lzTokenFee\",\"type\":\"uint256\"}],\"internalType\":\"struct MessagingFee\",\"name\":\"_fee\",\"type\":\"tuple\"},{\"internalType\":\"address\",\"name\":\"_refundAddress\",\"type\":\"address\"}],\"name\":\"send\",\"outputs\":[{\"components\":[{\"internalType\":\"bytes32\",\"name\":\"guid\",\"type\":\"bytes32\"},{\"internalType\":\"uint64\",\"name\":\"nonce\",\"type\":\"uint64\"},{\"components\":[{\"internalType\":\"uint256\",\"name\":\"nativeFee\",\"type\":\"uint256\"},{\"internalType\":\"uint256\",\"name\":\"lzTokenFee\",\"type\":\"uint256\"}],\"internalType\":\"struct MessagingFee\",\"name\":\"fee\",\"type\":\"tuple\"}],\"internalType\":\"struct MessagingReceipt\",\"name\":\"msgReceipt\",\"type\":\"tuple\"},{\"components\":[{\"internalType\":\"uint256\",\"name\":\"amountSentLD\",\"type\":\"uint256\"},{\"internalType\":\"uint256\",\"name\":\"amountReceivedLD\",\"type\":\"uint256\"}],\"internalType\":\"struct OFTReceipt\",\"name\":\"oftReceipt\",\"type\":\"tuple\"}],\"stateMutability\":\"payable\",\"type\":\"function\"},{\"inputs\":[{\"internalType\":\"address\",\"name\":\"_delegate\",\"type\":\"address\"}],\"name\":\"setDelegate\",\"outputs\":[],\"stateMutability\":\"nonpayable\",\"type\":\"function\"},{\"inputs\":[{\"components\":[{\"internalType\":\"uint32\",\"name\":\"eid\",\"type\":\"uint32\"},{\"internalType\":\"uint16\",\"name\":\"msgType\",\"type\":\"uint16\"},{\"internalType\":\"bytes\",\"name\":\"options\",\"type\":\"bytes\"}],\"internalType\":\"struct EnforcedOptionParam[]\",\"name\":\"_enforcedOptions\",\"type\":\"tuple[]\"}],\"name\":\"setEnforcedOptions\",\"outputs\":[],\"stateMutability\":\"nonpayable\",\"type\":\"function\"},{\"inputs\":[{\"internalType\":\"address\",\"name\":\"_msgInspector\",\"type\":\"address\"}],\"name\":\"setMsgInspector\",\"outputs\":[],\"stateMutability\":\"nonpayable\",\"type\":\"function\"},{\"inputs\":[{\"internalType\":\"uint32\",\"name\":\"_eid\",\"type\":\"uint32\"},{\"internalType\":\"bytes32\",\"name\":\"_peer\",\"type\":\"bytes32\"}],\"name\":\"setPeer\",\"outputs\":[],\"stateMutability\":\"nonpayable\",\"type\":\"function\"},{\"inputs\":[{\"internalType\":\"address\",\"name\":\"_preCrime\",\"type\":\"address\"}],\"name\":\"setPreCrime\",\"outputs\":[],\"stateMutability\":\"nonpayable\",\"type\":\"function\"},{\"inputs\":[],\"name\":\"sharedDecimals\",\"outputs\":[{\"internalType\":\"uint8\",\"name\":\"\",\"type\":\"uint8\"}],\"stateMutability\":\"view\",\"type\":\"function\"},{\"inputs\":[],\"name\":\"symbol\",\"outputs\":[{\"internalType\":\"string\",\"name\":\"\",\"type\":\"string\"}],\"stateMutability\":\"view\",\"type\":\"function\"},{\"inputs\":[],\"name\":\"token\",\"outputs\":[{\"internalType\":\"address\",\"name\":\"\",\"type\":\"address\"}],\"stateMutability\":\"view\",\"type\":\"function\"},{\"inputs\":[],\"name\":\"totalSupply\",\"outputs\":[{\"internalType\":\"uint256\",\"name\":\"\",\"type\":\"uint256\"}],\"stateMutability\":\"view\",\"type\":\"function\"},{\"inputs\":[{\"internalType\":\"address\",\"name\":\"to\",\"type\":\"address\"},{\"internalType\":\"uint256\",\"name\":\"value\",\"type\":\"uint256\"}],\"name\":\"transfer\",\"outputs\":[{\"internalType\":\"bool\",\"name\":\"\",\"type\":\"bool\"}],\"stateMutability\":\"nonpayable\",\"type\":\"function\"},{\"inputs\":[{\"internalType\":\"address\",\"name\":\"from\",\"type\":\"address\"},{\"internalType\":\"address\",\"name\":\"to\",\"type\":\"address\"},{\"internalType\":\"uint256\",\"name\":\"value\",\"type\":\"uint256\"}],\"name\":\"transferFrom\",\"outputs\":[{\"internalType\":\"bool\",\"name\":\"\",\"type\":\"bool\"}],\"stateMutability\":\"nonpayable\",\"type\":\"function\"},{\"inputs\":[{\"internalType\":\"address\",\"name\":\"newOwner\",\"type\":\"address\"}],\"name\":\"transferOwnership\",\"outputs\":[],\"stateMutability\":\"nonpayable\",\"type\":\"function\"}]);\nvar myoft = myoftContract.deploy({\n     data: '0x60c060405234801562000010575f80fd5b50604051620060dc380380620060dc833981810160405281019062000036919062000878565b8484838383836200004c620002d860201b60201c565b8484818181818d5f73ffffffffffffffffffffffffffffffffffffffff168173ffffffffffffffffffffffffffffffffffffffff1603620000c6575f6040517f1e4fbdf7000000000000000000000000000000000000000000000000000000008152600401620000bd91906200094b565b60405180910390fd5b620000d781620002e060201b60201c565b508173ffffffffffffffffffffffffffffffffffffffff1660808173ffffffffffffffffffffffffffffffffffffffff16815250505f73ffffffffffffffffffffffffffffffffffffffff168173ffffffffffffffffffffffffffffffffffffffff160362000172576040517fb586360400000000000000000000000000000000000000000000000000000000815260040160405180910390fd5b60805173ffffffffffffffffffffffffffffffffffffffff1663ca5eb5e1826040518263ffffffff1660e01b8152600401620001af91906200094b565b5f604051808303815f87803b158015620001c7575f80fd5b505af1158015620001da573d5f803e3d5ffd5b5050505050505050620001f2620003a160201b60201c565b60ff168360ff16101562000232576040517f1e9714b000000000000000000000000000000000000000000000000000000000815260040160405180910390fd5b62000242620003a160201b60201c565b836200024f91906200099f565b600a6200025d919062000b2a565b60a08181525050505050816008908162000278919062000da8565b5080600990816200028a919062000da8565b50505050505050620002cd81620002a6620002d860201b60201c565b600a620002b4919062000b2a565b85620002c1919062000e8c565b620003a960201b60201c565b505050505062000f77565b5f6012905090565b5f805f9054906101000a900473ffffffffffffffffffffffffffffffffffffffff169050815f806101000a81548173ffffffffffffffffffffffffffffffffffffffff021916908373ffffffffffffffffffffffffffffffffffffffff1602179055508173ffffffffffffffffffffffffffffffffffffffff168173ffffffffffffffffffffffffffffffffffffffff167f8be0079c531659141344cd1fd0a4f28419497f9722a3daafe3b4186f6b6457e060405160405180910390a35050565b5f6006905090565b5f73ffffffffffffffffffffffffffffffffffffffff168273ffffffffffffffffffffffffffffffffffffffff16036200041c575f6040517fec442f050000000000000000000000000000000000000000000000000000000081526004016200041391906200094b565b60405180910390fd5b6200042f5f83836200043360201b60201c565b5050565b5f73ffffffffffffffffffffffffffffffffffffffff168373ffffffffffffffffffffffffffffffffffffffff160362000487578060075f8282546200047a919062000ed6565b925050819055506200055a565b5f60055f8573ffffffffffffffffffffffffffffffffffffffff1673ffffffffffffffffffffffffffffffffffffffff1681526020019081526020015f205490508181101562000514578381836040517fe450d38c0000000000000000000000000000000000000000000000000000000081526004016200050b9392919062000f21565b60405180910390fd5b81810360055f8673ffffffffffffffffffffffffffffffffffffffff1673ffffffffffffffffffffffffffffffffffffffff1681526020019081526020015f2081905550505b5f73ffffffffffffffffffffffffffffffffffffffff168273ffffffffffffffffffffffffffffffffffffffff1603620005a3578060075f8282540392505081905550620005ee565b8060055f8473ffffffffffffffffffffffffffffffffffffffff1673ffffffffffffffffffffffffffffffffffffffff1681526020019081526020015f205f82825401925050819055505b8173ffffffffffffffffffffffffffffffffffffffff168373ffffffffffffffffffffffffffffffffffffffff167fddf252ad1be2c89b69c2b068fc378daa952ba7f163c4a11628f55a4df523b3ef836040516200064d919062000f5c565b60405180910390a3505050565b5f604051905090565b5f80fd5b5f80fd5b5f80fd5b5f80fd5b5f601f19601f8301169050919050565b7f4e487b71000000000000000000000000000000000000000000000000000000005f52604160045260245ffd5b620006bb8262000673565b810181811067ffffffffffffffff82111715620006dd57620006dc62000683565b5b80604052505050565b5f620006f16200065a565b9050620006ff8282620006b0565b919050565b5f67ffffffffffffffff82111562000721576200072062000683565b5b6200072c8262000673565b9050602081019050919050565b5f5b83811015620007585780820151818401526020810190506200073b565b5f8484015250505050565b5f62000779620007738462000704565b620006e6565b9050828152602081018484840111156200079857620007976200066f565b5b620007a584828562000739565b509392505050565b5f82601f830112620007c457620007c36200066b565b5b8151620007d684826020860162000763565b91505092915050565b5f819050919050565b620007f381620007df565b8114620007fe575f80fd5b50565b5f815190506200081181620007e8565b92915050565b5f73ffffffffffffffffffffffffffffffffffffffff82169050919050565b5f620008428262000817565b9050919050565b620008548162000836565b81146200085f575f80fd5b50565b5f81519050620008728162000849565b92915050565b5f805f805f60a0868803121562000894576200089362000663565b5b5f86015167ffffffffffffffff811115620008b457620008b362000667565b5b620008c288828901620007ad565b955050602086015167ffffffffffffffff811115620008e657620008e562000667565b5b620008f488828901620007ad565b9450506040620009078882890162000801565b93505060606200091a8882890162000862565b92505060806200092d8882890162000862565b9150509295509295909350565b620009458162000836565b82525050565b5f602082019050620009605f8301846200093a565b92915050565b5f60ff82169050919050565b7f4e487b71000000000000000000000000000000000000000000000000000000005f52601160045260245ffd5b5f620009ab8262000966565b9150620009b88362000966565b9250828203905060ff811115620009d457620009d362000972565b5b92915050565b5f8160011c9050919050565b5f808291508390505b600185111562000a375780860481111562000a0f5762000a0e62000972565b5b600185161562000a1f5780820291505b808102905062000a2f85620009da565b9450620009ef565b94509492505050565b5f8262000a51576001905062000b23565b8162000a60575f905062000b23565b816001811462000a79576002811462000a845762000aba565b600191505062000b23565b60ff84111562000a995762000a9862000972565b5b8360020a91508482111562000ab35762000ab262000972565b5b5062000b23565b5060208310610133831016604e8410600b841016171562000af45782820a90508381111562000aee5762000aed62000972565b5b62000b23565b62000b038484846001620009e6565b9250905081840481111562000b1d5762000b1c62000972565b5b81810290505b9392505050565b5f62000b3682620007df565b915062000b438362000966565b925062000b727fffffffffffffffffffffffffffffffffffffffffffffffffffffffffffffffff848462000a40565b905092915050565b5f81519050919050565b7f4e487b71000000000000000000000000000000000000000000000000000000005f52602260045260245ffd5b5f600282049050600182168062000bc957607f821691505b60208210810362000bdf5762000bde62000b84565b5b50919050565b5f819050815f5260205f209050919050565b5f6020601f8301049050919050565b5f82821b905092915050565b5f6008830262000c437fffffffffffffffffffffffffffffffffffffffffffffffffffffffffffffffff8262000c06565b62000c4f868362000c06565b95508019841693508086168417925050509392505050565b5f819050919050565b5f62000c9062000c8a62000c8484620007df565b62000c67565b620007df565b9050919050565b5f819050919050565b62000cab8362000c70565b62000cc362000cba8262000c97565b84845462000c12565b825550505050565b5f90565b62000cd962000ccb565b62000ce681848462000ca0565b505050565b5b8181101562000d0d5762000d015f8262000ccf565b60018101905062000cec565b5050565b601f82111562000d5c5762000d268162000be5565b62000d318462000bf7565b8101602085101562000d41578190505b62000d5962000d508562000bf7565b83018262000ceb565b50505b505050565b5f82821c905092915050565b5f62000d7e5f198460080262000d61565b1980831691505092915050565b5f62000d98838362000d6d565b9150826002028217905092915050565b62000db38262000b7a565b67ffffffffffffffff81111562000dcf5762000dce62000683565b5b62000ddb825462000bb1565b62000de882828562000d11565b5f60209050601f83116001811462000e1e575f841562000e09578287015190505b62000e15858262000d8b565b86555062000e84565b601f19841662000e2e8662000be5565b5f5b8281101562000e575784890151825560018201915060208501945060208101905062000e30565b8683101562000e77578489015162000e73601f89168262000d6d565b8355505b6001600288020188555050505b505050505050565b5f62000e9882620007df565b915062000ea583620007df565b925082820262000eb581620007df565b9150828204841483151762000ecf5762000ece62000972565b5b5092915050565b5f62000ee282620007df565b915062000eef83620007df565b925082820190508082111562000f0a5762000f0962000972565b5b92915050565b62000f1b81620007df565b82525050565b5f60608201905062000f365f8301866200093a565b62000f45602083018562000f10565b62000f54604083018462000f10565b949350505050565b5f60208201905062000f715f83018462000f10565b92915050565b60805160a0516150f662000fe65f395f818161116d0152818161254b0152818161256c01528181612610015261295f01525f8181610c8d01528181610f6e0152818161160f01528181611a5901528181611f5601528181612a5901528181612cab0152612da301526150f65ff3fe608060405260043610610250575f3560e01c80637d25a05e11610138578063bb0b6a53116100b5578063d045a0dc11610079578063d045a0dc146108e7578063d424388514610903578063dd62ed3e1461092b578063f2fde38b14610967578063fc0c546a1461098f578063ff7bd03d146109b957610250565b8063bb0b6a53146107fa578063bc70b35414610836578063bd815db014610872578063c7c7f5b31461088e578063ca5eb5e1146108bf57610250565b8063963efcaa116100fc578063963efcaa146107185780639f68b96414610742578063a9059cbb1461076c578063b731ea0a146107a8578063b98bd070146107d257610250565b80637d25a05e1461062257806382413eac1461065e578063857749b01461069a5780638da5cb5b146106c457806395d89b41146106ee57610250565b806323b872dd116101d15780635535d461116101955780635535d461146105065780635a0dfe4d146105425780635e280f111461057e5780636fc1b31e146105a857806370a08231146105d0578063715018a61461060c57610250565b806323b872dd14610412578063313ce5671461044e5780633400288b146104785780633b6f743b146104a057806352ae2879146104dc57610250565b8063134d4f2511610218578063134d4f251461033e578063156a0d0f1461036857806317442b701461039357806318160ddd146103be5780631f5e1334146103e857610250565b806306fdde0314610254578063095ea7b31461027e5780630d35b415146102ba578063111ecdad146102f857806313137d6514610322575b5f80fd5b34801561025f575f80fd5b506102686109f5565b6040516102759190613028565b60405180910390f35b348015610289575f80fd5b506102a4600480360381019061029f91906130e6565b610a85565b6040516102b1919061313e565b60405180910390f35b3480156102c5575f80fd5b506102e060048036038101906102db9190613179565b610aa7565b6040516102ef9392919061337e565b60405180910390f35b348015610303575f80fd5b5061030c610c4f565b60405161031991906133c9565b60405180910390f35b61033c60048036038101906103379190613494565b610c74565b005b348015610349575f80fd5b50610352610d94565b60405161035f9190613567565b60405180910390f35b348015610373575f80fd5b5061037c610d99565b60405161038a9291906135dc565b60405180910390f35b34801561039e575f80fd5b506103a7610dc6565b6040516103b5929190613603565b60405180910390f35b3480156103c9575f80fd5b506103d2610dd4565b6040516103df9190613639565b60405180910390f35b3480156103f3575f80fd5b506103fc610ddd565b6040516104099190613567565b60405180910390f35b34801561041d575f80fd5b5061043860048036038101906104339190613652565b610de2565b604051610445919061313e565b60405180910390f35b348015610459575f80fd5b50610462610e10565b60405161046f91906136bd565b60405180910390f35b348015610483575f80fd5b5061049e6004803603810190610499919061370f565b610e18565b005b3480156104ab575f80fd5b506104c660048036038101906104c19190613777565b610e2e565b6040516104d391906137fe565b60405180910390f35b3480156104e7575f80fd5b506104f0610e96565b6040516104fd91906133c9565b60405180910390f35b348015610511575f80fd5b5061052c60048036038101906105279190613841565b610e9d565b60405161053991906138d1565b60405180910390f35b34801561054d575f80fd5b506105686004803603810190610563919061370f565b610f43565b604051610575919061313e565b60405180910390f35b348015610589575f80fd5b50610592610f6c565b60405161059f919061394c565b60405180910390f35b3480156105b3575f80fd5b506105ce60048036038101906105c99190613965565b610f90565b005b3480156105db575f80fd5b506105f660048036038101906105f19190613965565b611012565b6040516106039190613639565b60405180910390f35b348015610617575f80fd5b50610620611058565b005b34801561062d575f80fd5b506106486004803603810190610643919061370f565b61106b565b6040516106559190613990565b60405180910390f35b348015610669575f80fd5b50610684600480360381019061067f91906139a9565b611072565b604051610691919061313e565b60405180910390f35b3480156106a5575f80fd5b506106ae6110ac565b6040516106bb91906136bd565b60405180910390f35b3480156106cf575f80fd5b506106d86110b4565b6040516106e591906133c9565b60405180910390f35b3480156106f9575f80fd5b506107026110db565b60405161070f9190613028565b60405180910390f35b348015610723575f80fd5b5061072c61116b565b6040516107399190613639565b60405180910390f35b34801561074d575f80fd5b5061075661118f565b604051610763919061313e565b60405180910390f35b348015610777575f80fd5b50610792600480360381019061078d91906130e6565b611193565b60405161079f919061313e565b60405180910390f35b3480156107b3575f80fd5b506107bc6111b5565b6040516107c991906133c9565b60405180910390f35b3480156107dd575f80fd5b506107f860048036038101906107f39190613a6f565b6111da565b005b348015610805575f80fd5b50610820600480360381019061081b9190613aba565b6111fb565b60405161082d9190613af4565b60405180910390f35b348015610841575f80fd5b5061085c60048036038101906108579190613b0d565b611210565b60405161086991906138d1565b60405180910390f35b61088c60048036038101906108879190613bd3565b611412565b005b6108a860048036038101906108a39190613c3c565b6115de565b6040516108b6929190613d33565b60405180910390f35b3480156108ca575f80fd5b506108e560048036038101906108e09190613965565b611605565b005b61090160048036038101906108fc9190613494565b611696565b005b34801561090e575f80fd5b5061092960048036038101906109249190613965565b611713565b005b348015610936575f80fd5b50610951600480360381019061094c9190613d5a565b611795565b60405161095e9190613639565b60405180910390f35b348015610972575f80fd5b5061098d60048036038101906109889190613965565b611817565b005b34801561099a575f80fd5b506109a361189b565b6040516109b091906133c9565b60405180910390f35b3480156109c4575f80fd5b506109df60048036038101906109da9190613d98565b6118a2565b6040516109ec919061313e565b60405180910390f35b606060088054610a0490613df0565b80601f0160208091040260200160405190810160405280929190818152602001828054610a3090613df0565b8015610a7b5780601f10610a5257610100808354040283529160200191610a7b565b820191905f5260205f20905b815481529060010190602001808311610a5e57829003601f168201915b5050505050905090565b5f80610a8f6118df565b9050610a9c8185856118e6565b600191505092915050565b610aaf612f0b565b6060610ab9612f23565b5f803073ffffffffffffffffffffffffffffffffffffffff1663fc0c546a6040518163ffffffff1660e01b8152600401602060405180830381865afa158015610b04573d5f803e3d5ffd5b505050506040513d601f19601f82011682018060405250810190610b289190613e34565b73ffffffffffffffffffffffffffffffffffffffff166318160ddd6040518163ffffffff1660e01b8152600401602060405180830381865afa158015610b70573d5f803e3d5ffd5b505050506040513d601f19601f82011682018060405250810190610b949190613e73565b905060405180604001604052808381526020018281525094505f67ffffffffffffffff811115610bc757610bc6613e9e565b5b604051908082528060200260200182016040528015610c0057816020015b610bed612f3b565b815260200190600190039081610be55790505b5093505f80610c29886040013589606001358a5f016020810190610c249190613aba565b6118f8565b915091506040518060400160405280838152602001828152509450505050509193909250565b60045f9054906101000a900473ffffffffffffffffffffffffffffffffffffffff1681565b3373ffffffffffffffffffffffffffffffffffffffff167f000000000000000000000000000000000000000000000000000000000000000073ffffffffffffffffffffffffffffffffffffffff1614610d0457336040517f91ac5e4f000000000000000000000000000000000000000000000000000000008152600401610cfb91906133c9565b60405180910390fd5b8660200135610d23885f016020810190610d1e9190613aba565b611957565b14610d7c57865f016020810190610d3a9190613aba565b87602001356040517fc26bebcc000000000000000000000000000000000000000000000000000000008152600401610d73929190613eda565b60405180910390fd5b610d8b878787878787876119c8565b50505050505050565b600281565b5f807f02e49c2c000000000000000000000000000000000000000000000000000000006001915091509091565b5f8060016002915091509091565b5f600754905090565b600181565b5f80610dec6118df565b9050610df9858285611b52565b610e04858585611be5565b60019150509392505050565b5f6012905090565b610e20611cd5565b610e2a8282611d5c565b5050565b610e36612f54565b5f610e5b84604001358560600135865f016020810190610e569190613aba565b6118f8565b9150505f80610e6a8684611dbb565b91509150610e8b865f016020810190610e839190613aba565b838388611f4c565b935050505092915050565b5f30905090565b6003602052815f5260405f20602052805f5260405f205f91509150508054610ec490613df0565b80601f0160208091040260200160405190810160405280929190818152602001828054610ef090613df0565b8015610f3b5780601f10610f1257610100808354040283529160200191610f3b565b820191905f5260205f20905b815481529060010190602001808311610f1e57829003601f168201915b505050505081565b5f8160015f8563ffffffff1663ffffffff1681526020019081526020015f205414905092915050565b7f000000000000000000000000000000000000000000000000000000000000000081565b610f98611cd5565b8060045f6101000a81548173ffffffffffffffffffffffffffffffffffffffff021916908373ffffffffffffffffffffffffffffffffffffffff1602179055507ff0be4f1e87349231d80c36b33f9e8639658eeaf474014dee15a3e6a4d44141978160405161100791906133c9565b60405180910390a150565b5f60055f8373ffffffffffffffffffffffffffffffffffffffff1673ffffffffffffffffffffffffffffffffffffffff1681526020019081526020015f20549050919050565b611060611cd5565b6110695f61202d565b565b5f92915050565b5f3073ffffffffffffffffffffffffffffffffffffffff168273ffffffffffffffffffffffffffffffffffffffff16149050949350505050565b5f6006905090565b5f805f9054906101000a900473ffffffffffffffffffffffffffffffffffffffff16905090565b6060600980546110ea90613df0565b80601f016020809104026020016040519081016040528092919081815260200182805461111690613df0565b80156111615780601f1061113857610100808354040283529160200191611161565b820191905f5260205f20905b81548152906001019060200180831161114457829003601f168201915b5050505050905090565b7f000000000000000000000000000000000000000000000000000000000000000081565b5f90565b5f8061119d6118df565b90506111aa818585611be5565b600191505092915050565b60025f9054906101000a900473ffffffffffffffffffffffffffffffffffffffff1681565b6111e2611cd5565b6111f78282906111f29190614132565b6120ee565b5050565b6001602052805f5260405f205f915090505481565b60605f60035f8763ffffffff1663ffffffff1681526020019081526020015f205f8661ffff1661ffff1681526020019081526020015f20805461125290613df0565b80601f016020809104026020016040519081016040528092919081815260200182805461127e90613df0565b80156112c95780601f106112a0576101008083540402835291602001916112c9565b820191905f5260205f20905b8154815290600101906020018083116112ac57829003601f168201915b505050505090505f8151036113245783838080601f0160208091040260200160405190810160405280939291908181526020018383808284375f81840152601f19601f8201169050808301925050505050505091505061140a565b5f8484905003611337578091505061140a565b600284849050106113cb5761138e84848080601f0160208091040260200160405190810160405280939291908181526020018383808284375f81840152601f19601f82011690508083019250505050505050612203565b80848460029080926113a29392919061414e565b6040516020016113b4939291906141e6565b60405160208183030381529060405291505061140a565b83836040517f9a6d49cd000000000000000000000000000000000000000000000000000000008152600401611401929190614237565b60405180910390fd5b949350505050565b5f5b82829050811015611531573683838381811061143357611432614259565b5b90506020028101906114459190614292565b905061146a815f015f01602081019061145e9190613aba565b825f0160200135610f43565b6114745750611524565b3073ffffffffffffffffffffffffffffffffffffffff1663d045a0dc8260c00135835f018460a00135858061010001906114ae91906142ba565b8760e00160208101906114c19190613965565b888061012001906114d291906142ba565b6040518963ffffffff1660e01b81526004016114f497969594939291906143ef565b5f604051808303818588803b15801561150b575f80fd5b505af115801561151d573d5f803e3d5ffd5b5050505050505b8080600101915050611414565b503373ffffffffffffffffffffffffffffffffffffffff16638e9e70996040518163ffffffff1660e01b81526004015f60405180830381865afa15801561157a573d5f803e3d5ffd5b505050506040513d5f823e3d601f19601f820116820180604052508101906115a291906144c0565b6040517f8351eea70000000000000000000000000000000000000000000000000000000081526004016115d591906138d1565b60405180910390fd5b6115e6612f6c565b6115ee612f23565b6115f985858561225c565b91509150935093915050565b61160d611cd5565b7f000000000000000000000000000000000000000000000000000000000000000073ffffffffffffffffffffffffffffffffffffffff1663ca5eb5e1826040518263ffffffff1660e01b815260040161166691906133c9565b5f604051808303815f87803b15801561167d575f80fd5b505af115801561168f573d5f803e3d5ffd5b5050505050565b3073ffffffffffffffffffffffffffffffffffffffff163373ffffffffffffffffffffffffffffffffffffffff16146116fb576040517f14d4a4e800000000000000000000000000000000000000000000000000000000815260040160405180910390fd5b61170a87878787878787612361565b50505050505050565b61171b611cd5565b8060025f6101000a81548173ffffffffffffffffffffffffffffffffffffffff021916908373ffffffffffffffffffffffffffffffffffffffff1602179055507fd48d879cef83a1c0bdda516f27b13ddb1b3f8bbac1c9e1511bb2a659c24277608160405161178a91906133c9565b60405180910390a150565b5f60065f8473ffffffffffffffffffffffffffffffffffffffff1673ffffffffffffffffffffffffffffffffffffffff1681526020019081526020015f205f8373ffffffffffffffffffffffffffffffffffffffff1673ffffffffffffffffffffffffffffffffffffffff1681526020019081526020015f2054905092915050565b61181f611cd5565b5f73ffffffffffffffffffffffffffffffffffffffff168173ffffffffffffffffffffffffffffffffffffffff160361188f575f6040517f1e4fbdf700000000000000000000000000000000000000000000000000000000815260040161188691906133c9565b60405180910390fd5b6118988161202d565b50565b5f30905090565b5f816020013560015f845f0160208101906118bd9190613aba565b63ffffffff1663ffffffff1681526020019081526020015f2054149050919050565b5f33905090565b6118f38383836001612379565b505050565b5f8061190385612548565b91508190508381101561194f5780846040517f71c4efed000000000000000000000000000000000000000000000000000000008152600401611946929190614507565b60405180910390fd5b935093915050565b5f8060015f8463ffffffff1663ffffffff1681526020019081526020015f205490505f801b81036119bf57826040517ff6ff4fb70000000000000000000000000000000000000000000000000000000081526004016119b6919061452e565b60405180910390fd5b80915050919050565b5f6119db6119d687876125a7565b6125d1565b90505f611a0b826119f46119ef8a8a6125dc565b61260d565b8b5f016020810190611a069190613aba565b61264b565b9050611a178787612699565b15611ae5575f611a558a6040016020810190611a339190614547565b8b5f016020810190611a459190613aba565b84611a508c8c6126ac565b61270e565b90507f000000000000000000000000000000000000000000000000000000000000000073ffffffffffffffffffffffffffffffffffffffff16637cb59012848b5f856040518563ffffffff1660e01b8152600401611ab694939291906145ab565b5f604051808303815f87803b158015611acd575f80fd5b505af1158015611adf573d5f803e3d5ffd5b50505050505b8173ffffffffffffffffffffffffffffffffffffffff16887fefed6d3500546b29533b128a29e3a94d70788727f0507505ac12eaf2e578fd9c8b5f016020810190611b309190613aba565b84604051611b3f9291906145f5565b60405180910390a3505050505050505050565b5f611b5d8484611795565b90507fffffffffffffffffffffffffffffffffffffffffffffffffffffffffffffffff811015611bdf5781811015611bd0578281836040517ffb8f41b2000000000000000000000000000000000000000000000000000000008152600401611bc79392919061461c565b60405180910390fd5b611bde84848484035f612379565b5b50505050565b5f73ffffffffffffffffffffffffffffffffffffffff168373ffffffffffffffffffffffffffffffffffffffff1603611c55575f6040517f96c6fd1e000000000000000000000000000000000000000000000000000000008152600401611c4c91906133c9565b60405180910390fd5b5f73ffffffffffffffffffffffffffffffffffffffff168273ffffffffffffffffffffffffffffffffffffffff1603611cc5575f6040517fec442f05000000000000000000000000000000000000000000000000000000008152600401611cbc91906133c9565b60405180910390fd5b611cd0838383612740565b505050565b611cdd6118df565b73ffffffffffffffffffffffffffffffffffffffff16611cfb6110b4565b73ffffffffffffffffffffffffffffffffffffffff1614611d5a57611d1e6118df565b6040517f118cdaa7000000000000000000000000000000000000000000000000000000008152600401611d5191906133c9565b60405180910390fd5b565b8060015f8463ffffffff1663ffffffff1681526020019081526020015f20819055507f238399d427b947898edb290f5ff0f9109849b1c3ba196a42e35f00c50a54b98b8282604051611daf929190613eda565b60405180910390a15050565b6060805f611e278560200135611dd08661295c565b878060a00190611de091906142ba565b8080601f0160208091040260200160405190810160405280939291908181526020018383808284375f81840152601f19601f82011690508083019250505050505050612990565b80925081945050505f81611e3c576001611e3f565b60025b9050611e6c865f016020810190611e569190613aba565b82888060800190611e6791906142ba565b611210565b92505f60045f9054906101000a900473ffffffffffffffffffffffffffffffffffffffff1690505f73ffffffffffffffffffffffffffffffffffffffff168173ffffffffffffffffffffffffffffffffffffffff1614611f42578073ffffffffffffffffffffffffffffffffffffffff1663043a78eb86866040518363ffffffff1660e01b8152600401611f01929190614651565b602060405180830381865afa158015611f1c573d5f803e3d5ffd5b505050506040513d601f19601f82011682018060405250810190611f40919061469a565b505b5050509250929050565b611f54612f54565b7f000000000000000000000000000000000000000000000000000000000000000073ffffffffffffffffffffffffffffffffffffffff1663ddc28c586040518060a001604052808863ffffffff168152602001611fb089611957565b8152602001878152602001868152602001851515815250306040518363ffffffff1660e01b8152600401611fe5929190614796565b6040805180830381865afa158015611fff573d5f803e3d5ffd5b505050506040513d601f19601f820116820180604052508101906120239190614811565b9050949350505050565b5f805f9054906101000a900473ffffffffffffffffffffffffffffffffffffffff169050815f806101000a81548173ffffffffffffffffffffffffffffffffffffffff021916908373ffffffffffffffffffffffffffffffffffffffff1602179055508173ffffffffffffffffffffffffffffffffffffffff168173ffffffffffffffffffffffffffffffffffffffff167f8be0079c531659141344cd1fd0a4f28419497f9722a3daafe3b4186f6b6457e060405160405180910390a35050565b5f5b81518110156121c85761212082828151811061210f5761210e614259565b5b602002602001015160400151612203565b81818151811061213357612132614259565b5b60200260200101516040015160035f84848151811061215557612154614259565b5b60200260200101515f015163ffffffff1663ffffffff1681526020019081526020015f205f84848151811061218d5761218c614259565b5b60200260200101516020015161ffff1661ffff1681526020019081526020015f2090816121ba91906149d0565b5080806001019150506120f0565b507fbe4864a8e820971c0247f5992e2da559595f7bf076a21cb5928d443d2a13b674816040516121f89190614bb6565b60405180910390a150565b5f60028201519050600361ffff168161ffff161461225857816040517f9a6d49cd00000000000000000000000000000000000000000000000000000000815260040161224f91906138d1565b60405180910390fd5b5050565b612264612f6c565b61226c612f23565b5f8061229333886040013589606001358a5f01602081019061228e9190613aba565b6129fe565b915091505f806122a38984611dbb565b915091506122d5895f0160208101906122bc9190613aba565b83838b8036038101906122cf9190614c23565b8b612a26565b955060405180604001604052808581526020018481525094503373ffffffffffffffffffffffffffffffffffffffff16865f01517f85496b760a4b7f8d66384b9df21b381f5d1b1e79f229a47aaf4c232edc2fe59a8b5f01602081019061233c9190613aba565b878760405161234d93929190614c4e565b60405180910390a350505050935093915050565b612370878787878787876119c8565b50505050505050565b5f73ffffffffffffffffffffffffffffffffffffffff168473ffffffffffffffffffffffffffffffffffffffff16036123e9575f6040517fe602df050000000000000000000000000000000000000000000000000000000081526004016123e091906133c9565b60405180910390fd5b5f73ffffffffffffffffffffffffffffffffffffffff168373ffffffffffffffffffffffffffffffffffffffff1603612459575f6040517f94280d6200000000000000000000000000000000000000000000000000000000815260040161245091906133c9565b60405180910390fd5b8160065f8673ffffffffffffffffffffffffffffffffffffffff1673ffffffffffffffffffffffffffffffffffffffff1681526020019081526020015f205f8573ffffffffffffffffffffffffffffffffffffffff1673ffffffffffffffffffffffffffffffffffffffff1681526020019081526020015f20819055508015612542578273ffffffffffffffffffffffffffffffffffffffff168473ffffffffffffffffffffffffffffffffffffffff167f8c5be1e5ebec7d5bd14f71427d1e84f3dd0314c0f7b2291e5b200ac8c7c3b925846040516125399190613639565b60405180910390a35b50505050565b5f7f00000000000000000000000000000000000000000000000000000000000000007f0000000000000000000000000000000000000000000000000000000000000000836125969190614cdd565b6125a09190614d0d565b9050919050565b5f82825f90602060ff16926125be9392919061414e565b906125c99190614d58565b905092915050565b5f815f1c9050919050565b5f8282602060ff1690602860ff16926125f79392919061414e565b906126029190614de1565b60c01c905092915050565b5f7f00000000000000000000000000000000000000000000000000000000000000008267ffffffffffffffff166126449190614d0d565b9050919050565b5f8073ffffffffffffffffffffffffffffffffffffffff168473ffffffffffffffffffffffffffffffffffffffff16036126855761dead93505b61268f8484612b3c565b8290509392505050565b5f602860ff168383905011905092915050565b60608282602860ff169080926126c49392919061414e565b8080601f0160208091040260200160405190810160405280939291908181526020018383808284375f81840152601f19601f82011690508083019250505050505050905092915050565b6060848484846040516020016127279493929190614ec7565b6040516020818303038152906040529050949350505050565b5f73ffffffffffffffffffffffffffffffffffffffff168373ffffffffffffffffffffffffffffffffffffffff1603612790578060075f8282546127849190614f10565b92505081905550612860565b5f60055f8573ffffffffffffffffffffffffffffffffffffffff1673ffffffffffffffffffffffffffffffffffffffff1681526020019081526020015f205490508181101561281a578381836040517fe450d38c0000000000000000000000000000000000000000000000000000000081526004016128119392919061461c565b60405180910390fd5b81810360055f8673ffffffffffffffffffffffffffffffffffffffff1673ffffffffffffffffffffffffffffffffffffffff1681526020019081526020015f2081905550505b5f73ffffffffffffffffffffffffffffffffffffffff168273ffffffffffffffffffffffffffffffffffffffff16036128a7578060075f82825403925050819055506128f2565b8060055f8473ffffffffffffffffffffffffffffffffffffffff1673ffffffffffffffffffffffffffffffffffffffff1681526020019081526020015f205f82825401925050819055505b8173ffffffffffffffffffffffffffffffffffffffff168373ffffffffffffffffffffffffffffffffffffffff167fddf252ad1be2c89b69c2b068fc378daa952ba7f163c4a11628f55a4df523b3ef8360405161294f9190613639565b60405180910390a3505050565b5f7f0000000000000000000000000000000000000000000000000000000000000000826129899190614cdd565b9050919050565b60605f808351119050806129c55784846040516020016129b1929190614f63565b6040516020818303038152906040526129f4565b84846129d033612bbb565b856040516020016129e49493929190614f8e565b6040516020818303038152906040525b9150935093915050565b5f80612a0b8585856118f8565b8092508193505050612a1d8683612bdc565b94509492505050565b612a2e612f6c565b5f612a3b845f0151612c5b565b90505f84602001511115612a5757612a568460200151612ca8565b5b7f000000000000000000000000000000000000000000000000000000000000000073ffffffffffffffffffffffffffffffffffffffff16632637a450826040518060a001604052808b63ffffffff168152602001612ab48c611957565b81526020018a81526020018981526020015f8960200151111515815250866040518463ffffffff1660e01b8152600401612aef929190614796565b60806040518083038185885af1158015612b0b573d5f803e3d5ffd5b50505050506040513d601f19601f82011682018060405250810190612b309190615060565b91505095945050505050565b5f73ffffffffffffffffffffffffffffffffffffffff168273ffffffffffffffffffffffffffffffffffffffff1603612bac575f6040517fec442f05000000000000000000000000000000000000000000000000000000008152600401612ba391906133c9565b60405180910390fd5b612bb75f8383612740565b5050565b5f8173ffffffffffffffffffffffffffffffffffffffff165f1b9050919050565b5f73ffffffffffffffffffffffffffffffffffffffff168273ffffffffffffffffffffffffffffffffffffffff1603612c4c575f6040517f96c6fd1e000000000000000000000000000000000000000000000000000000008152600401612c4391906133c9565b60405180910390fd5b612c57825f83612740565b5050565b5f813414612ca057346040517f9f704120000000000000000000000000000000000000000000000000000000008152600401612c979190613639565b60405180910390fd5b819050919050565b5f7f000000000000000000000000000000000000000000000000000000000000000073ffffffffffffffffffffffffffffffffffffffff1663e4fe1d946040518163ffffffff1660e01b8152600401602060405180830381865afa158015612d12573d5f803e3d5ffd5b505050506040513d601f19601f82011682018060405250810190612d369190613e34565b90505f73ffffffffffffffffffffffffffffffffffffffff168173ffffffffffffffffffffffffffffffffffffffff1603612d9d576040517f5373352a00000000000000000000000000000000000000000000000000000000815260040160405180910390fd5b612dea337f0000000000000000000000000000000000000000000000000000000000000000848473ffffffffffffffffffffffffffffffffffffffff16612dee909392919063ffffffff16565b5050565b612e6a848573ffffffffffffffffffffffffffffffffffffffff166323b872dd868686604051602401612e239392919061508b565b604051602081830303815290604052915060e01b6020820180517bffffffffffffffffffffffffffffffffffffffffffffffffffffffff8381831617835250505050612e70565b50505050565b5f8060205f8451602086015f885af180612e8f576040513d5f823e3d81fd5b3d92505f519150505f8214612ea8576001811415612ec3565b5f8473ffffffffffffffffffffffffffffffffffffffff163b145b15612f0557836040517f5274afe7000000000000000000000000000000000000000000000000000000008152600401612efc91906133c9565b60405180910390fd5b50505050565b60405180604001604052805f81526020015f81525090565b60405180604001604052805f81526020015f81525090565b60405180604001604052805f8152602001606081525090565b60405180604001604052805f81526020015f81525090565b60405180606001604052805f80191681526020015f67ffffffffffffffff168152602001612f98612f54565b81525090565b5f81519050919050565b5f82825260208201905092915050565b5f5b83811015612fd5578082015181840152602081019050612fba565b5f8484015250505050565b5f601f19601f8301169050919050565b5f612ffa82612f9e565b6130048185612fa8565b9350613014818560208601612fb8565b61301d81612fe0565b840191505092915050565b5f6020820190508181035f8301526130408184612ff0565b905092915050565b5f604051905090565b5f80fd5b5f80fd5b5f73ffffffffffffffffffffffffffffffffffffffff82169050919050565b5f61308282613059565b9050919050565b61309281613078565b811461309c575f80fd5b50565b5f813590506130ad81613089565b92915050565b5f819050919050565b6130c5816130b3565b81146130cf575f80fd5b50565b5f813590506130e0816130bc565b92915050565b5f80604083850312156130fc576130fb613051565b5b5f6131098582860161309f565b925050602061311a858286016130d2565b9150509250929050565b5f8115159050919050565b61313881613124565b82525050565b5f6020820190506131515f83018461312f565b92915050565b5f80fd5b5f60e082840312156131705761316f613157565b5b81905092915050565b5f6020828403121561318e5761318d613051565b5b5f82013567ffffffffffffffff8111156131ab576131aa613055565b5b6131b78482850161315b565b91505092915050565b6131c9816130b3565b82525050565b604082015f8201516131e35f8501826131c0565b5060208201516131f660208501826131c0565b50505050565b5f81519050919050565b5f82825260208201905092915050565b5f819050602082019050919050565b5f819050919050565b61323781613225565b82525050565b5f82825260208201905092915050565b5f61325782612f9e565b613261818561323d565b9350613271818560208601612fb8565b61327a81612fe0565b840191505092915050565b5f604083015f83015161329a5f86018261322e565b50602083015184820360208601526132b2828261324d565b9150508091505092915050565b5f6132ca8383613285565b905092915050565b5f602082019050919050565b5f6132e8826131fc565b6132f28185613206565b93508360208202850161330485613216565b805f5b8581101561333f578484038952815161332085826132bf565b945061332b836132d2565b925060208a01995050600181019050613307565b50829750879550505050505092915050565b604082015f8201516133655f8501826131c0565b50602082015161337860208501826131c0565b50505050565b5f60a0820190506133915f8301866131cf565b81810360408301526133a381856132de565b90506133b26060830184613351565b949350505050565b6133c381613078565b82525050565b5f6020820190506133dc5f8301846133ba565b92915050565b5f606082840312156133f7576133f6613157565b5b81905092915050565b5f819050919050565b61341281613400565b811461341c575f80fd5b50565b5f8135905061342d81613409565b92915050565b5f80fd5b5f80fd5b5f80fd5b5f8083601f84011261345457613453613433565b5b8235905067ffffffffffffffff81111561347157613470613437565b5b60208301915083600182028301111561348d5761348c61343b565b5b9250929050565b5f805f805f805f60e0888a0312156134af576134ae613051565b5b5f6134bc8a828b016133e2565b97505060606134cd8a828b0161341f565b965050608088013567ffffffffffffffff8111156134ee576134ed613055565b5b6134fa8a828b0161343f565b955095505060a061350d8a828b0161309f565b93505060c088013567ffffffffffffffff81111561352e5761352d613055565b5b61353a8a828b0161343f565b925092505092959891949750929550565b5f61ffff82169050919050565b6135618161354b565b82525050565b5f60208201905061357a5f830184613558565b92915050565b5f7fffffffff0000000000000000000000000000000000000000000000000000000082169050919050565b6135b481613580565b82525050565b5f67ffffffffffffffff82169050919050565b6135d6816135ba565b82525050565b5f6040820190506135ef5f8301856135ab565b6135fc60208301846135cd565b9392505050565b5f6040820190506136165f8301856135cd565b61362360208301846135cd565b9392505050565b613633816130b3565b82525050565b5f60208201905061364c5f83018461362a565b92915050565b5f805f6060848603121561366957613668613051565b5b5f6136768682870161309f565b93505060206136878682870161309f565b9250506040613698868287016130d2565b9150509250925092565b5f60ff82169050919050565b6136b7816136a2565b82525050565b5f6020820190506136d05f8301846136ae565b92915050565b5f63ffffffff82169050919050565b6136ee816136d6565b81146136f8575f80fd5b50565b5f81359050613709816136e5565b92915050565b5f806040838503121561372557613724613051565b5b5f613732858286016136fb565b92505060206137438582860161341f565b9150509250929050565b61375681613124565b8114613760575f80fd5b50565b5f813590506137718161374d565b92915050565b5f806040838503121561378d5761378c613051565b5b5f83013567ffffffffffffffff8111156137aa576137a9613055565b5b6137b68582860161315b565b92505060206137c785828601613763565b9150509250929050565b604082015f8201516137e55f8501826131c0565b5060208201516137f860208501826131c0565b50505050565b5f6040820190506138115f8301846137d1565b92915050565b6138208161354b565b811461382a575f80fd5b50565b5f8135905061383b81613817565b92915050565b5f806040838503121561385757613856613051565b5b5f613864858286016136fb565b92505060206138758582860161382d565b9150509250929050565b5f81519050919050565b5f82825260208201905092915050565b5f6138a38261387f565b6138ad8185613889565b93506138bd818560208601612fb8565b6138c681612fe0565b840191505092915050565b5f6020820190508181035f8301526138e98184613899565b905092915050565b5f819050919050565b5f61391461390f61390a84613059565b6138f1565b613059565b9050919050565b5f613925826138fa565b9050919050565b5f6139368261391b565b9050919050565b6139468161392c565b82525050565b5f60208201905061395f5f83018461393d565b92915050565b5f6020828403121561397a57613979613051565b5b5f6139878482850161309f565b91505092915050565b5f6020820190506139a35f8301846135cd565b92915050565b5f805f8060a085870312156139c1576139c0613051565b5b5f6139ce878288016133e2565b945050606085013567ffffffffffffffff8111156139ef576139ee613055565b5b6139fb8782880161343f565b93509350506080613a0e8782880161309f565b91505092959194509250565b5f8083601f840112613a2f57613a2e613433565b5b8235905067ffffffffffffffff811115613a4c57613a4b613437565b5b602083019150836020820283011115613a6857613a6761343b565b5b9250929050565b5f8060208385031215613a8557613a84613051565b5b5f83013567ffffffffffffffff811115613aa257613aa1613055565b5b613aae85828601613a1a565b92509250509250929050565b5f60208284031215613acf57613ace613051565b5b5f613adc848285016136fb565b91505092915050565b613aee81613400565b82525050565b5f602082019050613b075f830184613ae5565b92915050565b5f805f8060608587031215613b2557613b24613051565b5b5f613b32878288016136fb565b9450506020613b438782880161382d565b935050604085013567ffffffffffffffff811115613b6457613b63613055565b5b613b708782880161343f565b925092505092959194509250565b5f8083601f840112613b9357613b92613433565b5b8235905067ffffffffffffffff811115613bb057613baf613437565b5b602083019150836020820283011115613bcc57613bcb61343b565b5b9250929050565b5f8060208385031215613be957613be8613051565b5b5f83013567ffffffffffffffff811115613c0657613c05613055565b5b613c1285828601613b7e565b92509250509250929050565b5f60408284031215613c3357613c32613157565b5b81905092915050565b5f805f60808486031215613c5357613c52613051565b5b5f84013567ffffffffffffffff811115613c7057613c6f613055565b5b613c7c8682870161315b565b9350506020613c8d86828701613c1e565b9250506060613c9e8682870161309f565b9150509250925092565b613cb181613400565b82525050565b613cc0816135ba565b82525050565b604082015f820151613cda5f8501826131c0565b506020820151613ced60208501826131c0565b50505050565b608082015f820151613d075f850182613ca8565b506020820151613d1a6020850182613cb7565b506040820151613d2d6040850182613cc6565b50505050565b5f60c082019050613d465f830185613cf3565b613d536080830184613351565b9392505050565b5f8060408385031215613d7057613d6f613051565b5b5f613d7d8582860161309f565b9250506020613d8e8582860161309f565b9150509250929050565b5f60608284031215613dad57613dac613051565b5b5f613dba848285016133e2565b91505092915050565b7f4e487b71000000000000000000000000000000000000000000000000000000005f52602260045260245ffd5b5f6002820490506001821680613e0757607f821691505b602082108103613e1a57613e19613dc3565b5b50919050565b5f81519050613e2e81613089565b92915050565b5f60208284031215613e4957613e48613051565b5b5f613e5684828501613e20565b91505092915050565b5f81519050613e6d816130bc565b92915050565b5f60208284031215613e8857613e87613051565b5b5f613e9584828501613e5f565b91505092915050565b7f4e487b71000000000000000000000000000000000000000000000000000000005f52604160045260245ffd5b613ed4816136d6565b82525050565b5f604082019050613eed5f830185613ecb565b613efa6020830184613ae5565b9392505050565b613f0a82612fe0565b810181811067ffffffffffffffff82111715613f2957613f28613e9e565b5b80604052505050565b5f613f3b613048565b9050613f478282613f01565b919050565b5f67ffffffffffffffff821115613f6657613f65613e9e565b5b602082029050602081019050919050565b5f80fd5b5f80fd5b5f80fd5b5f67ffffffffffffffff821115613f9d57613f9c613e9e565b5b613fa682612fe0565b9050602081019050919050565b828183375f83830152505050565b5f613fd3613fce84613f83565b613f32565b905082815260208101848484011115613fef57613fee613f7f565b5b613ffa848285613fb3565b509392505050565b5f82601f83011261401657614015613433565b5b8135614026848260208601613fc1565b91505092915050565b5f6060828403121561404457614043613f77565b5b61404e6060613f32565b90505f61405d848285016136fb565b5f8301525060206140708482850161382d565b602083015250604082013567ffffffffffffffff81111561409457614093613f7b565b5b6140a084828501614002565b60408301525092915050565b5f6140be6140b984613f4c565b613f32565b905080838252602082019050602084028301858111156140e1576140e061343b565b5b835b8181101561412857803567ffffffffffffffff81111561410657614105613433565b5b808601614113898261402f565b855260208501945050506020810190506140e3565b5050509392505050565b5f61413e3684846140ac565b905092915050565b5f80fd5b5f80fd5b5f808585111561416157614160614146565b5b838611156141725761417161414a565b5b6001850283019150848603905094509492505050565b5f81905092915050565b5f61419c8261387f565b6141a68185614188565b93506141b6818560208601612fb8565b80840191505092915050565b5f6141cd8385614188565b93506141da838584613fb3565b82840190509392505050565b5f6141f18286614192565b91506141fe8284866141c2565b9150819050949350505050565b5f6142168385613889565b9350614223838584613fb3565b61422c83612fe0565b840190509392505050565b5f6020820190508181035f83015261425081848661420b565b90509392505050565b7f4e487b71000000000000000000000000000000000000000000000000000000005f52603260045260245ffd5b5f80fd5b5f80fd5b5f80fd5b5f82356001610140038336030381126142ae576142ad614286565b5b80830191505092915050565b5f80833560016020038436030381126142d6576142d5614286565b5b80840192508235915067ffffffffffffffff8211156142f8576142f761428a565b5b6020830192506001820236038313156143145761431361428e565b5b509250929050565b5f61432a60208401846136fb565b905092915050565b61433b816136d6565b82525050565b5f61434f602084018461341f565b905092915050565b614360816135ba565b811461436a575f80fd5b50565b5f8135905061437b81614357565b92915050565b5f61438f602084018461436d565b905092915050565b606082016143a75f83018361431c565b6143b35f850182614332565b506143c16020830183614341565b6143ce6020850182613ca8565b506143dc6040830183614381565b6143e96040850182613cb7565b50505050565b5f60e0820190506144025f83018a614397565b61440f6060830189613ae5565b818103608083015261442281878961420b565b905061443160a08301866133ba565b81810360c083015261444481848661420b565b905098975050505050505050565b5f61446461445f84613f83565b613f32565b9050828152602081018484840111156144805761447f613f7f565b5b61448b848285612fb8565b509392505050565b5f82601f8301126144a7576144a6613433565b5b81516144b7848260208601614452565b91505092915050565b5f602082840312156144d5576144d4613051565b5b5f82015167ffffffffffffffff8111156144f2576144f1613055565b5b6144fe84828501614493565b91505092915050565b5f60408201905061451a5f83018561362a565b614527602083018461362a565b9392505050565b5f6020820190506145415f830184613ecb565b92915050565b5f6020828403121561455c5761455b613051565b5b5f6145698482850161436d565b91505092915050565b5f819050919050565b5f61459561459061458b84614572565b6138f1565b61354b565b9050919050565b6145a58161457b565b82525050565b5f6080820190506145be5f8301876133ba565b6145cb6020830186613ae5565b6145d8604083018561459c565b81810360608301526145ea8184613899565b905095945050505050565b5f6040820190506146085f830185613ecb565b614615602083018461362a565b9392505050565b5f60608201905061462f5f8301866133ba565b61463c602083018561362a565b614649604083018461362a565b949350505050565b5f6040820190508181035f8301526146698185613899565b9050818103602083015261467d8184613899565b90509392505050565b5f815190506146948161374d565b92915050565b5f602082840312156146af576146ae613051565b5b5f6146bc84828501614686565b91505092915050565b5f82825260208201905092915050565b5f6146df8261387f565b6146e981856146c5565b93506146f9818560208601612fb8565b61470281612fe0565b840191505092915050565b61471681613124565b82525050565b5f60a083015f8301516147315f860182614332565b5060208301516147446020860182613ca8565b506040830151848203604086015261475c82826146d5565b9150506060830151848203606086015261477682826146d5565b915050608083015161478b608086018261470d565b508091505092915050565b5f6040820190508181035f8301526147ae818561471c565b90506147bd60208301846133ba565b9392505050565b5f604082840312156147d9576147d8613f77565b5b6147e36040613f32565b90505f6147f284828501613e5f565b5f83015250602061480584828501613e5f565b60208301525092915050565b5f6040828403121561482657614825613051565b5b5f614833848285016147c4565b91505092915050565b5f819050815f5260205f209050919050565b5f6020601f8301049050919050565b5f82821b905092915050565b5f600883026148987fffffffffffffffffffffffffffffffffffffffffffffffffffffffffffffffff8261485d565b6148a2868361485d565b95508019841693508086168417925050509392505050565b5f6148d46148cf6148ca846130b3565b6138f1565b6130b3565b9050919050565b5f819050919050565b6148ed836148ba565b6149016148f9826148db565b848454614869565b825550505050565b5f90565b614915614909565b6149208184846148e4565b505050565b5b81811015614943576149385f8261490d565b600181019050614926565b5050565b601f821115614988576149598161483c565b6149628461484e565b81016020851015614971578190505b61498561497d8561484e565b830182614925565b50505b505050565b5f82821c905092915050565b5f6149a85f198460080261498d565b1980831691505092915050565b5f6149c08383614999565b9150826002028217905092915050565b6149d98261387f565b67ffffffffffffffff8111156149f2576149f1613e9e565b5b6149fc8254613df0565b614a07828285614947565b5f60209050601f831160018114614a38575f8415614a26578287015190505b614a3085826149b5565b865550614a97565b601f198416614a468661483c565b5f5b82811015614a6d57848901518255600182019150602085019450602081019050614a48565b86831015614a8a5784890151614a86601f891682614999565b8355505b6001600288020188555050505b505050505050565b5f81519050919050565b5f82825260208201905092915050565b5f819050602082019050919050565b614ad18161354b565b82525050565b5f606083015f830151614aec5f860182614332565b506020830151614aff6020860182614ac8565b5060408301518482036040860152614b1782826146d5565b9150508091505092915050565b5f614b2f8383614ad7565b905092915050565b5f602082019050919050565b5f614b4d82614a9f565b614b578185614aa9565b935083602082028501614b6985614ab9565b805f5b85811015614ba45784840389528151614b858582614b24565b9450614b9083614b37565b925060208a01995050600181019050614b6c565b50829750879550505050505092915050565b5f6020820190508181035f830152614bce8184614b43565b905092915050565b5f60408284031215614beb57614bea613f77565b5b614bf56040613f32565b90505f614c04848285016130d2565b5f830152506020614c17848285016130d2565b60208301525092915050565b5f60408284031215614c3857614c37613051565b5b5f614c4584828501614bd6565b91505092915050565b5f606082019050614c615f830186613ecb565b614c6e602083018561362a565b614c7b604083018461362a565b949350505050565b7f4e487b71000000000000000000000000000000000000000000000000000000005f52601260045260245ffd5b7f4e487b71000000000000000000000000000000000000000000000000000000005f52601160045260245ffd5b5f614ce7826130b3565b9150614cf2836130b3565b925082614d0257614d01614c83565b5b828204905092915050565b5f614d17826130b3565b9150614d22836130b3565b9250828202614d30816130b3565b91508282048414831517614d4757614d46614cb0565b5b5092915050565b5f82905092915050565b5f614d638383614d4e565b82614d6e8135613400565b92506020821015614dae57614da97fffffffffffffffffffffffffffffffffffffffffffffffffffffffffffffffff8360200360080261485d565b831692505b505092915050565b5f7fffffffffffffffff00000000000000000000000000000000000000000000000082169050919050565b5f614dec8383614d4e565b82614df78135614db6565b92506008821015614e3757614e327fffffffffffffffff0000000000000000000000000000000000000000000000008360080360080261485d565b831692505b505092915050565b5f8160c01b9050919050565b5f614e5582614e3f565b9050919050565b614e6d614e68826135ba565b614e4b565b82525050565b5f8160e01b9050919050565b5f614e8982614e73565b9050919050565b614ea1614e9c826136d6565b614e7f565b82525050565b5f819050919050565b614ec1614ebc826130b3565b614ea7565b82525050565b5f614ed28287614e5c565b600882019150614ee28286614e90565b600482019150614ef28285614eb0565b602082019150614f028284614192565b915081905095945050505050565b5f614f1a826130b3565b9150614f25836130b3565b9250828201905080821115614f3d57614f3c614cb0565b5b92915050565b5f819050919050565b614f5d614f5882613400565b614f43565b82525050565b5f614f6e8285614f4c565b602082019150614f7e8284614e5c565b6008820191508190509392505050565b5f614f998287614f4c565b602082019150614fa98286614e5c565b600882019150614fb98285614f4c565b602082019150614fc98284614192565b915081905095945050505050565b5f81519050614fe581613409565b92915050565b5f81519050614ff981614357565b92915050565b5f6080828403121561501457615013613f77565b5b61501e6060613f32565b90505f61502d84828501614fd7565b5f83015250602061504084828501614feb565b6020830152506040615054848285016147c4565b60408301525092915050565b5f6080828403121561507557615074613051565b5b5f61508284828501614fff565b91505092915050565b5f60608201905061509e5f8301866133ba565b6150ab60208301856133ba565b6150b8604083018461362a565b94935050505056fea2646970667358221220832b90eba63331b2acb40d8e35786ec952268846213c4537dc6b1465d8dd4f2764736f6c63430008180033', \n     arguments: [\n          _name,\n          _symbol,\n          _initialSupply,\n          _lzEndpoint,\n          _delegate,\n     ]\n}).send({\n     from: web3.eth.accounts[0], \n     gas: '4700000'\n   }, function (e, contract){\n    console.log(e, contract);\n    if (typeof contract.address !== 'undefined') {\n         console.log('Contract mined! address: ' + contract.address + ' transactionHash: ' + contract.transactionHash);\n    }\n })",
	"functionHashes": {
		"1f5e1334": "SEND()",
		"134d4f25": "SEND_AND_CALL()",
		"ff7bd03d": "allowInitializePath((uint32,bytes32,uint64))",
		"dd62ed3e": "allowance(address,address)",
		"9f68b964": "approvalRequired()",
		"095ea7b3": "approve(address,uint256)",
		"70a08231": "balanceOf(address)",
		"bc70b354": "combineOptions(uint32,uint16,bytes)",
		"963efcaa": "decimalConversionRate()",
		"313ce567": "decimals()",
		"5e280f11": "endpoint()",
		"5535d461": "enforcedOptions(uint32,uint16)",
		"82413eac": "isComposeMsgSender((uint32,bytes32,uint64),bytes,address)",
		"5a0dfe4d": "isPeer(uint32,bytes32)",
		"13137d65": "lzReceive((uint32,bytes32,uint64),bytes32,bytes,address,bytes)",
		"bd815db0": "lzReceiveAndRevert(((uint32,bytes32,uint64),uint32,address,bytes32,uint256,address,bytes,bytes)[])",
		"d045a0dc": "lzReceiveSimulate((uint32,bytes32,uint64),bytes32,bytes,address,bytes)",
		"111ecdad": "msgInspector()",
		"06fdde03": "name()",
		"7d25a05e": "nextNonce(uint32,bytes32)",
		"52ae2879": "oApp()",
		"17442b70": "oAppVersion()",
		"156a0d0f": "oftVersion()",
		"8da5cb5b": "owner()",
		"bb0b6a53": "peers(uint32)",
		"b731ea0a": "preCrime()",
		"0d35b415": "quoteOFT((uint32,bytes32,uint256,uint256,bytes,bytes,bytes))",
		"3b6f743b": "quoteSend((uint32,bytes32,uint256,uint256,bytes,bytes,bytes),bool)",
		"715018a6": "renounceOwnership()",
		"c7c7f5b3": "send((uint32,bytes32,uint256,uint256,bytes,bytes,bytes),(uint256,uint256),address)",
		"ca5eb5e1": "setDelegate(address)",
		"b98bd070": "setEnforcedOptions((uint32,uint16,bytes)[])",
		"6fc1b31e": "setMsgInspector(address)",
		"3400288b": "setPeer(uint32,bytes32)",
		"d4243885": "setPreCrime(address)",
		"857749b0": "sharedDecimals()",
		"95d89b41": "symbol()",
		"fc0c546a": "token()",
		"18160ddd": "totalSupply()",
		"a9059cbb": "transfer(address,uint256)",
		"23b872dd": "transferFrom(address,address,uint256)",
		"f2fde38b": "transferOwnership(address)"
	},
	"gasEstimates": {
		"Creation": {
			"codeDepositCost": "4145200",
			"executionCost": "infinite",
			"totalCost": "infinite"
		},
		"External": {
			"SEND()": "465",
			"SEND_AND_CALL()": "377",
			"allowInitializePath((uint32,bytes32,uint64))": "3150",
			"allowance(address,address)": "infinite",
			"approvalRequired()": "397",
			"approve(address,uint256)": "infinite",
			"balanceOf(address)": "2962",
			"combineOptions(uint32,uint16,bytes)": "infinite",
			"decimalConversionRate()": "infinite",
			"decimals()": "406",
			"endpoint()": "infinite",
			"enforcedOptions(uint32,uint16)": "infinite",
			"isComposeMsgSender((uint32,bytes32,uint64),bytes,address)": "1077",
			"isPeer(uint32,bytes32)": "3037",
			"lzReceive((uint32,bytes32,uint64),bytes32,bytes,address,bytes)": "infinite",
			"lzReceiveAndRevert(((uint32,bytes32,uint64),uint32,address,bytes32,uint256,address,bytes,bytes)[])": "infinite",
			"lzReceiveSimulate((uint32,bytes32,uint64),bytes32,bytes,address,bytes)": "infinite",
			"msgInspector()": "2621",
			"name()": "infinite",
			"nextNonce(uint32,bytes32)": "814",
			"oApp()": "513",
			"oAppVersion()": "infinite",
			"oftVersion()": "525",
			"owner()": "2627",
			"peers(uint32)": "2805",
			"preCrime()": "2619",
			"quoteOFT((uint32,bytes32,uint256,uint256,bytes,bytes,bytes))": "infinite",
			"quoteSend((uint32,bytes32,uint256,uint256,bytes,bytes,bytes),bool)": "infinite",
			"renounceOwnership()": "infinite",
			"send((uint32,bytes32,uint256,uint256,bytes,bytes,bytes),(uint256,uint256),address)": "infinite",
			"setDelegate(address)": "infinite",
			"setEnforcedOptions((uint32,uint16,bytes)[])": "infinite",
			"setMsgInspector(address)": "infinite",
			"setPeer(uint32,bytes32)": "infinite",
			"setPreCrime(address)": "infinite",
			"sharedDecimals()": "428",
			"symbol()": "infinite",
			"token()": "511",
			"totalSupply()": "2544",
			"transfer(address,uint256)": "infinite",
			"transferFrom(address,address,uint256)": "infinite",
			"transferOwnership(address)": "infinite"
		}
	},
	"devdoc": {
		"errors": {
			"ERC20InsufficientAllowance(address,uint256,uint256)": [
				{
					"details": "Indicates a failure with the `spender`’s `allowance`. Used in transfers.",
					"params": {
						"allowance": "Amount of tokens a `spender` is allowed to operate with.",
						"needed": "Minimum amount required to perform a transfer.",
						"spender": "Address that may be allowed to operate on tokens without being their owner."
					}
				}
			],
			"ERC20InsufficientBalance(address,uint256,uint256)": [
				{
					"details": "Indicates an error related to the current `balance` of a `sender`. Used in transfers.",
					"params": {
						"balance": "Current balance for the interacting account.",
						"needed": "Minimum amount required to perform a transfer.",
						"sender": "Address whose tokens are being transferred."
					}
				}
			],
			"ERC20InvalidApprover(address)": [
				{
					"details": "Indicates a failure with the `approver` of a token to be approved. Used in approvals.",
					"params": {
						"approver": "Address initiating an approval operation."
					}
				}
			],
			"ERC20InvalidReceiver(address)": [
				{
					"details": "Indicates a failure with the token `receiver`. Used in transfers.",
					"params": {
						"receiver": "Address to which tokens are being transferred."
					}
				}
			],
			"ERC20InvalidSender(address)": [
				{
					"details": "Indicates a failure with the token `sender`. Used in transfers.",
					"params": {
						"sender": "Address whose tokens are being transferred."
					}
				}
			],
			"ERC20InvalidSpender(address)": [
				{
					"details": "Indicates a failure with the `spender` to be approved. Used in approvals.",
					"params": {
						"spender": "Address that may be allowed to operate on tokens without being their owner."
					}
				}
			],
			"OwnableInvalidOwner(address)": [
				{
					"details": "The owner is not a valid owner account. (eg. `address(0)`)"
				}
			],
			"OwnableUnauthorizedAccount(address)": [
				{
					"details": "The caller account is not authorized to perform an operation."
				}
			],
			"SafeERC20FailedOperation(address)": [
				{
					"details": "An operation with an ERC-20 token failed."
				}
			]
		},
		"events": {
			"Approval(address,address,uint256)": {
				"details": "Emitted when the allowance of a `spender` for an `owner` is set by a call to {approve}. `value` is the new allowance."
			},
			"PreCrimeSet(address)": {
				"details": "Emitted when the preCrime contract address is set.",
				"params": {
					"preCrimeAddress": "The address of the preCrime contract."
				}
			},
			"Transfer(address,address,uint256)": {
				"details": "Emitted when `value` tokens are moved from one account (`from`) to another (`to`). Note that `value` may be zero."
			}
		},
		"kind": "dev",
		"methods": {
			"allowInitializePath((uint32,bytes32,uint64))": {
				"details": "This indicates to the endpoint that the OApp has enabled msgs for this particular path to be received.This defaults to assuming if a peer has been set, its initialized. Can be overridden by the OApp if there is other logic to determine this.",
				"params": {
					"origin": "The origin information containing the source endpoint and sender address."
				},
				"returns": {
					"_0": "Whether the path has been initialized."
				}
			},
			"allowance(address,address)": {
				"details": "See {IERC20-allowance}."
			},
			"approvalRequired()": {
				"details": "In the case of OFT where the contract IS the token, approval is NOT required.",
				"returns": {
					"_0": "requiresApproval Needs approval of the underlying token implementation."
				}
			},
			"approve(address,uint256)": {
				"details": "See {IERC20-approve}. NOTE: If `value` is the maximum `uint256`, the allowance is not updated on `transferFrom`. This is semantically equivalent to an infinite approval. Requirements: - `spender` cannot be the zero address."
			},
			"balanceOf(address)": {
				"details": "See {IERC20-balanceOf}."
			},
			"combineOptions(uint32,uint16,bytes)": {
				"details": "If there is an enforced lzReceive option: - {gasLimit: 200k, msg.value: 1 ether} AND a caller supplies a lzReceive option: {gasLimit: 100k, msg.value: 0.5 ether} - The resulting options will be {gasLimit: 300k, msg.value: 1.5 ether} when the message is executed on the remote lzReceive() function.This presence of duplicated options is handled off-chain in the verifier/executor.",
				"params": {
					"_eid": "The endpoint ID.",
					"_extraOptions": "Additional options passed by the caller.",
					"_msgType": "The OAPP message type."
				},
				"returns": {
					"_0": "options The combination of caller specified options AND enforced options."
				}
			},
			"decimals()": {
				"details": "Returns the number of decimals used to get its user representation. For example, if `decimals` equals `2`, a balance of `505` tokens should be displayed to a user as `5.05` (`505 / 10 ** 2`). Tokens usually opt for a value of 18, imitating the relationship between Ether and Wei. This is the default value returned by this function, unless it's overridden. NOTE: This information is only used for _display_ purposes: it in no way affects any of the arithmetic of the contract, including {IERC20-balanceOf} and {IERC20-transfer}."
			},
			"isComposeMsgSender((uint32,bytes32,uint64),bytes,address)": {
				"details": "_origin The origin information containing the source endpoint and sender address.  - srcEid: The source chain endpoint ID.  - sender: The sender address on the src chain.  - nonce: The nonce of the message._message The lzReceive payload.Applications can optionally choose to implement separate composeMsg senders that are NOT the bridging layer.The default sender IS the OAppReceiver implementer.",
				"params": {
					"_sender": "The sender address."
				},
				"returns": {
					"_0": "isSender Is a valid sender."
				}
			},
			"isPeer(uint32,bytes32)": {
				"details": "Check if the peer is considered 'trusted' by the OApp.Enables OAppPreCrimeSimulator to check whether a potential Inbound Packet is from a trusted source.",
				"params": {
					"_eid": "The endpoint ID to check.",
					"_peer": "The peer to check."
				},
				"returns": {
					"_0": "Whether the peer passed is considered 'trusted' by the OApp."
				}
			},
			"lzReceive((uint32,bytes32,uint64),bytes32,bytes,address,bytes)": {
				"details": "Entry point for receiving messages or packets from the endpoint.Entry point for receiving msg/packet from the LayerZero endpoint.",
				"params": {
					"_executor": "The address of the executor for the received message.",
					"_extraData": "Additional arbitrary data provided by the corresponding executor.",
					"_guid": "The unique identifier for the received LayerZero message.",
					"_message": "The payload of the received message.",
					"_origin": "The origin information containing the source endpoint and sender address.  - srcEid: The source chain endpoint ID.  - sender: The sender address on the src chain.  - nonce: The nonce of the message."
				}
			},
			"lzReceiveAndRevert(((uint32,bytes32,uint64),uint32,address,bytes32,uint256,address,bytes,bytes)[])": {
				"details": "Interface for pre-crime simulations. Always reverts at the end with the simulation results.WARNING: MUST revert at the end with the simulation results.Gives the preCrime implementation the ability to mock sending packets to the lzReceive function, WITHOUT actually executing them.",
				"params": {
					"_packets": "An array of InboundPacket objects representing received packets to be delivered."
				}
			},
			"lzReceiveSimulate((uint32,bytes32,uint64),bytes32,bytes,address,bytes)": {
				"details": "Is effectively an internal function because msg.sender must be address(this). Allows resetting the call stack for 'internal' calls.",
				"params": {
					"_executor": "The executor address for the packet.",
					"_extraData": "Additional data for the packet.",
					"_guid": "The unique identifier of the packet.",
					"_message": "The message payload of the packet.",
					"_origin": "The origin information containing the source endpoint and sender address.  - srcEid: The source chain endpoint ID.  - sender: The sender address on the src chain.  - nonce: The nonce of the message."
				}
			},
			"name()": {
				"details": "Returns the name of the token."
			},
			"nextNonce(uint32,bytes32)": {
				"details": "_srcEid The source endpoint ID._sender The sender address.The path nonce starts from 1. If 0 is returned it means that there is NO nonce ordered enforcement.Is required by the off-chain executor to determine the OApp expects msg execution is ordered.This is also enforced by the OApp.By default this is NOT enabled. ie. nextNonce is hardcoded to return 0.",
				"returns": {
					"nonce": "The next nonce."
				}
			},
			"oApp()": {
				"details": "Retrieves the address of the OApp contract.The simulator contract is the base contract for the OApp by default.If the simulator is a separate contract, override this function.",
				"returns": {
					"_0": "The address of the OApp contract."
				}
			},
			"oAppVersion()": {
				"returns": {
					"receiverVersion": "The version of the OAppReceiver.sol implementation.",
					"senderVersion": "The version of the OAppSender.sol implementation."
				}
			},
			"oftVersion()": {
				"details": "interfaceId: This specific interface ID is '0x02e49c2c'.version: Indicates a cross-chain compatible msg encoding with other OFTs.If a new feature is added to the OFT cross-chain msg encoding, the version will be incremented. ie. localOFT version(x,1) CAN send messages to remoteOFT version(x,1)",
				"returns": {
					"interfaceId": "The interface ID.",
					"version": "The version."
				}
			},
			"owner()": {
				"details": "Returns the address of the current owner."
			},
			"quoteOFT((uint32,bytes32,uint256,uint256,bytes,bytes,bytes))": {
				"params": {
					"_sendParam": "The parameters for the send operation."
				},
				"returns": {
					"oftFeeDetails": "The details of OFT fees.",
					"oftLimit": "The OFT limit information.",
					"oftReceipt": "The OFT receipt information."
				}
			},
			"quoteSend((uint32,bytes32,uint256,uint256,bytes,bytes,bytes),bool)": {
				"details": "MessagingFee: LayerZero msg fee  - nativeFee: The native fee.  - lzTokenFee: The lzToken fee.",
				"params": {
					"_payInLzToken": "Flag indicating whether the caller is paying in the LZ token.",
					"_sendParam": "The parameters for the send() operation."
				},
				"returns": {
					"msgFee": "The calculated LayerZero messaging fee from the send() operation."
				}
			},
			"renounceOwnership()": {
				"details": "Leaves the contract without owner. It will not be possible to call `onlyOwner` functions. Can only be called by the current owner. NOTE: Renouncing ownership will leave the contract without an owner, thereby disabling any functionality that is only available to the owner."
			},
			"send((uint32,bytes32,uint256,uint256,bytes,bytes,bytes),(uint256,uint256),address)": {
				"details": "Executes the send operation.MessagingReceipt: LayerZero msg receipt  - guid: The unique identifier for the sent message.  - nonce: The nonce of the sent message.  - fee: The LayerZero fee incurred for the message.",
				"params": {
					"_fee": "The calculated fee for the send() operation.      - nativeFee: The native fee.      - lzTokenFee: The lzToken fee.",
					"_refundAddress": "The address to receive any excess funds.",
					"_sendParam": "The parameters for the send operation."
				},
				"returns": {
					"msgReceipt": "The receipt for the send operation.",
					"oftReceipt": "The OFT receipt information."
				}
			},
			"setDelegate(address)": {
				"details": "Only the owner/admin of the OApp can call this function.Provides the ability for a delegate to set configs, on behalf of the OApp, directly on the Endpoint contract.",
				"params": {
					"_delegate": "The address of the delegate to be set."
				}
			},
			"setEnforcedOptions((uint32,uint16,bytes)[])": {
				"details": "Sets the enforced options for specific endpoint and message type combinations.Only the owner/admin of the OApp can call this function.Provides a way for the OApp to enforce things like paying for PreCrime, AND/OR minimum dst lzReceive gas amounts etc.These enforced options can vary as the potential options/execution on the remote may differ as per the msgType. eg. Amount of lzReceive() gas necessary to deliver a lzCompose() message adds overhead you dont want to pay if you are only making a standard LayerZero message ie. lzReceive() WITHOUT sendCompose().",
				"params": {
					"_enforcedOptions": "An array of EnforcedOptionParam structures specifying enforced options."
				}
			},
			"setMsgInspector(address)": {
				"details": "Sets the message inspector address for the OFT.This is an optional contract that can be used to inspect both 'message' and 'options'.Set it to address(0) to disable it, or set it to a contract address to enable it.",
				"params": {
					"_msgInspector": "The address of the message inspector."
				}
			},
			"setPeer(uint32,bytes32)": {
				"details": "Only the owner/admin of the OApp can call this function.Indicates that the peer is trusted to send LayerZero messages to this OApp.Set this to bytes32(0) to remove the peer address.Peer is a bytes32 to accommodate non-evm chains.",
				"params": {
					"_eid": "The endpoint ID.",
					"_peer": "The address of the peer to be associated with the corresponding endpoint."
				}
			},
			"setPreCrime(address)": {
				"details": "Sets the preCrime contract address.",
				"params": {
					"_preCrime": "The address of the preCrime contract."
				}
			},
			"sharedDecimals()": {
				"details": "Retrieves the shared decimals of the OFT.Sets an implicit cap on the amount of tokens, over uint64.max() will need some sort of outbound cap / totalSupply cap Lowest common decimal denominator between chains. Defaults to 6 decimal places to provide up to 18,446,744,073,709.551615 units (max uint64). For tokens exceeding this totalSupply(), they will need to override the sharedDecimals function with something smaller. ie. 4 sharedDecimals would be 1,844,674,407,370,955.1615",
				"returns": {
					"_0": "The shared decimals of the OFT."
				}
			},
			"symbol()": {
				"details": "Returns the symbol of the token, usually a shorter version of the name."
			},
			"token()": {
				"details": "Retrieves the address of the underlying ERC20 implementation.In the case of OFT, address(this) and erc20 are the same contract.",
				"returns": {
					"_0": "The address of the OFT token."
				}
			},
			"totalSupply()": {
				"details": "See {IERC20-totalSupply}."
			},
			"transfer(address,uint256)": {
				"details": "See {IERC20-transfer}. Requirements: - `to` cannot be the zero address. - the caller must have a balance of at least `value`."
			},
			"transferFrom(address,address,uint256)": {
				"details": "See {IERC20-transferFrom}. Skips emitting an {Approval} event indicating an allowance update. This is not required by the ERC. See {xref-ERC20-_approve-address-address-uint256-bool-}[_approve]. NOTE: Does not update the allowance if the current allowance is the maximum `uint256`. Requirements: - `from` and `to` cannot be the zero address. - `from` must have a balance of at least `value`. - the caller must have allowance for ``from``'s tokens of at least `value`."
			},
			"transferOwnership(address)": {
				"details": "Transfers ownership of the contract to a new account (`newOwner`). Can only be called by the current owner."
			}
		},
		"version": 1
	},
	"userdoc": {
		"kind": "user",
		"methods": {
			"allowInitializePath((uint32,bytes32,uint64))": {
				"notice": "Checks if the path initialization is allowed based on the provided origin."
			},
			"approvalRequired()": {
				"notice": "Indicates whether the OFT contract requires approval of the 'token()' to send."
			},
			"combineOptions(uint32,uint16,bytes)": {
				"notice": "Combines options for a given endpoint and message type."
			},
			"endpoint()": {
				"notice": "Retrieves the LayerZero endpoint associated with the OApp."
			},
			"isComposeMsgSender((uint32,bytes32,uint64),bytes,address)": {
				"notice": "Indicates whether an address is an approved composeMsg sender to the Endpoint."
			},
			"nextNonce(uint32,bytes32)": {
				"notice": "Retrieves the next nonce for a given source endpoint and sender address."
			},
			"oAppVersion()": {
				"notice": "Retrieves the OApp version information."
			},
			"oftVersion()": {
				"notice": "Retrieves interfaceID and the version of the OFT."
			},
			"peers(uint32)": {
				"notice": "Retrieves the peer (OApp) associated with a corresponding endpoint."
			},
			"quoteOFT((uint32,bytes32,uint256,uint256,bytes,bytes,bytes))": {
				"notice": "Provides the fee breakdown and settings data for an OFT. Unused in the default implementation."
			},
			"quoteSend((uint32,bytes32,uint256,uint256,bytes,bytes,bytes),bool)": {
				"notice": "Provides a quote for the send() operation."
			},
			"setDelegate(address)": {
				"notice": "Sets the delegate address for the OApp."
			},
			"setPeer(uint32,bytes32)": {
				"notice": "Sets the peer address (OApp instance) for a corresponding endpoint."
			}
		},
		"version": 1
	},
	"Runtime Bytecode": {
		"immutableReferences": {
			"1386": [
				{
					"length": 32,
					"start": 3213
				},
				{
					"length": 32,
					"start": 3950
				},
				{
					"length": 32,
					"start": 5647
				},
				{
					"length": 32,
					"start": 6745
				},
				{
					"length": 32,
					"start": 8022
				},
				{
					"length": 32,
					"start": 10841
				},
				{
					"length": 32,
					"start": 11435
				},
				{
					"length": 32,
					"start": 11683
				}
			],
			"2778": [
				{
					"length": 32,
					"start": 4461
				},
				{
					"length": 32,
					"start": 9547
				},
				{
					"length": 32,
					"start": 9580
				},
				{
					"length": 32,
					"start": 9744
				},
				{
					"length": 32,
					"start": 10591
				}
			]
		},
		"linkReferences": {},
		"object": "608060405260043610610250575f3560e01c80637d25a05e11610138578063bb0b6a53116100b5578063d045a0dc11610079578063d045a0dc146108e7578063d424388514610903578063dd62ed3e1461092b578063f2fde38b14610967578063fc0c546a1461098f578063ff7bd03d146109b957610250565b8063bb0b6a53146107fa578063bc70b35414610836578063bd815db014610872578063c7c7f5b31461088e578063ca5eb5e1146108bf57610250565b8063963efcaa116100fc578063963efcaa146107185780639f68b96414610742578063a9059cbb1461076c578063b731ea0a146107a8578063b98bd070146107d257610250565b80637d25a05e1461062257806382413eac1461065e578063857749b01461069a5780638da5cb5b146106c457806395d89b41146106ee57610250565b806323b872dd116101d15780635535d461116101955780635535d461146105065780635a0dfe4d146105425780635e280f111461057e5780636fc1b31e146105a857806370a08231146105d0578063715018a61461060c57610250565b806323b872dd14610412578063313ce5671461044e5780633400288b146104785780633b6f743b146104a057806352ae2879146104dc57610250565b8063134d4f2511610218578063134d4f251461033e578063156a0d0f1461036857806317442b701461039357806318160ddd146103be5780631f5e1334146103e857610250565b806306fdde0314610254578063095ea7b31461027e5780630d35b415146102ba578063111ecdad146102f857806313137d6514610322575b5f80fd5b34801561025f575f80fd5b506102686109f5565b6040516102759190613028565b60405180910390f35b348015610289575f80fd5b506102a4600480360381019061029f91906130e6565b610a85565b6040516102b1919061313e565b60405180910390f35b3480156102c5575f80fd5b506102e060048036038101906102db9190613179565b610aa7565b6040516102ef9392919061337e565b60405180910390f35b348015610303575f80fd5b5061030c610c4f565b60405161031991906133c9565b60405180910390f35b61033c60048036038101906103379190613494565b610c74565b005b348015610349575f80fd5b50610352610d94565b60405161035f9190613567565b60405180910390f35b348015610373575f80fd5b5061037c610d99565b60405161038a9291906135dc565b60405180910390f35b34801561039e575f80fd5b506103a7610dc6565b6040516103b5929190613603565b60405180910390f35b3480156103c9575f80fd5b506103d2610dd4565b6040516103df9190613639565b60405180910390f35b3480156103f3575f80fd5b506103fc610ddd565b6040516104099190613567565b60405180910390f35b34801561041d575f80fd5b5061043860048036038101906104339190613652565b610de2565b604051610445919061313e565b60405180910390f35b348015610459575f80fd5b50610462610e10565b60405161046f91906136bd565b60405180910390f35b348015610483575f80fd5b5061049e6004803603810190610499919061370f565b610e18565b005b3480156104ab575f80fd5b506104c660048036038101906104c19190613777565b610e2e565b6040516104d391906137fe565b60405180910390f35b3480156104e7575f80fd5b506104f0610e96565b6040516104fd91906133c9565b60405180910390f35b348015610511575f80fd5b5061052c60048036038101906105279190613841565b610e9d565b60405161053991906138d1565b60405180910390f35b34801561054d575f80fd5b506105686004803603810190610563919061370f565b610f43565b604051610575919061313e565b60405180910390f35b348015610589575f80fd5b50610592610f6c565b60405161059f919061394c565b60405180910390f35b3480156105b3575f80fd5b506105ce60048036038101906105c99190613965565b610f90565b005b3480156105db575f80fd5b506105f660048036038101906105f19190613965565b611012565b6040516106039190613639565b60405180910390f35b348015610617575f80fd5b50610620611058565b005b34801561062d575f80fd5b506106486004803603810190610643919061370f565b61106b565b6040516106559190613990565b60405180910390f35b348015610669575f80fd5b50610684600480360381019061067f91906139a9565b611072565b604051610691919061313e565b60405180910390f35b3480156106a5575f80fd5b506106ae6110ac565b6040516106bb91906136bd565b60405180910390f35b3480156106cf575f80fd5b506106d86110b4565b6040516106e591906133c9565b60405180910390f35b3480156106f9575f80fd5b506107026110db565b60405161070f9190613028565b60405180910390f35b348015610723575f80fd5b5061072c61116b565b6040516107399190613639565b60405180910390f35b34801561074d575f80fd5b5061075661118f565b604051610763919061313e565b60405180910390f35b348015610777575f80fd5b50610792600480360381019061078d91906130e6565b611193565b60405161079f919061313e565b60405180910390f35b3480156107b3575f80fd5b506107bc6111b5565b6040516107c991906133c9565b60405180910390f35b3480156107dd575f80fd5b506107f860048036038101906107f39190613a6f565b6111da565b005b348015610805575f80fd5b50610820600480360381019061081b9190613aba565b6111fb565b60405161082d9190613af4565b60405180910390f35b348015610841575f80fd5b5061085c60048036038101906108579190613b0d565b611210565b60405161086991906138d1565b60405180910390f35b61088c60048036038101906108879190613bd3565b611412565b005b6108a860048036038101906108a39190613c3c565b6115de565b6040516108b6929190613d33565b60405180910390f35b3480156108ca575f80fd5b506108e560048036038101906108e09190613965565b611605565b005b61090160048036038101906108fc9190613494565b611696565b005b34801561090e575f80fd5b5061092960048036038101906109249190613965565b611713565b005b348015610936575f80fd5b50610951600480360381019061094c9190613d5a565b611795565b60405161095e9190613639565b60405180910390f35b348015610972575f80fd5b5061098d60048036038101906109889190613965565b611817565b005b34801561099a575f80fd5b506109a361189b565b6040516109b091906133c9565b60405180910390f35b3480156109c4575f80fd5b506109df60048036038101906109da9190613d98565b6118a2565b6040516109ec919061313e565b60405180910390f35b606060088054610a0490613df0565b80601f0160208091040260200160405190810160405280929190818152602001828054610a3090613df0565b8015610a7b5780601f10610a5257610100808354040283529160200191610a7b565b820191905f5260205f20905b815481529060010190602001808311610a5e57829003601f168201915b5050505050905090565b5f80610a8f6118df565b9050610a9c8185856118e6565b600191505092915050565b610aaf612f0b565b6060610ab9612f23565b5f803073ffffffffffffffffffffffffffffffffffffffff1663fc0c546a6040518163ffffffff1660e01b8152600401602060405180830381865afa158015610b04573d5f803e3d5ffd5b505050506040513d601f19601f82011682018060405250810190610b289190613e34565b73ffffffffffffffffffffffffffffffffffffffff166318160ddd6040518163ffffffff1660e01b8152600401602060405180830381865afa158015610b70573d5f803e3d5ffd5b505050506040513d601f19601f82011682018060405250810190610b949190613e73565b905060405180604001604052808381526020018281525094505f67ffffffffffffffff811115610bc757610bc6613e9e565b5b604051908082528060200260200182016040528015610c0057816020015b610bed612f3b565b815260200190600190039081610be55790505b5093505f80610c29886040013589606001358a5f016020810190610c249190613aba565b6118f8565b915091506040518060400160405280838152602001828152509450505050509193909250565b60045f9054906101000a900473ffffffffffffffffffffffffffffffffffffffff1681565b3373ffffffffffffffffffffffffffffffffffffffff167f000000000000000000000000000000000000000000000000000000000000000073ffffffffffffffffffffffffffffffffffffffff1614610d0457336040517f91ac5e4f000000000000000000000000000000000000000000000000000000008152600401610cfb91906133c9565b60405180910390fd5b8660200135610d23885f016020810190610d1e9190613aba565b611957565b14610d7c57865f016020810190610d3a9190613aba565b87602001356040517fc26bebcc000000000000000000000000000000000000000000000000000000008152600401610d73929190613eda565b60405180910390fd5b610d8b878787878787876119c8565b50505050505050565b600281565b5f807f02e49c2c000000000000000000000000000000000000000000000000000000006001915091509091565b5f8060016002915091509091565b5f600754905090565b600181565b5f80610dec6118df565b9050610df9858285611b52565b610e04858585611be5565b60019150509392505050565b5f6012905090565b610e20611cd5565b610e2a8282611d5c565b5050565b610e36612f54565b5f610e5b84604001358560600135865f016020810190610e569190613aba565b6118f8565b9150505f80610e6a8684611dbb565b91509150610e8b865f016020810190610e839190613aba565b838388611f4c565b935050505092915050565b5f30905090565b6003602052815f5260405f20602052805f5260405f205f91509150508054610ec490613df0565b80601f0160208091040260200160405190810160405280929190818152602001828054610ef090613df0565b8015610f3b5780601f10610f1257610100808354040283529160200191610f3b565b820191905f5260205f20905b815481529060010190602001808311610f1e57829003601f168201915b505050505081565b5f8160015f8563ffffffff1663ffffffff1681526020019081526020015f205414905092915050565b7f000000000000000000000000000000000000000000000000000000000000000081565b610f98611cd5565b8060045f6101000a81548173ffffffffffffffffffffffffffffffffffffffff021916908373ffffffffffffffffffffffffffffffffffffffff1602179055507ff0be4f1e87349231d80c36b33f9e8639658eeaf474014dee15a3e6a4d44141978160405161100791906133c9565b60405180910390a150565b5f60055f8373ffffffffffffffffffffffffffffffffffffffff1673ffffffffffffffffffffffffffffffffffffffff1681526020019081526020015f20549050919050565b611060611cd5565b6110695f61202d565b565b5f92915050565b5f3073ffffffffffffffffffffffffffffffffffffffff168273ffffffffffffffffffffffffffffffffffffffff16149050949350505050565b5f6006905090565b5f805f9054906101000a900473ffffffffffffffffffffffffffffffffffffffff16905090565b6060600980546110ea90613df0565b80601f016020809104026020016040519081016040528092919081815260200182805461111690613df0565b80156111615780601f1061113857610100808354040283529160200191611161565b820191905f5260205f20905b81548152906001019060200180831161114457829003601f168201915b5050505050905090565b7f000000000000000000000000000000000000000000000000000000000000000081565b5f90565b5f8061119d6118df565b90506111aa818585611be5565b600191505092915050565b60025f9054906101000a900473ffffffffffffffffffffffffffffffffffffffff1681565b6111e2611cd5565b6111f78282906111f29190614132565b6120ee565b5050565b6001602052805f5260405f205f915090505481565b60605f60035f8763ffffffff1663ffffffff1681526020019081526020015f205f8661ffff1661ffff1681526020019081526020015f20805461125290613df0565b80601f016020809104026020016040519081016040528092919081815260200182805461127e90613df0565b80156112c95780601f106112a0576101008083540402835291602001916112c9565b820191905f5260205f20905b8154815290600101906020018083116112ac57829003601f168201915b505050505090505f8151036113245783838080601f0160208091040260200160405190810160405280939291908181526020018383808284375f81840152601f19601f8201169050808301925050505050505091505061140a565b5f8484905003611337578091505061140a565b600284849050106113cb5761138e84848080601f0160208091040260200160405190810160405280939291908181526020018383808284375f81840152601f19601f82011690508083019250505050505050612203565b80848460029080926113a29392919061414e565b6040516020016113b4939291906141e6565b60405160208183030381529060405291505061140a565b83836040517f9a6d49cd000000000000000000000000000000000000000000000000000000008152600401611401929190614237565b60405180910390fd5b949350505050565b5f5b82829050811015611531573683838381811061143357611432614259565b5b90506020028101906114459190614292565b905061146a815f015f01602081019061145e9190613aba565b825f0160200135610f43565b6114745750611524565b3073ffffffffffffffffffffffffffffffffffffffff1663d045a0dc8260c00135835f018460a00135858061010001906114ae91906142ba565b8760e00160208101906114c19190613965565b888061012001906114d291906142ba565b6040518963ffffffff1660e01b81526004016114f497969594939291906143ef565b5f604051808303818588803b15801561150b575f80fd5b505af115801561151d573d5f803e3d5ffd5b5050505050505b8080600101915050611414565b503373ffffffffffffffffffffffffffffffffffffffff16638e9e70996040518163ffffffff1660e01b81526004015f60405180830381865afa15801561157a573d5f803e3d5ffd5b505050506040513d5f823e3d601f19601f820116820180604052508101906115a291906144c0565b6040517f8351eea70000000000000000000000000000000000000000000000000000000081526004016115d591906138d1565b60405180910390fd5b6115e6612f6c565b6115ee612f23565b6115f985858561225c565b91509150935093915050565b61160d611cd5565b7f000000000000000000000000000000000000000000000000000000000000000073ffffffffffffffffffffffffffffffffffffffff1663ca5eb5e1826040518263ffffffff1660e01b815260040161166691906133c9565b5f604051808303815f87803b15801561167d575f80fd5b505af115801561168f573d5f803e3d5ffd5b5050505050565b3073ffffffffffffffffffffffffffffffffffffffff163373ffffffffffffffffffffffffffffffffffffffff16146116fb576040517f14d4a4e800000000000000000000000000000000000000000000000000000000815260040160405180910390fd5b61170a87878787878787612361565b50505050505050565b61171b611cd5565b8060025f6101000a81548173ffffffffffffffffffffffffffffffffffffffff021916908373ffffffffffffffffffffffffffffffffffffffff1602179055507fd48d879cef83a1c0bdda516f27b13ddb1b3f8bbac1c9e1511bb2a659c24277608160405161178a91906133c9565b60405180910390a150565b5f60065f8473ffffffffffffffffffffffffffffffffffffffff1673ffffffffffffffffffffffffffffffffffffffff1681526020019081526020015f205f8373ffffffffffffffffffffffffffffffffffffffff1673ffffffffffffffffffffffffffffffffffffffff1681526020019081526020015f2054905092915050565b61181f611cd5565b5f73ffffffffffffffffffffffffffffffffffffffff168173ffffffffffffffffffffffffffffffffffffffff160361188f575f6040517f1e4fbdf700000000000000000000000000000000000000000000000000000000815260040161188691906133c9565b60405180910390fd5b6118988161202d565b50565b5f30905090565b5f816020013560015f845f0160208101906118bd9190613aba565b63ffffffff1663ffffffff1681526020019081526020015f2054149050919050565b5f33905090565b6118f38383836001612379565b505050565b5f8061190385612548565b91508190508381101561194f5780846040517f71c4efed000000000000000000000000000000000000000000000000000000008152600401611946929190614507565b60405180910390fd5b935093915050565b5f8060015f8463ffffffff1663ffffffff1681526020019081526020015f205490505f801b81036119bf57826040517ff6ff4fb70000000000000000000000000000000000000000000000000000000081526004016119b6919061452e565b60405180910390fd5b80915050919050565b5f6119db6119d687876125a7565b6125d1565b90505f611a0b826119f46119ef8a8a6125dc565b61260d565b8b5f016020810190611a069190613aba565b61264b565b9050611a178787612699565b15611ae5575f611a558a6040016020810190611a339190614547565b8b5f016020810190611a459190613aba565b84611a508c8c6126ac565b61270e565b90507f000000000000000000000000000000000000000000000000000000000000000073ffffffffffffffffffffffffffffffffffffffff16637cb59012848b5f856040518563ffffffff1660e01b8152600401611ab694939291906145ab565b5f604051808303815f87803b158015611acd575f80fd5b505af1158015611adf573d5f803e3d5ffd5b50505050505b8173ffffffffffffffffffffffffffffffffffffffff16887fefed6d3500546b29533b128a29e3a94d70788727f0507505ac12eaf2e578fd9c8b5f016020810190611b309190613aba565b84604051611b3f9291906145f5565b60405180910390a3505050505050505050565b5f611b5d8484611795565b90507fffffffffffffffffffffffffffffffffffffffffffffffffffffffffffffffff811015611bdf5781811015611bd0578281836040517ffb8f41b2000000000000000000000000000000000000000000000000000000008152600401611bc79392919061461c565b60405180910390fd5b611bde84848484035f612379565b5b50505050565b5f73ffffffffffffffffffffffffffffffffffffffff168373ffffffffffffffffffffffffffffffffffffffff1603611c55575f6040517f96c6fd1e000000000000000000000000000000000000000000000000000000008152600401611c4c91906133c9565b60405180910390fd5b5f73ffffffffffffffffffffffffffffffffffffffff168273ffffffffffffffffffffffffffffffffffffffff1603611cc5575f6040517fec442f05000000000000000000000000000000000000000000000000000000008152600401611cbc91906133c9565b60405180910390fd5b611cd0838383612740565b505050565b611cdd6118df565b73ffffffffffffffffffffffffffffffffffffffff16611cfb6110b4565b73ffffffffffffffffffffffffffffffffffffffff1614611d5a57611d1e6118df565b6040517f118cdaa7000000000000000000000000000000000000000000000000000000008152600401611d5191906133c9565b60405180910390fd5b565b8060015f8463ffffffff1663ffffffff1681526020019081526020015f20819055507f238399d427b947898edb290f5ff0f9109849b1c3ba196a42e35f00c50a54b98b8282604051611daf929190613eda565b60405180910390a15050565b6060805f611e278560200135611dd08661295c565b878060a00190611de091906142ba565b8080601f0160208091040260200160405190810160405280939291908181526020018383808284375f81840152601f19601f82011690508083019250505050505050612990565b80925081945050505f81611e3c576001611e3f565b60025b9050611e6c865f016020810190611e569190613aba565b82888060800190611e6791906142ba565b611210565b92505f60045f9054906101000a900473ffffffffffffffffffffffffffffffffffffffff1690505f73ffffffffffffffffffffffffffffffffffffffff168173ffffffffffffffffffffffffffffffffffffffff1614611f42578073ffffffffffffffffffffffffffffffffffffffff1663043a78eb86866040518363ffffffff1660e01b8152600401611f01929190614651565b602060405180830381865afa158015611f1c573d5f803e3d5ffd5b505050506040513d601f19601f82011682018060405250810190611f40919061469a565b505b5050509250929050565b611f54612f54565b7f000000000000000000000000000000000000000000000000000000000000000073ffffffffffffffffffffffffffffffffffffffff1663ddc28c586040518060a001604052808863ffffffff168152602001611fb089611957565b8152602001878152602001868152602001851515815250306040518363ffffffff1660e01b8152600401611fe5929190614796565b6040805180830381865afa158015611fff573d5f803e3d5ffd5b505050506040513d601f19601f820116820180604052508101906120239190614811565b9050949350505050565b5f805f9054906101000a900473ffffffffffffffffffffffffffffffffffffffff169050815f806101000a81548173ffffffffffffffffffffffffffffffffffffffff021916908373ffffffffffffffffffffffffffffffffffffffff1602179055508173ffffffffffffffffffffffffffffffffffffffff168173ffffffffffffffffffffffffffffffffffffffff167f8be0079c531659141344cd1fd0a4f28419497f9722a3daafe3b4186f6b6457e060405160405180910390a35050565b5f5b81518110156121c85761212082828151811061210f5761210e614259565b5b602002602001015160400151612203565b81818151811061213357612132614259565b5b60200260200101516040015160035f84848151811061215557612154614259565b5b60200260200101515f015163ffffffff1663ffffffff1681526020019081526020015f205f84848151811061218d5761218c614259565b5b60200260200101516020015161ffff1661ffff1681526020019081526020015f2090816121ba91906149d0565b5080806001019150506120f0565b507fbe4864a8e820971c0247f5992e2da559595f7bf076a21cb5928d443d2a13b674816040516121f89190614bb6565b60405180910390a150565b5f60028201519050600361ffff168161ffff161461225857816040517f9a6d49cd00000000000000000000000000000000000000000000000000000000815260040161224f91906138d1565b60405180910390fd5b5050565b612264612f6c565b61226c612f23565b5f8061229333886040013589606001358a5f01602081019061228e9190613aba565b6129fe565b915091505f806122a38984611dbb565b915091506122d5895f0160208101906122bc9190613aba565b83838b8036038101906122cf9190614c23565b8b612a26565b955060405180604001604052808581526020018481525094503373ffffffffffffffffffffffffffffffffffffffff16865f01517f85496b760a4b7f8d66384b9df21b381f5d1b1e79f229a47aaf4c232edc2fe59a8b5f01602081019061233c9190613aba565b878760405161234d93929190614c4e565b60405180910390a350505050935093915050565b612370878787878787876119c8565b50505050505050565b5f73ffffffffffffffffffffffffffffffffffffffff168473ffffffffffffffffffffffffffffffffffffffff16036123e9575f6040517fe602df050000000000000000000000000000000000000000000000000000000081526004016123e091906133c9565b60405180910390fd5b5f73ffffffffffffffffffffffffffffffffffffffff168373ffffffffffffffffffffffffffffffffffffffff1603612459575f6040517f94280d6200000000000000000000000000000000000000000000000000000000815260040161245091906133c9565b60405180910390fd5b8160065f8673ffffffffffffffffffffffffffffffffffffffff1673ffffffffffffffffffffffffffffffffffffffff1681526020019081526020015f205f8573ffffffffffffffffffffffffffffffffffffffff1673ffffffffffffffffffffffffffffffffffffffff1681526020019081526020015f20819055508015612542578273ffffffffffffffffffffffffffffffffffffffff168473ffffffffffffffffffffffffffffffffffffffff167f8c5be1e5ebec7d5bd14f71427d1e84f3dd0314c0f7b2291e5b200ac8c7c3b925846040516125399190613639565b60405180910390a35b50505050565b5f7f00000000000000000000000000000000000000000000000000000000000000007f0000000000000000000000000000000000000000000000000000000000000000836125969190614cdd565b6125a09190614d0d565b9050919050565b5f82825f90602060ff16926125be9392919061414e565b906125c99190614d58565b905092915050565b5f815f1c9050919050565b5f8282602060ff1690602860ff16926125f79392919061414e565b906126029190614de1565b60c01c905092915050565b5f7f00000000000000000000000000000000000000000000000000000000000000008267ffffffffffffffff166126449190614d0d565b9050919050565b5f8073ffffffffffffffffffffffffffffffffffffffff168473ffffffffffffffffffffffffffffffffffffffff16036126855761dead93505b61268f8484612b3c565b8290509392505050565b5f602860ff168383905011905092915050565b60608282602860ff169080926126c49392919061414e565b8080601f0160208091040260200160405190810160405280939291908181526020018383808284375f81840152601f19601f82011690508083019250505050505050905092915050565b6060848484846040516020016127279493929190614ec7565b6040516020818303038152906040529050949350505050565b5f73ffffffffffffffffffffffffffffffffffffffff168373ffffffffffffffffffffffffffffffffffffffff1603612790578060075f8282546127849190614f10565b92505081905550612860565b5f60055f8573ffffffffffffffffffffffffffffffffffffffff1673ffffffffffffffffffffffffffffffffffffffff1681526020019081526020015f205490508181101561281a578381836040517fe450d38c0000000000000000000000000000000000000000000000000000000081526004016128119392919061461c565b60405180910390fd5b81810360055f8673ffffffffffffffffffffffffffffffffffffffff1673ffffffffffffffffffffffffffffffffffffffff1681526020019081526020015f2081905550505b5f73ffffffffffffffffffffffffffffffffffffffff168273ffffffffffffffffffffffffffffffffffffffff16036128a7578060075f82825403925050819055506128f2565b8060055f8473ffffffffffffffffffffffffffffffffffffffff1673ffffffffffffffffffffffffffffffffffffffff1681526020019081526020015f205f82825401925050819055505b8173ffffffffffffffffffffffffffffffffffffffff168373ffffffffffffffffffffffffffffffffffffffff167fddf252ad1be2c89b69c2b068fc378daa952ba7f163c4a11628f55a4df523b3ef8360405161294f9190613639565b60405180910390a3505050565b5f7f0000000000000000000000000000000000000000000000000000000000000000826129899190614cdd565b9050919050565b60605f808351119050806129c55784846040516020016129b1929190614f63565b6040516020818303038152906040526129f4565b84846129d033612bbb565b856040516020016129e49493929190614f8e565b6040516020818303038152906040525b9150935093915050565b5f80612a0b8585856118f8565b8092508193505050612a1d8683612bdc565b94509492505050565b612a2e612f6c565b5f612a3b845f0151612c5b565b90505f84602001511115612a5757612a568460200151612ca8565b5b7f000000000000000000000000000000000000000000000000000000000000000073ffffffffffffffffffffffffffffffffffffffff16632637a450826040518060a001604052808b63ffffffff168152602001612ab48c611957565b81526020018a81526020018981526020015f8960200151111515815250866040518463ffffffff1660e01b8152600401612aef929190614796565b60806040518083038185885af1158015612b0b573d5f803e3d5ffd5b50505050506040513d601f19601f82011682018060405250810190612b309190615060565b91505095945050505050565b5f73ffffffffffffffffffffffffffffffffffffffff168273ffffffffffffffffffffffffffffffffffffffff1603612bac575f6040517fec442f05000000000000000000000000000000000000000000000000000000008152600401612ba391906133c9565b60405180910390fd5b612bb75f8383612740565b5050565b5f8173ffffffffffffffffffffffffffffffffffffffff165f1b9050919050565b5f73ffffffffffffffffffffffffffffffffffffffff168273ffffffffffffffffffffffffffffffffffffffff1603612c4c575f6040517f96c6fd1e000000000000000000000000000000000000000000000000000000008152600401612c4391906133c9565b60405180910390fd5b612c57825f83612740565b5050565b5f813414612ca057346040517f9f704120000000000000000000000000000000000000000000000000000000008152600401612c979190613639565b60405180910390fd5b819050919050565b5f7f000000000000000000000000000000000000000000000000000000000000000073ffffffffffffffffffffffffffffffffffffffff1663e4fe1d946040518163ffffffff1660e01b8152600401602060405180830381865afa158015612d12573d5f803e3d5ffd5b505050506040513d601f19601f82011682018060405250810190612d369190613e34565b90505f73ffffffffffffffffffffffffffffffffffffffff168173ffffffffffffffffffffffffffffffffffffffff1603612d9d576040517f5373352a00000000000000000000000000000000000000000000000000000000815260040160405180910390fd5b612dea337f0000000000000000000000000000000000000000000000000000000000000000848473ffffffffffffffffffffffffffffffffffffffff16612dee909392919063ffffffff16565b5050565b612e6a848573ffffffffffffffffffffffffffffffffffffffff166323b872dd868686604051602401612e239392919061508b565b604051602081830303815290604052915060e01b6020820180517bffffffffffffffffffffffffffffffffffffffffffffffffffffffff8381831617835250505050612e70565b50505050565b5f8060205f8451602086015f885af180612e8f576040513d5f823e3d81fd5b3d92505f519150505f8214612ea8576001811415612ec3565b5f8473ffffffffffffffffffffffffffffffffffffffff163b145b15612f0557836040517f5274afe7000000000000000000000000000000000000000000000000000000008152600401612efc91906133c9565b60405180910390fd5b50505050565b60405180604001604052805f81526020015f81525090565b60405180604001604052805f81526020015f81525090565b60405180604001604052805f8152602001606081525090565b60405180604001604052805f81526020015f81525090565b60405180606001604052805f80191681526020015f67ffffffffffffffff168152602001612f98612f54565b81525090565b5f81519050919050565b5f82825260208201905092915050565b5f5b83811015612fd5578082015181840152602081019050612fba565b5f8484015250505050565b5f601f19601f8301169050919050565b5f612ffa82612f9e565b6130048185612fa8565b9350613014818560208601612fb8565b61301d81612fe0565b840191505092915050565b5f6020820190508181035f8301526130408184612ff0565b905092915050565b5f604051905090565b5f80fd5b5f80fd5b5f73ffffffffffffffffffffffffffffffffffffffff82169050919050565b5f61308282613059565b9050919050565b61309281613078565b811461309c575f80fd5b50565b5f813590506130ad81613089565b92915050565b5f819050919050565b6130c5816130b3565b81146130cf575f80fd5b50565b5f813590506130e0816130bc565b92915050565b5f80604083850312156130fc576130fb613051565b5b5f6131098582860161309f565b925050602061311a858286016130d2565b9150509250929050565b5f8115159050919050565b61313881613124565b82525050565b5f6020820190506131515f83018461312f565b92915050565b5f80fd5b5f60e082840312156131705761316f613157565b5b81905092915050565b5f6020828403121561318e5761318d613051565b5b5f82013567ffffffffffffffff8111156131ab576131aa613055565b5b6131b78482850161315b565b91505092915050565b6131c9816130b3565b82525050565b604082015f8201516131e35f8501826131c0565b5060208201516131f660208501826131c0565b50505050565b5f81519050919050565b5f82825260208201905092915050565b5f819050602082019050919050565b5f819050919050565b61323781613225565b82525050565b5f82825260208201905092915050565b5f61325782612f9e565b613261818561323d565b9350613271818560208601612fb8565b61327a81612fe0565b840191505092915050565b5f604083015f83015161329a5f86018261322e565b50602083015184820360208601526132b2828261324d565b9150508091505092915050565b5f6132ca8383613285565b905092915050565b5f602082019050919050565b5f6132e8826131fc565b6132f28185613206565b93508360208202850161330485613216565b805f5b8581101561333f578484038952815161332085826132bf565b945061332b836132d2565b925060208a01995050600181019050613307565b50829750879550505050505092915050565b604082015f8201516133655f8501826131c0565b50602082015161337860208501826131c0565b50505050565b5f60a0820190506133915f8301866131cf565b81810360408301526133a381856132de565b90506133b26060830184613351565b949350505050565b6133c381613078565b82525050565b5f6020820190506133dc5f8301846133ba565b92915050565b5f606082840312156133f7576133f6613157565b5b81905092915050565b5f819050919050565b61341281613400565b811461341c575f80fd5b50565b5f8135905061342d81613409565b92915050565b5f80fd5b5f80fd5b5f80fd5b5f8083601f84011261345457613453613433565b5b8235905067ffffffffffffffff81111561347157613470613437565b5b60208301915083600182028301111561348d5761348c61343b565b5b9250929050565b5f805f805f805f60e0888a0312156134af576134ae613051565b5b5f6134bc8a828b016133e2565b97505060606134cd8a828b0161341f565b965050608088013567ffffffffffffffff8111156134ee576134ed613055565b5b6134fa8a828b0161343f565b955095505060a061350d8a828b0161309f565b93505060c088013567ffffffffffffffff81111561352e5761352d613055565b5b61353a8a828b0161343f565b925092505092959891949750929550565b5f61ffff82169050919050565b6135618161354b565b82525050565b5f60208201905061357a5f830184613558565b92915050565b5f7fffffffff0000000000000000000000000000000000000000000000000000000082169050919050565b6135b481613580565b82525050565b5f67ffffffffffffffff82169050919050565b6135d6816135ba565b82525050565b5f6040820190506135ef5f8301856135ab565b6135fc60208301846135cd565b9392505050565b5f6040820190506136165f8301856135cd565b61362360208301846135cd565b9392505050565b613633816130b3565b82525050565b5f60208201905061364c5f83018461362a565b92915050565b5f805f6060848603121561366957613668613051565b5b5f6136768682870161309f565b93505060206136878682870161309f565b9250506040613698868287016130d2565b9150509250925092565b5f60ff82169050919050565b6136b7816136a2565b82525050565b5f6020820190506136d05f8301846136ae565b92915050565b5f63ffffffff82169050919050565b6136ee816136d6565b81146136f8575f80fd5b50565b5f81359050613709816136e5565b92915050565b5f806040838503121561372557613724613051565b5b5f613732858286016136fb565b92505060206137438582860161341f565b9150509250929050565b61375681613124565b8114613760575f80fd5b50565b5f813590506137718161374d565b92915050565b5f806040838503121561378d5761378c613051565b5b5f83013567ffffffffffffffff8111156137aa576137a9613055565b5b6137b68582860161315b565b92505060206137c785828601613763565b9150509250929050565b604082015f8201516137e55f8501826131c0565b5060208201516137f860208501826131c0565b50505050565b5f6040820190506138115f8301846137d1565b92915050565b6138208161354b565b811461382a575f80fd5b50565b5f8135905061383b81613817565b92915050565b5f806040838503121561385757613856613051565b5b5f613864858286016136fb565b92505060206138758582860161382d565b9150509250929050565b5f81519050919050565b5f82825260208201905092915050565b5f6138a38261387f565b6138ad8185613889565b93506138bd818560208601612fb8565b6138c681612fe0565b840191505092915050565b5f6020820190508181035f8301526138e98184613899565b905092915050565b5f819050919050565b5f61391461390f61390a84613059565b6138f1565b613059565b9050919050565b5f613925826138fa565b9050919050565b5f6139368261391b565b9050919050565b6139468161392c565b82525050565b5f60208201905061395f5f83018461393d565b92915050565b5f6020828403121561397a57613979613051565b5b5f6139878482850161309f565b91505092915050565b5f6020820190506139a35f8301846135cd565b92915050565b5f805f8060a085870312156139c1576139c0613051565b5b5f6139ce878288016133e2565b945050606085013567ffffffffffffffff8111156139ef576139ee613055565b5b6139fb8782880161343f565b93509350506080613a0e8782880161309f565b91505092959194509250565b5f8083601f840112613a2f57613a2e613433565b5b8235905067ffffffffffffffff811115613a4c57613a4b613437565b5b602083019150836020820283011115613a6857613a6761343b565b5b9250929050565b5f8060208385031215613a8557613a84613051565b5b5f83013567ffffffffffffffff811115613aa257613aa1613055565b5b613aae85828601613a1a565b92509250509250929050565b5f60208284031215613acf57613ace613051565b5b5f613adc848285016136fb565b91505092915050565b613aee81613400565b82525050565b5f602082019050613b075f830184613ae5565b92915050565b5f805f8060608587031215613b2557613b24613051565b5b5f613b32878288016136fb565b9450506020613b438782880161382d565b935050604085013567ffffffffffffffff811115613b6457613b63613055565b5b613b708782880161343f565b925092505092959194509250565b5f8083601f840112613b9357613b92613433565b5b8235905067ffffffffffffffff811115613bb057613baf613437565b5b602083019150836020820283011115613bcc57613bcb61343b565b5b9250929050565b5f8060208385031215613be957613be8613051565b5b5f83013567ffffffffffffffff811115613c0657613c05613055565b5b613c1285828601613b7e565b92509250509250929050565b5f60408284031215613c3357613c32613157565b5b81905092915050565b5f805f60808486031215613c5357613c52613051565b5b5f84013567ffffffffffffffff811115613c7057613c6f613055565b5b613c7c8682870161315b565b9350506020613c8d86828701613c1e565b9250506060613c9e8682870161309f565b9150509250925092565b613cb181613400565b82525050565b613cc0816135ba565b82525050565b604082015f820151613cda5f8501826131c0565b506020820151613ced60208501826131c0565b50505050565b608082015f820151613d075f850182613ca8565b506020820151613d1a6020850182613cb7565b506040820151613d2d6040850182613cc6565b50505050565b5f60c082019050613d465f830185613cf3565b613d536080830184613351565b9392505050565b5f8060408385031215613d7057613d6f613051565b5b5f613d7d8582860161309f565b9250506020613d8e8582860161309f565b9150509250929050565b5f60608284031215613dad57613dac613051565b5b5f613dba848285016133e2565b91505092915050565b7f4e487b71000000000000000000000000000000000000000000000000000000005f52602260045260245ffd5b5f6002820490506001821680613e0757607f821691505b602082108103613e1a57613e19613dc3565b5b50919050565b5f81519050613e2e81613089565b92915050565b5f60208284031215613e4957613e48613051565b5b5f613e5684828501613e20565b91505092915050565b5f81519050613e6d816130bc565b92915050565b5f60208284031215613e8857613e87613051565b5b5f613e9584828501613e5f565b91505092915050565b7f4e487b71000000000000000000000000000000000000000000000000000000005f52604160045260245ffd5b613ed4816136d6565b82525050565b5f604082019050613eed5f830185613ecb565b613efa6020830184613ae5565b9392505050565b613f0a82612fe0565b810181811067ffffffffffffffff82111715613f2957613f28613e9e565b5b80604052505050565b5f613f3b613048565b9050613f478282613f01565b919050565b5f67ffffffffffffffff821115613f6657613f65613e9e565b5b602082029050602081019050919050565b5f80fd5b5f80fd5b5f80fd5b5f67ffffffffffffffff821115613f9d57613f9c613e9e565b5b613fa682612fe0565b9050602081019050919050565b828183375f83830152505050565b5f613fd3613fce84613f83565b613f32565b905082815260208101848484011115613fef57613fee613f7f565b5b613ffa848285613fb3565b509392505050565b5f82601f83011261401657614015613433565b5b8135614026848260208601613fc1565b91505092915050565b5f6060828403121561404457614043613f77565b5b61404e6060613f32565b90505f61405d848285016136fb565b5f8301525060206140708482850161382d565b602083015250604082013567ffffffffffffffff81111561409457614093613f7b565b5b6140a084828501614002565b60408301525092915050565b5f6140be6140b984613f4c565b613f32565b905080838252602082019050602084028301858111156140e1576140e061343b565b5b835b8181101561412857803567ffffffffffffffff81111561410657614105613433565b5b808601614113898261402f565b855260208501945050506020810190506140e3565b5050509392505050565b5f61413e3684846140ac565b905092915050565b5f80fd5b5f80fd5b5f808585111561416157614160614146565b5b838611156141725761417161414a565b5b6001850283019150848603905094509492505050565b5f81905092915050565b5f61419c8261387f565b6141a68185614188565b93506141b6818560208601612fb8565b80840191505092915050565b5f6141cd8385614188565b93506141da838584613fb3565b82840190509392505050565b5f6141f18286614192565b91506141fe8284866141c2565b9150819050949350505050565b5f6142168385613889565b9350614223838584613fb3565b61422c83612fe0565b840190509392505050565b5f6020820190508181035f83015261425081848661420b565b90509392505050565b7f4e487b71000000000000000000000000000000000000000000000000000000005f52603260045260245ffd5b5f80fd5b5f80fd5b5f80fd5b5f82356001610140038336030381126142ae576142ad614286565b5b80830191505092915050565b5f80833560016020038436030381126142d6576142d5614286565b5b80840192508235915067ffffffffffffffff8211156142f8576142f761428a565b5b6020830192506001820236038313156143145761431361428e565b5b509250929050565b5f61432a60208401846136fb565b905092915050565b61433b816136d6565b82525050565b5f61434f602084018461341f565b905092915050565b614360816135ba565b811461436a575f80fd5b50565b5f8135905061437b81614357565b92915050565b5f61438f602084018461436d565b905092915050565b606082016143a75f83018361431c565b6143b35f850182614332565b506143c16020830183614341565b6143ce6020850182613ca8565b506143dc6040830183614381565b6143e96040850182613cb7565b50505050565b5f60e0820190506144025f83018a614397565b61440f6060830189613ae5565b818103608083015261442281878961420b565b905061443160a08301866133ba565b81810360c083015261444481848661420b565b905098975050505050505050565b5f61446461445f84613f83565b613f32565b9050828152602081018484840111156144805761447f613f7f565b5b61448b848285612fb8565b509392505050565b5f82601f8301126144a7576144a6613433565b5b81516144b7848260208601614452565b91505092915050565b5f602082840312156144d5576144d4613051565b5b5f82015167ffffffffffffffff8111156144f2576144f1613055565b5b6144fe84828501614493565b91505092915050565b5f60408201905061451a5f83018561362a565b614527602083018461362a565b9392505050565b5f6020820190506145415f830184613ecb565b92915050565b5f6020828403121561455c5761455b613051565b5b5f6145698482850161436d565b91505092915050565b5f819050919050565b5f61459561459061458b84614572565b6138f1565b61354b565b9050919050565b6145a58161457b565b82525050565b5f6080820190506145be5f8301876133ba565b6145cb6020830186613ae5565b6145d8604083018561459c565b81810360608301526145ea8184613899565b905095945050505050565b5f6040820190506146085f830185613ecb565b614615602083018461362a565b9392505050565b5f60608201905061462f5f8301866133ba565b61463c602083018561362a565b614649604083018461362a565b949350505050565b5f6040820190508181035f8301526146698185613899565b9050818103602083015261467d8184613899565b90509392505050565b5f815190506146948161374d565b92915050565b5f602082840312156146af576146ae613051565b5b5f6146bc84828501614686565b91505092915050565b5f82825260208201905092915050565b5f6146df8261387f565b6146e981856146c5565b93506146f9818560208601612fb8565b61470281612fe0565b840191505092915050565b61471681613124565b82525050565b5f60a083015f8301516147315f860182614332565b5060208301516147446020860182613ca8565b506040830151848203604086015261475c82826146d5565b9150506060830151848203606086015261477682826146d5565b915050608083015161478b608086018261470d565b508091505092915050565b5f6040820190508181035f8301526147ae818561471c565b90506147bd60208301846133ba565b9392505050565b5f604082840312156147d9576147d8613f77565b5b6147e36040613f32565b90505f6147f284828501613e5f565b5f83015250602061480584828501613e5f565b60208301525092915050565b5f6040828403121561482657614825613051565b5b5f614833848285016147c4565b91505092915050565b5f819050815f5260205f209050919050565b5f6020601f8301049050919050565b5f82821b905092915050565b5f600883026148987fffffffffffffffffffffffffffffffffffffffffffffffffffffffffffffffff8261485d565b6148a2868361485d565b95508019841693508086168417925050509392505050565b5f6148d46148cf6148ca846130b3565b6138f1565b6130b3565b9050919050565b5f819050919050565b6148ed836148ba565b6149016148f9826148db565b848454614869565b825550505050565b5f90565b614915614909565b6149208184846148e4565b505050565b5b81811015614943576149385f8261490d565b600181019050614926565b5050565b601f821115614988576149598161483c565b6149628461484e565b81016020851015614971578190505b61498561497d8561484e565b830182614925565b50505b505050565b5f82821c905092915050565b5f6149a85f198460080261498d565b1980831691505092915050565b5f6149c08383614999565b9150826002028217905092915050565b6149d98261387f565b67ffffffffffffffff8111156149f2576149f1613e9e565b5b6149fc8254613df0565b614a07828285614947565b5f60209050601f831160018114614a38575f8415614a26578287015190505b614a3085826149b5565b865550614a97565b601f198416614a468661483c565b5f5b82811015614a6d57848901518255600182019150602085019450602081019050614a48565b86831015614a8a5784890151614a86601f891682614999565b8355505b6001600288020188555050505b505050505050565b5f81519050919050565b5f82825260208201905092915050565b5f819050602082019050919050565b614ad18161354b565b82525050565b5f606083015f830151614aec5f860182614332565b506020830151614aff6020860182614ac8565b5060408301518482036040860152614b1782826146d5565b9150508091505092915050565b5f614b2f8383614ad7565b905092915050565b5f602082019050919050565b5f614b4d82614a9f565b614b578185614aa9565b935083602082028501614b6985614ab9565b805f5b85811015614ba45784840389528151614b858582614b24565b9450614b9083614b37565b925060208a01995050600181019050614b6c565b50829750879550505050505092915050565b5f6020820190508181035f830152614bce8184614b43565b905092915050565b5f60408284031215614beb57614bea613f77565b5b614bf56040613f32565b90505f614c04848285016130d2565b5f830152506020614c17848285016130d2565b60208301525092915050565b5f60408284031215614c3857614c37613051565b5b5f614c4584828501614bd6565b91505092915050565b5f606082019050614c615f830186613ecb565b614c6e602083018561362a565b614c7b604083018461362a565b949350505050565b7f4e487b71000000000000000000000000000000000000000000000000000000005f52601260045260245ffd5b7f4e487b71000000000000000000000000000000000000000000000000000000005f52601160045260245ffd5b5f614ce7826130b3565b9150614cf2836130b3565b925082614d0257614d01614c83565b5b828204905092915050565b5f614d17826130b3565b9150614d22836130b3565b9250828202614d30816130b3565b91508282048414831517614d4757614d46614cb0565b5b5092915050565b5f82905092915050565b5f614d638383614d4e565b82614d6e8135613400565b92506020821015614dae57614da97fffffffffffffffffffffffffffffffffffffffffffffffffffffffffffffffff8360200360080261485d565b831692505b505092915050565b5f7fffffffffffffffff00000000000000000000000000000000000000000000000082169050919050565b5f614dec8383614d4e565b82614df78135614db6565b92506008821015614e3757614e327fffffffffffffffff0000000000000000000000000000000000000000000000008360080360080261485d565b831692505b505092915050565b5f8160c01b9050919050565b5f614e5582614e3f565b9050919050565b614e6d614e68826135ba565b614e4b565b82525050565b5f8160e01b9050919050565b5f614e8982614e73565b9050919050565b614ea1614e9c826136d6565b614e7f565b82525050565b5f819050919050565b614ec1614ebc826130b3565b614ea7565b82525050565b5f614ed28287614e5c565b600882019150614ee28286614e90565b600482019150614ef28285614eb0565b602082019150614f028284614192565b915081905095945050505050565b5f614f1a826130b3565b9150614f25836130b3565b9250828201905080821115614f3d57614f3c614cb0565b5b92915050565b5f819050919050565b614f5d614f5882613400565b614f43565b82525050565b5f614f6e8285614f4c565b602082019150614f7e8284614e5c565b6008820191508190509392505050565b5f614f998287614f4c565b602082019150614fa98286614e5c565b600882019150614fb98285614f4c565b602082019150614fc98284614192565b915081905095945050505050565b5f81519050614fe581613409565b92915050565b5f81519050614ff981614357565b92915050565b5f6080828403121561501457615013613f77565b5b61501e6060613f32565b90505f61502d84828501614fd7565b5f83015250602061504084828501614feb565b6020830152506040615054848285016147c4565b60408301525092915050565b5f6080828403121561507557615074613051565b5b5f61508284828501614fff565b91505092915050565b5f60608201905061509e5f8301866133ba565b6150ab60208301856133ba565b6150b8604083018461362a565b94935050505056fea2646970667358221220832b90eba63331b2acb40d8e35786ec952268846213c4537dc6b1465d8dd4f2764736f6c63430008180033",
		"opcodes": "PUSH1 0x80 PUSH1 0x40 MSTORE PUSH1 0x4 CALLDATASIZE LT PUSH2 0x250 JUMPI PUSH0 CALLDATALOAD PUSH1 0xE0 SHR DUP1 PUSH4 0x7D25A05E GT PUSH2 0x138 JUMPI DUP1 PUSH4 0xBB0B6A53 GT PUSH2 0xB5 JUMPI DUP1 PUSH4 0xD045A0DC GT PUSH2 0x79 JUMPI DUP1 PUSH4 0xD045A0DC EQ PUSH2 0x8E7 JUMPI DUP1 PUSH4 0xD4243885 EQ PUSH2 0x903 JUMPI DUP1 PUSH4 0xDD62ED3E EQ PUSH2 0x92B JUMPI DUP1 PUSH4 0xF2FDE38B EQ PUSH2 0x967 JUMPI DUP1 PUSH4 0xFC0C546A EQ PUSH2 0x98F JUMPI DUP1 PUSH4 0xFF7BD03D EQ PUSH2 0x9B9 JUMPI PUSH2 0x250 JUMP JUMPDEST DUP1 PUSH4 0xBB0B6A53 EQ PUSH2 0x7FA JUMPI DUP1 PUSH4 0xBC70B354 EQ PUSH2 0x836 JUMPI DUP1 PUSH4 0xBD815DB0 EQ PUSH2 0x872 JUMPI DUP1 PUSH4 0xC7C7F5B3 EQ PUSH2 0x88E JUMPI DUP1 PUSH4 0xCA5EB5E1 EQ PUSH2 0x8BF JUMPI PUSH2 0x250 JUMP JUMPDEST DUP1 PUSH4 0x963EFCAA GT PUSH2 0xFC JUMPI DUP1 PUSH4 0x963EFCAA EQ PUSH2 0x718 JUMPI DUP1 PUSH4 0x9F68B964 EQ PUSH2 0x742 JUMPI DUP1 PUSH4 0xA9059CBB EQ PUSH2 0x76C JUMPI DUP1 PUSH4 0xB731EA0A EQ PUSH2 0x7A8 JUMPI DUP1 PUSH4 0xB98BD070 EQ PUSH2 0x7D2 JUMPI PUSH2 0x250 JUMP JUMPDEST DUP1 PUSH4 0x7D25A05E EQ PUSH2 0x622 JUMPI DUP1 PUSH4 0x82413EAC EQ PUSH2 0x65E JUMPI DUP1 PUSH4 0x857749B0 EQ PUSH2 0x69A JUMPI DUP1 PUSH4 0x8DA5CB5B EQ PUSH2 0x6C4 JUMPI DUP1 PUSH4 0x95D89B41 EQ PUSH2 0x6EE JUMPI PUSH2 0x250 JUMP JUMPDEST DUP1 PUSH4 0x23B872DD GT PUSH2 0x1D1 JUMPI DUP1 PUSH4 0x5535D461 GT PUSH2 0x195 JUMPI DUP1 PUSH4 0x5535D461 EQ PUSH2 0x506 JUMPI DUP1 PUSH4 0x5A0DFE4D EQ PUSH2 0x542 JUMPI DUP1 PUSH4 0x5E280F11 EQ PUSH2 0x57E JUMPI DUP1 PUSH4 0x6FC1B31E EQ PUSH2 0x5A8 JUMPI DUP1 PUSH4 0x70A08231 EQ PUSH2 0x5D0 JUMPI DUP1 PUSH4 0x715018A6 EQ PUSH2 0x60C JUMPI PUSH2 0x250 JUMP JUMPDEST DUP1 PUSH4 0x23B872DD EQ PUSH2 0x412 JUMPI DUP1 PUSH4 0x313CE567 EQ PUSH2 0x44E JUMPI DUP1 PUSH4 0x3400288B EQ PUSH2 0x478 JUMPI DUP1 PUSH4 0x3B6F743B EQ PUSH2 0x4A0 JUMPI DUP1 PUSH4 0x52AE2879 EQ PUSH2 0x4DC JUMPI PUSH2 0x250 JUMP JUMPDEST DUP1 PUSH4 0x134D4F25 GT PUSH2 0x218 JUMPI DUP1 PUSH4 0x134D4F25 EQ PUSH2 0x33E JUMPI DUP1 PUSH4 0x156A0D0F EQ PUSH2 0x368 JUMPI DUP1 PUSH4 0x17442B70 EQ PUSH2 0x393 JUMPI DUP1 PUSH4 0x18160DDD EQ PUSH2 0x3BE JUMPI DUP1 PUSH4 0x1F5E1334 EQ PUSH2 0x3E8 JUMPI PUSH2 0x250 JUMP JUMPDEST DUP1 PUSH4 0x6FDDE03 EQ PUSH2 0x254 JUMPI DUP1 PUSH4 0x95EA7B3 EQ PUSH2 0x27E JUMPI DUP1 PUSH4 0xD35B415 EQ PUSH2 0x2BA JUMPI DUP1 PUSH4 0x111ECDAD EQ PUSH2 0x2F8 JUMPI DUP1 PUSH4 0x13137D65 EQ PUSH2 0x322 JUMPI JUMPDEST PUSH0 DUP1 REVERT JUMPDEST CALLVALUE DUP1 ISZERO PUSH2 0x25F JUMPI PUSH0 DUP1 REVERT JUMPDEST POP PUSH2 0x268 PUSH2 0x9F5 JUMP JUMPDEST PUSH1 0x40 MLOAD PUSH2 0x275 SWAP2 SWAP1 PUSH2 0x3028 JUMP JUMPDEST PUSH1 0x40 MLOAD DUP1 SWAP2 SUB SWAP1 RETURN JUMPDEST CALLVALUE DUP1 ISZERO PUSH2 0x289 JUMPI PUSH0 DUP1 REVERT JUMPDEST POP PUSH2 0x2A4 PUSH1 0x4 DUP1 CALLDATASIZE SUB DUP2 ADD SWAP1 PUSH2 0x29F SWAP2 SWAP1 PUSH2 0x30E6 JUMP JUMPDEST PUSH2 0xA85 JUMP JUMPDEST PUSH1 0x40 MLOAD PUSH2 0x2B1 SWAP2 SWAP1 PUSH2 0x313E JUMP JUMPDEST PUSH1 0x40 MLOAD DUP1 SWAP2 SUB SWAP1 RETURN JUMPDEST CALLVALUE DUP1 ISZERO PUSH2 0x2C5 JUMPI PUSH0 DUP1 REVERT JUMPDEST POP PUSH2 0x2E0 PUSH1 0x4 DUP1 CALLDATASIZE SUB DUP2 ADD SWAP1 PUSH2 0x2DB SWAP2 SWAP1 PUSH2 0x3179 JUMP JUMPDEST PUSH2 0xAA7 JUMP JUMPDEST PUSH1 0x40 MLOAD PUSH2 0x2EF SWAP4 SWAP3 SWAP2 SWAP1 PUSH2 0x337E JUMP JUMPDEST PUSH1 0x40 MLOAD DUP1 SWAP2 SUB SWAP1 RETURN JUMPDEST CALLVALUE DUP1 ISZERO PUSH2 0x303 JUMPI PUSH0 DUP1 REVERT JUMPDEST POP PUSH2 0x30C PUSH2 0xC4F JUMP JUMPDEST PUSH1 0x40 MLOAD PUSH2 0x319 SWAP2 SWAP1 PUSH2 0x33C9 JUMP JUMPDEST PUSH1 0x40 MLOAD DUP1 SWAP2 SUB SWAP1 RETURN JUMPDEST PUSH2 0x33C PUSH1 0x4 DUP1 CALLDATASIZE SUB DUP2 ADD SWAP1 PUSH2 0x337 SWAP2 SWAP1 PUSH2 0x3494 JUMP JUMPDEST PUSH2 0xC74 JUMP JUMPDEST STOP JUMPDEST CALLVALUE DUP1 ISZERO PUSH2 0x349 JUMPI PUSH0 DUP1 REVERT JUMPDEST POP PUSH2 0x352 PUSH2 0xD94 JUMP JUMPDEST PUSH1 0x40 MLOAD PUSH2 0x35F SWAP2 SWAP1 PUSH2 0x3567 JUMP JUMPDEST PUSH1 0x40 MLOAD DUP1 SWAP2 SUB SWAP1 RETURN JUMPDEST CALLVALUE DUP1 ISZERO PUSH2 0x373 JUMPI PUSH0 DUP1 REVERT JUMPDEST POP PUSH2 0x37C PUSH2 0xD99 JUMP JUMPDEST PUSH1 0x40 MLOAD PUSH2 0x38A SWAP3 SWAP2 SWAP1 PUSH2 0x35DC JUMP JUMPDEST PUSH1 0x40 MLOAD DUP1 SWAP2 SUB SWAP1 RETURN JUMPDEST CALLVALUE DUP1 ISZERO PUSH2 0x39E JUMPI PUSH0 DUP1 REVERT JUMPDEST POP PUSH2 0x3A7 PUSH2 0xDC6 JUMP JUMPDEST PUSH1 0x40 MLOAD PUSH2 0x3B5 SWAP3 SWAP2 SWAP1 PUSH2 0x3603 JUMP JUMPDEST PUSH1 0x40 MLOAD DUP1 SWAP2 SUB SWAP1 RETURN JUMPDEST CALLVALUE DUP1 ISZERO PUSH2 0x3C9 JUMPI PUSH0 DUP1 REVERT JUMPDEST POP PUSH2 0x3D2 PUSH2 0xDD4 JUMP JUMPDEST PUSH1 0x40 MLOAD PUSH2 0x3DF SWAP2 SWAP1 PUSH2 0x3639 JUMP JUMPDEST PUSH1 0x40 MLOAD DUP1 SWAP2 SUB SWAP1 RETURN JUMPDEST CALLVALUE DUP1 ISZERO PUSH2 0x3F3 JUMPI PUSH0 DUP1 REVERT JUMPDEST POP PUSH2 0x3FC PUSH2 0xDDD JUMP JUMPDEST PUSH1 0x40 MLOAD PUSH2 0x409 SWAP2 SWAP1 PUSH2 0x3567 JUMP JUMPDEST PUSH1 0x40 MLOAD DUP1 SWAP2 SUB SWAP1 RETURN JUMPDEST CALLVALUE DUP1 ISZERO PUSH2 0x41D JUMPI PUSH0 DUP1 REVERT JUMPDEST POP PUSH2 0x438 PUSH1 0x4 DUP1 CALLDATASIZE SUB DUP2 ADD SWAP1 PUSH2 0x433 SWAP2 SWAP1 PUSH2 0x3652 JUMP JUMPDEST PUSH2 0xDE2 JUMP JUMPDEST PUSH1 0x40 MLOAD PUSH2 0x445 SWAP2 SWAP1 PUSH2 0x313E JUMP JUMPDEST PUSH1 0x40 MLOAD DUP1 SWAP2 SUB SWAP1 RETURN JUMPDEST CALLVALUE DUP1 ISZERO PUSH2 0x459 JUMPI PUSH0 DUP1 REVERT JUMPDEST POP PUSH2 0x462 PUSH2 0xE10 JUMP JUMPDEST PUSH1 0x40 MLOAD PUSH2 0x46F SWAP2 SWAP1 PUSH2 0x36BD JUMP JUMPDEST PUSH1 0x40 MLOAD DUP1 SWAP2 SUB SWAP1 RETURN JUMPDEST CALLVALUE DUP1 ISZERO PUSH2 0x483 JUMPI PUSH0 DUP1 REVERT JUMPDEST POP PUSH2 0x49E PUSH1 0x4 DUP1 CALLDATASIZE SUB DUP2 ADD SWAP1 PUSH2 0x499 SWAP2 SWAP1 PUSH2 0x370F JUMP JUMPDEST PUSH2 0xE18 JUMP JUMPDEST STOP JUMPDEST CALLVALUE DUP1 ISZERO PUSH2 0x4AB JUMPI PUSH0 DUP1 REVERT JUMPDEST POP PUSH2 0x4C6 PUSH1 0x4 DUP1 CALLDATASIZE SUB DUP2 ADD SWAP1 PUSH2 0x4C1 SWAP2 SWAP1 PUSH2 0x3777 JUMP JUMPDEST PUSH2 0xE2E JUMP JUMPDEST PUSH1 0x40 MLOAD PUSH2 0x4D3 SWAP2 SWAP1 PUSH2 0x37FE JUMP JUMPDEST PUSH1 0x40 MLOAD DUP1 SWAP2 SUB SWAP1 RETURN JUMPDEST CALLVALUE DUP1 ISZERO PUSH2 0x4E7 JUMPI PUSH0 DUP1 REVERT JUMPDEST POP PUSH2 0x4F0 PUSH2 0xE96 JUMP JUMPDEST PUSH1 0x40 MLOAD PUSH2 0x4FD SWAP2 SWAP1 PUSH2 0x33C9 JUMP JUMPDEST PUSH1 0x40 MLOAD DUP1 SWAP2 SUB SWAP1 RETURN JUMPDEST CALLVALUE DUP1 ISZERO PUSH2 0x511 JUMPI PUSH0 DUP1 REVERT JUMPDEST POP PUSH2 0x52C PUSH1 0x4 DUP1 CALLDATASIZE SUB DUP2 ADD SWAP1 PUSH2 0x527 SWAP2 SWAP1 PUSH2 0x3841 JUMP JUMPDEST PUSH2 0xE9D JUMP JUMPDEST PUSH1 0x40 MLOAD PUSH2 0x539 SWAP2 SWAP1 PUSH2 0x38D1 JUMP JUMPDEST PUSH1 0x40 MLOAD DUP1 SWAP2 SUB SWAP1 RETURN JUMPDEST CALLVALUE DUP1 ISZERO PUSH2 0x54D JUMPI PUSH0 DUP1 REVERT JUMPDEST POP PUSH2 0x568 PUSH1 0x4 DUP1 CALLDATASIZE SUB DUP2 ADD SWAP1 PUSH2 0x563 SWAP2 SWAP1 PUSH2 0x370F JUMP JUMPDEST PUSH2 0xF43 JUMP JUMPDEST PUSH1 0x40 MLOAD PUSH2 0x575 SWAP2 SWAP1 PUSH2 0x313E JUMP JUMPDEST PUSH1 0x40 MLOAD DUP1 SWAP2 SUB SWAP1 RETURN JUMPDEST CALLVALUE DUP1 ISZERO PUSH2 0x589 JUMPI PUSH0 DUP1 REVERT JUMPDEST POP PUSH2 0x592 PUSH2 0xF6C JUMP JUMPDEST PUSH1 0x40 MLOAD PUSH2 0x59F SWAP2 SWAP1 PUSH2 0x394C JUMP JUMPDEST PUSH1 0x40 MLOAD DUP1 SWAP2 SUB SWAP1 RETURN JUMPDEST CALLVALUE DUP1 ISZERO PUSH2 0x5B3 JUMPI PUSH0 DUP1 REVERT JUMPDEST POP PUSH2 0x5CE PUSH1 0x4 DUP1 CALLDATASIZE SUB DUP2 ADD SWAP1 PUSH2 0x5C9 SWAP2 SWAP1 PUSH2 0x3965 JUMP JUMPDEST PUSH2 0xF90 JUMP JUMPDEST STOP JUMPDEST CALLVALUE DUP1 ISZERO PUSH2 0x5DB JUMPI PUSH0 DUP1 REVERT JUMPDEST POP PUSH2 0x5F6 PUSH1 0x4 DUP1 CALLDATASIZE SUB DUP2 ADD SWAP1 PUSH2 0x5F1 SWAP2 SWAP1 PUSH2 0x3965 JUMP JUMPDEST PUSH2 0x1012 JUMP JUMPDEST PUSH1 0x40 MLOAD PUSH2 0x603 SWAP2 SWAP1 PUSH2 0x3639 JUMP JUMPDEST PUSH1 0x40 MLOAD DUP1 SWAP2 SUB SWAP1 RETURN JUMPDEST CALLVALUE DUP1 ISZERO PUSH2 0x617 JUMPI PUSH0 DUP1 REVERT JUMPDEST POP PUSH2 0x620 PUSH2 0x1058 JUMP JUMPDEST STOP JUMPDEST CALLVALUE DUP1 ISZERO PUSH2 0x62D JUMPI PUSH0 DUP1 REVERT JUMPDEST POP PUSH2 0x648 PUSH1 0x4 DUP1 CALLDATASIZE SUB DUP2 ADD SWAP1 PUSH2 0x643 SWAP2 SWAP1 PUSH2 0x370F JUMP JUMPDEST PUSH2 0x106B JUMP JUMPDEST PUSH1 0x40 MLOAD PUSH2 0x655 SWAP2 SWAP1 PUSH2 0x3990 JUMP JUMPDEST PUSH1 0x40 MLOAD DUP1 SWAP2 SUB SWAP1 RETURN JUMPDEST CALLVALUE DUP1 ISZERO PUSH2 0x669 JUMPI PUSH0 DUP1 REVERT JUMPDEST POP PUSH2 0x684 PUSH1 0x4 DUP1 CALLDATASIZE SUB DUP2 ADD SWAP1 PUSH2 0x67F SWAP2 SWAP1 PUSH2 0x39A9 JUMP JUMPDEST PUSH2 0x1072 JUMP JUMPDEST PUSH1 0x40 MLOAD PUSH2 0x691 SWAP2 SWAP1 PUSH2 0x313E JUMP JUMPDEST PUSH1 0x40 MLOAD DUP1 SWAP2 SUB SWAP1 RETURN JUMPDEST CALLVALUE DUP1 ISZERO PUSH2 0x6A5 JUMPI PUSH0 DUP1 REVERT JUMPDEST POP PUSH2 0x6AE PUSH2 0x10AC JUMP JUMPDEST PUSH1 0x40 MLOAD PUSH2 0x6BB SWAP2 SWAP1 PUSH2 0x36BD JUMP JUMPDEST PUSH1 0x40 MLOAD DUP1 SWAP2 SUB SWAP1 RETURN JUMPDEST CALLVALUE DUP1 ISZERO PUSH2 0x6CF JUMPI PUSH0 DUP1 REVERT JUMPDEST POP PUSH2 0x6D8 PUSH2 0x10B4 JUMP JUMPDEST PUSH1 0x40 MLOAD PUSH2 0x6E5 SWAP2 SWAP1 PUSH2 0x33C9 JUMP JUMPDEST PUSH1 0x40 MLOAD DUP1 SWAP2 SUB SWAP1 RETURN JUMPDEST CALLVALUE DUP1 ISZERO PUSH2 0x6F9 JUMPI PUSH0 DUP1 REVERT JUMPDEST POP PUSH2 0x702 PUSH2 0x10DB JUMP JUMPDEST PUSH1 0x40 MLOAD PUSH2 0x70F SWAP2 SWAP1 PUSH2 0x3028 JUMP JUMPDEST PUSH1 0x40 MLOAD DUP1 SWAP2 SUB SWAP1 RETURN JUMPDEST CALLVALUE DUP1 ISZERO PUSH2 0x723 JUMPI PUSH0 DUP1 REVERT JUMPDEST POP PUSH2 0x72C PUSH2 0x116B JUMP JUMPDEST PUSH1 0x40 MLOAD PUSH2 0x739 SWAP2 SWAP1 PUSH2 0x3639 JUMP JUMPDEST PUSH1 0x40 MLOAD DUP1 SWAP2 SUB SWAP1 RETURN JUMPDEST CALLVALUE DUP1 ISZERO PUSH2 0x74D JUMPI PUSH0 DUP1 REVERT JUMPDEST POP PUSH2 0x756 PUSH2 0x118F JUMP JUMPDEST PUSH1 0x40 MLOAD PUSH2 0x763 SWAP2 SWAP1 PUSH2 0x313E JUMP JUMPDEST PUSH1 0x40 MLOAD DUP1 SWAP2 SUB SWAP1 RETURN JUMPDEST CALLVALUE DUP1 ISZERO PUSH2 0x777 JUMPI PUSH0 DUP1 REVERT JUMPDEST POP PUSH2 0x792 PUSH1 0x4 DUP1 CALLDATASIZE SUB DUP2 ADD SWAP1 PUSH2 0x78D SWAP2 SWAP1 PUSH2 0x30E6 JUMP JUMPDEST PUSH2 0x1193 JUMP JUMPDEST PUSH1 0x40 MLOAD PUSH2 0x79F SWAP2 SWAP1 PUSH2 0x313E JUMP JUMPDEST PUSH1 0x40 MLOAD DUP1 SWAP2 SUB SWAP1 RETURN JUMPDEST CALLVALUE DUP1 ISZERO PUSH2 0x7B3 JUMPI PUSH0 DUP1 REVERT JUMPDEST POP PUSH2 0x7BC PUSH2 0x11B5 JUMP JUMPDEST PUSH1 0x40 MLOAD PUSH2 0x7C9 SWAP2 SWAP1 PUSH2 0x33C9 JUMP JUMPDEST PUSH1 0x40 MLOAD DUP1 SWAP2 SUB SWAP1 RETURN JUMPDEST CALLVALUE DUP1 ISZERO PUSH2 0x7DD JUMPI PUSH0 DUP1 REVERT JUMPDEST POP PUSH2 0x7F8 PUSH1 0x4 DUP1 CALLDATASIZE SUB DUP2 ADD SWAP1 PUSH2 0x7F3 SWAP2 SWAP1 PUSH2 0x3A6F JUMP JUMPDEST PUSH2 0x11DA JUMP JUMPDEST STOP JUMPDEST CALLVALUE DUP1 ISZERO PUSH2 0x805 JUMPI PUSH0 DUP1 REVERT JUMPDEST POP PUSH2 0x820 PUSH1 0x4 DUP1 CALLDATASIZE SUB DUP2 ADD SWAP1 PUSH2 0x81B SWAP2 SWAP1 PUSH2 0x3ABA JUMP JUMPDEST PUSH2 0x11FB JUMP JUMPDEST PUSH1 0x40 MLOAD PUSH2 0x82D SWAP2 SWAP1 PUSH2 0x3AF4 JUMP JUMPDEST PUSH1 0x40 MLOAD DUP1 SWAP2 SUB SWAP1 RETURN JUMPDEST CALLVALUE DUP1 ISZERO PUSH2 0x841 JUMPI PUSH0 DUP1 REVERT JUMPDEST POP PUSH2 0x85C PUSH1 0x4 DUP1 CALLDATASIZE SUB DUP2 ADD SWAP1 PUSH2 0x857 SWAP2 SWAP1 PUSH2 0x3B0D JUMP JUMPDEST PUSH2 0x1210 JUMP JUMPDEST PUSH1 0x40 MLOAD PUSH2 0x869 SWAP2 SWAP1 PUSH2 0x38D1 JUMP JUMPDEST PUSH1 0x40 MLOAD DUP1 SWAP2 SUB SWAP1 RETURN JUMPDEST PUSH2 0x88C PUSH1 0x4 DUP1 CALLDATASIZE SUB DUP2 ADD SWAP1 PUSH2 0x887 SWAP2 SWAP1 PUSH2 0x3BD3 JUMP JUMPDEST PUSH2 0x1412 JUMP JUMPDEST STOP JUMPDEST PUSH2 0x8A8 PUSH1 0x4 DUP1 CALLDATASIZE SUB DUP2 ADD SWAP1 PUSH2 0x8A3 SWAP2 SWAP1 PUSH2 0x3C3C JUMP JUMPDEST PUSH2 0x15DE JUMP JUMPDEST PUSH1 0x40 MLOAD PUSH2 0x8B6 SWAP3 SWAP2 SWAP1 PUSH2 0x3D33 JUMP JUMPDEST PUSH1 0x40 MLOAD DUP1 SWAP2 SUB SWAP1 RETURN JUMPDEST CALLVALUE DUP1 ISZERO PUSH2 0x8CA JUMPI PUSH0 DUP1 REVERT JUMPDEST POP PUSH2 0x8E5 PUSH1 0x4 DUP1 CALLDATASIZE SUB DUP2 ADD SWAP1 PUSH2 0x8E0 SWAP2 SWAP1 PUSH2 0x3965 JUMP JUMPDEST PUSH2 0x1605 JUMP JUMPDEST STOP JUMPDEST PUSH2 0x901 PUSH1 0x4 DUP1 CALLDATASIZE SUB DUP2 ADD SWAP1 PUSH2 0x8FC SWAP2 SWAP1 PUSH2 0x3494 JUMP JUMPDEST PUSH2 0x1696 JUMP JUMPDEST STOP JUMPDEST CALLVALUE DUP1 ISZERO PUSH2 0x90E JUMPI PUSH0 DUP1 REVERT JUMPDEST POP PUSH2 0x929 PUSH1 0x4 DUP1 CALLDATASIZE SUB DUP2 ADD SWAP1 PUSH2 0x924 SWAP2 SWAP1 PUSH2 0x3965 JUMP JUMPDEST PUSH2 0x1713 JUMP JUMPDEST STOP JUMPDEST CALLVALUE DUP1 ISZERO PUSH2 0x936 JUMPI PUSH0 DUP1 REVERT JUMPDEST POP PUSH2 0x951 PUSH1 0x4 DUP1 CALLDATASIZE SUB DUP2 ADD SWAP1 PUSH2 0x94C SWAP2 SWAP1 PUSH2 0x3D5A JUMP JUMPDEST PUSH2 0x1795 JUMP JUMPDEST PUSH1 0x40 MLOAD PUSH2 0x95E SWAP2 SWAP1 PUSH2 0x3639 JUMP JUMPDEST PUSH1 0x40 MLOAD DUP1 SWAP2 SUB SWAP1 RETURN JUMPDEST CALLVALUE DUP1 ISZERO PUSH2 0x972 JUMPI PUSH0 DUP1 REVERT JUMPDEST POP PUSH2 0x98D PUSH1 0x4 DUP1 CALLDATASIZE SUB DUP2 ADD SWAP1 PUSH2 0x988 SWAP2 SWAP1 PUSH2 0x3965 JUMP JUMPDEST PUSH2 0x1817 JUMP JUMPDEST STOP JUMPDEST CALLVALUE DUP1 ISZERO PUSH2 0x99A JUMPI PUSH0 DUP1 REVERT JUMPDEST POP PUSH2 0x9A3 PUSH2 0x189B JUMP JUMPDEST PUSH1 0x40 MLOAD PUSH2 0x9B0 SWAP2 SWAP1 PUSH2 0x33C9 JUMP JUMPDEST PUSH1 0x40 MLOAD DUP1 SWAP2 SUB SWAP1 RETURN JUMPDEST CALLVALUE DUP1 ISZERO PUSH2 0x9C4 JUMPI PUSH0 DUP1 REVERT JUMPDEST POP PUSH2 0x9DF PUSH1 0x4 DUP1 CALLDATASIZE SUB DUP2 ADD SWAP1 PUSH2 0x9DA SWAP2 SWAP1 PUSH2 0x3D98 JUMP JUMPDEST PUSH2 0x18A2 JUMP JUMPDEST PUSH1 0x40 MLOAD PUSH2 0x9EC SWAP2 SWAP1 PUSH2 0x313E JUMP JUMPDEST PUSH1 0x40 MLOAD DUP1 SWAP2 SUB SWAP1 RETURN JUMPDEST PUSH1 0x60 PUSH1 0x8 DUP1 SLOAD PUSH2 0xA04 SWAP1 PUSH2 0x3DF0 JUMP JUMPDEST DUP1 PUSH1 0x1F ADD PUSH1 0x20 DUP1 SWAP2 DIV MUL PUSH1 0x20 ADD PUSH1 0x40 MLOAD SWAP1 DUP2 ADD PUSH1 0x40 MSTORE DUP1 SWAP3 SWAP2 SWAP1 DUP2 DUP2 MSTORE PUSH1 0x20 ADD DUP3 DUP1 SLOAD PUSH2 0xA30 SWAP1 PUSH2 0x3DF0 JUMP JUMPDEST DUP1 ISZERO PUSH2 0xA7B JUMPI DUP1 PUSH1 0x1F LT PUSH2 0xA52 JUMPI PUSH2 0x100 DUP1 DUP4 SLOAD DIV MUL DUP4 MSTORE SWAP2 PUSH1 0x20 ADD SWAP2 PUSH2 0xA7B JUMP JUMPDEST DUP3 ADD SWAP2 SWAP1 PUSH0 MSTORE PUSH1 0x20 PUSH0 KECCAK256 SWAP1 JUMPDEST DUP2 SLOAD DUP2 MSTORE SWAP1 PUSH1 0x1 ADD SWAP1 PUSH1 0x20 ADD DUP1 DUP4 GT PUSH2 0xA5E JUMPI DUP3 SWAP1 SUB PUSH1 0x1F AND DUP3 ADD SWAP2 JUMPDEST POP POP POP POP POP SWAP1 POP SWAP1 JUMP JUMPDEST PUSH0 DUP1 PUSH2 0xA8F PUSH2 0x18DF JUMP JUMPDEST SWAP1 POP PUSH2 0xA9C DUP2 DUP6 DUP6 PUSH2 0x18E6 JUMP JUMPDEST PUSH1 0x1 SWAP2 POP POP SWAP3 SWAP2 POP POP JUMP JUMPDEST PUSH2 0xAAF PUSH2 0x2F0B JUMP JUMPDEST PUSH1 0x60 PUSH2 0xAB9 PUSH2 0x2F23 JUMP JUMPDEST PUSH0 DUP1 ADDRESS PUSH20 0xFFFFFFFFFFFFFFFFFFFFFFFFFFFFFFFFFFFFFFFF AND PUSH4 0xFC0C546A PUSH1 0x40 MLOAD DUP2 PUSH4 0xFFFFFFFF AND PUSH1 0xE0 SHL DUP2 MSTORE PUSH1 0x4 ADD PUSH1 0x20 PUSH1 0x40 MLOAD DUP1 DUP4 SUB DUP2 DUP7 GAS STATICCALL ISZERO DUP1 ISZERO PUSH2 0xB04 JUMPI RETURNDATASIZE PUSH0 DUP1 RETURNDATACOPY RETURNDATASIZE PUSH0 REVERT JUMPDEST POP POP POP POP PUSH1 0x40 MLOAD RETURNDATASIZE PUSH1 0x1F NOT PUSH1 0x1F DUP3 ADD AND DUP3 ADD DUP1 PUSH1 0x40 MSTORE POP DUP2 ADD SWAP1 PUSH2 0xB28 SWAP2 SWAP1 PUSH2 0x3E34 JUMP JUMPDEST PUSH20 0xFFFFFFFFFFFFFFFFFFFFFFFFFFFFFFFFFFFFFFFF AND PUSH4 0x18160DDD PUSH1 0x40 MLOAD DUP2 PUSH4 0xFFFFFFFF AND PUSH1 0xE0 SHL DUP2 MSTORE PUSH1 0x4 ADD PUSH1 0x20 PUSH1 0x40 MLOAD DUP1 DUP4 SUB DUP2 DUP7 GAS STATICCALL ISZERO DUP1 ISZERO PUSH2 0xB70 JUMPI RETURNDATASIZE PUSH0 DUP1 RETURNDATACOPY RETURNDATASIZE PUSH0 REVERT JUMPDEST POP POP POP POP PUSH1 0x40 MLOAD RETURNDATASIZE PUSH1 0x1F NOT PUSH1 0x1F DUP3 ADD AND DUP3 ADD DUP1 PUSH1 0x40 MSTORE POP DUP2 ADD SWAP1 PUSH2 0xB94 SWAP2 SWAP1 PUSH2 0x3E73 JUMP JUMPDEST SWAP1 POP PUSH1 0x40 MLOAD DUP1 PUSH1 0x40 ADD PUSH1 0x40 MSTORE DUP1 DUP4 DUP2 MSTORE PUSH1 0x20 ADD DUP3 DUP2 MSTORE POP SWAP5 POP PUSH0 PUSH8 0xFFFFFFFFFFFFFFFF DUP2 GT ISZERO PUSH2 0xBC7 JUMPI PUSH2 0xBC6 PUSH2 0x3E9E JUMP JUMPDEST JUMPDEST PUSH1 0x40 MLOAD SWAP1 DUP1 DUP3 MSTORE DUP1 PUSH1 0x20 MUL PUSH1 0x20 ADD DUP3 ADD PUSH1 0x40 MSTORE DUP1 ISZERO PUSH2 0xC00 JUMPI DUP2 PUSH1 0x20 ADD JUMPDEST PUSH2 0xBED PUSH2 0x2F3B JUMP JUMPDEST DUP2 MSTORE PUSH1 0x20 ADD SWAP1 PUSH1 0x1 SWAP1 SUB SWAP1 DUP2 PUSH2 0xBE5 JUMPI SWAP1 POP JUMPDEST POP SWAP4 POP PUSH0 DUP1 PUSH2 0xC29 DUP9 PUSH1 0x40 ADD CALLDATALOAD DUP10 PUSH1 0x60 ADD CALLDATALOAD DUP11 PUSH0 ADD PUSH1 0x20 DUP2 ADD SWAP1 PUSH2 0xC24 SWAP2 SWAP1 PUSH2 0x3ABA JUMP JUMPDEST PUSH2 0x18F8 JUMP JUMPDEST SWAP2 POP SWAP2 POP PUSH1 0x40 MLOAD DUP1 PUSH1 0x40 ADD PUSH1 0x40 MSTORE DUP1 DUP4 DUP2 MSTORE PUSH1 0x20 ADD DUP3 DUP2 MSTORE POP SWAP5 POP POP POP POP POP SWAP2 SWAP4 SWAP1 SWAP3 POP JUMP JUMPDEST PUSH1 0x4 PUSH0 SWAP1 SLOAD SWAP1 PUSH2 0x100 EXP SWAP1 DIV PUSH20 0xFFFFFFFFFFFFFFFFFFFFFFFFFFFFFFFFFFFFFFFF AND DUP2 JUMP JUMPDEST CALLER PUSH20 0xFFFFFFFFFFFFFFFFFFFFFFFFFFFFFFFFFFFFFFFF AND PUSH32 0x0 PUSH20 0xFFFFFFFFFFFFFFFFFFFFFFFFFFFFFFFFFFFFFFFF AND EQ PUSH2 0xD04 JUMPI CALLER PUSH1 0x40 MLOAD PUSH32 0x91AC5E4F00000000000000000000000000000000000000000000000000000000 DUP2 MSTORE PUSH1 0x4 ADD PUSH2 0xCFB SWAP2 SWAP1 PUSH2 0x33C9 JUMP JUMPDEST PUSH1 0x40 MLOAD DUP1 SWAP2 SUB SWAP1 REVERT JUMPDEST DUP7 PUSH1 0x20 ADD CALLDATALOAD PUSH2 0xD23 DUP9 PUSH0 ADD PUSH1 0x20 DUP2 ADD SWAP1 PUSH2 0xD1E SWAP2 SWAP1 PUSH2 0x3ABA JUMP JUMPDEST PUSH2 0x1957 JUMP JUMPDEST EQ PUSH2 0xD7C JUMPI DUP7 PUSH0 ADD PUSH1 0x20 DUP2 ADD SWAP1 PUSH2 0xD3A SWAP2 SWAP1 PUSH2 0x3ABA JUMP JUMPDEST DUP8 PUSH1 0x20 ADD CALLDATALOAD PUSH1 0x40 MLOAD PUSH32 0xC26BEBCC00000000000000000000000000000000000000000000000000000000 DUP2 MSTORE PUSH1 0x4 ADD PUSH2 0xD73 SWAP3 SWAP2 SWAP1 PUSH2 0x3EDA JUMP JUMPDEST PUSH1 0x40 MLOAD DUP1 SWAP2 SUB SWAP1 REVERT JUMPDEST PUSH2 0xD8B DUP8 DUP8 DUP8 DUP8 DUP8 DUP8 DUP8 PUSH2 0x19C8 JUMP JUMPDEST POP POP POP POP POP POP POP JUMP JUMPDEST PUSH1 0x2 DUP2 JUMP JUMPDEST PUSH0 DUP1 PUSH32 0x2E49C2C00000000000000000000000000000000000000000000000000000000 PUSH1 0x1 SWAP2 POP SWAP2 POP SWAP1 SWAP2 JUMP JUMPDEST PUSH0 DUP1 PUSH1 0x1 PUSH1 0x2 SWAP2 POP SWAP2 POP SWAP1 SWAP2 JUMP JUMPDEST PUSH0 PUSH1 0x7 SLOAD SWAP1 POP SWAP1 JUMP JUMPDEST PUSH1 0x1 DUP2 JUMP JUMPDEST PUSH0 DUP1 PUSH2 0xDEC PUSH2 0x18DF JUMP JUMPDEST SWAP1 POP PUSH2 0xDF9 DUP6 DUP3 DUP6 PUSH2 0x1B52 JUMP JUMPDEST PUSH2 0xE04 DUP6 DUP6 DUP6 PUSH2 0x1BE5 JUMP JUMPDEST PUSH1 0x1 SWAP2 POP POP SWAP4 SWAP3 POP POP POP JUMP JUMPDEST PUSH0 PUSH1 0x12 SWAP1 POP SWAP1 JUMP JUMPDEST PUSH2 0xE20 PUSH2 0x1CD5 JUMP JUMPDEST PUSH2 0xE2A DUP3 DUP3 PUSH2 0x1D5C JUMP JUMPDEST POP POP JUMP JUMPDEST PUSH2 0xE36 PUSH2 0x2F54 JUMP JUMPDEST PUSH0 PUSH2 0xE5B DUP5 PUSH1 0x40 ADD CALLDATALOAD DUP6 PUSH1 0x60 ADD CALLDATALOAD DUP7 PUSH0 ADD PUSH1 0x20 DUP2 ADD SWAP1 PUSH2 0xE56 SWAP2 SWAP1 PUSH2 0x3ABA JUMP JUMPDEST PUSH2 0x18F8 JUMP JUMPDEST SWAP2 POP POP PUSH0 DUP1 PUSH2 0xE6A DUP7 DUP5 PUSH2 0x1DBB JUMP JUMPDEST SWAP2 POP SWAP2 POP PUSH2 0xE8B DUP7 PUSH0 ADD PUSH1 0x20 DUP2 ADD SWAP1 PUSH2 0xE83 SWAP2 SWAP1 PUSH2 0x3ABA JUMP JUMPDEST DUP4 DUP4 DUP9 PUSH2 0x1F4C JUMP JUMPDEST SWAP4 POP POP POP POP SWAP3 SWAP2 POP POP JUMP JUMPDEST PUSH0 ADDRESS SWAP1 POP SWAP1 JUMP JUMPDEST PUSH1 0x3 PUSH1 0x20 MSTORE DUP2 PUSH0 MSTORE PUSH1 0x40 PUSH0 KECCAK256 PUSH1 0x20 MSTORE DUP1 PUSH0 MSTORE PUSH1 0x40 PUSH0 KECCAK256 PUSH0 SWAP2 POP SWAP2 POP POP DUP1 SLOAD PUSH2 0xEC4 SWAP1 PUSH2 0x3DF0 JUMP JUMPDEST DUP1 PUSH1 0x1F ADD PUSH1 0x20 DUP1 SWAP2 DIV MUL PUSH1 0x20 ADD PUSH1 0x40 MLOAD SWAP1 DUP2 ADD PUSH1 0x40 MSTORE DUP1 SWAP3 SWAP2 SWAP1 DUP2 DUP2 MSTORE PUSH1 0x20 ADD DUP3 DUP1 SLOAD PUSH2 0xEF0 SWAP1 PUSH2 0x3DF0 JUMP JUMPDEST DUP1 ISZERO PUSH2 0xF3B JUMPI DUP1 PUSH1 0x1F LT PUSH2 0xF12 JUMPI PUSH2 0x100 DUP1 DUP4 SLOAD DIV MUL DUP4 MSTORE SWAP2 PUSH1 0x20 ADD SWAP2 PUSH2 0xF3B JUMP JUMPDEST DUP3 ADD SWAP2 SWAP1 PUSH0 MSTORE PUSH1 0x20 PUSH0 KECCAK256 SWAP1 JUMPDEST DUP2 SLOAD DUP2 MSTORE SWAP1 PUSH1 0x1 ADD SWAP1 PUSH1 0x20 ADD DUP1 DUP4 GT PUSH2 0xF1E JUMPI DUP3 SWAP1 SUB PUSH1 0x1F AND DUP3 ADD SWAP2 JUMPDEST POP POP POP POP POP DUP2 JUMP JUMPDEST PUSH0 DUP2 PUSH1 0x1 PUSH0 DUP6 PUSH4 0xFFFFFFFF AND PUSH4 0xFFFFFFFF AND DUP2 MSTORE PUSH1 0x20 ADD SWAP1 DUP2 MSTORE PUSH1 0x20 ADD PUSH0 KECCAK256 SLOAD EQ SWAP1 POP SWAP3 SWAP2 POP POP JUMP JUMPDEST PUSH32 0x0 DUP2 JUMP JUMPDEST PUSH2 0xF98 PUSH2 0x1CD5 JUMP JUMPDEST DUP1 PUSH1 0x4 PUSH0 PUSH2 0x100 EXP DUP2 SLOAD DUP2 PUSH20 0xFFFFFFFFFFFFFFFFFFFFFFFFFFFFFFFFFFFFFFFF MUL NOT AND SWAP1 DUP4 PUSH20 0xFFFFFFFFFFFFFFFFFFFFFFFFFFFFFFFFFFFFFFFF AND MUL OR SWAP1 SSTORE POP PUSH32 0xF0BE4F1E87349231D80C36B33F9E8639658EEAF474014DEE15A3E6A4D4414197 DUP2 PUSH1 0x40 MLOAD PUSH2 0x1007 SWAP2 SWAP1 PUSH2 0x33C9 JUMP JUMPDEST PUSH1 0x40 MLOAD DUP1 SWAP2 SUB SWAP1 LOG1 POP JUMP JUMPDEST PUSH0 PUSH1 0x5 PUSH0 DUP4 PUSH20 0xFFFFFFFFFFFFFFFFFFFFFFFFFFFFFFFFFFFFFFFF AND PUSH20 0xFFFFFFFFFFFFFFFFFFFFFFFFFFFFFFFFFFFFFFFF AND DUP2 MSTORE PUSH1 0x20 ADD SWAP1 DUP2 MSTORE PUSH1 0x20 ADD PUSH0 KECCAK256 SLOAD SWAP1 POP SWAP2 SWAP1 POP JUMP JUMPDEST PUSH2 0x1060 PUSH2 0x1CD5 JUMP JUMPDEST PUSH2 0x1069 PUSH0 PUSH2 0x202D JUMP JUMPDEST JUMP JUMPDEST PUSH0 SWAP3 SWAP2 POP POP JUMP JUMPDEST PUSH0 ADDRESS PUSH20 0xFFFFFFFFFFFFFFFFFFFFFFFFFFFFFFFFFFFFFFFF AND DUP3 PUSH20 0xFFFFFFFFFFFFFFFFFFFFFFFFFFFFFFFFFFFFFFFF AND EQ SWAP1 POP SWAP5 SWAP4 POP POP POP POP JUMP JUMPDEST PUSH0 PUSH1 0x6 SWAP1 POP SWAP1 JUMP JUMPDEST PUSH0 DUP1 PUSH0 SWAP1 SLOAD SWAP1 PUSH2 0x100 EXP SWAP1 DIV PUSH20 0xFFFFFFFFFFFFFFFFFFFFFFFFFFFFFFFFFFFFFFFF AND SWAP1 POP SWAP1 JUMP JUMPDEST PUSH1 0x60 PUSH1 0x9 DUP1 SLOAD PUSH2 0x10EA SWAP1 PUSH2 0x3DF0 JUMP JUMPDEST DUP1 PUSH1 0x1F ADD PUSH1 0x20 DUP1 SWAP2 DIV MUL PUSH1 0x20 ADD PUSH1 0x40 MLOAD SWAP1 DUP2 ADD PUSH1 0x40 MSTORE DUP1 SWAP3 SWAP2 SWAP1 DUP2 DUP2 MSTORE PUSH1 0x20 ADD DUP3 DUP1 SLOAD PUSH2 0x1116 SWAP1 PUSH2 0x3DF0 JUMP JUMPDEST DUP1 ISZERO PUSH2 0x1161 JUMPI DUP1 PUSH1 0x1F LT PUSH2 0x1138 JUMPI PUSH2 0x100 DUP1 DUP4 SLOAD DIV MUL DUP4 MSTORE SWAP2 PUSH1 0x20 ADD SWAP2 PUSH2 0x1161 JUMP JUMPDEST DUP3 ADD SWAP2 SWAP1 PUSH0 MSTORE PUSH1 0x20 PUSH0 KECCAK256 SWAP1 JUMPDEST DUP2 SLOAD DUP2 MSTORE SWAP1 PUSH1 0x1 ADD SWAP1 PUSH1 0x20 ADD DUP1 DUP4 GT PUSH2 0x1144 JUMPI DUP3 SWAP1 SUB PUSH1 0x1F AND DUP3 ADD SWAP2 JUMPDEST POP POP POP POP POP SWAP1 POP SWAP1 JUMP JUMPDEST PUSH32 0x0 DUP2 JUMP JUMPDEST PUSH0 SWAP1 JUMP JUMPDEST PUSH0 DUP1 PUSH2 0x119D PUSH2 0x18DF JUMP JUMPDEST SWAP1 POP PUSH2 0x11AA DUP2 DUP6 DUP6 PUSH2 0x1BE5 JUMP JUMPDEST PUSH1 0x1 SWAP2 POP POP SWAP3 SWAP2 POP POP JUMP JUMPDEST PUSH1 0x2 PUSH0 SWAP1 SLOAD SWAP1 PUSH2 0x100 EXP SWAP1 DIV PUSH20 0xFFFFFFFFFFFFFFFFFFFFFFFFFFFFFFFFFFFFFFFF AND DUP2 JUMP JUMPDEST PUSH2 0x11E2 PUSH2 0x1CD5 JUMP JUMPDEST PUSH2 0x11F7 DUP3 DUP3 SWAP1 PUSH2 0x11F2 SWAP2 SWAP1 PUSH2 0x4132 JUMP JUMPDEST PUSH2 0x20EE JUMP JUMPDEST POP POP JUMP JUMPDEST PUSH1 0x1 PUSH1 0x20 MSTORE DUP1 PUSH0 MSTORE PUSH1 0x40 PUSH0 KECCAK256 PUSH0 SWAP2 POP SWAP1 POP SLOAD DUP2 JUMP JUMPDEST PUSH1 0x60 PUSH0 PUSH1 0x3 PUSH0 DUP8 PUSH4 0xFFFFFFFF AND PUSH4 0xFFFFFFFF AND DUP2 MSTORE PUSH1 0x20 ADD SWAP1 DUP2 MSTORE PUSH1 0x20 ADD PUSH0 KECCAK256 PUSH0 DUP7 PUSH2 0xFFFF AND PUSH2 0xFFFF AND DUP2 MSTORE PUSH1 0x20 ADD SWAP1 DUP2 MSTORE PUSH1 0x20 ADD PUSH0 KECCAK256 DUP1 SLOAD PUSH2 0x1252 SWAP1 PUSH2 0x3DF0 JUMP JUMPDEST DUP1 PUSH1 0x1F ADD PUSH1 0x20 DUP1 SWAP2 DIV MUL PUSH1 0x20 ADD PUSH1 0x40 MLOAD SWAP1 DUP2 ADD PUSH1 0x40 MSTORE DUP1 SWAP3 SWAP2 SWAP1 DUP2 DUP2 MSTORE PUSH1 0x20 ADD DUP3 DUP1 SLOAD PUSH2 0x127E SWAP1 PUSH2 0x3DF0 JUMP JUMPDEST DUP1 ISZERO PUSH2 0x12C9 JUMPI DUP1 PUSH1 0x1F LT PUSH2 0x12A0 JUMPI PUSH2 0x100 DUP1 DUP4 SLOAD DIV MUL DUP4 MSTORE SWAP2 PUSH1 0x20 ADD SWAP2 PUSH2 0x12C9 JUMP JUMPDEST DUP3 ADD SWAP2 SWAP1 PUSH0 MSTORE PUSH1 0x20 PUSH0 KECCAK256 SWAP1 JUMPDEST DUP2 SLOAD DUP2 MSTORE SWAP1 PUSH1 0x1 ADD SWAP1 PUSH1 0x20 ADD DUP1 DUP4 GT PUSH2 0x12AC JUMPI DUP3 SWAP1 SUB PUSH1 0x1F AND DUP3 ADD SWAP2 JUMPDEST POP POP POP POP POP SWAP1 POP PUSH0 DUP2 MLOAD SUB PUSH2 0x1324 JUMPI DUP4 DUP4 DUP1 DUP1 PUSH1 0x1F ADD PUSH1 0x20 DUP1 SWAP2 DIV MUL PUSH1 0x20 ADD PUSH1 0x40 MLOAD SWAP1 DUP2 ADD PUSH1 0x40 MSTORE DUP1 SWAP4 SWAP3 SWAP2 SWAP1 DUP2 DUP2 MSTORE PUSH1 0x20 ADD DUP4 DUP4 DUP1 DUP3 DUP5 CALLDATACOPY PUSH0 DUP2 DUP5 ADD MSTORE PUSH1 0x1F NOT PUSH1 0x1F DUP3 ADD AND SWAP1 POP DUP1 DUP4 ADD SWAP3 POP POP POP POP POP POP POP SWAP2 POP POP PUSH2 0x140A JUMP JUMPDEST PUSH0 DUP5 DUP5 SWAP1 POP SUB PUSH2 0x1337 JUMPI DUP1 SWAP2 POP POP PUSH2 0x140A JUMP JUMPDEST PUSH1 0x2 DUP5 DUP5 SWAP1 POP LT PUSH2 0x13CB JUMPI PUSH2 0x138E DUP5 DUP5 DUP1 DUP1 PUSH1 0x1F ADD PUSH1 0x20 DUP1 SWAP2 DIV MUL PUSH1 0x20 ADD PUSH1 0x40 MLOAD SWAP1 DUP2 ADD PUSH1 0x40 MSTORE DUP1 SWAP4 SWAP3 SWAP2 SWAP1 DUP2 DUP2 MSTORE PUSH1 0x20 ADD DUP4 DUP4 DUP1 DUP3 DUP5 CALLDATACOPY PUSH0 DUP2 DUP5 ADD MSTORE PUSH1 0x1F NOT PUSH1 0x1F DUP3 ADD AND SWAP1 POP DUP1 DUP4 ADD SWAP3 POP POP POP POP POP POP POP PUSH2 0x2203 JUMP JUMPDEST DUP1 DUP5 DUP5 PUSH1 0x2 SWAP1 DUP1 SWAP3 PUSH2 0x13A2 SWAP4 SWAP3 SWAP2 SWAP1 PUSH2 0x414E JUMP JUMPDEST PUSH1 0x40 MLOAD PUSH1 0x20 ADD PUSH2 0x13B4 SWAP4 SWAP3 SWAP2 SWAP1 PUSH2 0x41E6 JUMP JUMPDEST PUSH1 0x40 MLOAD PUSH1 0x20 DUP2 DUP4 SUB SUB DUP2 MSTORE SWAP1 PUSH1 0x40 MSTORE SWAP2 POP POP PUSH2 0x140A JUMP JUMPDEST DUP4 DUP4 PUSH1 0x40 MLOAD PUSH32 0x9A6D49CD00000000000000000000000000000000000000000000000000000000 DUP2 MSTORE PUSH1 0x4 ADD PUSH2 0x1401 SWAP3 SWAP2 SWAP1 PUSH2 0x4237 JUMP JUMPDEST PUSH1 0x40 MLOAD DUP1 SWAP2 SUB SWAP1 REVERT JUMPDEST SWAP5 SWAP4 POP POP POP POP JUMP JUMPDEST PUSH0 JUMPDEST DUP3 DUP3 SWAP1 POP DUP2 LT ISZERO PUSH2 0x1531 JUMPI CALLDATASIZE DUP4 DUP4 DUP4 DUP2 DUP2 LT PUSH2 0x1433 JUMPI PUSH2 0x1432 PUSH2 0x4259 JUMP JUMPDEST JUMPDEST SWAP1 POP PUSH1 0x20 MUL DUP2 ADD SWAP1 PUSH2 0x1445 SWAP2 SWAP1 PUSH2 0x4292 JUMP JUMPDEST SWAP1 POP PUSH2 0x146A DUP2 PUSH0 ADD PUSH0 ADD PUSH1 0x20 DUP2 ADD SWAP1 PUSH2 0x145E SWAP2 SWAP1 PUSH2 0x3ABA JUMP JUMPDEST DUP3 PUSH0 ADD PUSH1 0x20 ADD CALLDATALOAD PUSH2 0xF43 JUMP JUMPDEST PUSH2 0x1474 JUMPI POP PUSH2 0x1524 JUMP JUMPDEST ADDRESS PUSH20 0xFFFFFFFFFFFFFFFFFFFFFFFFFFFFFFFFFFFFFFFF AND PUSH4 0xD045A0DC DUP3 PUSH1 0xC0 ADD CALLDATALOAD DUP4 PUSH0 ADD DUP5 PUSH1 0xA0 ADD CALLDATALOAD DUP6 DUP1 PUSH2 0x100 ADD SWAP1 PUSH2 0x14AE SWAP2 SWAP1 PUSH2 0x42BA JUMP JUMPDEST DUP8 PUSH1 0xE0 ADD PUSH1 0x20 DUP2 ADD SWAP1 PUSH2 0x14C1 SWAP2 SWAP1 PUSH2 0x3965 JUMP JUMPDEST DUP9 DUP1 PUSH2 0x120 ADD SWAP1 PUSH2 0x14D2 SWAP2 SWAP1 PUSH2 0x42BA JUMP JUMPDEST PUSH1 0x40 MLOAD DUP10 PUSH4 0xFFFFFFFF AND PUSH1 0xE0 SHL DUP2 MSTORE PUSH1 0x4 ADD PUSH2 0x14F4 SWAP8 SWAP7 SWAP6 SWAP5 SWAP4 SWAP3 SWAP2 SWAP1 PUSH2 0x43EF JUMP JUMPDEST PUSH0 PUSH1 0x40 MLOAD DUP1 DUP4 SUB DUP2 DUP6 DUP9 DUP1 EXTCODESIZE ISZERO DUP1 ISZERO PUSH2 0x150B JUMPI PUSH0 DUP1 REVERT JUMPDEST POP GAS CALL ISZERO DUP1 ISZERO PUSH2 0x151D JUMPI RETURNDATASIZE PUSH0 DUP1 RETURNDATACOPY RETURNDATASIZE PUSH0 REVERT JUMPDEST POP POP POP POP POP POP JUMPDEST DUP1 DUP1 PUSH1 0x1 ADD SWAP2 POP POP PUSH2 0x1414 JUMP JUMPDEST POP CALLER PUSH20 0xFFFFFFFFFFFFFFFFFFFFFFFFFFFFFFFFFFFFFFFF AND PUSH4 0x8E9E7099 PUSH1 0x40 MLOAD DUP2 PUSH4 0xFFFFFFFF AND PUSH1 0xE0 SHL DUP2 MSTORE PUSH1 0x4 ADD PUSH0 PUSH1 0x40 MLOAD DUP1 DUP4 SUB DUP2 DUP7 GAS STATICCALL ISZERO DUP1 ISZERO PUSH2 0x157A JUMPI RETURNDATASIZE PUSH0 DUP1 RETURNDATACOPY RETURNDATASIZE PUSH0 REVERT JUMPDEST POP POP POP POP PUSH1 0x40 MLOAD RETURNDATASIZE PUSH0 DUP3 RETURNDATACOPY RETURNDATASIZE PUSH1 0x1F NOT PUSH1 0x1F DUP3 ADD AND DUP3 ADD DUP1 PUSH1 0x40 MSTORE POP DUP2 ADD SWAP1 PUSH2 0x15A2 SWAP2 SWAP1 PUSH2 0x44C0 JUMP JUMPDEST PUSH1 0x40 MLOAD PUSH32 0x8351EEA700000000000000000000000000000000000000000000000000000000 DUP2 MSTORE PUSH1 0x4 ADD PUSH2 0x15D5 SWAP2 SWAP1 PUSH2 0x38D1 JUMP JUMPDEST PUSH1 0x40 MLOAD DUP1 SWAP2 SUB SWAP1 REVERT JUMPDEST PUSH2 0x15E6 PUSH2 0x2F6C JUMP JUMPDEST PUSH2 0x15EE PUSH2 0x2F23 JUMP JUMPDEST PUSH2 0x15F9 DUP6 DUP6 DUP6 PUSH2 0x225C JUMP JUMPDEST SWAP2 POP SWAP2 POP SWAP4 POP SWAP4 SWAP2 POP POP JUMP JUMPDEST PUSH2 0x160D PUSH2 0x1CD5 JUMP JUMPDEST PUSH32 0x0 PUSH20 0xFFFFFFFFFFFFFFFFFFFFFFFFFFFFFFFFFFFFFFFF AND PUSH4 0xCA5EB5E1 DUP3 PUSH1 0x40 MLOAD DUP3 PUSH4 0xFFFFFFFF AND PUSH1 0xE0 SHL DUP2 MSTORE PUSH1 0x4 ADD PUSH2 0x1666 SWAP2 SWAP1 PUSH2 0x33C9 JUMP JUMPDEST PUSH0 PUSH1 0x40 MLOAD DUP1 DUP4 SUB DUP2 PUSH0 DUP8 DUP1 EXTCODESIZE ISZERO DUP1 ISZERO PUSH2 0x167D JUMPI PUSH0 DUP1 REVERT JUMPDEST POP GAS CALL ISZERO DUP1 ISZERO PUSH2 0x168F JUMPI RETURNDATASIZE PUSH0 DUP1 RETURNDATACOPY RETURNDATASIZE PUSH0 REVERT JUMPDEST POP POP POP POP POP JUMP JUMPDEST ADDRESS PUSH20 0xFFFFFFFFFFFFFFFFFFFFFFFFFFFFFFFFFFFFFFFF AND CALLER PUSH20 0xFFFFFFFFFFFFFFFFFFFFFFFFFFFFFFFFFFFFFFFF AND EQ PUSH2 0x16FB JUMPI PUSH1 0x40 MLOAD PUSH32 0x14D4A4E800000000000000000000000000000000000000000000000000000000 DUP2 MSTORE PUSH1 0x4 ADD PUSH1 0x40 MLOAD DUP1 SWAP2 SUB SWAP1 REVERT JUMPDEST PUSH2 0x170A DUP8 DUP8 DUP8 DUP8 DUP8 DUP8 DUP8 PUSH2 0x2361 JUMP JUMPDEST POP POP POP POP POP POP POP JUMP JUMPDEST PUSH2 0x171B PUSH2 0x1CD5 JUMP JUMPDEST DUP1 PUSH1 0x2 PUSH0 PUSH2 0x100 EXP DUP2 SLOAD DUP2 PUSH20 0xFFFFFFFFFFFFFFFFFFFFFFFFFFFFFFFFFFFFFFFF MUL NOT AND SWAP1 DUP4 PUSH20 0xFFFFFFFFFFFFFFFFFFFFFFFFFFFFFFFFFFFFFFFF AND MUL OR SWAP1 SSTORE POP PUSH32 0xD48D879CEF83A1C0BDDA516F27B13DDB1B3F8BBAC1C9E1511BB2A659C2427760 DUP2 PUSH1 0x40 MLOAD PUSH2 0x178A SWAP2 SWAP1 PUSH2 0x33C9 JUMP JUMPDEST PUSH1 0x40 MLOAD DUP1 SWAP2 SUB SWAP1 LOG1 POP JUMP JUMPDEST PUSH0 PUSH1 0x6 PUSH0 DUP5 PUSH20 0xFFFFFFFFFFFFFFFFFFFFFFFFFFFFFFFFFFFFFFFF AND PUSH20 0xFFFFFFFFFFFFFFFFFFFFFFFFFFFFFFFFFFFFFFFF AND DUP2 MSTORE PUSH1 0x20 ADD SWAP1 DUP2 MSTORE PUSH1 0x20 ADD PUSH0 KECCAK256 PUSH0 DUP4 PUSH20 0xFFFFFFFFFFFFFFFFFFFFFFFFFFFFFFFFFFFFFFFF AND PUSH20 0xFFFFFFFFFFFFFFFFFFFFFFFFFFFFFFFFFFFFFFFF AND DUP2 MSTORE PUSH1 0x20 ADD SWAP1 DUP2 MSTORE PUSH1 0x20 ADD PUSH0 KECCAK256 SLOAD SWAP1 POP SWAP3 SWAP2 POP POP JUMP JUMPDEST PUSH2 0x181F PUSH2 0x1CD5 JUMP JUMPDEST PUSH0 PUSH20 0xFFFFFFFFFFFFFFFFFFFFFFFFFFFFFFFFFFFFFFFF AND DUP2 PUSH20 0xFFFFFFFFFFFFFFFFFFFFFFFFFFFFFFFFFFFFFFFF AND SUB PUSH2 0x188F JUMPI PUSH0 PUSH1 0x40 MLOAD PUSH32 0x1E4FBDF700000000000000000000000000000000000000000000000000000000 DUP2 MSTORE PUSH1 0x4 ADD PUSH2 0x1886 SWAP2 SWAP1 PUSH2 0x33C9 JUMP JUMPDEST PUSH1 0x40 MLOAD DUP1 SWAP2 SUB SWAP1 REVERT JUMPDEST PUSH2 0x1898 DUP2 PUSH2 0x202D JUMP JUMPDEST POP JUMP JUMPDEST PUSH0 ADDRESS SWAP1 POP SWAP1 JUMP JUMPDEST PUSH0 DUP2 PUSH1 0x20 ADD CALLDATALOAD PUSH1 0x1 PUSH0 DUP5 PUSH0 ADD PUSH1 0x20 DUP2 ADD SWAP1 PUSH2 0x18BD SWAP2 SWAP1 PUSH2 0x3ABA JUMP JUMPDEST PUSH4 0xFFFFFFFF AND PUSH4 0xFFFFFFFF AND DUP2 MSTORE PUSH1 0x20 ADD SWAP1 DUP2 MSTORE PUSH1 0x20 ADD PUSH0 KECCAK256 SLOAD EQ SWAP1 POP SWAP2 SWAP1 POP JUMP JUMPDEST PUSH0 CALLER SWAP1 POP SWAP1 JUMP JUMPDEST PUSH2 0x18F3 DUP4 DUP4 DUP4 PUSH1 0x1 PUSH2 0x2379 JUMP JUMPDEST POP POP POP JUMP JUMPDEST PUSH0 DUP1 PUSH2 0x1903 DUP6 PUSH2 0x2548 JUMP JUMPDEST SWAP2 POP DUP2 SWAP1 POP DUP4 DUP2 LT ISZERO PUSH2 0x194F JUMPI DUP1 DUP5 PUSH1 0x40 MLOAD PUSH32 0x71C4EFED00000000000000000000000000000000000000000000000000000000 DUP2 MSTORE PUSH1 0x4 ADD PUSH2 0x1946 SWAP3 SWAP2 SWAP1 PUSH2 0x4507 JUMP JUMPDEST PUSH1 0x40 MLOAD DUP1 SWAP2 SUB SWAP1 REVERT JUMPDEST SWAP4 POP SWAP4 SWAP2 POP POP JUMP JUMPDEST PUSH0 DUP1 PUSH1 0x1 PUSH0 DUP5 PUSH4 0xFFFFFFFF AND PUSH4 0xFFFFFFFF AND DUP2 MSTORE PUSH1 0x20 ADD SWAP1 DUP2 MSTORE PUSH1 0x20 ADD PUSH0 KECCAK256 SLOAD SWAP1 POP PUSH0 DUP1 SHL DUP2 SUB PUSH2 0x19BF JUMPI DUP3 PUSH1 0x40 MLOAD PUSH32 0xF6FF4FB700000000000000000000000000000000000000000000000000000000 DUP2 MSTORE PUSH1 0x4 ADD PUSH2 0x19B6 SWAP2 SWAP1 PUSH2 0x452E JUMP JUMPDEST PUSH1 0x40 MLOAD DUP1 SWAP2 SUB SWAP1 REVERT JUMPDEST DUP1 SWAP2 POP POP SWAP2 SWAP1 POP JUMP JUMPDEST PUSH0 PUSH2 0x19DB PUSH2 0x19D6 DUP8 DUP8 PUSH2 0x25A7 JUMP JUMPDEST PUSH2 0x25D1 JUMP JUMPDEST SWAP1 POP PUSH0 PUSH2 0x1A0B DUP3 PUSH2 0x19F4 PUSH2 0x19EF DUP11 DUP11 PUSH2 0x25DC JUMP JUMPDEST PUSH2 0x260D JUMP JUMPDEST DUP12 PUSH0 ADD PUSH1 0x20 DUP2 ADD SWAP1 PUSH2 0x1A06 SWAP2 SWAP1 PUSH2 0x3ABA JUMP JUMPDEST PUSH2 0x264B JUMP JUMPDEST SWAP1 POP PUSH2 0x1A17 DUP8 DUP8 PUSH2 0x2699 JUMP JUMPDEST ISZERO PUSH2 0x1AE5 JUMPI PUSH0 PUSH2 0x1A55 DUP11 PUSH1 0x40 ADD PUSH1 0x20 DUP2 ADD SWAP1 PUSH2 0x1A33 SWAP2 SWAP1 PUSH2 0x4547 JUMP JUMPDEST DUP12 PUSH0 ADD PUSH1 0x20 DUP2 ADD SWAP1 PUSH2 0x1A45 SWAP2 SWAP1 PUSH2 0x3ABA JUMP JUMPDEST DUP5 PUSH2 0x1A50 DUP13 DUP13 PUSH2 0x26AC JUMP JUMPDEST PUSH2 0x270E JUMP JUMPDEST SWAP1 POP PUSH32 0x0 PUSH20 0xFFFFFFFFFFFFFFFFFFFFFFFFFFFFFFFFFFFFFFFF AND PUSH4 0x7CB59012 DUP5 DUP12 PUSH0 DUP6 PUSH1 0x40 MLOAD DUP6 PUSH4 0xFFFFFFFF AND PUSH1 0xE0 SHL DUP2 MSTORE PUSH1 0x4 ADD PUSH2 0x1AB6 SWAP5 SWAP4 SWAP3 SWAP2 SWAP1 PUSH2 0x45AB JUMP JUMPDEST PUSH0 PUSH1 0x40 MLOAD DUP1 DUP4 SUB DUP2 PUSH0 DUP8 DUP1 EXTCODESIZE ISZERO DUP1 ISZERO PUSH2 0x1ACD JUMPI PUSH0 DUP1 REVERT JUMPDEST POP GAS CALL ISZERO DUP1 ISZERO PUSH2 0x1ADF JUMPI RETURNDATASIZE PUSH0 DUP1 RETURNDATACOPY RETURNDATASIZE PUSH0 REVERT JUMPDEST POP POP POP POP POP JUMPDEST DUP2 PUSH20 0xFFFFFFFFFFFFFFFFFFFFFFFFFFFFFFFFFFFFFFFF AND DUP9 PUSH32 0xEFED6D3500546B29533B128A29E3A94D70788727F0507505AC12EAF2E578FD9C DUP12 PUSH0 ADD PUSH1 0x20 DUP2 ADD SWAP1 PUSH2 0x1B30 SWAP2 SWAP1 PUSH2 0x3ABA JUMP JUMPDEST DUP5 PUSH1 0x40 MLOAD PUSH2 0x1B3F SWAP3 SWAP2 SWAP1 PUSH2 0x45F5 JUMP JUMPDEST PUSH1 0x40 MLOAD DUP1 SWAP2 SUB SWAP1 LOG3 POP POP POP POP POP POP POP POP POP JUMP JUMPDEST PUSH0 PUSH2 0x1B5D DUP5 DUP5 PUSH2 0x1795 JUMP JUMPDEST SWAP1 POP PUSH32 0xFFFFFFFFFFFFFFFFFFFFFFFFFFFFFFFFFFFFFFFFFFFFFFFFFFFFFFFFFFFFFFFF DUP2 LT ISZERO PUSH2 0x1BDF JUMPI DUP2 DUP2 LT ISZERO PUSH2 0x1BD0 JUMPI DUP3 DUP2 DUP4 PUSH1 0x40 MLOAD PUSH32 0xFB8F41B200000000000000000000000000000000000000000000000000000000 DUP2 MSTORE PUSH1 0x4 ADD PUSH2 0x1BC7 SWAP4 SWAP3 SWAP2 SWAP1 PUSH2 0x461C JUMP JUMPDEST PUSH1 0x40 MLOAD DUP1 SWAP2 SUB SWAP1 REVERT JUMPDEST PUSH2 0x1BDE DUP5 DUP5 DUP5 DUP5 SUB PUSH0 PUSH2 0x2379 JUMP JUMPDEST JUMPDEST POP POP POP POP JUMP JUMPDEST PUSH0 PUSH20 0xFFFFFFFFFFFFFFFFFFFFFFFFFFFFFFFFFFFFFFFF AND DUP4 PUSH20 0xFFFFFFFFFFFFFFFFFFFFFFFFFFFFFFFFFFFFFFFF AND SUB PUSH2 0x1C55 JUMPI PUSH0 PUSH1 0x40 MLOAD PUSH32 0x96C6FD1E00000000000000000000000000000000000000000000000000000000 DUP2 MSTORE PUSH1 0x4 ADD PUSH2 0x1C4C SWAP2 SWAP1 PUSH2 0x33C9 JUMP JUMPDEST PUSH1 0x40 MLOAD DUP1 SWAP2 SUB SWAP1 REVERT JUMPDEST PUSH0 PUSH20 0xFFFFFFFFFFFFFFFFFFFFFFFFFFFFFFFFFFFFFFFF AND DUP3 PUSH20 0xFFFFFFFFFFFFFFFFFFFFFFFFFFFFFFFFFFFFFFFF AND SUB PUSH2 0x1CC5 JUMPI PUSH0 PUSH1 0x40 MLOAD PUSH32 0xEC442F0500000000000000000000000000000000000000000000000000000000 DUP2 MSTORE PUSH1 0x4 ADD PUSH2 0x1CBC SWAP2 SWAP1 PUSH2 0x33C9 JUMP JUMPDEST PUSH1 0x40 MLOAD DUP1 SWAP2 SUB SWAP1 REVERT JUMPDEST PUSH2 0x1CD0 DUP4 DUP4 DUP4 PUSH2 0x2740 JUMP JUMPDEST POP POP POP JUMP JUMPDEST PUSH2 0x1CDD PUSH2 0x18DF JUMP JUMPDEST PUSH20 0xFFFFFFFFFFFFFFFFFFFFFFFFFFFFFFFFFFFFFFFF AND PUSH2 0x1CFB PUSH2 0x10B4 JUMP JUMPDEST PUSH20 0xFFFFFFFFFFFFFFFFFFFFFFFFFFFFFFFFFFFFFFFF AND EQ PUSH2 0x1D5A JUMPI PUSH2 0x1D1E PUSH2 0x18DF JUMP JUMPDEST PUSH1 0x40 MLOAD PUSH32 0x118CDAA700000000000000000000000000000000000000000000000000000000 DUP2 MSTORE PUSH1 0x4 ADD PUSH2 0x1D51 SWAP2 SWAP1 PUSH2 0x33C9 JUMP JUMPDEST PUSH1 0x40 MLOAD DUP1 SWAP2 SUB SWAP1 REVERT JUMPDEST JUMP JUMPDEST DUP1 PUSH1 0x1 PUSH0 DUP5 PUSH4 0xFFFFFFFF AND PUSH4 0xFFFFFFFF AND DUP2 MSTORE PUSH1 0x20 ADD SWAP1 DUP2 MSTORE PUSH1 0x20 ADD PUSH0 KECCAK256 DUP2 SWAP1 SSTORE POP PUSH32 0x238399D427B947898EDB290F5FF0F9109849B1C3BA196A42E35F00C50A54B98B DUP3 DUP3 PUSH1 0x40 MLOAD PUSH2 0x1DAF SWAP3 SWAP2 SWAP1 PUSH2 0x3EDA JUMP JUMPDEST PUSH1 0x40 MLOAD DUP1 SWAP2 SUB SWAP1 LOG1 POP POP JUMP JUMPDEST PUSH1 0x60 DUP1 PUSH0 PUSH2 0x1E27 DUP6 PUSH1 0x20 ADD CALLDATALOAD PUSH2 0x1DD0 DUP7 PUSH2 0x295C JUMP JUMPDEST DUP8 DUP1 PUSH1 0xA0 ADD SWAP1 PUSH2 0x1DE0 SWAP2 SWAP1 PUSH2 0x42BA JUMP JUMPDEST DUP1 DUP1 PUSH1 0x1F ADD PUSH1 0x20 DUP1 SWAP2 DIV MUL PUSH1 0x20 ADD PUSH1 0x40 MLOAD SWAP1 DUP2 ADD PUSH1 0x40 MSTORE DUP1 SWAP4 SWAP3 SWAP2 SWAP1 DUP2 DUP2 MSTORE PUSH1 0x20 ADD DUP4 DUP4 DUP1 DUP3 DUP5 CALLDATACOPY PUSH0 DUP2 DUP5 ADD MSTORE PUSH1 0x1F NOT PUSH1 0x1F DUP3 ADD AND SWAP1 POP DUP1 DUP4 ADD SWAP3 POP POP POP POP POP POP POP PUSH2 0x2990 JUMP JUMPDEST DUP1 SWAP3 POP DUP2 SWAP5 POP POP POP PUSH0 DUP2 PUSH2 0x1E3C JUMPI PUSH1 0x1 PUSH2 0x1E3F JUMP JUMPDEST PUSH1 0x2 JUMPDEST SWAP1 POP PUSH2 0x1E6C DUP7 PUSH0 ADD PUSH1 0x20 DUP2 ADD SWAP1 PUSH2 0x1E56 SWAP2 SWAP1 PUSH2 0x3ABA JUMP JUMPDEST DUP3 DUP9 DUP1 PUSH1 0x80 ADD SWAP1 PUSH2 0x1E67 SWAP2 SWAP1 PUSH2 0x42BA JUMP JUMPDEST PUSH2 0x1210 JUMP JUMPDEST SWAP3 POP PUSH0 PUSH1 0x4 PUSH0 SWAP1 SLOAD SWAP1 PUSH2 0x100 EXP SWAP1 DIV PUSH20 0xFFFFFFFFFFFFFFFFFFFFFFFFFFFFFFFFFFFFFFFF AND SWAP1 POP PUSH0 PUSH20 0xFFFFFFFFFFFFFFFFFFFFFFFFFFFFFFFFFFFFFFFF AND DUP2 PUSH20 0xFFFFFFFFFFFFFFFFFFFFFFFFFFFFFFFFFFFFFFFF AND EQ PUSH2 0x1F42 JUMPI DUP1 PUSH20 0xFFFFFFFFFFFFFFFFFFFFFFFFFFFFFFFFFFFFFFFF AND PUSH4 0x43A78EB DUP7 DUP7 PUSH1 0x40 MLOAD DUP4 PUSH4 0xFFFFFFFF AND PUSH1 0xE0 SHL DUP2 MSTORE PUSH1 0x4 ADD PUSH2 0x1F01 SWAP3 SWAP2 SWAP1 PUSH2 0x4651 JUMP JUMPDEST PUSH1 0x20 PUSH1 0x40 MLOAD DUP1 DUP4 SUB DUP2 DUP7 GAS STATICCALL ISZERO DUP1 ISZERO PUSH2 0x1F1C JUMPI RETURNDATASIZE PUSH0 DUP1 RETURNDATACOPY RETURNDATASIZE PUSH0 REVERT JUMPDEST POP POP POP POP PUSH1 0x40 MLOAD RETURNDATASIZE PUSH1 0x1F NOT PUSH1 0x1F DUP3 ADD AND DUP3 ADD DUP1 PUSH1 0x40 MSTORE POP DUP2 ADD SWAP1 PUSH2 0x1F40 SWAP2 SWAP1 PUSH2 0x469A JUMP JUMPDEST POP JUMPDEST POP POP POP SWAP3 POP SWAP3 SWAP1 POP JUMP JUMPDEST PUSH2 0x1F54 PUSH2 0x2F54 JUMP JUMPDEST PUSH32 0x0 PUSH20 0xFFFFFFFFFFFFFFFFFFFFFFFFFFFFFFFFFFFFFFFF AND PUSH4 0xDDC28C58 PUSH1 0x40 MLOAD DUP1 PUSH1 0xA0 ADD PUSH1 0x40 MSTORE DUP1 DUP9 PUSH4 0xFFFFFFFF AND DUP2 MSTORE PUSH1 0x20 ADD PUSH2 0x1FB0 DUP10 PUSH2 0x1957 JUMP JUMPDEST DUP2 MSTORE PUSH1 0x20 ADD DUP8 DUP2 MSTORE PUSH1 0x20 ADD DUP7 DUP2 MSTORE PUSH1 0x20 ADD DUP6 ISZERO ISZERO DUP2 MSTORE POP ADDRESS PUSH1 0x40 MLOAD DUP4 PUSH4 0xFFFFFFFF AND PUSH1 0xE0 SHL DUP2 MSTORE PUSH1 0x4 ADD PUSH2 0x1FE5 SWAP3 SWAP2 SWAP1 PUSH2 0x4796 JUMP JUMPDEST PUSH1 0x40 DUP1 MLOAD DUP1 DUP4 SUB DUP2 DUP7 GAS STATICCALL ISZERO DUP1 ISZERO PUSH2 0x1FFF JUMPI RETURNDATASIZE PUSH0 DUP1 RETURNDATACOPY RETURNDATASIZE PUSH0 REVERT JUMPDEST POP POP POP POP PUSH1 0x40 MLOAD RETURNDATASIZE PUSH1 0x1F NOT PUSH1 0x1F DUP3 ADD AND DUP3 ADD DUP1 PUSH1 0x40 MSTORE POP DUP2 ADD SWAP1 PUSH2 0x2023 SWAP2 SWAP1 PUSH2 0x4811 JUMP JUMPDEST SWAP1 POP SWAP5 SWAP4 POP POP POP POP JUMP JUMPDEST PUSH0 DUP1 PUSH0 SWAP1 SLOAD SWAP1 PUSH2 0x100 EXP SWAP1 DIV PUSH20 0xFFFFFFFFFFFFFFFFFFFFFFFFFFFFFFFFFFFFFFFF AND SWAP1 POP DUP2 PUSH0 DUP1 PUSH2 0x100 EXP DUP2 SLOAD DUP2 PUSH20 0xFFFFFFFFFFFFFFFFFFFFFFFFFFFFFFFFFFFFFFFF MUL NOT AND SWAP1 DUP4 PUSH20 0xFFFFFFFFFFFFFFFFFFFFFFFFFFFFFFFFFFFFFFFF AND MUL OR SWAP1 SSTORE POP DUP2 PUSH20 0xFFFFFFFFFFFFFFFFFFFFFFFFFFFFFFFFFFFFFFFF AND DUP2 PUSH20 0xFFFFFFFFFFFFFFFFFFFFFFFFFFFFFFFFFFFFFFFF AND PUSH32 0x8BE0079C531659141344CD1FD0A4F28419497F9722A3DAAFE3B4186F6B6457E0 PUSH1 0x40 MLOAD PUSH1 0x40 MLOAD DUP1 SWAP2 SUB SWAP1 LOG3 POP POP JUMP JUMPDEST PUSH0 JUMPDEST DUP2 MLOAD DUP2 LT ISZERO PUSH2 0x21C8 JUMPI PUSH2 0x2120 DUP3 DUP3 DUP2 MLOAD DUP2 LT PUSH2 0x210F JUMPI PUSH2 0x210E PUSH2 0x4259 JUMP JUMPDEST JUMPDEST PUSH1 0x20 MUL PUSH1 0x20 ADD ADD MLOAD PUSH1 0x40 ADD MLOAD PUSH2 0x2203 JUMP JUMPDEST DUP2 DUP2 DUP2 MLOAD DUP2 LT PUSH2 0x2133 JUMPI PUSH2 0x2132 PUSH2 0x4259 JUMP JUMPDEST JUMPDEST PUSH1 0x20 MUL PUSH1 0x20 ADD ADD MLOAD PUSH1 0x40 ADD MLOAD PUSH1 0x3 PUSH0 DUP5 DUP5 DUP2 MLOAD DUP2 LT PUSH2 0x2155 JUMPI PUSH2 0x2154 PUSH2 0x4259 JUMP JUMPDEST JUMPDEST PUSH1 0x20 MUL PUSH1 0x20 ADD ADD MLOAD PUSH0 ADD MLOAD PUSH4 0xFFFFFFFF AND PUSH4 0xFFFFFFFF AND DUP2 MSTORE PUSH1 0x20 ADD SWAP1 DUP2 MSTORE PUSH1 0x20 ADD PUSH0 KECCAK256 PUSH0 DUP5 DUP5 DUP2 MLOAD DUP2 LT PUSH2 0x218D JUMPI PUSH2 0x218C PUSH2 0x4259 JUMP JUMPDEST JUMPDEST PUSH1 0x20 MUL PUSH1 0x20 ADD ADD MLOAD PUSH1 0x20 ADD MLOAD PUSH2 0xFFFF AND PUSH2 0xFFFF AND DUP2 MSTORE PUSH1 0x20 ADD SWAP1 DUP2 MSTORE PUSH1 0x20 ADD PUSH0 KECCAK256 SWAP1 DUP2 PUSH2 0x21BA SWAP2 SWAP1 PUSH2 0x49D0 JUMP JUMPDEST POP DUP1 DUP1 PUSH1 0x1 ADD SWAP2 POP POP PUSH2 0x20F0 JUMP JUMPDEST POP PUSH32 0xBE4864A8E820971C0247F5992E2DA559595F7BF076A21CB5928D443D2A13B674 DUP2 PUSH1 0x40 MLOAD PUSH2 0x21F8 SWAP2 SWAP1 PUSH2 0x4BB6 JUMP JUMPDEST PUSH1 0x40 MLOAD DUP1 SWAP2 SUB SWAP1 LOG1 POP JUMP JUMPDEST PUSH0 PUSH1 0x2 DUP3 ADD MLOAD SWAP1 POP PUSH1 0x3 PUSH2 0xFFFF AND DUP2 PUSH2 0xFFFF AND EQ PUSH2 0x2258 JUMPI DUP2 PUSH1 0x40 MLOAD PUSH32 0x9A6D49CD00000000000000000000000000000000000000000000000000000000 DUP2 MSTORE PUSH1 0x4 ADD PUSH2 0x224F SWAP2 SWAP1 PUSH2 0x38D1 JUMP JUMPDEST PUSH1 0x40 MLOAD DUP1 SWAP2 SUB SWAP1 REVERT JUMPDEST POP POP JUMP JUMPDEST PUSH2 0x2264 PUSH2 0x2F6C JUMP JUMPDEST PUSH2 0x226C PUSH2 0x2F23 JUMP JUMPDEST PUSH0 DUP1 PUSH2 0x2293 CALLER DUP9 PUSH1 0x40 ADD CALLDATALOAD DUP10 PUSH1 0x60 ADD CALLDATALOAD DUP11 PUSH0 ADD PUSH1 0x20 DUP2 ADD SWAP1 PUSH2 0x228E SWAP2 SWAP1 PUSH2 0x3ABA JUMP JUMPDEST PUSH2 0x29FE JUMP JUMPDEST SWAP2 POP SWAP2 POP PUSH0 DUP1 PUSH2 0x22A3 DUP10 DUP5 PUSH2 0x1DBB JUMP JUMPDEST SWAP2 POP SWAP2 POP PUSH2 0x22D5 DUP10 PUSH0 ADD PUSH1 0x20 DUP2 ADD SWAP1 PUSH2 0x22BC SWAP2 SWAP1 PUSH2 0x3ABA JUMP JUMPDEST DUP4 DUP4 DUP12 DUP1 CALLDATASIZE SUB DUP2 ADD SWAP1 PUSH2 0x22CF SWAP2 SWAP1 PUSH2 0x4C23 JUMP JUMPDEST DUP12 PUSH2 0x2A26 JUMP JUMPDEST SWAP6 POP PUSH1 0x40 MLOAD DUP1 PUSH1 0x40 ADD PUSH1 0x40 MSTORE DUP1 DUP6 DUP2 MSTORE PUSH1 0x20 ADD DUP5 DUP2 MSTORE POP SWAP5 POP CALLER PUSH20 0xFFFFFFFFFFFFFFFFFFFFFFFFFFFFFFFFFFFFFFFF AND DUP7 PUSH0 ADD MLOAD PUSH32 0x85496B760A4B7F8D66384B9DF21B381F5D1B1E79F229A47AAF4C232EDC2FE59A DUP12 PUSH0 ADD PUSH1 0x20 DUP2 ADD SWAP1 PUSH2 0x233C SWAP2 SWAP1 PUSH2 0x3ABA JUMP JUMPDEST DUP8 DUP8 PUSH1 0x40 MLOAD PUSH2 0x234D SWAP4 SWAP3 SWAP2 SWAP1 PUSH2 0x4C4E JUMP JUMPDEST PUSH1 0x40 MLOAD DUP1 SWAP2 SUB SWAP1 LOG3 POP POP POP POP SWAP4 POP SWAP4 SWAP2 POP POP JUMP JUMPDEST PUSH2 0x2370 DUP8 DUP8 DUP8 DUP8 DUP8 DUP8 DUP8 PUSH2 0x19C8 JUMP JUMPDEST POP POP POP POP POP POP POP JUMP JUMPDEST PUSH0 PUSH20 0xFFFFFFFFFFFFFFFFFFFFFFFFFFFFFFFFFFFFFFFF AND DUP5 PUSH20 0xFFFFFFFFFFFFFFFFFFFFFFFFFFFFFFFFFFFFFFFF AND SUB PUSH2 0x23E9 JUMPI PUSH0 PUSH1 0x40 MLOAD PUSH32 0xE602DF0500000000000000000000000000000000000000000000000000000000 DUP2 MSTORE PUSH1 0x4 ADD PUSH2 0x23E0 SWAP2 SWAP1 PUSH2 0x33C9 JUMP JUMPDEST PUSH1 0x40 MLOAD DUP1 SWAP2 SUB SWAP1 REVERT JUMPDEST PUSH0 PUSH20 0xFFFFFFFFFFFFFFFFFFFFFFFFFFFFFFFFFFFFFFFF AND DUP4 PUSH20 0xFFFFFFFFFFFFFFFFFFFFFFFFFFFFFFFFFFFFFFFF AND SUB PUSH2 0x2459 JUMPI PUSH0 PUSH1 0x40 MLOAD PUSH32 0x94280D6200000000000000000000000000000000000000000000000000000000 DUP2 MSTORE PUSH1 0x4 ADD PUSH2 0x2450 SWAP2 SWAP1 PUSH2 0x33C9 JUMP JUMPDEST PUSH1 0x40 MLOAD DUP1 SWAP2 SUB SWAP1 REVERT JUMPDEST DUP2 PUSH1 0x6 PUSH0 DUP7 PUSH20 0xFFFFFFFFFFFFFFFFFFFFFFFFFFFFFFFFFFFFFFFF AND PUSH20 0xFFFFFFFFFFFFFFFFFFFFFFFFFFFFFFFFFFFFFFFF AND DUP2 MSTORE PUSH1 0x20 ADD SWAP1 DUP2 MSTORE PUSH1 0x20 ADD PUSH0 KECCAK256 PUSH0 DUP6 PUSH20 0xFFFFFFFFFFFFFFFFFFFFFFFFFFFFFFFFFFFFFFFF AND PUSH20 0xFFFFFFFFFFFFFFFFFFFFFFFFFFFFFFFFFFFFFFFF AND DUP2 MSTORE PUSH1 0x20 ADD SWAP1 DUP2 MSTORE PUSH1 0x20 ADD PUSH0 KECCAK256 DUP2 SWAP1 SSTORE POP DUP1 ISZERO PUSH2 0x2542 JUMPI DUP3 PUSH20 0xFFFFFFFFFFFFFFFFFFFFFFFFFFFFFFFFFFFFFFFF AND DUP5 PUSH20 0xFFFFFFFFFFFFFFFFFFFFFFFFFFFFFFFFFFFFFFFF AND PUSH32 0x8C5BE1E5EBEC7D5BD14F71427D1E84F3DD0314C0F7B2291E5B200AC8C7C3B925 DUP5 PUSH1 0x40 MLOAD PUSH2 0x2539 SWAP2 SWAP1 PUSH2 0x3639 JUMP JUMPDEST PUSH1 0x40 MLOAD DUP1 SWAP2 SUB SWAP1 LOG3 JUMPDEST POP POP POP POP JUMP JUMPDEST PUSH0 PUSH32 0x0 PUSH32 0x0 DUP4 PUSH2 0x2596 SWAP2 SWAP1 PUSH2 0x4CDD JUMP JUMPDEST PUSH2 0x25A0 SWAP2 SWAP1 PUSH2 0x4D0D JUMP JUMPDEST SWAP1 POP SWAP2 SWAP1 POP JUMP JUMPDEST PUSH0 DUP3 DUP3 PUSH0 SWAP1 PUSH1 0x20 PUSH1 0xFF AND SWAP3 PUSH2 0x25BE SWAP4 SWAP3 SWAP2 SWAP1 PUSH2 0x414E JUMP JUMPDEST SWAP1 PUSH2 0x25C9 SWAP2 SWAP1 PUSH2 0x4D58 JUMP JUMPDEST SWAP1 POP SWAP3 SWAP2 POP POP JUMP JUMPDEST PUSH0 DUP2 PUSH0 SHR SWAP1 POP SWAP2 SWAP1 POP JUMP JUMPDEST PUSH0 DUP3 DUP3 PUSH1 0x20 PUSH1 0xFF AND SWAP1 PUSH1 0x28 PUSH1 0xFF AND SWAP3 PUSH2 0x25F7 SWAP4 SWAP3 SWAP2 SWAP1 PUSH2 0x414E JUMP JUMPDEST SWAP1 PUSH2 0x2602 SWAP2 SWAP1 PUSH2 0x4DE1 JUMP JUMPDEST PUSH1 0xC0 SHR SWAP1 POP SWAP3 SWAP2 POP POP JUMP JUMPDEST PUSH0 PUSH32 0x0 DUP3 PUSH8 0xFFFFFFFFFFFFFFFF AND PUSH2 0x2644 SWAP2 SWAP1 PUSH2 0x4D0D JUMP JUMPDEST SWAP1 POP SWAP2 SWAP1 POP JUMP JUMPDEST PUSH0 DUP1 PUSH20 0xFFFFFFFFFFFFFFFFFFFFFFFFFFFFFFFFFFFFFFFF AND DUP5 PUSH20 0xFFFFFFFFFFFFFFFFFFFFFFFFFFFFFFFFFFFFFFFF AND SUB PUSH2 0x2685 JUMPI PUSH2 0xDEAD SWAP4 POP JUMPDEST PUSH2 0x268F DUP5 DUP5 PUSH2 0x2B3C JUMP JUMPDEST DUP3 SWAP1 POP SWAP4 SWAP3 POP POP POP JUMP JUMPDEST PUSH0 PUSH1 0x28 PUSH1 0xFF AND DUP4 DUP4 SWAP1 POP GT SWAP1 POP SWAP3 SWAP2 POP POP JUMP JUMPDEST PUSH1 0x60 DUP3 DUP3 PUSH1 0x28 PUSH1 0xFF AND SWAP1 DUP1 SWAP3 PUSH2 0x26C4 SWAP4 SWAP3 SWAP2 SWAP1 PUSH2 0x414E JUMP JUMPDEST DUP1 DUP1 PUSH1 0x1F ADD PUSH1 0x20 DUP1 SWAP2 DIV MUL PUSH1 0x20 ADD PUSH1 0x40 MLOAD SWAP1 DUP2 ADD PUSH1 0x40 MSTORE DUP1 SWAP4 SWAP3 SWAP2 SWAP1 DUP2 DUP2 MSTORE PUSH1 0x20 ADD DUP4 DUP4 DUP1 DUP3 DUP5 CALLDATACOPY PUSH0 DUP2 DUP5 ADD MSTORE PUSH1 0x1F NOT PUSH1 0x1F DUP3 ADD AND SWAP1 POP DUP1 DUP4 ADD SWAP3 POP POP POP POP POP POP POP SWAP1 POP SWAP3 SWAP2 POP POP JUMP JUMPDEST PUSH1 0x60 DUP5 DUP5 DUP5 DUP5 PUSH1 0x40 MLOAD PUSH1 0x20 ADD PUSH2 0x2727 SWAP5 SWAP4 SWAP3 SWAP2 SWAP1 PUSH2 0x4EC7 JUMP JUMPDEST PUSH1 0x40 MLOAD PUSH1 0x20 DUP2 DUP4 SUB SUB DUP2 MSTORE SWAP1 PUSH1 0x40 MSTORE SWAP1 POP SWAP5 SWAP4 POP POP POP POP JUMP JUMPDEST PUSH0 PUSH20 0xFFFFFFFFFFFFFFFFFFFFFFFFFFFFFFFFFFFFFFFF AND DUP4 PUSH20 0xFFFFFFFFFFFFFFFFFFFFFFFFFFFFFFFFFFFFFFFF AND SUB PUSH2 0x2790 JUMPI DUP1 PUSH1 0x7 PUSH0 DUP3 DUP3 SLOAD PUSH2 0x2784 SWAP2 SWAP1 PUSH2 0x4F10 JUMP JUMPDEST SWAP3 POP POP DUP2 SWAP1 SSTORE POP PUSH2 0x2860 JUMP JUMPDEST PUSH0 PUSH1 0x5 PUSH0 DUP6 PUSH20 0xFFFFFFFFFFFFFFFFFFFFFFFFFFFFFFFFFFFFFFFF AND PUSH20 0xFFFFFFFFFFFFFFFFFFFFFFFFFFFFFFFFFFFFFFFF AND DUP2 MSTORE PUSH1 0x20 ADD SWAP1 DUP2 MSTORE PUSH1 0x20 ADD PUSH0 KECCAK256 SLOAD SWAP1 POP DUP2 DUP2 LT ISZERO PUSH2 0x281A JUMPI DUP4 DUP2 DUP4 PUSH1 0x40 MLOAD PUSH32 0xE450D38C00000000000000000000000000000000000000000000000000000000 DUP2 MSTORE PUSH1 0x4 ADD PUSH2 0x2811 SWAP4 SWAP3 SWAP2 SWAP1 PUSH2 0x461C JUMP JUMPDEST PUSH1 0x40 MLOAD DUP1 SWAP2 SUB SWAP1 REVERT JUMPDEST DUP2 DUP2 SUB PUSH1 0x5 PUSH0 DUP7 PUSH20 0xFFFFFFFFFFFFFFFFFFFFFFFFFFFFFFFFFFFFFFFF AND PUSH20 0xFFFFFFFFFFFFFFFFFFFFFFFFFFFFFFFFFFFFFFFF AND DUP2 MSTORE PUSH1 0x20 ADD SWAP1 DUP2 MSTORE PUSH1 0x20 ADD PUSH0 KECCAK256 DUP2 SWAP1 SSTORE POP POP JUMPDEST PUSH0 PUSH20 0xFFFFFFFFFFFFFFFFFFFFFFFFFFFFFFFFFFFFFFFF AND DUP3 PUSH20 0xFFFFFFFFFFFFFFFFFFFFFFFFFFFFFFFFFFFFFFFF AND SUB PUSH2 0x28A7 JUMPI DUP1 PUSH1 0x7 PUSH0 DUP3 DUP3 SLOAD SUB SWAP3 POP POP DUP2 SWAP1 SSTORE POP PUSH2 0x28F2 JUMP JUMPDEST DUP1 PUSH1 0x5 PUSH0 DUP5 PUSH20 0xFFFFFFFFFFFFFFFFFFFFFFFFFFFFFFFFFFFFFFFF AND PUSH20 0xFFFFFFFFFFFFFFFFFFFFFFFFFFFFFFFFFFFFFFFF AND DUP2 MSTORE PUSH1 0x20 ADD SWAP1 DUP2 MSTORE PUSH1 0x20 ADD PUSH0 KECCAK256 PUSH0 DUP3 DUP3 SLOAD ADD SWAP3 POP POP DUP2 SWAP1 SSTORE POP JUMPDEST DUP2 PUSH20 0xFFFFFFFFFFFFFFFFFFFFFFFFFFFFFFFFFFFFFFFF AND DUP4 PUSH20 0xFFFFFFFFFFFFFFFFFFFFFFFFFFFFFFFFFFFFFFFF AND PUSH32 0xDDF252AD1BE2C89B69C2B068FC378DAA952BA7F163C4A11628F55A4DF523B3EF DUP4 PUSH1 0x40 MLOAD PUSH2 0x294F SWAP2 SWAP1 PUSH2 0x3639 JUMP JUMPDEST PUSH1 0x40 MLOAD DUP1 SWAP2 SUB SWAP1 LOG3 POP POP POP JUMP JUMPDEST PUSH0 PUSH32 0x0 DUP3 PUSH2 0x2989 SWAP2 SWAP1 PUSH2 0x4CDD JUMP JUMPDEST SWAP1 POP SWAP2 SWAP1 POP JUMP JUMPDEST PUSH1 0x60 PUSH0 DUP1 DUP4 MLOAD GT SWAP1 POP DUP1 PUSH2 0x29C5 JUMPI DUP5 DUP5 PUSH1 0x40 MLOAD PUSH1 0x20 ADD PUSH2 0x29B1 SWAP3 SWAP2 SWAP1 PUSH2 0x4F63 JUMP JUMPDEST PUSH1 0x40 MLOAD PUSH1 0x20 DUP2 DUP4 SUB SUB DUP2 MSTORE SWAP1 PUSH1 0x40 MSTORE PUSH2 0x29F4 JUMP JUMPDEST DUP5 DUP5 PUSH2 0x29D0 CALLER PUSH2 0x2BBB JUMP JUMPDEST DUP6 PUSH1 0x40 MLOAD PUSH1 0x20 ADD PUSH2 0x29E4 SWAP5 SWAP4 SWAP3 SWAP2 SWAP1 PUSH2 0x4F8E JUMP JUMPDEST PUSH1 0x40 MLOAD PUSH1 0x20 DUP2 DUP4 SUB SUB DUP2 MSTORE SWAP1 PUSH1 0x40 MSTORE JUMPDEST SWAP2 POP SWAP4 POP SWAP4 SWAP2 POP POP JUMP JUMPDEST PUSH0 DUP1 PUSH2 0x2A0B DUP6 DUP6 DUP6 PUSH2 0x18F8 JUMP JUMPDEST DUP1 SWAP3 POP DUP2 SWAP4 POP POP POP PUSH2 0x2A1D DUP7 DUP4 PUSH2 0x2BDC JUMP JUMPDEST SWAP5 POP SWAP5 SWAP3 POP POP POP JUMP JUMPDEST PUSH2 0x2A2E PUSH2 0x2F6C JUMP JUMPDEST PUSH0 PUSH2 0x2A3B DUP5 PUSH0 ADD MLOAD PUSH2 0x2C5B JUMP JUMPDEST SWAP1 POP PUSH0 DUP5 PUSH1 0x20 ADD MLOAD GT ISZERO PUSH2 0x2A57 JUMPI PUSH2 0x2A56 DUP5 PUSH1 0x20 ADD MLOAD PUSH2 0x2CA8 JUMP JUMPDEST JUMPDEST PUSH32 0x0 PUSH20 0xFFFFFFFFFFFFFFFFFFFFFFFFFFFFFFFFFFFFFFFF AND PUSH4 0x2637A450 DUP3 PUSH1 0x40 MLOAD DUP1 PUSH1 0xA0 ADD PUSH1 0x40 MSTORE DUP1 DUP12 PUSH4 0xFFFFFFFF AND DUP2 MSTORE PUSH1 0x20 ADD PUSH2 0x2AB4 DUP13 PUSH2 0x1957 JUMP JUMPDEST DUP2 MSTORE PUSH1 0x20 ADD DUP11 DUP2 MSTORE PUSH1 0x20 ADD DUP10 DUP2 MSTORE PUSH1 0x20 ADD PUSH0 DUP10 PUSH1 0x20 ADD MLOAD GT ISZERO ISZERO DUP2 MSTORE POP DUP7 PUSH1 0x40 MLOAD DUP5 PUSH4 0xFFFFFFFF AND PUSH1 0xE0 SHL DUP2 MSTORE PUSH1 0x4 ADD PUSH2 0x2AEF SWAP3 SWAP2 SWAP1 PUSH2 0x4796 JUMP JUMPDEST PUSH1 0x80 PUSH1 0x40 MLOAD DUP1 DUP4 SUB DUP2 DUP6 DUP9 GAS CALL ISZERO DUP1 ISZERO PUSH2 0x2B0B JUMPI RETURNDATASIZE PUSH0 DUP1 RETURNDATACOPY RETURNDATASIZE PUSH0 REVERT JUMPDEST POP POP POP POP POP PUSH1 0x40 MLOAD RETURNDATASIZE PUSH1 0x1F NOT PUSH1 0x1F DUP3 ADD AND DUP3 ADD DUP1 PUSH1 0x40 MSTORE POP DUP2 ADD SWAP1 PUSH2 0x2B30 SWAP2 SWAP1 PUSH2 0x5060 JUMP JUMPDEST SWAP2 POP POP SWAP6 SWAP5 POP POP POP POP POP JUMP JUMPDEST PUSH0 PUSH20 0xFFFFFFFFFFFFFFFFFFFFFFFFFFFFFFFFFFFFFFFF AND DUP3 PUSH20 0xFFFFFFFFFFFFFFFFFFFFFFFFFFFFFFFFFFFFFFFF AND SUB PUSH2 0x2BAC JUMPI PUSH0 PUSH1 0x40 MLOAD PUSH32 0xEC442F0500000000000000000000000000000000000000000000000000000000 DUP2 MSTORE PUSH1 0x4 ADD PUSH2 0x2BA3 SWAP2 SWAP1 PUSH2 0x33C9 JUMP JUMPDEST PUSH1 0x40 MLOAD DUP1 SWAP2 SUB SWAP1 REVERT JUMPDEST PUSH2 0x2BB7 PUSH0 DUP4 DUP4 PUSH2 0x2740 JUMP JUMPDEST POP POP JUMP JUMPDEST PUSH0 DUP2 PUSH20 0xFFFFFFFFFFFFFFFFFFFFFFFFFFFFFFFFFFFFFFFF AND PUSH0 SHL SWAP1 POP SWAP2 SWAP1 POP JUMP JUMPDEST PUSH0 PUSH20 0xFFFFFFFFFFFFFFFFFFFFFFFFFFFFFFFFFFFFFFFF AND DUP3 PUSH20 0xFFFFFFFFFFFFFFFFFFFFFFFFFFFFFFFFFFFFFFFF AND SUB PUSH2 0x2C4C JUMPI PUSH0 PUSH1 0x40 MLOAD PUSH32 0x96C6FD1E00000000000000000000000000000000000000000000000000000000 DUP2 MSTORE PUSH1 0x4 ADD PUSH2 0x2C43 SWAP2 SWAP1 PUSH2 0x33C9 JUMP JUMPDEST PUSH1 0x40 MLOAD DUP1 SWAP2 SUB SWAP1 REVERT JUMPDEST PUSH2 0x2C57 DUP3 PUSH0 DUP4 PUSH2 0x2740 JUMP JUMPDEST POP POP JUMP JUMPDEST PUSH0 DUP2 CALLVALUE EQ PUSH2 0x2CA0 JUMPI CALLVALUE PUSH1 0x40 MLOAD PUSH32 0x9F70412000000000000000000000000000000000000000000000000000000000 DUP2 MSTORE PUSH1 0x4 ADD PUSH2 0x2C97 SWAP2 SWAP1 PUSH2 0x3639 JUMP JUMPDEST PUSH1 0x40 MLOAD DUP1 SWAP2 SUB SWAP1 REVERT JUMPDEST DUP2 SWAP1 POP SWAP2 SWAP1 POP JUMP JUMPDEST PUSH0 PUSH32 0x0 PUSH20 0xFFFFFFFFFFFFFFFFFFFFFFFFFFFFFFFFFFFFFFFF AND PUSH4 0xE4FE1D94 PUSH1 0x40 MLOAD DUP2 PUSH4 0xFFFFFFFF AND PUSH1 0xE0 SHL DUP2 MSTORE PUSH1 0x4 ADD PUSH1 0x20 PUSH1 0x40 MLOAD DUP1 DUP4 SUB DUP2 DUP7 GAS STATICCALL ISZERO DUP1 ISZERO PUSH2 0x2D12 JUMPI RETURNDATASIZE PUSH0 DUP1 RETURNDATACOPY RETURNDATASIZE PUSH0 REVERT JUMPDEST POP POP POP POP PUSH1 0x40 MLOAD RETURNDATASIZE PUSH1 0x1F NOT PUSH1 0x1F DUP3 ADD AND DUP3 ADD DUP1 PUSH1 0x40 MSTORE POP DUP2 ADD SWAP1 PUSH2 0x2D36 SWAP2 SWAP1 PUSH2 0x3E34 JUMP JUMPDEST SWAP1 POP PUSH0 PUSH20 0xFFFFFFFFFFFFFFFFFFFFFFFFFFFFFFFFFFFFFFFF AND DUP2 PUSH20 0xFFFFFFFFFFFFFFFFFFFFFFFFFFFFFFFFFFFFFFFF AND SUB PUSH2 0x2D9D JUMPI PUSH1 0x40 MLOAD PUSH32 0x5373352A00000000000000000000000000000000000000000000000000000000 DUP2 MSTORE PUSH1 0x4 ADD PUSH1 0x40 MLOAD DUP1 SWAP2 SUB SWAP1 REVERT JUMPDEST PUSH2 0x2DEA CALLER PUSH32 0x0 DUP5 DUP5 PUSH20 0xFFFFFFFFFFFFFFFFFFFFFFFFFFFFFFFFFFFFFFFF AND PUSH2 0x2DEE SWAP1 SWAP4 SWAP3 SWAP2 SWAP1 PUSH4 0xFFFFFFFF AND JUMP JUMPDEST POP POP JUMP JUMPDEST PUSH2 0x2E6A DUP5 DUP6 PUSH20 0xFFFFFFFFFFFFFFFFFFFFFFFFFFFFFFFFFFFFFFFF AND PUSH4 0x23B872DD DUP7 DUP7 DUP7 PUSH1 0x40 MLOAD PUSH1 0x24 ADD PUSH2 0x2E23 SWAP4 SWAP3 SWAP2 SWAP1 PUSH2 0x508B JUMP JUMPDEST PUSH1 0x40 MLOAD PUSH1 0x20 DUP2 DUP4 SUB SUB DUP2 MSTORE SWAP1 PUSH1 0x40 MSTORE SWAP2 POP PUSH1 0xE0 SHL PUSH1 0x20 DUP3 ADD DUP1 MLOAD PUSH28 0xFFFFFFFFFFFFFFFFFFFFFFFFFFFFFFFFFFFFFFFFFFFFFFFFFFFFFFFF DUP4 DUP2 DUP4 AND OR DUP4 MSTORE POP POP POP POP PUSH2 0x2E70 JUMP JUMPDEST POP POP POP POP JUMP JUMPDEST PUSH0 DUP1 PUSH1 0x20 PUSH0 DUP5 MLOAD PUSH1 0x20 DUP7 ADD PUSH0 DUP9 GAS CALL DUP1 PUSH2 0x2E8F JUMPI PUSH1 0x40 MLOAD RETURNDATASIZE PUSH0 DUP3 RETURNDATACOPY RETURNDATASIZE DUP2 REVERT JUMPDEST RETURNDATASIZE SWAP3 POP PUSH0 MLOAD SWAP2 POP POP PUSH0 DUP3 EQ PUSH2 0x2EA8 JUMPI PUSH1 0x1 DUP2 EQ ISZERO PUSH2 0x2EC3 JUMP JUMPDEST PUSH0 DUP5 PUSH20 0xFFFFFFFFFFFFFFFFFFFFFFFFFFFFFFFFFFFFFFFF AND EXTCODESIZE EQ JUMPDEST ISZERO PUSH2 0x2F05 JUMPI DUP4 PUSH1 0x40 MLOAD PUSH32 0x5274AFE700000000000000000000000000000000000000000000000000000000 DUP2 MSTORE PUSH1 0x4 ADD PUSH2 0x2EFC SWAP2 SWAP1 PUSH2 0x33C9 JUMP JUMPDEST PUSH1 0x40 MLOAD DUP1 SWAP2 SUB SWAP1 REVERT JUMPDEST POP POP POP POP JUMP JUMPDEST PUSH1 0x40 MLOAD DUP1 PUSH1 0x40 ADD PUSH1 0x40 MSTORE DUP1 PUSH0 DUP2 MSTORE PUSH1 0x20 ADD PUSH0 DUP2 MSTORE POP SWAP1 JUMP JUMPDEST PUSH1 0x40 MLOAD DUP1 PUSH1 0x40 ADD PUSH1 0x40 MSTORE DUP1 PUSH0 DUP2 MSTORE PUSH1 0x20 ADD PUSH0 DUP2 MSTORE POP SWAP1 JUMP JUMPDEST PUSH1 0x40 MLOAD DUP1 PUSH1 0x40 ADD PUSH1 0x40 MSTORE DUP1 PUSH0 DUP2 MSTORE PUSH1 0x20 ADD PUSH1 0x60 DUP2 MSTORE POP SWAP1 JUMP JUMPDEST PUSH1 0x40 MLOAD DUP1 PUSH1 0x40 ADD PUSH1 0x40 MSTORE DUP1 PUSH0 DUP2 MSTORE PUSH1 0x20 ADD PUSH0 DUP2 MSTORE POP SWAP1 JUMP JUMPDEST PUSH1 0x40 MLOAD DUP1 PUSH1 0x60 ADD PUSH1 0x40 MSTORE DUP1 PUSH0 DUP1 NOT AND DUP2 MSTORE PUSH1 0x20 ADD PUSH0 PUSH8 0xFFFFFFFFFFFFFFFF AND DUP2 MSTORE PUSH1 0x20 ADD PUSH2 0x2F98 PUSH2 0x2F54 JUMP JUMPDEST DUP2 MSTORE POP SWAP1 JUMP JUMPDEST PUSH0 DUP2 MLOAD SWAP1 POP SWAP2 SWAP1 POP JUMP JUMPDEST PUSH0 DUP3 DUP3 MSTORE PUSH1 0x20 DUP3 ADD SWAP1 POP SWAP3 SWAP2 POP POP JUMP JUMPDEST PUSH0 JUMPDEST DUP4 DUP2 LT ISZERO PUSH2 0x2FD5 JUMPI DUP1 DUP3 ADD MLOAD DUP2 DUP5 ADD MSTORE PUSH1 0x20 DUP2 ADD SWAP1 POP PUSH2 0x2FBA JUMP JUMPDEST PUSH0 DUP5 DUP5 ADD MSTORE POP POP POP POP JUMP JUMPDEST PUSH0 PUSH1 0x1F NOT PUSH1 0x1F DUP4 ADD AND SWAP1 POP SWAP2 SWAP1 POP JUMP JUMPDEST PUSH0 PUSH2 0x2FFA DUP3 PUSH2 0x2F9E JUMP JUMPDEST PUSH2 0x3004 DUP2 DUP6 PUSH2 0x2FA8 JUMP JUMPDEST SWAP4 POP PUSH2 0x3014 DUP2 DUP6 PUSH1 0x20 DUP7 ADD PUSH2 0x2FB8 JUMP JUMPDEST PUSH2 0x301D DUP2 PUSH2 0x2FE0 JUMP JUMPDEST DUP5 ADD SWAP2 POP POP SWAP3 SWAP2 POP POP JUMP JUMPDEST PUSH0 PUSH1 0x20 DUP3 ADD SWAP1 POP DUP2 DUP2 SUB PUSH0 DUP4 ADD MSTORE PUSH2 0x3040 DUP2 DUP5 PUSH2 0x2FF0 JUMP JUMPDEST SWAP1 POP SWAP3 SWAP2 POP POP JUMP JUMPDEST PUSH0 PUSH1 0x40 MLOAD SWAP1 POP SWAP1 JUMP JUMPDEST PUSH0 DUP1 REVERT JUMPDEST PUSH0 DUP1 REVERT JUMPDEST PUSH0 PUSH20 0xFFFFFFFFFFFFFFFFFFFFFFFFFFFFFFFFFFFFFFFF DUP3 AND SWAP1 POP SWAP2 SWAP1 POP JUMP JUMPDEST PUSH0 PUSH2 0x3082 DUP3 PUSH2 0x3059 JUMP JUMPDEST SWAP1 POP SWAP2 SWAP1 POP JUMP JUMPDEST PUSH2 0x3092 DUP2 PUSH2 0x3078 JUMP JUMPDEST DUP2 EQ PUSH2 0x309C JUMPI PUSH0 DUP1 REVERT JUMPDEST POP JUMP JUMPDEST PUSH0 DUP2 CALLDATALOAD SWAP1 POP PUSH2 0x30AD DUP2 PUSH2 0x3089 JUMP JUMPDEST SWAP3 SWAP2 POP POP JUMP JUMPDEST PUSH0 DUP2 SWAP1 POP SWAP2 SWAP1 POP JUMP JUMPDEST PUSH2 0x30C5 DUP2 PUSH2 0x30B3 JUMP JUMPDEST DUP2 EQ PUSH2 0x30CF JUMPI PUSH0 DUP1 REVERT JUMPDEST POP JUMP JUMPDEST PUSH0 DUP2 CALLDATALOAD SWAP1 POP PUSH2 0x30E0 DUP2 PUSH2 0x30BC JUMP JUMPDEST SWAP3 SWAP2 POP POP JUMP JUMPDEST PUSH0 DUP1 PUSH1 0x40 DUP4 DUP6 SUB SLT ISZERO PUSH2 0x30FC JUMPI PUSH2 0x30FB PUSH2 0x3051 JUMP JUMPDEST JUMPDEST PUSH0 PUSH2 0x3109 DUP6 DUP3 DUP7 ADD PUSH2 0x309F JUMP JUMPDEST SWAP3 POP POP PUSH1 0x20 PUSH2 0x311A DUP6 DUP3 DUP7 ADD PUSH2 0x30D2 JUMP JUMPDEST SWAP2 POP POP SWAP3 POP SWAP3 SWAP1 POP JUMP JUMPDEST PUSH0 DUP2 ISZERO ISZERO SWAP1 POP SWAP2 SWAP1 POP JUMP JUMPDEST PUSH2 0x3138 DUP2 PUSH2 0x3124 JUMP JUMPDEST DUP3 MSTORE POP POP JUMP JUMPDEST PUSH0 PUSH1 0x20 DUP3 ADD SWAP1 POP PUSH2 0x3151 PUSH0 DUP4 ADD DUP5 PUSH2 0x312F JUMP JUMPDEST SWAP3 SWAP2 POP POP JUMP JUMPDEST PUSH0 DUP1 REVERT JUMPDEST PUSH0 PUSH1 0xE0 DUP3 DUP5 SUB SLT ISZERO PUSH2 0x3170 JUMPI PUSH2 0x316F PUSH2 0x3157 JUMP JUMPDEST JUMPDEST DUP2 SWAP1 POP SWAP3 SWAP2 POP POP JUMP JUMPDEST PUSH0 PUSH1 0x20 DUP3 DUP5 SUB SLT ISZERO PUSH2 0x318E JUMPI PUSH2 0x318D PUSH2 0x3051 JUMP JUMPDEST JUMPDEST PUSH0 DUP3 ADD CALLDATALOAD PUSH8 0xFFFFFFFFFFFFFFFF DUP2 GT ISZERO PUSH2 0x31AB JUMPI PUSH2 0x31AA PUSH2 0x3055 JUMP JUMPDEST JUMPDEST PUSH2 0x31B7 DUP5 DUP3 DUP6 ADD PUSH2 0x315B JUMP JUMPDEST SWAP2 POP POP SWAP3 SWAP2 POP POP JUMP JUMPDEST PUSH2 0x31C9 DUP2 PUSH2 0x30B3 JUMP JUMPDEST DUP3 MSTORE POP POP JUMP JUMPDEST PUSH1 0x40 DUP3 ADD PUSH0 DUP3 ADD MLOAD PUSH2 0x31E3 PUSH0 DUP6 ADD DUP3 PUSH2 0x31C0 JUMP JUMPDEST POP PUSH1 0x20 DUP3 ADD MLOAD PUSH2 0x31F6 PUSH1 0x20 DUP6 ADD DUP3 PUSH2 0x31C0 JUMP JUMPDEST POP POP POP POP JUMP JUMPDEST PUSH0 DUP2 MLOAD SWAP1 POP SWAP2 SWAP1 POP JUMP JUMPDEST PUSH0 DUP3 DUP3 MSTORE PUSH1 0x20 DUP3 ADD SWAP1 POP SWAP3 SWAP2 POP POP JUMP JUMPDEST PUSH0 DUP2 SWAP1 POP PUSH1 0x20 DUP3 ADD SWAP1 POP SWAP2 SWAP1 POP JUMP JUMPDEST PUSH0 DUP2 SWAP1 POP SWAP2 SWAP1 POP JUMP JUMPDEST PUSH2 0x3237 DUP2 PUSH2 0x3225 JUMP JUMPDEST DUP3 MSTORE POP POP JUMP JUMPDEST PUSH0 DUP3 DUP3 MSTORE PUSH1 0x20 DUP3 ADD SWAP1 POP SWAP3 SWAP2 POP POP JUMP JUMPDEST PUSH0 PUSH2 0x3257 DUP3 PUSH2 0x2F9E JUMP JUMPDEST PUSH2 0x3261 DUP2 DUP6 PUSH2 0x323D JUMP JUMPDEST SWAP4 POP PUSH2 0x3271 DUP2 DUP6 PUSH1 0x20 DUP7 ADD PUSH2 0x2FB8 JUMP JUMPDEST PUSH2 0x327A DUP2 PUSH2 0x2FE0 JUMP JUMPDEST DUP5 ADD SWAP2 POP POP SWAP3 SWAP2 POP POP JUMP JUMPDEST PUSH0 PUSH1 0x40 DUP4 ADD PUSH0 DUP4 ADD MLOAD PUSH2 0x329A PUSH0 DUP7 ADD DUP3 PUSH2 0x322E JUMP JUMPDEST POP PUSH1 0x20 DUP4 ADD MLOAD DUP5 DUP3 SUB PUSH1 0x20 DUP7 ADD MSTORE PUSH2 0x32B2 DUP3 DUP3 PUSH2 0x324D JUMP JUMPDEST SWAP2 POP POP DUP1 SWAP2 POP POP SWAP3 SWAP2 POP POP JUMP JUMPDEST PUSH0 PUSH2 0x32CA DUP4 DUP4 PUSH2 0x3285 JUMP JUMPDEST SWAP1 POP SWAP3 SWAP2 POP POP JUMP JUMPDEST PUSH0 PUSH1 0x20 DUP3 ADD SWAP1 POP SWAP2 SWAP1 POP JUMP JUMPDEST PUSH0 PUSH2 0x32E8 DUP3 PUSH2 0x31FC JUMP JUMPDEST PUSH2 0x32F2 DUP2 DUP6 PUSH2 0x3206 JUMP JUMPDEST SWAP4 POP DUP4 PUSH1 0x20 DUP3 MUL DUP6 ADD PUSH2 0x3304 DUP6 PUSH2 0x3216 JUMP JUMPDEST DUP1 PUSH0 JUMPDEST DUP6 DUP2 LT ISZERO PUSH2 0x333F JUMPI DUP5 DUP5 SUB DUP10 MSTORE DUP2 MLOAD PUSH2 0x3320 DUP6 DUP3 PUSH2 0x32BF JUMP JUMPDEST SWAP5 POP PUSH2 0x332B DUP4 PUSH2 0x32D2 JUMP JUMPDEST SWAP3 POP PUSH1 0x20 DUP11 ADD SWAP10 POP POP PUSH1 0x1 DUP2 ADD SWAP1 POP PUSH2 0x3307 JUMP JUMPDEST POP DUP3 SWAP8 POP DUP8 SWAP6 POP POP POP POP POP POP SWAP3 SWAP2 POP POP JUMP JUMPDEST PUSH1 0x40 DUP3 ADD PUSH0 DUP3 ADD MLOAD PUSH2 0x3365 PUSH0 DUP6 ADD DUP3 PUSH2 0x31C0 JUMP JUMPDEST POP PUSH1 0x20 DUP3 ADD MLOAD PUSH2 0x3378 PUSH1 0x20 DUP6 ADD DUP3 PUSH2 0x31C0 JUMP JUMPDEST POP POP POP POP JUMP JUMPDEST PUSH0 PUSH1 0xA0 DUP3 ADD SWAP1 POP PUSH2 0x3391 PUSH0 DUP4 ADD DUP7 PUSH2 0x31CF JUMP JUMPDEST DUP2 DUP2 SUB PUSH1 0x40 DUP4 ADD MSTORE PUSH2 0x33A3 DUP2 DUP6 PUSH2 0x32DE JUMP JUMPDEST SWAP1 POP PUSH2 0x33B2 PUSH1 0x60 DUP4 ADD DUP5 PUSH2 0x3351 JUMP JUMPDEST SWAP5 SWAP4 POP POP POP POP JUMP JUMPDEST PUSH2 0x33C3 DUP2 PUSH2 0x3078 JUMP JUMPDEST DUP3 MSTORE POP POP JUMP JUMPDEST PUSH0 PUSH1 0x20 DUP3 ADD SWAP1 POP PUSH2 0x33DC PUSH0 DUP4 ADD DUP5 PUSH2 0x33BA JUMP JUMPDEST SWAP3 SWAP2 POP POP JUMP JUMPDEST PUSH0 PUSH1 0x60 DUP3 DUP5 SUB SLT ISZERO PUSH2 0x33F7 JUMPI PUSH2 0x33F6 PUSH2 0x3157 JUMP JUMPDEST JUMPDEST DUP2 SWAP1 POP SWAP3 SWAP2 POP POP JUMP JUMPDEST PUSH0 DUP2 SWAP1 POP SWAP2 SWAP1 POP JUMP JUMPDEST PUSH2 0x3412 DUP2 PUSH2 0x3400 JUMP JUMPDEST DUP2 EQ PUSH2 0x341C JUMPI PUSH0 DUP1 REVERT JUMPDEST POP JUMP JUMPDEST PUSH0 DUP2 CALLDATALOAD SWAP1 POP PUSH2 0x342D DUP2 PUSH2 0x3409 JUMP JUMPDEST SWAP3 SWAP2 POP POP JUMP JUMPDEST PUSH0 DUP1 REVERT JUMPDEST PUSH0 DUP1 REVERT JUMPDEST PUSH0 DUP1 REVERT JUMPDEST PUSH0 DUP1 DUP4 PUSH1 0x1F DUP5 ADD SLT PUSH2 0x3454 JUMPI PUSH2 0x3453 PUSH2 0x3433 JUMP JUMPDEST JUMPDEST DUP3 CALLDATALOAD SWAP1 POP PUSH8 0xFFFFFFFFFFFFFFFF DUP2 GT ISZERO PUSH2 0x3471 JUMPI PUSH2 0x3470 PUSH2 0x3437 JUMP JUMPDEST JUMPDEST PUSH1 0x20 DUP4 ADD SWAP2 POP DUP4 PUSH1 0x1 DUP3 MUL DUP4 ADD GT ISZERO PUSH2 0x348D JUMPI PUSH2 0x348C PUSH2 0x343B JUMP JUMPDEST JUMPDEST SWAP3 POP SWAP3 SWAP1 POP JUMP JUMPDEST PUSH0 DUP1 PUSH0 DUP1 PUSH0 DUP1 PUSH0 PUSH1 0xE0 DUP9 DUP11 SUB SLT ISZERO PUSH2 0x34AF JUMPI PUSH2 0x34AE PUSH2 0x3051 JUMP JUMPDEST JUMPDEST PUSH0 PUSH2 0x34BC DUP11 DUP3 DUP12 ADD PUSH2 0x33E2 JUMP JUMPDEST SWAP8 POP POP PUSH1 0x60 PUSH2 0x34CD DUP11 DUP3 DUP12 ADD PUSH2 0x341F JUMP JUMPDEST SWAP7 POP POP PUSH1 0x80 DUP9 ADD CALLDATALOAD PUSH8 0xFFFFFFFFFFFFFFFF DUP2 GT ISZERO PUSH2 0x34EE JUMPI PUSH2 0x34ED PUSH2 0x3055 JUMP JUMPDEST JUMPDEST PUSH2 0x34FA DUP11 DUP3 DUP12 ADD PUSH2 0x343F JUMP JUMPDEST SWAP6 POP SWAP6 POP POP PUSH1 0xA0 PUSH2 0x350D DUP11 DUP3 DUP12 ADD PUSH2 0x309F JUMP JUMPDEST SWAP4 POP POP PUSH1 0xC0 DUP9 ADD CALLDATALOAD PUSH8 0xFFFFFFFFFFFFFFFF DUP2 GT ISZERO PUSH2 0x352E JUMPI PUSH2 0x352D PUSH2 0x3055 JUMP JUMPDEST JUMPDEST PUSH2 0x353A DUP11 DUP3 DUP12 ADD PUSH2 0x343F JUMP JUMPDEST SWAP3 POP SWAP3 POP POP SWAP3 SWAP6 SWAP9 SWAP2 SWAP5 SWAP8 POP SWAP3 SWAP6 POP JUMP JUMPDEST PUSH0 PUSH2 0xFFFF DUP3 AND SWAP1 POP SWAP2 SWAP1 POP JUMP JUMPDEST PUSH2 0x3561 DUP2 PUSH2 0x354B JUMP JUMPDEST DUP3 MSTORE POP POP JUMP JUMPDEST PUSH0 PUSH1 0x20 DUP3 ADD SWAP1 POP PUSH2 0x357A PUSH0 DUP4 ADD DUP5 PUSH2 0x3558 JUMP JUMPDEST SWAP3 SWAP2 POP POP JUMP JUMPDEST PUSH0 PUSH32 0xFFFFFFFF00000000000000000000000000000000000000000000000000000000 DUP3 AND SWAP1 POP SWAP2 SWAP1 POP JUMP JUMPDEST PUSH2 0x35B4 DUP2 PUSH2 0x3580 JUMP JUMPDEST DUP3 MSTORE POP POP JUMP JUMPDEST PUSH0 PUSH8 0xFFFFFFFFFFFFFFFF DUP3 AND SWAP1 POP SWAP2 SWAP1 POP JUMP JUMPDEST PUSH2 0x35D6 DUP2 PUSH2 0x35BA JUMP JUMPDEST DUP3 MSTORE POP POP JUMP JUMPDEST PUSH0 PUSH1 0x40 DUP3 ADD SWAP1 POP PUSH2 0x35EF PUSH0 DUP4 ADD DUP6 PUSH2 0x35AB JUMP JUMPDEST PUSH2 0x35FC PUSH1 0x20 DUP4 ADD DUP5 PUSH2 0x35CD JUMP JUMPDEST SWAP4 SWAP3 POP POP POP JUMP JUMPDEST PUSH0 PUSH1 0x40 DUP3 ADD SWAP1 POP PUSH2 0x3616 PUSH0 DUP4 ADD DUP6 PUSH2 0x35CD JUMP JUMPDEST PUSH2 0x3623 PUSH1 0x20 DUP4 ADD DUP5 PUSH2 0x35CD JUMP JUMPDEST SWAP4 SWAP3 POP POP POP JUMP JUMPDEST PUSH2 0x3633 DUP2 PUSH2 0x30B3 JUMP JUMPDEST DUP3 MSTORE POP POP JUMP JUMPDEST PUSH0 PUSH1 0x20 DUP3 ADD SWAP1 POP PUSH2 0x364C PUSH0 DUP4 ADD DUP5 PUSH2 0x362A JUMP JUMPDEST SWAP3 SWAP2 POP POP JUMP JUMPDEST PUSH0 DUP1 PUSH0 PUSH1 0x60 DUP5 DUP7 SUB SLT ISZERO PUSH2 0x3669 JUMPI PUSH2 0x3668 PUSH2 0x3051 JUMP JUMPDEST JUMPDEST PUSH0 PUSH2 0x3676 DUP7 DUP3 DUP8 ADD PUSH2 0x309F JUMP JUMPDEST SWAP4 POP POP PUSH1 0x20 PUSH2 0x3687 DUP7 DUP3 DUP8 ADD PUSH2 0x309F JUMP JUMPDEST SWAP3 POP POP PUSH1 0x40 PUSH2 0x3698 DUP7 DUP3 DUP8 ADD PUSH2 0x30D2 JUMP JUMPDEST SWAP2 POP POP SWAP3 POP SWAP3 POP SWAP3 JUMP JUMPDEST PUSH0 PUSH1 0xFF DUP3 AND SWAP1 POP SWAP2 SWAP1 POP JUMP JUMPDEST PUSH2 0x36B7 DUP2 PUSH2 0x36A2 JUMP JUMPDEST DUP3 MSTORE POP POP JUMP JUMPDEST PUSH0 PUSH1 0x20 DUP3 ADD SWAP1 POP PUSH2 0x36D0 PUSH0 DUP4 ADD DUP5 PUSH2 0x36AE JUMP JUMPDEST SWAP3 SWAP2 POP POP JUMP JUMPDEST PUSH0 PUSH4 0xFFFFFFFF DUP3 AND SWAP1 POP SWAP2 SWAP1 POP JUMP JUMPDEST PUSH2 0x36EE DUP2 PUSH2 0x36D6 JUMP JUMPDEST DUP2 EQ PUSH2 0x36F8 JUMPI PUSH0 DUP1 REVERT JUMPDEST POP JUMP JUMPDEST PUSH0 DUP2 CALLDATALOAD SWAP1 POP PUSH2 0x3709 DUP2 PUSH2 0x36E5 JUMP JUMPDEST SWAP3 SWAP2 POP POP JUMP JUMPDEST PUSH0 DUP1 PUSH1 0x40 DUP4 DUP6 SUB SLT ISZERO PUSH2 0x3725 JUMPI PUSH2 0x3724 PUSH2 0x3051 JUMP JUMPDEST JUMPDEST PUSH0 PUSH2 0x3732 DUP6 DUP3 DUP7 ADD PUSH2 0x36FB JUMP JUMPDEST SWAP3 POP POP PUSH1 0x20 PUSH2 0x3743 DUP6 DUP3 DUP7 ADD PUSH2 0x341F JUMP JUMPDEST SWAP2 POP POP SWAP3 POP SWAP3 SWAP1 POP JUMP JUMPDEST PUSH2 0x3756 DUP2 PUSH2 0x3124 JUMP JUMPDEST DUP2 EQ PUSH2 0x3760 JUMPI PUSH0 DUP1 REVERT JUMPDEST POP JUMP JUMPDEST PUSH0 DUP2 CALLDATALOAD SWAP1 POP PUSH2 0x3771 DUP2 PUSH2 0x374D JUMP JUMPDEST SWAP3 SWAP2 POP POP JUMP JUMPDEST PUSH0 DUP1 PUSH1 0x40 DUP4 DUP6 SUB SLT ISZERO PUSH2 0x378D JUMPI PUSH2 0x378C PUSH2 0x3051 JUMP JUMPDEST JUMPDEST PUSH0 DUP4 ADD CALLDATALOAD PUSH8 0xFFFFFFFFFFFFFFFF DUP2 GT ISZERO PUSH2 0x37AA JUMPI PUSH2 0x37A9 PUSH2 0x3055 JUMP JUMPDEST JUMPDEST PUSH2 0x37B6 DUP6 DUP3 DUP7 ADD PUSH2 0x315B JUMP JUMPDEST SWAP3 POP POP PUSH1 0x20 PUSH2 0x37C7 DUP6 DUP3 DUP7 ADD PUSH2 0x3763 JUMP JUMPDEST SWAP2 POP POP SWAP3 POP SWAP3 SWAP1 POP JUMP JUMPDEST PUSH1 0x40 DUP3 ADD PUSH0 DUP3 ADD MLOAD PUSH2 0x37E5 PUSH0 DUP6 ADD DUP3 PUSH2 0x31C0 JUMP JUMPDEST POP PUSH1 0x20 DUP3 ADD MLOAD PUSH2 0x37F8 PUSH1 0x20 DUP6 ADD DUP3 PUSH2 0x31C0 JUMP JUMPDEST POP POP POP POP JUMP JUMPDEST PUSH0 PUSH1 0x40 DUP3 ADD SWAP1 POP PUSH2 0x3811 PUSH0 DUP4 ADD DUP5 PUSH2 0x37D1 JUMP JUMPDEST SWAP3 SWAP2 POP POP JUMP JUMPDEST PUSH2 0x3820 DUP2 PUSH2 0x354B JUMP JUMPDEST DUP2 EQ PUSH2 0x382A JUMPI PUSH0 DUP1 REVERT JUMPDEST POP JUMP JUMPDEST PUSH0 DUP2 CALLDATALOAD SWAP1 POP PUSH2 0x383B DUP2 PUSH2 0x3817 JUMP JUMPDEST SWAP3 SWAP2 POP POP JUMP JUMPDEST PUSH0 DUP1 PUSH1 0x40 DUP4 DUP6 SUB SLT ISZERO PUSH2 0x3857 JUMPI PUSH2 0x3856 PUSH2 0x3051 JUMP JUMPDEST JUMPDEST PUSH0 PUSH2 0x3864 DUP6 DUP3 DUP7 ADD PUSH2 0x36FB JUMP JUMPDEST SWAP3 POP POP PUSH1 0x20 PUSH2 0x3875 DUP6 DUP3 DUP7 ADD PUSH2 0x382D JUMP JUMPDEST SWAP2 POP POP SWAP3 POP SWAP3 SWAP1 POP JUMP JUMPDEST PUSH0 DUP2 MLOAD SWAP1 POP SWAP2 SWAP1 POP JUMP JUMPDEST PUSH0 DUP3 DUP3 MSTORE PUSH1 0x20 DUP3 ADD SWAP1 POP SWAP3 SWAP2 POP POP JUMP JUMPDEST PUSH0 PUSH2 0x38A3 DUP3 PUSH2 0x387F JUMP JUMPDEST PUSH2 0x38AD DUP2 DUP6 PUSH2 0x3889 JUMP JUMPDEST SWAP4 POP PUSH2 0x38BD DUP2 DUP6 PUSH1 0x20 DUP7 ADD PUSH2 0x2FB8 JUMP JUMPDEST PUSH2 0x38C6 DUP2 PUSH2 0x2FE0 JUMP JUMPDEST DUP5 ADD SWAP2 POP POP SWAP3 SWAP2 POP POP JUMP JUMPDEST PUSH0 PUSH1 0x20 DUP3 ADD SWAP1 POP DUP2 DUP2 SUB PUSH0 DUP4 ADD MSTORE PUSH2 0x38E9 DUP2 DUP5 PUSH2 0x3899 JUMP JUMPDEST SWAP1 POP SWAP3 SWAP2 POP POP JUMP JUMPDEST PUSH0 DUP2 SWAP1 POP SWAP2 SWAP1 POP JUMP JUMPDEST PUSH0 PUSH2 0x3914 PUSH2 0x390F PUSH2 0x390A DUP5 PUSH2 0x3059 JUMP JUMPDEST PUSH2 0x38F1 JUMP JUMPDEST PUSH2 0x3059 JUMP JUMPDEST SWAP1 POP SWAP2 SWAP1 POP JUMP JUMPDEST PUSH0 PUSH2 0x3925 DUP3 PUSH2 0x38FA JUMP JUMPDEST SWAP1 POP SWAP2 SWAP1 POP JUMP JUMPDEST PUSH0 PUSH2 0x3936 DUP3 PUSH2 0x391B JUMP JUMPDEST SWAP1 POP SWAP2 SWAP1 POP JUMP JUMPDEST PUSH2 0x3946 DUP2 PUSH2 0x392C JUMP JUMPDEST DUP3 MSTORE POP POP JUMP JUMPDEST PUSH0 PUSH1 0x20 DUP3 ADD SWAP1 POP PUSH2 0x395F PUSH0 DUP4 ADD DUP5 PUSH2 0x393D JUMP JUMPDEST SWAP3 SWAP2 POP POP JUMP JUMPDEST PUSH0 PUSH1 0x20 DUP3 DUP5 SUB SLT ISZERO PUSH2 0x397A JUMPI PUSH2 0x3979 PUSH2 0x3051 JUMP JUMPDEST JUMPDEST PUSH0 PUSH2 0x3987 DUP5 DUP3 DUP6 ADD PUSH2 0x309F JUMP JUMPDEST SWAP2 POP POP SWAP3 SWAP2 POP POP JUMP JUMPDEST PUSH0 PUSH1 0x20 DUP3 ADD SWAP1 POP PUSH2 0x39A3 PUSH0 DUP4 ADD DUP5 PUSH2 0x35CD JUMP JUMPDEST SWAP3 SWAP2 POP POP JUMP JUMPDEST PUSH0 DUP1 PUSH0 DUP1 PUSH1 0xA0 DUP6 DUP8 SUB SLT ISZERO PUSH2 0x39C1 JUMPI PUSH2 0x39C0 PUSH2 0x3051 JUMP JUMPDEST JUMPDEST PUSH0 PUSH2 0x39CE DUP8 DUP3 DUP9 ADD PUSH2 0x33E2 JUMP JUMPDEST SWAP5 POP POP PUSH1 0x60 DUP6 ADD CALLDATALOAD PUSH8 0xFFFFFFFFFFFFFFFF DUP2 GT ISZERO PUSH2 0x39EF JUMPI PUSH2 0x39EE PUSH2 0x3055 JUMP JUMPDEST JUMPDEST PUSH2 0x39FB DUP8 DUP3 DUP9 ADD PUSH2 0x343F JUMP JUMPDEST SWAP4 POP SWAP4 POP POP PUSH1 0x80 PUSH2 0x3A0E DUP8 DUP3 DUP9 ADD PUSH2 0x309F JUMP JUMPDEST SWAP2 POP POP SWAP3 SWAP6 SWAP2 SWAP5 POP SWAP3 POP JUMP JUMPDEST PUSH0 DUP1 DUP4 PUSH1 0x1F DUP5 ADD SLT PUSH2 0x3A2F JUMPI PUSH2 0x3A2E PUSH2 0x3433 JUMP JUMPDEST JUMPDEST DUP3 CALLDATALOAD SWAP1 POP PUSH8 0xFFFFFFFFFFFFFFFF DUP2 GT ISZERO PUSH2 0x3A4C JUMPI PUSH2 0x3A4B PUSH2 0x3437 JUMP JUMPDEST JUMPDEST PUSH1 0x20 DUP4 ADD SWAP2 POP DUP4 PUSH1 0x20 DUP3 MUL DUP4 ADD GT ISZERO PUSH2 0x3A68 JUMPI PUSH2 0x3A67 PUSH2 0x343B JUMP JUMPDEST JUMPDEST SWAP3 POP SWAP3 SWAP1 POP JUMP JUMPDEST PUSH0 DUP1 PUSH1 0x20 DUP4 DUP6 SUB SLT ISZERO PUSH2 0x3A85 JUMPI PUSH2 0x3A84 PUSH2 0x3051 JUMP JUMPDEST JUMPDEST PUSH0 DUP4 ADD CALLDATALOAD PUSH8 0xFFFFFFFFFFFFFFFF DUP2 GT ISZERO PUSH2 0x3AA2 JUMPI PUSH2 0x3AA1 PUSH2 0x3055 JUMP JUMPDEST JUMPDEST PUSH2 0x3AAE DUP6 DUP3 DUP7 ADD PUSH2 0x3A1A JUMP JUMPDEST SWAP3 POP SWAP3 POP POP SWAP3 POP SWAP3 SWAP1 POP JUMP JUMPDEST PUSH0 PUSH1 0x20 DUP3 DUP5 SUB SLT ISZERO PUSH2 0x3ACF JUMPI PUSH2 0x3ACE PUSH2 0x3051 JUMP JUMPDEST JUMPDEST PUSH0 PUSH2 0x3ADC DUP5 DUP3 DUP6 ADD PUSH2 0x36FB JUMP JUMPDEST SWAP2 POP POP SWAP3 SWAP2 POP POP JUMP JUMPDEST PUSH2 0x3AEE DUP2 PUSH2 0x3400 JUMP JUMPDEST DUP3 MSTORE POP POP JUMP JUMPDEST PUSH0 PUSH1 0x20 DUP3 ADD SWAP1 POP PUSH2 0x3B07 PUSH0 DUP4 ADD DUP5 PUSH2 0x3AE5 JUMP JUMPDEST SWAP3 SWAP2 POP POP JUMP JUMPDEST PUSH0 DUP1 PUSH0 DUP1 PUSH1 0x60 DUP6 DUP8 SUB SLT ISZERO PUSH2 0x3B25 JUMPI PUSH2 0x3B24 PUSH2 0x3051 JUMP JUMPDEST JUMPDEST PUSH0 PUSH2 0x3B32 DUP8 DUP3 DUP9 ADD PUSH2 0x36FB JUMP JUMPDEST SWAP5 POP POP PUSH1 0x20 PUSH2 0x3B43 DUP8 DUP3 DUP9 ADD PUSH2 0x382D JUMP JUMPDEST SWAP4 POP POP PUSH1 0x40 DUP6 ADD CALLDATALOAD PUSH8 0xFFFFFFFFFFFFFFFF DUP2 GT ISZERO PUSH2 0x3B64 JUMPI PUSH2 0x3B63 PUSH2 0x3055 JUMP JUMPDEST JUMPDEST PUSH2 0x3B70 DUP8 DUP3 DUP9 ADD PUSH2 0x343F JUMP JUMPDEST SWAP3 POP SWAP3 POP POP SWAP3 SWAP6 SWAP2 SWAP5 POP SWAP3 POP JUMP JUMPDEST PUSH0 DUP1 DUP4 PUSH1 0x1F DUP5 ADD SLT PUSH2 0x3B93 JUMPI PUSH2 0x3B92 PUSH2 0x3433 JUMP JUMPDEST JUMPDEST DUP3 CALLDATALOAD SWAP1 POP PUSH8 0xFFFFFFFFFFFFFFFF DUP2 GT ISZERO PUSH2 0x3BB0 JUMPI PUSH2 0x3BAF PUSH2 0x3437 JUMP JUMPDEST JUMPDEST PUSH1 0x20 DUP4 ADD SWAP2 POP DUP4 PUSH1 0x20 DUP3 MUL DUP4 ADD GT ISZERO PUSH2 0x3BCC JUMPI PUSH2 0x3BCB PUSH2 0x343B JUMP JUMPDEST JUMPDEST SWAP3 POP SWAP3 SWAP1 POP JUMP JUMPDEST PUSH0 DUP1 PUSH1 0x20 DUP4 DUP6 SUB SLT ISZERO PUSH2 0x3BE9 JUMPI PUSH2 0x3BE8 PUSH2 0x3051 JUMP JUMPDEST JUMPDEST PUSH0 DUP4 ADD CALLDATALOAD PUSH8 0xFFFFFFFFFFFFFFFF DUP2 GT ISZERO PUSH2 0x3C06 JUMPI PUSH2 0x3C05 PUSH2 0x3055 JUMP JUMPDEST JUMPDEST PUSH2 0x3C12 DUP6 DUP3 DUP7 ADD PUSH2 0x3B7E JUMP JUMPDEST SWAP3 POP SWAP3 POP POP SWAP3 POP SWAP3 SWAP1 POP JUMP JUMPDEST PUSH0 PUSH1 0x40 DUP3 DUP5 SUB SLT ISZERO PUSH2 0x3C33 JUMPI PUSH2 0x3C32 PUSH2 0x3157 JUMP JUMPDEST JUMPDEST DUP2 SWAP1 POP SWAP3 SWAP2 POP POP JUMP JUMPDEST PUSH0 DUP1 PUSH0 PUSH1 0x80 DUP5 DUP7 SUB SLT ISZERO PUSH2 0x3C53 JUMPI PUSH2 0x3C52 PUSH2 0x3051 JUMP JUMPDEST JUMPDEST PUSH0 DUP5 ADD CALLDATALOAD PUSH8 0xFFFFFFFFFFFFFFFF DUP2 GT ISZERO PUSH2 0x3C70 JUMPI PUSH2 0x3C6F PUSH2 0x3055 JUMP JUMPDEST JUMPDEST PUSH2 0x3C7C DUP7 DUP3 DUP8 ADD PUSH2 0x315B JUMP JUMPDEST SWAP4 POP POP PUSH1 0x20 PUSH2 0x3C8D DUP7 DUP3 DUP8 ADD PUSH2 0x3C1E JUMP JUMPDEST SWAP3 POP POP PUSH1 0x60 PUSH2 0x3C9E DUP7 DUP3 DUP8 ADD PUSH2 0x309F JUMP JUMPDEST SWAP2 POP POP SWAP3 POP SWAP3 POP SWAP3 JUMP JUMPDEST PUSH2 0x3CB1 DUP2 PUSH2 0x3400 JUMP JUMPDEST DUP3 MSTORE POP POP JUMP JUMPDEST PUSH2 0x3CC0 DUP2 PUSH2 0x35BA JUMP JUMPDEST DUP3 MSTORE POP POP JUMP JUMPDEST PUSH1 0x40 DUP3 ADD PUSH0 DUP3 ADD MLOAD PUSH2 0x3CDA PUSH0 DUP6 ADD DUP3 PUSH2 0x31C0 JUMP JUMPDEST POP PUSH1 0x20 DUP3 ADD MLOAD PUSH2 0x3CED PUSH1 0x20 DUP6 ADD DUP3 PUSH2 0x31C0 JUMP JUMPDEST POP POP POP POP JUMP JUMPDEST PUSH1 0x80 DUP3 ADD PUSH0 DUP3 ADD MLOAD PUSH2 0x3D07 PUSH0 DUP6 ADD DUP3 PUSH2 0x3CA8 JUMP JUMPDEST POP PUSH1 0x20 DUP3 ADD MLOAD PUSH2 0x3D1A PUSH1 0x20 DUP6 ADD DUP3 PUSH2 0x3CB7 JUMP JUMPDEST POP PUSH1 0x40 DUP3 ADD MLOAD PUSH2 0x3D2D PUSH1 0x40 DUP6 ADD DUP3 PUSH2 0x3CC6 JUMP JUMPDEST POP POP POP POP JUMP JUMPDEST PUSH0 PUSH1 0xC0 DUP3 ADD SWAP1 POP PUSH2 0x3D46 PUSH0 DUP4 ADD DUP6 PUSH2 0x3CF3 JUMP JUMPDEST PUSH2 0x3D53 PUSH1 0x80 DUP4 ADD DUP5 PUSH2 0x3351 JUMP JUMPDEST SWAP4 SWAP3 POP POP POP JUMP JUMPDEST PUSH0 DUP1 PUSH1 0x40 DUP4 DUP6 SUB SLT ISZERO PUSH2 0x3D70 JUMPI PUSH2 0x3D6F PUSH2 0x3051 JUMP JUMPDEST JUMPDEST PUSH0 PUSH2 0x3D7D DUP6 DUP3 DUP7 ADD PUSH2 0x309F JUMP JUMPDEST SWAP3 POP POP PUSH1 0x20 PUSH2 0x3D8E DUP6 DUP3 DUP7 ADD PUSH2 0x309F JUMP JUMPDEST SWAP2 POP POP SWAP3 POP SWAP3 SWAP1 POP JUMP JUMPDEST PUSH0 PUSH1 0x60 DUP3 DUP5 SUB SLT ISZERO PUSH2 0x3DAD JUMPI PUSH2 0x3DAC PUSH2 0x3051 JUMP JUMPDEST JUMPDEST PUSH0 PUSH2 0x3DBA DUP5 DUP3 DUP6 ADD PUSH2 0x33E2 JUMP JUMPDEST SWAP2 POP POP SWAP3 SWAP2 POP POP JUMP JUMPDEST PUSH32 0x4E487B7100000000000000000000000000000000000000000000000000000000 PUSH0 MSTORE PUSH1 0x22 PUSH1 0x4 MSTORE PUSH1 0x24 PUSH0 REVERT JUMPDEST PUSH0 PUSH1 0x2 DUP3 DIV SWAP1 POP PUSH1 0x1 DUP3 AND DUP1 PUSH2 0x3E07 JUMPI PUSH1 0x7F DUP3 AND SWAP2 POP JUMPDEST PUSH1 0x20 DUP3 LT DUP2 SUB PUSH2 0x3E1A JUMPI PUSH2 0x3E19 PUSH2 0x3DC3 JUMP JUMPDEST JUMPDEST POP SWAP2 SWAP1 POP JUMP JUMPDEST PUSH0 DUP2 MLOAD SWAP1 POP PUSH2 0x3E2E DUP2 PUSH2 0x3089 JUMP JUMPDEST SWAP3 SWAP2 POP POP JUMP JUMPDEST PUSH0 PUSH1 0x20 DUP3 DUP5 SUB SLT ISZERO PUSH2 0x3E49 JUMPI PUSH2 0x3E48 PUSH2 0x3051 JUMP JUMPDEST JUMPDEST PUSH0 PUSH2 0x3E56 DUP5 DUP3 DUP6 ADD PUSH2 0x3E20 JUMP JUMPDEST SWAP2 POP POP SWAP3 SWAP2 POP POP JUMP JUMPDEST PUSH0 DUP2 MLOAD SWAP1 POP PUSH2 0x3E6D DUP2 PUSH2 0x30BC JUMP JUMPDEST SWAP3 SWAP2 POP POP JUMP JUMPDEST PUSH0 PUSH1 0x20 DUP3 DUP5 SUB SLT ISZERO PUSH2 0x3E88 JUMPI PUSH2 0x3E87 PUSH2 0x3051 JUMP JUMPDEST JUMPDEST PUSH0 PUSH2 0x3E95 DUP5 DUP3 DUP6 ADD PUSH2 0x3E5F JUMP JUMPDEST SWAP2 POP POP SWAP3 SWAP2 POP POP JUMP JUMPDEST PUSH32 0x4E487B7100000000000000000000000000000000000000000000000000000000 PUSH0 MSTORE PUSH1 0x41 PUSH1 0x4 MSTORE PUSH1 0x24 PUSH0 REVERT JUMPDEST PUSH2 0x3ED4 DUP2 PUSH2 0x36D6 JUMP JUMPDEST DUP3 MSTORE POP POP JUMP JUMPDEST PUSH0 PUSH1 0x40 DUP3 ADD SWAP1 POP PUSH2 0x3EED PUSH0 DUP4 ADD DUP6 PUSH2 0x3ECB JUMP JUMPDEST PUSH2 0x3EFA PUSH1 0x20 DUP4 ADD DUP5 PUSH2 0x3AE5 JUMP JUMPDEST SWAP4 SWAP3 POP POP POP JUMP JUMPDEST PUSH2 0x3F0A DUP3 PUSH2 0x2FE0 JUMP JUMPDEST DUP2 ADD DUP2 DUP2 LT PUSH8 0xFFFFFFFFFFFFFFFF DUP3 GT OR ISZERO PUSH2 0x3F29 JUMPI PUSH2 0x3F28 PUSH2 0x3E9E JUMP JUMPDEST JUMPDEST DUP1 PUSH1 0x40 MSTORE POP POP POP JUMP JUMPDEST PUSH0 PUSH2 0x3F3B PUSH2 0x3048 JUMP JUMPDEST SWAP1 POP PUSH2 0x3F47 DUP3 DUP3 PUSH2 0x3F01 JUMP JUMPDEST SWAP2 SWAP1 POP JUMP JUMPDEST PUSH0 PUSH8 0xFFFFFFFFFFFFFFFF DUP3 GT ISZERO PUSH2 0x3F66 JUMPI PUSH2 0x3F65 PUSH2 0x3E9E JUMP JUMPDEST JUMPDEST PUSH1 0x20 DUP3 MUL SWAP1 POP PUSH1 0x20 DUP2 ADD SWAP1 POP SWAP2 SWAP1 POP JUMP JUMPDEST PUSH0 DUP1 REVERT JUMPDEST PUSH0 DUP1 REVERT JUMPDEST PUSH0 DUP1 REVERT JUMPDEST PUSH0 PUSH8 0xFFFFFFFFFFFFFFFF DUP3 GT ISZERO PUSH2 0x3F9D JUMPI PUSH2 0x3F9C PUSH2 0x3E9E JUMP JUMPDEST JUMPDEST PUSH2 0x3FA6 DUP3 PUSH2 0x2FE0 JUMP JUMPDEST SWAP1 POP PUSH1 0x20 DUP2 ADD SWAP1 POP SWAP2 SWAP1 POP JUMP JUMPDEST DUP3 DUP2 DUP4 CALLDATACOPY PUSH0 DUP4 DUP4 ADD MSTORE POP POP POP JUMP JUMPDEST PUSH0 PUSH2 0x3FD3 PUSH2 0x3FCE DUP5 PUSH2 0x3F83 JUMP JUMPDEST PUSH2 0x3F32 JUMP JUMPDEST SWAP1 POP DUP3 DUP2 MSTORE PUSH1 0x20 DUP2 ADD DUP5 DUP5 DUP5 ADD GT ISZERO PUSH2 0x3FEF JUMPI PUSH2 0x3FEE PUSH2 0x3F7F JUMP JUMPDEST JUMPDEST PUSH2 0x3FFA DUP5 DUP3 DUP6 PUSH2 0x3FB3 JUMP JUMPDEST POP SWAP4 SWAP3 POP POP POP JUMP JUMPDEST PUSH0 DUP3 PUSH1 0x1F DUP4 ADD SLT PUSH2 0x4016 JUMPI PUSH2 0x4015 PUSH2 0x3433 JUMP JUMPDEST JUMPDEST DUP2 CALLDATALOAD PUSH2 0x4026 DUP5 DUP3 PUSH1 0x20 DUP7 ADD PUSH2 0x3FC1 JUMP JUMPDEST SWAP2 POP POP SWAP3 SWAP2 POP POP JUMP JUMPDEST PUSH0 PUSH1 0x60 DUP3 DUP5 SUB SLT ISZERO PUSH2 0x4044 JUMPI PUSH2 0x4043 PUSH2 0x3F77 JUMP JUMPDEST JUMPDEST PUSH2 0x404E PUSH1 0x60 PUSH2 0x3F32 JUMP JUMPDEST SWAP1 POP PUSH0 PUSH2 0x405D DUP5 DUP3 DUP6 ADD PUSH2 0x36FB JUMP JUMPDEST PUSH0 DUP4 ADD MSTORE POP PUSH1 0x20 PUSH2 0x4070 DUP5 DUP3 DUP6 ADD PUSH2 0x382D JUMP JUMPDEST PUSH1 0x20 DUP4 ADD MSTORE POP PUSH1 0x40 DUP3 ADD CALLDATALOAD PUSH8 0xFFFFFFFFFFFFFFFF DUP2 GT ISZERO PUSH2 0x4094 JUMPI PUSH2 0x4093 PUSH2 0x3F7B JUMP JUMPDEST JUMPDEST PUSH2 0x40A0 DUP5 DUP3 DUP6 ADD PUSH2 0x4002 JUMP JUMPDEST PUSH1 0x40 DUP4 ADD MSTORE POP SWAP3 SWAP2 POP POP JUMP JUMPDEST PUSH0 PUSH2 0x40BE PUSH2 0x40B9 DUP5 PUSH2 0x3F4C JUMP JUMPDEST PUSH2 0x3F32 JUMP JUMPDEST SWAP1 POP DUP1 DUP4 DUP3 MSTORE PUSH1 0x20 DUP3 ADD SWAP1 POP PUSH1 0x20 DUP5 MUL DUP4 ADD DUP6 DUP2 GT ISZERO PUSH2 0x40E1 JUMPI PUSH2 0x40E0 PUSH2 0x343B JUMP JUMPDEST JUMPDEST DUP4 JUMPDEST DUP2 DUP2 LT ISZERO PUSH2 0x4128 JUMPI DUP1 CALLDATALOAD PUSH8 0xFFFFFFFFFFFFFFFF DUP2 GT ISZERO PUSH2 0x4106 JUMPI PUSH2 0x4105 PUSH2 0x3433 JUMP JUMPDEST JUMPDEST DUP1 DUP7 ADD PUSH2 0x4113 DUP10 DUP3 PUSH2 0x402F JUMP JUMPDEST DUP6 MSTORE PUSH1 0x20 DUP6 ADD SWAP5 POP POP POP PUSH1 0x20 DUP2 ADD SWAP1 POP PUSH2 0x40E3 JUMP JUMPDEST POP POP POP SWAP4 SWAP3 POP POP POP JUMP JUMPDEST PUSH0 PUSH2 0x413E CALLDATASIZE DUP5 DUP5 PUSH2 0x40AC JUMP JUMPDEST SWAP1 POP SWAP3 SWAP2 POP POP JUMP JUMPDEST PUSH0 DUP1 REVERT JUMPDEST PUSH0 DUP1 REVERT JUMPDEST PUSH0 DUP1 DUP6 DUP6 GT ISZERO PUSH2 0x4161 JUMPI PUSH2 0x4160 PUSH2 0x4146 JUMP JUMPDEST JUMPDEST DUP4 DUP7 GT ISZERO PUSH2 0x4172 JUMPI PUSH2 0x4171 PUSH2 0x414A JUMP JUMPDEST JUMPDEST PUSH1 0x1 DUP6 MUL DUP4 ADD SWAP2 POP DUP5 DUP7 SUB SWAP1 POP SWAP5 POP SWAP5 SWAP3 POP POP POP JUMP JUMPDEST PUSH0 DUP2 SWAP1 POP SWAP3 SWAP2 POP POP JUMP JUMPDEST PUSH0 PUSH2 0x419C DUP3 PUSH2 0x387F JUMP JUMPDEST PUSH2 0x41A6 DUP2 DUP6 PUSH2 0x4188 JUMP JUMPDEST SWAP4 POP PUSH2 0x41B6 DUP2 DUP6 PUSH1 0x20 DUP7 ADD PUSH2 0x2FB8 JUMP JUMPDEST DUP1 DUP5 ADD SWAP2 POP POP SWAP3 SWAP2 POP POP JUMP JUMPDEST PUSH0 PUSH2 0x41CD DUP4 DUP6 PUSH2 0x4188 JUMP JUMPDEST SWAP4 POP PUSH2 0x41DA DUP4 DUP6 DUP5 PUSH2 0x3FB3 JUMP JUMPDEST DUP3 DUP5 ADD SWAP1 POP SWAP4 SWAP3 POP POP POP JUMP JUMPDEST PUSH0 PUSH2 0x41F1 DUP3 DUP7 PUSH2 0x4192 JUMP JUMPDEST SWAP2 POP PUSH2 0x41FE DUP3 DUP5 DUP7 PUSH2 0x41C2 JUMP JUMPDEST SWAP2 POP DUP2 SWAP1 POP SWAP5 SWAP4 POP POP POP POP JUMP JUMPDEST PUSH0 PUSH2 0x4216 DUP4 DUP6 PUSH2 0x3889 JUMP JUMPDEST SWAP4 POP PUSH2 0x4223 DUP4 DUP6 DUP5 PUSH2 0x3FB3 JUMP JUMPDEST PUSH2 0x422C DUP4 PUSH2 0x2FE0 JUMP JUMPDEST DUP5 ADD SWAP1 POP SWAP4 SWAP3 POP POP POP JUMP JUMPDEST PUSH0 PUSH1 0x20 DUP3 ADD SWAP1 POP DUP2 DUP2 SUB PUSH0 DUP4 ADD MSTORE PUSH2 0x4250 DUP2 DUP5 DUP7 PUSH2 0x420B JUMP JUMPDEST SWAP1 POP SWAP4 SWAP3 POP POP POP JUMP JUMPDEST PUSH32 0x4E487B7100000000000000000000000000000000000000000000000000000000 PUSH0 MSTORE PUSH1 0x32 PUSH1 0x4 MSTORE PUSH1 0x24 PUSH0 REVERT JUMPDEST PUSH0 DUP1 REVERT JUMPDEST PUSH0 DUP1 REVERT JUMPDEST PUSH0 DUP1 REVERT JUMPDEST PUSH0 DUP3 CALLDATALOAD PUSH1 0x1 PUSH2 0x140 SUB DUP4 CALLDATASIZE SUB SUB DUP2 SLT PUSH2 0x42AE JUMPI PUSH2 0x42AD PUSH2 0x4286 JUMP JUMPDEST JUMPDEST DUP1 DUP4 ADD SWAP2 POP POP SWAP3 SWAP2 POP POP JUMP JUMPDEST PUSH0 DUP1 DUP4 CALLDATALOAD PUSH1 0x1 PUSH1 0x20 SUB DUP5 CALLDATASIZE SUB SUB DUP2 SLT PUSH2 0x42D6 JUMPI PUSH2 0x42D5 PUSH2 0x4286 JUMP JUMPDEST JUMPDEST DUP1 DUP5 ADD SWAP3 POP DUP3 CALLDATALOAD SWAP2 POP PUSH8 0xFFFFFFFFFFFFFFFF DUP3 GT ISZERO PUSH2 0x42F8 JUMPI PUSH2 0x42F7 PUSH2 0x428A JUMP JUMPDEST JUMPDEST PUSH1 0x20 DUP4 ADD SWAP3 POP PUSH1 0x1 DUP3 MUL CALLDATASIZE SUB DUP4 SGT ISZERO PUSH2 0x4314 JUMPI PUSH2 0x4313 PUSH2 0x428E JUMP JUMPDEST JUMPDEST POP SWAP3 POP SWAP3 SWAP1 POP JUMP JUMPDEST PUSH0 PUSH2 0x432A PUSH1 0x20 DUP5 ADD DUP5 PUSH2 0x36FB JUMP JUMPDEST SWAP1 POP SWAP3 SWAP2 POP POP JUMP JUMPDEST PUSH2 0x433B DUP2 PUSH2 0x36D6 JUMP JUMPDEST DUP3 MSTORE POP POP JUMP JUMPDEST PUSH0 PUSH2 0x434F PUSH1 0x20 DUP5 ADD DUP5 PUSH2 0x341F JUMP JUMPDEST SWAP1 POP SWAP3 SWAP2 POP POP JUMP JUMPDEST PUSH2 0x4360 DUP2 PUSH2 0x35BA JUMP JUMPDEST DUP2 EQ PUSH2 0x436A JUMPI PUSH0 DUP1 REVERT JUMPDEST POP JUMP JUMPDEST PUSH0 DUP2 CALLDATALOAD SWAP1 POP PUSH2 0x437B DUP2 PUSH2 0x4357 JUMP JUMPDEST SWAP3 SWAP2 POP POP JUMP JUMPDEST PUSH0 PUSH2 0x438F PUSH1 0x20 DUP5 ADD DUP5 PUSH2 0x436D JUMP JUMPDEST SWAP1 POP SWAP3 SWAP2 POP POP JUMP JUMPDEST PUSH1 0x60 DUP3 ADD PUSH2 0x43A7 PUSH0 DUP4 ADD DUP4 PUSH2 0x431C JUMP JUMPDEST PUSH2 0x43B3 PUSH0 DUP6 ADD DUP3 PUSH2 0x4332 JUMP JUMPDEST POP PUSH2 0x43C1 PUSH1 0x20 DUP4 ADD DUP4 PUSH2 0x4341 JUMP JUMPDEST PUSH2 0x43CE PUSH1 0x20 DUP6 ADD DUP3 PUSH2 0x3CA8 JUMP JUMPDEST POP PUSH2 0x43DC PUSH1 0x40 DUP4 ADD DUP4 PUSH2 0x4381 JUMP JUMPDEST PUSH2 0x43E9 PUSH1 0x40 DUP6 ADD DUP3 PUSH2 0x3CB7 JUMP JUMPDEST POP POP POP POP JUMP JUMPDEST PUSH0 PUSH1 0xE0 DUP3 ADD SWAP1 POP PUSH2 0x4402 PUSH0 DUP4 ADD DUP11 PUSH2 0x4397 JUMP JUMPDEST PUSH2 0x440F PUSH1 0x60 DUP4 ADD DUP10 PUSH2 0x3AE5 JUMP JUMPDEST DUP2 DUP2 SUB PUSH1 0x80 DUP4 ADD MSTORE PUSH2 0x4422 DUP2 DUP8 DUP10 PUSH2 0x420B JUMP JUMPDEST SWAP1 POP PUSH2 0x4431 PUSH1 0xA0 DUP4 ADD DUP7 PUSH2 0x33BA JUMP JUMPDEST DUP2 DUP2 SUB PUSH1 0xC0 DUP4 ADD MSTORE PUSH2 0x4444 DUP2 DUP5 DUP7 PUSH2 0x420B JUMP JUMPDEST SWAP1 POP SWAP9 SWAP8 POP POP POP POP POP POP POP POP JUMP JUMPDEST PUSH0 PUSH2 0x4464 PUSH2 0x445F DUP5 PUSH2 0x3F83 JUMP JUMPDEST PUSH2 0x3F32 JUMP JUMPDEST SWAP1 POP DUP3 DUP2 MSTORE PUSH1 0x20 DUP2 ADD DUP5 DUP5 DUP5 ADD GT ISZERO PUSH2 0x4480 JUMPI PUSH2 0x447F PUSH2 0x3F7F JUMP JUMPDEST JUMPDEST PUSH2 0x448B DUP5 DUP3 DUP6 PUSH2 0x2FB8 JUMP JUMPDEST POP SWAP4 SWAP3 POP POP POP JUMP JUMPDEST PUSH0 DUP3 PUSH1 0x1F DUP4 ADD SLT PUSH2 0x44A7 JUMPI PUSH2 0x44A6 PUSH2 0x3433 JUMP JUMPDEST JUMPDEST DUP2 MLOAD PUSH2 0x44B7 DUP5 DUP3 PUSH1 0x20 DUP7 ADD PUSH2 0x4452 JUMP JUMPDEST SWAP2 POP POP SWAP3 SWAP2 POP POP JUMP JUMPDEST PUSH0 PUSH1 0x20 DUP3 DUP5 SUB SLT ISZERO PUSH2 0x44D5 JUMPI PUSH2 0x44D4 PUSH2 0x3051 JUMP JUMPDEST JUMPDEST PUSH0 DUP3 ADD MLOAD PUSH8 0xFFFFFFFFFFFFFFFF DUP2 GT ISZERO PUSH2 0x44F2 JUMPI PUSH2 0x44F1 PUSH2 0x3055 JUMP JUMPDEST JUMPDEST PUSH2 0x44FE DUP5 DUP3 DUP6 ADD PUSH2 0x4493 JUMP JUMPDEST SWAP2 POP POP SWAP3 SWAP2 POP POP JUMP JUMPDEST PUSH0 PUSH1 0x40 DUP3 ADD SWAP1 POP PUSH2 0x451A PUSH0 DUP4 ADD DUP6 PUSH2 0x362A JUMP JUMPDEST PUSH2 0x4527 PUSH1 0x20 DUP4 ADD DUP5 PUSH2 0x362A JUMP JUMPDEST SWAP4 SWAP3 POP POP POP JUMP JUMPDEST PUSH0 PUSH1 0x20 DUP3 ADD SWAP1 POP PUSH2 0x4541 PUSH0 DUP4 ADD DUP5 PUSH2 0x3ECB JUMP JUMPDEST SWAP3 SWAP2 POP POP JUMP JUMPDEST PUSH0 PUSH1 0x20 DUP3 DUP5 SUB SLT ISZERO PUSH2 0x455C JUMPI PUSH2 0x455B PUSH2 0x3051 JUMP JUMPDEST JUMPDEST PUSH0 PUSH2 0x4569 DUP5 DUP3 DUP6 ADD PUSH2 0x436D JUMP JUMPDEST SWAP2 POP POP SWAP3 SWAP2 POP POP JUMP JUMPDEST PUSH0 DUP2 SWAP1 POP SWAP2 SWAP1 POP JUMP JUMPDEST PUSH0 PUSH2 0x4595 PUSH2 0x4590 PUSH2 0x458B DUP5 PUSH2 0x4572 JUMP JUMPDEST PUSH2 0x38F1 JUMP JUMPDEST PUSH2 0x354B JUMP JUMPDEST SWAP1 POP SWAP2 SWAP1 POP JUMP JUMPDEST PUSH2 0x45A5 DUP2 PUSH2 0x457B JUMP JUMPDEST DUP3 MSTORE POP POP JUMP JUMPDEST PUSH0 PUSH1 0x80 DUP3 ADD SWAP1 POP PUSH2 0x45BE PUSH0 DUP4 ADD DUP8 PUSH2 0x33BA JUMP JUMPDEST PUSH2 0x45CB PUSH1 0x20 DUP4 ADD DUP7 PUSH2 0x3AE5 JUMP JUMPDEST PUSH2 0x45D8 PUSH1 0x40 DUP4 ADD DUP6 PUSH2 0x459C JUMP JUMPDEST DUP2 DUP2 SUB PUSH1 0x60 DUP4 ADD MSTORE PUSH2 0x45EA DUP2 DUP5 PUSH2 0x3899 JUMP JUMPDEST SWAP1 POP SWAP6 SWAP5 POP POP POP POP POP JUMP JUMPDEST PUSH0 PUSH1 0x40 DUP3 ADD SWAP1 POP PUSH2 0x4608 PUSH0 DUP4 ADD DUP6 PUSH2 0x3ECB JUMP JUMPDEST PUSH2 0x4615 PUSH1 0x20 DUP4 ADD DUP5 PUSH2 0x362A JUMP JUMPDEST SWAP4 SWAP3 POP POP POP JUMP JUMPDEST PUSH0 PUSH1 0x60 DUP3 ADD SWAP1 POP PUSH2 0x462F PUSH0 DUP4 ADD DUP7 PUSH2 0x33BA JUMP JUMPDEST PUSH2 0x463C PUSH1 0x20 DUP4 ADD DUP6 PUSH2 0x362A JUMP JUMPDEST PUSH2 0x4649 PUSH1 0x40 DUP4 ADD DUP5 PUSH2 0x362A JUMP JUMPDEST SWAP5 SWAP4 POP POP POP POP JUMP JUMPDEST PUSH0 PUSH1 0x40 DUP3 ADD SWAP1 POP DUP2 DUP2 SUB PUSH0 DUP4 ADD MSTORE PUSH2 0x4669 DUP2 DUP6 PUSH2 0x3899 JUMP JUMPDEST SWAP1 POP DUP2 DUP2 SUB PUSH1 0x20 DUP4 ADD MSTORE PUSH2 0x467D DUP2 DUP5 PUSH2 0x3899 JUMP JUMPDEST SWAP1 POP SWAP4 SWAP3 POP POP POP JUMP JUMPDEST PUSH0 DUP2 MLOAD SWAP1 POP PUSH2 0x4694 DUP2 PUSH2 0x374D JUMP JUMPDEST SWAP3 SWAP2 POP POP JUMP JUMPDEST PUSH0 PUSH1 0x20 DUP3 DUP5 SUB SLT ISZERO PUSH2 0x46AF JUMPI PUSH2 0x46AE PUSH2 0x3051 JUMP JUMPDEST JUMPDEST PUSH0 PUSH2 0x46BC DUP5 DUP3 DUP6 ADD PUSH2 0x4686 JUMP JUMPDEST SWAP2 POP POP SWAP3 SWAP2 POP POP JUMP JUMPDEST PUSH0 DUP3 DUP3 MSTORE PUSH1 0x20 DUP3 ADD SWAP1 POP SWAP3 SWAP2 POP POP JUMP JUMPDEST PUSH0 PUSH2 0x46DF DUP3 PUSH2 0x387F JUMP JUMPDEST PUSH2 0x46E9 DUP2 DUP6 PUSH2 0x46C5 JUMP JUMPDEST SWAP4 POP PUSH2 0x46F9 DUP2 DUP6 PUSH1 0x20 DUP7 ADD PUSH2 0x2FB8 JUMP JUMPDEST PUSH2 0x4702 DUP2 PUSH2 0x2FE0 JUMP JUMPDEST DUP5 ADD SWAP2 POP POP SWAP3 SWAP2 POP POP JUMP JUMPDEST PUSH2 0x4716 DUP2 PUSH2 0x3124 JUMP JUMPDEST DUP3 MSTORE POP POP JUMP JUMPDEST PUSH0 PUSH1 0xA0 DUP4 ADD PUSH0 DUP4 ADD MLOAD PUSH2 0x4731 PUSH0 DUP7 ADD DUP3 PUSH2 0x4332 JUMP JUMPDEST POP PUSH1 0x20 DUP4 ADD MLOAD PUSH2 0x4744 PUSH1 0x20 DUP7 ADD DUP3 PUSH2 0x3CA8 JUMP JUMPDEST POP PUSH1 0x40 DUP4 ADD MLOAD DUP5 DUP3 SUB PUSH1 0x40 DUP7 ADD MSTORE PUSH2 0x475C DUP3 DUP3 PUSH2 0x46D5 JUMP JUMPDEST SWAP2 POP POP PUSH1 0x60 DUP4 ADD MLOAD DUP5 DUP3 SUB PUSH1 0x60 DUP7 ADD MSTORE PUSH2 0x4776 DUP3 DUP3 PUSH2 0x46D5 JUMP JUMPDEST SWAP2 POP POP PUSH1 0x80 DUP4 ADD MLOAD PUSH2 0x478B PUSH1 0x80 DUP7 ADD DUP3 PUSH2 0x470D JUMP JUMPDEST POP DUP1 SWAP2 POP POP SWAP3 SWAP2 POP POP JUMP JUMPDEST PUSH0 PUSH1 0x40 DUP3 ADD SWAP1 POP DUP2 DUP2 SUB PUSH0 DUP4 ADD MSTORE PUSH2 0x47AE DUP2 DUP6 PUSH2 0x471C JUMP JUMPDEST SWAP1 POP PUSH2 0x47BD PUSH1 0x20 DUP4 ADD DUP5 PUSH2 0x33BA JUMP JUMPDEST SWAP4 SWAP3 POP POP POP JUMP JUMPDEST PUSH0 PUSH1 0x40 DUP3 DUP5 SUB SLT ISZERO PUSH2 0x47D9 JUMPI PUSH2 0x47D8 PUSH2 0x3F77 JUMP JUMPDEST JUMPDEST PUSH2 0x47E3 PUSH1 0x40 PUSH2 0x3F32 JUMP JUMPDEST SWAP1 POP PUSH0 PUSH2 0x47F2 DUP5 DUP3 DUP6 ADD PUSH2 0x3E5F JUMP JUMPDEST PUSH0 DUP4 ADD MSTORE POP PUSH1 0x20 PUSH2 0x4805 DUP5 DUP3 DUP6 ADD PUSH2 0x3E5F JUMP JUMPDEST PUSH1 0x20 DUP4 ADD MSTORE POP SWAP3 SWAP2 POP POP JUMP JUMPDEST PUSH0 PUSH1 0x40 DUP3 DUP5 SUB SLT ISZERO PUSH2 0x4826 JUMPI PUSH2 0x4825 PUSH2 0x3051 JUMP JUMPDEST JUMPDEST PUSH0 PUSH2 0x4833 DUP5 DUP3 DUP6 ADD PUSH2 0x47C4 JUMP JUMPDEST SWAP2 POP POP SWAP3 SWAP2 POP POP JUMP JUMPDEST PUSH0 DUP2 SWAP1 POP DUP2 PUSH0 MSTORE PUSH1 0x20 PUSH0 KECCAK256 SWAP1 POP SWAP2 SWAP1 POP JUMP JUMPDEST PUSH0 PUSH1 0x20 PUSH1 0x1F DUP4 ADD DIV SWAP1 POP SWAP2 SWAP1 POP JUMP JUMPDEST PUSH0 DUP3 DUP3 SHL SWAP1 POP SWAP3 SWAP2 POP POP JUMP JUMPDEST PUSH0 PUSH1 0x8 DUP4 MUL PUSH2 0x4898 PUSH32 0xFFFFFFFFFFFFFFFFFFFFFFFFFFFFFFFFFFFFFFFFFFFFFFFFFFFFFFFFFFFFFFFF DUP3 PUSH2 0x485D JUMP JUMPDEST PUSH2 0x48A2 DUP7 DUP4 PUSH2 0x485D JUMP JUMPDEST SWAP6 POP DUP1 NOT DUP5 AND SWAP4 POP DUP1 DUP7 AND DUP5 OR SWAP3 POP POP POP SWAP4 SWAP3 POP POP POP JUMP JUMPDEST PUSH0 PUSH2 0x48D4 PUSH2 0x48CF PUSH2 0x48CA DUP5 PUSH2 0x30B3 JUMP JUMPDEST PUSH2 0x38F1 JUMP JUMPDEST PUSH2 0x30B3 JUMP JUMPDEST SWAP1 POP SWAP2 SWAP1 POP JUMP JUMPDEST PUSH0 DUP2 SWAP1 POP SWAP2 SWAP1 POP JUMP JUMPDEST PUSH2 0x48ED DUP4 PUSH2 0x48BA JUMP JUMPDEST PUSH2 0x4901 PUSH2 0x48F9 DUP3 PUSH2 0x48DB JUMP JUMPDEST DUP5 DUP5 SLOAD PUSH2 0x4869 JUMP JUMPDEST DUP3 SSTORE POP POP POP POP JUMP JUMPDEST PUSH0 SWAP1 JUMP JUMPDEST PUSH2 0x4915 PUSH2 0x4909 JUMP JUMPDEST PUSH2 0x4920 DUP2 DUP5 DUP5 PUSH2 0x48E4 JUMP JUMPDEST POP POP POP JUMP JUMPDEST JUMPDEST DUP2 DUP2 LT ISZERO PUSH2 0x4943 JUMPI PUSH2 0x4938 PUSH0 DUP3 PUSH2 0x490D JUMP JUMPDEST PUSH1 0x1 DUP2 ADD SWAP1 POP PUSH2 0x4926 JUMP JUMPDEST POP POP JUMP JUMPDEST PUSH1 0x1F DUP3 GT ISZERO PUSH2 0x4988 JUMPI PUSH2 0x4959 DUP2 PUSH2 0x483C JUMP JUMPDEST PUSH2 0x4962 DUP5 PUSH2 0x484E JUMP JUMPDEST DUP2 ADD PUSH1 0x20 DUP6 LT ISZERO PUSH2 0x4971 JUMPI DUP2 SWAP1 POP JUMPDEST PUSH2 0x4985 PUSH2 0x497D DUP6 PUSH2 0x484E JUMP JUMPDEST DUP4 ADD DUP3 PUSH2 0x4925 JUMP JUMPDEST POP POP JUMPDEST POP POP POP JUMP JUMPDEST PUSH0 DUP3 DUP3 SHR SWAP1 POP SWAP3 SWAP2 POP POP JUMP JUMPDEST PUSH0 PUSH2 0x49A8 PUSH0 NOT DUP5 PUSH1 0x8 MUL PUSH2 0x498D JUMP JUMPDEST NOT DUP1 DUP4 AND SWAP2 POP POP SWAP3 SWAP2 POP POP JUMP JUMPDEST PUSH0 PUSH2 0x49C0 DUP4 DUP4 PUSH2 0x4999 JUMP JUMPDEST SWAP2 POP DUP3 PUSH1 0x2 MUL DUP3 OR SWAP1 POP SWAP3 SWAP2 POP POP JUMP JUMPDEST PUSH2 0x49D9 DUP3 PUSH2 0x387F JUMP JUMPDEST PUSH8 0xFFFFFFFFFFFFFFFF DUP2 GT ISZERO PUSH2 0x49F2 JUMPI PUSH2 0x49F1 PUSH2 0x3E9E JUMP JUMPDEST JUMPDEST PUSH2 0x49FC DUP3 SLOAD PUSH2 0x3DF0 JUMP JUMPDEST PUSH2 0x4A07 DUP3 DUP3 DUP6 PUSH2 0x4947 JUMP JUMPDEST PUSH0 PUSH1 0x20 SWAP1 POP PUSH1 0x1F DUP4 GT PUSH1 0x1 DUP2 EQ PUSH2 0x4A38 JUMPI PUSH0 DUP5 ISZERO PUSH2 0x4A26 JUMPI DUP3 DUP8 ADD MLOAD SWAP1 POP JUMPDEST PUSH2 0x4A30 DUP6 DUP3 PUSH2 0x49B5 JUMP JUMPDEST DUP7 SSTORE POP PUSH2 0x4A97 JUMP JUMPDEST PUSH1 0x1F NOT DUP5 AND PUSH2 0x4A46 DUP7 PUSH2 0x483C JUMP JUMPDEST PUSH0 JUMPDEST DUP3 DUP2 LT ISZERO PUSH2 0x4A6D JUMPI DUP5 DUP10 ADD MLOAD DUP3 SSTORE PUSH1 0x1 DUP3 ADD SWAP2 POP PUSH1 0x20 DUP6 ADD SWAP5 POP PUSH1 0x20 DUP2 ADD SWAP1 POP PUSH2 0x4A48 JUMP JUMPDEST DUP7 DUP4 LT ISZERO PUSH2 0x4A8A JUMPI DUP5 DUP10 ADD MLOAD PUSH2 0x4A86 PUSH1 0x1F DUP10 AND DUP3 PUSH2 0x4999 JUMP JUMPDEST DUP4 SSTORE POP JUMPDEST PUSH1 0x1 PUSH1 0x2 DUP9 MUL ADD DUP9 SSTORE POP POP POP JUMPDEST POP POP POP POP POP POP JUMP JUMPDEST PUSH0 DUP2 MLOAD SWAP1 POP SWAP2 SWAP1 POP JUMP JUMPDEST PUSH0 DUP3 DUP3 MSTORE PUSH1 0x20 DUP3 ADD SWAP1 POP SWAP3 SWAP2 POP POP JUMP JUMPDEST PUSH0 DUP2 SWAP1 POP PUSH1 0x20 DUP3 ADD SWAP1 POP SWAP2 SWAP1 POP JUMP JUMPDEST PUSH2 0x4AD1 DUP2 PUSH2 0x354B JUMP JUMPDEST DUP3 MSTORE POP POP JUMP JUMPDEST PUSH0 PUSH1 0x60 DUP4 ADD PUSH0 DUP4 ADD MLOAD PUSH2 0x4AEC PUSH0 DUP7 ADD DUP3 PUSH2 0x4332 JUMP JUMPDEST POP PUSH1 0x20 DUP4 ADD MLOAD PUSH2 0x4AFF PUSH1 0x20 DUP7 ADD DUP3 PUSH2 0x4AC8 JUMP JUMPDEST POP PUSH1 0x40 DUP4 ADD MLOAD DUP5 DUP3 SUB PUSH1 0x40 DUP7 ADD MSTORE PUSH2 0x4B17 DUP3 DUP3 PUSH2 0x46D5 JUMP JUMPDEST SWAP2 POP POP DUP1 SWAP2 POP POP SWAP3 SWAP2 POP POP JUMP JUMPDEST PUSH0 PUSH2 0x4B2F DUP4 DUP4 PUSH2 0x4AD7 JUMP JUMPDEST SWAP1 POP SWAP3 SWAP2 POP POP JUMP JUMPDEST PUSH0 PUSH1 0x20 DUP3 ADD SWAP1 POP SWAP2 SWAP1 POP JUMP JUMPDEST PUSH0 PUSH2 0x4B4D DUP3 PUSH2 0x4A9F JUMP JUMPDEST PUSH2 0x4B57 DUP2 DUP6 PUSH2 0x4AA9 JUMP JUMPDEST SWAP4 POP DUP4 PUSH1 0x20 DUP3 MUL DUP6 ADD PUSH2 0x4B69 DUP6 PUSH2 0x4AB9 JUMP JUMPDEST DUP1 PUSH0 JUMPDEST DUP6 DUP2 LT ISZERO PUSH2 0x4BA4 JUMPI DUP5 DUP5 SUB DUP10 MSTORE DUP2 MLOAD PUSH2 0x4B85 DUP6 DUP3 PUSH2 0x4B24 JUMP JUMPDEST SWAP5 POP PUSH2 0x4B90 DUP4 PUSH2 0x4B37 JUMP JUMPDEST SWAP3 POP PUSH1 0x20 DUP11 ADD SWAP10 POP POP PUSH1 0x1 DUP2 ADD SWAP1 POP PUSH2 0x4B6C JUMP JUMPDEST POP DUP3 SWAP8 POP DUP8 SWAP6 POP POP POP POP POP POP SWAP3 SWAP2 POP POP JUMP JUMPDEST PUSH0 PUSH1 0x20 DUP3 ADD SWAP1 POP DUP2 DUP2 SUB PUSH0 DUP4 ADD MSTORE PUSH2 0x4BCE DUP2 DUP5 PUSH2 0x4B43 JUMP JUMPDEST SWAP1 POP SWAP3 SWAP2 POP POP JUMP JUMPDEST PUSH0 PUSH1 0x40 DUP3 DUP5 SUB SLT ISZERO PUSH2 0x4BEB JUMPI PUSH2 0x4BEA PUSH2 0x3F77 JUMP JUMPDEST JUMPDEST PUSH2 0x4BF5 PUSH1 0x40 PUSH2 0x3F32 JUMP JUMPDEST SWAP1 POP PUSH0 PUSH2 0x4C04 DUP5 DUP3 DUP6 ADD PUSH2 0x30D2 JUMP JUMPDEST PUSH0 DUP4 ADD MSTORE POP PUSH1 0x20 PUSH2 0x4C17 DUP5 DUP3 DUP6 ADD PUSH2 0x30D2 JUMP JUMPDEST PUSH1 0x20 DUP4 ADD MSTORE POP SWAP3 SWAP2 POP POP JUMP JUMPDEST PUSH0 PUSH1 0x40 DUP3 DUP5 SUB SLT ISZERO PUSH2 0x4C38 JUMPI PUSH2 0x4C37 PUSH2 0x3051 JUMP JUMPDEST JUMPDEST PUSH0 PUSH2 0x4C45 DUP5 DUP3 DUP6 ADD PUSH2 0x4BD6 JUMP JUMPDEST SWAP2 POP POP SWAP3 SWAP2 POP POP JUMP JUMPDEST PUSH0 PUSH1 0x60 DUP3 ADD SWAP1 POP PUSH2 0x4C61 PUSH0 DUP4 ADD DUP7 PUSH2 0x3ECB JUMP JUMPDEST PUSH2 0x4C6E PUSH1 0x20 DUP4 ADD DUP6 PUSH2 0x362A JUMP JUMPDEST PUSH2 0x4C7B PUSH1 0x40 DUP4 ADD DUP5 PUSH2 0x362A JUMP JUMPDEST SWAP5 SWAP4 POP POP POP POP JUMP JUMPDEST PUSH32 0x4E487B7100000000000000000000000000000000000000000000000000000000 PUSH0 MSTORE PUSH1 0x12 PUSH1 0x4 MSTORE PUSH1 0x24 PUSH0 REVERT JUMPDEST PUSH32 0x4E487B7100000000000000000000000000000000000000000000000000000000 PUSH0 MSTORE PUSH1 0x11 PUSH1 0x4 MSTORE PUSH1 0x24 PUSH0 REVERT JUMPDEST PUSH0 PUSH2 0x4CE7 DUP3 PUSH2 0x30B3 JUMP JUMPDEST SWAP2 POP PUSH2 0x4CF2 DUP4 PUSH2 0x30B3 JUMP JUMPDEST SWAP3 POP DUP3 PUSH2 0x4D02 JUMPI PUSH2 0x4D01 PUSH2 0x4C83 JUMP JUMPDEST JUMPDEST DUP3 DUP3 DIV SWAP1 POP SWAP3 SWAP2 POP POP JUMP JUMPDEST PUSH0 PUSH2 0x4D17 DUP3 PUSH2 0x30B3 JUMP JUMPDEST SWAP2 POP PUSH2 0x4D22 DUP4 PUSH2 0x30B3 JUMP JUMPDEST SWAP3 POP DUP3 DUP3 MUL PUSH2 0x4D30 DUP2 PUSH2 0x30B3 JUMP JUMPDEST SWAP2 POP DUP3 DUP3 DIV DUP5 EQ DUP4 ISZERO OR PUSH2 0x4D47 JUMPI PUSH2 0x4D46 PUSH2 0x4CB0 JUMP JUMPDEST JUMPDEST POP SWAP3 SWAP2 POP POP JUMP JUMPDEST PUSH0 DUP3 SWAP1 POP SWAP3 SWAP2 POP POP JUMP JUMPDEST PUSH0 PUSH2 0x4D63 DUP4 DUP4 PUSH2 0x4D4E JUMP JUMPDEST DUP3 PUSH2 0x4D6E DUP2 CALLDATALOAD PUSH2 0x3400 JUMP JUMPDEST SWAP3 POP PUSH1 0x20 DUP3 LT ISZERO PUSH2 0x4DAE JUMPI PUSH2 0x4DA9 PUSH32 0xFFFFFFFFFFFFFFFFFFFFFFFFFFFFFFFFFFFFFFFFFFFFFFFFFFFFFFFFFFFFFFFF DUP4 PUSH1 0x20 SUB PUSH1 0x8 MUL PUSH2 0x485D JUMP JUMPDEST DUP4 AND SWAP3 POP JUMPDEST POP POP SWAP3 SWAP2 POP POP JUMP JUMPDEST PUSH0 PUSH32 0xFFFFFFFFFFFFFFFF000000000000000000000000000000000000000000000000 DUP3 AND SWAP1 POP SWAP2 SWAP1 POP JUMP JUMPDEST PUSH0 PUSH2 0x4DEC DUP4 DUP4 PUSH2 0x4D4E JUMP JUMPDEST DUP3 PUSH2 0x4DF7 DUP2 CALLDATALOAD PUSH2 0x4DB6 JUMP JUMPDEST SWAP3 POP PUSH1 0x8 DUP3 LT ISZERO PUSH2 0x4E37 JUMPI PUSH2 0x4E32 PUSH32 0xFFFFFFFFFFFFFFFF000000000000000000000000000000000000000000000000 DUP4 PUSH1 0x8 SUB PUSH1 0x8 MUL PUSH2 0x485D JUMP JUMPDEST DUP4 AND SWAP3 POP JUMPDEST POP POP SWAP3 SWAP2 POP POP JUMP JUMPDEST PUSH0 DUP2 PUSH1 0xC0 SHL SWAP1 POP SWAP2 SWAP1 POP JUMP JUMPDEST PUSH0 PUSH2 0x4E55 DUP3 PUSH2 0x4E3F JUMP JUMPDEST SWAP1 POP SWAP2 SWAP1 POP JUMP JUMPDEST PUSH2 0x4E6D PUSH2 0x4E68 DUP3 PUSH2 0x35BA JUMP JUMPDEST PUSH2 0x4E4B JUMP JUMPDEST DUP3 MSTORE POP POP JUMP JUMPDEST PUSH0 DUP2 PUSH1 0xE0 SHL SWAP1 POP SWAP2 SWAP1 POP JUMP JUMPDEST PUSH0 PUSH2 0x4E89 DUP3 PUSH2 0x4E73 JUMP JUMPDEST SWAP1 POP SWAP2 SWAP1 POP JUMP JUMPDEST PUSH2 0x4EA1 PUSH2 0x4E9C DUP3 PUSH2 0x36D6 JUMP JUMPDEST PUSH2 0x4E7F JUMP JUMPDEST DUP3 MSTORE POP POP JUMP JUMPDEST PUSH0 DUP2 SWAP1 POP SWAP2 SWAP1 POP JUMP JUMPDEST PUSH2 0x4EC1 PUSH2 0x4EBC DUP3 PUSH2 0x30B3 JUMP JUMPDEST PUSH2 0x4EA7 JUMP JUMPDEST DUP3 MSTORE POP POP JUMP JUMPDEST PUSH0 PUSH2 0x4ED2 DUP3 DUP8 PUSH2 0x4E5C JUMP JUMPDEST PUSH1 0x8 DUP3 ADD SWAP2 POP PUSH2 0x4EE2 DUP3 DUP7 PUSH2 0x4E90 JUMP JUMPDEST PUSH1 0x4 DUP3 ADD SWAP2 POP PUSH2 0x4EF2 DUP3 DUP6 PUSH2 0x4EB0 JUMP JUMPDEST PUSH1 0x20 DUP3 ADD SWAP2 POP PUSH2 0x4F02 DUP3 DUP5 PUSH2 0x4192 JUMP JUMPDEST SWAP2 POP DUP2 SWAP1 POP SWAP6 SWAP5 POP POP POP POP POP JUMP JUMPDEST PUSH0 PUSH2 0x4F1A DUP3 PUSH2 0x30B3 JUMP JUMPDEST SWAP2 POP PUSH2 0x4F25 DUP4 PUSH2 0x30B3 JUMP JUMPDEST SWAP3 POP DUP3 DUP3 ADD SWAP1 POP DUP1 DUP3 GT ISZERO PUSH2 0x4F3D JUMPI PUSH2 0x4F3C PUSH2 0x4CB0 JUMP JUMPDEST JUMPDEST SWAP3 SWAP2 POP POP JUMP JUMPDEST PUSH0 DUP2 SWAP1 POP SWAP2 SWAP1 POP JUMP JUMPDEST PUSH2 0x4F5D PUSH2 0x4F58 DUP3 PUSH2 0x3400 JUMP JUMPDEST PUSH2 0x4F43 JUMP JUMPDEST DUP3 MSTORE POP POP JUMP JUMPDEST PUSH0 PUSH2 0x4F6E DUP3 DUP6 PUSH2 0x4F4C JUMP JUMPDEST PUSH1 0x20 DUP3 ADD SWAP2 POP PUSH2 0x4F7E DUP3 DUP5 PUSH2 0x4E5C JUMP JUMPDEST PUSH1 0x8 DUP3 ADD SWAP2 POP DUP2 SWAP1 POP SWAP4 SWAP3 POP POP POP JUMP JUMPDEST PUSH0 PUSH2 0x4F99 DUP3 DUP8 PUSH2 0x4F4C JUMP JUMPDEST PUSH1 0x20 DUP3 ADD SWAP2 POP PUSH2 0x4FA9 DUP3 DUP7 PUSH2 0x4E5C JUMP JUMPDEST PUSH1 0x8 DUP3 ADD SWAP2 POP PUSH2 0x4FB9 DUP3 DUP6 PUSH2 0x4F4C JUMP JUMPDEST PUSH1 0x20 DUP3 ADD SWAP2 POP PUSH2 0x4FC9 DUP3 DUP5 PUSH2 0x4192 JUMP JUMPDEST SWAP2 POP DUP2 SWAP1 POP SWAP6 SWAP5 POP POP POP POP POP JUMP JUMPDEST PUSH0 DUP2 MLOAD SWAP1 POP PUSH2 0x4FE5 DUP2 PUSH2 0x3409 JUMP JUMPDEST SWAP3 SWAP2 POP POP JUMP JUMPDEST PUSH0 DUP2 MLOAD SWAP1 POP PUSH2 0x4FF9 DUP2 PUSH2 0x4357 JUMP JUMPDEST SWAP3 SWAP2 POP POP JUMP JUMPDEST PUSH0 PUSH1 0x80 DUP3 DUP5 SUB SLT ISZERO PUSH2 0x5014 JUMPI PUSH2 0x5013 PUSH2 0x3F77 JUMP JUMPDEST JUMPDEST PUSH2 0x501E PUSH1 0x60 PUSH2 0x3F32 JUMP JUMPDEST SWAP1 POP PUSH0 PUSH2 0x502D DUP5 DUP3 DUP6 ADD PUSH2 0x4FD7 JUMP JUMPDEST PUSH0 DUP4 ADD MSTORE POP PUSH1 0x20 PUSH2 0x5040 DUP5 DUP3 DUP6 ADD PUSH2 0x4FEB JUMP JUMPDEST PUSH1 0x20 DUP4 ADD MSTORE POP PUSH1 0x40 PUSH2 0x5054 DUP5 DUP3 DUP6 ADD PUSH2 0x47C4 JUMP JUMPDEST PUSH1 0x40 DUP4 ADD MSTORE POP SWAP3 SWAP2 POP POP JUMP JUMPDEST PUSH0 PUSH1 0x80 DUP3 DUP5 SUB SLT ISZERO PUSH2 0x5075 JUMPI PUSH2 0x5074 PUSH2 0x3051 JUMP JUMPDEST JUMPDEST PUSH0 PUSH2 0x5082 DUP5 DUP3 DUP6 ADD PUSH2 0x4FFF JUMP JUMPDEST SWAP2 POP POP SWAP3 SWAP2 POP POP JUMP JUMPDEST PUSH0 PUSH1 0x60 DUP3 ADD SWAP1 POP PUSH2 0x509E PUSH0 DUP4 ADD DUP7 PUSH2 0x33BA JUMP JUMPDEST PUSH2 0x50AB PUSH1 0x20 DUP4 ADD DUP6 PUSH2 0x33BA JUMP JUMPDEST PUSH2 0x50B8 PUSH1 0x40 DUP4 ADD DUP5 PUSH2 0x362A JUMP JUMPDEST SWAP5 SWAP4 POP POP POP POP JUMP INVALID LOG2 PUSH5 0x6970667358 0x22 SLT KECCAK256 DUP4 0x2B SWAP1 0xEB 0xA6 CALLER BALANCE 0xB2 0xAC 0xB4 0xD DUP15 CALLDATALOAD PUSH25 0x6EC952268846213C4537DC6B1465D8DD4F2764736F6C634300 ADDMOD XOR STOP CALLER "
	},
	"Assembly": ".code\n  PUSH C0\t\t\tcontract MyOFT is OFT {\\r\\n\\r\\...\n  PUSH 40\t\t\tcontract MyOFT is OFT {\\r\\n\\r\\...\n  MSTORE \t\t\tcontract MyOFT is OFT {\\r\\n\\r\\...\n  CALLVALUE \t\t\tconstructor(\\r\\n        string...\n  DUP1 \t\t\tconstructor(\\r\\n        string...\n  ISZERO \t\t\tconstructor(\\r\\n        string...\n  PUSH [tag] 1\t\t\tconstructor(\\r\\n        string...\n  JUMPI \t\t\tconstructor(\\r\\n        string...\n  PUSH 0\t\t\tconstructor(\\r\\n        string...\n  DUP1 \t\t\tconstructor(\\r\\n        string...\n  REVERT \t\t\tconstructor(\\r\\n        string...\ntag 1\t\t\tconstructor(\\r\\n        string...\n  JUMPDEST \t\t\tconstructor(\\r\\n        string...\n  POP \t\t\tconstructor(\\r\\n        string...\n  PUSH 40\t\t\tconstructor(\\r\\n        string...\n  MLOAD \t\t\tconstructor(\\r\\n        string...\n  PUSHSIZE \t\t\tconstructor(\\r\\n        string...\n  CODESIZE \t\t\tconstructor(\\r\\n        string...\n  SUB \t\t\tconstructor(\\r\\n        string...\n  DUP1 \t\t\tconstructor(\\r\\n        string...\n  PUSHSIZE \t\t\tconstructor(\\r\\n        string...\n  DUP4 \t\t\tconstructor(\\r\\n        string...\n  CODECOPY \t\t\tconstructor(\\r\\n        string...\n  DUP2 \t\t\tconstructor(\\r\\n        string...\n  DUP2 \t\t\tconstructor(\\r\\n        string...\n  ADD \t\t\tconstructor(\\r\\n        string...\n  PUSH 40\t\t\tconstructor(\\r\\n        string...\n  MSTORE \t\t\tconstructor(\\r\\n        string...\n  DUP2 \t\t\tconstructor(\\r\\n        string...\n  ADD \t\t\tconstructor(\\r\\n        string...\n  SWAP1 \t\t\tconstructor(\\r\\n        string...\n  PUSH [tag] 2\t\t\tconstructor(\\r\\n        string...\n  SWAP2 \t\t\tconstructor(\\r\\n        string...\n  SWAP1 \t\t\tconstructor(\\r\\n        string...\n  PUSH [tag] 3\t\t\tconstructor(\\r\\n        string...\n  JUMP \t\t\tconstructor(\\r\\n        string...\ntag 2\t\t\tconstructor(\\r\\n        string...\n  JUMPDEST \t\t\tconstructor(\\r\\n        string...\n  DUP5 \t\t\t_name\n  DUP5 \t\t\t_symbol\n  DUP4 \t\t\t_lzEndpoint\n  DUP4 \t\t\t_delegate\n  DUP4 \t\t\t\n  DUP4 \t\t\t\n  PUSH [tag] 7\t\t\t\n  PUSH [tag] 8\t\t\t\n  PUSH 20\t\t\t\n  SHL \t\t\t\n  PUSH 20\t\t\t\n  SHR \t\t\t\n  JUMP \t\t\t\ntag 7\t\t\t\n  JUMPDEST \t\t\t\n  DUP5 \t\t\t\n  DUP5 \t\t\t\n  DUP2 \t\t\t\n  DUP2 \t\t\t\n  DUP2 \t\t\t\n  DUP2 \t\t\t\n  DUP14 \t\t\t_delegate\n  PUSH 0\t\t\t\n  PUSH FFFFFFFFFFFFFFFFFFFFFFFFFFFFFFFFFFFFFFFF\t\t\t\n  AND \t\t\t\n  DUP2 \t\t\t\n  PUSH FFFFFFFFFFFFFFFFFFFFFFFFFFFFFFFFFFFFFFFF\t\t\t\n  AND \t\t\t\n  SUB \t\t\t\n  PUSH [tag] 14\t\t\t\n  JUMPI \t\t\t\n  PUSH 0\t\t\t\n  PUSH 40\t\t\t\n  MLOAD \t\t\t\n  PUSH 1E4FBDF700000000000000000000000000000000000000000000000000000000\t\t\t\n  DUP2 \t\t\t\n  MSTORE \t\t\t\n  PUSH 4\t\t\t\n  ADD \t\t\t\n  PUSH [tag] 15\t\t\t\n  SWAP2 \t\t\t\n  SWAP1 \t\t\t\n  PUSH [tag] 16\t\t\t\n  JUMP \t\t\t\ntag 15\t\t\t\n  JUMPDEST \t\t\t\n  PUSH 40\t\t\t\n  MLOAD \t\t\t\n  DUP1 \t\t\t\n  SWAP2 \t\t\t\n  SUB \t\t\t\n  SWAP1 \t\t\t\n  REVERT \t\t\t\ntag 14\t\t\t\n  JUMPDEST \t\t\t\n  PUSH [tag] 17\t\t\t\n  DUP2 \t\t\t\n  PUSH [tag] 18\t\t\t\n  PUSH 20\t\t\t\n  SHL \t\t\t\n  PUSH 20\t\t\t\n  SHR \t\t\t\n  JUMP \t\t\t\ntag 17\t\t\t\n  JUMPDEST \t\t\t\n  POP \t\t\t\n  DUP2 \t\t\t\n  PUSH FFFFFFFFFFFFFFFFFFFFFFFFFFFFFFFFFFFFFFFF\t\t\t\n  AND \t\t\t\n  PUSH 80\t\t\t\n  DUP2 \t\t\t\n  PUSH FFFFFFFFFFFFFFFFFFFFFFFFFFFFFFFFFFFFFFFF\t\t\t\n  AND \t\t\t\n  DUP2 \t\t\t\n  MSTORE \t\t\t\n  POP \t\t\t\n  POP \t\t\t\n  PUSH 0\t\t\t\n  PUSH FFFFFFFFFFFFFFFFFFFFFFFFFFFFFFFFFFFFFFFF\t\t\t\n  AND \t\t\t\n  DUP2 \t\t\t\n  PUSH FFFFFFFFFFFFFFFFFFFFFFFFFFFFFFFFFFFFFFFF\t\t\t\n  AND \t\t\t\n  SUB \t\t\t\n  PUSH [tag] 20\t\t\t\n  JUMPI \t\t\t\n  PUSH 40\t\t\t\n  MLOAD \t\t\t\n  PUSH B586360400000000000000000000000000000000000000000000000000000000\t\t\t\n  DUP2 \t\t\t\n  MSTORE \t\t\t\n  PUSH 4\t\t\t\n  ADD \t\t\t\n  PUSH 40\t\t\t\n  MLOAD \t\t\t\n  DUP1 \t\t\t\n  SWAP2 \t\t\t\n  SUB \t\t\t\n  SWAP1 \t\t\t\n  REVERT \t\t\t\ntag 20\t\t\t\n  JUMPDEST \t\t\t\n  PUSH 80\t\t\t\n  MLOAD \t\t\t\n  PUSH FFFFFFFFFFFFFFFFFFFFFFFFFFFFFFFFFFFFFFFF\t\t\t\n  AND \t\t\t\n  PUSH CA5EB5E1\t\t\t\n  DUP3 \t\t\t\n  PUSH 40\t\t\t\n  MLOAD \t\t\t\n  DUP3 \t\t\t\n  PUSH FFFFFFFF\t\t\t\n  AND \t\t\t\n  PUSH E0\t\t\t\n  SHL \t\t\t\n  DUP2 \t\t\t\n  MSTORE \t\t\t\n  PUSH 4\t\t\t\n  ADD \t\t\t\n  PUSH [tag] 21\t\t\t\n  SWAP2 \t\t\t\n  SWAP1 \t\t\t\n  PUSH [tag] 16\t\t\t\n  JUMP \t\t\t\ntag 21\t\t\t\n  JUMPDEST \t\t\t\n  PUSH 0\t\t\t\n  PUSH 40\t\t\t\n  MLOAD \t\t\t\n  DUP1 \t\t\t\n  DUP4 \t\t\t\n  SUB \t\t\t\n  DUP2 \t\t\t\n  PUSH 0\t\t\t\n  DUP8 \t\t\t\n  DUP1 \t\t\t\n  EXTCODESIZE \t\t\t\n  ISZERO \t\t\t\n  DUP1 \t\t\t\n  ISZERO \t\t\t\n  PUSH [tag] 22\t\t\t\n  JUMPI \t\t\t\n  PUSH 0\t\t\t\n  DUP1 \t\t\t\n  REVERT \t\t\t\ntag 22\t\t\t\n  JUMPDEST \t\t\t\n  POP \t\t\t\n  GAS \t\t\t\n  CALL \t\t\t\n  ISZERO \t\t\t\n  DUP1 \t\t\t\n  ISZERO \t\t\t\n  PUSH [tag] 24\t\t\t\n  JUMPI \t\t\t\n  RETURNDATASIZE \t\t\t\n  PUSH 0\t\t\t\n  DUP1 \t\t\t\n  RETURNDATACOPY \t\t\t\n  RETURNDATASIZE \t\t\t\n  PUSH 0\t\t\t\n  REVERT \t\t\t\ntag 24\t\t\t\n  JUMPDEST \t\t\t\n  POP \t\t\t\n  POP \t\t\t\n  POP \t\t\t\n  POP \t\t\t\n  POP \t\t\t\n  POP \t\t\t\n  POP \t\t\t\n  POP \t\t\t\n  PUSH [tag] 27\t\t\t\n  PUSH [tag] 28\t\t\t\n  PUSH 20\t\t\t\n  SHL \t\t\t\n  PUSH 20\t\t\t\n  SHR \t\t\t\n  JUMP \t\t\t\ntag 27\t\t\t\n  JUMPDEST \t\t\t\n  PUSH FF\t\t\t\n  AND \t\t\t\n  DUP4 \t\t\t\n  PUSH FF\t\t\t\n  AND \t\t\t\n  LT \t\t\t\n  ISZERO \t\t\t\n  PUSH [tag] 29\t\t\t\n  JUMPI \t\t\t\n  PUSH 40\t\t\t\n  MLOAD \t\t\t\n  PUSH 1E9714B000000000000000000000000000000000000000000000000000000000\t\t\t\n  DUP2 \t\t\t\n  MSTORE \t\t\t\n  PUSH 4\t\t\t\n  ADD \t\t\t\n  PUSH 40\t\t\t\n  MLOAD \t\t\t\n  DUP1 \t\t\t\n  SWAP2 \t\t\t\n  SUB \t\t\t\n  SWAP1 \t\t\t\n  REVERT \t\t\t\ntag 29\t\t\t\n  JUMPDEST \t\t\t\n  PUSH [tag] 30\t\t\t\n  PUSH [tag] 28\t\t\t\n  PUSH 20\t\t\t\n  SHL \t\t\t\n  PUSH 20\t\t\t\n  SHR \t\t\t\n  JUMP \t\t\t\ntag 30\t\t\t\n  JUMPDEST \t\t\t\n  DUP4 \t\t\t\n  PUSH [tag] 31\t\t\t\n  SWAP2 \t\t\t\n  SWAP1 \t\t\t\n  PUSH [tag] 32\t\t\t\n  JUMP \t\t\t\ntag 31\t\t\t\n  JUMPDEST \t\t\t\n  PUSH A\t\t\t\n  PUSH [tag] 33\t\t\t\n  SWAP2 \t\t\t\n  SWAP1 \t\t\t\n  PUSH [tag] 34\t\t\t\n  JUMP \t\t\t\ntag 33\t\t\t\n  JUMPDEST \t\t\t\n  PUSH A0\t\t\t\n  DUP2 \t\t\t\n  DUP2 \t\t\t\n  MSTORE \t\t\t\n  POP \t\t\t\n  POP \t\t\t\n  POP \t\t\t\n  POP \t\t\t\n  POP \t\t\t\n  DUP2 \t\t\t\n  PUSH 8\t\t\t\n  SWAP1 \t\t\t\n  DUP2 \t\t\t\n  PUSH [tag] 36\t\t\t\n  SWAP2 \t\t\t\n  SWAP1 \t\t\t\n  PUSH [tag] 37\t\t\t\n  JUMP \t\t\t\ntag 36\t\t\t\n  JUMPDEST \t\t\t\n  POP \t\t\t\n  DUP1 \t\t\t\n  PUSH 9\t\t\t\n  SWAP1 \t\t\t\n  DUP2 \t\t\t\n  PUSH [tag] 38\t\t\t\n  SWAP2 \t\t\t\n  SWAP1 \t\t\t\n  PUSH [tag] 37\t\t\t\n  JUMP \t\t\t\ntag 38\t\t\t\n  JUMPDEST \t\t\t\n  POP \t\t\t\n  POP \t\t\t\n  POP \t\t\t\n  POP \t\t\ttialSupply * 10 ** decimals())...\n  POP \t\t\ttialSupply * 10 ** decimals())...\n  POP \t\t\ttialSupply * 10 ** decimals())...\n  POP \t\t\ttialSupply * 10 ** decimals())...\n  PUSH [tag] 41\t\t\t_mint(_delegate, _initialSuppl...\n  DUP2 \t\t\t_delegate\n  PUSH [tag] 42\t\t\tdecimals()\n  PUSH [tag] 8\t\t\tdecimals\n  PUSH 20\t\t\tdecimals\n  SHL \t\t\tdecimals\n  PUSH 20\t\t\tdecimals()\n  SHR \t\t\tdecimals()\n  JUMP \t\t\tdecimals()\ntag 42\t\t\tdecimals()\n  JUMPDEST \t\t\tdecimals()\n  PUSH A\t\t\t10\n  PUSH [tag] 43\t\t\t10 ** decimals()\n  SWAP2 \t\t\t10 ** decimals()\n  SWAP1 \t\t\t10 ** decimals()\n  PUSH [tag] 34\t\t\t10 ** decimals()\n  JUMP \t\t\t10 ** decimals()\ntag 43\t\t\t10 ** decimals()\n  JUMPDEST \t\t\t10 ** decimals()\n  DUP6 \t\t\t_initialSupply\n  PUSH [tag] 44\t\t\t_initialSupply * 10 ** decimal...\n  SWAP2 \t\t\t_initialSupply * 10 ** decimal...\n  SWAP1 \t\t\t_initialSupply * 10 ** decimal...\n  PUSH [tag] 45\t\t\t_initialSupply * 10 ** decimal...\n  JUMP \t\t\t_initialSupply * 10 ** decimal...\ntag 44\t\t\t_initialSupply * 10 ** decimal...\n  JUMPDEST \t\t\t_initialSupply * 10 ** decimal...\n  PUSH [tag] 46\t\t\t_mint\n  PUSH 20\t\t\t_mint\n  SHL \t\t\t_mint\n  PUSH 20\t\t\t_mint(_delegate, _initialSuppl...\n  SHR \t\t\t_mint(_delegate, _initialSuppl...\n  JUMP \t\t\t_mint(_delegate, _initialSuppl...\ntag 41\t\t\t_mint(_delegate, _initialSuppl...\n  JUMPDEST \t\t\t_mint(_delegate, _initialSuppl...\n  POP \t\t\tconstructor(\\r\\n        string...\n  POP \t\t\tconstructor(\\r\\n        string...\n  POP \t\t\tconstructor(\\r\\n        string...\n  POP \t\t\tconstructor(\\r\\n        string...\n  POP \t\t\tconstructor(\\r\\n        string...\n  PUSH [tag] 47\t\t\tcontract MyOFT is OFT {\\r\\n\\r\\...\n  JUMP \t\t\tcontract MyOFT is OFT {\\r\\n\\r\\...\ntag 8\t\t\t\n  JUMPDEST \t\t\t\n  PUSH 0\t\t\t\n  PUSH 12\t\t\t\n  SWAP1 \t\t\t\n  POP \t\t\t\n  SWAP1 \t\t\t\n  JUMP \t\t\t\ntag 18\t\t\t\n  JUMPDEST \t\t\t\n  PUSH 0\t\t\t\n  DUP1 \t\t\t\n  PUSH 0\t\t\t\n  SWAP1 \t\t\t\n  SLOAD \t\t\t\n  SWAP1 \t\t\t\n  PUSH 100\t\t\t\n  EXP \t\t\t\n  SWAP1 \t\t\t\n  DIV \t\t\t\n  PUSH FFFFFFFFFFFFFFFFFFFFFFFFFFFFFFFFFFFFFFFF\t\t\t\n  AND \t\t\t\n  SWAP1 \t\t\t\n  POP \t\t\t\n  DUP2 \t\t\t\n  PUSH 0\t\t\t\n  DUP1 \t\t\t\n  PUSH 100\t\t\t\n  EXP \t\t\t\n  DUP2 \t\t\t\n  SLOAD \t\t\t\n  DUP2 \t\t\t\n  PUSH FFFFFFFFFFFFFFFFFFFFFFFFFFFFFFFFFFFFFFFF\t\t\t\n  MUL \t\t\t\n  NOT \t\t\t\n  AND \t\t\t\n  SWAP1 \t\t\t\n  DUP4 \t\t\t\n  PUSH FFFFFFFFFFFFFFFFFFFFFFFFFFFFFFFFFFFFFFFF\t\t\t\n  AND \t\t\t\n  MUL \t\t\t\n  OR \t\t\t\n  SWAP1 \t\t\t\n  SSTORE \t\t\t\n  POP \t\t\t\n  DUP2 \t\t\t\n  PUSH FFFFFFFFFFFFFFFFFFFFFFFFFFFFFFFFFFFFFFFF\t\t\t\n  AND \t\t\t\n  DUP2 \t\t\t\n  PUSH FFFFFFFFFFFFFFFFFFFFFFFFFFFFFFFFFFFFFFFF\t\t\t\n  AND \t\t\t\n  PUSH 8BE0079C531659141344CD1FD0A4F28419497F9722A3DAAFE3B4186F6B6457E0\t\t\t\n  PUSH 40\t\t\t\n  MLOAD \t\t\t\n  PUSH 40\t\t\t\n  MLOAD \t\t\t\n  DUP1 \t\t\t\n  SWAP2 \t\t\t\n  SUB \t\t\t\n  SWAP1 \t\t\t\n  LOG3 \t\t\t\n  POP \t\t\t\n  POP \t\t\t\n  JUMP \t\t\t\ntag 28\t\t\t\n  JUMPDEST \t\t\t\n  PUSH 0\t\t\t\n  PUSH 6\t\t\t\n  SWAP1 \t\t\t\n  POP \t\t\t\n  SWAP1 \t\t\t\n  JUMP \t\t\t\ntag 46\t\t\t\n  JUMPDEST \t\t\t\n  PUSH 0\t\t\t\n  PUSH FFFFFFFFFFFFFFFFFFFFFFFFFFFFFFFFFFFFFFFF\t\t\t\n  AND \t\t\t\n  DUP3 \t\t\t\n  PUSH FFFFFFFFFFFFFFFFFFFFFFFFFFFFFFFFFFFFFFFF\t\t\t\n  AND \t\t\t\n  SUB \t\t\t\n  PUSH [tag] 52\t\t\t\n  JUMPI \t\t\t\n  PUSH 0\t\t\t\n  PUSH 40\t\t\t\n  MLOAD \t\t\t\n  PUSH EC442F0500000000000000000000000000000000000000000000000000000000\t\t\t\n  DUP2 \t\t\t\n  MSTORE \t\t\t\n  PUSH 4\t\t\t\n  ADD \t\t\t\n  PUSH [tag] 53\t\t\t\n  SWAP2 \t\t\t\n  SWAP1 \t\t\t\n  PUSH [tag] 16\t\t\t\n  JUMP \t\t\t\ntag 53\t\t\t\n  JUMPDEST \t\t\t\n  PUSH 40\t\t\t\n  MLOAD \t\t\t\n  DUP1 \t\t\t\n  SWAP2 \t\t\t\n  SUB \t\t\t\n  SWAP1 \t\t\t\n  REVERT \t\t\t\ntag 52\t\t\t\n  JUMPDEST \t\t\t\n  PUSH [tag] 54\t\t\t\n  PUSH 0\t\t\t\n  DUP4 \t\t\t\n  DUP4 \t\t\t\n  PUSH [tag] 55\t\t\t\n  PUSH 20\t\t\t\n  SHL \t\t\t\n  PUSH 20\t\t\t\n  SHR \t\t\t\n  JUMP \t\t\t\ntag 54\t\t\t\n  JUMPDEST \t\t\t\n  POP \t\t\t\n  POP \t\t\t\n  JUMP \t\t\t\ntag 55\t\t\t\n  JUMPDEST \t\t\t\n  PUSH 0\t\t\t\n  PUSH FFFFFFFFFFFFFFFFFFFFFFFFFFFFFFFFFFFFFFFF\t\t\t\n  AND \t\t\t\n  DUP4 \t\t\t\n  PUSH FFFFFFFFFFFFFFFFFFFFFFFFFFFFFFFFFFFFFFFF\t\t\t\n  AND \t\t\t\n  SUB \t\t\t\n  PUSH [tag] 57\t\t\t\n  JUMPI \t\t\t\n  DUP1 \t\t\t\n  PUSH 7\t\t\t\n  PUSH 0\t\t\t\n  DUP3 \t\t\t\n  DUP3 \t\t\t\n  SLOAD \t\t\t\n  PUSH [tag] 58\t\t\t\n  SWAP2 \t\t\t\n  SWAP1 \t\t\t\n  PUSH [tag] 59\t\t\t\n  JUMP \t\t\t\ntag 58\t\t\t\n  JUMPDEST \t\t\t\n  SWAP3 \t\t\t\n  POP \t\t\t\n  POP \t\t\t\n  DUP2 \t\t\t\n  SWAP1 \t\t\t\n  SSTORE \t\t\t\n  POP \t\t\t\n  PUSH [tag] 60\t\t\t\n  JUMP \t\t\t\ntag 57\t\t\t\n  JUMPDEST \t\t\t\n  PUSH 0\t\t\t\n  PUSH 5\t\t\t\n  PUSH 0\t\t\t\n  DUP6 \t\t\t\n  PUSH FFFFFFFFFFFFFFFFFFFFFFFFFFFFFFFFFFFFFFFF\t\t\t\n  AND \t\t\t\n  PUSH FFFFFFFFFFFFFFFFFFFFFFFFFFFFFFFFFFFFFFFF\t\t\t\n  AND \t\t\t\n  DUP2 \t\t\t\n  MSTORE \t\t\t\n  PUSH 20\t\t\t\n  ADD \t\t\t\n  SWAP1 \t\t\t\n  DUP2 \t\t\t\n  MSTORE \t\t\t\n  PUSH 20\t\t\t\n  ADD \t\t\t\n  PUSH 0\t\t\t\n  KECCAK256 \t\t\t\n  SLOAD \t\t\t\n  SWAP1 \t\t\t\n  POP \t\t\t\n  DUP2 \t\t\t\n  DUP2 \t\t\t\n  LT \t\t\t\n  ISZERO \t\t\t\n  PUSH [tag] 61\t\t\t\n  JUMPI \t\t\t\n  DUP4 \t\t\t\n  DUP2 \t\t\t\n  DUP4 \t\t\t\n  PUSH 40\t\t\t\n  MLOAD \t\t\t\n  PUSH E450D38C00000000000000000000000000000000000000000000000000000000\t\t\t\n  DUP2 \t\t\t\n  MSTORE \t\t\t\n  PUSH 4\t\t\t\n  ADD \t\t\t\n  PUSH [tag] 62\t\t\t\n  SWAP4 \t\t\t\n  SWAP3 \t\t\t\n  SWAP2 \t\t\t\n  SWAP1 \t\t\t\n  PUSH [tag] 63\t\t\t\n  JUMP \t\t\t\ntag 62\t\t\t\n  JUMPDEST \t\t\t\n  PUSH 40\t\t\t\n  MLOAD \t\t\t\n  DUP1 \t\t\t\n  SWAP2 \t\t\t\n  SUB \t\t\t\n  SWAP1 \t\t\t\n  REVERT \t\t\t\ntag 61\t\t\t\n  JUMPDEST \t\t\t\n  DUP2 \t\t\t\n  DUP2 \t\t\t\n  SUB \t\t\t\n  PUSH 5\t\t\t\n  PUSH 0\t\t\t\n  DUP7 \t\t\t\n  PUSH FFFFFFFFFFFFFFFFFFFFFFFFFFFFFFFFFFFFFFFF\t\t\t\n  AND \t\t\t\n  PUSH FFFFFFFFFFFFFFFFFFFFFFFFFFFFFFFFFFFFFFFF\t\t\t\n  AND \t\t\t\n  DUP2 \t\t\t\n  MSTORE \t\t\t\n  PUSH 20\t\t\t\n  ADD \t\t\t\n  SWAP1 \t\t\t\n  DUP2 \t\t\t\n  MSTORE \t\t\t\n  PUSH 20\t\t\t\n  ADD \t\t\t\n  PUSH 0\t\t\t\n  KECCAK256 \t\t\t\n  DUP2 \t\t\t\n  SWAP1 \t\t\t\n  SSTORE \t\t\t\n  POP \t\t\t\n  POP \t\t\t\ntag 60\t\t\t\n  JUMPDEST \t\t\t\n  PUSH 0\t\t\t\n  PUSH FFFFFFFFFFFFFFFFFFFFFFFFFFFFFFFFFFFFFFFF\t\t\t\n  AND \t\t\t\n  DUP3 \t\t\t\n  PUSH FFFFFFFFFFFFFFFFFFFFFFFFFFFFFFFFFFFFFFFF\t\t\t\n  AND \t\t\t\n  SUB \t\t\t\n  PUSH [tag] 64\t\t\t\n  JUMPI \t\t\t\n  DUP1 \t\t\t\n  PUSH 7\t\t\t\n  PUSH 0\t\t\t\n  DUP3 \t\t\t\n  DUP3 \t\t\t\n  SLOAD \t\t\t\n  SUB \t\t\t\n  SWAP3 \t\t\t\n  POP \t\t\t\n  POP \t\t\t\n  DUP2 \t\t\t\n  SWAP1 \t\t\t\n  SSTORE \t\t\t\n  POP \t\t\t\n  PUSH [tag] 65\t\t\t\n  JUMP \t\t\t\ntag 64\t\t\t\n  JUMPDEST \t\t\t\n  DUP1 \t\t\t\n  PUSH 5\t\t\t\n  PUSH 0\t\t\t\n  DUP5 \t\t\t\n  PUSH FFFFFFFFFFFFFFFFFFFFFFFFFFFFFFFFFFFFFFFF\t\t\t\n  AND \t\t\t\n  PUSH FFFFFFFFFFFFFFFFFFFFFFFFFFFFFFFFFFFFFFFF\t\t\t\n  AND \t\t\t\n  DUP2 \t\t\t\n  MSTORE \t\t\t\n  PUSH 20\t\t\t\n  ADD \t\t\t\n  SWAP1 \t\t\t\n  DUP2 \t\t\t\n  MSTORE \t\t\t\n  PUSH 20\t\t\t\n  ADD \t\t\t\n  PUSH 0\t\t\t\n  KECCAK256 \t\t\t\n  PUSH 0\t\t\t\n  DUP3 \t\t\t\n  DUP3 \t\t\t\n  SLOAD \t\t\t\n  ADD \t\t\t\n  SWAP3 \t\t\t\n  POP \t\t\t\n  POP \t\t\t\n  DUP2 \t\t\t\n  SWAP1 \t\t\t\n  SSTORE \t\t\t\n  POP \t\t\t\ntag 65\t\t\t\n  JUMPDEST \t\t\t\n  DUP2 \t\t\t\n  PUSH FFFFFFFFFFFFFFFFFFFFFFFFFFFFFFFFFFFFFFFF\t\t\t\n  AND \t\t\t\n  DUP4 \t\t\t\n  PUSH FFFFFFFFFFFFFFFFFFFFFFFFFFFFFFFFFFFFFFFF\t\t\t\n  AND \t\t\t\n  PUSH DDF252AD1BE2C89B69C2B068FC378DAA952BA7F163C4A11628F55A4DF523B3EF\t\t\t\n  DUP4 \t\t\t\n  PUSH 40\t\t\t\n  MLOAD \t\t\t\n  PUSH [tag] 66\t\t\t\n  SWAP2 \t\t\t\n  SWAP1 \t\t\t\n  PUSH [tag] 67\t\t\t\n  JUMP \t\t\t\ntag 66\t\t\t\n  JUMPDEST \t\t\t\n  PUSH 40\t\t\t\n  MLOAD \t\t\t\n  DUP1 \t\t\t\n  SWAP2 \t\t\t\n  SUB \t\t\t\n  SWAP1 \t\t\t\n  LOG3 \t\t\t\n  POP \t\t\t\n  POP \t\t\t\n  POP \t\t\t\n  JUMP \t\t\t\ntag 68\t\t\t-License-Identifier: MIT\\r\\npr...\n  JUMPDEST \t\t\t-License-Identifier: MIT\\r\\npr...\n  PUSH 0\t\t\tsolidi\n  PUSH 40\t\t\t s\n  MLOAD \t\t\ts is a si\n  SWAP1 \t\t\t\\r\\n\\r\\n// This is a si\n  POP \t\t\t\\r\\n\\r\\n// This is a si\n  SWAP1 \t\t\t-License-Identifier: MIT\\r\\npr...\n  JUMP \t\t\t-License-Identifier: MIT\\r\\npr...\ntag 69\t\t\tntation of an OFT (Omnichain F...\n  JUMPDEST \t\t\tntation of an OFT (Omnichain F...\n  PUSH 0\t\t\ts\n  DUP1 \t\t\tt\n  REVERT \t\t\tct for this \ntag 70\t\t\timport { Ownable } from \"@open...\n  JUMPDEST \t\t\timport { Ownable } from \"@open...\n  PUSH 0\t\t\tt\n  DUP1 \t\t\t/\n  REVERT \t\t\terolabs/oft-\ntag 71\t\t\ts/OFT.sol\";\\r\\n\\r\\ncontract My...\n  JUMPDEST \t\t\ts/OFT.sol\";\\r\\n\\r\\ncontract My...\n  PUSH 0\t\t\tr\n  DUP1 \t\t\te\n  REVERT \t\t\ttring memory\ntag 72\t\t\t       uint256 _initialSupply,...\n  JUMPDEST \t\t\t       uint256 _initialSupply,...\n  PUSH 0\t\t\tm\n  DUP1 \t\t\t_\n  REVERT \t\t\t_name, _symb\ntag 73\t\t\tint, _delegate) Ownable(_deleg...\n  JUMPDEST \t\t\tint, _delegate) Ownable(_deleg...\n  PUSH 0\t\t\t     _\n  PUSH 1F\t\t\tls\n  NOT \t\t\tcimals(\n  PUSH 1F\t\t\t**\n  DUP4 \t\t\ty * 1\n  ADD \t\t\tupply * 10 ** \n  AND \t\t\tialSupply * 10 ** decimals()\n  SWAP1 \t\t\tate, _initialSupply * 10 ** de...\n  POP \t\t\tate, _initialSupply * 10 ** de...\n  SWAP2 \t\t\tint, _delegate) Ownable(_deleg...\n  SWAP1 \t\t\tint, _delegate) Ownable(_deleg...\n  POP \t\t\tint, _delegate) Ownable(_deleg...\n  JUMP \t\t\tint, _delegate) Ownable(_deleg...\ntag 74\t\t\t\\r\\n\n  JUMPDEST \t\t\t\\r\\n\n  PUSH 4E487B7100000000000000000000000000000000000000000000000000000000\t\t\t\n  PUSH 0\t\t\t\n  MSTORE \t\t\t\n  PUSH 41\t\t\t\n  PUSH 4\t\t\t\n  MSTORE \t\t\t\n  PUSH 24\t\t\t\n  PUSH 0\t\t\t\n  REVERT \t\t\t\ntag 75\t\t\t\n  JUMPDEST \t\t\t\n  PUSH [tag] 122\t\t\t\n  DUP3 \t\t\t\n  PUSH [tag] 73\t\t\t\n  JUMP \t\t\t\ntag 122\t\t\t\n  JUMPDEST \t\t\t\n  DUP2 \t\t\t\n  ADD \t\t\t\n  DUP2 \t\t\t\n  DUP2 \t\t\t\n  LT \t\t\t\n  PUSH FFFFFFFFFFFFFFFF\t\t\t\n  DUP3 \t\t\t\n  GT \t\t\t\n  OR \t\t\t\n  ISZERO \t\t\t\n  PUSH [tag] 123\t\t\t\n  JUMPI \t\t\t\n  PUSH [tag] 124\t\t\t\n  PUSH [tag] 74\t\t\t\n  JUMP \t\t\t\ntag 124\t\t\t\n  JUMPDEST \t\t\t\ntag 123\t\t\t\n  JUMPDEST \t\t\t\n  DUP1 \t\t\t\n  PUSH 40\t\t\t\n  MSTORE \t\t\t\n  POP \t\t\t\n  POP \t\t\t\n  POP \t\t\t\n  JUMP \t\t\t\ntag 76\t\t\t\n  JUMPDEST \t\t\t\n  PUSH 0\t\t\t\n  PUSH [tag] 126\t\t\t\n  PUSH [tag] 68\t\t\t\n  JUMP \t\t\t\ntag 126\t\t\t\n  JUMPDEST \t\t\t\n  SWAP1 \t\t\t\n  POP \t\t\t\n  PUSH [tag] 127\t\t\t\n  DUP3 \t\t\t\n  DUP3 \t\t\t\n  PUSH [tag] 75\t\t\t\n  JUMP \t\t\t\ntag 127\t\t\t\n  JUMPDEST \t\t\t\n  SWAP2 \t\t\t\n  SWAP1 \t\t\t\n  POP \t\t\t\n  JUMP \t\t\t\ntag 77\t\t\t\n  JUMPDEST \t\t\t\n  PUSH 0\t\t\t\n  PUSH FFFFFFFFFFFFFFFF\t\t\t\n  DUP3 \t\t\t\n  GT \t\t\t\n  ISZERO \t\t\t\n  PUSH [tag] 129\t\t\t\n  JUMPI \t\t\t\n  PUSH [tag] 130\t\t\t\n  PUSH [tag] 74\t\t\t\n  JUMP \t\t\t\ntag 130\t\t\t\n  JUMPDEST \t\t\t\ntag 129\t\t\t\n  JUMPDEST \t\t\t\n  PUSH [tag] 131\t\t\t\n  DUP3 \t\t\t\n  PUSH [tag] 73\t\t\t\n  JUMP \t\t\t\ntag 131\t\t\t\n  JUMPDEST \t\t\t\n  SWAP1 \t\t\t\n  POP \t\t\t\n  PUSH 20\t\t\t\n  DUP2 \t\t\t\n  ADD \t\t\t\n  SWAP1 \t\t\t\n  POP \t\t\t\n  SWAP2 \t\t\t\n  SWAP1 \t\t\t\n  POP \t\t\t\n  JUMP \t\t\t\ntag 78\t\t\t\n  JUMPDEST \t\t\t\n  PUSH 0\t\t\t\ntag 133\t\t\t\n  JUMPDEST \t\t\t\n  DUP4 \t\t\t\n  DUP2 \t\t\t\n  LT \t\t\t\n  ISZERO \t\t\t\n  PUSH [tag] 135\t\t\t\n  JUMPI \t\t\t\n  DUP1 \t\t\t\n  DUP3 \t\t\t\n  ADD \t\t\t\n  MLOAD \t\t\t\n  DUP2 \t\t\t\n  DUP5 \t\t\t\n  ADD \t\t\t\n  MSTORE \t\t\t\n  PUSH 20\t\t\t\n  DUP2 \t\t\t\n  ADD \t\t\t\n  SWAP1 \t\t\t\n  POP \t\t\t\n  PUSH [tag] 133\t\t\t\n  JUMP \t\t\t\ntag 135\t\t\t\n  JUMPDEST \t\t\t\n  PUSH 0\t\t\t\n  DUP5 \t\t\t\n  DUP5 \t\t\t\n  ADD \t\t\t\n  MSTORE \t\t\t\n  POP \t\t\t\n  POP \t\t\t\n  POP \t\t\t\n  POP \t\t\t\n  JUMP \t\t\t\ntag 79\t\t\t\n  JUMPDEST \t\t\t\n  PUSH 0\t\t\t\n  PUSH [tag] 137\t\t\t\n  PUSH [tag] 138\t\t\t\n  DUP5 \t\t\t\n  PUSH [tag] 77\t\t\t\n  JUMP \t\t\t\ntag 138\t\t\t\n  JUMPDEST \t\t\t\n  PUSH [tag] 76\t\t\t\n  JUMP \t\t\t\ntag 137\t\t\t\n  JUMPDEST \t\t\t\n  SWAP1 \t\t\t\n  POP \t\t\t\n  DUP3 \t\t\t\n  DUP2 \t\t\t\n  MSTORE \t\t\t\n  PUSH 20\t\t\t\n  DUP2 \t\t\t\n  ADD \t\t\t\n  DUP5 \t\t\t\n  DUP5 \t\t\t\n  DUP5 \t\t\t\n  ADD \t\t\t\n  GT \t\t\t\n  ISZERO \t\t\t\n  PUSH [tag] 139\t\t\t\n  JUMPI \t\t\t\n  PUSH [tag] 140\t\t\t\n  PUSH [tag] 72\t\t\t\n  JUMP \t\t\t\ntag 140\t\t\t\n  JUMPDEST \t\t\t\ntag 139\t\t\t\n  JUMPDEST \t\t\t\n  PUSH [tag] 141\t\t\t\n  DUP5 \t\t\t\n  DUP3 \t\t\t\n  DUP6 \t\t\t\n  PUSH [tag] 78\t\t\t\n  JUMP \t\t\t\ntag 141\t\t\t\n  JUMPDEST \t\t\t\n  POP \t\t\t\n  SWAP4 \t\t\t\n  SWAP3 \t\t\t\n  POP \t\t\t\n  POP \t\t\t\n  POP \t\t\t\n  JUMP \t\t\t\ntag 80\t\t\t\n  JUMPDEST \t\t\t\n  PUSH 0\t\t\t\n  DUP3 \t\t\t\n  PUSH 1F\t\t\t\n  DUP4 \t\t\t\n  ADD \t\t\t\n  SLT \t\t\t\n  PUSH [tag] 143\t\t\t\n  JUMPI \t\t\t\n  PUSH [tag] 144\t\t\t\n  PUSH [tag] 71\t\t\t\n  JUMP \t\t\t\ntag 144\t\t\t\n  JUMPDEST \t\t\t\ntag 143\t\t\t\n  JUMPDEST \t\t\t\n  DUP2 \t\t\t\n  MLOAD \t\t\t\n  PUSH [tag] 145\t\t\t\n  DUP5 \t\t\t\n  DUP3 \t\t\t\n  PUSH 20\t\t\t\n  DUP7 \t\t\t\n  ADD \t\t\t\n  PUSH [tag] 79\t\t\t\n  JUMP \t\t\t\ntag 145\t\t\t\n  JUMPDEST \t\t\t\n  SWAP2 \t\t\t\n  POP \t\t\t\n  POP \t\t\t\n  SWAP3 \t\t\t\n  SWAP2 \t\t\t\n  POP \t\t\t\n  POP \t\t\t\n  JUMP \t\t\t\ntag 81\t\t\t\n  JUMPDEST \t\t\t\n  PUSH 0\t\t\t\n  DUP2 \t\t\t\n  SWAP1 \t\t\t\n  POP \t\t\t\n  SWAP2 \t\t\t\n  SWAP1 \t\t\t\n  POP \t\t\t\n  JUMP \t\t\t\ntag 82\t\t\t\n  JUMPDEST \t\t\t\n  PUSH [tag] 148\t\t\t\n  DUP2 \t\t\t\n  PUSH [tag] 81\t\t\t\n  JUMP \t\t\t\ntag 148\t\t\t\n  JUMPDEST \t\t\t\n  DUP2 \t\t\t\n  EQ \t\t\t\n  PUSH [tag] 149\t\t\t\n  JUMPI \t\t\t\n  PUSH 0\t\t\t\n  DUP1 \t\t\t\n  REVERT \t\t\t\ntag 149\t\t\t\n  JUMPDEST \t\t\t\n  POP \t\t\t\n  JUMP \t\t\t\ntag 83\t\t\t\n  JUMPDEST \t\t\t\n  PUSH 0\t\t\t\n  DUP2 \t\t\t\n  MLOAD \t\t\t\n  SWAP1 \t\t\t\n  POP \t\t\t\n  PUSH [tag] 151\t\t\t\n  DUP2 \t\t\t\n  PUSH [tag] 82\t\t\t\n  JUMP \t\t\t\ntag 151\t\t\t\n  JUMPDEST \t\t\t\n  SWAP3 \t\t\t\n  SWAP2 \t\t\t\n  POP \t\t\t\n  POP \t\t\t\n  JUMP \t\t\t\ntag 84\t\t\t\n  JUMPDEST \t\t\t\n  PUSH 0\t\t\t\n  PUSH FFFFFFFFFFFFFFFFFFFFFFFFFFFFFFFFFFFFFFFF\t\t\t\n  DUP3 \t\t\t\n  AND \t\t\t\n  SWAP1 \t\t\t\n  POP \t\t\t\n  SWAP2 \t\t\t\n  SWAP1 \t\t\t\n  POP \t\t\t\n  JUMP \t\t\t\ntag 85\t\t\t\n  JUMPDEST \t\t\t\n  PUSH 0\t\t\t\n  PUSH [tag] 154\t\t\t\n  DUP3 \t\t\t\n  PUSH [tag] 84\t\t\t\n  JUMP \t\t\t\ntag 154\t\t\t\n  JUMPDEST \t\t\t\n  SWAP1 \t\t\t\n  POP \t\t\t\n  SWAP2 \t\t\t\n  SWAP1 \t\t\t\n  POP \t\t\t\n  JUMP \t\t\t\ntag 86\t\t\t\n  JUMPDEST \t\t\t\n  PUSH [tag] 156\t\t\t\n  DUP2 \t\t\t\n  PUSH [tag] 85\t\t\t\n  JUMP \t\t\t\ntag 156\t\t\t\n  JUMPDEST \t\t\t\n  DUP2 \t\t\t\n  EQ \t\t\t\n  PUSH [tag] 157\t\t\t\n  JUMPI \t\t\t\n  PUSH 0\t\t\t\n  DUP1 \t\t\t\n  REVERT \t\t\t\ntag 157\t\t\t\n  JUMPDEST \t\t\t\n  POP \t\t\t\n  JUMP \t\t\t\ntag 87\t\t\t\n  JUMPDEST \t\t\t\n  PUSH 0\t\t\t\n  DUP2 \t\t\t\n  MLOAD \t\t\t\n  SWAP1 \t\t\t\n  POP \t\t\t\n  PUSH [tag] 159\t\t\t\n  DUP2 \t\t\t\n  PUSH [tag] 86\t\t\t\n  JUMP \t\t\t\ntag 159\t\t\t\n  JUMPDEST \t\t\t\n  SWAP3 \t\t\t\n  SWAP2 \t\t\t\n  POP \t\t\t\n  POP \t\t\t\n  JUMP \t\t\t\ntag 3\t\t\t\n  JUMPDEST \t\t\t\n  PUSH 0\t\t\t\n  DUP1 \t\t\t\n  PUSH 0\t\t\t\n  DUP1 \t\t\t\n  PUSH 0\t\t\t\n  PUSH A0\t\t\t\n  DUP7 \t\t\t\n  DUP9 \t\t\t\n  SUB \t\t\t\n  SLT \t\t\t\n  ISZERO \t\t\t\n  PUSH [tag] 161\t\t\t\n  JUMPI \t\t\t\n  PUSH [tag] 162\t\t\t\n  PUSH [tag] 69\t\t\t\n  JUMP \t\t\t\ntag 162\t\t\t\n  JUMPDEST \t\t\t\ntag 161\t\t\t\n  JUMPDEST \t\t\t\n  PUSH 0\t\t\t\n  DUP7 \t\t\t\n  ADD \t\t\t\n  MLOAD \t\t\t\n  PUSH FFFFFFFFFFFFFFFF\t\t\t\n  DUP2 \t\t\t\n  GT \t\t\t\n  ISZERO \t\t\t\n  PUSH [tag] 163\t\t\t\n  JUMPI \t\t\t\n  PUSH [tag] 164\t\t\t\n  PUSH [tag] 70\t\t\t\n  JUMP \t\t\t\ntag 164\t\t\t\n  JUMPDEST \t\t\t\ntag 163\t\t\t\n  JUMPDEST \t\t\t\n  PUSH [tag] 165\t\t\t\n  DUP9 \t\t\t\n  DUP3 \t\t\t\n  DUP10 \t\t\t\n  ADD \t\t\t\n  PUSH [tag] 80\t\t\t\n  JUMP \t\t\t\ntag 165\t\t\t\n  JUMPDEST \t\t\t\n  SWAP6 \t\t\t\n  POP \t\t\t\n  POP \t\t\t\n  PUSH 20\t\t\t\n  DUP7 \t\t\t\n  ADD \t\t\t\n  MLOAD \t\t\t\n  PUSH FFFFFFFFFFFFFFFF\t\t\t\n  DUP2 \t\t\t\n  GT \t\t\t\n  ISZERO \t\t\t\n  PUSH [tag] 166\t\t\t\n  JUMPI \t\t\t\n  PUSH [tag] 167\t\t\t\n  PUSH [tag] 70\t\t\t\n  JUMP \t\t\t\ntag 167\t\t\t\n  JUMPDEST \t\t\t\ntag 166\t\t\t\n  JUMPDEST \t\t\t\n  PUSH [tag] 168\t\t\t\n  DUP9 \t\t\t\n  DUP3 \t\t\t\n  DUP10 \t\t\t\n  ADD \t\t\t\n  PUSH [tag] 80\t\t\t\n  JUMP \t\t\t\ntag 168\t\t\t\n  JUMPDEST \t\t\t\n  SWAP5 \t\t\t\n  POP \t\t\t\n  POP \t\t\t\n  PUSH 40\t\t\t\n  PUSH [tag] 169\t\t\t\n  DUP9 \t\t\t\n  DUP3 \t\t\t\n  DUP10 \t\t\t\n  ADD \t\t\t\n  PUSH [tag] 83\t\t\t\n  JUMP \t\t\t\ntag 169\t\t\t\n  JUMPDEST \t\t\t\n  SWAP4 \t\t\t\n  POP \t\t\t\n  POP \t\t\t\n  PUSH 60\t\t\t\n  PUSH [tag] 170\t\t\t\n  DUP9 \t\t\t\n  DUP3 \t\t\t\n  DUP10 \t\t\t\n  ADD \t\t\t\n  PUSH [tag] 87\t\t\t\n  JUMP \t\t\t\ntag 170\t\t\t\n  JUMPDEST \t\t\t\n  SWAP3 \t\t\t\n  POP \t\t\t\n  POP \t\t\t\n  PUSH 80\t\t\t\n  PUSH [tag] 171\t\t\t\n  DUP9 \t\t\t\n  DUP3 \t\t\t\n  DUP10 \t\t\t\n  ADD \t\t\t\n  PUSH [tag] 87\t\t\t\n  JUMP \t\t\t\ntag 171\t\t\t\n  JUMPDEST \t\t\t\n  SWAP2 \t\t\t\n  POP \t\t\t\n  POP \t\t\t\n  SWAP3 \t\t\t\n  SWAP6 \t\t\t\n  POP \t\t\t\n  SWAP3 \t\t\t\n  SWAP6 \t\t\t\n  SWAP1 \t\t\t\n  SWAP4 \t\t\t\n  POP \t\t\t\n  JUMP \t\t\t\ntag 88\t\t\t\n  JUMPDEST \t\t\t\n  PUSH [tag] 173\t\t\t\n  DUP2 \t\t\t\n  PUSH [tag] 85\t\t\t\n  JUMP \t\t\t\ntag 173\t\t\t\n  JUMPDEST \t\t\t\n  DUP3 \t\t\t\n  MSTORE \t\t\t\n  POP \t\t\t\n  POP \t\t\t\n  JUMP \t\t\t\ntag 16\t\t\t\n  JUMPDEST \t\t\t\n  PUSH 0\t\t\t\n  PUSH 20\t\t\t\n  DUP3 \t\t\t\n  ADD \t\t\t\n  SWAP1 \t\t\t\n  POP \t\t\t\n  PUSH [tag] 175\t\t\t\n  PUSH 0\t\t\t\n  DUP4 \t\t\t\n  ADD \t\t\t\n  DUP5 \t\t\t\n  PUSH [tag] 88\t\t\t\n  JUMP \t\t\t\ntag 175\t\t\t\n  JUMPDEST \t\t\t\n  SWAP3 \t\t\t\n  SWAP2 \t\t\t\n  POP \t\t\t\n  POP \t\t\t\n  JUMP \t\t\t\ntag 89\t\t\t\n  JUMPDEST \t\t\t\n  PUSH 0\t\t\t\n  PUSH FF\t\t\t\n  DUP3 \t\t\t\n  AND \t\t\t\n  SWAP1 \t\t\t\n  POP \t\t\t\n  SWAP2 \t\t\t\n  SWAP1 \t\t\t\n  POP \t\t\t\n  JUMP \t\t\t\ntag 90\t\t\t\n  JUMPDEST \t\t\t\n  PUSH 4E487B7100000000000000000000000000000000000000000000000000000000\t\t\t\n  PUSH 0\t\t\t\n  MSTORE \t\t\t\n  PUSH 11\t\t\t\n  PUSH 4\t\t\t\n  MSTORE \t\t\t\n  PUSH 24\t\t\t\n  PUSH 0\t\t\t\n  REVERT \t\t\t\ntag 32\t\t\t\n  JUMPDEST \t\t\t\n  PUSH 0\t\t\t\n  PUSH [tag] 179\t\t\t\n  DUP3 \t\t\t\n  PUSH [tag] 89\t\t\t\n  JUMP \t\t\t\ntag 179\t\t\t\n  JUMPDEST \t\t\t\n  SWAP2 \t\t\t\n  POP \t\t\t\n  PUSH [tag] 180\t\t\t\n  DUP4 \t\t\t\n  PUSH [tag] 89\t\t\t\n  JUMP \t\t\t\ntag 180\t\t\t\n  JUMPDEST \t\t\t\n  SWAP3 \t\t\t\n  POP \t\t\t\n  DUP3 \t\t\t\n  DUP3 \t\t\t\n  SUB \t\t\t\n  SWAP1 \t\t\t\n  POP \t\t\t\n  PUSH FF\t\t\t\n  DUP2 \t\t\t\n  GT \t\t\t\n  ISZERO \t\t\t\n  PUSH [tag] 181\t\t\t\n  JUMPI \t\t\t\n  PUSH [tag] 182\t\t\t\n  PUSH [tag] 90\t\t\t\n  JUMP \t\t\t\ntag 182\t\t\t\n  JUMPDEST \t\t\t\ntag 181\t\t\t\n  JUMPDEST \t\t\t\n  SWAP3 \t\t\t\n  SWAP2 \t\t\t\n  POP \t\t\t\n  POP \t\t\t\n  JUMP \t\t\t\ntag 91\t\t\t\n  JUMPDEST \t\t\t\n  PUSH 0\t\t\t\n  DUP2 \t\t\t\n  PUSH 1\t\t\t\n  SHR \t\t\t\n  SWAP1 \t\t\t\n  POP \t\t\t\n  SWAP2 \t\t\t\n  SWAP1 \t\t\t\n  POP \t\t\t\n  JUMP \t\t\t\ntag 92\t\t\t\n  JUMPDEST \t\t\t\n  PUSH 0\t\t\t\n  DUP1 \t\t\t\n  DUP3 \t\t\t\n  SWAP2 \t\t\t\n  POP \t\t\t\n  DUP4 \t\t\t\n  SWAP1 \t\t\t\n  POP \t\t\t\ntag 185\t\t\t\n  JUMPDEST \t\t\t\n  PUSH 1\t\t\t\n  DUP6 \t\t\t\n  GT \t\t\t\n  ISZERO \t\t\t\n  PUSH [tag] 187\t\t\t\n  JUMPI \t\t\t\n  DUP1 \t\t\t\n  DUP7 \t\t\t\n  DIV \t\t\t\n  DUP2 \t\t\t\n  GT \t\t\t\n  ISZERO \t\t\t\n  PUSH [tag] 188\t\t\t\n  JUMPI \t\t\t\n  PUSH [tag] 189\t\t\t\n  PUSH [tag] 90\t\t\t\n  JUMP \t\t\t\ntag 189\t\t\t\n  JUMPDEST \t\t\t\ntag 188\t\t\t\n  JUMPDEST \t\t\t\n  PUSH 1\t\t\t\n  DUP6 \t\t\t\n  AND \t\t\t\n  ISZERO \t\t\t\n  PUSH [tag] 190\t\t\t\n  JUMPI \t\t\t\n  DUP1 \t\t\t\n  DUP3 \t\t\t\n  MUL \t\t\t\n  SWAP2 \t\t\t\n  POP \t\t\t\ntag 190\t\t\t\n  JUMPDEST \t\t\t\n  DUP1 \t\t\t\n  DUP2 \t\t\t\n  MUL \t\t\t\n  SWAP1 \t\t\t\n  POP \t\t\t\n  PUSH [tag] 191\t\t\t\n  DUP6 \t\t\t\n  PUSH [tag] 91\t\t\t\n  JUMP \t\t\t\ntag 191\t\t\t\n  JUMPDEST \t\t\t\n  SWAP5 \t\t\t\n  POP \t\t\t\n  PUSH [tag] 185\t\t\t\n  JUMP \t\t\t\ntag 187\t\t\t\n  JUMPDEST \t\t\t\n  SWAP5 \t\t\t\n  POP \t\t\t\n  SWAP5 \t\t\t\n  SWAP3 \t\t\t\n  POP \t\t\t\n  POP \t\t\t\n  POP \t\t\t\n  JUMP \t\t\t\ntag 93\t\t\t\n  JUMPDEST \t\t\t\n  PUSH 0\t\t\t\n  DUP3 \t\t\t\n  PUSH [tag] 193\t\t\t\n  JUMPI \t\t\t\n  PUSH 1\t\t\t\n  SWAP1 \t\t\t\n  POP \t\t\t\n  PUSH [tag] 192\t\t\t\n  JUMP \t\t\t\ntag 193\t\t\t\n  JUMPDEST \t\t\t\n  DUP2 \t\t\t\n  PUSH [tag] 194\t\t\t\n  JUMPI \t\t\t\n  PUSH 0\t\t\t\n  SWAP1 \t\t\t\n  POP \t\t\t\n  PUSH [tag] 192\t\t\t\n  JUMP \t\t\t\ntag 194\t\t\t\n  JUMPDEST \t\t\t\n  DUP2 \t\t\t\n  PUSH 1\t\t\t\n  DUP2 \t\t\t\n  EQ \t\t\t\n  PUSH [tag] 196\t\t\t\n  JUMPI \t\t\t\n  PUSH 2\t\t\t\n  DUP2 \t\t\t\n  EQ \t\t\t\n  PUSH [tag] 197\t\t\t\n  JUMPI \t\t\t\n  PUSH [tag] 195\t\t\t\n  JUMP \t\t\t\ntag 196\t\t\t\n  JUMPDEST \t\t\t\n  PUSH 1\t\t\t\n  SWAP2 \t\t\t\n  POP \t\t\t\n  POP \t\t\t\n  PUSH [tag] 192\t\t\t\n  JUMP \t\t\t\ntag 197\t\t\t\n  JUMPDEST \t\t\t\n  PUSH FF\t\t\t\n  DUP5 \t\t\t\n  GT \t\t\t\n  ISZERO \t\t\t\n  PUSH [tag] 198\t\t\t\n  JUMPI \t\t\t\n  PUSH [tag] 199\t\t\t\n  PUSH [tag] 90\t\t\t\n  JUMP \t\t\t\ntag 199\t\t\t\n  JUMPDEST \t\t\t\ntag 198\t\t\t\n  JUMPDEST \t\t\t\n  DUP4 \t\t\t\n  PUSH 2\t\t\t\n  EXP \t\t\t\n  SWAP2 \t\t\t\n  POP \t\t\t\n  DUP5 \t\t\t\n  DUP3 \t\t\t\n  GT \t\t\t\n  ISZERO \t\t\t\n  PUSH [tag] 200\t\t\t\n  JUMPI \t\t\t\n  PUSH [tag] 201\t\t\t\n  PUSH [tag] 90\t\t\t\n  JUMP \t\t\t\ntag 201\t\t\t\n  JUMPDEST \t\t\t\ntag 200\t\t\t\n  JUMPDEST \t\t\t\n  POP \t\t\t\n  PUSH [tag] 192\t\t\t\n  JUMP \t\t\t\ntag 195\t\t\t\n  JUMPDEST \t\t\t\n  POP \t\t\t\n  PUSH 20\t\t\t\n  DUP4 \t\t\t\n  LT \t\t\t\n  PUSH 133\t\t\t\n  DUP4 \t\t\t\n  LT \t\t\t\n  AND \t\t\t\n  PUSH 4E\t\t\t\n  DUP5 \t\t\t\n  LT \t\t\t\n  PUSH B\t\t\t\n  DUP5 \t\t\t\n  LT \t\t\t\n  AND \t\t\t\n  OR \t\t\t\n  ISZERO \t\t\t\n  PUSH [tag] 202\t\t\t\n  JUMPI \t\t\t\n  DUP3 \t\t\t\n  DUP3 \t\t\t\n  EXP \t\t\t\n  SWAP1 \t\t\t\n  POP \t\t\t\n  DUP4 \t\t\t\n  DUP2 \t\t\t\n  GT \t\t\t\n  ISZERO \t\t\t\n  PUSH [tag] 203\t\t\t\n  JUMPI \t\t\t\n  PUSH [tag] 204\t\t\t\n  PUSH [tag] 90\t\t\t\n  JUMP \t\t\t\ntag 204\t\t\t\n  JUMPDEST \t\t\t\ntag 203\t\t\t\n  JUMPDEST \t\t\t\n  PUSH [tag] 192\t\t\t\n  JUMP \t\t\t\ntag 202\t\t\t\n  JUMPDEST \t\t\t\n  PUSH [tag] 205\t\t\t\n  DUP5 \t\t\t\n  DUP5 \t\t\t\n  DUP5 \t\t\t\n  PUSH 1\t\t\t\n  PUSH [tag] 92\t\t\t\n  JUMP \t\t\t\ntag 205\t\t\t\n  JUMPDEST \t\t\t\n  SWAP3 \t\t\t\n  POP \t\t\t\n  SWAP1 \t\t\t\n  POP \t\t\t\n  DUP2 \t\t\t\n  DUP5 \t\t\t\n  DIV \t\t\t\n  DUP2 \t\t\t\n  GT \t\t\t\n  ISZERO \t\t\t\n  PUSH [tag] 206\t\t\t\n  JUMPI \t\t\t\n  PUSH [tag] 207\t\t\t\n  PUSH [tag] 90\t\t\t\n  JUMP \t\t\t\ntag 207\t\t\t\n  JUMPDEST \t\t\t\ntag 206\t\t\t\n  JUMPDEST \t\t\t\n  DUP2 \t\t\t\n  DUP2 \t\t\t\n  MUL \t\t\t\n  SWAP1 \t\t\t\n  POP \t\t\t\ntag 192\t\t\t\n  JUMPDEST \t\t\t\n  SWAP4 \t\t\t\n  SWAP3 \t\t\t\n  POP \t\t\t\n  POP \t\t\t\n  POP \t\t\t\n  JUMP \t\t\t\ntag 34\t\t\t\n  JUMPDEST \t\t\t\n  PUSH 0\t\t\t\n  PUSH [tag] 209\t\t\t\n  DUP3 \t\t\t\n  PUSH [tag] 81\t\t\t\n  JUMP \t\t\t\ntag 209\t\t\t\n  JUMPDEST \t\t\t\n  SWAP2 \t\t\t\n  POP \t\t\t\n  PUSH [tag] 210\t\t\t\n  DUP4 \t\t\t\n  PUSH [tag] 89\t\t\t\n  JUMP \t\t\t\ntag 210\t\t\t\n  JUMPDEST \t\t\t\n  SWAP3 \t\t\t\n  POP \t\t\t\n  PUSH [tag] 211\t\t\t\n  PUSH FFFFFFFFFFFFFFFFFFFFFFFFFFFFFFFFFFFFFFFFFFFFFFFFFFFFFFFFFFFFFFFF\t\t\t\n  DUP5 \t\t\t\n  DUP5 \t\t\t\n  PUSH [tag] 93\t\t\t\n  JUMP \t\t\t\ntag 211\t\t\t\n  JUMPDEST \t\t\t\n  SWAP1 \t\t\t\n  POP \t\t\t\n  SWAP3 \t\t\t\n  SWAP2 \t\t\t\n  POP \t\t\t\n  POP \t\t\t\n  JUMP \t\t\t\ntag 94\t\t\t\n  JUMPDEST \t\t\t\n  PUSH 0\t\t\t\n  DUP2 \t\t\t\n  MLOAD \t\t\t\n  SWAP1 \t\t\t\n  POP \t\t\t\n  SWAP2 \t\t\t\n  SWAP1 \t\t\t\n  POP \t\t\t\n  JUMP \t\t\t\ntag 95\t\t\t\n  JUMPDEST \t\t\t\n  PUSH 4E487B7100000000000000000000000000000000000000000000000000000000\t\t\t\n  PUSH 0\t\t\t\n  MSTORE \t\t\t\n  PUSH 22\t\t\t\n  PUSH 4\t\t\t\n  MSTORE \t\t\t\n  PUSH 24\t\t\t\n  PUSH 0\t\t\t\n  REVERT \t\t\t\ntag 96\t\t\t\n  JUMPDEST \t\t\t\n  PUSH 0\t\t\t\n  PUSH 2\t\t\t\n  DUP3 \t\t\t\n  DIV \t\t\t\n  SWAP1 \t\t\t\n  POP \t\t\t\n  PUSH 1\t\t\t\n  DUP3 \t\t\t\n  AND \t\t\t\n  DUP1 \t\t\t\n  PUSH [tag] 215\t\t\t\n  JUMPI \t\t\t\n  PUSH 7F\t\t\t\n  DUP3 \t\t\t\n  AND \t\t\t\n  SWAP2 \t\t\t\n  POP \t\t\t\ntag 215\t\t\t\n  JUMPDEST \t\t\t\n  PUSH 20\t\t\t\n  DUP3 \t\t\t\n  LT \t\t\t\n  DUP2 \t\t\t\n  SUB \t\t\t\n  PUSH [tag] 216\t\t\t\n  JUMPI \t\t\t\n  PUSH [tag] 217\t\t\t\n  PUSH [tag] 95\t\t\t\n  JUMP \t\t\t\ntag 217\t\t\t\n  JUMPDEST \t\t\t\ntag 216\t\t\t\n  JUMPDEST \t\t\t\n  POP \t\t\t\n  SWAP2 \t\t\t\n  SWAP1 \t\t\t\n  POP \t\t\t\n  JUMP \t\t\t\ntag 97\t\t\t\n  JUMPDEST \t\t\t\n  PUSH 0\t\t\t\n  DUP2 \t\t\t\n  SWAP1 \t\t\t\n  POP \t\t\t\n  DUP2 \t\t\t\n  PUSH 0\t\t\t\n  MSTORE \t\t\t\n  PUSH 20\t\t\t\n  PUSH 0\t\t\t\n  KECCAK256 \t\t\t\n  SWAP1 \t\t\t\n  POP \t\t\t\n  SWAP2 \t\t\t\n  SWAP1 \t\t\t\n  POP \t\t\t\n  JUMP \t\t\t\ntag 98\t\t\t\n  JUMPDEST \t\t\t\n  PUSH 0\t\t\t\n  PUSH 20\t\t\t\n  PUSH 1F\t\t\t\n  DUP4 \t\t\t\n  ADD \t\t\t\n  DIV \t\t\t\n  SWAP1 \t\t\t\n  POP \t\t\t\n  SWAP2 \t\t\t\n  SWAP1 \t\t\t\n  POP \t\t\t\n  JUMP \t\t\t\ntag 99\t\t\t\n  JUMPDEST \t\t\t\n  PUSH 0\t\t\t\n  DUP3 \t\t\t\n  DUP3 \t\t\t\n  SHL \t\t\t\n  SWAP1 \t\t\t\n  POP \t\t\t\n  SWAP3 \t\t\t\n  SWAP2 \t\t\t\n  POP \t\t\t\n  POP \t\t\t\n  JUMP \t\t\t\ntag 100\t\t\t\n  JUMPDEST \t\t\t\n  PUSH 0\t\t\t\n  PUSH 8\t\t\t\n  DUP4 \t\t\t\n  MUL \t\t\t\n  PUSH [tag] 222\t\t\t\n  PUSH FFFFFFFFFFFFFFFFFFFFFFFFFFFFFFFFFFFFFFFFFFFFFFFFFFFFFFFFFFFFFFFF\t\t\t\n  DUP3 \t\t\t\n  PUSH [tag] 99\t\t\t\n  JUMP \t\t\t\ntag 222\t\t\t\n  JUMPDEST \t\t\t\n  PUSH [tag] 223\t\t\t\n  DUP7 \t\t\t\n  DUP4 \t\t\t\n  PUSH [tag] 99\t\t\t\n  JUMP \t\t\t\ntag 223\t\t\t\n  JUMPDEST \t\t\t\n  SWAP6 \t\t\t\n  POP \t\t\t\n  DUP1 \t\t\t\n  NOT \t\t\t\n  DUP5 \t\t\t\n  AND \t\t\t\n  SWAP4 \t\t\t\n  POP \t\t\t\n  DUP1 \t\t\t\n  DUP7 \t\t\t\n  AND \t\t\t\n  DUP5 \t\t\t\n  OR \t\t\t\n  SWAP3 \t\t\t\n  POP \t\t\t\n  POP \t\t\t\n  POP \t\t\t\n  SWAP4 \t\t\t\n  SWAP3 \t\t\t\n  POP \t\t\t\n  POP \t\t\t\n  POP \t\t\t\n  JUMP \t\t\t\ntag 101\t\t\t\n  JUMPDEST \t\t\t\n  PUSH 0\t\t\t\n  DUP2 \t\t\t\n  SWAP1 \t\t\t\n  POP \t\t\t\n  SWAP2 \t\t\t\n  SWAP1 \t\t\t\n  POP \t\t\t\n  JUMP \t\t\t\ntag 102\t\t\t\n  JUMPDEST \t\t\t\n  PUSH 0\t\t\t\n  PUSH [tag] 226\t\t\t\n  PUSH [tag] 227\t\t\t\n  PUSH [tag] 228\t\t\t\n  DUP5 \t\t\t\n  PUSH [tag] 81\t\t\t\n  JUMP \t\t\t\ntag 228\t\t\t\n  JUMPDEST \t\t\t\n  PUSH [tag] 101\t\t\t\n  JUMP \t\t\t\ntag 227\t\t\t\n  JUMPDEST \t\t\t\n  PUSH [tag] 81\t\t\t\n  JUMP \t\t\t\ntag 226\t\t\t\n  JUMPDEST \t\t\t\n  SWAP1 \t\t\t\n  POP \t\t\t\n  SWAP2 \t\t\t\n  SWAP1 \t\t\t\n  POP \t\t\t\n  JUMP \t\t\t\ntag 103\t\t\t\n  JUMPDEST \t\t\t\n  PUSH 0\t\t\t\n  DUP2 \t\t\t\n  SWAP1 \t\t\t\n  POP \t\t\t\n  SWAP2 \t\t\t\n  SWAP1 \t\t\t\n  POP \t\t\t\n  JUMP \t\t\t\ntag 104\t\t\t\n  JUMPDEST \t\t\t\n  PUSH [tag] 231\t\t\t\n  DUP4 \t\t\t\n  PUSH [tag] 102\t\t\t\n  JUMP \t\t\t\ntag 231\t\t\t\n  JUMPDEST \t\t\t\n  PUSH [tag] 232\t\t\t\n  PUSH [tag] 233\t\t\t\n  DUP3 \t\t\t\n  PUSH [tag] 103\t\t\t\n  JUMP \t\t\t\ntag 233\t\t\t\n  JUMPDEST \t\t\t\n  DUP5 \t\t\t\n  DUP5 \t\t\t\n  SLOAD \t\t\t\n  PUSH [tag] 100\t\t\t\n  JUMP \t\t\t\ntag 232\t\t\t\n  JUMPDEST \t\t\t\n  DUP3 \t\t\t\n  SSTORE \t\t\t\n  POP \t\t\t\n  POP \t\t\t\n  POP \t\t\t\n  POP \t\t\t\n  JUMP \t\t\t\ntag 105\t\t\t\n  JUMPDEST \t\t\t\n  PUSH 0\t\t\t\n  SWAP1 \t\t\t\n  JUMP \t\t\t\ntag 106\t\t\t\n  JUMPDEST \t\t\t\n  PUSH [tag] 236\t\t\t\n  PUSH [tag] 105\t\t\t\n  JUMP \t\t\t\ntag 236\t\t\t\n  JUMPDEST \t\t\t\n  PUSH [tag] 237\t\t\t\n  DUP2 \t\t\t\n  DUP5 \t\t\t\n  DUP5 \t\t\t\n  PUSH [tag] 104\t\t\t\n  JUMP \t\t\t\ntag 237\t\t\t\n  JUMPDEST \t\t\t\n  POP \t\t\t\n  POP \t\t\t\n  POP \t\t\t\n  JUMP \t\t\t\ntag 107\t\t\t\n  JUMPDEST \t\t\t\ntag 239\t\t\t\n  JUMPDEST \t\t\t\n  DUP2 \t\t\t\n  DUP2 \t\t\t\n  LT \t\t\t\n  ISZERO \t\t\t\n  PUSH [tag] 241\t\t\t\n  JUMPI \t\t\t\n  PUSH [tag] 242\t\t\t\n  PUSH 0\t\t\t\n  DUP3 \t\t\t\n  PUSH [tag] 106\t\t\t\n  JUMP \t\t\t\ntag 242\t\t\t\n  JUMPDEST \t\t\t\n  PUSH 1\t\t\t\n  DUP2 \t\t\t\n  ADD \t\t\t\n  SWAP1 \t\t\t\n  POP \t\t\t\n  PUSH [tag] 239\t\t\t\n  JUMP \t\t\t\ntag 241\t\t\t\n  JUMPDEST \t\t\t\n  POP \t\t\t\n  POP \t\t\t\n  JUMP \t\t\t\ntag 108\t\t\t\n  JUMPDEST \t\t\t\n  PUSH 1F\t\t\t\n  DUP3 \t\t\t\n  GT \t\t\t\n  ISZERO \t\t\t\n  PUSH [tag] 244\t\t\t\n  JUMPI \t\t\t\n  PUSH [tag] 245\t\t\t\n  DUP2 \t\t\t\n  PUSH [tag] 97\t\t\t\n  JUMP \t\t\t\ntag 245\t\t\t\n  JUMPDEST \t\t\t\n  PUSH [tag] 246\t\t\t\n  DUP5 \t\t\t\n  PUSH [tag] 98\t\t\t\n  JUMP \t\t\t\ntag 246\t\t\t\n  JUMPDEST \t\t\t\n  DUP2 \t\t\t\n  ADD \t\t\t\n  PUSH 20\t\t\t\n  DUP6 \t\t\t\n  LT \t\t\t\n  ISZERO \t\t\t\n  PUSH [tag] 247\t\t\t\n  JUMPI \t\t\t\n  DUP2 \t\t\t\n  SWAP1 \t\t\t\n  POP \t\t\t\ntag 247\t\t\t\n  JUMPDEST \t\t\t\n  PUSH [tag] 248\t\t\t\n  PUSH [tag] 249\t\t\t\n  DUP6 \t\t\t\n  PUSH [tag] 98\t\t\t\n  JUMP \t\t\t\ntag 249\t\t\t\n  JUMPDEST \t\t\t\n  DUP4 \t\t\t\n  ADD \t\t\t\n  DUP3 \t\t\t\n  PUSH [tag] 107\t\t\t\n  JUMP \t\t\t\ntag 248\t\t\t\n  JUMPDEST \t\t\t\n  POP \t\t\t\n  POP \t\t\t\ntag 244\t\t\t\n  JUMPDEST \t\t\t\n  POP \t\t\t\n  POP \t\t\t\n  POP \t\t\t\n  JUMP \t\t\t\ntag 109\t\t\t\n  JUMPDEST \t\t\t\n  PUSH 0\t\t\t\n  DUP3 \t\t\t\n  DUP3 \t\t\t\n  SHR \t\t\t\n  SWAP1 \t\t\t\n  POP \t\t\t\n  SWAP3 \t\t\t\n  SWAP2 \t\t\t\n  POP \t\t\t\n  POP \t\t\t\n  JUMP \t\t\t\ntag 110\t\t\t\n  JUMPDEST \t\t\t\n  PUSH 0\t\t\t\n  PUSH [tag] 252\t\t\t\n  PUSH 0\t\t\t\n  NOT \t\t\t\n  DUP5 \t\t\t\n  PUSH 8\t\t\t\n  MUL \t\t\t\n  PUSH [tag] 109\t\t\t\n  JUMP \t\t\t\ntag 252\t\t\t\n  JUMPDEST \t\t\t\n  NOT \t\t\t\n  DUP1 \t\t\t\n  DUP4 \t\t\t\n  AND \t\t\t\n  SWAP2 \t\t\t\n  POP \t\t\t\n  POP \t\t\t\n  SWAP3 \t\t\t\n  SWAP2 \t\t\t\n  POP \t\t\t\n  POP \t\t\t\n  JUMP \t\t\t\ntag 111\t\t\t\n  JUMPDEST \t\t\t\n  PUSH 0\t\t\t\n  PUSH [tag] 254\t\t\t\n  DUP4 \t\t\t\n  DUP4 \t\t\t\n  PUSH [tag] 110\t\t\t\n  JUMP \t\t\t\ntag 254\t\t\t\n  JUMPDEST \t\t\t\n  SWAP2 \t\t\t\n  POP \t\t\t\n  DUP3 \t\t\t\n  PUSH 2\t\t\t\n  MUL \t\t\t\n  DUP3 \t\t\t\n  OR \t\t\t\n  SWAP1 \t\t\t\n  POP \t\t\t\n  SWAP3 \t\t\t\n  SWAP2 \t\t\t\n  POP \t\t\t\n  POP \t\t\t\n  JUMP \t\t\t\ntag 37\t\t\t\n  JUMPDEST \t\t\t\n  PUSH [tag] 256\t\t\t\n  DUP3 \t\t\t\n  PUSH [tag] 94\t\t\t\n  JUMP \t\t\t\ntag 256\t\t\t\n  JUMPDEST \t\t\t\n  PUSH FFFFFFFFFFFFFFFF\t\t\t\n  DUP2 \t\t\t\n  GT \t\t\t\n  ISZERO \t\t\t\n  PUSH [tag] 257\t\t\t\n  JUMPI \t\t\t\n  PUSH [tag] 258\t\t\t\n  PUSH [tag] 74\t\t\t\n  JUMP \t\t\t\ntag 258\t\t\t\n  JUMPDEST \t\t\t\ntag 257\t\t\t\n  JUMPDEST \t\t\t\n  PUSH [tag] 259\t\t\t\n  DUP3 \t\t\t\n  SLOAD \t\t\t\n  PUSH [tag] 96\t\t\t\n  JUMP \t\t\t\ntag 259\t\t\t\n  JUMPDEST \t\t\t\n  PUSH [tag] 260\t\t\t\n  DUP3 \t\t\t\n  DUP3 \t\t\t\n  DUP6 \t\t\t\n  PUSH [tag] 108\t\t\t\n  JUMP \t\t\t\ntag 260\t\t\t\n  JUMPDEST \t\t\t\n  PUSH 0\t\t\t\n  PUSH 20\t\t\t\n  SWAP1 \t\t\t\n  POP \t\t\t\n  PUSH 1F\t\t\t\n  DUP4 \t\t\t\n  GT \t\t\t\n  PUSH 1\t\t\t\n  DUP2 \t\t\t\n  EQ \t\t\t\n  PUSH [tag] 262\t\t\t\n  JUMPI \t\t\t\n  PUSH 0\t\t\t\n  DUP5 \t\t\t\n  ISZERO \t\t\t\n  PUSH [tag] 263\t\t\t\n  JUMPI \t\t\t\n  DUP3 \t\t\t\n  DUP8 \t\t\t\n  ADD \t\t\t\n  MLOAD \t\t\t\n  SWAP1 \t\t\t\n  POP \t\t\t\ntag 263\t\t\t\n  JUMPDEST \t\t\t\n  PUSH [tag] 264\t\t\t\n  DUP6 \t\t\t\n  DUP3 \t\t\t\n  PUSH [tag] 111\t\t\t\n  JUMP \t\t\t\ntag 264\t\t\t\n  JUMPDEST \t\t\t\n  DUP7 \t\t\t\n  SSTORE \t\t\t\n  POP \t\t\t\n  PUSH [tag] 261\t\t\t\n  JUMP \t\t\t\ntag 262\t\t\t\n  JUMPDEST \t\t\t\n  PUSH 1F\t\t\t\n  NOT \t\t\t\n  DUP5 \t\t\t\n  AND \t\t\t\n  PUSH [tag] 265\t\t\t\n  DUP7 \t\t\t\n  PUSH [tag] 97\t\t\t\n  JUMP \t\t\t\ntag 265\t\t\t\n  JUMPDEST \t\t\t\n  PUSH 0\t\t\t\ntag 266\t\t\t\n  JUMPDEST \t\t\t\n  DUP3 \t\t\t\n  DUP2 \t\t\t\n  LT \t\t\t\n  ISZERO \t\t\t\n  PUSH [tag] 268\t\t\t\n  JUMPI \t\t\t\n  DUP5 \t\t\t\n  DUP10 \t\t\t\n  ADD \t\t\t\n  MLOAD \t\t\t\n  DUP3 \t\t\t\n  SSTORE \t\t\t\n  PUSH 1\t\t\t\n  DUP3 \t\t\t\n  ADD \t\t\t\n  SWAP2 \t\t\t\n  POP \t\t\t\n  PUSH 20\t\t\t\n  DUP6 \t\t\t\n  ADD \t\t\t\n  SWAP5 \t\t\t\n  POP \t\t\t\n  PUSH 20\t\t\t\n  DUP2 \t\t\t\n  ADD \t\t\t\n  SWAP1 \t\t\t\n  POP \t\t\t\n  PUSH [tag] 266\t\t\t\n  JUMP \t\t\t\ntag 268\t\t\t\n  JUMPDEST \t\t\t\n  DUP7 \t\t\t\n  DUP4 \t\t\t\n  LT \t\t\t\n  ISZERO \t\t\t\n  PUSH [tag] 269\t\t\t\n  JUMPI \t\t\t\n  DUP5 \t\t\t\n  DUP10 \t\t\t\n  ADD \t\t\t\n  MLOAD \t\t\t\n  PUSH [tag] 270\t\t\t\n  PUSH 1F\t\t\t\n  DUP10 \t\t\t\n  AND \t\t\t\n  DUP3 \t\t\t\n  PUSH [tag] 110\t\t\t\n  JUMP \t\t\t\ntag 270\t\t\t\n  JUMPDEST \t\t\t\n  DUP4 \t\t\t\n  SSTORE \t\t\t\n  POP \t\t\t\ntag 269\t\t\t\n  JUMPDEST \t\t\t\n  PUSH 1\t\t\t\n  PUSH 2\t\t\t\n  DUP9 \t\t\t\n  MUL \t\t\t\n  ADD \t\t\t\n  DUP9 \t\t\t\n  SSTORE \t\t\t\n  POP \t\t\t\n  POP \t\t\t\n  POP \t\t\t\ntag 261\t\t\t\n  JUMPDEST \t\t\t\n  POP \t\t\t\n  POP \t\t\t\n  POP \t\t\t\n  POP \t\t\t\n  POP \t\t\t\n  POP \t\t\t\n  JUMP \t\t\t\ntag 45\t\t\t\n  JUMPDEST \t\t\t\n  PUSH 0\t\t\t\n  PUSH [tag] 272\t\t\t\n  DUP3 \t\t\t\n  PUSH [tag] 81\t\t\t\n  JUMP \t\t\t\ntag 272\t\t\t\n  JUMPDEST \t\t\t\n  SWAP2 \t\t\t\n  POP \t\t\t\n  PUSH [tag] 273\t\t\t\n  DUP4 \t\t\t\n  PUSH [tag] 81\t\t\t\n  JUMP \t\t\t\ntag 273\t\t\t\n  JUMPDEST \t\t\t\n  SWAP3 \t\t\t\n  POP \t\t\t\n  DUP3 \t\t\t\n  DUP3 \t\t\t\n  MUL \t\t\t\n  PUSH [tag] 274\t\t\t\n  DUP2 \t\t\t\n  PUSH [tag] 81\t\t\t\n  JUMP \t\t\t\ntag 274\t\t\t\n  JUMPDEST \t\t\t\n  SWAP2 \t\t\t\n  POP \t\t\t\n  DUP3 \t\t\t\n  DUP3 \t\t\t\n  DIV \t\t\t\n  DUP5 \t\t\t\n  EQ \t\t\t\n  DUP4 \t\t\t\n  ISZERO \t\t\t\n  OR \t\t\t\n  PUSH [tag] 275\t\t\t\n  JUMPI \t\t\t\n  PUSH [tag] 276\t\t\t\n  PUSH [tag] 90\t\t\t\n  JUMP \t\t\t\ntag 276\t\t\t\n  JUMPDEST \t\t\t\ntag 275\t\t\t\n  JUMPDEST \t\t\t\n  POP \t\t\t\n  SWAP3 \t\t\t\n  SWAP2 \t\t\t\n  POP \t\t\t\n  POP \t\t\t\n  JUMP \t\t\t\ntag 59\t\t\t\n  JUMPDEST \t\t\t\n  PUSH 0\t\t\t\n  PUSH [tag] 278\t\t\t\n  DUP3 \t\t\t\n  PUSH [tag] 81\t\t\t\n  JUMP \t\t\t\ntag 278\t\t\t\n  JUMPDEST \t\t\t\n  SWAP2 \t\t\t\n  POP \t\t\t\n  PUSH [tag] 279\t\t\t\n  DUP4 \t\t\t\n  PUSH [tag] 81\t\t\t\n  JUMP \t\t\t\ntag 279\t\t\t\n  JUMPDEST \t\t\t\n  SWAP3 \t\t\t\n  POP \t\t\t\n  DUP3 \t\t\t\n  DUP3 \t\t\t\n  ADD \t\t\t\n  SWAP1 \t\t\t\n  POP \t\t\t\n  DUP1 \t\t\t\n  DUP3 \t\t\t\n  GT \t\t\t\n  ISZERO \t\t\t\n  PUSH [tag] 280\t\t\t\n  JUMPI \t\t\t\n  PUSH [tag] 281\t\t\t\n  PUSH [tag] 90\t\t\t\n  JUMP \t\t\t\ntag 281\t\t\t\n  JUMPDEST \t\t\t\ntag 280\t\t\t\n  JUMPDEST \t\t\t\n  SWAP3 \t\t\t\n  SWAP2 \t\t\t\n  POP \t\t\t\n  POP \t\t\t\n  JUMP \t\t\t\ntag 112\t\t\t\n  JUMPDEST \t\t\t\n  PUSH [tag] 283\t\t\t\n  DUP2 \t\t\t\n  PUSH [tag] 81\t\t\t\n  JUMP \t\t\t\ntag 283\t\t\t\n  JUMPDEST \t\t\t\n  DUP3 \t\t\t\n  MSTORE \t\t\t\n  POP \t\t\t\n  POP \t\t\t\n  JUMP \t\t\t\ntag 63\t\t\t\n  JUMPDEST \t\t\t\n  PUSH 0\t\t\t\n  PUSH 60\t\t\t\n  DUP3 \t\t\t\n  ADD \t\t\t\n  SWAP1 \t\t\t\n  POP \t\t\t\n  PUSH [tag] 285\t\t\t\n  PUSH 0\t\t\t\n  DUP4 \t\t\t\n  ADD \t\t\t\n  DUP7 \t\t\t\n  PUSH [tag] 88\t\t\t\n  JUMP \t\t\t\ntag 285\t\t\t\n  JUMPDEST \t\t\t\n  PUSH [tag] 286\t\t\t\n  PUSH 20\t\t\t\n  DUP4 \t\t\t\n  ADD \t\t\t\n  DUP6 \t\t\t\n  PUSH [tag] 112\t\t\t\n  JUMP \t\t\t\ntag 286\t\t\t\n  JUMPDEST \t\t\t\n  PUSH [tag] 287\t\t\t\n  PUSH 40\t\t\t\n  DUP4 \t\t\t\n  ADD \t\t\t\n  DUP5 \t\t\t\n  PUSH [tag] 112\t\t\t\n  JUMP \t\t\t\ntag 287\t\t\t\n  JUMPDEST \t\t\t\n  SWAP5 \t\t\t\n  SWAP4 \t\t\t\n  POP \t\t\t\n  POP \t\t\t\n  POP \t\t\t\n  POP \t\t\t\n  JUMP \t\t\t\ntag 67\t\t\t\n  JUMPDEST \t\t\t\n  PUSH 0\t\t\t\n  PUSH 20\t\t\t\n  DUP3 \t\t\t\n  ADD \t\t\t\n  SWAP1 \t\t\t\n  POP \t\t\t\n  PUSH [tag] 289\t\t\t\n  PUSH 0\t\t\t\n  DUP4 \t\t\t\n  ADD \t\t\t\n  DUP5 \t\t\t\n  PUSH [tag] 112\t\t\t\n  JUMP \t\t\t\ntag 289\t\t\t\n  JUMPDEST \t\t\t\n  SWAP3 \t\t\t\n  SWAP2 \t\t\t\n  POP \t\t\t\n  POP \t\t\t\n  JUMP \t\t\t\ntag 47\t\t\tcontract MyOFT is OFT {\\r\\n\\r\\...\n  JUMPDEST \t\t\tcontract MyOFT is OFT {\\r\\n\\r\\...\n  PUSH 80\t\t\tcontract MyOFT is OFT {\\r\\n\\r\\...\n  MLOAD \t\t\tcontract MyOFT is OFT {\\r\\n\\r\\...\n  PUSH A0\t\t\tcontract MyOFT is OFT {\\r\\n\\r\\...\n  MLOAD \t\t\tcontract MyOFT is OFT {\\r\\n\\r\\...\n  PUSH #[$] 0000000000000000000000000000000000000000000000000000000000000000\t\t\tcontract MyOFT is OFT {\\r\\n\\r\\...\n  PUSH [$] 0000000000000000000000000000000000000000000000000000000000000000\t\t\tcontract MyOFT is OFT {\\r\\n\\r\\...\n  PUSH 0\t\t\tcontract MyOFT is OFT {\\r\\n\\r\\...\n  CODECOPY \t\t\tcontract MyOFT is OFT {\\r\\n\\r\\...\n  PUSH 0\t\t\tcontract MyOFT is OFT {\\r\\n\\r\\...\n  ASSIGNIMMUTABLE 2778\t\t\tcontract MyOFT is OFT {\\r\\n\\r\\...\n  PUSH 0\t\t\tcontract MyOFT is OFT {\\r\\n\\r\\...\n  ASSIGNIMMUTABLE 1386\t\t\tcontract MyOFT is OFT {\\r\\n\\r\\...\n  PUSH #[$] 0000000000000000000000000000000000000000000000000000000000000000\t\t\tcontract MyOFT is OFT {\\r\\n\\r\\...\n  PUSH 0\t\t\tcontract MyOFT is OFT {\\r\\n\\r\\...\n  RETURN \t\t\tcontract MyOFT is OFT {\\r\\n\\r\\...\n.data\n  0:\n    .code\n      PUSH 80\t\t\tcontract MyOFT is OFT {\\r\\n\\r\\...\n      PUSH 40\t\t\tcontract MyOFT is OFT {\\r\\n\\r\\...\n      MSTORE \t\t\tcontract MyOFT is OFT {\\r\\n\\r\\...\n      PUSH 4\t\t\tcontract MyOFT is OFT {\\r\\n\\r\\...\n      CALLDATASIZE \t\t\tcontract MyOFT is OFT {\\r\\n\\r\\...\n      LT \t\t\tcontract MyOFT is OFT {\\r\\n\\r\\...\n      PUSH [tag] 1\t\t\tcontract MyOFT is OFT {\\r\\n\\r\\...\n      JUMPI \t\t\tcontract MyOFT is OFT {\\r\\n\\r\\...\n      PUSH 0\t\t\tcontract MyOFT is OFT {\\r\\n\\r\\...\n      CALLDATALOAD \t\t\tcontract MyOFT is OFT {\\r\\n\\r\\...\n      PUSH E0\t\t\tcontract MyOFT is OFT {\\r\\n\\r\\...\n      SHR \t\t\tcontract MyOFT is OFT {\\r\\n\\r\\...\n      DUP1 \t\t\tcontract MyOFT is OFT {\\r\\n\\r\\...\n      PUSH 7D25A05E\t\t\tcontract MyOFT is OFT {\\r\\n\\r\\...\n      GT \t\t\tcontract MyOFT is OFT {\\r\\n\\r\\...\n      PUSH [tag] 44\t\t\tcontract MyOFT is OFT {\\r\\n\\r\\...\n      JUMPI \t\t\tcontract MyOFT is OFT {\\r\\n\\r\\...\n      DUP1 \t\t\tcontract MyOFT is OFT {\\r\\n\\r\\...\n      PUSH BB0B6A53\t\t\tcontract MyOFT is OFT {\\r\\n\\r\\...\n      GT \t\t\tcontract MyOFT is OFT {\\r\\n\\r\\...\n      PUSH [tag] 45\t\t\tcontract MyOFT is OFT {\\r\\n\\r\\...\n      JUMPI \t\t\tcontract MyOFT is OFT {\\r\\n\\r\\...\n      DUP1 \t\t\tcontract MyOFT is OFT {\\r\\n\\r\\...\n      PUSH D045A0DC\t\t\tcontract MyOFT is OFT {\\r\\n\\r\\...\n      GT \t\t\tcontract MyOFT is OFT {\\r\\n\\r\\...\n      PUSH [tag] 46\t\t\tcontract MyOFT is OFT {\\r\\n\\r\\...\n      JUMPI \t\t\tcontract MyOFT is OFT {\\r\\n\\r\\...\n      DUP1 \t\t\tcontract MyOFT is OFT {\\r\\n\\r\\...\n      PUSH D045A0DC\t\t\tcontract MyOFT is OFT {\\r\\n\\r\\...\n      EQ \t\t\tcontract MyOFT is OFT {\\r\\n\\r\\...\n      PUSH [tag] 38\t\t\tcontract MyOFT is OFT {\\r\\n\\r\\...\n      JUMPI \t\t\tcontract MyOFT is OFT {\\r\\n\\r\\...\n      DUP1 \t\t\tcontract MyOFT is OFT {\\r\\n\\r\\...\n      PUSH D4243885\t\t\tcontract MyOFT is OFT {\\r\\n\\r\\...\n      EQ \t\t\tcontract MyOFT is OFT {\\r\\n\\r\\...\n      PUSH [tag] 39\t\t\tcontract MyOFT is OFT {\\r\\n\\r\\...\n      JUMPI \t\t\tcontract MyOFT is OFT {\\r\\n\\r\\...\n      DUP1 \t\t\tcontract MyOFT is OFT {\\r\\n\\r\\...\n      PUSH DD62ED3E\t\t\tcontract MyOFT is OFT {\\r\\n\\r\\...\n      EQ \t\t\tcontract MyOFT is OFT {\\r\\n\\r\\...\n      PUSH [tag] 40\t\t\tcontract MyOFT is OFT {\\r\\n\\r\\...\n      JUMPI \t\t\tcontract MyOFT is OFT {\\r\\n\\r\\...\n      DUP1 \t\t\tcontract MyOFT is OFT {\\r\\n\\r\\...\n      PUSH F2FDE38B\t\t\tcontract MyOFT is OFT {\\r\\n\\r\\...\n      EQ \t\t\tcontract MyOFT is OFT {\\r\\n\\r\\...\n      PUSH [tag] 41\t\t\tcontract MyOFT is OFT {\\r\\n\\r\\...\n      JUMPI \t\t\tcontract MyOFT is OFT {\\r\\n\\r\\...\n      DUP1 \t\t\tcontract MyOFT is OFT {\\r\\n\\r\\...\n      PUSH FC0C546A\t\t\tcontract MyOFT is OFT {\\r\\n\\r\\...\n      EQ \t\t\tcontract MyOFT is OFT {\\r\\n\\r\\...\n      PUSH [tag] 42\t\t\tcontract MyOFT is OFT {\\r\\n\\r\\...\n      JUMPI \t\t\tcontract MyOFT is OFT {\\r\\n\\r\\...\n      DUP1 \t\t\tcontract MyOFT is OFT {\\r\\n\\r\\...\n      PUSH FF7BD03D\t\t\tcontract MyOFT is OFT {\\r\\n\\r\\...\n      EQ \t\t\tcontract MyOFT is OFT {\\r\\n\\r\\...\n      PUSH [tag] 43\t\t\tcontract MyOFT is OFT {\\r\\n\\r\\...\n      JUMPI \t\t\tcontract MyOFT is OFT {\\r\\n\\r\\...\n      PUSH [tag] 1\t\t\tcontract MyOFT is OFT {\\r\\n\\r\\...\n      JUMP \t\t\tcontract MyOFT is OFT {\\r\\n\\r\\...\n    tag 46\t\t\tcontract MyOFT is OFT {\\r\\n\\r\\...\n      JUMPDEST \t\t\tcontract MyOFT is OFT {\\r\\n\\r\\...\n      DUP1 \t\t\tcontract MyOFT is OFT {\\r\\n\\r\\...\n      PUSH BB0B6A53\t\t\tcontract MyOFT is OFT {\\r\\n\\r\\...\n      EQ \t\t\tcontract MyOFT is OFT {\\r\\n\\r\\...\n      PUSH [tag] 33\t\t\tcontract MyOFT is OFT {\\r\\n\\r\\...\n      JUMPI \t\t\tcontract MyOFT is OFT {\\r\\n\\r\\...\n      DUP1 \t\t\tcontract MyOFT is OFT {\\r\\n\\r\\...\n      PUSH BC70B354\t\t\tcontract MyOFT is OFT {\\r\\n\\r\\...\n      EQ \t\t\tcontract MyOFT is OFT {\\r\\n\\r\\...\n      PUSH [tag] 34\t\t\tcontract MyOFT is OFT {\\r\\n\\r\\...\n      JUMPI \t\t\tcontract MyOFT is OFT {\\r\\n\\r\\...\n      DUP1 \t\t\tcontract MyOFT is OFT {\\r\\n\\r\\...\n      PUSH BD815DB0\t\t\tcontract MyOFT is OFT {\\r\\n\\r\\...\n      EQ \t\t\tcontract MyOFT is OFT {\\r\\n\\r\\...\n      PUSH [tag] 35\t\t\tcontract MyOFT is OFT {\\r\\n\\r\\...\n      JUMPI \t\t\tcontract MyOFT is OFT {\\r\\n\\r\\...\n      DUP1 \t\t\tcontract MyOFT is OFT {\\r\\n\\r\\...\n      PUSH C7C7F5B3\t\t\tcontract MyOFT is OFT {\\r\\n\\r\\...\n      EQ \t\t\tcontract MyOFT is OFT {\\r\\n\\r\\...\n      PUSH [tag] 36\t\t\tcontract MyOFT is OFT {\\r\\n\\r\\...\n      JUMPI \t\t\tcontract MyOFT is OFT {\\r\\n\\r\\...\n      DUP1 \t\t\tcontract MyOFT is OFT {\\r\\n\\r\\...\n      PUSH CA5EB5E1\t\t\tcontract MyOFT is OFT {\\r\\n\\r\\...\n      EQ \t\t\tcontract MyOFT is OFT {\\r\\n\\r\\...\n      PUSH [tag] 37\t\t\tcontract MyOFT is OFT {\\r\\n\\r\\...\n      JUMPI \t\t\tcontract MyOFT is OFT {\\r\\n\\r\\...\n      PUSH [tag] 1\t\t\tcontract MyOFT is OFT {\\r\\n\\r\\...\n      JUMP \t\t\tcontract MyOFT is OFT {\\r\\n\\r\\...\n    tag 45\t\t\tcontract MyOFT is OFT {\\r\\n\\r\\...\n      JUMPDEST \t\t\tcontract MyOFT is OFT {\\r\\n\\r\\...\n      DUP1 \t\t\tcontract MyOFT is OFT {\\r\\n\\r\\...\n      PUSH 963EFCAA\t\t\tcontract MyOFT is OFT {\\r\\n\\r\\...\n      GT \t\t\tcontract MyOFT is OFT {\\r\\n\\r\\...\n      PUSH [tag] 47\t\t\tcontract MyOFT is OFT {\\r\\n\\r\\...\n      JUMPI \t\t\tcontract MyOFT is OFT {\\r\\n\\r\\...\n      DUP1 \t\t\tcontract MyOFT is OFT {\\r\\n\\r\\...\n      PUSH 963EFCAA\t\t\tcontract MyOFT is OFT {\\r\\n\\r\\...\n      EQ \t\t\tcontract MyOFT is OFT {\\r\\n\\r\\...\n      PUSH [tag] 28\t\t\tcontract MyOFT is OFT {\\r\\n\\r\\...\n      JUMPI \t\t\tcontract MyOFT is OFT {\\r\\n\\r\\...\n      DUP1 \t\t\tcontract MyOFT is OFT {\\r\\n\\r\\...\n      PUSH 9F68B964\t\t\tcontract MyOFT is OFT {\\r\\n\\r\\...\n      EQ \t\t\tcontract MyOFT is OFT {\\r\\n\\r\\...\n      PUSH [tag] 29\t\t\tcontract MyOFT is OFT {\\r\\n\\r\\...\n      JUMPI \t\t\tcontract MyOFT is OFT {\\r\\n\\r\\...\n      DUP1 \t\t\tcontract MyOFT is OFT {\\r\\n\\r\\...\n      PUSH A9059CBB\t\t\tcontract MyOFT is OFT {\\r\\n\\r\\...\n      EQ \t\t\tcontract MyOFT is OFT {\\r\\n\\r\\...\n      PUSH [tag] 30\t\t\tcontract MyOFT is OFT {\\r\\n\\r\\...\n      JUMPI \t\t\tcontract MyOFT is OFT {\\r\\n\\r\\...\n      DUP1 \t\t\tcontract MyOFT is OFT {\\r\\n\\r\\...\n      PUSH B731EA0A\t\t\tcontract MyOFT is OFT {\\r\\n\\r\\...\n      EQ \t\t\tcontract MyOFT is OFT {\\r\\n\\r\\...\n      PUSH [tag] 31\t\t\tcontract MyOFT is OFT {\\r\\n\\r\\...\n      JUMPI \t\t\tcontract MyOFT is OFT {\\r\\n\\r\\...\n      DUP1 \t\t\tcontract MyOFT is OFT {\\r\\n\\r\\...\n      PUSH B98BD070\t\t\tcontract MyOFT is OFT {\\r\\n\\r\\...\n      EQ \t\t\tcontract MyOFT is OFT {\\r\\n\\r\\...\n      PUSH [tag] 32\t\t\tcontract MyOFT is OFT {\\r\\n\\r\\...\n      JUMPI \t\t\tcontract MyOFT is OFT {\\r\\n\\r\\...\n      PUSH [tag] 1\t\t\tcontract MyOFT is OFT {\\r\\n\\r\\...\n      JUMP \t\t\tcontract MyOFT is OFT {\\r\\n\\r\\...\n    tag 47\t\t\tcontract MyOFT is OFT {\\r\\n\\r\\...\n      JUMPDEST \t\t\tcontract MyOFT is OFT {\\r\\n\\r\\...\n      DUP1 \t\t\tcontract MyOFT is OFT {\\r\\n\\r\\...\n      PUSH 7D25A05E\t\t\tcontract MyOFT is OFT {\\r\\n\\r\\...\n      EQ \t\t\tcontract MyOFT is OFT {\\r\\n\\r\\...\n      PUSH [tag] 23\t\t\tcontract MyOFT is OFT {\\r\\n\\r\\...\n      JUMPI \t\t\tcontract MyOFT is OFT {\\r\\n\\r\\...\n      DUP1 \t\t\tcontract MyOFT is OFT {\\r\\n\\r\\...\n      PUSH 82413EAC\t\t\tcontract MyOFT is OFT {\\r\\n\\r\\...\n      EQ \t\t\tcontract MyOFT is OFT {\\r\\n\\r\\...\n      PUSH [tag] 24\t\t\tcontract MyOFT is OFT {\\r\\n\\r\\...\n      JUMPI \t\t\tcontract MyOFT is OFT {\\r\\n\\r\\...\n      DUP1 \t\t\tcontract MyOFT is OFT {\\r\\n\\r\\...\n      PUSH 857749B0\t\t\tcontract MyOFT is OFT {\\r\\n\\r\\...\n      EQ \t\t\tcontract MyOFT is OFT {\\r\\n\\r\\...\n      PUSH [tag] 25\t\t\tcontract MyOFT is OFT {\\r\\n\\r\\...\n      JUMPI \t\t\tcontract MyOFT is OFT {\\r\\n\\r\\...\n      DUP1 \t\t\tcontract MyOFT is OFT {\\r\\n\\r\\...\n      PUSH 8DA5CB5B\t\t\tcontract MyOFT is OFT {\\r\\n\\r\\...\n      EQ \t\t\tcontract MyOFT is OFT {\\r\\n\\r\\...\n      PUSH [tag] 26\t\t\tcontract MyOFT is OFT {\\r\\n\\r\\...\n      JUMPI \t\t\tcontract MyOFT is OFT {\\r\\n\\r\\...\n      DUP1 \t\t\tcontract MyOFT is OFT {\\r\\n\\r\\...\n      PUSH 95D89B41\t\t\tcontract MyOFT is OFT {\\r\\n\\r\\...\n      EQ \t\t\tcontract MyOFT is OFT {\\r\\n\\r\\...\n      PUSH [tag] 27\t\t\tcontract MyOFT is OFT {\\r\\n\\r\\...\n      JUMPI \t\t\tcontract MyOFT is OFT {\\r\\n\\r\\...\n      PUSH [tag] 1\t\t\tcontract MyOFT is OFT {\\r\\n\\r\\...\n      JUMP \t\t\tcontract MyOFT is OFT {\\r\\n\\r\\...\n    tag 44\t\t\tcontract MyOFT is OFT {\\r\\n\\r\\...\n      JUMPDEST \t\t\tcontract MyOFT is OFT {\\r\\n\\r\\...\n      DUP1 \t\t\tcontract MyOFT is OFT {\\r\\n\\r\\...\n      PUSH 23B872DD\t\t\tcontract MyOFT is OFT {\\r\\n\\r\\...\n      GT \t\t\tcontract MyOFT is OFT {\\r\\n\\r\\...\n      PUSH [tag] 48\t\t\tcontract MyOFT is OFT {\\r\\n\\r\\...\n      JUMPI \t\t\tcontract MyOFT is OFT {\\r\\n\\r\\...\n      DUP1 \t\t\tcontract MyOFT is OFT {\\r\\n\\r\\...\n      PUSH 5535D461\t\t\tcontract MyOFT is OFT {\\r\\n\\r\\...\n      GT \t\t\tcontract MyOFT is OFT {\\r\\n\\r\\...\n      PUSH [tag] 49\t\t\tcontract MyOFT is OFT {\\r\\n\\r\\...\n      JUMPI \t\t\tcontract MyOFT is OFT {\\r\\n\\r\\...\n      DUP1 \t\t\tcontract MyOFT is OFT {\\r\\n\\r\\...\n      PUSH 5535D461\t\t\tcontract MyOFT is OFT {\\r\\n\\r\\...\n      EQ \t\t\tcontract MyOFT is OFT {\\r\\n\\r\\...\n      PUSH [tag] 17\t\t\tcontract MyOFT is OFT {\\r\\n\\r\\...\n      JUMPI \t\t\tcontract MyOFT is OFT {\\r\\n\\r\\...\n      DUP1 \t\t\tcontract MyOFT is OFT {\\r\\n\\r\\...\n      PUSH 5A0DFE4D\t\t\tcontract MyOFT is OFT {\\r\\n\\r\\...\n      EQ \t\t\tcontract MyOFT is OFT {\\r\\n\\r\\...\n      PUSH [tag] 18\t\t\tcontract MyOFT is OFT {\\r\\n\\r\\...\n      JUMPI \t\t\tcontract MyOFT is OFT {\\r\\n\\r\\...\n      DUP1 \t\t\tcontract MyOFT is OFT {\\r\\n\\r\\...\n      PUSH 5E280F11\t\t\tcontract MyOFT is OFT {\\r\\n\\r\\...\n      EQ \t\t\tcontract MyOFT is OFT {\\r\\n\\r\\...\n      PUSH [tag] 19\t\t\tcontract MyOFT is OFT {\\r\\n\\r\\...\n      JUMPI \t\t\tcontract MyOFT is OFT {\\r\\n\\r\\...\n      DUP1 \t\t\tcontract MyOFT is OFT {\\r\\n\\r\\...\n      PUSH 6FC1B31E\t\t\tcontract MyOFT is OFT {\\r\\n\\r\\...\n      EQ \t\t\tcontract MyOFT is OFT {\\r\\n\\r\\...\n      PUSH [tag] 20\t\t\tcontract MyOFT is OFT {\\r\\n\\r\\...\n      JUMPI \t\t\tcontract MyOFT is OFT {\\r\\n\\r\\...\n      DUP1 \t\t\tcontract MyOFT is OFT {\\r\\n\\r\\...\n      PUSH 70A08231\t\t\tcontract MyOFT is OFT {\\r\\n\\r\\...\n      EQ \t\t\tcontract MyOFT is OFT {\\r\\n\\r\\...\n      PUSH [tag] 21\t\t\tcontract MyOFT is OFT {\\r\\n\\r\\...\n      JUMPI \t\t\tcontract MyOFT is OFT {\\r\\n\\r\\...\n      DUP1 \t\t\tcontract MyOFT is OFT {\\r\\n\\r\\...\n      PUSH 715018A6\t\t\tcontract MyOFT is OFT {\\r\\n\\r\\...\n      EQ \t\t\tcontract MyOFT is OFT {\\r\\n\\r\\...\n      PUSH [tag] 22\t\t\tcontract MyOFT is OFT {\\r\\n\\r\\...\n      JUMPI \t\t\tcontract MyOFT is OFT {\\r\\n\\r\\...\n      PUSH [tag] 1\t\t\tcontract MyOFT is OFT {\\r\\n\\r\\...\n      JUMP \t\t\tcontract MyOFT is OFT {\\r\\n\\r\\...\n    tag 49\t\t\tcontract MyOFT is OFT {\\r\\n\\r\\...\n      JUMPDEST \t\t\tcontract MyOFT is OFT {\\r\\n\\r\\...\n      DUP1 \t\t\tcontract MyOFT is OFT {\\r\\n\\r\\...\n      PUSH 23B872DD\t\t\tcontract MyOFT is OFT {\\r\\n\\r\\...\n      EQ \t\t\tcontract MyOFT is OFT {\\r\\n\\r\\...\n      PUSH [tag] 12\t\t\tcontract MyOFT is OFT {\\r\\n\\r\\...\n      JUMPI \t\t\tcontract MyOFT is OFT {\\r\\n\\r\\...\n      DUP1 \t\t\tcontract MyOFT is OFT {\\r\\n\\r\\...\n      PUSH 313CE567\t\t\tcontract MyOFT is OFT {\\r\\n\\r\\...\n      EQ \t\t\tcontract MyOFT is OFT {\\r\\n\\r\\...\n      PUSH [tag] 13\t\t\tcontract MyOFT is OFT {\\r\\n\\r\\...\n      JUMPI \t\t\tcontract MyOFT is OFT {\\r\\n\\r\\...\n      DUP1 \t\t\tcontract MyOFT is OFT {\\r\\n\\r\\...\n      PUSH 3400288B\t\t\tcontract MyOFT is OFT {\\r\\n\\r\\...\n      EQ \t\t\tcontract MyOFT is OFT {\\r\\n\\r\\...\n      PUSH [tag] 14\t\t\tcontract MyOFT is OFT {\\r\\n\\r\\...\n      JUMPI \t\t\tcontract MyOFT is OFT {\\r\\n\\r\\...\n      DUP1 \t\t\tcontract MyOFT is OFT {\\r\\n\\r\\...\n      PUSH 3B6F743B\t\t\tcontract MyOFT is OFT {\\r\\n\\r\\...\n      EQ \t\t\tcontract MyOFT is OFT {\\r\\n\\r\\...\n      PUSH [tag] 15\t\t\tcontract MyOFT is OFT {\\r\\n\\r\\...\n      JUMPI \t\t\tcontract MyOFT is OFT {\\r\\n\\r\\...\n      DUP1 \t\t\tcontract MyOFT is OFT {\\r\\n\\r\\...\n      PUSH 52AE2879\t\t\tcontract MyOFT is OFT {\\r\\n\\r\\...\n      EQ \t\t\tcontract MyOFT is OFT {\\r\\n\\r\\...\n      PUSH [tag] 16\t\t\tcontract MyOFT is OFT {\\r\\n\\r\\...\n      JUMPI \t\t\tcontract MyOFT is OFT {\\r\\n\\r\\...\n      PUSH [tag] 1\t\t\tcontract MyOFT is OFT {\\r\\n\\r\\...\n      JUMP \t\t\tcontract MyOFT is OFT {\\r\\n\\r\\...\n    tag 48\t\t\tcontract MyOFT is OFT {\\r\\n\\r\\...\n      JUMPDEST \t\t\tcontract MyOFT is OFT {\\r\\n\\r\\...\n      DUP1 \t\t\tcontract MyOFT is OFT {\\r\\n\\r\\...\n      PUSH 134D4F25\t\t\tcontract MyOFT is OFT {\\r\\n\\r\\...\n      GT \t\t\tcontract MyOFT is OFT {\\r\\n\\r\\...\n      PUSH [tag] 50\t\t\tcontract MyOFT is OFT {\\r\\n\\r\\...\n      JUMPI \t\t\tcontract MyOFT is OFT {\\r\\n\\r\\...\n      DUP1 \t\t\tcontract MyOFT is OFT {\\r\\n\\r\\...\n      PUSH 134D4F25\t\t\tcontract MyOFT is OFT {\\r\\n\\r\\...\n      EQ \t\t\tcontract MyOFT is OFT {\\r\\n\\r\\...\n      PUSH [tag] 7\t\t\tcontract MyOFT is OFT {\\r\\n\\r\\...\n      JUMPI \t\t\tcontract MyOFT is OFT {\\r\\n\\r\\...\n      DUP1 \t\t\tcontract MyOFT is OFT {\\r\\n\\r\\...\n      PUSH 156A0D0F\t\t\tcontract MyOFT is OFT {\\r\\n\\r\\...\n      EQ \t\t\tcontract MyOFT is OFT {\\r\\n\\r\\...\n      PUSH [tag] 8\t\t\tcontract MyOFT is OFT {\\r\\n\\r\\...\n      JUMPI \t\t\tcontract MyOFT is OFT {\\r\\n\\r\\...\n      DUP1 \t\t\tcontract MyOFT is OFT {\\r\\n\\r\\...\n      PUSH 17442B70\t\t\tcontract MyOFT is OFT {\\r\\n\\r\\...\n      EQ \t\t\tcontract MyOFT is OFT {\\r\\n\\r\\...\n      PUSH [tag] 9\t\t\tcontract MyOFT is OFT {\\r\\n\\r\\...\n      JUMPI \t\t\tcontract MyOFT is OFT {\\r\\n\\r\\...\n      DUP1 \t\t\tcontract MyOFT is OFT {\\r\\n\\r\\...\n      PUSH 18160DDD\t\t\tcontract MyOFT is OFT {\\r\\n\\r\\...\n      EQ \t\t\tcontract MyOFT is OFT {\\r\\n\\r\\...\n      PUSH [tag] 10\t\t\tcontract MyOFT is OFT {\\r\\n\\r\\...\n      JUMPI \t\t\tcontract MyOFT is OFT {\\r\\n\\r\\...\n      DUP1 \t\t\tcontract MyOFT is OFT {\\r\\n\\r\\...\n      PUSH 1F5E1334\t\t\tcontract MyOFT is OFT {\\r\\n\\r\\...\n      EQ \t\t\tcontract MyOFT is OFT {\\r\\n\\r\\...\n      PUSH [tag] 11\t\t\tcontract MyOFT is OFT {\\r\\n\\r\\...\n      JUMPI \t\t\tcontract MyOFT is OFT {\\r\\n\\r\\...\n      PUSH [tag] 1\t\t\tcontract MyOFT is OFT {\\r\\n\\r\\...\n      JUMP \t\t\tcontract MyOFT is OFT {\\r\\n\\r\\...\n    tag 50\t\t\tcontract MyOFT is OFT {\\r\\n\\r\\...\n      JUMPDEST \t\t\tcontract MyOFT is OFT {\\r\\n\\r\\...\n      DUP1 \t\t\tcontract MyOFT is OFT {\\r\\n\\r\\...\n      PUSH 6FDDE03\t\t\tcontract MyOFT is OFT {\\r\\n\\r\\...\n      EQ \t\t\tcontract MyOFT is OFT {\\r\\n\\r\\...\n      PUSH [tag] 2\t\t\tcontract MyOFT is OFT {\\r\\n\\r\\...\n      JUMPI \t\t\tcontract MyOFT is OFT {\\r\\n\\r\\...\n      DUP1 \t\t\tcontract MyOFT is OFT {\\r\\n\\r\\...\n      PUSH 95EA7B3\t\t\tcontract MyOFT is OFT {\\r\\n\\r\\...\n      EQ \t\t\tcontract MyOFT is OFT {\\r\\n\\r\\...\n      PUSH [tag] 3\t\t\tcontract MyOFT is OFT {\\r\\n\\r\\...\n      JUMPI \t\t\tcontract MyOFT is OFT {\\r\\n\\r\\...\n      DUP1 \t\t\tcontract MyOFT is OFT {\\r\\n\\r\\...\n      PUSH D35B415\t\t\tcontract MyOFT is OFT {\\r\\n\\r\\...\n      EQ \t\t\tcontract MyOFT is OFT {\\r\\n\\r\\...\n      PUSH [tag] 4\t\t\tcontract MyOFT is OFT {\\r\\n\\r\\...\n      JUMPI \t\t\tcontract MyOFT is OFT {\\r\\n\\r\\...\n      DUP1 \t\t\tcontract MyOFT is OFT {\\r\\n\\r\\...\n      PUSH 111ECDAD\t\t\tcontract MyOFT is OFT {\\r\\n\\r\\...\n      EQ \t\t\tcontract MyOFT is OFT {\\r\\n\\r\\...\n      PUSH [tag] 5\t\t\tcontract MyOFT is OFT {\\r\\n\\r\\...\n      JUMPI \t\t\tcontract MyOFT is OFT {\\r\\n\\r\\...\n      DUP1 \t\t\tcontract MyOFT is OFT {\\r\\n\\r\\...\n      PUSH 13137D65\t\t\tcontract MyOFT is OFT {\\r\\n\\r\\...\n      EQ \t\t\tcontract MyOFT is OFT {\\r\\n\\r\\...\n      PUSH [tag] 6\t\t\tcontract MyOFT is OFT {\\r\\n\\r\\...\n      JUMPI \t\t\tcontract MyOFT is OFT {\\r\\n\\r\\...\n    tag 1\t\t\tcontract MyOFT is OFT {\\r\\n\\r\\...\n      JUMPDEST \t\t\tcontract MyOFT is OFT {\\r\\n\\r\\...\n      PUSH 0\t\t\tcontract MyOFT is OFT {\\r\\n\\r\\...\n      DUP1 \t\t\tcontract MyOFT is OFT {\\r\\n\\r\\...\n      REVERT \t\t\tcontract MyOFT is OFT {\\r\\n\\r\\...\n    tag 2\t\t\t\n      JUMPDEST \t\t\t\n      CALLVALUE \t\t\t\n      DUP1 \t\t\t\n      ISZERO \t\t\t\n      PUSH [tag] 51\t\t\t\n      JUMPI \t\t\t\n      PUSH 0\t\t\t\n      DUP1 \t\t\t\n      REVERT \t\t\t\n    tag 51\t\t\t\n      JUMPDEST \t\t\t\n      POP \t\t\t\n      PUSH [tag] 52\t\t\t\n      PUSH [tag] 53\t\t\t\n      JUMP \t\t\t\n    tag 52\t\t\t\n      JUMPDEST \t\t\t\n      PUSH 40\t\t\t\n      MLOAD \t\t\t\n      PUSH [tag] 54\t\t\t\n      SWAP2 \t\t\t\n      SWAP1 \t\t\t\n      PUSH [tag] 55\t\t\t\n      JUMP \t\t\t\n    tag 54\t\t\t\n      JUMPDEST \t\t\t\n      PUSH 40\t\t\t\n      MLOAD \t\t\t\n      DUP1 \t\t\t\n      SWAP2 \t\t\t\n      SUB \t\t\t\n      SWAP1 \t\t\t\n      RETURN \t\t\t\n    tag 3\t\t\t\n      JUMPDEST \t\t\t\n      CALLVALUE \t\t\t\n      DUP1 \t\t\t\n      ISZERO \t\t\t\n      PUSH [tag] 56\t\t\t\n      JUMPI \t\t\t\n      PUSH 0\t\t\t\n      DUP1 \t\t\t\n      REVERT \t\t\t\n    tag 56\t\t\t\n      JUMPDEST \t\t\t\n      POP \t\t\t\n      PUSH [tag] 57\t\t\t\n      PUSH 4\t\t\t\n      DUP1 \t\t\t\n      CALLDATASIZE \t\t\t\n      SUB \t\t\t\n      DUP2 \t\t\t\n      ADD \t\t\t\n      SWAP1 \t\t\t\n      PUSH [tag] 58\t\t\t\n      SWAP2 \t\t\t\n      SWAP1 \t\t\t\n      PUSH [tag] 59\t\t\t\n      JUMP \t\t\t\n    tag 58\t\t\t\n      JUMPDEST \t\t\t\n      PUSH [tag] 60\t\t\t\n      JUMP \t\t\t\n    tag 57\t\t\t\n      JUMPDEST \t\t\t\n      PUSH 40\t\t\t\n      MLOAD \t\t\t\n      PUSH [tag] 61\t\t\t\n      SWAP2 \t\t\t\n      SWAP1 \t\t\t\n      PUSH [tag] 62\t\t\t\n      JUMP \t\t\t\n    tag 61\t\t\t\n      JUMPDEST \t\t\t\n      PUSH 40\t\t\t\n      MLOAD \t\t\t\n      DUP1 \t\t\t\n      SWAP2 \t\t\t\n      SUB \t\t\t\n      SWAP1 \t\t\t\n      RETURN \t\t\t\n    tag 4\t\t\t\n      JUMPDEST \t\t\t\n      CALLVALUE \t\t\t\n      DUP1 \t\t\t\n      ISZERO \t\t\t\n      PUSH [tag] 63\t\t\t\n      JUMPI \t\t\t\n      PUSH 0\t\t\t\n      DUP1 \t\t\t\n      REVERT \t\t\t\n    tag 63\t\t\t\n      JUMPDEST \t\t\t\n      POP \t\t\t\n      PUSH [tag] 64\t\t\t\n      PUSH 4\t\t\t\n      DUP1 \t\t\t\n      CALLDATASIZE \t\t\t\n      SUB \t\t\t\n      DUP2 \t\t\t\n      ADD \t\t\t\n      SWAP1 \t\t\t\n      PUSH [tag] 65\t\t\t\n      SWAP2 \t\t\t\n      SWAP1 \t\t\t\n      PUSH [tag] 66\t\t\t\n      JUMP \t\t\t\n    tag 65\t\t\t\n      JUMPDEST \t\t\t\n      PUSH [tag] 67\t\t\t\n      JUMP \t\t\t\n    tag 64\t\t\t\n      JUMPDEST \t\t\t\n      PUSH 40\t\t\t\n      MLOAD \t\t\t\n      PUSH [tag] 68\t\t\t\n      SWAP4 \t\t\t\n      SWAP3 \t\t\t\n      SWAP2 \t\t\t\n      SWAP1 \t\t\t\n      PUSH [tag] 69\t\t\t\n      JUMP \t\t\t\n    tag 68\t\t\t\n      JUMPDEST \t\t\t\n      PUSH 40\t\t\t\n      MLOAD \t\t\t\n      DUP1 \t\t\t\n      SWAP2 \t\t\t\n      SUB \t\t\t\n      SWAP1 \t\t\t\n      RETURN \t\t\t\n    tag 5\t\t\t\n      JUMPDEST \t\t\t\n      CALLVALUE \t\t\t\n      DUP1 \t\t\t\n      ISZERO \t\t\t\n      PUSH [tag] 70\t\t\t\n      JUMPI \t\t\t\n      PUSH 0\t\t\t\n      DUP1 \t\t\t\n      REVERT \t\t\t\n    tag 70\t\t\t\n      JUMPDEST \t\t\t\n      POP \t\t\t\n      PUSH [tag] 71\t\t\t\n      PUSH [tag] 72\t\t\t\n      JUMP \t\t\t\n    tag 71\t\t\t\n      JUMPDEST \t\t\t\n      PUSH 40\t\t\t\n      MLOAD \t\t\t\n      PUSH [tag] 73\t\t\t\n      SWAP2 \t\t\t\n      SWAP1 \t\t\t\n      PUSH [tag] 74\t\t\t\n      JUMP \t\t\t\n    tag 73\t\t\t\n      JUMPDEST \t\t\t\n      PUSH 40\t\t\t\n      MLOAD \t\t\t\n      DUP1 \t\t\t\n      SWAP2 \t\t\t\n      SUB \t\t\t\n      SWAP1 \t\t\t\n      RETURN \t\t\t\n    tag 6\t\t\t\n      JUMPDEST \t\t\t\n      PUSH [tag] 75\t\t\t\n      PUSH 4\t\t\t\n      DUP1 \t\t\t\n      CALLDATASIZE \t\t\t\n      SUB \t\t\t\n      DUP2 \t\t\t\n      ADD \t\t\t\n      SWAP1 \t\t\t\n      PUSH [tag] 76\t\t\t\n      SWAP2 \t\t\t\n      SWAP1 \t\t\t\n      PUSH [tag] 77\t\t\t\n      JUMP \t\t\t\n    tag 76\t\t\t\n      JUMPDEST \t\t\t\n      PUSH [tag] 78\t\t\t\n      JUMP \t\t\t\n    tag 75\t\t\t\n      JUMPDEST \t\t\t\n      STOP \t\t\t\n    tag 7\t\t\t\n      JUMPDEST \t\t\t\n      CALLVALUE \t\t\t\n      DUP1 \t\t\t\n      ISZERO \t\t\t\n      PUSH [tag] 79\t\t\t\n      JUMPI \t\t\t\n      PUSH 0\t\t\t\n      DUP1 \t\t\t\n      REVERT \t\t\t\n    tag 79\t\t\t\n      JUMPDEST \t\t\t\n      POP \t\t\t\n      PUSH [tag] 80\t\t\t\n      PUSH [tag] 81\t\t\t\n      JUMP \t\t\t\n    tag 80\t\t\t\n      JUMPDEST \t\t\t\n      PUSH 40\t\t\t\n      MLOAD \t\t\t\n      PUSH [tag] 82\t\t\t\n      SWAP2 \t\t\t\n      SWAP1 \t\t\t\n      PUSH [tag] 83\t\t\t\n      JUMP \t\t\t\n    tag 82\t\t\t\n      JUMPDEST \t\t\t\n      PUSH 40\t\t\t\n      MLOAD \t\t\t\n      DUP1 \t\t\t\n      SWAP2 \t\t\t\n      SUB \t\t\t\n      SWAP1 \t\t\t\n      RETURN \t\t\t\n    tag 8\t\t\t\n      JUMPDEST \t\t\t\n      CALLVALUE \t\t\t\n      DUP1 \t\t\t\n      ISZERO \t\t\t\n      PUSH [tag] 84\t\t\t\n      JUMPI \t\t\t\n      PUSH 0\t\t\t\n      DUP1 \t\t\t\n      REVERT \t\t\t\n    tag 84\t\t\t\n      JUMPDEST \t\t\t\n      POP \t\t\t\n      PUSH [tag] 85\t\t\t\n      PUSH [tag] 86\t\t\t\n      JUMP \t\t\t\n    tag 85\t\t\t\n      JUMPDEST \t\t\t\n      PUSH 40\t\t\t\n      MLOAD \t\t\t\n      PUSH [tag] 87\t\t\t\n      SWAP3 \t\t\t\n      SWAP2 \t\t\t\n      SWAP1 \t\t\t\n      PUSH [tag] 88\t\t\t\n      JUMP \t\t\t\n    tag 87\t\t\t\n      JUMPDEST \t\t\t\n      PUSH 40\t\t\t\n      MLOAD \t\t\t\n      DUP1 \t\t\t\n      SWAP2 \t\t\t\n      SUB \t\t\t\n      SWAP1 \t\t\t\n      RETURN \t\t\t\n    tag 9\t\t\t\n      JUMPDEST \t\t\t\n      CALLVALUE \t\t\t\n      DUP1 \t\t\t\n      ISZERO \t\t\t\n      PUSH [tag] 89\t\t\t\n      JUMPI \t\t\t\n      PUSH 0\t\t\t\n      DUP1 \t\t\t\n      REVERT \t\t\t\n    tag 89\t\t\t\n      JUMPDEST \t\t\t\n      POP \t\t\t\n      PUSH [tag] 90\t\t\t\n      PUSH [tag] 91\t\t\t\n      JUMP \t\t\t\n    tag 90\t\t\t\n      JUMPDEST \t\t\t\n      PUSH 40\t\t\t\n      MLOAD \t\t\t\n      PUSH [tag] 92\t\t\t\n      SWAP3 \t\t\t\n      SWAP2 \t\t\t\n      SWAP1 \t\t\t\n      PUSH [tag] 93\t\t\t\n      JUMP \t\t\t\n    tag 92\t\t\t\n      JUMPDEST \t\t\t\n      PUSH 40\t\t\t\n      MLOAD \t\t\t\n      DUP1 \t\t\t\n      SWAP2 \t\t\t\n      SUB \t\t\t\n      SWAP1 \t\t\t\n      RETURN \t\t\t\n    tag 10\t\t\t\n      JUMPDEST \t\t\t\n      CALLVALUE \t\t\t\n      DUP1 \t\t\t\n      ISZERO \t\t\t\n      PUSH [tag] 94\t\t\t\n      JUMPI \t\t\t\n      PUSH 0\t\t\t\n      DUP1 \t\t\t\n      REVERT \t\t\t\n    tag 94\t\t\t\n      JUMPDEST \t\t\t\n      POP \t\t\t\n      PUSH [tag] 95\t\t\t\n      PUSH [tag] 96\t\t\t\n      JUMP \t\t\t\n    tag 95\t\t\t\n      JUMPDEST \t\t\t\n      PUSH 40\t\t\t\n      MLOAD \t\t\t\n      PUSH [tag] 97\t\t\t\n      SWAP2 \t\t\t\n      SWAP1 \t\t\t\n      PUSH [tag] 98\t\t\t\n      JUMP \t\t\t\n    tag 97\t\t\t\n      JUMPDEST \t\t\t\n      PUSH 40\t\t\t\n      MLOAD \t\t\t\n      DUP1 \t\t\t\n      SWAP2 \t\t\t\n      SUB \t\t\t\n      SWAP1 \t\t\t\n      RETURN \t\t\t\n    tag 11\t\t\t\n      JUMPDEST \t\t\t\n      CALLVALUE \t\t\t\n      DUP1 \t\t\t\n      ISZERO \t\t\t\n      PUSH [tag] 99\t\t\t\n      JUMPI \t\t\t\n      PUSH 0\t\t\t\n      DUP1 \t\t\t\n      REVERT \t\t\t\n    tag 99\t\t\t\n      JUMPDEST \t\t\t\n      POP \t\t\t\n      PUSH [tag] 100\t\t\t\n      PUSH [tag] 101\t\t\t\n      JUMP \t\t\t\n    tag 100\t\t\t\n      JUMPDEST \t\t\t\n      PUSH 40\t\t\t\n      MLOAD \t\t\t\n      PUSH [tag] 102\t\t\t\n      SWAP2 \t\t\t\n      SWAP1 \t\t\t\n      PUSH [tag] 83\t\t\t\n      JUMP \t\t\t\n    tag 102\t\t\t\n      JUMPDEST \t\t\t\n      PUSH 40\t\t\t\n      MLOAD \t\t\t\n      DUP1 \t\t\t\n      SWAP2 \t\t\t\n      SUB \t\t\t\n      SWAP1 \t\t\t\n      RETURN \t\t\t\n    tag 12\t\t\t\n      JUMPDEST \t\t\t\n      CALLVALUE \t\t\t\n      DUP1 \t\t\t\n      ISZERO \t\t\t\n      PUSH [tag] 103\t\t\t\n      JUMPI \t\t\t\n      PUSH 0\t\t\t\n      DUP1 \t\t\t\n      REVERT \t\t\t\n    tag 103\t\t\t\n      JUMPDEST \t\t\t\n      POP \t\t\t\n      PUSH [tag] 104\t\t\t\n      PUSH 4\t\t\t\n      DUP1 \t\t\t\n      CALLDATASIZE \t\t\t\n      SUB \t\t\t\n      DUP2 \t\t\t\n      ADD \t\t\t\n      SWAP1 \t\t\t\n      PUSH [tag] 105\t\t\t\n      SWAP2 \t\t\t\n      SWAP1 \t\t\t\n      PUSH [tag] 106\t\t\t\n      JUMP \t\t\t\n    tag 105\t\t\t\n      JUMPDEST \t\t\t\n      PUSH [tag] 107\t\t\t\n      JUMP \t\t\t\n    tag 104\t\t\t\n      JUMPDEST \t\t\t\n      PUSH 40\t\t\t\n      MLOAD \t\t\t\n      PUSH [tag] 108\t\t\t\n      SWAP2 \t\t\t\n      SWAP1 \t\t\t\n      PUSH [tag] 62\t\t\t\n      JUMP \t\t\t\n    tag 108\t\t\t\n      JUMPDEST \t\t\t\n      PUSH 40\t\t\t\n      MLOAD \t\t\t\n      DUP1 \t\t\t\n      SWAP2 \t\t\t\n      SUB \t\t\t\n      SWAP1 \t\t\t\n      RETURN \t\t\t\n    tag 13\t\t\t\n      JUMPDEST \t\t\t\n      CALLVALUE \t\t\t\n      DUP1 \t\t\t\n      ISZERO \t\t\t\n      PUSH [tag] 109\t\t\t\n      JUMPI \t\t\t\n      PUSH 0\t\t\t\n      DUP1 \t\t\t\n      REVERT \t\t\t\n    tag 109\t\t\t\n      JUMPDEST \t\t\t\n      POP \t\t\t\n      PUSH [tag] 110\t\t\t\n      PUSH [tag] 111\t\t\t\n      JUMP \t\t\t\n    tag 110\t\t\t\n      JUMPDEST \t\t\t\n      PUSH 40\t\t\t\n      MLOAD \t\t\t\n      PUSH [tag] 112\t\t\t\n      SWAP2 \t\t\t\n      SWAP1 \t\t\t\n      PUSH [tag] 113\t\t\t\n      JUMP \t\t\t\n    tag 112\t\t\t\n      JUMPDEST \t\t\t\n      PUSH 40\t\t\t\n      MLOAD \t\t\t\n      DUP1 \t\t\t\n      SWAP2 \t\t\t\n      SUB \t\t\t\n      SWAP1 \t\t\t\n      RETURN \t\t\t\n    tag 14\t\t\t\n      JUMPDEST \t\t\t\n      CALLVALUE \t\t\t\n      DUP1 \t\t\t\n      ISZERO \t\t\t\n      PUSH [tag] 114\t\t\t\n      JUMPI \t\t\t\n      PUSH 0\t\t\t\n      DUP1 \t\t\t\n      REVERT \t\t\t\n    tag 114\t\t\t\n      JUMPDEST \t\t\t\n      POP \t\t\t\n      PUSH [tag] 115\t\t\t\n      PUSH 4\t\t\t\n      DUP1 \t\t\t\n      CALLDATASIZE \t\t\t\n      SUB \t\t\t\n      DUP2 \t\t\t\n      ADD \t\t\t\n      SWAP1 \t\t\t\n      PUSH [tag] 116\t\t\t\n      SWAP2 \t\t\t\n      SWAP1 \t\t\t\n      PUSH [tag] 117\t\t\t\n      JUMP \t\t\t\n    tag 116\t\t\t\n      JUMPDEST \t\t\t\n      PUSH [tag] 118\t\t\t\n      JUMP \t\t\t\n    tag 115\t\t\t\n      JUMPDEST \t\t\t\n      STOP \t\t\t\n    tag 15\t\t\t\n      JUMPDEST \t\t\t\n      CALLVALUE \t\t\t\n      DUP1 \t\t\t\n      ISZERO \t\t\t\n      PUSH [tag] 119\t\t\t\n      JUMPI \t\t\t\n      PUSH 0\t\t\t\n      DUP1 \t\t\t\n      REVERT \t\t\t\n    tag 119\t\t\t\n      JUMPDEST \t\t\t\n      POP \t\t\t\n      PUSH [tag] 120\t\t\t\n      PUSH 4\t\t\t\n      DUP1 \t\t\t\n      CALLDATASIZE \t\t\t\n      SUB \t\t\t\n      DUP2 \t\t\t\n      ADD \t\t\t\n      SWAP1 \t\t\t\n      PUSH [tag] 121\t\t\t\n      SWAP2 \t\t\t\n      SWAP1 \t\t\t\n      PUSH [tag] 122\t\t\t\n      JUMP \t\t\t\n    tag 121\t\t\t\n      JUMPDEST \t\t\t\n      PUSH [tag] 123\t\t\t\n      JUMP \t\t\t\n    tag 120\t\t\t\n      JUMPDEST \t\t\t\n      PUSH 40\t\t\t\n      MLOAD \t\t\t\n      PUSH [tag] 124\t\t\t\n      SWAP2 \t\t\t\n      SWAP1 \t\t\t\n      PUSH [tag] 125\t\t\t\n      JUMP \t\t\t\n    tag 124\t\t\t\n      JUMPDEST \t\t\t\n      PUSH 40\t\t\t\n      MLOAD \t\t\t\n      DUP1 \t\t\t\n      SWAP2 \t\t\t\n      SUB \t\t\t\n      SWAP1 \t\t\t\n      RETURN \t\t\t\n    tag 16\t\t\t\n      JUMPDEST \t\t\t\n      CALLVALUE \t\t\t\n      DUP1 \t\t\t\n      ISZERO \t\t\t\n      PUSH [tag] 126\t\t\t\n      JUMPI \t\t\t\n      PUSH 0\t\t\t\n      DUP1 \t\t\t\n      REVERT \t\t\t\n    tag 126\t\t\t\n      JUMPDEST \t\t\t\n      POP \t\t\t\n      PUSH [tag] 127\t\t\t\n      PUSH [tag] 128\t\t\t\n      JUMP \t\t\t\n    tag 127\t\t\t\n      JUMPDEST \t\t\t\n      PUSH 40\t\t\t\n      MLOAD \t\t\t\n      PUSH [tag] 129\t\t\t\n      SWAP2 \t\t\t\n      SWAP1 \t\t\t\n      PUSH [tag] 74\t\t\t\n      JUMP \t\t\t\n    tag 129\t\t\t\n      JUMPDEST \t\t\t\n      PUSH 40\t\t\t\n      MLOAD \t\t\t\n      DUP1 \t\t\t\n      SWAP2 \t\t\t\n      SUB \t\t\t\n      SWAP1 \t\t\t\n      RETURN \t\t\t\n    tag 17\t\t\tlegate\\r\\n    ) OFT(_name, _sy...\n      JUMPDEST \t\t\tlegate\\r\\n    ) OFT(_name, _sy...\n      CALLVALUE \t\t\tlegate\\r\\n    ) OFT(_name, _sy...\n      DUP1 \t\t\tlegate\\r\\n    ) OFT(_name, _sy...\n      ISZERO \t\t\tlegate\\r\\n    ) OFT(_name, _sy...\n      PUSH [tag] 130\t\t\tlegate\\r\\n    ) OFT(_name, _sy...\n      JUMPI \t\t\tlegate\\r\\n    ) OFT(_name, _sy...\n      PUSH 0\t\t\tlegate\\r\\n    ) OFT(_name, _sy...\n      DUP1 \t\t\tlegate\\r\\n    ) OFT(_name, _sy...\n      REVERT \t\t\tlegate\\r\\n    ) OFT(_name, _sy...\n    tag 130\t\t\tlegate\\r\\n    ) OFT(_name, _sy...\n      JUMPDEST \t\t\tlegate\\r\\n    ) OFT(_name, _sy...\n      POP \t\t\tlegate\\r\\n    ) OFT(_name, _sy...\n      PUSH [tag] 131\t\t\tlegate\\r\\n    ) OFT(_name, _sy...\n      PUSH 4\t\t\tlegate\\r\\n    ) OFT(_name, _sy...\n      DUP1 \t\t\tlegate\\r\\n    ) OFT(_name, _sy...\n      CALLDATASIZE \t\t\tlegate\\r\\n    ) OFT(_name, _sy...\n      SUB \t\t\tlegate\\r\\n    ) OFT(_name, _sy...\n      DUP2 \t\t\tlegate\\r\\n    ) OFT(_name, _sy...\n      ADD \t\t\tlegate\\r\\n    ) OFT(_name, _sy...\n      SWAP1 \t\t\tlegate\\r\\n    ) OFT(_name, _sy...\n      PUSH [tag] 132\t\t\tlegate\\r\\n    ) OFT(_name, _sy...\n      SWAP2 \t\t\tlegate\\r\\n    ) OFT(_name, _sy...\n      SWAP1 \t\t\tlegate\\r\\n    ) OFT(_name, _sy...\n      PUSH [tag] 133\t\t\tlegate\\r\\n    ) OFT(_name, _sy...\n      JUMP \t\t\tlegate\\r\\n    ) OFT(_name, _sy...\n    tag 132\t\t\tlegate\\r\\n    ) OFT(_name, _sy...\n      JUMPDEST \t\t\tlegate\\r\\n    ) OFT(_name, _sy...\n      PUSH [tag] 134\t\t\tlegate\\r\\n    ) OFT(_name, _sy...\n      JUMP \t\t\tlegate\\r\\n    ) OFT(_name, _sy...\n    tag 131\t\t\tlegate\\r\\n    ) OFT(_name, _sy...\n      JUMPDEST \t\t\tlegate\\r\\n    ) OFT(_name, _sy...\n      PUSH 40\t\t\tlegate\\r\\n    ) OFT(_name, _sy...\n      MLOAD \t\t\tlegate\\r\\n    ) OFT(_name, _sy...\n      PUSH [tag] 135\t\t\tlegate\\r\\n    ) OFT(_name, _sy...\n      SWAP2 \t\t\tlegate\\r\\n    ) OFT(_name, _sy...\n      SWAP1 \t\t\tlegate\\r\\n    ) OFT(_name, _sy...\n      PUSH [tag] 136\t\t\tlegate\\r\\n    ) OFT(_name, _sy...\n      JUMP \t\t\tlegate\\r\\n    ) OFT(_name, _sy...\n    tag 135\t\t\tlegate\\r\\n    ) OFT(_name, _sy...\n      JUMPDEST \t\t\tlegate\\r\\n    ) OFT(_name, _sy...\n      PUSH 40\t\t\tlegate\\r\\n    ) OFT(_name, _sy...\n      MLOAD \t\t\tlegate\\r\\n    ) OFT(_name, _sy...\n      DUP1 \t\t\tlegate\\r\\n    ) OFT(_name, _sy...\n      SWAP2 \t\t\tlegate\\r\\n    ) OFT(_name, _sy...\n      SUB \t\t\tlegate\\r\\n    ) OFT(_name, _sy...\n      SWAP1 \t\t\tlegate\\r\\n    ) OFT(_name, _sy...\n      RETURN \t\t\tlegate\\r\\n    ) OFT(_name, _sy...\n    tag 18\t\t\t\n      JUMPDEST \t\t\t\n      CALLVALUE \t\t\t\n      DUP1 \t\t\t\n      ISZERO \t\t\t\n      PUSH [tag] 137\t\t\t\n      JUMPI \t\t\t\n      PUSH 0\t\t\t\n      DUP1 \t\t\t\n      REVERT \t\t\t\n    tag 137\t\t\t\n      JUMPDEST \t\t\t\n      POP \t\t\t\n      PUSH [tag] 138\t\t\t\n      PUSH 4\t\t\t\n      DUP1 \t\t\t\n      CALLDATASIZE \t\t\t\n      SUB \t\t\t\n      DUP2 \t\t\t\n      ADD \t\t\t\n      SWAP1 \t\t\t\n      PUSH [tag] 139\t\t\t\n      SWAP2 \t\t\t\n      SWAP1 \t\t\t\n      PUSH [tag] 117\t\t\t\n      JUMP \t\t\t\n    tag 139\t\t\t\n      JUMPDEST \t\t\t\n      PUSH [tag] 140\t\t\t\n      JUMP \t\t\t\n    tag 138\t\t\t\n      JUMPDEST \t\t\t\n      PUSH 40\t\t\t\n      MLOAD \t\t\t\n      PUSH [tag] 141\t\t\t\n      SWAP2 \t\t\t\n      SWAP1 \t\t\t\n      PUSH [tag] 62\t\t\t\n      JUMP \t\t\t\n    tag 141\t\t\t\n      JUMPDEST \t\t\t\n      PUSH 40\t\t\t\n      MLOAD \t\t\t\n      DUP1 \t\t\t\n      SWAP2 \t\t\t\n      SUB \t\t\t\n      SWAP1 \t\t\t\n      RETURN \t\t\t\n    tag 19\t\t\t_symbol,\\r\\n        uint256 _i...\n      JUMPDEST \t\t\t_symbol,\\r\\n        uint256 _i...\n      CALLVALUE \t\t\t_symbol,\\r\\n        uint256 _i...\n      DUP1 \t\t\t_symbol,\\r\\n        uint256 _i...\n      ISZERO \t\t\t_symbol,\\r\\n        uint256 _i...\n      PUSH [tag] 142\t\t\t_symbol,\\r\\n        uint256 _i...\n      JUMPI \t\t\t_symbol,\\r\\n        uint256 _i...\n      PUSH 0\t\t\t_symbol,\\r\\n        uint256 _i...\n      DUP1 \t\t\t_symbol,\\r\\n        uint256 _i...\n      REVERT \t\t\t_symbol,\\r\\n        uint256 _i...\n    tag 142\t\t\t_symbol,\\r\\n        uint256 _i...\n      JUMPDEST \t\t\t_symbol,\\r\\n        uint256 _i...\n      POP \t\t\t_symbol,\\r\\n        uint256 _i...\n      PUSH [tag] 143\t\t\t_symbol,\\r\\n        uint256 _i...\n      PUSH [tag] 144\t\t\t_symbol,\\r\\n        uint256 _i...\n      JUMP \t\t\t_symbol,\\r\\n        uint256 _i...\n    tag 143\t\t\t_symbol,\\r\\n        uint256 _i...\n      JUMPDEST \t\t\t_symbol,\\r\\n        uint256 _i...\n      PUSH 40\t\t\t_symbol,\\r\\n        uint256 _i...\n      MLOAD \t\t\t_symbol,\\r\\n        uint256 _i...\n      PUSH [tag] 145\t\t\t_symbol,\\r\\n        uint256 _i...\n      SWAP2 \t\t\t_symbol,\\r\\n        uint256 _i...\n      SWAP1 \t\t\t_symbol,\\r\\n        uint256 _i...\n      PUSH [tag] 146\t\t\t_symbol,\\r\\n        uint256 _i...\n      JUMP \t\t\t_symbol,\\r\\n        uint256 _i...\n    tag 145\t\t\t_symbol,\\r\\n        uint256 _i...\n      JUMPDEST \t\t\t_symbol,\\r\\n        uint256 _i...\n      PUSH 40\t\t\t_symbol,\\r\\n        uint256 _i...\n      MLOAD \t\t\t_symbol,\\r\\n        uint256 _i...\n      DUP1 \t\t\t_symbol,\\r\\n        uint256 _i...\n      SWAP2 \t\t\t_symbol,\\r\\n        uint256 _i...\n      SUB \t\t\t_symbol,\\r\\n        uint256 _i...\n      SWAP1 \t\t\t_symbol,\\r\\n        uint256 _i...\n      RETURN \t\t\t_symbol,\\r\\n        uint256 _i...\n    tag 20\t\t\t\n      JUMPDEST \t\t\t\n      CALLVALUE \t\t\t\n      DUP1 \t\t\t\n      ISZERO \t\t\t\n      PUSH [tag] 147\t\t\t\n      JUMPI \t\t\t\n      PUSH 0\t\t\t\n      DUP1 \t\t\t\n      REVERT \t\t\t\n    tag 147\t\t\t\n      JUMPDEST \t\t\t\n      POP \t\t\t\n      PUSH [tag] 148\t\t\t\n      PUSH 4\t\t\t\n      DUP1 \t\t\t\n      CALLDATASIZE \t\t\t\n      SUB \t\t\t\n      DUP2 \t\t\t\n      ADD \t\t\t\n      SWAP1 \t\t\t\n      PUSH [tag] 149\t\t\t\n      SWAP2 \t\t\t\n      SWAP1 \t\t\t\n      PUSH [tag] 150\t\t\t\n      JUMP \t\t\t\n    tag 149\t\t\t\n      JUMPDEST \t\t\t\n      PUSH [tag] 151\t\t\t\n      JUMP \t\t\t\n    tag 148\t\t\t\n      JUMPDEST \t\t\t\n      STOP \t\t\t\n    tag 21\t\t\t\n      JUMPDEST \t\t\t\n      CALLVALUE \t\t\t\n      DUP1 \t\t\t\n      ISZERO \t\t\t\n      PUSH [tag] 152\t\t\t\n      JUMPI \t\t\t\n      PUSH 0\t\t\t\n      DUP1 \t\t\t\n      REVERT \t\t\t\n    tag 152\t\t\t\n      JUMPDEST \t\t\t\n      POP \t\t\t\n      PUSH [tag] 153\t\t\t\n      PUSH 4\t\t\t\n      DUP1 \t\t\t\n      CALLDATASIZE \t\t\t\n      SUB \t\t\t\n      DUP2 \t\t\t\n      ADD \t\t\t\n      SWAP1 \t\t\t\n      PUSH [tag] 154\t\t\t\n      SWAP2 \t\t\t\n      SWAP1 \t\t\t\n      PUSH [tag] 150\t\t\t\n      JUMP \t\t\t\n    tag 154\t\t\t\n      JUMPDEST \t\t\t\n      PUSH [tag] 155\t\t\t\n      JUMP \t\t\t\n    tag 153\t\t\t\n      JUMPDEST \t\t\t\n      PUSH 40\t\t\t\n      MLOAD \t\t\t\n      PUSH [tag] 156\t\t\t\n      SWAP2 \t\t\t\n      SWAP1 \t\t\t\n      PUSH [tag] 98\t\t\t\n      JUMP \t\t\t\n    tag 156\t\t\t\n      JUMPDEST \t\t\t\n      PUSH 40\t\t\t\n      MLOAD \t\t\t\n      DUP1 \t\t\t\n      SWAP2 \t\t\t\n      SUB \t\t\t\n      SWAP1 \t\t\t\n      RETURN \t\t\t\n    tag 22\t\t\t\n      JUMPDEST \t\t\t\n      CALLVALUE \t\t\t\n      DUP1 \t\t\t\n      ISZERO \t\t\t\n      PUSH [tag] 157\t\t\t\n      JUMPI \t\t\t\n      PUSH 0\t\t\t\n      DUP1 \t\t\t\n      REVERT \t\t\t\n    tag 157\t\t\t\n      JUMPDEST \t\t\t\n      POP \t\t\t\n      PUSH [tag] 158\t\t\t\n      PUSH [tag] 159\t\t\t\n      JUMP \t\t\t\n    tag 158\t\t\t\n      JUMPDEST \t\t\t\n      STOP \t\t\t\n    tag 23\t\t\t\n      JUMPDEST \t\t\t\n      CALLVALUE \t\t\t\n      DUP1 \t\t\t\n      ISZERO \t\t\t\n      PUSH [tag] 160\t\t\t\n      JUMPI \t\t\t\n      PUSH 0\t\t\t\n      DUP1 \t\t\t\n      REVERT \t\t\t\n    tag 160\t\t\t\n      JUMPDEST \t\t\t\n      POP \t\t\t\n      PUSH [tag] 161\t\t\t\n      PUSH 4\t\t\t\n      DUP1 \t\t\t\n      CALLDATASIZE \t\t\t\n      SUB \t\t\t\n      DUP2 \t\t\t\n      ADD \t\t\t\n      SWAP1 \t\t\t\n      PUSH [tag] 162\t\t\t\n      SWAP2 \t\t\t\n      SWAP1 \t\t\t\n      PUSH [tag] 117\t\t\t\n      JUMP \t\t\t\n    tag 162\t\t\t\n      JUMPDEST \t\t\t\n      PUSH [tag] 163\t\t\t\n      JUMP \t\t\t\n    tag 161\t\t\t\n      JUMPDEST \t\t\t\n      PUSH 40\t\t\t\n      MLOAD \t\t\t\n      PUSH [tag] 164\t\t\t\n      SWAP2 \t\t\t\n      SWAP1 \t\t\t\n      PUSH [tag] 165\t\t\t\n      JUMP \t\t\t\n    tag 164\t\t\t\n      JUMPDEST \t\t\t\n      PUSH 40\t\t\t\n      MLOAD \t\t\t\n      DUP1 \t\t\t\n      SWAP2 \t\t\t\n      SUB \t\t\t\n      SWAP1 \t\t\t\n      RETURN \t\t\t\n    tag 24\t\t\t\n      JUMPDEST \t\t\t\n      CALLVALUE \t\t\t\n      DUP1 \t\t\t\n      ISZERO \t\t\t\n      PUSH [tag] 166\t\t\t\n      JUMPI \t\t\t\n      PUSH 0\t\t\t\n      DUP1 \t\t\t\n      REVERT \t\t\t\n    tag 166\t\t\t\n      JUMPDEST \t\t\t\n      POP \t\t\t\n      PUSH [tag] 167\t\t\t\n      PUSH 4\t\t\t\n      DUP1 \t\t\t\n      CALLDATASIZE \t\t\t\n      SUB \t\t\t\n      DUP2 \t\t\t\n      ADD \t\t\t\n      SWAP1 \t\t\t\n      PUSH [tag] 168\t\t\t\n      SWAP2 \t\t\t\n      SWAP1 \t\t\t\n      PUSH [tag] 169\t\t\t\n      JUMP \t\t\t\n    tag 168\t\t\t\n      JUMPDEST \t\t\t\n      PUSH [tag] 170\t\t\t\n      JUMP \t\t\t\n    tag 167\t\t\t\n      JUMPDEST \t\t\t\n      PUSH 40\t\t\t\n      MLOAD \t\t\t\n      PUSH [tag] 171\t\t\t\n      SWAP2 \t\t\t\n      SWAP1 \t\t\t\n      PUSH [tag] 62\t\t\t\n      JUMP \t\t\t\n    tag 171\t\t\t\n      JUMPDEST \t\t\t\n      PUSH 40\t\t\t\n      MLOAD \t\t\t\n      DUP1 \t\t\t\n      SWAP2 \t\t\t\n      SUB \t\t\t\n      SWAP1 \t\t\t\n      RETURN \t\t\t\n    tag 25\t\t\t\n      JUMPDEST \t\t\t\n      CALLVALUE \t\t\t\n      DUP1 \t\t\t\n      ISZERO \t\t\t\n      PUSH [tag] 172\t\t\t\n      JUMPI \t\t\t\n      PUSH 0\t\t\t\n      DUP1 \t\t\t\n      REVERT \t\t\t\n    tag 172\t\t\t\n      JUMPDEST \t\t\t\n      POP \t\t\t\n      PUSH [tag] 173\t\t\t\n      PUSH [tag] 174\t\t\t\n      JUMP \t\t\t\n    tag 173\t\t\t\n      JUMPDEST \t\t\t\n      PUSH 40\t\t\t\n      MLOAD \t\t\t\n      PUSH [tag] 175\t\t\t\n      SWAP2 \t\t\t\n      SWAP1 \t\t\t\n      PUSH [tag] 113\t\t\t\n      JUMP \t\t\t\n    tag 175\t\t\t\n      JUMPDEST \t\t\t\n      PUSH 40\t\t\t\n      MLOAD \t\t\t\n      DUP1 \t\t\t\n      SWAP2 \t\t\t\n      SUB \t\t\t\n      SWAP1 \t\t\t\n      RETURN \t\t\t\n    tag 26\t\t\t\n      JUMPDEST \t\t\t\n      CALLVALUE \t\t\t\n      DUP1 \t\t\t\n      ISZERO \t\t\t\n      PUSH [tag] 176\t\t\t\n      JUMPI \t\t\t\n      PUSH 0\t\t\t\n      DUP1 \t\t\t\n      REVERT \t\t\t\n    tag 176\t\t\t\n      JUMPDEST \t\t\t\n      POP \t\t\t\n      PUSH [tag] 177\t\t\t\n      PUSH [tag] 178\t\t\t\n      JUMP \t\t\t\n    tag 177\t\t\t\n      JUMPDEST \t\t\t\n      PUSH 40\t\t\t\n      MLOAD \t\t\t\n      PUSH [tag] 179\t\t\t\n      SWAP2 \t\t\t\n      SWAP1 \t\t\t\n      PUSH [tag] 74\t\t\t\n      JUMP \t\t\t\n    tag 179\t\t\t\n      JUMPDEST \t\t\t\n      PUSH 40\t\t\t\n      MLOAD \t\t\t\n      DUP1 \t\t\t\n      SWAP2 \t\t\t\n      SUB \t\t\t\n      SWAP1 \t\t\t\n      RETURN \t\t\t\n    tag 27\t\t\t\n      JUMPDEST \t\t\t\n      CALLVALUE \t\t\t\n      DUP1 \t\t\t\n      ISZERO \t\t\t\n      PUSH [tag] 180\t\t\t\n      JUMPI \t\t\t\n      PUSH 0\t\t\t\n      DUP1 \t\t\t\n      REVERT \t\t\t\n    tag 180\t\t\t\n      JUMPDEST \t\t\t\n      POP \t\t\t\n      PUSH [tag] 181\t\t\t\n      PUSH [tag] 182\t\t\t\n      JUMP \t\t\t\n    tag 181\t\t\t\n      JUMPDEST \t\t\t\n      PUSH 40\t\t\t\n      MLOAD \t\t\t\n      PUSH [tag] 183\t\t\t\n      SWAP2 \t\t\t\n      SWAP1 \t\t\t\n      PUSH [tag] 55\t\t\t\n      JUMP \t\t\t\n    tag 183\t\t\t\n      JUMPDEST \t\t\t\n      PUSH 40\t\t\t\n      MLOAD \t\t\t\n      DUP1 \t\t\t\n      SWAP2 \t\t\t\n      SUB \t\t\t\n      SWAP1 \t\t\t\n      RETURN \t\t\t\n    tag 28\t\t\t\n      JUMPDEST \t\t\t\n      CALLVALUE \t\t\t\n      DUP1 \t\t\t\n      ISZERO \t\t\t\n      PUSH [tag] 184\t\t\t\n      JUMPI \t\t\t\n      PUSH 0\t\t\t\n      DUP1 \t\t\t\n      REVERT \t\t\t\n    tag 184\t\t\t\n      JUMPDEST \t\t\t\n      POP \t\t\t\n      PUSH [tag] 185\t\t\t\n      PUSH [tag] 186\t\t\t\n      JUMP \t\t\t\n    tag 185\t\t\t\n      JUMPDEST \t\t\t\n      PUSH 40\t\t\t\n      MLOAD \t\t\t\n      PUSH [tag] 187\t\t\t\n      SWAP2 \t\t\t\n      SWAP1 \t\t\t\n      PUSH [tag] 98\t\t\t\n      JUMP \t\t\t\n    tag 187\t\t\t\n      JUMPDEST \t\t\t\n      PUSH 40\t\t\t\n      MLOAD \t\t\t\n      DUP1 \t\t\t\n      SWAP2 \t\t\t\n      SUB \t\t\t\n      SWAP1 \t\t\t\n      RETURN \t\t\t\n    tag 29\t\t\t\n      JUMPDEST \t\t\t\n      CALLVALUE \t\t\t\n      DUP1 \t\t\t\n      ISZERO \t\t\t\n      PUSH [tag] 188\t\t\t\n      JUMPI \t\t\t\n      PUSH 0\t\t\t\n      DUP1 \t\t\t\n      REVERT \t\t\t\n    tag 188\t\t\t\n      JUMPDEST \t\t\t\n      POP \t\t\t\n      PUSH [tag] 189\t\t\t\n      PUSH [tag] 190\t\t\t\n      JUMP \t\t\t\n    tag 189\t\t\t\n      JUMPDEST \t\t\t\n      PUSH 40\t\t\t\n      MLOAD \t\t\t\n      PUSH [tag] 191\t\t\t\n      SWAP2 \t\t\t\n      SWAP1 \t\t\t\n      PUSH [tag] 62\t\t\t\n      JUMP \t\t\t\n    tag 191\t\t\t\n      JUMPDEST \t\t\t\n      PUSH 40\t\t\t\n      MLOAD \t\t\t\n      DUP1 \t\t\t\n      SWAP2 \t\t\t\n      SUB \t\t\t\n      SWAP1 \t\t\t\n      RETURN \t\t\t\n    tag 30\t\t\t\n      JUMPDEST \t\t\t\n      CALLVALUE \t\t\t\n      DUP1 \t\t\t\n      ISZERO \t\t\t\n      PUSH [tag] 192\t\t\t\n      JUMPI \t\t\t\n      PUSH 0\t\t\t\n      DUP1 \t\t\t\n      REVERT \t\t\t\n    tag 192\t\t\t\n      JUMPDEST \t\t\t\n      POP \t\t\t\n      PUSH [tag] 193\t\t\t\n      PUSH 4\t\t\t\n      DUP1 \t\t\t\n      CALLDATASIZE \t\t\t\n      SUB \t\t\t\n      DUP2 \t\t\t\n      ADD \t\t\t\n      SWAP1 \t\t\t\n      PUSH [tag] 194\t\t\t\n      SWAP2 \t\t\t\n      SWAP1 \t\t\t\n      PUSH [tag] 59\t\t\t\n      JUMP \t\t\t\n    tag 194\t\t\t\n      JUMPDEST \t\t\t\n      PUSH [tag] 195\t\t\t\n      JUMP \t\t\t\n    tag 193\t\t\t\n      JUMPDEST \t\t\t\n      PUSH 40\t\t\t\n      MLOAD \t\t\t\n      PUSH [tag] 196\t\t\t\n      SWAP2 \t\t\t\n      SWAP1 \t\t\t\n      PUSH [tag] 62\t\t\t\n      JUMP \t\t\t\n    tag 196\t\t\t\n      JUMPDEST \t\t\t\n      PUSH 40\t\t\t\n      MLOAD \t\t\t\n      DUP1 \t\t\t\n      SWAP2 \t\t\t\n      SUB \t\t\t\n      SWAP1 \t\t\t\n      RETURN \t\t\t\n    tag 31\t\t\tme, _symbol, _lzEndpoin\n      JUMPDEST \t\t\tme, _symbol, _lzEndpoin\n      CALLVALUE \t\t\tme, _symbol, _lzEndpoin\n      DUP1 \t\t\tme, _symbol, _lzEndpoin\n      ISZERO \t\t\tme, _symbol, _lzEndpoin\n      PUSH [tag] 197\t\t\tme, _symbol, _lzEndpoin\n      JUMPI \t\t\tme, _symbol, _lzEndpoin\n      PUSH 0\t\t\tme, _symbol, _lzEndpoin\n      DUP1 \t\t\tme, _symbol, _lzEndpoin\n      REVERT \t\t\tme, _symbol, _lzEndpoin\n    tag 197\t\t\tme, _symbol, _lzEndpoin\n      JUMPDEST \t\t\tme, _symbol, _lzEndpoin\n      POP \t\t\tme, _symbol, _lzEndpoin\n      PUSH [tag] 198\t\t\tme, _symbol, _lzEndpoin\n      PUSH [tag] 199\t\t\tme, _symbol, _lzEndpoin\n      JUMP \t\t\tme, _symbol, _lzEndpoin\n    tag 198\t\t\tme, _symbol, _lzEndpoin\n      JUMPDEST \t\t\tme, _symbol, _lzEndpoin\n      PUSH 40\t\t\tme, _symbol, _lzEndpoin\n      MLOAD \t\t\tme, _symbol, _lzEndpoin\n      PUSH [tag] 200\t\t\tme, _symbol, _lzEndpoin\n      SWAP2 \t\t\tme, _symbol, _lzEndpoin\n      SWAP1 \t\t\tme, _symbol, _lzEndpoin\n      PUSH [tag] 74\t\t\tme, _symbol, _lzEndpoin\n      JUMP \t\t\tme, _symbol, _lzEndpoin\n    tag 200\t\t\tme, _symbol, _lzEndpoin\n      JUMPDEST \t\t\tme, _symbol, _lzEndpoin\n      PUSH 40\t\t\tme, _symbol, _lzEndpoin\n      MLOAD \t\t\tme, _symbol, _lzEndpoin\n      DUP1 \t\t\tme, _symbol, _lzEndpoin\n      SWAP2 \t\t\tme, _symbol, _lzEndpoin\n      SUB \t\t\tme, _symbol, _lzEndpoin\n      SWAP1 \t\t\tme, _symbol, _lzEndpoin\n      RETURN \t\t\tme, _symbol, _lzEndpoin\n    tag 32\t\t\t\n      JUMPDEST \t\t\t\n      CALLVALUE \t\t\t\n      DUP1 \t\t\t\n      ISZERO \t\t\t\n      PUSH [tag] 201\t\t\t\n      JUMPI \t\t\t\n      PUSH 0\t\t\t\n      DUP1 \t\t\t\n      REVERT \t\t\t\n    tag 201\t\t\t\n      JUMPDEST \t\t\t\n      POP \t\t\t\n      PUSH [tag] 202\t\t\t\n      PUSH 4\t\t\t\n      DUP1 \t\t\t\n      CALLDATASIZE \t\t\t\n      SUB \t\t\t\n      DUP2 \t\t\t\n      ADD \t\t\t\n      SWAP1 \t\t\t\n      PUSH [tag] 203\t\t\t\n      SWAP2 \t\t\t\n      SWAP1 \t\t\t\n      PUSH [tag] 204\t\t\t\n      JUMP \t\t\t\n    tag 203\t\t\t\n      JUMPDEST \t\t\t\n      PUSH [tag] 205\t\t\t\n      JUMP \t\t\t\n    tag 202\t\t\t\n      JUMPDEST \t\t\t\n      STOP \t\t\t\n    tag 33\t\t\tl, _lzEndpoint, _delegate) Own...\n      JUMPDEST \t\t\tl, _lzEndpoint, _delegate) Own...\n      CALLVALUE \t\t\tl, _lzEndpoint, _delegate) Own...\n      DUP1 \t\t\tl, _lzEndpoint, _delegate) Own...\n      ISZERO \t\t\tl, _lzEndpoint, _delegate) Own...\n      PUSH [tag] 206\t\t\tl, _lzEndpoint, _delegate) Own...\n      JUMPI \t\t\tl, _lzEndpoint, _delegate) Own...\n      PUSH 0\t\t\tl, _lzEndpoint, _delegate) Own...\n      DUP1 \t\t\tl, _lzEndpoint, _delegate) Own...\n      REVERT \t\t\tl, _lzEndpoint, _delegate) Own...\n    tag 206\t\t\tl, _lzEndpoint, _delegate) Own...\n      JUMPDEST \t\t\tl, _lzEndpoint, _delegate) Own...\n      POP \t\t\tl, _lzEndpoint, _delegate) Own...\n      PUSH [tag] 207\t\t\tl, _lzEndpoint, _delegate) Own...\n      PUSH 4\t\t\tl, _lzEndpoint, _delegate) Own...\n      DUP1 \t\t\tl, _lzEndpoint, _delegate) Own...\n      CALLDATASIZE \t\t\tl, _lzEndpoint, _delegate) Own...\n      SUB \t\t\tl, _lzEndpoint, _delegate) Own...\n      DUP2 \t\t\tl, _lzEndpoint, _delegate) Own...\n      ADD \t\t\tl, _lzEndpoint, _delegate) Own...\n      SWAP1 \t\t\tl, _lzEndpoint, _delegate) Own...\n      PUSH [tag] 208\t\t\tl, _lzEndpoint, _delegate) Own...\n      SWAP2 \t\t\tl, _lzEndpoint, _delegate) Own...\n      SWAP1 \t\t\tl, _lzEndpoint, _delegate) Own...\n      PUSH [tag] 209\t\t\tl, _lzEndpoint, _delegate) Own...\n      JUMP \t\t\tl, _lzEndpoint, _delegate) Own...\n    tag 208\t\t\tl, _lzEndpoint, _delegate) Own...\n      JUMPDEST \t\t\tl, _lzEndpoint, _delegate) Own...\n      PUSH [tag] 210\t\t\tl, _lzEndpoint, _delegate) Own...\n      JUMP \t\t\tl, _lzEndpoint, _delegate) Own...\n    tag 207\t\t\tl, _lzEndpoint, _delegate) Own...\n      JUMPDEST \t\t\tl, _lzEndpoint, _delegate) Own...\n      PUSH 40\t\t\tl, _lzEndpoint, _delegate) Own...\n      MLOAD \t\t\tl, _lzEndpoint, _delegate) Own...\n      PUSH [tag] 211\t\t\tl, _lzEndpoint, _delegate) Own...\n      SWAP2 \t\t\tl, _lzEndpoint, _delegate) Own...\n      SWAP1 \t\t\tl, _lzEndpoint, _delegate) Own...\n      PUSH [tag] 212\t\t\tl, _lzEndpoint, _delegate) Own...\n      JUMP \t\t\tl, _lzEndpoint, _delegate) Own...\n    tag 211\t\t\tl, _lzEndpoint, _delegate) Own...\n      JUMPDEST \t\t\tl, _lzEndpoint, _delegate) Own...\n      PUSH 40\t\t\tl, _lzEndpoint, _delegate) Own...\n      MLOAD \t\t\tl, _lzEndpoint, _delegate) Own...\n      DUP1 \t\t\tl, _lzEndpoint, _delegate) Own...\n      SWAP2 \t\t\tl, _lzEndpoint, _delegate) Own...\n      SUB \t\t\tl, _lzEndpoint, _delegate) Own...\n      SWAP1 \t\t\tl, _lzEndpoint, _delegate) Own...\n      RETURN \t\t\tl, _lzEndpoint, _delegate) Own...\n    tag 34\t\t\t\n      JUMPDEST \t\t\t\n      CALLVALUE \t\t\t\n      DUP1 \t\t\t\n      ISZERO \t\t\t\n      PUSH [tag] 213\t\t\t\n      JUMPI \t\t\t\n      PUSH 0\t\t\t\n      DUP1 \t\t\t\n      REVERT \t\t\t\n    tag 213\t\t\t\n      JUMPDEST \t\t\t\n      POP \t\t\t\n      PUSH [tag] 214\t\t\t\n      PUSH 4\t\t\t\n      DUP1 \t\t\t\n      CALLDATASIZE \t\t\t\n      SUB \t\t\t\n      DUP2 \t\t\t\n      ADD \t\t\t\n      SWAP1 \t\t\t\n      PUSH [tag] 215\t\t\t\n      SWAP2 \t\t\t\n      SWAP1 \t\t\t\n      PUSH [tag] 216\t\t\t\n      JUMP \t\t\t\n    tag 215\t\t\t\n      JUMPDEST \t\t\t\n      PUSH [tag] 217\t\t\t\n      JUMP \t\t\t\n    tag 214\t\t\t\n      JUMPDEST \t\t\t\n      PUSH 40\t\t\t\n      MLOAD \t\t\t\n      PUSH [tag] 218\t\t\t\n      SWAP2 \t\t\t\n      SWAP1 \t\t\t\n      PUSH [tag] 136\t\t\t\n      JUMP \t\t\t\n    tag 218\t\t\t\n      JUMPDEST \t\t\t\n      PUSH 40\t\t\t\n      MLOAD \t\t\t\n      DUP1 \t\t\t\n      SWAP2 \t\t\t\n      SUB \t\t\t\n      SWAP1 \t\t\t\n      RETURN \t\t\t\n    tag 35\t\t\t\n      JUMPDEST \t\t\t\n      PUSH [tag] 219\t\t\t\n      PUSH 4\t\t\t\n      DUP1 \t\t\t\n      CALLDATASIZE \t\t\t\n      SUB \t\t\t\n      DUP2 \t\t\t\n      ADD \t\t\t\n      SWAP1 \t\t\t\n      PUSH [tag] 220\t\t\t\n      SWAP2 \t\t\t\n      SWAP1 \t\t\t\n      PUSH [tag] 221\t\t\t\n      JUMP \t\t\t\n    tag 220\t\t\t\n      JUMPDEST \t\t\t\n      PUSH [tag] 222\t\t\t\n      JUMP \t\t\t\n    tag 219\t\t\t\n      JUMPDEST \t\t\t\n      STOP \t\t\t\n    tag 36\t\t\t\n      JUMPDEST \t\t\t\n      PUSH [tag] 223\t\t\t\n      PUSH 4\t\t\t\n      DUP1 \t\t\t\n      CALLDATASIZE \t\t\t\n      SUB \t\t\t\n      DUP2 \t\t\t\n      ADD \t\t\t\n      SWAP1 \t\t\t\n      PUSH [tag] 224\t\t\t\n      SWAP2 \t\t\t\n      SWAP1 \t\t\t\n      PUSH [tag] 225\t\t\t\n      JUMP \t\t\t\n    tag 224\t\t\t\n      JUMPDEST \t\t\t\n      PUSH [tag] 226\t\t\t\n      JUMP \t\t\t\n    tag 223\t\t\t\n      JUMPDEST \t\t\t\n      PUSH 40\t\t\t\n      MLOAD \t\t\t\n      PUSH [tag] 227\t\t\t\n      SWAP3 \t\t\t\n      SWAP2 \t\t\t\n      SWAP1 \t\t\t\n      PUSH [tag] 228\t\t\t\n      JUMP \t\t\t\n    tag 227\t\t\t\n      JUMPDEST \t\t\t\n      PUSH 40\t\t\t\n      MLOAD \t\t\t\n      DUP1 \t\t\t\n      SWAP2 \t\t\t\n      SUB \t\t\t\n      SWAP1 \t\t\t\n      RETURN \t\t\t\n    tag 37\t\t\t\n      JUMPDEST \t\t\t\n      CALLVALUE \t\t\t\n      DUP1 \t\t\t\n      ISZERO \t\t\t\n      PUSH [tag] 229\t\t\t\n      JUMPI \t\t\t\n      PUSH 0\t\t\t\n      DUP1 \t\t\t\n      REVERT \t\t\t\n    tag 229\t\t\t\n      JUMPDEST \t\t\t\n      POP \t\t\t\n      PUSH [tag] 230\t\t\t\n      PUSH 4\t\t\t\n      DUP1 \t\t\t\n      CALLDATASIZE \t\t\t\n      SUB \t\t\t\n      DUP2 \t\t\t\n      ADD \t\t\t\n      SWAP1 \t\t\t\n      PUSH [tag] 231\t\t\t\n      SWAP2 \t\t\t\n      SWAP1 \t\t\t\n      PUSH [tag] 150\t\t\t\n      JUMP \t\t\t\n    tag 231\t\t\t\n      JUMPDEST \t\t\t\n      PUSH [tag] 232\t\t\t\n      JUMP \t\t\t\n    tag 230\t\t\t\n      JUMPDEST \t\t\t\n      STOP \t\t\t\n    tag 38\t\t\t\n      JUMPDEST \t\t\t\n      PUSH [tag] 233\t\t\t\n      PUSH 4\t\t\t\n      DUP1 \t\t\t\n      CALLDATASIZE \t\t\t\n      SUB \t\t\t\n      DUP2 \t\t\t\n      ADD \t\t\t\n      SWAP1 \t\t\t\n      PUSH [tag] 234\t\t\t\n      SWAP2 \t\t\t\n      SWAP1 \t\t\t\n      PUSH [tag] 77\t\t\t\n      JUMP \t\t\t\n    tag 234\t\t\t\n      JUMPDEST \t\t\t\n      PUSH [tag] 235\t\t\t\n      JUMP \t\t\t\n    tag 233\t\t\t\n      JUMPDEST \t\t\t\n      STOP \t\t\t\n    tag 39\t\t\t\n      JUMPDEST \t\t\t\n      CALLVALUE \t\t\t\n      DUP1 \t\t\t\n      ISZERO \t\t\t\n      PUSH [tag] 236\t\t\t\n      JUMPI \t\t\t\n      PUSH 0\t\t\t\n      DUP1 \t\t\t\n      REVERT \t\t\t\n    tag 236\t\t\t\n      JUMPDEST \t\t\t\n      POP \t\t\t\n      PUSH [tag] 237\t\t\t\n      PUSH 4\t\t\t\n      DUP1 \t\t\t\n      CALLDATASIZE \t\t\t\n      SUB \t\t\t\n      DUP2 \t\t\t\n      ADD \t\t\t\n      SWAP1 \t\t\t\n      PUSH [tag] 238\t\t\t\n      SWAP2 \t\t\t\n      SWAP1 \t\t\t\n      PUSH [tag] 150\t\t\t\n      JUMP \t\t\t\n    tag 238\t\t\t\n      JUMPDEST \t\t\t\n      PUSH [tag] 239\t\t\t\n      JUMP \t\t\t\n    tag 237\t\t\t\n      JUMPDEST \t\t\t\n      STOP \t\t\t\n    tag 40\t\t\t\n      JUMPDEST \t\t\t\n      CALLVALUE \t\t\t\n      DUP1 \t\t\t\n      ISZERO \t\t\t\n      PUSH [tag] 240\t\t\t\n      JUMPI \t\t\t\n      PUSH 0\t\t\t\n      DUP1 \t\t\t\n      REVERT \t\t\t\n    tag 240\t\t\t\n      JUMPDEST \t\t\t\n      POP \t\t\t\n      PUSH [tag] 241\t\t\t\n      PUSH 4\t\t\t\n      DUP1 \t\t\t\n      CALLDATASIZE \t\t\t\n      SUB \t\t\t\n      DUP2 \t\t\t\n      ADD \t\t\t\n      SWAP1 \t\t\t\n      PUSH [tag] 242\t\t\t\n      SWAP2 \t\t\t\n      SWAP1 \t\t\t\n      PUSH [tag] 243\t\t\t\n      JUMP \t\t\t\n    tag 242\t\t\t\n      JUMPDEST \t\t\t\n      PUSH [tag] 244\t\t\t\n      JUMP \t\t\t\n    tag 241\t\t\t\n      JUMPDEST \t\t\t\n      PUSH 40\t\t\t\n      MLOAD \t\t\t\n      PUSH [tag] 245\t\t\t\n      SWAP2 \t\t\t\n      SWAP1 \t\t\t\n      PUSH [tag] 98\t\t\t\n      JUMP \t\t\t\n    tag 245\t\t\t\n      JUMPDEST \t\t\t\n      PUSH 40\t\t\t\n      MLOAD \t\t\t\n      DUP1 \t\t\t\n      SWAP2 \t\t\t\n      SUB \t\t\t\n      SWAP1 \t\t\t\n      RETURN \t\t\t\n    tag 41\t\t\t\n      JUMPDEST \t\t\t\n      CALLVALUE \t\t\t\n      DUP1 \t\t\t\n      ISZERO \t\t\t\n      PUSH [tag] 246\t\t\t\n      JUMPI \t\t\t\n      PUSH 0\t\t\t\n      DUP1 \t\t\t\n      REVERT \t\t\t\n    tag 246\t\t\t\n      JUMPDEST \t\t\t\n      POP \t\t\t\n      PUSH [tag] 247\t\t\t\n      PUSH 4\t\t\t\n      DUP1 \t\t\t\n      CALLDATASIZE \t\t\t\n      SUB \t\t\t\n      DUP2 \t\t\t\n      ADD \t\t\t\n      SWAP1 \t\t\t\n      PUSH [tag] 248\t\t\t\n      SWAP2 \t\t\t\n      SWAP1 \t\t\t\n      PUSH [tag] 150\t\t\t\n      JUMP \t\t\t\n    tag 248\t\t\t\n      JUMPDEST \t\t\t\n      PUSH [tag] 249\t\t\t\n      JUMP \t\t\t\n    tag 247\t\t\t\n      JUMPDEST \t\t\t\n      STOP \t\t\t\n    tag 42\t\t\t\n      JUMPDEST \t\t\t\n      CALLVALUE \t\t\t\n      DUP1 \t\t\t\n      ISZERO \t\t\t\n      PUSH [tag] 250\t\t\t\n      JUMPI \t\t\t\n      PUSH 0\t\t\t\n      DUP1 \t\t\t\n      REVERT \t\t\t\n    tag 250\t\t\t\n      JUMPDEST \t\t\t\n      POP \t\t\t\n      PUSH [tag] 251\t\t\t\n      PUSH [tag] 252\t\t\t\n      JUMP \t\t\t\n    tag 251\t\t\t\n      JUMPDEST \t\t\t\n      PUSH 40\t\t\t\n      MLOAD \t\t\t\n      PUSH [tag] 253\t\t\t\n      SWAP2 \t\t\t\n      SWAP1 \t\t\t\n      PUSH [tag] 74\t\t\t\n      JUMP \t\t\t\n    tag 253\t\t\t\n      JUMPDEST \t\t\t\n      PUSH 40\t\t\t\n      MLOAD \t\t\t\n      DUP1 \t\t\t\n      SWAP2 \t\t\t\n      SUB \t\t\t\n      SWAP1 \t\t\t\n      RETURN \t\t\t\n    tag 43\t\t\t\n      JUMPDEST \t\t\t\n      CALLVALUE \t\t\t\n      DUP1 \t\t\t\n      ISZERO \t\t\t\n      PUSH [tag] 254\t\t\t\n      JUMPI \t\t\t\n      PUSH 0\t\t\t\n      DUP1 \t\t\t\n      REVERT \t\t\t\n    tag 254\t\t\t\n      JUMPDEST \t\t\t\n      POP \t\t\t\n      PUSH [tag] 255\t\t\t\n      PUSH 4\t\t\t\n      DUP1 \t\t\t\n      CALLDATASIZE \t\t\t\n      SUB \t\t\t\n      DUP2 \t\t\t\n      ADD \t\t\t\n      SWAP1 \t\t\t\n      PUSH [tag] 256\t\t\t\n      SWAP2 \t\t\t\n      SWAP1 \t\t\t\n      PUSH [tag] 257\t\t\t\n      JUMP \t\t\t\n    tag 256\t\t\t\n      JUMPDEST \t\t\t\n      PUSH [tag] 258\t\t\t\n      JUMP \t\t\t\n    tag 255\t\t\t\n      JUMPDEST \t\t\t\n      PUSH 40\t\t\t\n      MLOAD \t\t\t\n      PUSH [tag] 259\t\t\t\n      SWAP2 \t\t\t\n      SWAP1 \t\t\t\n      PUSH [tag] 62\t\t\t\n      JUMP \t\t\t\n    tag 259\t\t\t\n      JUMPDEST \t\t\t\n      PUSH 40\t\t\t\n      MLOAD \t\t\t\n      DUP1 \t\t\t\n      SWAP2 \t\t\t\n      SUB \t\t\t\n      SWAP1 \t\t\t\n      RETURN \t\t\t\n    tag 53\t\t\t\n      JUMPDEST \t\t\t\n      PUSH 60\t\t\t\n      PUSH 8\t\t\t\n      DUP1 \t\t\t\n      SLOAD \t\t\t\n      PUSH [tag] 261\t\t\t\n      SWAP1 \t\t\t\n      PUSH [tag] 262\t\t\t\n      JUMP \t\t\t\n    tag 261\t\t\t\n      JUMPDEST \t\t\t\n      DUP1 \t\t\t\n      PUSH 1F\t\t\t\n      ADD \t\t\t\n      PUSH 20\t\t\t\n      DUP1 \t\t\t\n      SWAP2 \t\t\t\n      DIV \t\t\t\n      MUL \t\t\t\n      PUSH 20\t\t\t\n      ADD \t\t\t\n      PUSH 40\t\t\t\n      MLOAD \t\t\t\n      SWAP1 \t\t\t\n      DUP2 \t\t\t\n      ADD \t\t\t\n      PUSH 40\t\t\t\n      MSTORE \t\t\t\n      DUP1 \t\t\t\n      SWAP3 \t\t\t\n      SWAP2 \t\t\t\n      SWAP1 \t\t\t\n      DUP2 \t\t\t\n      DUP2 \t\t\t\n      MSTORE \t\t\t\n      PUSH 20\t\t\t\n      ADD \t\t\t\n      DUP3 \t\t\t\n      DUP1 \t\t\t\n      SLOAD \t\t\t\n      PUSH [tag] 263\t\t\t\n      SWAP1 \t\t\t\n      PUSH [tag] 262\t\t\t\n      JUMP \t\t\t\n    tag 263\t\t\t\n      JUMPDEST \t\t\t\n      DUP1 \t\t\t\n      ISZERO \t\t\t\n      PUSH [tag] 264\t\t\t\n      JUMPI \t\t\t\n      DUP1 \t\t\t\n      PUSH 1F\t\t\t\n      LT \t\t\t\n      PUSH [tag] 265\t\t\t\n      JUMPI \t\t\t\n      PUSH 100\t\t\t\n      DUP1 \t\t\t\n      DUP4 \t\t\t\n      SLOAD \t\t\t\n      DIV \t\t\t\n      MUL \t\t\t\n      DUP4 \t\t\t\n      MSTORE \t\t\t\n      SWAP2 \t\t\t\n      PUSH 20\t\t\t\n      ADD \t\t\t\n      SWAP2 \t\t\t\n      PUSH [tag] 264\t\t\t\n      JUMP \t\t\t\n    tag 265\t\t\t\n      JUMPDEST \t\t\t\n      DUP3 \t\t\t\n      ADD \t\t\t\n      SWAP2 \t\t\t\n      SWAP1 \t\t\t\n      PUSH 0\t\t\t\n      MSTORE \t\t\t\n      PUSH 20\t\t\t\n      PUSH 0\t\t\t\n      KECCAK256 \t\t\t\n      SWAP1 \t\t\t\n    tag 266\t\t\t\n      JUMPDEST \t\t\t\n      DUP2 \t\t\t\n      SLOAD \t\t\t\n      DUP2 \t\t\t\n      MSTORE \t\t\t\n      SWAP1 \t\t\t\n      PUSH 1\t\t\t\n      ADD \t\t\t\n      SWAP1 \t\t\t\n      PUSH 20\t\t\t\n      ADD \t\t\t\n      DUP1 \t\t\t\n      DUP4 \t\t\t\n      GT \t\t\t\n      PUSH [tag] 266\t\t\t\n      JUMPI \t\t\t\n      DUP3 \t\t\t\n      SWAP1 \t\t\t\n      SUB \t\t\t\n      PUSH 1F\t\t\t\n      AND \t\t\t\n      DUP3 \t\t\t\n      ADD \t\t\t\n      SWAP2 \t\t\t\n    tag 264\t\t\t\n      JUMPDEST \t\t\t\n      POP \t\t\t\n      POP \t\t\t\n      POP \t\t\t\n      POP \t\t\t\n      POP \t\t\t\n      SWAP1 \t\t\t\n      POP \t\t\t\n      SWAP1 \t\t\t\n      JUMP \t\t\t\n    tag 60\t\t\t\n      JUMPDEST \t\t\t\n      PUSH 0\t\t\t\n      DUP1 \t\t\t\n      PUSH [tag] 268\t\t\t\n      PUSH [tag] 269\t\t\t\n      JUMP \t\t\t\n    tag 268\t\t\t\n      JUMPDEST \t\t\t\n      SWAP1 \t\t\t\n      POP \t\t\t\n      PUSH [tag] 270\t\t\t\n      DUP2 \t\t\t\n      DUP6 \t\t\t\n      DUP6 \t\t\t\n      PUSH [tag] 271\t\t\t\n      JUMP \t\t\t\n    tag 270\t\t\t\n      JUMPDEST \t\t\t\n      PUSH 1\t\t\t\n      SWAP2 \t\t\t\n      POP \t\t\t\n      POP \t\t\t\n      SWAP3 \t\t\t\n      SWAP2 \t\t\t\n      POP \t\t\t\n      POP \t\t\t\n      JUMP \t\t\t\n    tag 67\t\t\t\n      JUMPDEST \t\t\t\n      PUSH [tag] 272\t\t\t\n      PUSH [tag] 273\t\t\t\n      JUMP \t\t\t\n    tag 272\t\t\t\n      JUMPDEST \t\t\t\n      PUSH 60\t\t\t\n      PUSH [tag] 274\t\t\t\n      PUSH [tag] 275\t\t\t\n      JUMP \t\t\t\n    tag 274\t\t\t\n      JUMPDEST \t\t\t\n      PUSH 0\t\t\t\n      DUP1 \t\t\t\n      ADDRESS \t\t\t\n      PUSH FFFFFFFFFFFFFFFFFFFFFFFFFFFFFFFFFFFFFFFF\t\t\t\n      AND \t\t\t\n      PUSH FC0C546A\t\t\t\n      PUSH 40\t\t\t\n      MLOAD \t\t\t\n      DUP2 \t\t\t\n      PUSH FFFFFFFF\t\t\t\n      AND \t\t\t\n      PUSH E0\t\t\t\n      SHL \t\t\t\n      DUP2 \t\t\t\n      MSTORE \t\t\t\n      PUSH 4\t\t\t\n      ADD \t\t\t\n      PUSH 20\t\t\t\n      PUSH 40\t\t\t\n      MLOAD \t\t\t\n      DUP1 \t\t\t\n      DUP4 \t\t\t\n      SUB \t\t\t\n      DUP2 \t\t\t\n      DUP7 \t\t\t\n      GAS \t\t\t\n      STATICCALL \t\t\t\n      ISZERO \t\t\t\n      DUP1 \t\t\t\n      ISZERO \t\t\t\n      PUSH [tag] 278\t\t\t\n      JUMPI \t\t\t\n      RETURNDATASIZE \t\t\t\n      PUSH 0\t\t\t\n      DUP1 \t\t\t\n      RETURNDATACOPY \t\t\t\n      RETURNDATASIZE \t\t\t\n      PUSH 0\t\t\t\n      REVERT \t\t\t\n    tag 278\t\t\t\n      JUMPDEST \t\t\t\n      POP \t\t\t\n      POP \t\t\t\n      POP \t\t\t\n      POP \t\t\t\n      PUSH 40\t\t\t\n      MLOAD \t\t\t\n      RETURNDATASIZE \t\t\t\n      PUSH 1F\t\t\t\n      NOT \t\t\t\n      PUSH 1F\t\t\t\n      DUP3 \t\t\t\n      ADD \t\t\t\n      AND \t\t\t\n      DUP3 \t\t\t\n      ADD \t\t\t\n      DUP1 \t\t\t\n      PUSH 40\t\t\t\n      MSTORE \t\t\t\n      POP \t\t\t\n      DUP2 \t\t\t\n      ADD \t\t\t\n      SWAP1 \t\t\t\n      PUSH [tag] 279\t\t\t\n      SWAP2 \t\t\t\n      SWAP1 \t\t\t\n      PUSH [tag] 280\t\t\t\n      JUMP \t\t\t\n    tag 279\t\t\t\n      JUMPDEST \t\t\t\n      PUSH FFFFFFFFFFFFFFFFFFFFFFFFFFFFFFFFFFFFFFFF\t\t\t\n      AND \t\t\t\n      PUSH 18160DDD\t\t\t\n      PUSH 40\t\t\t\n      MLOAD \t\t\t\n      DUP2 \t\t\t\n      PUSH FFFFFFFF\t\t\t\n      AND \t\t\t\n      PUSH E0\t\t\t\n      SHL \t\t\t\n      DUP2 \t\t\t\n      MSTORE \t\t\t\n      PUSH 4\t\t\t\n      ADD \t\t\t\n      PUSH 20\t\t\t\n      PUSH 40\t\t\t\n      MLOAD \t\t\t\n      DUP1 \t\t\t\n      DUP4 \t\t\t\n      SUB \t\t\t\n      DUP2 \t\t\t\n      DUP7 \t\t\t\n      GAS \t\t\t\n      STATICCALL \t\t\t\n      ISZERO \t\t\t\n      DUP1 \t\t\t\n      ISZERO \t\t\t\n      PUSH [tag] 282\t\t\t\n      JUMPI \t\t\t\n      RETURNDATASIZE \t\t\t\n      PUSH 0\t\t\t\n      DUP1 \t\t\t\n      RETURNDATACOPY \t\t\t\n      RETURNDATASIZE \t\t\t\n      PUSH 0\t\t\t\n      REVERT \t\t\t\n    tag 282\t\t\t\n      JUMPDEST \t\t\t\n      POP \t\t\t\n      POP \t\t\t\n      POP \t\t\t\n      POP \t\t\t\n      PUSH 40\t\t\t\n      MLOAD \t\t\t\n      RETURNDATASIZE \t\t\t\n      PUSH 1F\t\t\t\n      NOT \t\t\t\n      PUSH 1F\t\t\t\n      DUP3 \t\t\t\n      ADD \t\t\t\n      AND \t\t\t\n      DUP3 \t\t\t\n      ADD \t\t\t\n      DUP1 \t\t\t\n      PUSH 40\t\t\t\n      MSTORE \t\t\t\n      POP \t\t\t\n      DUP2 \t\t\t\n      ADD \t\t\t\n      SWAP1 \t\t\t\n      PUSH [tag] 283\t\t\t\n      SWAP2 \t\t\t\n      SWAP1 \t\t\t\n      PUSH [tag] 284\t\t\t\n      JUMP \t\t\t\n    tag 283\t\t\t\n      JUMPDEST \t\t\t\n      SWAP1 \t\t\t\n      POP \t\t\t\n      PUSH 40\t\t\t\n      MLOAD \t\t\t\n      DUP1 \t\t\t\n      PUSH 40\t\t\t\n      ADD \t\t\t\n      PUSH 40\t\t\t\n      MSTORE \t\t\t\n      DUP1 \t\t\t\n      DUP4 \t\t\t\n      DUP2 \t\t\t\n      MSTORE \t\t\t\n      PUSH 20\t\t\t\n      ADD \t\t\t\n      DUP3 \t\t\t\n      DUP2 \t\t\t\n      MSTORE \t\t\t\n      POP \t\t\t\n      SWAP5 \t\t\t\n      POP \t\t\t\n      PUSH 0\t\t\t\n      PUSH FFFFFFFFFFFFFFFF\t\t\t\n      DUP2 \t\t\t\n      GT \t\t\t\n      ISZERO \t\t\t\n      PUSH [tag] 285\t\t\t\n      JUMPI \t\t\t\n      PUSH [tag] 286\t\t\t\n      PUSH [tag] 287\t\t\t\n      JUMP \t\t\t\n    tag 286\t\t\t\n      JUMPDEST \t\t\t\n    tag 285\t\t\t\n      JUMPDEST \t\t\t\n      PUSH 40\t\t\t\n      MLOAD \t\t\t\n      SWAP1 \t\t\t\n      DUP1 \t\t\t\n      DUP3 \t\t\t\n      MSTORE \t\t\t\n      DUP1 \t\t\t\n      PUSH 20\t\t\t\n      MUL \t\t\t\n      PUSH 20\t\t\t\n      ADD \t\t\t\n      DUP3 \t\t\t\n      ADD \t\t\t\n      PUSH 40\t\t\t\n      MSTORE \t\t\t\n      DUP1 \t\t\t\n      ISZERO \t\t\t\n      PUSH [tag] 288\t\t\t\n      JUMPI \t\t\t\n      DUP2 \t\t\t\n      PUSH 20\t\t\t\n      ADD \t\t\t\n    tag 289\t\t\t\n      JUMPDEST \t\t\t\n      PUSH [tag] 290\t\t\t\n      PUSH [tag] 291\t\t\t\n      JUMP \t\t\t\n    tag 290\t\t\t\n      JUMPDEST \t\t\t\n      DUP2 \t\t\t\n      MSTORE \t\t\t\n      PUSH 20\t\t\t\n      ADD \t\t\t\n      SWAP1 \t\t\t\n      PUSH 1\t\t\t\n      SWAP1 \t\t\t\n      SUB \t\t\t\n      SWAP1 \t\t\t\n      DUP2 \t\t\t\n      PUSH [tag] 289\t\t\t\n      JUMPI \t\t\t\n      SWAP1 \t\t\t\n      POP \t\t\t\n    tag 288\t\t\t\n      JUMPDEST \t\t\t\n      POP \t\t\t\n      SWAP4 \t\t\t\n      POP \t\t\t\n      PUSH 0\t\t\t\n      DUP1 \t\t\t\n      PUSH [tag] 292\t\t\t\n      DUP9 \t\t\t\n      PUSH 40\t\t\t\n      ADD \t\t\t\n      CALLDATALOAD \t\t\t\n      DUP10 \t\t\t\n      PUSH 60\t\t\t\n      ADD \t\t\t\n      CALLDATALOAD \t\t\t\n      DUP11 \t\t\t\n      PUSH 0\t\t\t\n      ADD \t\t\t\n      PUSH 20\t\t\t\n      DUP2 \t\t\t\n      ADD \t\t\t\n      SWAP1 \t\t\t\n      PUSH [tag] 293\t\t\t\n      SWAP2 \t\t\t\n      SWAP1 \t\t\t\n      PUSH [tag] 209\t\t\t\n      JUMP \t\t\t\n    tag 293\t\t\t\n      JUMPDEST \t\t\t\n      PUSH [tag] 294\t\t\t\n      JUMP \t\t\t\n    tag 292\t\t\t\n      JUMPDEST \t\t\t\n      SWAP2 \t\t\t\n      POP \t\t\t\n      SWAP2 \t\t\t\n      POP \t\t\t\n      PUSH 40\t\t\t\n      MLOAD \t\t\t\n      DUP1 \t\t\t\n      PUSH 40\t\t\t\n      ADD \t\t\t\n      PUSH 40\t\t\t\n      MSTORE \t\t\t\n      DUP1 \t\t\t\n      DUP4 \t\t\t\n      DUP2 \t\t\t\n      MSTORE \t\t\t\n      PUSH 20\t\t\t\n      ADD \t\t\t\n      DUP3 \t\t\t\n      DUP2 \t\t\t\n      MSTORE \t\t\t\n      POP \t\t\t\n      SWAP5 \t\t\t\n      POP \t\t\t\n      POP \t\t\t\n      POP \t\t\t\n      POP \t\t\t\n      POP \t\t\t\n      SWAP2 \t\t\t\n      SWAP4 \t\t\t\n      SWAP1 \t\t\t\n      SWAP3 \t\t\t\n      POP \t\t\t\n      JUMP \t\t\t\n    tag 72\t\t\t\n      JUMPDEST \t\t\t\n      PUSH 4\t\t\t\n      PUSH 0\t\t\t\n      SWAP1 \t\t\t\n      SLOAD \t\t\t\n      SWAP1 \t\t\t\n      PUSH 100\t\t\t\n      EXP \t\t\t\n      SWAP1 \t\t\t\n      DIV \t\t\t\n      PUSH FFFFFFFFFFFFFFFFFFFFFFFFFFFFFFFFFFFFFFFF\t\t\t\n      AND \t\t\t\n      DUP2 \t\t\t\n      JUMP \t\t\t\n    tag 78\t\t\t\n      JUMPDEST \t\t\t\n      CALLER \t\t\t\n      PUSH FFFFFFFFFFFFFFFFFFFFFFFFFFFFFFFFFFFFFFFF\t\t\t\n      AND \t\t\t\n      PUSHIMMUTABLE 1386\t\t\t\n      PUSH FFFFFFFFFFFFFFFFFFFFFFFFFFFFFFFFFFFFFFFF\t\t\t\n      AND \t\t\t\n      EQ \t\t\t\n      PUSH [tag] 296\t\t\t\n      JUMPI \t\t\t\n      CALLER \t\t\t\n      PUSH 40\t\t\t\n      MLOAD \t\t\t\n      PUSH 91AC5E4F00000000000000000000000000000000000000000000000000000000\t\t\t\n      DUP2 \t\t\t\n      MSTORE \t\t\t\n      PUSH 4\t\t\t\n      ADD \t\t\t\n      PUSH [tag] 297\t\t\t\n      SWAP2 \t\t\t\n      SWAP1 \t\t\t\n      PUSH [tag] 74\t\t\t\n      JUMP \t\t\t\n    tag 297\t\t\t\n      JUMPDEST \t\t\t\n      PUSH 40\t\t\t\n      MLOAD \t\t\t\n      DUP1 \t\t\t\n      SWAP2 \t\t\t\n      SUB \t\t\t\n      SWAP1 \t\t\t\n      REVERT \t\t\t\n    tag 296\t\t\t\n      JUMPDEST \t\t\t\n      DUP7 \t\t\t\n      PUSH 20\t\t\t\n      ADD \t\t\t\n      CALLDATALOAD \t\t\t\n      PUSH [tag] 298\t\t\t\n      DUP9 \t\t\t\n      PUSH 0\t\t\t\n      ADD \t\t\t\n      PUSH 20\t\t\t\n      DUP2 \t\t\t\n      ADD \t\t\t\n      SWAP1 \t\t\t\n      PUSH [tag] 299\t\t\t\n      SWAP2 \t\t\t\n      SWAP1 \t\t\t\n      PUSH [tag] 209\t\t\t\n      JUMP \t\t\t\n    tag 299\t\t\t\n      JUMPDEST \t\t\t\n      PUSH [tag] 300\t\t\t\n      JUMP \t\t\t\n    tag 298\t\t\t\n      JUMPDEST \t\t\t\n      EQ \t\t\t\n      PUSH [tag] 301\t\t\t\n      JUMPI \t\t\t\n      DUP7 \t\t\t\n      PUSH 0\t\t\t\n      ADD \t\t\t\n      PUSH 20\t\t\t\n      DUP2 \t\t\t\n      ADD \t\t\t\n      SWAP1 \t\t\t\n      PUSH [tag] 302\t\t\t\n      SWAP2 \t\t\t\n      SWAP1 \t\t\t\n      PUSH [tag] 209\t\t\t\n      JUMP \t\t\t\n    tag 302\t\t\t\n      JUMPDEST \t\t\t\n      DUP8 \t\t\t\n      PUSH 20\t\t\t\n      ADD \t\t\t\n      CALLDATALOAD \t\t\t\n      PUSH 40\t\t\t\n      MLOAD \t\t\t\n      PUSH C26BEBCC00000000000000000000000000000000000000000000000000000000\t\t\t\n      DUP2 \t\t\t\n      MSTORE \t\t\t\n      PUSH 4\t\t\t\n      ADD \t\t\t\n      PUSH [tag] 303\t\t\t\n      SWAP3 \t\t\t\n      SWAP2 \t\t\t\n      SWAP1 \t\t\t\n      PUSH [tag] 304\t\t\t\n      JUMP \t\t\t\n    tag 303\t\t\t\n      JUMPDEST \t\t\t\n      PUSH 40\t\t\t\n      MLOAD \t\t\t\n      DUP1 \t\t\t\n      SWAP2 \t\t\t\n      SUB \t\t\t\n      SWAP1 \t\t\t\n      REVERT \t\t\t\n    tag 301\t\t\t\n      JUMPDEST \t\t\t\n      PUSH [tag] 305\t\t\t\n      DUP8 \t\t\t\n      DUP8 \t\t\t\n      DUP8 \t\t\t\n      DUP8 \t\t\t\n      DUP8 \t\t\t\n      DUP8 \t\t\t\n      DUP8 \t\t\t\n      PUSH [tag] 306\t\t\t\n      JUMP \t\t\t\n    tag 305\t\t\t\n      JUMPDEST \t\t\t\n      POP \t\t\t\n      POP \t\t\t\n      POP \t\t\t\n      POP \t\t\t\n      POP \t\t\t\n      POP \t\t\t\n      POP \t\t\t\n      JUMP \t\t\t\n    tag 81\t\t\t\n      JUMPDEST \t\t\t\n      PUSH 2\t\t\t\n      DUP2 \t\t\t\n      JUMP \t\t\t\n    tag 86\t\t\t\n      JUMPDEST \t\t\t\n      PUSH 0\t\t\t\n      DUP1 \t\t\t\n      PUSH 2E49C2C00000000000000000000000000000000000000000000000000000000\t\t\t\n      PUSH 1\t\t\t\n      SWAP2 \t\t\t\n      POP \t\t\t\n      SWAP2 \t\t\t\n      POP \t\t\t\n      SWAP1 \t\t\t\n      SWAP2 \t\t\t\n      JUMP \t\t\t\n    tag 91\t\t\t\n      JUMPDEST \t\t\t\n      PUSH 0\t\t\t\n      DUP1 \t\t\t\n      PUSH 1\t\t\t\n      PUSH 2\t\t\t\\r\n      SWAP2 \t\t\t\n      POP \t\t\t\n      SWAP2 \t\t\t\n      POP \t\t\t\n      SWAP1 \t\t\t\n      SWAP2 \t\t\t\n      JUMP \t\t\t\n    tag 96\t\t\t\n      JUMPDEST \t\t\t\n      PUSH 0\t\t\t\n      PUSH 7\t\t\t\n      SLOAD \t\t\t\n      SWAP1 \t\t\t\n      POP \t\t\t\n      SWAP1 \t\t\t\n      JUMP \t\t\t\n    tag 101\t\t\t\n      JUMPDEST \t\t\t\n      PUSH 1\t\t\t\n      DUP2 \t\t\t\n      JUMP \t\t\t\n    tag 107\t\t\t\n      JUMPDEST \t\t\t\n      PUSH 0\t\t\t\n      DUP1 \t\t\t\n      PUSH [tag] 311\t\t\t\n      PUSH [tag] 269\t\t\t\n      JUMP \t\t\t\n    tag 311\t\t\t\n      JUMPDEST \t\t\t\n      SWAP1 \t\t\t\n      POP \t\t\t\n      PUSH [tag] 312\t\t\t\n      DUP6 \t\t\t\n      DUP3 \t\t\t\n      DUP6 \t\t\t\n      PUSH [tag] 313\t\t\t\n      JUMP \t\t\t\n    tag 312\t\t\t\n      JUMPDEST \t\t\t\n      PUSH [tag] 314\t\t\t\n      DUP6 \t\t\t\n      DUP6 \t\t\t\n      DUP6 \t\t\t\n      PUSH [tag] 315\t\t\t\n      JUMP \t\t\t\n    tag 314\t\t\t\n      JUMPDEST \t\t\t\n      PUSH 1\t\t\t\n      SWAP2 \t\t\t\n      POP \t\t\t\n      POP \t\t\t\n      SWAP4 \t\t\t\n      SWAP3 \t\t\t\n      POP \t\t\t\n      POP \t\t\t\n      POP \t\t\t\n      JUMP \t\t\t\n    tag 111\t\t\t\n      JUMPDEST \t\t\t\n      PUSH 0\t\t\t\n      PUSH 12\t\t\t\n      SWAP1 \t\t\t\n      POP \t\t\t\n      SWAP1 \t\t\t\n      JUMP \t\t\t\n    tag 118\t\t\t\n      JUMPDEST \t\t\t\n      PUSH [tag] 318\t\t\t\n      PUSH [tag] 319\t\t\t\n      JUMP \t\t\t\n    tag 318\t\t\t\n      JUMPDEST \t\t\t\n      PUSH [tag] 321\t\t\t\n      DUP3 \t\t\t\n      DUP3 \t\t\t\n      PUSH [tag] 322\t\t\t\n      JUMP \t\t\t\n    tag 321\t\t\t\n      JUMPDEST \t\t\t\n      POP \t\t\t\n      POP \t\t\t\n      JUMP \t\t\t\n    tag 123\t\t\t\n      JUMPDEST \t\t\t\n      PUSH [tag] 323\t\t\t\n      PUSH [tag] 324\t\t\t\n      JUMP \t\t\t\n    tag 323\t\t\t\n      JUMPDEST \t\t\t\n      PUSH 0\t\t\t\n      PUSH [tag] 326\t\t\t\n      DUP5 \t\t\t\n      PUSH 40\t\t\t\n      ADD \t\t\t\n      CALLDATALOAD \t\t\t\n      DUP6 \t\t\t\n      PUSH 60\t\t\t\n      ADD \t\t\t\n      CALLDATALOAD \t\t\t\n      DUP7 \t\t\t\n      PUSH 0\t\t\t\n      ADD \t\t\t\n      PUSH 20\t\t\t\n      DUP2 \t\t\t\n      ADD \t\t\t\n      SWAP1 \t\t\t\n      PUSH [tag] 327\t\t\t\n      SWAP2 \t\t\t\n      SWAP1 \t\t\t\n      PUSH [tag] 209\t\t\t\n      JUMP \t\t\t\n    tag 327\t\t\t\n      JUMPDEST \t\t\t\n      PUSH [tag] 294\t\t\t\n      JUMP \t\t\t\n    tag 326\t\t\t\n      JUMPDEST \t\t\t\n      SWAP2 \t\t\t\n      POP \t\t\t\n      POP \t\t\t\n      PUSH 0\t\t\t\n      DUP1 \t\t\t\n      PUSH [tag] 328\t\t\t\n      DUP7 \t\t\t\n      DUP5 \t\t\t\n      PUSH [tag] 329\t\t\t\n      JUMP \t\t\t\n    tag 328\t\t\t\n      JUMPDEST \t\t\t\n      SWAP2 \t\t\t\n      POP \t\t\t\n      SWAP2 \t\t\t\n      POP \t\t\t\n      PUSH [tag] 330\t\t\t\n      DUP7 \t\t\t\n      PUSH 0\t\t\t\n      ADD \t\t\t\n      PUSH 20\t\t\t\n      DUP2 \t\t\t\n      ADD \t\t\t\n      SWAP1 \t\t\t\n      PUSH [tag] 331\t\t\t\n      SWAP2 \t\t\t\n      SWAP1 \t\t\t\n      PUSH [tag] 209\t\t\t\n      JUMP \t\t\t\n    tag 331\t\t\t\n      JUMPDEST \t\t\t\n      DUP4 \t\t\t\n      DUP4 \t\t\t\n      DUP9 \t\t\t\n      PUSH [tag] 332\t\t\t\n      JUMP \t\t\t\n    tag 330\t\t\t\n      JUMPDEST \t\t\t\n      SWAP4 \t\t\t\n      POP \t\t\t\n      POP \t\t\t\n      POP \t\t\t\n      POP \t\t\t\n      SWAP3 \t\t\t\n      SWAP2 \t\t\t\n      POP \t\t\t\n      POP \t\t\t\n      JUMP \t\t\t\n    tag 128\t\t\t\n      JUMPDEST \t\t\t\n      PUSH 0\t\t\t\n      ADDRESS \t\t\t\n      SWAP1 \t\t\t\n      POP \t\t\t\n      SWAP1 \t\t\t\n      JUMP \t\t\t\n    tag 134\t\t\tlegate\\r\\n    ) OFT(_name, _sy...\n      JUMPDEST \t\t\tlegate\\r\\n    ) OFT(_name, _sy...\n      PUSH 3\t\t\tlegate\\r\\n    ) OFT(_name, _sy...\n      PUSH 20\t\t\tlegate\\r\\n    ) OFT(_name, _sy...\n      MSTORE \t\t\tlegate\\r\\n    ) OFT(_name, _sy...\n      DUP2 \t\t\tlegate\\r\\n    ) OFT(_name, _sy...\n      PUSH 0\t\t\tlegate\\r\\n    ) OFT(_name, _sy...\n      MSTORE \t\t\tlegate\\r\\n    ) OFT(_name, _sy...\n      PUSH 40\t\t\tlegate\\r\\n    ) OFT(_name, _sy...\n      PUSH 0\t\t\tlegate\\r\\n    ) OFT(_name, _sy...\n      KECCAK256 \t\t\tlegate\\r\\n    ) OFT(_name, _sy...\n      PUSH 20\t\t\tlegate\\r\\n    ) OFT(_name, _sy...\n      MSTORE \t\t\tlegate\\r\\n    ) OFT(_name, _sy...\n      DUP1 \t\t\tlegate\\r\\n    ) OFT(_name, _sy...\n      PUSH 0\t\t\tlegate\\r\\n    ) OFT(_name, _sy...\n      MSTORE \t\t\tlegate\\r\\n    ) OFT(_name, _sy...\n      PUSH 40\t\t\tlegate\\r\\n    ) OFT(_name, _sy...\n      PUSH 0\t\t\tlegate\\r\\n    ) OFT(_name, _sy...\n      KECCAK256 \t\t\tlegate\\r\\n    ) OFT(_name, _sy...\n      PUSH 0\t\t\tlegate\\r\\n    ) OFT(_name, _sy...\n      SWAP2 \t\t\tlegate\\r\\n    ) OFT(_name, _sy...\n      POP \t\t\tlegate\\r\\n    ) OFT(_name, _sy...\n      SWAP2 \t\t\tlegate\\r\\n    ) OFT(_name, _sy...\n      POP \t\t\tlegate\\r\\n    ) OFT(_name, _sy...\n      POP \t\t\tlegate\\r\\n    ) OFT(_name, _sy...\n      DUP1 \t\t\tlegate\\r\\n    ) OFT(_name, _sy...\n      SLOAD \t\t\tlegate\\r\\n    ) OFT(_name, _sy...\n      PUSH [tag] 334\t\t\tlegate\\r\\n    ) OFT(_name, _sy...\n      SWAP1 \t\t\tlegate\\r\\n    ) OFT(_name, _sy...\n      PUSH [tag] 262\t\t\tlegate\\r\\n    ) OFT(_name, _sy...\n      JUMP \t\t\tlegate\\r\\n    ) OFT(_name, _sy...\n    tag 334\t\t\tlegate\\r\\n    ) OFT(_name, _sy...\n      JUMPDEST \t\t\tlegate\\r\\n    ) OFT(_name, _sy...\n      DUP1 \t\t\tlegate\\r\\n    ) OFT(_name, _sy...\n      PUSH 1F\t\t\tlegate\\r\\n    ) OFT(_name, _sy...\n      ADD \t\t\tlegate\\r\\n    ) OFT(_name, _sy...\n      PUSH 20\t\t\tlegate\\r\\n    ) OFT(_name, _sy...\n      DUP1 \t\t\tlegate\\r\\n    ) OFT(_name, _sy...\n      SWAP2 \t\t\tlegate\\r\\n    ) OFT(_name, _sy...\n      DIV \t\t\tlegate\\r\\n    ) OFT(_name, _sy...\n      MUL \t\t\tlegate\\r\\n    ) OFT(_name, _sy...\n      PUSH 20\t\t\tlegate\\r\\n    ) OFT(_name, _sy...\n      ADD \t\t\tlegate\\r\\n    ) OFT(_name, _sy...\n      PUSH 40\t\t\tlegate\\r\\n    ) OFT(_name, _sy...\n      MLOAD \t\t\tlegate\\r\\n    ) OFT(_name, _sy...\n      SWAP1 \t\t\tlegate\\r\\n    ) OFT(_name, _sy...\n      DUP2 \t\t\tlegate\\r\\n    ) OFT(_name, _sy...\n      ADD \t\t\tlegate\\r\\n    ) OFT(_name, _sy...\n      PUSH 40\t\t\tlegate\\r\\n    ) OFT(_name, _sy...\n      MSTORE \t\t\tlegate\\r\\n    ) OFT(_name, _sy...\n      DUP1 \t\t\tlegate\\r\\n    ) OFT(_name, _sy...\n      SWAP3 \t\t\tlegate\\r\\n    ) OFT(_name, _sy...\n      SWAP2 \t\t\tlegate\\r\\n    ) OFT(_name, _sy...\n      SWAP1 \t\t\tlegate\\r\\n    ) OFT(_name, _sy...\n      DUP2 \t\t\tlegate\\r\\n    ) OFT(_name, _sy...\n      DUP2 \t\t\tlegate\\r\\n    ) OFT(_name, _sy...\n      MSTORE \t\t\tlegate\\r\\n    ) OFT(_name, _sy...\n      PUSH 20\t\t\tlegate\\r\\n    ) OFT(_name, _sy...\n      ADD \t\t\tlegate\\r\\n    ) OFT(_name, _sy...\n      DUP3 \t\t\tlegate\\r\\n    ) OFT(_name, _sy...\n      DUP1 \t\t\tlegate\\r\\n    ) OFT(_name, _sy...\n      SLOAD \t\t\tlegate\\r\\n    ) OFT(_name, _sy...\n      PUSH [tag] 335\t\t\tlegate\\r\\n    ) OFT(_name, _sy...\n      SWAP1 \t\t\tlegate\\r\\n    ) OFT(_name, _sy...\n      PUSH [tag] 262\t\t\tlegate\\r\\n    ) OFT(_name, _sy...\n      JUMP \t\t\tlegate\\r\\n    ) OFT(_name, _sy...\n    tag 335\t\t\tlegate\\r\\n    ) OFT(_name, _sy...\n      JUMPDEST \t\t\tlegate\\r\\n    ) OFT(_name, _sy...\n      DUP1 \t\t\tlegate\\r\\n    ) OFT(_name, _sy...\n      ISZERO \t\t\tlegate\\r\\n    ) OFT(_name, _sy...\n      PUSH [tag] 336\t\t\tlegate\\r\\n    ) OFT(_name, _sy...\n      JUMPI \t\t\tlegate\\r\\n    ) OFT(_name, _sy...\n      DUP1 \t\t\tlegate\\r\\n    ) OFT(_name, _sy...\n      PUSH 1F\t\t\tlegate\\r\\n    ) OFT(_name, _sy...\n      LT \t\t\tlegate\\r\\n    ) OFT(_name, _sy...\n      PUSH [tag] 337\t\t\tlegate\\r\\n    ) OFT(_name, _sy...\n      JUMPI \t\t\tlegate\\r\\n    ) OFT(_name, _sy...\n      PUSH 100\t\t\tlegate\\r\\n    ) OFT(_name, _sy...\n      DUP1 \t\t\tlegate\\r\\n    ) OFT(_name, _sy...\n      DUP4 \t\t\tlegate\\r\\n    ) OFT(_name, _sy...\n      SLOAD \t\t\tlegate\\r\\n    ) OFT(_name, _sy...\n      DIV \t\t\tlegate\\r\\n    ) OFT(_name, _sy...\n      MUL \t\t\tlegate\\r\\n    ) OFT(_name, _sy...\n      DUP4 \t\t\tlegate\\r\\n    ) OFT(_name, _sy...\n      MSTORE \t\t\tlegate\\r\\n    ) OFT(_name, _sy...\n      SWAP2 \t\t\tlegate\\r\\n    ) OFT(_name, _sy...\n      PUSH 20\t\t\tlegate\\r\\n    ) OFT(_name, _sy...\n      ADD \t\t\tlegate\\r\\n    ) OFT(_name, _sy...\n      SWAP2 \t\t\tlegate\\r\\n    ) OFT(_name, _sy...\n      PUSH [tag] 336\t\t\tlegate\\r\\n    ) OFT(_name, _sy...\n      JUMP \t\t\tlegate\\r\\n    ) OFT(_name, _sy...\n    tag 337\t\t\tlegate\\r\\n    ) OFT(_name, _sy...\n      JUMPDEST \t\t\tlegate\\r\\n    ) OFT(_name, _sy...\n      DUP3 \t\t\tlegate\\r\\n    ) OFT(_name, _sy...\n      ADD \t\t\tlegate\\r\\n    ) OFT(_name, _sy...\n      SWAP2 \t\t\tlegate\\r\\n    ) OFT(_name, _sy...\n      SWAP1 \t\t\tlegate\\r\\n    ) OFT(_name, _sy...\n      PUSH 0\t\t\tlegate\\r\\n    ) OFT(_name, _sy...\n      MSTORE \t\t\tlegate\\r\\n    ) OFT(_name, _sy...\n      PUSH 20\t\t\tlegate\\r\\n    ) OFT(_name, _sy...\n      PUSH 0\t\t\tlegate\\r\\n    ) OFT(_name, _sy...\n      KECCAK256 \t\t\tlegate\\r\\n    ) OFT(_name, _sy...\n      SWAP1 \t\t\tlegate\\r\\n    ) OFT(_name, _sy...\n    tag 338\t\t\tlegate\\r\\n    ) OFT(_name, _sy...\n      JUMPDEST \t\t\tlegate\\r\\n    ) OFT(_name, _sy...\n      DUP2 \t\t\tlegate\\r\\n    ) OFT(_name, _sy...\n      SLOAD \t\t\tlegate\\r\\n    ) OFT(_name, _sy...\n      DUP2 \t\t\tlegate\\r\\n    ) OFT(_name, _sy...\n      MSTORE \t\t\tlegate\\r\\n    ) OFT(_name, _sy...\n      SWAP1 \t\t\tlegate\\r\\n    ) OFT(_name, _sy...\n      PUSH 1\t\t\tlegate\\r\\n    ) OFT(_name, _sy...\n      ADD \t\t\tlegate\\r\\n    ) OFT(_name, _sy...\n      SWAP1 \t\t\tlegate\\r\\n    ) OFT(_name, _sy...\n      PUSH 20\t\t\tlegate\\r\\n    ) OFT(_name, _sy...\n      ADD \t\t\tlegate\\r\\n    ) OFT(_name, _sy...\n      DUP1 \t\t\tlegate\\r\\n    ) OFT(_name, _sy...\n      DUP4 \t\t\tlegate\\r\\n    ) OFT(_name, _sy...\n      GT \t\t\tlegate\\r\\n    ) OFT(_name, _sy...\n      PUSH [tag] 338\t\t\tlegate\\r\\n    ) OFT(_name, _sy...\n      JUMPI \t\t\tlegate\\r\\n    ) OFT(_name, _sy...\n      DUP3 \t\t\tlegate\\r\\n    ) OFT(_name, _sy...\n      SWAP1 \t\t\tlegate\\r\\n    ) OFT(_name, _sy...\n      SUB \t\t\tlegate\\r\\n    ) OFT(_name, _sy...\n      PUSH 1F\t\t\tlegate\\r\\n    ) OFT(_name, _sy...\n      AND \t\t\tlegate\\r\\n    ) OFT(_name, _sy...\n      DUP3 \t\t\tlegate\\r\\n    ) OFT(_name, _sy...\n      ADD \t\t\tlegate\\r\\n    ) OFT(_name, _sy...\n      SWAP2 \t\t\tlegate\\r\\n    ) OFT(_name, _sy...\n    tag 336\t\t\tlegate\\r\\n    ) OFT(_name, _sy...\n      JUMPDEST \t\t\tlegate\\r\\n    ) OFT(_name, _sy...\n      POP \t\t\tlegate\\r\\n    ) OFT(_name, _sy...\n      POP \t\t\tlegate\\r\\n    ) OFT(_name, _sy...\n      POP \t\t\tlegate\\r\\n    ) OFT(_name, _sy...\n      POP \t\t\tlegate\\r\\n    ) OFT(_name, _sy...\n      POP \t\t\tlegate\\r\\n    ) OFT(_name, _sy...\n      DUP2 \t\t\tlegate\\r\\n    ) OFT(_name, _sy...\n      JUMP \t\t\tlegate\\r\\n    ) OFT(_name, _sy...\n    tag 140\t\t\t\n      JUMPDEST \t\t\t\n      PUSH 0\t\t\t\n      DUP2 \t\t\t\n      PUSH 1\t\t\t\n      PUSH 0\t\t\t\n      DUP6 \t\t\t\n      PUSH FFFFFFFF\t\t\t\n      AND \t\t\t\n      PUSH FFFFFFFF\t\t\t\n      AND \t\t\t\n      DUP2 \t\t\t\n      MSTORE \t\t\t\n      PUSH 20\t\t\t\n      ADD \t\t\t\n      SWAP1 \t\t\t\n      DUP2 \t\t\t\n      MSTORE \t\t\t\n      PUSH 20\t\t\t\n      ADD \t\t\t\n      PUSH 0\t\t\t\n      KECCAK256 \t\t\t\n      SLOAD \t\t\t\n      EQ \t\t\t\n      SWAP1 \t\t\t\n      POP \t\t\t\n      SWAP3 \t\t\t\n      SWAP2 \t\t\t\n      POP \t\t\t\n      POP \t\t\t\n      JUMP \t\t\t\n    tag 144\t\t\t_symbol,\\r\\n        uint256 _i...\n      JUMPDEST \t\t\t_symbol,\\r\\n        uint256 _i...\n      PUSHIMMUTABLE 1386\t\t\t_symbol,\\r\\n        uint256 _i...\n      DUP2 \t\t\t_symbol,\\r\\n        uint256 _i...\n      JUMP \t\t\t_symbol,\\r\\n        uint256 _i...\n    tag 151\t\t\t\n      JUMPDEST \t\t\t\n      PUSH [tag] 341\t\t\t\n      PUSH [tag] 319\t\t\t\n      JUMP \t\t\t\n    tag 341\t\t\t\n      JUMPDEST \t\t\t\n      DUP1 \t\t\t\n      PUSH 4\t\t\t\n      PUSH 0\t\t\t\n      PUSH 100\t\t\t\n      EXP \t\t\t\n      DUP2 \t\t\t\n      SLOAD \t\t\t\n      DUP2 \t\t\t\n      PUSH FFFFFFFFFFFFFFFFFFFFFFFFFFFFFFFFFFFFFFFF\t\t\t\n      MUL \t\t\t\n      NOT \t\t\t\n      AND \t\t\t\n      SWAP1 \t\t\t\n      DUP4 \t\t\t\n      PUSH FFFFFFFFFFFFFFFFFFFFFFFFFFFFFFFFFFFFFFFF\t\t\t\n      AND \t\t\t\n      MUL \t\t\t\n      OR \t\t\t\n      SWAP1 \t\t\t\n      SSTORE \t\t\t\n      POP \t\t\t\n      PUSH F0BE4F1E87349231D80C36B33F9E8639658EEAF474014DEE15A3E6A4D4414197\t\t\t\n      DUP2 \t\t\t\n      PUSH 40\t\t\t\n      MLOAD \t\t\t\n      PUSH [tag] 343\t\t\t\n      SWAP2 \t\t\t\n      SWAP1 \t\t\t\n      PUSH [tag] 74\t\t\t\n      JUMP \t\t\t\n    tag 343\t\t\t\n      JUMPDEST \t\t\t\n      PUSH 40\t\t\t\n      MLOAD \t\t\t\n      DUP1 \t\t\t\n      SWAP2 \t\t\t\n      SUB \t\t\t\n      SWAP1 \t\t\t\n      LOG1 \t\t\t\n      POP \t\t\t\n      JUMP \t\t\t\n    tag 155\t\t\t\n      JUMPDEST \t\t\t\n      PUSH 0\t\t\t\n      PUSH 5\t\t\t\n      PUSH 0\t\t\t\n      DUP4 \t\t\t\n      PUSH FFFFFFFFFFFFFFFFFFFFFFFFFFFFFFFFFFFFFFFF\t\t\t\n      AND \t\t\t\n      PUSH FFFFFFFFFFFFFFFFFFFFFFFFFFFFFFFFFFFFFFFF\t\t\t\n      AND \t\t\t\n      DUP2 \t\t\t\n      MSTORE \t\t\t\n      PUSH 20\t\t\t\n      ADD \t\t\t\n      SWAP1 \t\t\t\n      DUP2 \t\t\t\n      MSTORE \t\t\t\n      PUSH 20\t\t\t\n      ADD \t\t\t\n      PUSH 0\t\t\t\n      KECCAK256 \t\t\t\n      SLOAD \t\t\t\n      SWAP1 \t\t\t\n      POP \t\t\t\n      SWAP2 \t\t\t\n      SWAP1 \t\t\t\n      POP \t\t\t\n      JUMP \t\t\t\n    tag 159\t\t\t\n      JUMPDEST \t\t\t\n      PUSH [tag] 346\t\t\t\n      PUSH [tag] 319\t\t\t\n      JUMP \t\t\t\n    tag 346\t\t\t\n      JUMPDEST \t\t\t\n      PUSH [tag] 348\t\t\t\n      PUSH 0\t\t\t\n      PUSH [tag] 349\t\t\t\n      JUMP \t\t\t\n    tag 348\t\t\t\n      JUMPDEST \t\t\t\n      JUMP \t\t\t\n    tag 163\t\t\t\n      JUMPDEST \t\t\t\n      PUSH 0\t\t\t\n      SWAP3 \t\t\t\n      SWAP2 \t\t\t\n      POP \t\t\t\n      POP \t\t\t\n      JUMP \t\t\t\n    tag 170\t\t\t\n      JUMPDEST \t\t\t\n      PUSH 0\t\t\t\n      ADDRESS \t\t\t\n      PUSH FFFFFFFFFFFFFFFFFFFFFFFFFFFFFFFFFFFFFFFF\t\t\t\n      AND \t\t\t\n      DUP3 \t\t\t\n      PUSH FFFFFFFFFFFFFFFFFFFFFFFFFFFFFFFFFFFFFFFF\t\t\t\n      AND \t\t\t\n      EQ \t\t\t\n      SWAP1 \t\t\t\n      POP \t\t\t\n      SWAP5 \t\t\t\n      SWAP4 \t\t\t\n      POP \t\t\t\n      POP \t\t\t\n      POP \t\t\t\n      POP \t\t\t\n      JUMP \t\t\t\n    tag 174\t\t\t\n      JUMPDEST \t\t\t\n      PUSH 0\t\t\t\n      PUSH 6\t\t\t\n      SWAP1 \t\t\t\n      POP \t\t\t\n      SWAP1 \t\t\t\n      JUMP \t\t\t\n    tag 178\t\t\t\n      JUMPDEST \t\t\t\n      PUSH 0\t\t\t\n      DUP1 \t\t\t\n      PUSH 0\t\t\t\n      SWAP1 \t\t\t\n      SLOAD \t\t\t\n      SWAP1 \t\t\t\n      PUSH 100\t\t\t\n      EXP \t\t\t\n      SWAP1 \t\t\t\n      DIV \t\t\t\n      PUSH FFFFFFFFFFFFFFFFFFFFFFFFFFFFFFFFFFFFFFFF\t\t\t\n      AND \t\t\t\n      SWAP1 \t\t\t\n      POP \t\t\t\n      SWAP1 \t\t\t\n      JUMP \t\t\t\n    tag 182\t\t\t\n      JUMPDEST \t\t\t\n      PUSH 60\t\t\t\n      PUSH 9\t\t\t\n      DUP1 \t\t\t\n      SLOAD \t\t\t\n      PUSH [tag] 355\t\t\t\n      SWAP1 \t\t\t\n      PUSH [tag] 262\t\t\t\n      JUMP \t\t\t\n    tag 355\t\t\t\n      JUMPDEST \t\t\t\n      DUP1 \t\t\t\n      PUSH 1F\t\t\t\n      ADD \t\t\t\n      PUSH 20\t\t\t\n      DUP1 \t\t\t\n      SWAP2 \t\t\t\n      DIV \t\t\t\n      MUL \t\t\t\n      PUSH 20\t\t\t\n      ADD \t\t\t\n      PUSH 40\t\t\t\n      MLOAD \t\t\t\n      SWAP1 \t\t\t\n      DUP2 \t\t\t\n      ADD \t\t\t\n      PUSH 40\t\t\t\n      MSTORE \t\t\t\n      DUP1 \t\t\t\n      SWAP3 \t\t\t\n      SWAP2 \t\t\t\n      SWAP1 \t\t\t\n      DUP2 \t\t\t\n      DUP2 \t\t\t\n      MSTORE \t\t\t\n      PUSH 20\t\t\t\n      ADD \t\t\t\n      DUP3 \t\t\t\n      DUP1 \t\t\t\n      SLOAD \t\t\t\n      PUSH [tag] 356\t\t\t\n      SWAP1 \t\t\t\n      PUSH [tag] 262\t\t\t\n      JUMP \t\t\t\n    tag 356\t\t\t\n      JUMPDEST \t\t\t\n      DUP1 \t\t\t\n      ISZERO \t\t\t\n      PUSH [tag] 357\t\t\t\n      JUMPI \t\t\t\n      DUP1 \t\t\t\n      PUSH 1F\t\t\t\n      LT \t\t\t\n      PUSH [tag] 358\t\t\t\n      JUMPI \t\t\t\n      PUSH 100\t\t\t\n      DUP1 \t\t\t\n      DUP4 \t\t\t\n      SLOAD \t\t\t\n      DIV \t\t\t\n      MUL \t\t\t\n      DUP4 \t\t\t\n      MSTORE \t\t\t\n      SWAP2 \t\t\t\n      PUSH 20\t\t\t\n      ADD \t\t\t\n      SWAP2 \t\t\t\n      PUSH [tag] 357\t\t\t\n      JUMP \t\t\t\n    tag 358\t\t\t\n      JUMPDEST \t\t\t\n      DUP3 \t\t\t\n      ADD \t\t\t\n      SWAP2 \t\t\t\n      SWAP1 \t\t\t\n      PUSH 0\t\t\t\n      MSTORE \t\t\t\n      PUSH 20\t\t\t\n      PUSH 0\t\t\t\n      KECCAK256 \t\t\t\n      SWAP1 \t\t\t\n    tag 359\t\t\t\n      JUMPDEST \t\t\t\n      DUP2 \t\t\t\n      SLOAD \t\t\t\n      DUP2 \t\t\t\n      MSTORE \t\t\t\n      SWAP1 \t\t\t\n      PUSH 1\t\t\t\n      ADD \t\t\t\n      SWAP1 \t\t\t\n      PUSH 20\t\t\t\n      ADD \t\t\t\n      DUP1 \t\t\t\n      DUP4 \t\t\t\n      GT \t\t\t\n      PUSH [tag] 359\t\t\t\n      JUMPI \t\t\t\n      DUP3 \t\t\t\n      SWAP1 \t\t\t\n      SUB \t\t\t\n      PUSH 1F\t\t\t\n      AND \t\t\t\n      DUP3 \t\t\t\n      ADD \t\t\t\n      SWAP2 \t\t\t\n    tag 357\t\t\t\n      JUMPDEST \t\t\t\n      POP \t\t\t\n      POP \t\t\t\n      POP \t\t\t\n      POP \t\t\t\n      POP \t\t\t\n      SWAP1 \t\t\t\n      POP \t\t\t\n      SWAP1 \t\t\t\n      JUMP \t\t\t\n    tag 186\t\t\t\n      JUMPDEST \t\t\t\n      PUSHIMMUTABLE 2778\t\t\t\n      DUP2 \t\t\t\n      JUMP \t\t\t\n    tag 190\t\t\t\n      JUMPDEST \t\t\t\n      PUSH 0\t\t\t\n      SWAP1 \t\t\t\n      JUMP \t\t\t\n    tag 195\t\t\t\n      JUMPDEST \t\t\t\n      PUSH 0\t\t\t\n      DUP1 \t\t\t\n      PUSH [tag] 362\t\t\t\n      PUSH [tag] 269\t\t\t\n      JUMP \t\t\t\n    tag 362\t\t\t\n      JUMPDEST \t\t\t\n      SWAP1 \t\t\t\n      POP \t\t\t\n      PUSH [tag] 363\t\t\t\n      DUP2 \t\t\t\n      DUP6 \t\t\t\n      DUP6 \t\t\t\n      PUSH [tag] 315\t\t\t\n      JUMP \t\t\t\n    tag 363\t\t\t\n      JUMPDEST \t\t\t\n      PUSH 1\t\t\t\n      SWAP2 \t\t\t\n      POP \t\t\t\n      POP \t\t\t\n      SWAP3 \t\t\t\n      SWAP2 \t\t\t\n      POP \t\t\t\n      POP \t\t\t\n      JUMP \t\t\t\n    tag 199\t\t\tme, _symbol, _lzEndpoin\n      JUMPDEST \t\t\tme, _symbol, _lzEndpoin\n      PUSH 2\t\t\tme, _symbol, _lzEndpoin\n      PUSH 0\t\t\tme, _symbol, _lzEndpoin\n      SWAP1 \t\t\tme, _symbol, _lzEndpoin\n      SLOAD \t\t\tme, _symbol, _lzEndpoin\n      SWAP1 \t\t\tme, _symbol, _lzEndpoin\n      PUSH 100\t\t\tme, _symbol, _lzEndpoin\n      EXP \t\t\tme, _symbol, _lzEndpoin\n      SWAP1 \t\t\tme, _symbol, _lzEndpoin\n      DIV \t\t\tme, _symbol, _lzEndpoin\n      PUSH FFFFFFFFFFFFFFFFFFFFFFFFFFFFFFFFFFFFFFFF\t\t\tme, _symbol, _lzEndpoin\n      AND \t\t\tme, _symbol, _lzEndpoin\n      DUP2 \t\t\tme, _symbol, _lzEndpoin\n      JUMP \t\t\tme, _symbol, _lzEndpoin\n    tag 205\t\t\t\n      JUMPDEST \t\t\t\n      PUSH [tag] 365\t\t\t\n      PUSH [tag] 319\t\t\t\n      JUMP \t\t\t\n    tag 365\t\t\t\n      JUMPDEST \t\t\t\n      PUSH [tag] 367\t\t\t\n      DUP3 \t\t\t\n      DUP3 \t\t\t\n      SWAP1 \t\t\t\n      PUSH [tag] 368\t\t\t\n      SWAP2 \t\t\t\n      SWAP1 \t\t\t\n      PUSH [tag] 369\t\t\t\n      JUMP \t\t\t\n    tag 368\t\t\t\n      JUMPDEST \t\t\t\n      PUSH [tag] 370\t\t\t\n      JUMP \t\t\t\n    tag 367\t\t\t\n      JUMPDEST \t\t\t\n      POP \t\t\t\n      POP \t\t\t\n      JUMP \t\t\t\n    tag 210\t\t\tl, _lzEndpoint, _delegate) Own...\n      JUMPDEST \t\t\tl, _lzEndpoint, _delegate) Own...\n      PUSH 1\t\t\tl, _lzEndpoint, _delegate) Own...\n      PUSH 20\t\t\tl, _lzEndpoint, _delegate) Own...\n      MSTORE \t\t\tl, _lzEndpoint, _delegate) Own...\n      DUP1 \t\t\tl, _lzEndpoint, _delegate) Own...\n      PUSH 0\t\t\tl, _lzEndpoint, _delegate) Own...\n      MSTORE \t\t\tl, _lzEndpoint, _delegate) Own...\n      PUSH 40\t\t\tl, _lzEndpoint, _delegate) Own...\n      PUSH 0\t\t\tl, _lzEndpoint, _delegate) Own...\n      KECCAK256 \t\t\tl, _lzEndpoint, _delegate) Own...\n      PUSH 0\t\t\tl, _lzEndpoint, _delegate) Own...\n      SWAP2 \t\t\tl, _lzEndpoint, _delegate) Own...\n      POP \t\t\tl, _lzEndpoint, _delegate) Own...\n      SWAP1 \t\t\tl, _lzEndpoint, _delegate) Own...\n      POP \t\t\tl, _lzEndpoint, _delegate) Own...\n      SLOAD \t\t\tl, _lzEndpoint, _delegate) Own...\n      DUP2 \t\t\tl, _lzEndpoint, _delegate) Own...\n      JUMP \t\t\tl, _lzEndpoint, _delegate) Own...\n    tag 217\t\t\t\n      JUMPDEST \t\t\t\n      PUSH 60\t\t\t\n      PUSH 0\t\t\t\n      PUSH 3\t\t\t\n      PUSH 0\t\t\t\n      DUP8 \t\t\t\n      PUSH FFFFFFFF\t\t\t\n      AND \t\t\t\n      PUSH FFFFFFFF\t\t\t\n      AND \t\t\t\n      DUP2 \t\t\t\n      MSTORE \t\t\t\n      PUSH 20\t\t\t\n      ADD \t\t\t\n      SWAP1 \t\t\t\n      DUP2 \t\t\t\n      MSTORE \t\t\t\n      PUSH 20\t\t\t\n      ADD \t\t\t\n      PUSH 0\t\t\t\n      KECCAK256 \t\t\t\n      PUSH 0\t\t\t\n      DUP7 \t\t\t\n      PUSH FFFF\t\t\t\n      AND \t\t\t\n      PUSH FFFF\t\t\t\n      AND \t\t\t\n      DUP2 \t\t\t\n      MSTORE \t\t\t\n      PUSH 20\t\t\t\n      ADD \t\t\t\n      SWAP1 \t\t\t\n      DUP2 \t\t\t\n      MSTORE \t\t\t\n      PUSH 20\t\t\t\n      ADD \t\t\t\n      PUSH 0\t\t\t\n      KECCAK256 \t\t\t\n      DUP1 \t\t\t\n      SLOAD \t\t\t\n      PUSH [tag] 372\t\t\t\n      SWAP1 \t\t\t\n      PUSH [tag] 262\t\t\t\n      JUMP \t\t\t\n    tag 372\t\t\t\n      JUMPDEST \t\t\t\n      DUP1 \t\t\t\n      PUSH 1F\t\t\t\n      ADD \t\t\t\n      PUSH 20\t\t\t\n      DUP1 \t\t\t\n      SWAP2 \t\t\t\n      DIV \t\t\t\n      MUL \t\t\t\n      PUSH 20\t\t\t\n      ADD \t\t\t\n      PUSH 40\t\t\t\n      MLOAD \t\t\t\n      SWAP1 \t\t\t\n      DUP2 \t\t\t\n      ADD \t\t\t\n      PUSH 40\t\t\t\n      MSTORE \t\t\t\n      DUP1 \t\t\t\n      SWAP3 \t\t\t\n      SWAP2 \t\t\t\n      SWAP1 \t\t\t\n      DUP2 \t\t\t\n      DUP2 \t\t\t\n      MSTORE \t\t\t\n      PUSH 20\t\t\t\n      ADD \t\t\t\n      DUP3 \t\t\t\n      DUP1 \t\t\t\n      SLOAD \t\t\t\n      PUSH [tag] 373\t\t\t\n      SWAP1 \t\t\t\n      PUSH [tag] 262\t\t\t\n      JUMP \t\t\t\n    tag 373\t\t\t\n      JUMPDEST \t\t\t\n      DUP1 \t\t\t\n      ISZERO \t\t\t\n      PUSH [tag] 374\t\t\t\n      JUMPI \t\t\t\n      DUP1 \t\t\t\n      PUSH 1F\t\t\t\n      LT \t\t\t\n      PUSH [tag] 375\t\t\t\n      JUMPI \t\t\t\n      PUSH 100\t\t\t\n      DUP1 \t\t\t\n      DUP4 \t\t\t\n      SLOAD \t\t\t\n      DIV \t\t\t\n      MUL \t\t\t\n      DUP4 \t\t\t\n      MSTORE \t\t\t\n      SWAP2 \t\t\t\n      PUSH 20\t\t\t\n      ADD \t\t\t\n      SWAP2 \t\t\t\n      PUSH [tag] 374\t\t\t\n      JUMP \t\t\t\n    tag 375\t\t\t\n      JUMPDEST \t\t\t\n      DUP3 \t\t\t\n      ADD \t\t\t\n      SWAP2 \t\t\t\n      SWAP1 \t\t\t\n      PUSH 0\t\t\t\n      MSTORE \t\t\t\n      PUSH 20\t\t\t\n      PUSH 0\t\t\t\n      KECCAK256 \t\t\t\n      SWAP1 \t\t\t\n    tag 376\t\t\t\n      JUMPDEST \t\t\t\n      DUP2 \t\t\t\n      SLOAD \t\t\t\n      DUP2 \t\t\t\n      MSTORE \t\t\t\n      SWAP1 \t\t\t\n      PUSH 1\t\t\t\n      ADD \t\t\t\n      SWAP1 \t\t\t\n      PUSH 20\t\t\t\n      ADD \t\t\t\n      DUP1 \t\t\t\n      DUP4 \t\t\t\n      GT \t\t\t\n      PUSH [tag] 376\t\t\t\n      JUMPI \t\t\t\n      DUP3 \t\t\t\n      SWAP1 \t\t\t\n      SUB \t\t\t\n      PUSH 1F\t\t\t\n      AND \t\t\t\n      DUP3 \t\t\t\n      ADD \t\t\t\n      SWAP2 \t\t\t\n    tag 374\t\t\t\n      JUMPDEST \t\t\t\n      POP \t\t\t\n      POP \t\t\t\n      POP \t\t\t\n      POP \t\t\t\n      POP \t\t\t\n      SWAP1 \t\t\t\n      POP \t\t\t\n      PUSH 0\t\t\t\n      DUP2 \t\t\t\n      MLOAD \t\t\t\n      SUB \t\t\t\n      PUSH [tag] 377\t\t\t\n      JUMPI \t\t\t\n      DUP4 \t\t\t\n      DUP4 \t\t\t\n      DUP1 \t\t\t\n      DUP1 \t\t\t\n      PUSH 1F\t\t\t\n      ADD \t\t\t\n      PUSH 20\t\t\t\n      DUP1 \t\t\t\n      SWAP2 \t\t\t\n      DIV \t\t\t\n      MUL \t\t\t\n      PUSH 20\t\t\t\n      ADD \t\t\t\n      PUSH 40\t\t\t\n      MLOAD \t\t\t\n      SWAP1 \t\t\t\n      DUP2 \t\t\t\n      ADD \t\t\t\n      PUSH 40\t\t\t\n      MSTORE \t\t\t\n      DUP1 \t\t\t\n      SWAP4 \t\t\t\n      SWAP3 \t\t\t\n      SWAP2 \t\t\t\n      SWAP1 \t\t\t\n      DUP2 \t\t\t\n      DUP2 \t\t\t\n      MSTORE \t\t\t\n      PUSH 20\t\t\t\n      ADD \t\t\t\n      DUP4 \t\t\t\n      DUP4 \t\t\t\n      DUP1 \t\t\t\n      DUP3 \t\t\t\n      DUP5 \t\t\t\n      CALLDATACOPY \t\t\t\n      PUSH 0\t\t\t\n      DUP2 \t\t\t\n      DUP5 \t\t\t\n      ADD \t\t\t\n      MSTORE \t\t\t\n      PUSH 1F\t\t\t\n      NOT \t\t\t\n      PUSH 1F\t\t\t\n      DUP3 \t\t\t\n      ADD \t\t\t\n      AND \t\t\t\n      SWAP1 \t\t\t\n      POP \t\t\t\n      DUP1 \t\t\t\n      DUP4 \t\t\t\n      ADD \t\t\t\n      SWAP3 \t\t\t\n      POP \t\t\t\n      POP \t\t\t\n      POP \t\t\t\n      POP \t\t\t\n      POP \t\t\t\n      POP \t\t\t\n      POP \t\t\t\n      SWAP2 \t\t\t\n      POP \t\t\t\n      POP \t\t\t\n      PUSH [tag] 371\t\t\t\n      JUMP \t\t\t\n    tag 377\t\t\t\n      JUMPDEST \t\t\t\n      PUSH 0\t\t\t\n      DUP5 \t\t\t\n      DUP5 \t\t\t\n      SWAP1 \t\t\t\n      POP \t\t\t\n      SUB \t\t\t\n      PUSH [tag] 378\t\t\t\n      JUMPI \t\t\t\n      DUP1 \t\t\t\n      SWAP2 \t\t\t\n      POP \t\t\t\n      POP \t\t\t\n      PUSH [tag] 371\t\t\t\n      JUMP \t\t\t\n    tag 378\t\t\t\n      JUMPDEST \t\t\t\n      PUSH 2\t\t\t\n      DUP5 \t\t\t\n      DUP5 \t\t\t\n      SWAP1 \t\t\t\n      POP \t\t\t\n      LT \t\t\t\n      PUSH [tag] 379\t\t\t\n      JUMPI \t\t\t\n      PUSH [tag] 380\t\t\t\n      DUP5 \t\t\t\n      DUP5 \t\t\t\n      DUP1 \t\t\t\n      DUP1 \t\t\t\n      PUSH 1F\t\t\t\n      ADD \t\t\t\n      PUSH 20\t\t\t\n      DUP1 \t\t\t\n      SWAP2 \t\t\t\n      DIV \t\t\t\n      MUL \t\t\t\n      PUSH 20\t\t\t\n      ADD \t\t\t\n      PUSH 40\t\t\t\n      MLOAD \t\t\t\n      SWAP1 \t\t\t\n      DUP2 \t\t\t\n      ADD \t\t\t\n      PUSH 40\t\t\t\n      MSTORE \t\t\t\n      DUP1 \t\t\t\n      SWAP4 \t\t\t\n      SWAP3 \t\t\t\n      SWAP2 \t\t\t\n      SWAP1 \t\t\t\n      DUP2 \t\t\t\n      DUP2 \t\t\t\n      MSTORE \t\t\t\n      PUSH 20\t\t\t\n      ADD \t\t\t\n      DUP4 \t\t\t\n      DUP4 \t\t\t\n      DUP1 \t\t\t\n      DUP3 \t\t\t\n      DUP5 \t\t\t\n      CALLDATACOPY \t\t\t\n      PUSH 0\t\t\t\n      DUP2 \t\t\t\n      DUP5 \t\t\t\n      ADD \t\t\t\n      MSTORE \t\t\t\n      PUSH 1F\t\t\t\n      NOT \t\t\t\n      PUSH 1F\t\t\t\n      DUP3 \t\t\t\n      ADD \t\t\t\n      AND \t\t\t\n      SWAP1 \t\t\t\n      POP \t\t\t\n      DUP1 \t\t\t\n      DUP4 \t\t\t\n      ADD \t\t\t\n      SWAP3 \t\t\t\n      POP \t\t\t\n      POP \t\t\t\n      POP \t\t\t\n      POP \t\t\t\n      POP \t\t\t\n      POP \t\t\t\n      POP \t\t\t\n      PUSH [tag] 381\t\t\t\n      JUMP \t\t\t\n    tag 380\t\t\t\n      JUMPDEST \t\t\t\n      DUP1 \t\t\t\n      DUP5 \t\t\t\n      DUP5 \t\t\t\n      PUSH 2\t\t\t\n      SWAP1 \t\t\t\n      DUP1 \t\t\t\n      SWAP3 \t\t\t\n      PUSH [tag] 382\t\t\t\n      SWAP4 \t\t\t\n      SWAP3 \t\t\t\n      SWAP2 \t\t\t\n      SWAP1 \t\t\t\n      PUSH [tag] 383\t\t\t\n      JUMP \t\t\t\n    tag 382\t\t\t\n      JUMPDEST \t\t\t\n      PUSH 40\t\t\t\n      MLOAD \t\t\t\n      PUSH 20\t\t\t\n      ADD \t\t\t\n      PUSH [tag] 384\t\t\t\n      SWAP4 \t\t\t\n      SWAP3 \t\t\t\n      SWAP2 \t\t\t\n      SWAP1 \t\t\t\n      PUSH [tag] 385\t\t\t\n      JUMP \t\t\t\n    tag 384\t\t\t\n      JUMPDEST \t\t\t\n      PUSH 40\t\t\t\n      MLOAD \t\t\t\n      PUSH 20\t\t\t\n      DUP2 \t\t\t\n      DUP4 \t\t\t\n      SUB \t\t\t\n      SUB \t\t\t\n      DUP2 \t\t\t\n      MSTORE \t\t\t\n      SWAP1 \t\t\t\n      PUSH 40\t\t\t\n      MSTORE \t\t\t\n      SWAP2 \t\t\t\n      POP \t\t\t\n      POP \t\t\t\n      PUSH [tag] 371\t\t\t\n      JUMP \t\t\t\n    tag 379\t\t\t\n      JUMPDEST \t\t\t\n      DUP4 \t\t\t\n      DUP4 \t\t\t\n      PUSH 40\t\t\t\n      MLOAD \t\t\t\n      PUSH 9A6D49CD00000000000000000000000000000000000000000000000000000000\t\t\t\n      DUP2 \t\t\t\n      MSTORE \t\t\t\n      PUSH 4\t\t\t\n      ADD \t\t\t\n      PUSH [tag] 386\t\t\t\n      SWAP3 \t\t\t\n      SWAP2 \t\t\t\n      SWAP1 \t\t\t\n      PUSH [tag] 387\t\t\t\n      JUMP \t\t\t\n    tag 386\t\t\t\n      JUMPDEST \t\t\t\n      PUSH 40\t\t\t\n      MLOAD \t\t\t\n      DUP1 \t\t\t\n      SWAP2 \t\t\t\n      SUB \t\t\t\n      SWAP1 \t\t\t\n      REVERT \t\t\t\n    tag 371\t\t\t\n      JUMPDEST \t\t\t\n      SWAP5 \t\t\t\n      SWAP4 \t\t\t\n      POP \t\t\t\n      POP \t\t\t\n      POP \t\t\t\n      POP \t\t\t\n      JUMP \t\t\t\n    tag 222\t\t\t\n      JUMPDEST \t\t\t\n      PUSH 0\t\t\t\n    tag 389\t\t\t\n      JUMPDEST \t\t\t\n      DUP3 \t\t\t\n      DUP3 \t\t\t\n      SWAP1 \t\t\t\n      POP \t\t\t\n      DUP2 \t\t\t\n      LT \t\t\t\n      ISZERO \t\t\t\n      PUSH [tag] 390\t\t\t\n      JUMPI \t\t\t\n      CALLDATASIZE \t\t\t\n      DUP4 \t\t\t\n      DUP4 \t\t\t\n      DUP4 \t\t\t\n      DUP2 \t\t\t\n      DUP2 \t\t\t\n      LT \t\t\t\n      PUSH [tag] 392\t\t\t\n      JUMPI \t\t\t\n      PUSH [tag] 393\t\t\t\n      PUSH [tag] 394\t\t\t\n      JUMP \t\t\t\n    tag 393\t\t\t\n      JUMPDEST \t\t\t\n    tag 392\t\t\t\n      JUMPDEST \t\t\t\n      SWAP1 \t\t\t\n      POP \t\t\t\n      PUSH 20\t\t\t\n      MUL \t\t\t\n      DUP2 \t\t\t\n      ADD \t\t\t\n      SWAP1 \t\t\t\n      PUSH [tag] 395\t\t\t\n      SWAP2 \t\t\t\n      SWAP1 \t\t\t\n      PUSH [tag] 396\t\t\t\n      JUMP \t\t\t\n    tag 395\t\t\t\n      JUMPDEST \t\t\t\n      SWAP1 \t\t\t\n      POP \t\t\t\n      PUSH [tag] 397\t\t\t\n      DUP2 \t\t\t\n      PUSH 0\t\t\t\n      ADD \t\t\t\n      PUSH 0\t\t\t\n      ADD \t\t\t\n      PUSH 20\t\t\t\n      DUP2 \t\t\t\n      ADD \t\t\t\n      SWAP1 \t\t\t\n      PUSH [tag] 398\t\t\t\n      SWAP2 \t\t\t\n      SWAP1 \t\t\t\n      PUSH [tag] 209\t\t\t\n      JUMP \t\t\t\n    tag 398\t\t\t\n      JUMPDEST \t\t\t\n      DUP3 \t\t\t\n      PUSH 0\t\t\t\n      ADD \t\t\t\n      PUSH 20\t\t\t\n      ADD \t\t\t\n      CALLDATALOAD \t\t\t\n      PUSH [tag] 140\t\t\t\n      JUMP \t\t\t\n    tag 397\t\t\t\n      JUMPDEST \t\t\t\n      PUSH [tag] 399\t\t\t\n      JUMPI \t\t\t\n      POP \t\t\t\n      PUSH [tag] 391\t\t\t\n      JUMP \t\t\t\n    tag 399\t\t\t\n      JUMPDEST \t\t\t\n      ADDRESS \t\t\t\n      PUSH FFFFFFFFFFFFFFFFFFFFFFFFFFFFFFFFFFFFFFFF\t\t\t\n      AND \t\t\t\n      PUSH D045A0DC\t\t\t\n      DUP3 \t\t\t\n      PUSH C0\t\t\t\n      ADD \t\t\t\n      CALLDATALOAD \t\t\t\n      DUP4 \t\t\t\n      PUSH 0\t\t\t\n      ADD \t\t\t\n      DUP5 \t\t\t\n      PUSH A0\t\t\t\n      ADD \t\t\t\n      CALLDATALOAD \t\t\t\n      DUP6 \t\t\t\n      DUP1 \t\t\t\n      PUSH 100\t\t\t\n      ADD \t\t\t\n      SWAP1 \t\t\t\n      PUSH [tag] 400\t\t\t\n      SWAP2 \t\t\t\n      SWAP1 \t\t\t\n      PUSH [tag] 401\t\t\t\n      JUMP \t\t\t\n    tag 400\t\t\t\n      JUMPDEST \t\t\t\n      DUP8 \t\t\t\n      PUSH E0\t\t\t\n      ADD \t\t\t\n      PUSH 20\t\t\t\n      DUP2 \t\t\t\n      ADD \t\t\t\n      SWAP1 \t\t\t\n      PUSH [tag] 402\t\t\t\n      SWAP2 \t\t\t\n      SWAP1 \t\t\t\n      PUSH [tag] 150\t\t\t\n      JUMP \t\t\t\n    tag 402\t\t\t\n      JUMPDEST \t\t\t\n      DUP9 \t\t\t\n      DUP1 \t\t\t\n      PUSH 120\t\t\t\n      ADD \t\t\t\n      SWAP1 \t\t\t\n      PUSH [tag] 403\t\t\t\n      SWAP2 \t\t\t\n      SWAP1 \t\t\t\n      PUSH [tag] 401\t\t\t\n      JUMP \t\t\t\n    tag 403\t\t\t\n      JUMPDEST \t\t\t\n      PUSH 40\t\t\t\n      MLOAD \t\t\t\n      DUP10 \t\t\t\n      PUSH FFFFFFFF\t\t\t\n      AND \t\t\t\n      PUSH E0\t\t\t\n      SHL \t\t\t\n      DUP2 \t\t\t\n      MSTORE \t\t\t\n      PUSH 4\t\t\t\n      ADD \t\t\t\n      PUSH [tag] 404\t\t\t\n      SWAP8 \t\t\t\n      SWAP7 \t\t\t\n      SWAP6 \t\t\t\n      SWAP5 \t\t\t\n      SWAP4 \t\t\t\n      SWAP3 \t\t\t\n      SWAP2 \t\t\t\n      SWAP1 \t\t\t\n      PUSH [tag] 405\t\t\t\n      JUMP \t\t\t\n    tag 404\t\t\t\n      JUMPDEST \t\t\t\n      PUSH 0\t\t\t\n      PUSH 40\t\t\t\n      MLOAD \t\t\t\n      DUP1 \t\t\t\n      DUP4 \t\t\t\n      SUB \t\t\t\n      DUP2 \t\t\t\n      DUP6 \t\t\t\n      DUP9 \t\t\t\n      DUP1 \t\t\t\n      EXTCODESIZE \t\t\t\n      ISZERO \t\t\t\n      DUP1 \t\t\t\n      ISZERO \t\t\t\n      PUSH [tag] 406\t\t\t\n      JUMPI \t\t\t\n      PUSH 0\t\t\t\n      DUP1 \t\t\t\n      REVERT \t\t\t\n    tag 406\t\t\t\n      JUMPDEST \t\t\t\n      POP \t\t\t\n      GAS \t\t\t\n      CALL \t\t\t\n      ISZERO \t\t\t\n      DUP1 \t\t\t\n      ISZERO \t\t\t\n      PUSH [tag] 408\t\t\t\n      JUMPI \t\t\t\n      RETURNDATASIZE \t\t\t\n      PUSH 0\t\t\t\n      DUP1 \t\t\t\n      RETURNDATACOPY \t\t\t\n      RETURNDATASIZE \t\t\t\n      PUSH 0\t\t\t\n      REVERT \t\t\t\n    tag 408\t\t\t\n      JUMPDEST \t\t\t\n      POP \t\t\t\n      POP \t\t\t\n      POP \t\t\t\n      POP \t\t\t\n      POP \t\t\t\n      POP \t\t\t\n    tag 391\t\t\t\n      JUMPDEST \t\t\t\n      DUP1 \t\t\t\n      DUP1 \t\t\t\n      PUSH 1\t\t\t\n      ADD \t\t\t\n      SWAP2 \t\t\t\n      POP \t\t\t\n      POP \t\t\t\n      PUSH [tag] 389\t\t\t\n      JUMP \t\t\t\n    tag 390\t\t\t\n      JUMPDEST \t\t\t\n      POP \t\t\t\n      CALLER \t\t\t\n      PUSH FFFFFFFFFFFFFFFFFFFFFFFFFFFFFFFFFFFFFFFF\t\t\t\n      AND \t\t\t\n      PUSH 8E9E7099\t\t\t\n      PUSH 40\t\t\t\n      MLOAD \t\t\t\n      DUP2 \t\t\t\n      PUSH FFFFFFFF\t\t\t\n      AND \t\t\t\n      PUSH E0\t\t\t\n      SHL \t\t\t\n      DUP2 \t\t\t\n      MSTORE \t\t\t\n      PUSH 4\t\t\t\n      ADD \t\t\t\n      PUSH 0\t\t\t\n      PUSH 40\t\t\t\n      MLOAD \t\t\t\n      DUP1 \t\t\t\n      DUP4 \t\t\t\n      SUB \t\t\t\n      DUP2 \t\t\t\n      DUP7 \t\t\t\n      GAS \t\t\t\n      STATICCALL \t\t\t\n      ISZERO \t\t\t\n      DUP1 \t\t\t\n      ISZERO \t\t\t\n      PUSH [tag] 410\t\t\t\n      JUMPI \t\t\t\n      RETURNDATASIZE \t\t\t\n      PUSH 0\t\t\t\n      DUP1 \t\t\t\n      RETURNDATACOPY \t\t\t\n      RETURNDATASIZE \t\t\t\n      PUSH 0\t\t\t\n      REVERT \t\t\t\n    tag 410\t\t\t\n      JUMPDEST \t\t\t\n      POP \t\t\t\n      POP \t\t\t\n      POP \t\t\t\n      POP \t\t\t\n      PUSH 40\t\t\t\n      MLOAD \t\t\t\n      RETURNDATASIZE \t\t\t\n      PUSH 0\t\t\t\n      DUP3 \t\t\t\n      RETURNDATACOPY \t\t\t\n      RETURNDATASIZE \t\t\t\n      PUSH 1F\t\t\t\n      NOT \t\t\t\n      PUSH 1F\t\t\t\n      DUP3 \t\t\t\n      ADD \t\t\t\n      AND \t\t\t\n      DUP3 \t\t\t\n      ADD \t\t\t\n      DUP1 \t\t\t\n      PUSH 40\t\t\t\n      MSTORE \t\t\t\n      POP \t\t\t\n      DUP2 \t\t\t\n      ADD \t\t\t\n      SWAP1 \t\t\t\n      PUSH [tag] 411\t\t\t\n      SWAP2 \t\t\t\n      SWAP1 \t\t\t\n      PUSH [tag] 412\t\t\t\n      JUMP \t\t\t\n    tag 411\t\t\t\n      JUMPDEST \t\t\t\n      PUSH 40\t\t\t\n      MLOAD \t\t\t\n      PUSH 8351EEA700000000000000000000000000000000000000000000000000000000\t\t\t\n      DUP2 \t\t\t\n      MSTORE \t\t\t\n      PUSH 4\t\t\t\n      ADD \t\t\t\n      PUSH [tag] 413\t\t\t\n      SWAP2 \t\t\t\n      SWAP1 \t\t\t\n      PUSH [tag] 136\t\t\t\n      JUMP \t\t\t\n    tag 413\t\t\t\n      JUMPDEST \t\t\t\n      PUSH 40\t\t\t\n      MLOAD \t\t\t\n      DUP1 \t\t\t\n      SWAP2 \t\t\t\n      SUB \t\t\t\n      SWAP1 \t\t\t\n      REVERT \t\t\t\n    tag 226\t\t\t\n      JUMPDEST \t\t\t\n      PUSH [tag] 414\t\t\t\n      PUSH [tag] 415\t\t\t\n      JUMP \t\t\t\n    tag 414\t\t\t\n      JUMPDEST \t\t\t\n      PUSH [tag] 416\t\t\t\n      PUSH [tag] 275\t\t\t\n      JUMP \t\t\t\n    tag 416\t\t\t\n      JUMPDEST \t\t\t\n      PUSH [tag] 418\t\t\t\n      DUP6 \t\t\t\n      DUP6 \t\t\t\n      DUP6 \t\t\t\n      PUSH [tag] 419\t\t\t\n      JUMP \t\t\t\n    tag 418\t\t\t\n      JUMPDEST \t\t\t\n      SWAP2 \t\t\t\n      POP \t\t\t\n      SWAP2 \t\t\t\n      POP \t\t\t\n      SWAP4 \t\t\t\n      POP \t\t\t\n      SWAP4 \t\t\t\n      SWAP2 \t\t\t\n      POP \t\t\t\n      POP \t\t\t\n      JUMP \t\t\t\n    tag 232\t\t\t\n      JUMPDEST \t\t\t\n      PUSH [tag] 421\t\t\t\n      PUSH [tag] 319\t\t\t\n      JUMP \t\t\t\n    tag 421\t\t\t\n      JUMPDEST \t\t\t\n      PUSHIMMUTABLE 1386\t\t\t\n      PUSH FFFFFFFFFFFFFFFFFFFFFFFFFFFFFFFFFFFFFFFF\t\t\t\n      AND \t\t\t\n      PUSH CA5EB5E1\t\t\t\n      DUP3 \t\t\t\n      PUSH 40\t\t\t\n      MLOAD \t\t\t\n      DUP3 \t\t\t\n      PUSH FFFFFFFF\t\t\t\n      AND \t\t\t\n      PUSH E0\t\t\t\n      SHL \t\t\t\n      DUP2 \t\t\t\n      MSTORE \t\t\t\n      PUSH 4\t\t\t\n      ADD \t\t\t\n      PUSH [tag] 423\t\t\t\n      SWAP2 \t\t\t\n      SWAP1 \t\t\t\n      PUSH [tag] 74\t\t\t\n      JUMP \t\t\t\n    tag 423\t\t\t\n      JUMPDEST \t\t\t\n      PUSH 0\t\t\t\n      PUSH 40\t\t\t\n      MLOAD \t\t\t\n      DUP1 \t\t\t\n      DUP4 \t\t\t\n      SUB \t\t\t\n      DUP2 \t\t\t\n      PUSH 0\t\t\t\n      DUP8 \t\t\t\n      DUP1 \t\t\t\n      EXTCODESIZE \t\t\t\n      ISZERO \t\t\t\n      DUP1 \t\t\t\n      ISZERO \t\t\t\n      PUSH [tag] 424\t\t\t\n      JUMPI \t\t\t\n      PUSH 0\t\t\t\n      DUP1 \t\t\t\n      REVERT \t\t\t\n    tag 424\t\t\t\n      JUMPDEST \t\t\t\n      POP \t\t\t\n      GAS \t\t\t\n      CALL \t\t\t\n      ISZERO \t\t\t\n      DUP1 \t\t\t\n      ISZERO \t\t\t\n      PUSH [tag] 426\t\t\t\n      JUMPI \t\t\t\n      RETURNDATASIZE \t\t\t\n      PUSH 0\t\t\t\n      DUP1 \t\t\t\n      RETURNDATACOPY \t\t\t\n      RETURNDATASIZE \t\t\t\n      PUSH 0\t\t\t\n      REVERT \t\t\t\n    tag 426\t\t\t\n      JUMPDEST \t\t\t\n      POP \t\t\t\n      POP \t\t\t\n      POP \t\t\t\n      POP \t\t\t\n      POP \t\t\t\n      JUMP \t\t\t\n    tag 235\t\t\t\n      JUMPDEST \t\t\t\n      ADDRESS \t\t\t\n      PUSH FFFFFFFFFFFFFFFFFFFFFFFFFFFFFFFFFFFFFFFF\t\t\t\n      AND \t\t\t\n      CALLER \t\t\t\n      PUSH FFFFFFFFFFFFFFFFFFFFFFFFFFFFFFFFFFFFFFFF\t\t\t\n      AND \t\t\t\n      EQ \t\t\t\n      PUSH [tag] 428\t\t\t\n      JUMPI \t\t\t\n      PUSH 40\t\t\t\n      MLOAD \t\t\t\n      PUSH 14D4A4E800000000000000000000000000000000000000000000000000000000\t\t\t\n      DUP2 \t\t\t\n      MSTORE \t\t\t\n      PUSH 4\t\t\t\n      ADD \t\t\t\n      PUSH 40\t\t\t\n      MLOAD \t\t\t\n      DUP1 \t\t\t\n      SWAP2 \t\t\t\n      SUB \t\t\t\n      SWAP1 \t\t\t\n      REVERT \t\t\t\n    tag 428\t\t\t\n      JUMPDEST \t\t\t\n      PUSH [tag] 429\t\t\t\n      DUP8 \t\t\t\n      DUP8 \t\t\t\n      DUP8 \t\t\t\n      DUP8 \t\t\t\n      DUP8 \t\t\t\n      DUP8 \t\t\t\n      DUP8 \t\t\t\n      PUSH [tag] 430\t\t\t\n      JUMP \t\t\t\n    tag 429\t\t\t\n      JUMPDEST \t\t\t\n      POP \t\t\t\n      POP \t\t\t\n      POP \t\t\t\n      POP \t\t\t\n      POP \t\t\t\n      POP \t\t\t\n      POP \t\t\t\n      JUMP \t\t\t\n    tag 239\t\t\t\n      JUMPDEST \t\t\t\n      PUSH [tag] 432\t\t\t\n      PUSH [tag] 319\t\t\t\n      JUMP \t\t\t\n    tag 432\t\t\t\n      JUMPDEST \t\t\t\n      DUP1 \t\t\t\n      PUSH 2\t\t\t\n      PUSH 0\t\t\t\n      PUSH 100\t\t\t\n      EXP \t\t\t\n      DUP2 \t\t\t\n      SLOAD \t\t\t\n      DUP2 \t\t\t\n      PUSH FFFFFFFFFFFFFFFFFFFFFFFFFFFFFFFFFFFFFFFF\t\t\t\n      MUL \t\t\t\n      NOT \t\t\t\n      AND \t\t\t\n      SWAP1 \t\t\t\n      DUP4 \t\t\t\n      PUSH FFFFFFFFFFFFFFFFFFFFFFFFFFFFFFFFFFFFFFFF\t\t\t\n      AND \t\t\t\n      MUL \t\t\t\n      OR \t\t\t\n      SWAP1 \t\t\t\n      SSTORE \t\t\t\n      POP \t\t\t\n      PUSH D48D879CEF83A1C0BDDA516F27B13DDB1B3F8BBAC1C9E1511BB2A659C2427760\t\t\t\n      DUP2 \t\t\t\n      PUSH 40\t\t\t\n      MLOAD \t\t\t\n      PUSH [tag] 434\t\t\t\n      SWAP2 \t\t\t\n      SWAP1 \t\t\t\n      PUSH [tag] 74\t\t\t\n      JUMP \t\t\t\n    tag 434\t\t\t\n      JUMPDEST \t\t\t\n      PUSH 40\t\t\t\n      MLOAD \t\t\t\n      DUP1 \t\t\t\n      SWAP2 \t\t\t\n      SUB \t\t\t\n      SWAP1 \t\t\t\n      LOG1 \t\t\t\n      POP \t\t\t\n      JUMP \t\t\t\n    tag 244\t\t\t\n      JUMPDEST \t\t\t\n      PUSH 0\t\t\t\n      PUSH 6\t\t\t\n      PUSH 0\t\t\t\n      DUP5 \t\t\t\n      PUSH FFFFFFFFFFFFFFFFFFFFFFFFFFFFFFFFFFFFFFFF\t\t\t\n      AND \t\t\t\n      PUSH FFFFFFFFFFFFFFFFFFFFFFFFFFFFFFFFFFFFFFFF\t\t\t\n      AND \t\t\t\n      DUP2 \t\t\t\n      MSTORE \t\t\t\n      PUSH 20\t\t\t\n      ADD \t\t\t\n      SWAP1 \t\t\t\n      DUP2 \t\t\t\n      MSTORE \t\t\t\n      PUSH 20\t\t\t\n      ADD \t\t\t\n      PUSH 0\t\t\t\n      KECCAK256 \t\t\t\n      PUSH 0\t\t\t\n      DUP4 \t\t\t\n      PUSH FFFFFFFFFFFFFFFFFFFFFFFFFFFFFFFFFFFFFFFF\t\t\t\n      AND \t\t\t\n      PUSH FFFFFFFFFFFFFFFFFFFFFFFFFFFFFFFFFFFFFFFF\t\t\t\n      AND \t\t\t\n      DUP2 \t\t\t\n      MSTORE \t\t\t\n      PUSH 20\t\t\t\n      ADD \t\t\t\n      SWAP1 \t\t\t\n      DUP2 \t\t\t\n      MSTORE \t\t\t\n      PUSH 20\t\t\t\n      ADD \t\t\t\n      PUSH 0\t\t\t\n      KECCAK256 \t\t\t\n      SLOAD \t\t\t\n      SWAP1 \t\t\t\n      POP \t\t\t\n      SWAP3 \t\t\t\n      SWAP2 \t\t\t\n      POP \t\t\t\n      POP \t\t\t\n      JUMP \t\t\t\n    tag 249\t\t\t\n      JUMPDEST \t\t\t\n      PUSH [tag] 437\t\t\t\n      PUSH [tag] 319\t\t\t\n      JUMP \t\t\t\n    tag 437\t\t\t\n      JUMPDEST \t\t\t\n      PUSH 0\t\t\t\n      PUSH FFFFFFFFFFFFFFFFFFFFFFFFFFFFFFFFFFFFFFFF\t\t\t\n      AND \t\t\t\n      DUP2 \t\t\t\n      PUSH FFFFFFFFFFFFFFFFFFFFFFFFFFFFFFFFFFFFFFFF\t\t\t\n      AND \t\t\t\n      SUB \t\t\t\n      PUSH [tag] 439\t\t\t\n      JUMPI \t\t\t\n      PUSH 0\t\t\t\n      PUSH 40\t\t\t\n      MLOAD \t\t\t\n      PUSH 1E4FBDF700000000000000000000000000000000000000000000000000000000\t\t\t\n      DUP2 \t\t\t\n      MSTORE \t\t\t\n      PUSH 4\t\t\t\n      ADD \t\t\t\n      PUSH [tag] 440\t\t\t\n      SWAP2 \t\t\t\n      SWAP1 \t\t\t\n      PUSH [tag] 74\t\t\t\n      JUMP \t\t\t\n    tag 440\t\t\t\n      JUMPDEST \t\t\t\n      PUSH 40\t\t\t\n      MLOAD \t\t\t\n      DUP1 \t\t\t\n      SWAP2 \t\t\t\n      SUB \t\t\t\n      SWAP1 \t\t\t\n      REVERT \t\t\t\n    tag 439\t\t\t\n      JUMPDEST \t\t\t\n      PUSH [tag] 441\t\t\t\n      DUP2 \t\t\t\n      PUSH [tag] 349\t\t\t\n      JUMP \t\t\t\n    tag 441\t\t\t\n      JUMPDEST \t\t\t\n      POP \t\t\t\n      JUMP \t\t\t\n    tag 252\t\t\t\n      JUMPDEST \t\t\t\n      PUSH 0\t\t\t\n      ADDRESS \t\t\t\n      SWAP1 \t\t\t\n      POP \t\t\t\n      SWAP1 \t\t\t\n      JUMP \t\t\t\n    tag 258\t\t\t\n      JUMPDEST \t\t\t\n      PUSH 0\t\t\t\n      DUP2 \t\t\t\n      PUSH 20\t\t\t\n      ADD \t\t\t\n      CALLDATALOAD \t\t\t\n      PUSH 1\t\t\t\n      PUSH 0\t\t\t\n      DUP5 \t\t\t\n      PUSH 0\t\t\t\n      ADD \t\t\t\n      PUSH 20\t\t\t\n      DUP2 \t\t\t\n      ADD \t\t\t\n      SWAP1 \t\t\t\n      PUSH [tag] 444\t\t\t\n      SWAP2 \t\t\t\n      SWAP1 \t\t\t\n      PUSH [tag] 209\t\t\t\n      JUMP \t\t\t\n    tag 444\t\t\t\n      JUMPDEST \t\t\t\n      PUSH FFFFFFFF\t\t\t\n      AND \t\t\t\n      PUSH FFFFFFFF\t\t\t\n      AND \t\t\t\n      DUP2 \t\t\t\n      MSTORE \t\t\t\n      PUSH 20\t\t\t\n      ADD \t\t\t\n      SWAP1 \t\t\t\n      DUP2 \t\t\t\n      MSTORE \t\t\t\n      PUSH 20\t\t\t\n      ADD \t\t\t\n      PUSH 0\t\t\t\n      KECCAK256 \t\t\t\n      SLOAD \t\t\t\n      EQ \t\t\t\n      SWAP1 \t\t\t\n      POP \t\t\t\n      SWAP2 \t\t\t\n      SWAP1 \t\t\t\n      POP \t\t\t\n      JUMP \t\t\t\n    tag 269\t\t\ty * 10 ** decimals());\\r\\n    ...\n      JUMPDEST \t\t\ty * 10 ** decimals());\\r\\n    ...\n      PUSH 0\t\t\t\n      CALLER \t\t\t\n      SWAP1 \t\t\t\n      POP \t\t\t\n      SWAP1 \t\t\ty * 10 ** decimals());\\r\\n    ...\n      JUMP \t\t\ty * 10 ** decimals());\\r\\n    ...\n    tag 271\t\t\t\n      JUMPDEST \t\t\t\n      PUSH [tag] 447\t\t\t\n      DUP4 \t\t\t\n      DUP4 \t\t\t\n      DUP4 \t\t\t\n      PUSH 1\t\t\t\n      PUSH [tag] 448\t\t\t\n      JUMP \t\t\t\n    tag 447\t\t\t\n      JUMPDEST \t\t\t\n      POP \t\t\t\n      POP \t\t\t\n      POP \t\t\t\n      JUMP \t\t\t\n    tag 294\t\t\t\n      JUMPDEST \t\t\t\n      PUSH 0\t\t\t\n      DUP1 \t\t\t\n      PUSH [tag] 450\t\t\t\n      DUP6 \t\t\t\n      PUSH [tag] 451\t\t\t\n      JUMP \t\t\t\n    tag 450\t\t\t\n      JUMPDEST \t\t\t\n      SWAP2 \t\t\t\n      POP \t\t\t\n      DUP2 \t\t\t\n      SWAP1 \t\t\t\n      POP \t\t\t\n      DUP4 \t\t\t\n      DUP2 \t\t\t\n      LT \t\t\t\n      ISZERO \t\t\t\n      PUSH [tag] 452\t\t\t\n      JUMPI \t\t\t\n      DUP1 \t\t\t\n      DUP5 \t\t\t\n      PUSH 40\t\t\t\n      MLOAD \t\t\t\n      PUSH 71C4EFED00000000000000000000000000000000000000000000000000000000\t\t\t\n      DUP2 \t\t\t\n      MSTORE \t\t\t\n      PUSH 4\t\t\t\n      ADD \t\t\t\n      PUSH [tag] 453\t\t\t\n      SWAP3 \t\t\t\n      SWAP2 \t\t\t\n      SWAP1 \t\t\t\n      PUSH [tag] 454\t\t\t\n      JUMP \t\t\t\n    tag 453\t\t\t\n      JUMPDEST \t\t\t\n      PUSH 40\t\t\t\n      MLOAD \t\t\t\n      DUP1 \t\t\t\n      SWAP2 \t\t\t\n      SUB \t\t\t\n      SWAP1 \t\t\t\n      REVERT \t\t\t\n    tag 452\t\t\t\n      JUMPDEST \t\t\t\n      SWAP4 \t\t\t\n      POP \t\t\t\n      SWAP4 \t\t\t\n      SWAP2 \t\t\t\n      POP \t\t\t\n      POP \t\t\t\n      JUMP \t\t\t\n    tag 300\t\t\t\n      JUMPDEST \t\t\t\n      PUSH 0\t\t\t\n      DUP1 \t\t\t\n      PUSH 1\t\t\t\n      PUSH 0\t\t\t\n      DUP5 \t\t\t\n      PUSH FFFFFFFF\t\t\t\n      AND \t\t\t\n      PUSH FFFFFFFF\t\t\t\n      AND \t\t\t\n      DUP2 \t\t\t\n      MSTORE \t\t\t\n      PUSH 20\t\t\t\n      ADD \t\t\t\n      SWAP1 \t\t\t\n      DUP2 \t\t\t\n      MSTORE \t\t\t\n      PUSH 20\t\t\t\n      ADD \t\t\t\n      PUSH 0\t\t\t\n      KECCAK256 \t\t\t\n      SLOAD \t\t\t\n      SWAP1 \t\t\t\n      POP \t\t\t\n      PUSH 0\t\t\t\n      DUP1 \t\t\t\n      SHL \t\t\t\n      DUP2 \t\t\t\n      SUB \t\t\t\n      PUSH [tag] 456\t\t\t\n      JUMPI \t\t\t\n      DUP3 \t\t\t\n      PUSH 40\t\t\t\n      MLOAD \t\t\t\n      PUSH F6FF4FB700000000000000000000000000000000000000000000000000000000\t\t\t\n      DUP2 \t\t\t\n      MSTORE \t\t\t\n      PUSH 4\t\t\t\n      ADD \t\t\t\n      PUSH [tag] 457\t\t\t\n      SWAP2 \t\t\t\n      SWAP1 \t\t\t\n      PUSH [tag] 458\t\t\t\n      JUMP \t\t\t\n    tag 457\t\t\t\n      JUMPDEST \t\t\t\n      PUSH 40\t\t\t\n      MLOAD \t\t\t\n      DUP1 \t\t\t\n      SWAP2 \t\t\t\n      SUB \t\t\t\n      SWAP1 \t\t\t\n      REVERT \t\t\t\n    tag 456\t\t\t\n      JUMPDEST \t\t\t\n      DUP1 \t\t\t\n      SWAP2 \t\t\t\n      POP \t\t\t\n      POP \t\t\t\n      SWAP2 \t\t\t\n      SWAP1 \t\t\t\n      POP \t\t\t\n      JUMP \t\t\t\n    tag 306\t\t\t\n      JUMPDEST \t\t\t\n      PUSH 0\t\t\t\n      PUSH [tag] 460\t\t\t\n      PUSH [tag] 461\t\t\t\n      DUP8 \t\t\t\n      DUP8 \t\t\t\n      PUSH [tag] 462\t\t\t\n      JUMP \t\t\t\n    tag 461\t\t\t\n      JUMPDEST \t\t\t\n      PUSH [tag] 463\t\t\t\n      JUMP \t\t\t\n    tag 460\t\t\t\n      JUMPDEST \t\t\t\n      SWAP1 \t\t\t\n      POP \t\t\t\n      PUSH 0\t\t\t\n      PUSH [tag] 464\t\t\t\n      DUP3 \t\t\t\n      PUSH [tag] 465\t\t\t\n      PUSH [tag] 466\t\t\t\n      DUP11 \t\t\t\n      DUP11 \t\t\t\n      PUSH [tag] 467\t\t\t\n      JUMP \t\t\t\n    tag 466\t\t\t\n      JUMPDEST \t\t\t\n      PUSH [tag] 468\t\t\t\n      JUMP \t\t\t\n    tag 465\t\t\t\n      JUMPDEST \t\t\t\n      DUP12 \t\t\t\n      PUSH 0\t\t\t\n      ADD \t\t\t\n      PUSH 20\t\t\t\n      DUP2 \t\t\t\n      ADD \t\t\t\n      SWAP1 \t\t\t\n      PUSH [tag] 469\t\t\t\n      SWAP2 \t\t\t\n      SWAP1 \t\t\t\n      PUSH [tag] 209\t\t\t\n      JUMP \t\t\t\n    tag 469\t\t\t\n      JUMPDEST \t\t\t\n      PUSH [tag] 470\t\t\t\n      JUMP \t\t\t\n    tag 464\t\t\t\n      JUMPDEST \t\t\t\n      SWAP1 \t\t\t\n      POP \t\t\t\n      PUSH [tag] 471\t\t\t\n      DUP8 \t\t\t\n      DUP8 \t\t\t\n      PUSH [tag] 472\t\t\t\n      JUMP \t\t\t\n    tag 471\t\t\t\n      JUMPDEST \t\t\t\n      ISZERO \t\t\t\n      PUSH [tag] 473\t\t\t\n      JUMPI \t\t\t\n      PUSH 0\t\t\t\n      PUSH [tag] 474\t\t\t\n      DUP11 \t\t\t\n      PUSH 40\t\t\t\n      ADD \t\t\t\n      PUSH 20\t\t\t\n      DUP2 \t\t\t\n      ADD \t\t\t\n      SWAP1 \t\t\t\n      PUSH [tag] 475\t\t\t\n      SWAP2 \t\t\t\n      SWAP1 \t\t\t\n      PUSH [tag] 476\t\t\t\n      JUMP \t\t\t\n    tag 475\t\t\t\n      JUMPDEST \t\t\t\n      DUP12 \t\t\t\n      PUSH 0\t\t\t\n      ADD \t\t\t\n      PUSH 20\t\t\t\n      DUP2 \t\t\t\n      ADD \t\t\t\n      SWAP1 \t\t\t\n      PUSH [tag] 477\t\t\t\n      SWAP2 \t\t\t\n      SWAP1 \t\t\t\n      PUSH [tag] 209\t\t\t\n      JUMP \t\t\t\n    tag 477\t\t\t\n      JUMPDEST \t\t\t\n      DUP5 \t\t\t\n      PUSH [tag] 478\t\t\t\n      DUP13 \t\t\t\n      DUP13 \t\t\t\n      PUSH [tag] 479\t\t\t\n      JUMP \t\t\t\n    tag 478\t\t\t\n      JUMPDEST \t\t\t\n      PUSH [tag] 480\t\t\t\n      JUMP \t\t\t\n    tag 474\t\t\t\n      JUMPDEST \t\t\t\n      SWAP1 \t\t\t\n      POP \t\t\t\n      PUSHIMMUTABLE 1386\t\t\t\n      PUSH FFFFFFFFFFFFFFFFFFFFFFFFFFFFFFFFFFFFFFFF\t\t\t\n      AND \t\t\t\n      PUSH 7CB59012\t\t\t\n      DUP5 \t\t\t\n      DUP12 \t\t\t\n      PUSH 0\t\t\t\n      DUP6 \t\t\t\n      PUSH 40\t\t\t\n      MLOAD \t\t\t\n      DUP6 \t\t\t\n      PUSH FFFFFFFF\t\t\t\n      AND \t\t\t\n      PUSH E0\t\t\t\n      SHL \t\t\t\n      DUP2 \t\t\t\n      MSTORE \t\t\t\n      PUSH 4\t\t\t\n      ADD \t\t\t\n      PUSH [tag] 481\t\t\t\n      SWAP5 \t\t\t\n      SWAP4 \t\t\t\n      SWAP3 \t\t\t\n      SWAP2 \t\t\t\n      SWAP1 \t\t\t\n      PUSH [tag] 482\t\t\t\n      JUMP \t\t\t\n    tag 481\t\t\t\n      JUMPDEST \t\t\t\n      PUSH 0\t\t\t\n      PUSH 40\t\t\t\n      MLOAD \t\t\t\n      DUP1 \t\t\t\n      DUP4 \t\t\t\n      SUB \t\t\t\n      DUP2 \t\t\t\n      PUSH 0\t\t\t\n      DUP8 \t\t\t\n      DUP1 \t\t\t\n      EXTCODESIZE \t\t\t\n      ISZERO \t\t\t\n      DUP1 \t\t\t\n      ISZERO \t\t\t\n      PUSH [tag] 483\t\t\t\n      JUMPI \t\t\t\n      PUSH 0\t\t\t\n      DUP1 \t\t\t\n      REVERT \t\t\t\n    tag 483\t\t\t\n      JUMPDEST \t\t\t\n      POP \t\t\t\n      GAS \t\t\t\n      CALL \t\t\t\n      ISZERO \t\t\t\n      DUP1 \t\t\t\n      ISZERO \t\t\t\n      PUSH [tag] 485\t\t\t\n      JUMPI \t\t\t\n      RETURNDATASIZE \t\t\t\n      PUSH 0\t\t\t\n      DUP1 \t\t\t\n      RETURNDATACOPY \t\t\t\n      RETURNDATASIZE \t\t\t\n      PUSH 0\t\t\t\n      REVERT \t\t\t\n    tag 485\t\t\t\n      JUMPDEST \t\t\t\n      POP \t\t\t\n      POP \t\t\t\n      POP \t\t\t\n      POP \t\t\t\n      POP \t\t\t\n    tag 473\t\t\t\n      JUMPDEST \t\t\t\n      DUP2 \t\t\t\n      PUSH FFFFFFFFFFFFFFFFFFFFFFFFFFFFFFFFFFFFFFFF\t\t\t\n      AND \t\t\t\n      DUP9 \t\t\t\n      PUSH EFED6D3500546B29533B128A29E3A94D70788727F0507505AC12EAF2E578FD9C\t\t\t\n      DUP12 \t\t\t\n      PUSH 0\t\t\t\n      ADD \t\t\t\n      PUSH 20\t\t\t\n      DUP2 \t\t\t\n      ADD \t\t\t\n      SWAP1 \t\t\t\n      PUSH [tag] 486\t\t\t\n      SWAP2 \t\t\t\n      SWAP1 \t\t\t\n      PUSH [tag] 209\t\t\t\n      JUMP \t\t\t\n    tag 486\t\t\t\n      JUMPDEST \t\t\t\n      DUP5 \t\t\t\n      PUSH 40\t\t\t\n      MLOAD \t\t\t\n      PUSH [tag] 487\t\t\t\n      SWAP3 \t\t\t\n      SWAP2 \t\t\t\n      SWAP1 \t\t\t\n      PUSH [tag] 488\t\t\t\n      JUMP \t\t\t\n    tag 487\t\t\t\n      JUMPDEST \t\t\t\n      PUSH 40\t\t\t\n      MLOAD \t\t\t\n      DUP1 \t\t\t\n      SWAP2 \t\t\t\n      SUB \t\t\t\n      SWAP1 \t\t\t\n      LOG3 \t\t\t\n      POP \t\t\t\n      POP \t\t\t\n      POP \t\t\t\n      POP \t\t\t\n      POP \t\t\t\n      POP \t\t\t\n      POP \t\t\t\n      POP \t\t\t\n      POP \t\t\t\n      JUMP \t\t\t\n    tag 313\t\t\t\n      JUMPDEST \t\t\t\n      PUSH 0\t\t\t\n      PUSH [tag] 490\t\t\t\n      DUP5 \t\t\t\n      DUP5 \t\t\t\n      PUSH [tag] 244\t\t\t\n      JUMP \t\t\t\n    tag 490\t\t\t\n      JUMPDEST \t\t\t\n      SWAP1 \t\t\t\n      POP \t\t\t\n      PUSH FFFFFFFFFFFFFFFFFFFFFFFFFFFFFFFFFFFFFFFFFFFFFFFFFFFFFFFFFFFFFFFF\t\t\t\n      DUP2 \t\t\t\n      LT \t\t\t\n      ISZERO \t\t\t\n      PUSH [tag] 491\t\t\t\n      JUMPI \t\t\t\n      DUP2 \t\t\t\n      DUP2 \t\t\t\n      LT \t\t\t\n      ISZERO \t\t\t\n      PUSH [tag] 492\t\t\t\n      JUMPI \t\t\t\n      DUP3 \t\t\t\n      DUP2 \t\t\t\n      DUP4 \t\t\t\n      PUSH 40\t\t\t\n      MLOAD \t\t\t\n      PUSH FB8F41B200000000000000000000000000000000000000000000000000000000\t\t\t\n      DUP2 \t\t\t\n      MSTORE \t\t\t\n      PUSH 4\t\t\t\n      ADD \t\t\t\n      PUSH [tag] 493\t\t\t\n      SWAP4 \t\t\t\n      SWAP3 \t\t\t\n      SWAP2 \t\t\t\n      SWAP1 \t\t\t\n      PUSH [tag] 494\t\t\t\n      JUMP \t\t\t\n    tag 493\t\t\t\n      JUMPDEST \t\t\t\n      PUSH 40\t\t\t\n      MLOAD \t\t\t\n      DUP1 \t\t\t\n      SWAP2 \t\t\t\n      SUB \t\t\t\n      SWAP1 \t\t\t\n      REVERT \t\t\t\n    tag 492\t\t\t\n      JUMPDEST \t\t\t\n      PUSH [tag] 495\t\t\t\n      DUP5 \t\t\t\n      DUP5 \t\t\t\n      DUP5 \t\t\t\n      DUP5 \t\t\t\n      SUB \t\t\t\n      PUSH 0\t\t\t\n      PUSH [tag] 448\t\t\t\n      JUMP \t\t\t\n    tag 495\t\t\t\n      JUMPDEST \t\t\t\n    tag 491\t\t\t\n      JUMPDEST \t\t\t\n      POP \t\t\t\n      POP \t\t\t\n      POP \t\t\t\n      POP \t\t\t\n      JUMP \t\t\t\n    tag 315\t\t\t\n      JUMPDEST \t\t\t\n      PUSH 0\t\t\t\n      PUSH FFFFFFFFFFFFFFFFFFFFFFFFFFFFFFFFFFFFFFFF\t\t\t\n      AND \t\t\t\n      DUP4 \t\t\t\n      PUSH FFFFFFFFFFFFFFFFFFFFFFFFFFFFFFFFFFFFFFFF\t\t\t\n      AND \t\t\t\n      SUB \t\t\t\n      PUSH [tag] 497\t\t\t\n      JUMPI \t\t\t\n      PUSH 0\t\t\t\n      PUSH 40\t\t\t\n      MLOAD \t\t\t\n      PUSH 96C6FD1E00000000000000000000000000000000000000000000000000000000\t\t\t\n      DUP2 \t\t\t\n      MSTORE \t\t\t\n      PUSH 4\t\t\t\n      ADD \t\t\t\n      PUSH [tag] 498\t\t\t\n      SWAP2 \t\t\t\n      SWAP1 \t\t\t\n      PUSH [tag] 74\t\t\t\n      JUMP \t\t\t\n    tag 498\t\t\t\n      JUMPDEST \t\t\t\n      PUSH 40\t\t\t\n      MLOAD \t\t\t\n      DUP1 \t\t\t\n      SWAP2 \t\t\t\n      SUB \t\t\t\n      SWAP1 \t\t\t\n      REVERT \t\t\t\n    tag 497\t\t\t\n      JUMPDEST \t\t\t\n      PUSH 0\t\t\t\n      PUSH FFFFFFFFFFFFFFFFFFFFFFFFFFFFFFFFFFFFFFFF\t\t\t\n      AND \t\t\t\n      DUP3 \t\t\t\n      PUSH FFFFFFFFFFFFFFFFFFFFFFFFFFFFFFFFFFFFFFFF\t\t\t\n      AND \t\t\t\n      SUB \t\t\t\n      PUSH [tag] 499\t\t\t\n      JUMPI \t\t\t\n      PUSH 0\t\t\t\n      PUSH 40\t\t\t\n      MLOAD \t\t\t\n      PUSH EC442F0500000000000000000000000000000000000000000000000000000000\t\t\t\n      DUP2 \t\t\t\n      MSTORE \t\t\t\n      PUSH 4\t\t\t\n      ADD \t\t\t\n      PUSH [tag] 500\t\t\t\n      SWAP2 \t\t\t\n      SWAP1 \t\t\t\n      PUSH [tag] 74\t\t\t\n      JUMP \t\t\t\n    tag 500\t\t\t\n      JUMPDEST \t\t\t\n      PUSH 40\t\t\t\n      MLOAD \t\t\t\n      DUP1 \t\t\t\n      SWAP2 \t\t\t\n      SUB \t\t\t\n      SWAP1 \t\t\t\n      REVERT \t\t\t\n    tag 499\t\t\t\n      JUMPDEST \t\t\t\n      PUSH [tag] 501\t\t\t\n      DUP4 \t\t\t\n      DUP4 \t\t\t\n      DUP4 \t\t\t\n      PUSH [tag] 502\t\t\t\n      JUMP \t\t\t\n    tag 501\t\t\t\n      JUMPDEST \t\t\t\n      POP \t\t\t\n      POP \t\t\t\n      POP \t\t\t\n      JUMP \t\t\t\n    tag 319\t\t\t\n      JUMPDEST \t\t\t\n      PUSH [tag] 504\t\t\t\n      PUSH [tag] 269\t\t\t\n      JUMP \t\t\t\n    tag 504\t\t\t\n      JUMPDEST \t\t\t\n      PUSH FFFFFFFFFFFFFFFFFFFFFFFFFFFFFFFFFFFFFFFF\t\t\t\n      AND \t\t\t\n      PUSH [tag] 505\t\t\t\n      PUSH [tag] 178\t\t\t\n      JUMP \t\t\t\n    tag 505\t\t\t\n      JUMPDEST \t\t\t\n      PUSH FFFFFFFFFFFFFFFFFFFFFFFFFFFFFFFFFFFFFFFF\t\t\t\n      AND \t\t\t\n      EQ \t\t\t\n      PUSH [tag] 506\t\t\t\n      JUMPI \t\t\t\n      PUSH [tag] 507\t\t\t\n      PUSH [tag] 269\t\t\t\n      JUMP \t\t\t\n    tag 507\t\t\t\n      JUMPDEST \t\t\t\n      PUSH 40\t\t\t\n      MLOAD \t\t\t\n      PUSH 118CDAA700000000000000000000000000000000000000000000000000000000\t\t\t\n      DUP2 \t\t\t\n      MSTORE \t\t\t\n      PUSH 4\t\t\t\n      ADD \t\t\t\n      PUSH [tag] 508\t\t\t\n      SWAP2 \t\t\t\n      SWAP1 \t\t\t\n      PUSH [tag] 74\t\t\t\n      JUMP \t\t\t\n    tag 508\t\t\t\n      JUMPDEST \t\t\t\n      PUSH 40\t\t\t\n      MLOAD \t\t\t\n      DUP1 \t\t\t\n      SWAP2 \t\t\t\n      SUB \t\t\t\n      SWAP1 \t\t\t\n      REVERT \t\t\t\n    tag 506\t\t\t\n      JUMPDEST \t\t\t\n      JUMP \t\t\t\n    tag 322\t\t\t\n      JUMPDEST \t\t\t\n      DUP1 \t\t\t\n      PUSH 1\t\t\t\n      PUSH 0\t\t\t\n      DUP5 \t\t\t\n      PUSH FFFFFFFF\t\t\t\n      AND \t\t\t\n      PUSH FFFFFFFF\t\t\t\n      AND \t\t\t\n      DUP2 \t\t\t\n      MSTORE \t\t\t\n      PUSH 20\t\t\t\n      ADD \t\t\t\n      SWAP1 \t\t\t\n      DUP2 \t\t\t\n      MSTORE \t\t\t\n      PUSH 20\t\t\t\n      ADD \t\t\t\n      PUSH 0\t\t\t\n      KECCAK256 \t\t\t\n      DUP2 \t\t\t\n      SWAP1 \t\t\t\n      SSTORE \t\t\t\n      POP \t\t\t\n      PUSH 238399D427B947898EDB290F5FF0F9109849B1C3BA196A42E35F00C50A54B98B\t\t\t\n      DUP3 \t\t\t\n      DUP3 \t\t\t\n      PUSH 40\t\t\t\n      MLOAD \t\t\t\n      PUSH [tag] 510\t\t\t\n      SWAP3 \t\t\t\n      SWAP2 \t\t\t\n      SWAP1 \t\t\t\n      PUSH [tag] 304\t\t\t\n      JUMP \t\t\t\n    tag 510\t\t\t\n      JUMPDEST \t\t\t\n      PUSH 40\t\t\t\n      MLOAD \t\t\t\n      DUP1 \t\t\t\n      SWAP2 \t\t\t\n      SUB \t\t\t\n      SWAP1 \t\t\t\n      LOG1 \t\t\t\n      POP \t\t\t\n      POP \t\t\t\n      JUMP \t\t\t\n    tag 329\t\t\t\n      JUMPDEST \t\t\t\n      PUSH 60\t\t\t\n      DUP1 \t\t\t\n      PUSH 0\t\t\t\n      PUSH [tag] 512\t\t\t\n      DUP6 \t\t\t\n      PUSH 20\t\t\t\n      ADD \t\t\t\n      CALLDATALOAD \t\t\t\n      PUSH [tag] 513\t\t\t\n      DUP7 \t\t\t\n      PUSH [tag] 514\t\t\t\n      JUMP \t\t\t\n    tag 513\t\t\t\n      JUMPDEST \t\t\t\n      DUP8 \t\t\t\n      DUP1 \t\t\t\n      PUSH A0\t\t\t\n      ADD \t\t\t\n      SWAP1 \t\t\t\n      PUSH [tag] 515\t\t\t\n      SWAP2 \t\t\t\n      SWAP1 \t\t\t\n      PUSH [tag] 401\t\t\t\n      JUMP \t\t\t\n    tag 515\t\t\t\n      JUMPDEST \t\t\t\n      DUP1 \t\t\t\n      DUP1 \t\t\t\n      PUSH 1F\t\t\t\n      ADD \t\t\t\n      PUSH 20\t\t\t\n      DUP1 \t\t\t\n      SWAP2 \t\t\t\n      DIV \t\t\t\n      MUL \t\t\t\n      PUSH 20\t\t\t\n      ADD \t\t\t\n      PUSH 40\t\t\t\n      MLOAD \t\t\t\n      SWAP1 \t\t\t\n      DUP2 \t\t\t\n      ADD \t\t\t\n      PUSH 40\t\t\t\n      MSTORE \t\t\t\n      DUP1 \t\t\t\n      SWAP4 \t\t\t\n      SWAP3 \t\t\t\n      SWAP2 \t\t\t\n      SWAP1 \t\t\t\n      DUP2 \t\t\t\n      DUP2 \t\t\t\n      MSTORE \t\t\t\n      PUSH 20\t\t\t\n      ADD \t\t\t\n      DUP4 \t\t\t\n      DUP4 \t\t\t\n      DUP1 \t\t\t\n      DUP3 \t\t\t\n      DUP5 \t\t\t\n      CALLDATACOPY \t\t\t\n      PUSH 0\t\t\t\n      DUP2 \t\t\t\n      DUP5 \t\t\t\n      ADD \t\t\t\n      MSTORE \t\t\t\n      PUSH 1F\t\t\t\n      NOT \t\t\t\n      PUSH 1F\t\t\t\n      DUP3 \t\t\t\n      ADD \t\t\t\n      AND \t\t\t\n      SWAP1 \t\t\t\n      POP \t\t\t\n      DUP1 \t\t\t\n      DUP4 \t\t\t\n      ADD \t\t\t\n      SWAP3 \t\t\t\n      POP \t\t\t\n      POP \t\t\t\n      POP \t\t\t\n      POP \t\t\t\n      POP \t\t\t\n      POP \t\t\t\n      POP \t\t\t\n      PUSH [tag] 516\t\t\t\n      JUMP \t\t\t\n    tag 512\t\t\t\n      JUMPDEST \t\t\t\n      DUP1 \t\t\t\n      SWAP3 \t\t\t\n      POP \t\t\t\n      DUP2 \t\t\t\n      SWAP5 \t\t\t\n      POP \t\t\t\n      POP \t\t\t\n      POP \t\t\t\n      PUSH 0\t\t\t\n      DUP2 \t\t\t\n      PUSH [tag] 517\t\t\t\n      JUMPI \t\t\t\n      PUSH 1\t\t\t\n      PUSH [tag] 518\t\t\t\n      JUMP \t\t\t\n    tag 517\t\t\t\n      JUMPDEST \t\t\t\n      PUSH 2\t\t\t\n    tag 518\t\t\t\n      JUMPDEST \t\t\t\n      SWAP1 \t\t\t\n      POP \t\t\t\n      PUSH [tag] 519\t\t\t\n      DUP7 \t\t\t\n      PUSH 0\t\t\t\n      ADD \t\t\t\n      PUSH 20\t\t\t\n      DUP2 \t\t\t\n      ADD \t\t\t\n      SWAP1 \t\t\t\n      PUSH [tag] 520\t\t\t\n      SWAP2 \t\t\t\n      SWAP1 \t\t\t\n      PUSH [tag] 209\t\t\t\n      JUMP \t\t\t\n    tag 520\t\t\t\n      JUMPDEST \t\t\t\n      DUP3 \t\t\t\n      DUP9 \t\t\t\n      DUP1 \t\t\t\n      PUSH 80\t\t\t\n      ADD \t\t\t\n      SWAP1 \t\t\t\n      PUSH [tag] 521\t\t\t\n      SWAP2 \t\t\t\n      SWAP1 \t\t\t\n      PUSH [tag] 401\t\t\t\n      JUMP \t\t\t\n    tag 521\t\t\t\n      JUMPDEST \t\t\t\n      PUSH [tag] 217\t\t\t\n      JUMP \t\t\t\n    tag 519\t\t\t\n      JUMPDEST \t\t\t\n      SWAP3 \t\t\t\n      POP \t\t\t\n      PUSH 0\t\t\t\n      PUSH 4\t\t\t\n      PUSH 0\t\t\t\n      SWAP1 \t\t\t\n      SLOAD \t\t\t\n      SWAP1 \t\t\t\n      PUSH 100\t\t\t\n      EXP \t\t\t\n      SWAP1 \t\t\t\n      DIV \t\t\t\n      PUSH FFFFFFFFFFFFFFFFFFFFFFFFFFFFFFFFFFFFFFFF\t\t\t\n      AND \t\t\t\n      SWAP1 \t\t\t\n      POP \t\t\t\n      PUSH 0\t\t\t\n      PUSH FFFFFFFFFFFFFFFFFFFFFFFFFFFFFFFFFFFFFFFF\t\t\t\n      AND \t\t\t\n      DUP2 \t\t\t\n      PUSH FFFFFFFFFFFFFFFFFFFFFFFFFFFFFFFFFFFFFFFF\t\t\t\n      AND \t\t\t\n      EQ \t\t\t\n      PUSH [tag] 522\t\t\t\n      JUMPI \t\t\t\n      DUP1 \t\t\t\n      PUSH FFFFFFFFFFFFFFFFFFFFFFFFFFFFFFFFFFFFFFFF\t\t\t\n      AND \t\t\t\n      PUSH 43A78EB\t\t\t\n      DUP7 \t\t\t\n      DUP7 \t\t\t\n      PUSH 40\t\t\t\n      MLOAD \t\t\t\n      DUP4 \t\t\t\n      PUSH FFFFFFFF\t\t\t\n      AND \t\t\t\n      PUSH E0\t\t\t\n      SHL \t\t\t\n      DUP2 \t\t\t\n      MSTORE \t\t\t\n      PUSH 4\t\t\t\n      ADD \t\t\t\n      PUSH [tag] 523\t\t\t\n      SWAP3 \t\t\t\n      SWAP2 \t\t\t\n      SWAP1 \t\t\t\n      PUSH [tag] 524\t\t\t\n      JUMP \t\t\t\n    tag 523\t\t\t\n      JUMPDEST \t\t\t\n      PUSH 20\t\t\t\n      PUSH 40\t\t\t\n      MLOAD \t\t\t\n      DUP1 \t\t\t\n      DUP4 \t\t\t\n      SUB \t\t\t\n      DUP2 \t\t\t\n      DUP7 \t\t\t\n      GAS \t\t\t\n      STATICCALL \t\t\t\n      ISZERO \t\t\t\n      DUP1 \t\t\t\n      ISZERO \t\t\t\n      PUSH [tag] 526\t\t\t\n      JUMPI \t\t\t\n      RETURNDATASIZE \t\t\t\n      PUSH 0\t\t\t\n      DUP1 \t\t\t\n      RETURNDATACOPY \t\t\t\n      RETURNDATASIZE \t\t\t\n      PUSH 0\t\t\t\n      REVERT \t\t\t\n    tag 526\t\t\t\n      JUMPDEST \t\t\t\n      POP \t\t\t\n      POP \t\t\t\n      POP \t\t\t\n      POP \t\t\t\n      PUSH 40\t\t\t\n      MLOAD \t\t\t\n      RETURNDATASIZE \t\t\t\n      PUSH 1F\t\t\t\n      NOT \t\t\t\n      PUSH 1F\t\t\t\n      DUP3 \t\t\t\n      ADD \t\t\t\n      AND \t\t\t\n      DUP3 \t\t\t\n      ADD \t\t\t\n      DUP1 \t\t\t\n      PUSH 40\t\t\t\n      MSTORE \t\t\t\n      POP \t\t\t\n      DUP2 \t\t\t\n      ADD \t\t\t\n      SWAP1 \t\t\t\n      PUSH [tag] 527\t\t\t\n      SWAP2 \t\t\t\n      SWAP1 \t\t\t\n      PUSH [tag] 528\t\t\t\n      JUMP \t\t\t\n    tag 527\t\t\t\n      JUMPDEST \t\t\t\n      POP \t\t\t\n    tag 522\t\t\t\n      JUMPDEST \t\t\t\n      POP \t\t\t\n      POP \t\t\t\n      POP \t\t\t\n      SWAP3 \t\t\t\n      POP \t\t\t\n      SWAP3 \t\t\t\n      SWAP1 \t\t\t\n      POP \t\t\t\n      JUMP \t\t\t\n    tag 332\t\t\t\n      JUMPDEST \t\t\t\n      PUSH [tag] 529\t\t\t\n      PUSH [tag] 324\t\t\t\n      JUMP \t\t\t\n    tag 529\t\t\t\n      JUMPDEST \t\t\t\n      PUSHIMMUTABLE 1386\t\t\t\n      PUSH FFFFFFFFFFFFFFFFFFFFFFFFFFFFFFFFFFFFFFFF\t\t\t\n      AND \t\t\t\n      PUSH DDC28C58\t\t\t\n      PUSH 40\t\t\t\n      MLOAD \t\t\t\n      DUP1 \t\t\t\n      PUSH A0\t\t\t\n      ADD \t\t\t\n      PUSH 40\t\t\t\n      MSTORE \t\t\t\n      DUP1 \t\t\t\n      DUP9 \t\t\t\n      PUSH FFFFFFFF\t\t\t\n      AND \t\t\t\n      DUP2 \t\t\t\n      MSTORE \t\t\t\n      PUSH 20\t\t\t\n      ADD \t\t\t\n      PUSH [tag] 531\t\t\t\n      DUP10 \t\t\t\n      PUSH [tag] 300\t\t\t\n      JUMP \t\t\t\n    tag 531\t\t\t\n      JUMPDEST \t\t\t\n      DUP2 \t\t\t\n      MSTORE \t\t\t\n      PUSH 20\t\t\t\n      ADD \t\t\t\n      DUP8 \t\t\t\n      DUP2 \t\t\t\n      MSTORE \t\t\t\n      PUSH 20\t\t\t\n      ADD \t\t\t\n      DUP7 \t\t\t\n      DUP2 \t\t\t\n      MSTORE \t\t\t\n      PUSH 20\t\t\t\n      ADD \t\t\t\n      DUP6 \t\t\t\n      ISZERO \t\t\t\n      ISZERO \t\t\t\n      DUP2 \t\t\t\n      MSTORE \t\t\t\n      POP \t\t\t\n      ADDRESS \t\t\t\n      PUSH 40\t\t\t\n      MLOAD \t\t\t\n      DUP4 \t\t\t\n      PUSH FFFFFFFF\t\t\t\n      AND \t\t\t\n      PUSH E0\t\t\t\n      SHL \t\t\t\n      DUP2 \t\t\t\n      MSTORE \t\t\t\n      PUSH 4\t\t\t\n      ADD \t\t\t\n      PUSH [tag] 532\t\t\t\n      SWAP3 \t\t\t\n      SWAP2 \t\t\t\n      SWAP1 \t\t\t\n      PUSH [tag] 533\t\t\t\n      JUMP \t\t\t\n    tag 532\t\t\t\n      JUMPDEST \t\t\t\n      PUSH 40\t\t\t\n      DUP1 \t\t\t\n      MLOAD \t\t\t\n      DUP1 \t\t\t\n      DUP4 \t\t\t\n      SUB \t\t\t\n      DUP2 \t\t\t\n      DUP7 \t\t\t\n      GAS \t\t\t\n      STATICCALL \t\t\t\n      ISZERO \t\t\t\n      DUP1 \t\t\t\n      ISZERO \t\t\t\n      PUSH [tag] 535\t\t\t\n      JUMPI \t\t\t\n      RETURNDATASIZE \t\t\t\n      PUSH 0\t\t\t\n      DUP1 \t\t\t\n      RETURNDATACOPY \t\t\t\n      RETURNDATASIZE \t\t\t\n      PUSH 0\t\t\t\n      REVERT \t\t\t\n    tag 535\t\t\t\n      JUMPDEST \t\t\t\n      POP \t\t\t\n      POP \t\t\t\n      POP \t\t\t\n      POP \t\t\t\n      PUSH 40\t\t\t\n      MLOAD \t\t\t\n      RETURNDATASIZE \t\t\t\n      PUSH 1F\t\t\t\n      NOT \t\t\t\n      PUSH 1F\t\t\t\n      DUP3 \t\t\t\n      ADD \t\t\t\n      AND \t\t\t\n      DUP3 \t\t\t\n      ADD \t\t\t\n      DUP1 \t\t\t\n      PUSH 40\t\t\t\n      MSTORE \t\t\t\n      POP \t\t\t\n      DUP2 \t\t\t\n      ADD \t\t\t\n      SWAP1 \t\t\t\n      PUSH [tag] 536\t\t\t\n      SWAP2 \t\t\t\n      SWAP1 \t\t\t\n      PUSH [tag] 537\t\t\t\n      JUMP \t\t\t\n    tag 536\t\t\t\n      JUMPDEST \t\t\t\n      SWAP1 \t\t\t\n      POP \t\t\t\n      SWAP5 \t\t\t\n      SWAP4 \t\t\t\n      POP \t\t\t\n      POP \t\t\t\n      POP \t\t\t\n      POP \t\t\t\n      JUMP \t\t\t\n    tag 349\t\t\t\n      JUMPDEST \t\t\t\n      PUSH 0\t\t\t\n      DUP1 \t\t\t\n      PUSH 0\t\t\t\n      SWAP1 \t\t\t\n      SLOAD \t\t\t\n      SWAP1 \t\t\t\n      PUSH 100\t\t\t\n      EXP \t\t\t\n      SWAP1 \t\t\t\n      DIV \t\t\t\n      PUSH FFFFFFFFFFFFFFFFFFFFFFFFFFFFFFFFFFFFFFFF\t\t\t\n      AND \t\t\t\n      SWAP1 \t\t\t\n      POP \t\t\t\n      DUP2 \t\t\t\n      PUSH 0\t\t\t\n      DUP1 \t\t\t\n      PUSH 100\t\t\t\n      EXP \t\t\t\n      DUP2 \t\t\t\n      SLOAD \t\t\t\n      DUP2 \t\t\t\n      PUSH FFFFFFFFFFFFFFFFFFFFFFFFFFFFFFFFFFFFFFFF\t\t\t\n      MUL \t\t\t\n      NOT \t\t\t\n      AND \t\t\t\n      SWAP1 \t\t\t\n      DUP4 \t\t\t\n      PUSH FFFFFFFFFFFFFFFFFFFFFFFFFFFFFFFFFFFFFFFF\t\t\t\n      AND \t\t\t\n      MUL \t\t\t\n      OR \t\t\t\n      SWAP1 \t\t\t\n      SSTORE \t\t\t\n      POP \t\t\t\n      DUP2 \t\t\t\n      PUSH FFFFFFFFFFFFFFFFFFFFFFFFFFFFFFFFFFFFFFFF\t\t\t\n      AND \t\t\t\n      DUP2 \t\t\t\n      PUSH FFFFFFFFFFFFFFFFFFFFFFFFFFFFFFFFFFFFFFFF\t\t\t\n      AND \t\t\t\n      PUSH 8BE0079C531659141344CD1FD0A4F28419497F9722A3DAAFE3B4186F6B6457E0\t\t\t\n      PUSH 40\t\t\t\n      MLOAD \t\t\t\n      PUSH 40\t\t\t\n      MLOAD \t\t\t\n      DUP1 \t\t\t\n      SWAP2 \t\t\t\n      SUB \t\t\t\n      SWAP1 \t\t\t\n      LOG3 \t\t\t\n      POP \t\t\t\n      POP \t\t\t\n      JUMP \t\t\t\n    tag 370\t\t\t\n      JUMPDEST \t\t\t\n      PUSH 0\t\t\t\n    tag 540\t\t\t\n      JUMPDEST \t\t\t\n      DUP2 \t\t\t\n      MLOAD \t\t\t\n      DUP2 \t\t\t\n      LT \t\t\t\n      ISZERO \t\t\t\n      PUSH [tag] 541\t\t\t\n      JUMPI \t\t\t\n      PUSH [tag] 543\t\t\t\n      DUP3 \t\t\t\n      DUP3 \t\t\t\n      DUP2 \t\t\t\n      MLOAD \t\t\t\n      DUP2 \t\t\t\n      LT \t\t\t\n      PUSH [tag] 544\t\t\t\n      JUMPI \t\t\t\n      PUSH [tag] 545\t\t\t\n      PUSH [tag] 394\t\t\t\n      JUMP \t\t\t\n    tag 545\t\t\t\n      JUMPDEST \t\t\t\n    tag 544\t\t\t\n      JUMPDEST \t\t\t\n      PUSH 20\t\t\t\n      MUL \t\t\t\n      PUSH 20\t\t\t\n      ADD \t\t\t\n      ADD \t\t\t\n      MLOAD \t\t\t\n      PUSH 40\t\t\t\n      ADD \t\t\t\n      MLOAD \t\t\t\n      PUSH [tag] 381\t\t\t\n      JUMP \t\t\t\n    tag 543\t\t\t\n      JUMPDEST \t\t\t\n      DUP2 \t\t\t\n      DUP2 \t\t\t\n      DUP2 \t\t\t\n      MLOAD \t\t\t\n      DUP2 \t\t\t\n      LT \t\t\t\n      PUSH [tag] 546\t\t\t\n      JUMPI \t\t\t\n      PUSH [tag] 547\t\t\t\n      PUSH [tag] 394\t\t\t\n      JUMP \t\t\t\n    tag 547\t\t\t\n      JUMPDEST \t\t\t\n    tag 546\t\t\t\n      JUMPDEST \t\t\t\n      PUSH 20\t\t\t\n      MUL \t\t\t\n      PUSH 20\t\t\t\n      ADD \t\t\t\n      ADD \t\t\t\n      MLOAD \t\t\t\n      PUSH 40\t\t\t\n      ADD \t\t\t\n      MLOAD \t\t\t\n      PUSH 3\t\t\t\n      PUSH 0\t\t\t\n      DUP5 \t\t\t\n      DUP5 \t\t\t\n      DUP2 \t\t\t\n      MLOAD \t\t\t\n      DUP2 \t\t\t\n      LT \t\t\t\n      PUSH [tag] 548\t\t\t\n      JUMPI \t\t\t\n      PUSH [tag] 549\t\t\t\n      PUSH [tag] 394\t\t\t\n      JUMP \t\t\t\n    tag 549\t\t\t\n      JUMPDEST \t\t\t\n    tag 548\t\t\t\n      JUMPDEST \t\t\t\n      PUSH 20\t\t\t\n      MUL \t\t\t\n      PUSH 20\t\t\t\n      ADD \t\t\t\n      ADD \t\t\t\n      MLOAD \t\t\t\n      PUSH 0\t\t\t\n      ADD \t\t\t\n      MLOAD \t\t\t\n      PUSH FFFFFFFF\t\t\t\n      AND \t\t\t\n      PUSH FFFFFFFF\t\t\t\n      AND \t\t\t\n      DUP2 \t\t\t\n      MSTORE \t\t\t\n      PUSH 20\t\t\t\n      ADD \t\t\t\n      SWAP1 \t\t\t\n      DUP2 \t\t\t\n      MSTORE \t\t\t\n      PUSH 20\t\t\t\n      ADD \t\t\t\n      PUSH 0\t\t\t\n      KECCAK256 \t\t\t\n      PUSH 0\t\t\t\n      DUP5 \t\t\t\n      DUP5 \t\t\t\n      DUP2 \t\t\t\n      MLOAD \t\t\t\n      DUP2 \t\t\t\n      LT \t\t\t\n      PUSH [tag] 550\t\t\t\n      JUMPI \t\t\t\n      PUSH [tag] 551\t\t\t\n      PUSH [tag] 394\t\t\t\n      JUMP \t\t\t\n    tag 551\t\t\t\n      JUMPDEST \t\t\t\n    tag 550\t\t\t\n      JUMPDEST \t\t\t\n      PUSH 20\t\t\t\n      MUL \t\t\t\n      PUSH 20\t\t\t\n      ADD \t\t\t\n      ADD \t\t\t\n      MLOAD \t\t\t\n      PUSH 20\t\t\t\n      ADD \t\t\t\n      MLOAD \t\t\t\n      PUSH FFFF\t\t\t\n      AND \t\t\t\n      PUSH FFFF\t\t\t\n      AND \t\t\t\n      DUP2 \t\t\t\n      MSTORE \t\t\t\n      PUSH 20\t\t\t\n      ADD \t\t\t\n      SWAP1 \t\t\t\n      DUP2 \t\t\t\n      MSTORE \t\t\t\n      PUSH 20\t\t\t\n      ADD \t\t\t\n      PUSH 0\t\t\t\n      KECCAK256 \t\t\t\n      SWAP1 \t\t\t\n      DUP2 \t\t\t\n      PUSH [tag] 552\t\t\t\n      SWAP2 \t\t\t\n      SWAP1 \t\t\t\n      PUSH [tag] 553\t\t\t\n      JUMP \t\t\t\n    tag 552\t\t\t\n      JUMPDEST \t\t\t\n      POP \t\t\t\n      DUP1 \t\t\t\n      DUP1 \t\t\t\n      PUSH 1\t\t\t\n      ADD \t\t\t\n      SWAP2 \t\t\t\n      POP \t\t\t\n      POP \t\t\t\n      PUSH [tag] 540\t\t\t\n      JUMP \t\t\t\n    tag 541\t\t\t\n      JUMPDEST \t\t\t\n      POP \t\t\t\n      PUSH BE4864A8E820971C0247F5992E2DA559595F7BF076A21CB5928D443D2A13B674\t\t\t\n      DUP2 \t\t\t\n      PUSH 40\t\t\t\n      MLOAD \t\t\t\n      PUSH [tag] 554\t\t\t\n      SWAP2 \t\t\t\n      SWAP1 \t\t\t\n      PUSH [tag] 555\t\t\t\n      JUMP \t\t\t\n    tag 554\t\t\t\n      JUMPDEST \t\t\t\n      PUSH 40\t\t\t\n      MLOAD \t\t\t\n      DUP1 \t\t\t\n      SWAP2 \t\t\t\n      SUB \t\t\t\n      SWAP1 \t\t\t\n      LOG1 \t\t\t\n      POP \t\t\t\n      JUMP \t\t\t\n    tag 381\t\t\t\n      JUMPDEST \t\t\t\n      PUSH 0\t\t\t\n      PUSH 2\t\t\t\n      DUP3 \t\t\t\n      ADD \t\t\t\n      MLOAD \t\t\t\n      SWAP1 \t\t\t\n      POP \t\t\t\n      PUSH 3\t\t\t \n      PUSH FFFF\t\t\t\n      AND \t\t\t\n      DUP2 \t\t\t\n      PUSH FFFF\t\t\t\n      AND \t\t\t\n      EQ \t\t\t\n      PUSH [tag] 557\t\t\t\n      JUMPI \t\t\t\n      DUP2 \t\t\t\n      PUSH 40\t\t\t\n      MLOAD \t\t\t\n      PUSH 9A6D49CD00000000000000000000000000000000000000000000000000000000\t\t\t\n      DUP2 \t\t\t\n      MSTORE \t\t\t\n      PUSH 4\t\t\t\n      ADD \t\t\t\n      PUSH [tag] 558\t\t\t\n      SWAP2 \t\t\t\n      SWAP1 \t\t\t\n      PUSH [tag] 136\t\t\t\n      JUMP \t\t\t\n    tag 558\t\t\t\n      JUMPDEST \t\t\t\n      PUSH 40\t\t\t\n      MLOAD \t\t\t\n      DUP1 \t\t\t\n      SWAP2 \t\t\t\n      SUB \t\t\t\n      SWAP1 \t\t\t\n      REVERT \t\t\t\n    tag 557\t\t\t\n      JUMPDEST \t\t\t\n      POP \t\t\t\n      POP \t\t\t\n      JUMP \t\t\t\n    tag 419\t\t\t\n      JUMPDEST \t\t\t\n      PUSH [tag] 559\t\t\t\n      PUSH [tag] 415\t\t\t\n      JUMP \t\t\t\n    tag 559\t\t\t\n      JUMPDEST \t\t\t\n      PUSH [tag] 560\t\t\t\n      PUSH [tag] 275\t\t\t\n      JUMP \t\t\t\n    tag 560\t\t\t\n      JUMPDEST \t\t\t\n      PUSH 0\t\t\t\n      DUP1 \t\t\t\n      PUSH [tag] 562\t\t\t\n      CALLER \t\t\t\n      DUP9 \t\t\t\n      PUSH 40\t\t\t\n      ADD \t\t\t\n      CALLDATALOAD \t\t\t\n      DUP10 \t\t\t\n      PUSH 60\t\t\t\n      ADD \t\t\t\n      CALLDATALOAD \t\t\t\n      DUP11 \t\t\t\n      PUSH 0\t\t\t\n      ADD \t\t\t\n      PUSH 20\t\t\t\n      DUP2 \t\t\t\n      ADD \t\t\t\n      SWAP1 \t\t\t\n      PUSH [tag] 563\t\t\t\n      SWAP2 \t\t\t\n      SWAP1 \t\t\t\n      PUSH [tag] 209\t\t\t\n      JUMP \t\t\t\n    tag 563\t\t\t\n      JUMPDEST \t\t\t\n      PUSH [tag] 564\t\t\t\n      JUMP \t\t\t\n    tag 562\t\t\t\n      JUMPDEST \t\t\t\n      SWAP2 \t\t\t\n      POP \t\t\t\n      SWAP2 \t\t\t\n      POP \t\t\t\n      PUSH 0\t\t\t\n      DUP1 \t\t\t\n      PUSH [tag] 565\t\t\t\n      DUP10 \t\t\t\n      DUP5 \t\t\t\n      PUSH [tag] 329\t\t\t\n      JUMP \t\t\t\n    tag 565\t\t\t\n      JUMPDEST \t\t\t\n      SWAP2 \t\t\t\n      POP \t\t\t\n      SWAP2 \t\t\t\n      POP \t\t\t\n      PUSH [tag] 566\t\t\t\n      DUP10 \t\t\t\n      PUSH 0\t\t\t\n      ADD \t\t\t\n      PUSH 20\t\t\t\n      DUP2 \t\t\t\n      ADD \t\t\t\n      SWAP1 \t\t\t\n      PUSH [tag] 567\t\t\t\n      SWAP2 \t\t\t\n      SWAP1 \t\t\t\n      PUSH [tag] 209\t\t\t\n      JUMP \t\t\t\n    tag 567\t\t\t\n      JUMPDEST \t\t\t\n      DUP4 \t\t\t\n      DUP4 \t\t\t\n      DUP12 \t\t\t\n      DUP1 \t\t\t\n      CALLDATASIZE \t\t\t\n      SUB \t\t\t\n      DUP2 \t\t\t\n      ADD \t\t\t\n      SWAP1 \t\t\t\n      PUSH [tag] 568\t\t\t\n      SWAP2 \t\t\t\n      SWAP1 \t\t\t\n      PUSH [tag] 569\t\t\t\n      JUMP \t\t\t\n    tag 568\t\t\t\n      JUMPDEST \t\t\t\n      DUP12 \t\t\t\n      PUSH [tag] 570\t\t\t\n      JUMP \t\t\t\n    tag 566\t\t\t\n      JUMPDEST \t\t\t\n      SWAP6 \t\t\t\n      POP \t\t\t\n      PUSH 40\t\t\t\n      MLOAD \t\t\t\n      DUP1 \t\t\t\n      PUSH 40\t\t\t\n      ADD \t\t\t\n      PUSH 40\t\t\t\n      MSTORE \t\t\t\n      DUP1 \t\t\t\n      DUP6 \t\t\t\n      DUP2 \t\t\t\n      MSTORE \t\t\t\n      PUSH 20\t\t\t\n      ADD \t\t\t\n      DUP5 \t\t\t\n      DUP2 \t\t\t\n      MSTORE \t\t\t\n      POP \t\t\t\n      SWAP5 \t\t\t\n      POP \t\t\t\n      CALLER \t\t\t\n      PUSH FFFFFFFFFFFFFFFFFFFFFFFFFFFFFFFFFFFFFFFF\t\t\t\n      AND \t\t\t\n      DUP7 \t\t\t\n      PUSH 0\t\t\t\n      ADD \t\t\t\n      MLOAD \t\t\t\n      PUSH 85496B760A4B7F8D66384B9DF21B381F5D1B1E79F229A47AAF4C232EDC2FE59A\t\t\t\n      DUP12 \t\t\t\n      PUSH 0\t\t\t\n      ADD \t\t\t\n      PUSH 20\t\t\t\n      DUP2 \t\t\t\n      ADD \t\t\t\n      SWAP1 \t\t\t\n      PUSH [tag] 571\t\t\t\n      SWAP2 \t\t\t\n      SWAP1 \t\t\t\n      PUSH [tag] 209\t\t\t\n      JUMP \t\t\t\n    tag 571\t\t\t\n      JUMPDEST \t\t\t\n      DUP8 \t\t\t\n      DUP8 \t\t\t\n      PUSH 40\t\t\t\n      MLOAD \t\t\t\n      PUSH [tag] 572\t\t\t\n      SWAP4 \t\t\t\n      SWAP3 \t\t\t\n      SWAP2 \t\t\t\n      SWAP1 \t\t\t\n      PUSH [tag] 573\t\t\t\n      JUMP \t\t\t\n    tag 572\t\t\t\n      JUMPDEST \t\t\t\n      PUSH 40\t\t\t\n      MLOAD \t\t\t\n      DUP1 \t\t\t\n      SWAP2 \t\t\t\n      SUB \t\t\t\n      SWAP1 \t\t\t\n      LOG3 \t\t\t\n      POP \t\t\t\n      POP \t\t\t\n      POP \t\t\t\n      POP \t\t\t\n      SWAP4 \t\t\t\n      POP \t\t\t\n      SWAP4 \t\t\t\n      SWAP2 \t\t\t\n      POP \t\t\t\n      POP \t\t\t\n      JUMP \t\t\t\n    tag 430\t\t\t\n      JUMPDEST \t\t\t\n      PUSH [tag] 575\t\t\t\n      DUP8 \t\t\t\n      DUP8 \t\t\t\n      DUP8 \t\t\t\n      DUP8 \t\t\t\n      DUP8 \t\t\t\n      DUP8 \t\t\t\n      DUP8 \t\t\t\n      PUSH [tag] 306\t\t\t\n      JUMP \t\t\t\n    tag 575\t\t\t\n      JUMPDEST \t\t\t\n      POP \t\t\t\n      POP \t\t\t\n      POP \t\t\t\n      POP \t\t\t\n      POP \t\t\t\n      POP \t\t\t\n      POP \t\t\t\n      JUMP \t\t\t\n    tag 448\t\t\t\n      JUMPDEST \t\t\t\n      PUSH 0\t\t\t\n      PUSH FFFFFFFFFFFFFFFFFFFFFFFFFFFFFFFFFFFFFFFF\t\t\t\n      AND \t\t\t\n      DUP5 \t\t\t\n      PUSH FFFFFFFFFFFFFFFFFFFFFFFFFFFFFFFFFFFFFFFF\t\t\t\n      AND \t\t\t\n      SUB \t\t\t\n      PUSH [tag] 577\t\t\t\n      JUMPI \t\t\t\n      PUSH 0\t\t\t\n      PUSH 40\t\t\t\n      MLOAD \t\t\t\n      PUSH E602DF0500000000000000000000000000000000000000000000000000000000\t\t\t\n      DUP2 \t\t\t\n      MSTORE \t\t\t\n      PUSH 4\t\t\t\n      ADD \t\t\t\n      PUSH [tag] 578\t\t\t\n      SWAP2 \t\t\t\n      SWAP1 \t\t\t\n      PUSH [tag] 74\t\t\t\n      JUMP \t\t\t\n    tag 578\t\t\t\n      JUMPDEST \t\t\t\n      PUSH 40\t\t\t\n      MLOAD \t\t\t\n      DUP1 \t\t\t\n      SWAP2 \t\t\t\n      SUB \t\t\t\n      SWAP1 \t\t\t\n      REVERT \t\t\t\n    tag 577\t\t\t\n      JUMPDEST \t\t\t\n      PUSH 0\t\t\t\n      PUSH FFFFFFFFFFFFFFFFFFFFFFFFFFFFFFFFFFFFFFFF\t\t\t\n      AND \t\t\t\n      DUP4 \t\t\t\n      PUSH FFFFFFFFFFFFFFFFFFFFFFFFFFFFFFFFFFFFFFFF\t\t\t\n      AND \t\t\t\n      SUB \t\t\t\n      PUSH [tag] 579\t\t\t\n      JUMPI \t\t\t\n      PUSH 0\t\t\t\n      PUSH 40\t\t\t\n      MLOAD \t\t\t\n      PUSH 94280D6200000000000000000000000000000000000000000000000000000000\t\t\t\n      DUP2 \t\t\t\n      MSTORE \t\t\t\n      PUSH 4\t\t\t\n      ADD \t\t\t\n      PUSH [tag] 580\t\t\t\n      SWAP2 \t\t\t\n      SWAP1 \t\t\t\n      PUSH [tag] 74\t\t\t\n      JUMP \t\t\t\n    tag 580\t\t\t\n      JUMPDEST \t\t\t\n      PUSH 40\t\t\t\n      MLOAD \t\t\t\n      DUP1 \t\t\t\n      SWAP2 \t\t\t\n      SUB \t\t\t\n      SWAP1 \t\t\t\n      REVERT \t\t\t\n    tag 579\t\t\t\n      JUMPDEST \t\t\t\n      DUP2 \t\t\t\n      PUSH 6\t\t\t\n      PUSH 0\t\t\t\n      DUP7 \t\t\t\n      PUSH FFFFFFFFFFFFFFFFFFFFFFFFFFFFFFFFFFFFFFFF\t\t\t\n      AND \t\t\t\n      PUSH FFFFFFFFFFFFFFFFFFFFFFFFFFFFFFFFFFFFFFFF\t\t\t\n      AND \t\t\t\n      DUP2 \t\t\t\n      MSTORE \t\t\t\n      PUSH 20\t\t\t\n      ADD \t\t\t\n      SWAP1 \t\t\t\n      DUP2 \t\t\t\n      MSTORE \t\t\t\n      PUSH 20\t\t\t\n      ADD \t\t\t\n      PUSH 0\t\t\t\n      KECCAK256 \t\t\t\n      PUSH 0\t\t\t\n      DUP6 \t\t\t\n      PUSH FFFFFFFFFFFFFFFFFFFFFFFFFFFFFFFFFFFFFFFF\t\t\t\n      AND \t\t\t\n      PUSH FFFFFFFFFFFFFFFFFFFFFFFFFFFFFFFFFFFFFFFF\t\t\t\n      AND \t\t\t\n      DUP2 \t\t\t\n      MSTORE \t\t\t\n      PUSH 20\t\t\t\n      ADD \t\t\t\n      SWAP1 \t\t\t\n      DUP2 \t\t\t\n      MSTORE \t\t\t\n      PUSH 20\t\t\t\n      ADD \t\t\t\n      PUSH 0\t\t\t\n      KECCAK256 \t\t\t\n      DUP2 \t\t\t\n      SWAP1 \t\t\t\n      SSTORE \t\t\t\n      POP \t\t\t\n      DUP1 \t\t\t\n      ISZERO \t\t\t\n      PUSH [tag] 581\t\t\t\n      JUMPI \t\t\t\n      DUP3 \t\t\t\n      PUSH FFFFFFFFFFFFFFFFFFFFFFFFFFFFFFFFFFFFFFFF\t\t\t\n      AND \t\t\t\n      DUP5 \t\t\t\n      PUSH FFFFFFFFFFFFFFFFFFFFFFFFFFFFFFFFFFFFFFFF\t\t\t\n      AND \t\t\t\n      PUSH 8C5BE1E5EBEC7D5BD14F71427D1E84F3DD0314C0F7B2291E5B200AC8C7C3B925\t\t\t\n      DUP5 \t\t\t\n      PUSH 40\t\t\t\n      MLOAD \t\t\t\n      PUSH [tag] 582\t\t\t\n      SWAP2 \t\t\t\n      SWAP1 \t\t\t\n      PUSH [tag] 98\t\t\t\n      JUMP \t\t\t\n    tag 582\t\t\t\n      JUMPDEST \t\t\t\n      PUSH 40\t\t\t\n      MLOAD \t\t\t\n      DUP1 \t\t\t\n      SWAP2 \t\t\t\n      SUB \t\t\t\n      SWAP1 \t\t\t\n      LOG3 \t\t\t\n    tag 581\t\t\t\n      JUMPDEST \t\t\t\n      POP \t\t\t\n      POP \t\t\t\n      POP \t\t\t\n      POP \t\t\t\n      JUMP \t\t\t\n    tag 451\t\t\t\n      JUMPDEST \t\t\t\n      PUSH 0\t\t\t\n      PUSHIMMUTABLE 2778\t\t\t\n      PUSHIMMUTABLE 2778\t\t\t\n      DUP4 \t\t\t\n      PUSH [tag] 584\t\t\t\n      SWAP2 \t\t\t\n      SWAP1 \t\t\t\n      PUSH [tag] 585\t\t\t\n      JUMP \t\t\t\n    tag 584\t\t\t\n      JUMPDEST \t\t\t\n      PUSH [tag] 586\t\t\t\n      SWAP2 \t\t\t\n      SWAP1 \t\t\t\n      PUSH [tag] 587\t\t\t\n      JUMP \t\t\t\n    tag 586\t\t\t\n      JUMPDEST \t\t\t\n      SWAP1 \t\t\t\n      POP \t\t\t\n      SWAP2 \t\t\t\n      SWAP1 \t\t\t\n      POP \t\t\t\n      JUMP \t\t\t\n    tag 462\t\t\t\n      JUMPDEST \t\t\t\n      PUSH 0\t\t\t\n      DUP3 \t\t\t\n      DUP3 \t\t\t\n      PUSH 0\t\t\t\n      SWAP1 \t\t\t\n      PUSH 20\t\t\tt \n      PUSH FF\t\t\t\n      AND \t\t\t\n      SWAP3 \t\t\t\n      PUSH [tag] 589\t\t\t\n      SWAP4 \t\t\t\n      SWAP3 \t\t\t\n      SWAP2 \t\t\t\n      SWAP1 \t\t\t\n      PUSH [tag] 383\t\t\t\n      JUMP \t\t\t\n    tag 589\t\t\t\n      JUMPDEST \t\t\t\n      SWAP1 \t\t\t\n      PUSH [tag] 590\t\t\t\n      SWAP2 \t\t\t\n      SWAP1 \t\t\t\n      PUSH [tag] 591\t\t\t\n      JUMP \t\t\t\n    tag 590\t\t\t\n      JUMPDEST \t\t\t\n      SWAP1 \t\t\t\n      POP \t\t\t\n      SWAP3 \t\t\t\n      SWAP2 \t\t\t\n      POP \t\t\t\n      POP \t\t\t\n      JUMP \t\t\t\n    tag 463\t\t\t\n      JUMPDEST \t\t\t\n      PUSH 0\t\t\t\n      DUP2 \t\t\t\n      PUSH 0\t\t\t\n      SHR \t\t\t\n      SWAP1 \t\t\t\n      POP \t\t\t\n      SWAP2 \t\t\t\n      SWAP1 \t\t\t\n      POP \t\t\t\n      JUMP \t\t\t\n    tag 467\t\t\t\n      JUMPDEST \t\t\t\n      PUSH 0\t\t\t\n      DUP3 \t\t\t\n      DUP3 \t\t\t\n      PUSH 20\t\t\tt \n      PUSH FF\t\t\t\n      AND \t\t\t\n      SWAP1 \t\t\t\n      PUSH 28\t\t\tpp\n      PUSH FF\t\t\t\n      AND \t\t\t\n      SWAP3 \t\t\t\n      PUSH [tag] 594\t\t\t\n      SWAP4 \t\t\t\n      SWAP3 \t\t\t\n      SWAP2 \t\t\t\n      SWAP1 \t\t\t\n      PUSH [tag] 383\t\t\t\n      JUMP \t\t\t\n    tag 594\t\t\t\n      JUMPDEST \t\t\t\n      SWAP1 \t\t\t\n      PUSH [tag] 595\t\t\t\n      SWAP2 \t\t\t\n      SWAP1 \t\t\t\n      PUSH [tag] 596\t\t\t\n      JUMP \t\t\t\n    tag 595\t\t\t\n      JUMPDEST \t\t\t\n      PUSH C0\t\t\t\n      SHR \t\t\t\n      SWAP1 \t\t\t\n      POP \t\t\t\n      SWAP3 \t\t\t\n      SWAP2 \t\t\t\n      POP \t\t\t\n      POP \t\t\t\n      JUMP \t\t\t\n    tag 468\t\t\t\n      JUMPDEST \t\t\t\n      PUSH 0\t\t\t\n      PUSHIMMUTABLE 2778\t\t\t\n      DUP3 \t\t\t\n      PUSH FFFFFFFFFFFFFFFF\t\t\t\n      AND \t\t\t\n      PUSH [tag] 598\t\t\t\n      SWAP2 \t\t\t\n      SWAP1 \t\t\t\n      PUSH [tag] 587\t\t\t\n      JUMP \t\t\t\n    tag 598\t\t\t\n      JUMPDEST \t\t\t\n      SWAP1 \t\t\t\n      POP \t\t\t\n      SWAP2 \t\t\t\n      SWAP1 \t\t\t\n      POP \t\t\t\n      JUMP \t\t\t\n    tag 470\t\t\t\n      JUMPDEST \t\t\t\n      PUSH 0\t\t\t\n      DUP1 \t\t\t\n      PUSH FFFFFFFFFFFFFFFFFFFFFFFFFFFFFFFFFFFFFFFF\t\t\t\n      AND \t\t\t\n      DUP5 \t\t\t\n      PUSH FFFFFFFFFFFFFFFFFFFFFFFFFFFFFFFFFFFFFFFF\t\t\t\n      AND \t\t\t\n      SUB \t\t\t\n      PUSH [tag] 600\t\t\t\n      JUMPI \t\t\t\n      PUSH DEAD\t\t\t\n      SWAP4 \t\t\t\n      POP \t\t\t\n    tag 600\t\t\t\n      JUMPDEST \t\t\t\n      PUSH [tag] 601\t\t\t\n      DUP5 \t\t\t\n      DUP5 \t\t\t\n      PUSH [tag] 602\t\t\t\n      JUMP \t\t\t\n    tag 601\t\t\t\n      JUMPDEST \t\t\t\n      DUP3 \t\t\t\n      SWAP1 \t\t\t\n      POP \t\t\t\n      SWAP4 \t\t\t\n      SWAP3 \t\t\t\n      POP \t\t\t\n      POP \t\t\t\n      POP \t\t\t\n      JUMP \t\t\t\n    tag 472\t\t\t\n      JUMPDEST \t\t\t\n      PUSH 0\t\t\t\n      PUSH 28\t\t\tpp\n      PUSH FF\t\t\t\n      AND \t\t\t\n      DUP4 \t\t\t\n      DUP4 \t\t\t\n      SWAP1 \t\t\t\n      POP \t\t\t\n      GT \t\t\t\n      SWAP1 \t\t\t\n      POP \t\t\t\n      SWAP3 \t\t\t\n      SWAP2 \t\t\t\n      POP \t\t\t\n      POP \t\t\t\n      JUMP \t\t\t\n    tag 479\t\t\t\n      JUMPDEST \t\t\t\n      PUSH 60\t\t\t\n      DUP3 \t\t\t\n      DUP3 \t\t\t\n      PUSH 28\t\t\tpp\n      PUSH FF\t\t\t\n      AND \t\t\t\n      SWAP1 \t\t\t\n      DUP1 \t\t\t\n      SWAP3 \t\t\t\n      PUSH [tag] 605\t\t\t\n      SWAP4 \t\t\t\n      SWAP3 \t\t\t\n      SWAP2 \t\t\t\n      SWAP1 \t\t\t\n      PUSH [tag] 383\t\t\t\n      JUMP \t\t\t\n    tag 605\t\t\t\n      JUMPDEST \t\t\t\n      DUP1 \t\t\t\n      DUP1 \t\t\t\n      PUSH 1F\t\t\t\n      ADD \t\t\t\n      PUSH 20\t\t\t\n      DUP1 \t\t\t\n      SWAP2 \t\t\t\n      DIV \t\t\t\n      MUL \t\t\t\n      PUSH 20\t\t\t\n      ADD \t\t\t\n      PUSH 40\t\t\t\n      MLOAD \t\t\t\n      SWAP1 \t\t\t\n      DUP2 \t\t\t\n      ADD \t\t\t\n      PUSH 40\t\t\t\n      MSTORE \t\t\t\n      DUP1 \t\t\t\n      SWAP4 \t\t\t\n      SWAP3 \t\t\t\n      SWAP2 \t\t\t\n      SWAP1 \t\t\t\n      DUP2 \t\t\t\n      DUP2 \t\t\t\n      MSTORE \t\t\t\n      PUSH 20\t\t\t\n      ADD \t\t\t\n      DUP4 \t\t\t\n      DUP4 \t\t\t\n      DUP1 \t\t\t\n      DUP3 \t\t\t\n      DUP5 \t\t\t\n      CALLDATACOPY \t\t\t\n      PUSH 0\t\t\t\n      DUP2 \t\t\t\n      DUP5 \t\t\t\n      ADD \t\t\t\n      MSTORE \t\t\t\n      PUSH 1F\t\t\t\n      NOT \t\t\t\n      PUSH 1F\t\t\t\n      DUP3 \t\t\t\n      ADD \t\t\t\n      AND \t\t\t\n      SWAP1 \t\t\t\n      POP \t\t\t\n      DUP1 \t\t\t\n      DUP4 \t\t\t\n      ADD \t\t\t\n      SWAP3 \t\t\t\n      POP \t\t\t\n      POP \t\t\t\n      POP \t\t\t\n      POP \t\t\t\n      POP \t\t\t\n      POP \t\t\t\n      POP \t\t\t\n      SWAP1 \t\t\t\n      POP \t\t\t\n      SWAP3 \t\t\t\n      SWAP2 \t\t\t\n      POP \t\t\t\n      POP \t\t\t\n      JUMP \t\t\t\n    tag 480\t\t\te, _initialSupply * 10 ** deci...\n      JUMPDEST \t\t\te, _initialSupply * 10 ** deci...\n      PUSH 60\t\t\t\n      DUP5 \t\t\t\n      DUP5 \t\t\t\n      DUP5 \t\t\t\n      DUP5 \t\t\t\n      PUSH 40\t\t\t\n      MLOAD \t\t\t\n      PUSH 20\t\t\t\n      ADD \t\t\t\n      PUSH [tag] 607\t\t\t\n      SWAP5 \t\t\t\n      SWAP4 \t\t\t\n      SWAP3 \t\t\t\n      SWAP2 \t\t\t\n      SWAP1 \t\t\t\n      PUSH [tag] 608\t\t\t\n      JUMP \t\t\t\n    tag 607\t\t\t\n      JUMPDEST \t\t\t\n      PUSH 40\t\t\t\n      MLOAD \t\t\t\n      PUSH 20\t\t\t\n      DUP2 \t\t\t\n      DUP4 \t\t\t\n      SUB \t\t\t\n      SUB \t\t\t\n      DUP2 \t\t\t\n      MSTORE \t\t\t\n      SWAP1 \t\t\t\n      PUSH 40\t\t\t\n      MSTORE \t\t\t\n      SWAP1 \t\t\t\n      POP \t\t\t\n      SWAP5 \t\t\te, _initialSupply * 10 ** deci...\n      SWAP4 \t\t\te, _initialSupply * 10 ** deci...\n      POP \t\t\te, _initialSupply * 10 ** deci...\n      POP \t\t\te, _initialSupply * 10 ** deci...\n      POP \t\t\te, _initialSupply * 10 ** deci...\n      POP \t\t\te, _initialSupply * 10 ** deci...\n      JUMP \t\t\te, _initialSupply * 10 ** deci...\n    tag 502\t\t\t\n      JUMPDEST \t\t\t\n      PUSH 0\t\t\t\n      PUSH FFFFFFFFFFFFFFFFFFFFFFFFFFFFFFFFFFFFFFFF\t\t\t\n      AND \t\t\t\n      DUP4 \t\t\t\n      PUSH FFFFFFFFFFFFFFFFFFFFFFFFFFFFFFFFFFFFFFFF\t\t\t\n      AND \t\t\t\n      SUB \t\t\t\n      PUSH [tag] 610\t\t\t\n      JUMPI \t\t\t\n      DUP1 \t\t\t\n      PUSH 7\t\t\t\n      PUSH 0\t\t\t\n      DUP3 \t\t\t\n      DUP3 \t\t\t\n      SLOAD \t\t\t\n      PUSH [tag] 611\t\t\t\n      SWAP2 \t\t\t\n      SWAP1 \t\t\t\n      PUSH [tag] 612\t\t\t\n      JUMP \t\t\t\n    tag 611\t\t\t\n      JUMPDEST \t\t\t\n      SWAP3 \t\t\t\n      POP \t\t\t\n      POP \t\t\t\n      DUP2 \t\t\t\n      SWAP1 \t\t\t\n      SSTORE \t\t\t\n      POP \t\t\t\n      PUSH [tag] 613\t\t\t\n      JUMP \t\t\t\n    tag 610\t\t\t\n      JUMPDEST \t\t\t\n      PUSH 0\t\t\t\n      PUSH 5\t\t\t\n      PUSH 0\t\t\t\n      DUP6 \t\t\t\n      PUSH FFFFFFFFFFFFFFFFFFFFFFFFFFFFFFFFFFFFFFFF\t\t\t\n      AND \t\t\t\n      PUSH FFFFFFFFFFFFFFFFFFFFFFFFFFFFFFFFFFFFFFFF\t\t\t\n      AND \t\t\t\n      DUP2 \t\t\t\n      MSTORE \t\t\t\n      PUSH 20\t\t\t\n      ADD \t\t\t\n      SWAP1 \t\t\t\n      DUP2 \t\t\t\n      MSTORE \t\t\t\n      PUSH 20\t\t\t\n      ADD \t\t\t\n      PUSH 0\t\t\t\n      KECCAK256 \t\t\t\n      SLOAD \t\t\t\n      SWAP1 \t\t\t\n      POP \t\t\t\n      DUP2 \t\t\t\n      DUP2 \t\t\t\n      LT \t\t\t\n      ISZERO \t\t\t\n      PUSH [tag] 614\t\t\t\n      JUMPI \t\t\t\n      DUP4 \t\t\t\n      DUP2 \t\t\t\n      DUP4 \t\t\t\n      PUSH 40\t\t\t\n      MLOAD \t\t\t\n      PUSH E450D38C00000000000000000000000000000000000000000000000000000000\t\t\t\n      DUP2 \t\t\t\n      MSTORE \t\t\t\n      PUSH 4\t\t\t\n      ADD \t\t\t\n      PUSH [tag] 615\t\t\t\n      SWAP4 \t\t\t\n      SWAP3 \t\t\t\n      SWAP2 \t\t\t\n      SWAP1 \t\t\t\n      PUSH [tag] 494\t\t\t\n      JUMP \t\t\t\n    tag 615\t\t\t\n      JUMPDEST \t\t\t\n      PUSH 40\t\t\t\n      MLOAD \t\t\t\n      DUP1 \t\t\t\n      SWAP2 \t\t\t\n      SUB \t\t\t\n      SWAP1 \t\t\t\n      REVERT \t\t\t\n    tag 614\t\t\t\n      JUMPDEST \t\t\t\n      DUP2 \t\t\t\n      DUP2 \t\t\t\n      SUB \t\t\t\n      PUSH 5\t\t\t\n      PUSH 0\t\t\t\n      DUP7 \t\t\t\n      PUSH FFFFFFFFFFFFFFFFFFFFFFFFFFFFFFFFFFFFFFFF\t\t\t\n      AND \t\t\t\n      PUSH FFFFFFFFFFFFFFFFFFFFFFFFFFFFFFFFFFFFFFFF\t\t\t\n      AND \t\t\t\n      DUP2 \t\t\t\n      MSTORE \t\t\t\n      PUSH 20\t\t\t\n      ADD \t\t\t\n      SWAP1 \t\t\t\n      DUP2 \t\t\t\n      MSTORE \t\t\t\n      PUSH 20\t\t\t\n      ADD \t\t\t\n      PUSH 0\t\t\t\n      KECCAK256 \t\t\t\n      DUP2 \t\t\t\n      SWAP1 \t\t\t\n      SSTORE \t\t\t\n      POP \t\t\t\n      POP \t\t\t\n    tag 613\t\t\t\n      JUMPDEST \t\t\t\n      PUSH 0\t\t\t\n      PUSH FFFFFFFFFFFFFFFFFFFFFFFFFFFFFFFFFFFFFFFF\t\t\t\n      AND \t\t\t\n      DUP3 \t\t\t\n      PUSH FFFFFFFFFFFFFFFFFFFFFFFFFFFFFFFFFFFFFFFF\t\t\t\n      AND \t\t\t\n      SUB \t\t\t\n      PUSH [tag] 616\t\t\t\n      JUMPI \t\t\t\n      DUP1 \t\t\t\n      PUSH 7\t\t\t\n      PUSH 0\t\t\t\n      DUP3 \t\t\t\n      DUP3 \t\t\t\n      SLOAD \t\t\t\n      SUB \t\t\t\n      SWAP3 \t\t\t\n      POP \t\t\t\n      POP \t\t\t\n      DUP2 \t\t\t\n      SWAP1 \t\t\t\n      SSTORE \t\t\t\n      POP \t\t\t\n      PUSH [tag] 617\t\t\t\n      JUMP \t\t\t\n    tag 616\t\t\t\n      JUMPDEST \t\t\t\n      DUP1 \t\t\t\n      PUSH 5\t\t\t\n      PUSH 0\t\t\t\n      DUP5 \t\t\t\n      PUSH FFFFFFFFFFFFFFFFFFFFFFFFFFFFFFFFFFFFFFFF\t\t\t\n      AND \t\t\t\n      PUSH FFFFFFFFFFFFFFFFFFFFFFFFFFFFFFFFFFFFFFFF\t\t\t\n      AND \t\t\t\n      DUP2 \t\t\t\n      MSTORE \t\t\t\n      PUSH 20\t\t\t\n      ADD \t\t\t\n      SWAP1 \t\t\t\n      DUP2 \t\t\t\n      MSTORE \t\t\t\n      PUSH 20\t\t\t\n      ADD \t\t\t\n      PUSH 0\t\t\t\n      KECCAK256 \t\t\t\n      PUSH 0\t\t\t\n      DUP3 \t\t\t\n      DUP3 \t\t\t\n      SLOAD \t\t\t\n      ADD \t\t\t\n      SWAP3 \t\t\t\n      POP \t\t\t\n      POP \t\t\t\n      DUP2 \t\t\t\n      SWAP1 \t\t\t\n      SSTORE \t\t\t\n      POP \t\t\t\n    tag 617\t\t\t\n      JUMPDEST \t\t\t\n      DUP2 \t\t\t\n      PUSH FFFFFFFFFFFFFFFFFFFFFFFFFFFFFFFFFFFFFFFF\t\t\t\n      AND \t\t\t\n      DUP4 \t\t\t\n      PUSH FFFFFFFFFFFFFFFFFFFFFFFFFFFFFFFFFFFFFFFF\t\t\t\n      AND \t\t\t\n      PUSH DDF252AD1BE2C89B69C2B068FC378DAA952BA7F163C4A11628F55A4DF523B3EF\t\t\t\n      DUP4 \t\t\t\n      PUSH 40\t\t\t\n      MLOAD \t\t\t\n      PUSH [tag] 618\t\t\t\n      SWAP2 \t\t\t\n      SWAP1 \t\t\t\n      PUSH [tag] 98\t\t\t\n      JUMP \t\t\t\n    tag 618\t\t\t\n      JUMPDEST \t\t\t\n      PUSH 40\t\t\t\n      MLOAD \t\t\t\n      DUP1 \t\t\t\n      SWAP2 \t\t\t\n      SUB \t\t\t\n      SWAP1 \t\t\t\n      LOG3 \t\t\t\n      POP \t\t\t\n      POP \t\t\t\n      POP \t\t\t\n      JUMP \t\t\t\n    tag 514\t\t\t\n      JUMPDEST \t\t\t\n      PUSH 0\t\t\t\n      PUSHIMMUTABLE 2778\t\t\t\n      DUP3 \t\t\t\n      PUSH [tag] 620\t\t\t\n      SWAP2 \t\t\t\n      SWAP1 \t\t\t\n      PUSH [tag] 585\t\t\t\n      JUMP \t\t\t\n    tag 620\t\t\t\n      JUMPDEST \t\t\t\n      SWAP1 \t\t\t\n      POP \t\t\t\n      SWAP2 \t\t\t\n      SWAP1 \t\t\t\n      POP \t\t\t\n      JUMP \t\t\t\n    tag 516\t\t\tnable(_delegate) {\\r\\n        ...\n      JUMPDEST \t\t\tnable(_delegate) {\\r\\n        ...\n      PUSH 60\t\t\t\n      PUSH 0\t\t\t\n      DUP1 \t\t\t\n      DUP4 \t\t\t\n      MLOAD \t\t\t\n      GT \t\t\t\n      SWAP1 \t\t\t\n      POP \t\t\t\n      DUP1 \t\t\t\n      PUSH [tag] 622\t\t\t\n      JUMPI \t\t\t\n      DUP5 \t\t\t\n      DUP5 \t\t\t\n      PUSH 40\t\t\t\n      MLOAD \t\t\t\n      PUSH 20\t\t\t\n      ADD \t\t\t\n      PUSH [tag] 623\t\t\t\n      SWAP3 \t\t\t\n      SWAP2 \t\t\t\n      SWAP1 \t\t\t\n      PUSH [tag] 624\t\t\t\n      JUMP \t\t\t\n    tag 623\t\t\t\n      JUMPDEST \t\t\t\n      PUSH 40\t\t\t\n      MLOAD \t\t\t\n      PUSH 20\t\t\t\n      DUP2 \t\t\t\n      DUP4 \t\t\t\n      SUB \t\t\t\n      SUB \t\t\t\n      DUP2 \t\t\t\n      MSTORE \t\t\t\n      SWAP1 \t\t\t\n      PUSH 40\t\t\t\n      MSTORE \t\t\t\n      PUSH [tag] 625\t\t\t\n      JUMP \t\t\t\n    tag 622\t\t\t\n      JUMPDEST \t\t\t\n      DUP5 \t\t\t\n      DUP5 \t\t\t\n      PUSH [tag] 626\t\t\t\n      CALLER \t\t\t\n      PUSH [tag] 627\t\t\t\n      JUMP \t\t\t\n    tag 626\t\t\t\n      JUMPDEST \t\t\t\n      DUP6 \t\t\t\n      PUSH 40\t\t\t\n      MLOAD \t\t\t\n      PUSH 20\t\t\t\n      ADD \t\t\t\n      PUSH [tag] 628\t\t\t\n      SWAP5 \t\t\t\n      SWAP4 \t\t\t\n      SWAP3 \t\t\t\n      SWAP2 \t\t\t\n      SWAP1 \t\t\t\n      PUSH [tag] 629\t\t\t\n      JUMP \t\t\t\n    tag 628\t\t\t\n      JUMPDEST \t\t\t\n      PUSH 40\t\t\t\n      MLOAD \t\t\t\n      PUSH 20\t\t\t\n      DUP2 \t\t\t\n      DUP4 \t\t\t\n      SUB \t\t\t\n      SUB \t\t\t\n      DUP2 \t\t\t\n      MSTORE \t\t\t\n      SWAP1 \t\t\t\n      PUSH 40\t\t\t\n      MSTORE \t\t\t\n    tag 625\t\t\t\n      JUMPDEST \t\t\t\n      SWAP2 \t\t\t\n      POP \t\t\t\n      SWAP4 \t\t\tnable(_delegate) {\\r\\n        ...\n      POP \t\t\tnable(_delegate) {\\r\\n        ...\n      SWAP4 \t\t\tnable(_delegate) {\\r\\n        ...\n      SWAP2 \t\t\tnable(_delegate) {\\r\\n        ...\n      POP \t\t\tnable(_delegate) {\\r\\n        ...\n      POP \t\t\tnable(_delegate) {\\r\\n        ...\n      JUMP \t\t\tnable(_delegate) {\\r\\n        ...\n    tag 564\t\t\t\n      JUMPDEST \t\t\t\n      PUSH 0\t\t\t\n      DUP1 \t\t\t\n      PUSH [tag] 631\t\t\t\n      DUP6 \t\t\t\n      DUP6 \t\t\t\n      DUP6 \t\t\t\n      PUSH [tag] 294\t\t\t\n      JUMP \t\t\t\n    tag 631\t\t\t\n      JUMPDEST \t\t\t\n      DUP1 \t\t\t\n      SWAP3 \t\t\t\n      POP \t\t\t\n      DUP2 \t\t\t\n      SWAP4 \t\t\t\n      POP \t\t\t\n      POP \t\t\t\n      POP \t\t\t\n      PUSH [tag] 632\t\t\t\n      DUP7 \t\t\t\n      DUP4 \t\t\t\n      PUSH [tag] 633\t\t\t\n      JUMP \t\t\t\n    tag 632\t\t\t\n      JUMPDEST \t\t\t\n      SWAP5 \t\t\t\n      POP \t\t\t\n      SWAP5 \t\t\t\n      SWAP3 \t\t\t\n      POP \t\t\t\n      POP \t\t\t\n      POP \t\t\t\n      JUMP \t\t\t\n    tag 570\t\t\t\n      JUMPDEST \t\t\t\n      PUSH [tag] 634\t\t\t\n      PUSH [tag] 415\t\t\t\n      JUMP \t\t\t\n    tag 634\t\t\t\n      JUMPDEST \t\t\t\n      PUSH 0\t\t\t\n      PUSH [tag] 636\t\t\t\n      DUP5 \t\t\t\n      PUSH 0\t\t\t\n      ADD \t\t\t\n      MLOAD \t\t\t\n      PUSH [tag] 637\t\t\t\n      JUMP \t\t\t\n    tag 636\t\t\t\n      JUMPDEST \t\t\t\n      SWAP1 \t\t\t\n      POP \t\t\t\n      PUSH 0\t\t\t\n      DUP5 \t\t\t\n      PUSH 20\t\t\t\n      ADD \t\t\t\n      MLOAD \t\t\t\n      GT \t\t\t\n      ISZERO \t\t\t\n      PUSH [tag] 638\t\t\t\n      JUMPI \t\t\t\n      PUSH [tag] 639\t\t\t\n      DUP5 \t\t\t\n      PUSH 20\t\t\t\n      ADD \t\t\t\n      MLOAD \t\t\t\n      PUSH [tag] 640\t\t\t\n      JUMP \t\t\t\n    tag 639\t\t\t\n      JUMPDEST \t\t\t\n    tag 638\t\t\t\n      JUMPDEST \t\t\t\n      PUSHIMMUTABLE 1386\t\t\t\n      PUSH FFFFFFFFFFFFFFFFFFFFFFFFFFFFFFFFFFFFFFFF\t\t\t\n      AND \t\t\t\n      PUSH 2637A450\t\t\t\n      DUP3 \t\t\t\n      PUSH 40\t\t\t\n      MLOAD \t\t\t\n      DUP1 \t\t\t\n      PUSH A0\t\t\t\n      ADD \t\t\t\n      PUSH 40\t\t\t\n      MSTORE \t\t\t\n      DUP1 \t\t\t\n      DUP12 \t\t\t\n      PUSH FFFFFFFF\t\t\t\n      AND \t\t\t\n      DUP2 \t\t\t\n      MSTORE \t\t\t\n      PUSH 20\t\t\t\n      ADD \t\t\t\n      PUSH [tag] 641\t\t\t\n      DUP13 \t\t\t\n      PUSH [tag] 300\t\t\t\n      JUMP \t\t\t\n    tag 641\t\t\t\n      JUMPDEST \t\t\t\n      DUP2 \t\t\t\n      MSTORE \t\t\t\n      PUSH 20\t\t\t\n      ADD \t\t\t\n      DUP11 \t\t\t\n      DUP2 \t\t\t\n      MSTORE \t\t\t\n      PUSH 20\t\t\t\n      ADD \t\t\t\n      DUP10 \t\t\t\n      DUP2 \t\t\t\n      MSTORE \t\t\t\n      PUSH 20\t\t\t\n      ADD \t\t\t\n      PUSH 0\t\t\t\n      DUP10 \t\t\t\n      PUSH 20\t\t\t\n      ADD \t\t\t\n      MLOAD \t\t\t\n      GT \t\t\t\n      ISZERO \t\t\t\n      ISZERO \t\t\t\n      DUP2 \t\t\t\n      MSTORE \t\t\t\n      POP \t\t\t\n      DUP7 \t\t\t\n      PUSH 40\t\t\t\n      MLOAD \t\t\t\n      DUP5 \t\t\t\n      PUSH FFFFFFFF\t\t\t\n      AND \t\t\t\n      PUSH E0\t\t\t\n      SHL \t\t\t\n      DUP2 \t\t\t\n      MSTORE \t\t\t\n      PUSH 4\t\t\t\n      ADD \t\t\t\n      PUSH [tag] 642\t\t\t\n      SWAP3 \t\t\t\n      SWAP2 \t\t\t\n      SWAP1 \t\t\t\n      PUSH [tag] 533\t\t\t\n      JUMP \t\t\t\n    tag 642\t\t\t\n      JUMPDEST \t\t\t\n      PUSH 80\t\t\t\n      PUSH 40\t\t\t\n      MLOAD \t\t\t\n      DUP1 \t\t\t\n      DUP4 \t\t\t\n      SUB \t\t\t\n      DUP2 \t\t\t\n      DUP6 \t\t\t\n      DUP9 \t\t\t\n      GAS \t\t\t\n      CALL \t\t\t\n      ISZERO \t\t\t\n      DUP1 \t\t\t\n      ISZERO \t\t\t\n      PUSH [tag] 644\t\t\t\n      JUMPI \t\t\t\n      RETURNDATASIZE \t\t\t\n      PUSH 0\t\t\t\n      DUP1 \t\t\t\n      RETURNDATACOPY \t\t\t\n      RETURNDATASIZE \t\t\t\n      PUSH 0\t\t\t\n      REVERT \t\t\t\n    tag 644\t\t\t\n      JUMPDEST \t\t\t\n      POP \t\t\t\n      POP \t\t\t\n      POP \t\t\t\n      POP \t\t\t\n      POP \t\t\t\n      PUSH 40\t\t\t\n      MLOAD \t\t\t\n      RETURNDATASIZE \t\t\t\n      PUSH 1F\t\t\t\n      NOT \t\t\t\n      PUSH 1F\t\t\t\n      DUP3 \t\t\t\n      ADD \t\t\t\n      AND \t\t\t\n      DUP3 \t\t\t\n      ADD \t\t\t\n      DUP1 \t\t\t\n      PUSH 40\t\t\t\n      MSTORE \t\t\t\n      POP \t\t\t\n      DUP2 \t\t\t\n      ADD \t\t\t\n      SWAP1 \t\t\t\n      PUSH [tag] 645\t\t\t\n      SWAP2 \t\t\t\n      SWAP1 \t\t\t\n      PUSH [tag] 646\t\t\t\n      JUMP \t\t\t\n    tag 645\t\t\t\n      JUMPDEST \t\t\t\n      SWAP2 \t\t\t\n      POP \t\t\t\n      POP \t\t\t\n      SWAP6 \t\t\t\n      SWAP5 \t\t\t\n      POP \t\t\t\n      POP \t\t\t\n      POP \t\t\t\n      POP \t\t\t\n      POP \t\t\t\n      JUMP \t\t\t\n    tag 602\t\t\t\n      JUMPDEST \t\t\t\n      PUSH 0\t\t\t\n      PUSH FFFFFFFFFFFFFFFFFFFFFFFFFFFFFFFFFFFFFFFF\t\t\t\n      AND \t\t\t\n      DUP3 \t\t\t\n      PUSH FFFFFFFFFFFFFFFFFFFFFFFFFFFFFFFFFFFFFFFF\t\t\t\n      AND \t\t\t\n      SUB \t\t\t\n      PUSH [tag] 648\t\t\t\n      JUMPI \t\t\t\n      PUSH 0\t\t\t\n      PUSH 40\t\t\t\n      MLOAD \t\t\t\n      PUSH EC442F0500000000000000000000000000000000000000000000000000000000\t\t\t\n      DUP2 \t\t\t\n      MSTORE \t\t\t\n      PUSH 4\t\t\t\n      ADD \t\t\t\n      PUSH [tag] 649\t\t\t\n      SWAP2 \t\t\t\n      SWAP1 \t\t\t\n      PUSH [tag] 74\t\t\t\n      JUMP \t\t\t\n    tag 649\t\t\t\n      JUMPDEST \t\t\t\n      PUSH 40\t\t\t\n      MLOAD \t\t\t\n      DUP1 \t\t\t\n      SWAP2 \t\t\t\n      SUB \t\t\t\n      SWAP1 \t\t\t\n      REVERT \t\t\t\n    tag 648\t\t\t\n      JUMPDEST \t\t\t\n      PUSH [tag] 650\t\t\t\n      PUSH 0\t\t\t\n      DUP4 \t\t\t\n      DUP4 \t\t\t\n      PUSH [tag] 502\t\t\t\n      JUMP \t\t\t\n    tag 650\t\t\t\n      JUMPDEST \t\t\t\n      POP \t\t\t\n      POP \t\t\t\n      JUMP \t\t\t\n    tag 627\t\t\t\n      JUMPDEST \t\t\t\n      PUSH 0\t\t\t\n      DUP2 \t\t\t\n      PUSH FFFFFFFFFFFFFFFFFFFFFFFFFFFFFFFFFFFFFFFF\t\t\t\n      AND \t\t\t\n      PUSH 0\t\t\t\n      SHL \t\t\t\n      SWAP1 \t\t\t\n      POP \t\t\t\n      SWAP2 \t\t\t\n      SWAP1 \t\t\t\n      POP \t\t\t\n      JUMP \t\t\t\n    tag 633\t\t\t\n      JUMPDEST \t\t\t\n      PUSH 0\t\t\t\n      PUSH FFFFFFFFFFFFFFFFFFFFFFFFFFFFFFFFFFFFFFFF\t\t\t\n      AND \t\t\t\n      DUP3 \t\t\t\n      PUSH FFFFFFFFFFFFFFFFFFFFFFFFFFFFFFFFFFFFFFFF\t\t\t\n      AND \t\t\t\n      SUB \t\t\t\n      PUSH [tag] 653\t\t\t\n      JUMPI \t\t\t\n      PUSH 0\t\t\t\n      PUSH 40\t\t\t\n      MLOAD \t\t\t\n      PUSH 96C6FD1E00000000000000000000000000000000000000000000000000000000\t\t\t\n      DUP2 \t\t\t\n      MSTORE \t\t\t\n      PUSH 4\t\t\t\n      ADD \t\t\t\n      PUSH [tag] 654\t\t\t\n      SWAP2 \t\t\t\n      SWAP1 \t\t\t\n      PUSH [tag] 74\t\t\t\n      JUMP \t\t\t\n    tag 654\t\t\t\n      JUMPDEST \t\t\t\n      PUSH 40\t\t\t\n      MLOAD \t\t\t\n      DUP1 \t\t\t\n      SWAP2 \t\t\t\n      SUB \t\t\t\n      SWAP1 \t\t\t\n      REVERT \t\t\t\n    tag 653\t\t\t\n      JUMPDEST \t\t\t\n      PUSH [tag] 655\t\t\t\n      DUP3 \t\t\t\n      PUSH 0\t\t\t\n      DUP4 \t\t\t\n      PUSH [tag] 502\t\t\t\n      JUMP \t\t\t\n    tag 655\t\t\t\n      JUMPDEST \t\t\t\n      POP \t\t\t\n      POP \t\t\t\n      JUMP \t\t\t\n    tag 637\t\t\t\n      JUMPDEST \t\t\t\n      PUSH 0\t\t\t\n      DUP2 \t\t\t\n      CALLVALUE \t\t\t\n      EQ \t\t\t\n      PUSH [tag] 657\t\t\t\n      JUMPI \t\t\t\n      CALLVALUE \t\t\t\n      PUSH 40\t\t\t\n      MLOAD \t\t\t\n      PUSH 9F70412000000000000000000000000000000000000000000000000000000000\t\t\t\n      DUP2 \t\t\t\n      MSTORE \t\t\t\n      PUSH 4\t\t\t\n      ADD \t\t\t\n      PUSH [tag] 658\t\t\t\n      SWAP2 \t\t\t\n      SWAP1 \t\t\t\n      PUSH [tag] 98\t\t\t\n      JUMP \t\t\t\n    tag 658\t\t\t\n      JUMPDEST \t\t\t\n      PUSH 40\t\t\t\n      MLOAD \t\t\t\n      DUP1 \t\t\t\n      SWAP2 \t\t\t\n      SUB \t\t\t\n      SWAP1 \t\t\t\n      REVERT \t\t\t\n    tag 657\t\t\t\n      JUMPDEST \t\t\t\n      DUP2 \t\t\t\n      SWAP1 \t\t\t\n      POP \t\t\t\n      SWAP2 \t\t\t\n      SWAP1 \t\t\t\n      POP \t\t\t\n      JUMP \t\t\t\n    tag 640\t\t\t\n      JUMPDEST \t\t\t\n      PUSH 0\t\t\t\n      PUSHIMMUTABLE 1386\t\t\t\n      PUSH FFFFFFFFFFFFFFFFFFFFFFFFFFFFFFFFFFFFFFFF\t\t\t\n      AND \t\t\t\n      PUSH E4FE1D94\t\t\t\n      PUSH 40\t\t\t\n      MLOAD \t\t\t\n      DUP2 \t\t\t\n      PUSH FFFFFFFF\t\t\t\n      AND \t\t\t\n      PUSH E0\t\t\t\n      SHL \t\t\t\n      DUP2 \t\t\t\n      MSTORE \t\t\t\n      PUSH 4\t\t\t\n      ADD \t\t\t\n      PUSH 20\t\t\t\n      PUSH 40\t\t\t\n      MLOAD \t\t\t\n      DUP1 \t\t\t\n      DUP4 \t\t\t\n      SUB \t\t\t\n      DUP2 \t\t\t\n      DUP7 \t\t\t\n      GAS \t\t\t\n      STATICCALL \t\t\t\n      ISZERO \t\t\t\n      DUP1 \t\t\t\n      ISZERO \t\t\t\n      PUSH [tag] 661\t\t\t\n      JUMPI \t\t\t\n      RETURNDATASIZE \t\t\t\n      PUSH 0\t\t\t\n      DUP1 \t\t\t\n      RETURNDATACOPY \t\t\t\n      RETURNDATASIZE \t\t\t\n      PUSH 0\t\t\t\n      REVERT \t\t\t\n    tag 661\t\t\t\n      JUMPDEST \t\t\t\n      POP \t\t\t\n      POP \t\t\t\n      POP \t\t\t\n      POP \t\t\t\n      PUSH 40\t\t\t\n      MLOAD \t\t\t\n      RETURNDATASIZE \t\t\t\n      PUSH 1F\t\t\t\n      NOT \t\t\t\n      PUSH 1F\t\t\t\n      DUP3 \t\t\t\n      ADD \t\t\t\n      AND \t\t\t\n      DUP3 \t\t\t\n      ADD \t\t\t\n      DUP1 \t\t\t\n      PUSH 40\t\t\t\n      MSTORE \t\t\t\n      POP \t\t\t\n      DUP2 \t\t\t\n      ADD \t\t\t\n      SWAP1 \t\t\t\n      PUSH [tag] 662\t\t\t\n      SWAP2 \t\t\t\n      SWAP1 \t\t\t\n      PUSH [tag] 280\t\t\t\n      JUMP \t\t\t\n    tag 662\t\t\t\n      JUMPDEST \t\t\t\n      SWAP1 \t\t\t\n      POP \t\t\t\n      PUSH 0\t\t\t\n      PUSH FFFFFFFFFFFFFFFFFFFFFFFFFFFFFFFFFFFFFFFF\t\t\t\n      AND \t\t\t\n      DUP2 \t\t\t\n      PUSH FFFFFFFFFFFFFFFFFFFFFFFFFFFFFFFFFFFFFFFF\t\t\t\n      AND \t\t\t\n      SUB \t\t\t\n      PUSH [tag] 663\t\t\t\n      JUMPI \t\t\t\n      PUSH 40\t\t\t\n      MLOAD \t\t\t\n      PUSH 5373352A00000000000000000000000000000000000000000000000000000000\t\t\t\n      DUP2 \t\t\t\n      MSTORE \t\t\t\n      PUSH 4\t\t\t\n      ADD \t\t\t\n      PUSH 40\t\t\t\n      MLOAD \t\t\t\n      DUP1 \t\t\t\n      SWAP2 \t\t\t\n      SUB \t\t\t\n      SWAP1 \t\t\t\n      REVERT \t\t\t\n    tag 663\t\t\t\n      JUMPDEST \t\t\t\n      PUSH [tag] 664\t\t\t\n      CALLER \t\t\t\n      PUSHIMMUTABLE 1386\t\t\t\n      DUP5 \t\t\t\n      DUP5 \t\t\t\n      PUSH FFFFFFFFFFFFFFFFFFFFFFFFFFFFFFFFFFFFFFFF\t\t\t\n      AND \t\t\t\n      PUSH [tag] 665\t\t\t\n      SWAP1 \t\t\t\n      SWAP4 \t\t\t\n      SWAP3 \t\t\t\n      SWAP2 \t\t\t\n      SWAP1 \t\t\t\n      PUSH FFFFFFFF\t\t\t\n      AND \t\t\t\n      JUMP \t\t\t\n    tag 664\t\t\t\n      JUMPDEST \t\t\t\n      POP \t\t\t\n      POP \t\t\t\n      JUMP \t\t\t\n    tag 665\t\t\t\n      JUMPDEST \t\t\t\n      PUSH [tag] 667\t\t\t\n      DUP5 \t\t\t\n      DUP6 \t\t\t\n      PUSH FFFFFFFFFFFFFFFFFFFFFFFFFFFFFFFFFFFFFFFF\t\t\t\n      AND \t\t\t\n      PUSH 23B872DD\t\t\t\n      DUP7 \t\t\t\n      DUP7 \t\t\t\n      DUP7 \t\t\t\n      PUSH 40\t\t\t\n      MLOAD \t\t\t\n      PUSH 24\t\t\t\n      ADD \t\t\t\n      PUSH [tag] 668\t\t\t\n      SWAP4 \t\t\t\n      SWAP3 \t\t\t\n      SWAP2 \t\t\t\n      SWAP1 \t\t\t\n      PUSH [tag] 669\t\t\t\n      JUMP \t\t\t\n    tag 668\t\t\t\n      JUMPDEST \t\t\t\n      PUSH 40\t\t\t\n      MLOAD \t\t\t\n      PUSH 20\t\t\t\n      DUP2 \t\t\t\n      DUP4 \t\t\t\n      SUB \t\t\t\n      SUB \t\t\t\n      DUP2 \t\t\t\n      MSTORE \t\t\t\n      SWAP1 \t\t\t\n      PUSH 40\t\t\t\n      MSTORE \t\t\t\n      SWAP2 \t\t\t\n      POP \t\t\t\n      PUSH E0\t\t\t\n      SHL \t\t\t\n      PUSH 20\t\t\t\n      DUP3 \t\t\t\n      ADD \t\t\t\n      DUP1 \t\t\t\n      MLOAD \t\t\t\n      PUSH FFFFFFFFFFFFFFFFFFFFFFFFFFFFFFFFFFFFFFFFFFFFFFFFFFFFFFFF\t\t\t\n      DUP4 \t\t\t\n      DUP2 \t\t\t\n      DUP4 \t\t\t\n      AND \t\t\t\n      OR \t\t\t\n      DUP4 \t\t\t\n      MSTORE \t\t\t\n      POP \t\t\t\n      POP \t\t\t\n      POP \t\t\t\n      POP \t\t\t\n      PUSH [tag] 670\t\t\t\n      JUMP \t\t\t\n    tag 667\t\t\t\n      JUMPDEST \t\t\t\n      POP \t\t\t\n      POP \t\t\t\n      POP \t\t\t\n      POP \t\t\t\n      JUMP \t\t\t\n    tag 670\t\t\t\n      JUMPDEST \t\t\t\n      PUSH 0\t\t\t\n      DUP1 \t\t\t\n      PUSH 20\t\t\t\n      PUSH 0\t\t\t\n      DUP5 \t\t\t\n      MLOAD \t\t\t\n      PUSH 20\t\t\t\n      DUP7 \t\t\t\n      ADD \t\t\t\n      PUSH 0\t\t\t\n      DUP9 \t\t\t\n      GAS \t\t\t\n      CALL \t\t\t\n      DUP1 \t\t\t\n      PUSH [tag] 672\t\t\t\n      JUMPI \t\t\t\n      PUSH 40\t\t\t\n      MLOAD \t\t\t\n      RETURNDATASIZE \t\t\t\n      PUSH 0\t\t\t\n      DUP3 \t\t\t\n      RETURNDATACOPY \t\t\t\n      RETURNDATASIZE \t\t\t\n      DUP2 \t\t\t\n      REVERT \t\t\t\n    tag 672\t\t\t\n      JUMPDEST \t\t\t\n      RETURNDATASIZE \t\t\t\n      SWAP3 \t\t\t\n      POP \t\t\t\n      PUSH 0\t\t\t\n      MLOAD \t\t\t\n      SWAP2 \t\t\t\n      POP \t\t\t\n      POP \t\t\t\n      PUSH 0\t\t\t\n      DUP3 \t\t\t\n      EQ \t\t\t\n      PUSH [tag] 673\t\t\t\n      JUMPI \t\t\t\n      PUSH 1\t\t\t\n      DUP2 \t\t\t\n      EQ \t\t\t\n      ISZERO \t\t\t\n      PUSH [tag] 674\t\t\t\n      JUMP \t\t\t\n    tag 673\t\t\t\n      JUMPDEST \t\t\t\n      PUSH 0\t\t\t\n      DUP5 \t\t\t\n      PUSH FFFFFFFFFFFFFFFFFFFFFFFFFFFFFFFFFFFFFFFF\t\t\t\n      AND \t\t\t\n      EXTCODESIZE \t\t\t\n      EQ \t\t\t\n    tag 674\t\t\t\n      JUMPDEST \t\t\t\n      ISZERO \t\t\t\n      PUSH [tag] 675\t\t\t\n      JUMPI \t\t\t\n      DUP4 \t\t\t\n      PUSH 40\t\t\t\n      MLOAD \t\t\t\n      PUSH 5274AFE700000000000000000000000000000000000000000000000000000000\t\t\t\n      DUP2 \t\t\t\n      MSTORE \t\t\t\n      PUSH 4\t\t\t\n      ADD \t\t\t\n      PUSH [tag] 676\t\t\t\n      SWAP2 \t\t\t\n      SWAP1 \t\t\t\n      PUSH [tag] 74\t\t\t\n      JUMP \t\t\t\n    tag 676\t\t\t\n      JUMPDEST \t\t\t\n      PUSH 40\t\t\t\n      MLOAD \t\t\t\n      DUP1 \t\t\t\n      SWAP2 \t\t\t\n      SUB \t\t\t\n      SWAP1 \t\t\t\n      REVERT \t\t\t\n    tag 675\t\t\t\n      JUMPDEST \t\t\t\n      POP \t\t\t\n      POP \t\t\t\n      POP \t\t\t\n      POP \t\t\t\n      JUMP \t\t\t\n    tag 273\t\t\t\n      JUMPDEST \t\t\t\n      PUSH 40\t\t\t\n      MLOAD \t\t\t\n      DUP1 \t\t\t\n      PUSH 40\t\t\t\n      ADD \t\t\t\n      PUSH 40\t\t\t\n      MSTORE \t\t\t\n      DUP1 \t\t\t\n      PUSH 0\t\t\t\n      DUP2 \t\t\t\n      MSTORE \t\t\t\n      PUSH 20\t\t\t\n      ADD \t\t\t\n      PUSH 0\t\t\t\n      DUP2 \t\t\t\n      MSTORE \t\t\t\n      POP \t\t\t\n      SWAP1 \t\t\t\n      JUMP \t\t\t\n    tag 275\t\t\t\n      JUMPDEST \t\t\t\n      PUSH 40\t\t\t\n      MLOAD \t\t\t\n      DUP1 \t\t\t\n      PUSH 40\t\t\t\n      ADD \t\t\t\n      PUSH 40\t\t\t\n      MSTORE \t\t\t\n      DUP1 \t\t\t\n      PUSH 0\t\t\t\n      DUP2 \t\t\t\n      MSTORE \t\t\t\n      PUSH 20\t\t\t\n      ADD \t\t\t\n      PUSH 0\t\t\t\n      DUP2 \t\t\t\n      MSTORE \t\t\t\n      POP \t\t\t\n      SWAP1 \t\t\t\n      JUMP \t\t\t\n    tag 291\t\t\t\n      JUMPDEST \t\t\t\n      PUSH 40\t\t\t\n      MLOAD \t\t\t\n      DUP1 \t\t\t\n      PUSH 40\t\t\t\n      ADD \t\t\t\n      PUSH 40\t\t\t\n      MSTORE \t\t\t\n      DUP1 \t\t\t\n      PUSH 0\t\t\t\n      DUP2 \t\t\t\n      MSTORE \t\t\t\n      PUSH 20\t\t\t\n      ADD \t\t\t\n      PUSH 60\t\t\t\n      DUP2 \t\t\t\n      MSTORE \t\t\t\n      POP \t\t\t\n      SWAP1 \t\t\t\n      JUMP \t\t\t\n    tag 324\t\t\t\n      JUMPDEST \t\t\t\n      PUSH 40\t\t\t\n      MLOAD \t\t\t\n      DUP1 \t\t\t\n      PUSH 40\t\t\t\n      ADD \t\t\t\n      PUSH 40\t\t\t\n      MSTORE \t\t\t\n      DUP1 \t\t\t\n      PUSH 0\t\t\t\n      DUP2 \t\t\t\n      MSTORE \t\t\t\n      PUSH 20\t\t\t\n      ADD \t\t\t\n      PUSH 0\t\t\t\n      DUP2 \t\t\t\n      MSTORE \t\t\t\n      POP \t\t\t\n      SWAP1 \t\t\t\n      JUMP \t\t\t\n    tag 415\t\t\t\n      JUMPDEST \t\t\t\n      PUSH 40\t\t\t\n      MLOAD \t\t\t\n      DUP1 \t\t\t\n      PUSH 60\t\t\t\n      ADD \t\t\t\n      PUSH 40\t\t\t\n      MSTORE \t\t\t\n      DUP1 \t\t\t\n      PUSH 0\t\t\t\n      DUP1 \t\t\t\n      NOT \t\t\t\n      AND \t\t\t\n      DUP2 \t\t\t\n      MSTORE \t\t\t\n      PUSH 20\t\t\t\n      ADD \t\t\t\n      PUSH 0\t\t\t\n      PUSH FFFFFFFFFFFFFFFF\t\t\t\n      AND \t\t\t\n      DUP2 \t\t\t\n      MSTORE \t\t\t\n      PUSH 20\t\t\t\n      ADD \t\t\t\n      PUSH [tag] 677\t\t\t\n      PUSH [tag] 324\t\t\t\n      JUMP \t\t\t\n    tag 677\t\t\t\n      JUMPDEST \t\t\t\n      DUP2 \t\t\t\n      MSTORE \t\t\t\n      POP \t\t\t\n      SWAP1 \t\t\t\n      JUMP \t\t\t\n    tag 678\t\t\t-License-Identifier: MIT\\r\\npr...\n      JUMPDEST \t\t\t-License-Identifier: MIT\\r\\npr...\n      PUSH 0\t\t\t\\r\\n// T\n      DUP2 \t\t\ton of\n      MLOAD \t\t\tentation of \n      SWAP1 \t\t\tple implementation of \n      POP \t\t\tple implementation of \n      SWAP2 \t\t\t-License-Identifier: MIT\\r\\npr...\n      SWAP1 \t\t\t-License-Identifier: MIT\\r\\npr...\n      POP \t\t\t-License-Identifier: MIT\\r\\npr...\n      JUMP \t\t\t-License-Identifier: MIT\\r\\npr...\n    tag 679\t\t\thain Fungible Token) contract\\...\n      JUMPDEST \t\t\thain Fungible Token) contract\\...\n      PUSH 0\t\t\tis contract\n      DUP3 \t\t\tfrom \"\n      DUP3 \t\t\tle \n      MSTORE \t\t\t{ Ownable } from \"@\n      PUSH 20\t\t\table\n      DUP3 \t\t\ts/O\n      ADD \t\t\tccess/Ownable.\n      SWAP1 \t\t\tlin/contracts/access/Ownable.\n      POP \t\t\tlin/contracts/access/Ownable.\n      SWAP3 \t\t\thain Fungible Token) contract\\...\n      SWAP2 \t\t\thain Fungible Token) contract\\...\n      POP \t\t\thain Fungible Token) contract\\...\n      POP \t\t\thain Fungible Token) contract\\...\n      JUMP \t\t\thain Fungible Token) contract\\...\n    tag 680\t\t\tt { OFT } from \"@layerzerolabs...\n      JUMPDEST \t\t\tt { OFT } from \"@layerzerolabs...\n      PUSH 0\t\t\tF\n    tag 841\t\t\t  constructor(\\r\\n        stri...\n      JUMPDEST \t\t\t  constructor(\\r\\n        stri...\n      DUP4 \t\t\t\\r\\n    \n      DUP2 \t\t\to\n      LT \t\t\tuctor(\\r\\n     \n      ISZERO \t\t\t  constructor(\\r\\n        stri...\n      PUSH [tag] 843\t\t\t  constructor(\\r\\n        stri...\n      JUMPI \t\t\t  constructor(\\r\\n        stri...\n      DUP1 \t\t\ti\n      DUP3 \t\t\t_in\n      ADD \t\t\t256 _initia\n      MLOAD \t\t\t  uint256 _initial\n      DUP2 \t\t\t \n      DUP5 \t\t\t,\\r\\n\n      ADD \t\t\tmbol,\\r\\n    \n      MSTORE \t\t\tory _symbol,\\r\\n        uint25...\n      PUSH 20\t\t\ty \n      DUP2 \t\t\tm\n      ADD \t\t\tg memory _\n      SWAP1 \t\t\tstring memory _\n      POP \t\t\tstring memory _\n      PUSH [tag] 841\t\t\t  constructor(\\r\\n        stri...\n      JUMP \t\t\t  constructor(\\r\\n        stri...\n    tag 843\t\t\t  constructor(\\r\\n        stri...\n      JUMPDEST \t\t\t  constructor(\\r\\n        stri...\n      PUSH 0\t\t\t \n      DUP5 \t\t\t,\\r\\n   \n      DUP5 \t\t\tpoi\n      ADD \t\t\tzEndpoint,\\r\\n    \n      MSTORE \t\t\tress _lzEndpoint,\\r\\n        \n      POP \t\t\tcontract MyOFT is OFT {\\r\\n\\r\\...\n      POP \t\t\tt { OFT } from \"@layerzerolabs...\n      POP \t\t\tt { OFT } from \"@layerzerolabs...\n      POP \t\t\tt { OFT } from \"@layerzerolabs...\n      JUMP \t\t\tt { OFT } from \"@layerzerolabs...\n    tag 681\t\t\tegate\\r\\n    ) OFT(_name, _sym...\n      JUMPDEST \t\t\tegate\\r\\n    ) OFT(_name, _sym...\n      PUSH 0\t\t\tint, _\n      PUSH 1F\t\t\t(_\n      NOT \t\t\tmint(_d\n      PUSH 1F\t\t\t  \n      DUP4 \t\t\t{\\r\\n  \n      ADD \t\t\tte) {\\r\\n       \n      AND \t\t\tlegate) {\\r\\n        _mint(_de\n      SWAP1 \t\t\twnable(_delegate) {\\r\\n       ...\n      POP \t\t\twnable(_delegate) {\\r\\n       ...\n      SWAP2 \t\t\tegate\\r\\n    ) OFT(_name, _sym...\n      SWAP1 \t\t\tegate\\r\\n    ) OFT(_name, _sym...\n      POP \t\t\tegate\\r\\n    ) OFT(_name, _sym...\n      JUMP \t\t\tegate\\r\\n    ) OFT(_name, _sym...\n    tag 682\t\t\ttialSupply * 10 ** decimals())...\n      JUMPDEST \t\t\ttialSupply * 10 ** decimals())...\n      PUSH 0\t\t\t\n      PUSH [tag] 846\t\t\t\n      DUP3 \t\t\t\n      PUSH [tag] 678\t\t\t\n      JUMP \t\t\t\n    tag 846\t\t\t\n      JUMPDEST \t\t\t\n      PUSH [tag] 847\t\t\t\n      DUP2 \t\t\t\n      DUP6 \t\t\t\n      PUSH [tag] 679\t\t\t\n      JUMP \t\t\t\n    tag 847\t\t\t\n      JUMPDEST \t\t\t\n      SWAP4 \t\t\t\n      POP \t\t\t\n      PUSH [tag] 848\t\t\t\n      DUP2 \t\t\t\n      DUP6 \t\t\t\n      PUSH 20\t\t\t\n      DUP7 \t\t\t\n      ADD \t\t\t\n      PUSH [tag] 680\t\t\t\n      JUMP \t\t\t\n    tag 848\t\t\t\n      JUMPDEST \t\t\t\n      PUSH [tag] 849\t\t\t\n      DUP2 \t\t\t\n      PUSH [tag] 681\t\t\t\n      JUMP \t\t\t\n    tag 849\t\t\t\n      JUMPDEST \t\t\t\n      DUP5 \t\t\t\n      ADD \t\t\t\n      SWAP2 \t\t\t\n      POP \t\t\t\n      POP \t\t\t\n      SWAP3 \t\t\ttialSupply * 10 ** decimals())...\n      SWAP2 \t\t\ttialSupply * 10 ** decimals())...\n      POP \t\t\ttialSupply * 10 ** decimals())...\n      POP \t\t\ttialSupply * 10 ** decimals())...\n      JUMP \t\t\ttialSupply * 10 ** decimals())...\n    tag 55\t\t\t\n      JUMPDEST \t\t\t\n      PUSH 0\t\t\t\n      PUSH 20\t\t\t\n      DUP3 \t\t\t\n      ADD \t\t\t\n      SWAP1 \t\t\t\n      POP \t\t\t\n      DUP2 \t\t\t\n      DUP2 \t\t\t\n      SUB \t\t\t\n      PUSH 0\t\t\t\n      DUP4 \t\t\t\n      ADD \t\t\t\n      MSTORE \t\t\t\n      PUSH [tag] 851\t\t\t\n      DUP2 \t\t\t\n      DUP5 \t\t\t\n      PUSH [tag] 682\t\t\t\n      JUMP \t\t\t\n    tag 851\t\t\t\n      JUMPDEST \t\t\t\n      SWAP1 \t\t\t\n      POP \t\t\t\n      SWAP3 \t\t\t\n      SWAP2 \t\t\t\n      POP \t\t\t\n      POP \t\t\t\n      JUMP \t\t\t\n    tag 683\t\t\t\n      JUMPDEST \t\t\t\n      PUSH 0\t\t\t\n      PUSH 40\t\t\t\n      MLOAD \t\t\t\n      SWAP1 \t\t\t\n      POP \t\t\t\n      SWAP1 \t\t\t\n      JUMP \t\t\t\n    tag 684\t\t\t\n      JUMPDEST \t\t\t\n      PUSH 0\t\t\t\n      DUP1 \t\t\t\n      REVERT \t\t\t\n    tag 685\t\t\t\n      JUMPDEST \t\t\t\n      PUSH 0\t\t\t\n      DUP1 \t\t\t\n      REVERT \t\t\t\n    tag 686\t\t\t\n      JUMPDEST \t\t\t\n      PUSH 0\t\t\t\n      PUSH FFFFFFFFFFFFFFFFFFFFFFFFFFFFFFFFFFFFFFFF\t\t\t\n      DUP3 \t\t\t\n      AND \t\t\t\n      SWAP1 \t\t\t\n      POP \t\t\t\n      SWAP2 \t\t\t\n      SWAP1 \t\t\t\n      POP \t\t\t\n      JUMP \t\t\t\n    tag 687\t\t\t\n      JUMPDEST \t\t\t\n      PUSH 0\t\t\t\n      PUSH [tag] 857\t\t\t\n      DUP3 \t\t\t\n      PUSH [tag] 686\t\t\t\n      JUMP \t\t\t\n    tag 857\t\t\t\n      JUMPDEST \t\t\t\n      SWAP1 \t\t\t\n      POP \t\t\t\n      SWAP2 \t\t\t\n      SWAP1 \t\t\t\n      POP \t\t\t\n      JUMP \t\t\t\n    tag 688\t\t\t\n      JUMPDEST \t\t\t\n      PUSH [tag] 859\t\t\t\n      DUP2 \t\t\t\n      PUSH [tag] 687\t\t\t\n      JUMP \t\t\t\n    tag 859\t\t\t\n      JUMPDEST \t\t\t\n      DUP2 \t\t\t\n      EQ \t\t\t\n      PUSH [tag] 860\t\t\t\n      JUMPI \t\t\t\n      PUSH 0\t\t\t\n      DUP1 \t\t\t\n      REVERT \t\t\t\n    tag 860\t\t\t\n      JUMPDEST \t\t\t\n      POP \t\t\t\n      JUMP \t\t\t\n    tag 689\t\t\t\n      JUMPDEST \t\t\t\n      PUSH 0\t\t\t\n      DUP2 \t\t\t\n      CALLDATALOAD \t\t\t\n      SWAP1 \t\t\t\n      POP \t\t\t\n      PUSH [tag] 862\t\t\t\n      DUP2 \t\t\t\n      PUSH [tag] 688\t\t\t\n      JUMP \t\t\t\n    tag 862\t\t\t\n      JUMPDEST \t\t\t\n      SWAP3 \t\t\t\n      SWAP2 \t\t\t\n      POP \t\t\t\n      POP \t\t\t\n      JUMP \t\t\t\n    tag 690\t\t\t\n      JUMPDEST \t\t\t\n      PUSH 0\t\t\t\n      DUP2 \t\t\t\n      SWAP1 \t\t\t\n      POP \t\t\t\n      SWAP2 \t\t\t\n      SWAP1 \t\t\t\n      POP \t\t\t\n      JUMP \t\t\t\n    tag 691\t\t\t\n      JUMPDEST \t\t\t\n      PUSH [tag] 865\t\t\t\n      DUP2 \t\t\t\n      PUSH [tag] 690\t\t\t\n      JUMP \t\t\t\n    tag 865\t\t\t\n      JUMPDEST \t\t\t\n      DUP2 \t\t\t\n      EQ \t\t\t\n      PUSH [tag] 866\t\t\t\n      JUMPI \t\t\t\n      PUSH 0\t\t\t\n      DUP1 \t\t\t\n      REVERT \t\t\t\n    tag 866\t\t\t\n      JUMPDEST \t\t\t\n      POP \t\t\t\n      JUMP \t\t\t\n    tag 692\t\t\t\n      JUMPDEST \t\t\t\n      PUSH 0\t\t\t\n      DUP2 \t\t\t\n      CALLDATALOAD \t\t\t\n      SWAP1 \t\t\t\n      POP \t\t\t\n      PUSH [tag] 868\t\t\t\n      DUP2 \t\t\t\n      PUSH [tag] 691\t\t\t\n      JUMP \t\t\t\n    tag 868\t\t\t\n      JUMPDEST \t\t\t\n      SWAP3 \t\t\t\n      SWAP2 \t\t\t\n      POP \t\t\t\n      POP \t\t\t\n      JUMP \t\t\t\n    tag 59\t\t\t\n      JUMPDEST \t\t\t\n      PUSH 0\t\t\t\n      DUP1 \t\t\t\n      PUSH 40\t\t\t\n      DUP4 \t\t\t\n      DUP6 \t\t\t\n      SUB \t\t\t\n      SLT \t\t\t\n      ISZERO \t\t\t\n      PUSH [tag] 870\t\t\t\n      JUMPI \t\t\t\n      PUSH [tag] 871\t\t\t\n      PUSH [tag] 684\t\t\t\n      JUMP \t\t\t\n    tag 871\t\t\t\n      JUMPDEST \t\t\t\n    tag 870\t\t\t\n      JUMPDEST \t\t\t\n      PUSH 0\t\t\t\n      PUSH [tag] 872\t\t\t\n      DUP6 \t\t\t\n      DUP3 \t\t\t\n      DUP7 \t\t\t\n      ADD \t\t\t\n      PUSH [tag] 689\t\t\t\n      JUMP \t\t\t\n    tag 872\t\t\t\n      JUMPDEST \t\t\t\n      SWAP3 \t\t\t\n      POP \t\t\t\n      POP \t\t\t\n      PUSH 20\t\t\t\n      PUSH [tag] 873\t\t\t\n      DUP6 \t\t\t\n      DUP3 \t\t\t\n      DUP7 \t\t\t\n      ADD \t\t\t\n      PUSH [tag] 692\t\t\t\n      JUMP \t\t\t\n    tag 873\t\t\t\n      JUMPDEST \t\t\t\n      SWAP2 \t\t\t\n      POP \t\t\t\n      POP \t\t\t\n      SWAP3 \t\t\t\n      POP \t\t\t\n      SWAP3 \t\t\t\n      SWAP1 \t\t\t\n      POP \t\t\t\n      JUMP \t\t\t\n    tag 693\t\t\t\n      JUMPDEST \t\t\t\n      PUSH 0\t\t\t\n      DUP2 \t\t\t\n      ISZERO \t\t\t\n      ISZERO \t\t\t\n      SWAP1 \t\t\t\n      POP \t\t\t\n      SWAP2 \t\t\t\n      SWAP1 \t\t\t\n      POP \t\t\t\n      JUMP \t\t\t\n    tag 694\t\t\t\n      JUMPDEST \t\t\t\n      PUSH [tag] 876\t\t\t\n      DUP2 \t\t\t\n      PUSH [tag] 693\t\t\t\n      JUMP \t\t\t\n    tag 876\t\t\t\n      JUMPDEST \t\t\t\n      DUP3 \t\t\t\n      MSTORE \t\t\t\n      POP \t\t\t\n      POP \t\t\t\n      JUMP \t\t\t\n    tag 62\t\t\t\n      JUMPDEST \t\t\t\n      PUSH 0\t\t\t\n      PUSH 20\t\t\t\n      DUP3 \t\t\t\n      ADD \t\t\t\n      SWAP1 \t\t\t\n      POP \t\t\t\n      PUSH [tag] 878\t\t\t\n      PUSH 0\t\t\t\n      DUP4 \t\t\t\n      ADD \t\t\t\n      DUP5 \t\t\t\n      PUSH [tag] 694\t\t\t\n      JUMP \t\t\t\n    tag 878\t\t\t\n      JUMPDEST \t\t\t\n      SWAP3 \t\t\t\n      SWAP2 \t\t\t\n      POP \t\t\t\n      POP \t\t\t\n      JUMP \t\t\t\n    tag 695\t\t\t\n      JUMPDEST \t\t\t\n      PUSH 0\t\t\t\n      DUP1 \t\t\t\n      REVERT \t\t\t\n    tag 696\t\t\t\n      JUMPDEST \t\t\t\n      PUSH 0\t\t\t\n      PUSH E0\t\t\t\n      DUP3 \t\t\t\n      DUP5 \t\t\t\n      SUB \t\t\t\n      SLT \t\t\t\n      ISZERO \t\t\t\n      PUSH [tag] 881\t\t\t\n      JUMPI \t\t\t\n      PUSH [tag] 882\t\t\t\n      PUSH [tag] 695\t\t\t\n      JUMP \t\t\t\n    tag 882\t\t\t\n      JUMPDEST \t\t\t\n    tag 881\t\t\t\n      JUMPDEST \t\t\t\n      DUP2 \t\t\t\n      SWAP1 \t\t\t\n      POP \t\t\t\n      SWAP3 \t\t\t\n      SWAP2 \t\t\t\n      POP \t\t\t\n      POP \t\t\t\n      JUMP \t\t\t\n    tag 66\t\t\t\n      JUMPDEST \t\t\t\n      PUSH 0\t\t\t\n      PUSH 20\t\t\t\n      DUP3 \t\t\t\n      DUP5 \t\t\t\n      SUB \t\t\t\n      SLT \t\t\t\n      ISZERO \t\t\t\n      PUSH [tag] 884\t\t\t\n      JUMPI \t\t\t\n      PUSH [tag] 885\t\t\t\n      PUSH [tag] 684\t\t\t\n      JUMP \t\t\t\n    tag 885\t\t\t\n      JUMPDEST \t\t\t\n    tag 884\t\t\t\n      JUMPDEST \t\t\t\n      PUSH 0\t\t\t\n      DUP3 \t\t\t\n      ADD \t\t\t\n      CALLDATALOAD \t\t\t\n      PUSH FFFFFFFFFFFFFFFF\t\t\t\n      DUP2 \t\t\t\n      GT \t\t\t\n      ISZERO \t\t\t\n      PUSH [tag] 886\t\t\t\n      JUMPI \t\t\t\n      PUSH [tag] 887\t\t\t\n      PUSH [tag] 685\t\t\t\n      JUMP \t\t\t\n    tag 887\t\t\t\n      JUMPDEST \t\t\t\n    tag 886\t\t\t\n      JUMPDEST \t\t\t\n      PUSH [tag] 888\t\t\t\n      DUP5 \t\t\t\n      DUP3 \t\t\t\n      DUP6 \t\t\t\n      ADD \t\t\t\n      PUSH [tag] 696\t\t\t\n      JUMP \t\t\t\n    tag 888\t\t\t\n      JUMPDEST \t\t\t\n      SWAP2 \t\t\t\n      POP \t\t\t\n      POP \t\t\t\n      SWAP3 \t\t\t\n      SWAP2 \t\t\t\n      POP \t\t\t\n      POP \t\t\t\n      JUMP \t\t\t\n    tag 697\t\t\t\n      JUMPDEST \t\t\t\n      PUSH [tag] 890\t\t\t\n      DUP2 \t\t\t\n      PUSH [tag] 690\t\t\t\n      JUMP \t\t\t\n    tag 890\t\t\t\n      JUMPDEST \t\t\t\n      DUP3 \t\t\t\n      MSTORE \t\t\t\n      POP \t\t\t\n      POP \t\t\t\n      JUMP \t\t\t\n    tag 698\t\t\t\n      JUMPDEST \t\t\t\n      PUSH 40\t\t\t\n      DUP3 \t\t\t\n      ADD \t\t\t\n      PUSH 0\t\t\t\n      DUP3 \t\t\t\n      ADD \t\t\t\n      MLOAD \t\t\t\n      PUSH [tag] 892\t\t\t\n      PUSH 0\t\t\t\n      DUP6 \t\t\t\n      ADD \t\t\t\n      DUP3 \t\t\t\n      PUSH [tag] 697\t\t\t\n      JUMP \t\t\t\n    tag 892\t\t\t\n      JUMPDEST \t\t\t\n      POP \t\t\t\n      PUSH 20\t\t\t\n      DUP3 \t\t\t\n      ADD \t\t\t\n      MLOAD \t\t\t\n      PUSH [tag] 893\t\t\t\n      PUSH 20\t\t\t\n      DUP6 \t\t\t\n      ADD \t\t\t\n      DUP3 \t\t\t\n      PUSH [tag] 697\t\t\t\n      JUMP \t\t\t\n    tag 893\t\t\t\n      JUMPDEST \t\t\t\n      POP \t\t\t\n      POP \t\t\t\n      POP \t\t\t\n      POP \t\t\t\n      JUMP \t\t\t\n    tag 699\t\t\t\n      JUMPDEST \t\t\t\n      PUSH 0\t\t\t\n      DUP2 \t\t\t\n      MLOAD \t\t\t\n      SWAP1 \t\t\t\n      POP \t\t\t\n      SWAP2 \t\t\t\n      SWAP1 \t\t\t\n      POP \t\t\t\n      JUMP \t\t\t\n    tag 700\t\t\t\n      JUMPDEST \t\t\t\n      PUSH 0\t\t\t\n      DUP3 \t\t\t\n      DUP3 \t\t\t\n      MSTORE \t\t\t\n      PUSH 20\t\t\t\n      DUP3 \t\t\t\n      ADD \t\t\t\n      SWAP1 \t\t\t\n      POP \t\t\t\n      SWAP3 \t\t\t\n      SWAP2 \t\t\t\n      POP \t\t\t\n      POP \t\t\t\n      JUMP \t\t\t\n    tag 701\t\t\t\n      JUMPDEST \t\t\t\n      PUSH 0\t\t\t\n      DUP2 \t\t\t\n      SWAP1 \t\t\t\n      POP \t\t\t\n      PUSH 20\t\t\t\n      DUP3 \t\t\t\n      ADD \t\t\t\n      SWAP1 \t\t\t\n      POP \t\t\t\n      SWAP2 \t\t\t\n      SWAP1 \t\t\t\n      POP \t\t\t\n      JUMP \t\t\t\n    tag 702\t\t\t\n      JUMPDEST \t\t\t\n      PUSH 0\t\t\t\n      DUP2 \t\t\t\n      SWAP1 \t\t\t\n      POP \t\t\t\n      SWAP2 \t\t\t\n      SWAP1 \t\t\t\n      POP \t\t\t\n      JUMP \t\t\t\n    tag 703\t\t\t\n      JUMPDEST \t\t\t\n      PUSH [tag] 899\t\t\t\n      DUP2 \t\t\t\n      PUSH [tag] 702\t\t\t\n      JUMP \t\t\t\n    tag 899\t\t\t\n      JUMPDEST \t\t\t\n      DUP3 \t\t\t\n      MSTORE \t\t\t\n      POP \t\t\t\n      POP \t\t\t\n      JUMP \t\t\t\n    tag 704\t\t\t\n      JUMPDEST \t\t\t\n      PUSH 0\t\t\t\n      DUP3 \t\t\t\n      DUP3 \t\t\t\n      MSTORE \t\t\t\n      PUSH 20\t\t\t\n      DUP3 \t\t\t\n      ADD \t\t\t\n      SWAP1 \t\t\t\n      POP \t\t\t\n      SWAP3 \t\t\t\n      SWAP2 \t\t\t\n      POP \t\t\t\n      POP \t\t\t\n      JUMP \t\t\t\n    tag 705\t\t\t\n      JUMPDEST \t\t\t\n      PUSH 0\t\t\t\n      PUSH [tag] 902\t\t\t\n      DUP3 \t\t\t\n      PUSH [tag] 678\t\t\t\n      JUMP \t\t\t\n    tag 902\t\t\t\n      JUMPDEST \t\t\t\n      PUSH [tag] 903\t\t\t\n      DUP2 \t\t\t\n      DUP6 \t\t\t\n      PUSH [tag] 704\t\t\t\n      JUMP \t\t\t\n    tag 903\t\t\t\n      JUMPDEST \t\t\t\n      SWAP4 \t\t\t\n      POP \t\t\t\n      PUSH [tag] 904\t\t\t\n      DUP2 \t\t\t\n      DUP6 \t\t\t\n      PUSH 20\t\t\t\n      DUP7 \t\t\t\n      ADD \t\t\t\n      PUSH [tag] 680\t\t\t\n      JUMP \t\t\t\n    tag 904\t\t\t\n      JUMPDEST \t\t\t\n      PUSH [tag] 905\t\t\t\n      DUP2 \t\t\t\n      PUSH [tag] 681\t\t\t\n      JUMP \t\t\t\n    tag 905\t\t\t\n      JUMPDEST \t\t\t\n      DUP5 \t\t\t\n      ADD \t\t\t\n      SWAP2 \t\t\t\n      POP \t\t\t\n      POP \t\t\t\n      SWAP3 \t\t\t\n      SWAP2 \t\t\t\n      POP \t\t\t\n      POP \t\t\t\n      JUMP \t\t\t\n    tag 706\t\t\t\n      JUMPDEST \t\t\t\n      PUSH 0\t\t\t\n      PUSH 40\t\t\t\n      DUP4 \t\t\t\n      ADD \t\t\t\n      PUSH 0\t\t\t\n      DUP4 \t\t\t\n      ADD \t\t\t\n      MLOAD \t\t\t\n      PUSH [tag] 907\t\t\t\n      PUSH 0\t\t\t\n      DUP7 \t\t\t\n      ADD \t\t\t\n      DUP3 \t\t\t\n      PUSH [tag] 703\t\t\t\n      JUMP \t\t\t\n    tag 907\t\t\t\n      JUMPDEST \t\t\t\n      POP \t\t\t\n      PUSH 20\t\t\t\n      DUP4 \t\t\t\n      ADD \t\t\t\n      MLOAD \t\t\t\n      DUP5 \t\t\t\n      DUP3 \t\t\t\n      SUB \t\t\t\n      PUSH 20\t\t\t\n      DUP7 \t\t\t\n      ADD \t\t\t\n      MSTORE \t\t\t\n      PUSH [tag] 908\t\t\t\n      DUP3 \t\t\t\n      DUP3 \t\t\t\n      PUSH [tag] 705\t\t\t\n      JUMP \t\t\t\n    tag 908\t\t\t\n      JUMPDEST \t\t\t\n      SWAP2 \t\t\t\n      POP \t\t\t\n      POP \t\t\t\n      DUP1 \t\t\t\n      SWAP2 \t\t\t\n      POP \t\t\t\n      POP \t\t\t\n      SWAP3 \t\t\t\n      SWAP2 \t\t\t\n      POP \t\t\t\n      POP \t\t\t\n      JUMP \t\t\t\n    tag 707\t\t\t\n      JUMPDEST \t\t\t\n      PUSH 0\t\t\t\n      PUSH [tag] 910\t\t\t\n      DUP4 \t\t\t\n      DUP4 \t\t\t\n      PUSH [tag] 706\t\t\t\n      JUMP \t\t\t\n    tag 910\t\t\t\n      JUMPDEST \t\t\t\n      SWAP1 \t\t\t\n      POP \t\t\t\n      SWAP3 \t\t\t\n      SWAP2 \t\t\t\n      POP \t\t\t\n      POP \t\t\t\n      JUMP \t\t\t\n    tag 708\t\t\t\n      JUMPDEST \t\t\t\n      PUSH 0\t\t\t\n      PUSH 20\t\t\t\n      DUP3 \t\t\t\n      ADD \t\t\t\n      SWAP1 \t\t\t\n      POP \t\t\t\n      SWAP2 \t\t\t\n      SWAP1 \t\t\t\n      POP \t\t\t\n      JUMP \t\t\t\n    tag 709\t\t\t\n      JUMPDEST \t\t\t\n      PUSH 0\t\t\t\n      PUSH [tag] 913\t\t\t\n      DUP3 \t\t\t\n      PUSH [tag] 699\t\t\t\n      JUMP \t\t\t\n    tag 913\t\t\t\n      JUMPDEST \t\t\t\n      PUSH [tag] 914\t\t\t\n      DUP2 \t\t\t\n      DUP6 \t\t\t\n      PUSH [tag] 700\t\t\t\n      JUMP \t\t\t\n    tag 914\t\t\t\n      JUMPDEST \t\t\t\n      SWAP4 \t\t\t\n      POP \t\t\t\n      DUP4 \t\t\t\n      PUSH 20\t\t\t\n      DUP3 \t\t\t\n      MUL \t\t\t\n      DUP6 \t\t\t\n      ADD \t\t\t\n      PUSH [tag] 915\t\t\t\n      DUP6 \t\t\t\n      PUSH [tag] 701\t\t\t\n      JUMP \t\t\t\n    tag 915\t\t\t\n      JUMPDEST \t\t\t\n      DUP1 \t\t\t\n      PUSH 0\t\t\t\n    tag 916\t\t\t\n      JUMPDEST \t\t\t\n      DUP6 \t\t\t\n      DUP2 \t\t\t\n      LT \t\t\t\n      ISZERO \t\t\t\n      PUSH [tag] 918\t\t\t\n      JUMPI \t\t\t\n      DUP5 \t\t\t\n      DUP5 \t\t\t\n      SUB \t\t\t\n      DUP10 \t\t\t\n      MSTORE \t\t\t\n      DUP2 \t\t\t\n      MLOAD \t\t\t\n      PUSH [tag] 919\t\t\t\n      DUP6 \t\t\t\n      DUP3 \t\t\t\n      PUSH [tag] 707\t\t\t\n      JUMP \t\t\t\n    tag 919\t\t\t\n      JUMPDEST \t\t\t\n      SWAP5 \t\t\t\n      POP \t\t\t\n      PUSH [tag] 920\t\t\t\n      DUP4 \t\t\t\n      PUSH [tag] 708\t\t\t\n      JUMP \t\t\t\n    tag 920\t\t\t\n      JUMPDEST \t\t\t\n      SWAP3 \t\t\t\n      POP \t\t\t\n      PUSH 20\t\t\t\n      DUP11 \t\t\t\n      ADD \t\t\t\n      SWAP10 \t\t\t\n      POP \t\t\t\n      POP \t\t\t\n      PUSH 1\t\t\t\n      DUP2 \t\t\t\n      ADD \t\t\t\n      SWAP1 \t\t\t\n      POP \t\t\t\n      PUSH [tag] 916\t\t\t\n      JUMP \t\t\t\n    tag 918\t\t\t\n      JUMPDEST \t\t\t\n      POP \t\t\t\n      DUP3 \t\t\t\n      SWAP8 \t\t\t\n      POP \t\t\t\n      DUP8 \t\t\t\n      SWAP6 \t\t\t\n      POP \t\t\t\n      POP \t\t\t\n      POP \t\t\t\n      POP \t\t\t\n      POP \t\t\t\n      POP \t\t\t\n      SWAP3 \t\t\t\n      SWAP2 \t\t\t\n      POP \t\t\t\n      POP \t\t\t\n      JUMP \t\t\t\n    tag 710\t\t\t\n      JUMPDEST \t\t\t\n      PUSH 40\t\t\t\n      DUP3 \t\t\t\n      ADD \t\t\t\n      PUSH 0\t\t\t\n      DUP3 \t\t\t\n      ADD \t\t\t\n      MLOAD \t\t\t\n      PUSH [tag] 922\t\t\t\n      PUSH 0\t\t\t\n      DUP6 \t\t\t\n      ADD \t\t\t\n      DUP3 \t\t\t\n      PUSH [tag] 697\t\t\t\n      JUMP \t\t\t\n    tag 922\t\t\t\n      JUMPDEST \t\t\t\n      POP \t\t\t\n      PUSH 20\t\t\t\n      DUP3 \t\t\t\n      ADD \t\t\t\n      MLOAD \t\t\t\n      PUSH [tag] 923\t\t\t\n      PUSH 20\t\t\t\n      DUP6 \t\t\t\n      ADD \t\t\t\n      DUP3 \t\t\t\n      PUSH [tag] 697\t\t\t\n      JUMP \t\t\t\n    tag 923\t\t\t\n      JUMPDEST \t\t\t\n      POP \t\t\t\n      POP \t\t\t\n      POP \t\t\t\n      POP \t\t\t\n      JUMP \t\t\t\n    tag 69\t\t\t\n      JUMPDEST \t\t\t\n      PUSH 0\t\t\t\n      PUSH A0\t\t\t\n      DUP3 \t\t\t\n      ADD \t\t\t\n      SWAP1 \t\t\t\n      POP \t\t\t\n      PUSH [tag] 925\t\t\t\n      PUSH 0\t\t\t\n      DUP4 \t\t\t\n      ADD \t\t\t\n      DUP7 \t\t\t\n      PUSH [tag] 698\t\t\t\n      JUMP \t\t\t\n    tag 925\t\t\t\n      JUMPDEST \t\t\t\n      DUP2 \t\t\t\n      DUP2 \t\t\t\n      SUB \t\t\t\n      PUSH 40\t\t\t\n      DUP4 \t\t\t\n      ADD \t\t\t\n      MSTORE \t\t\t\n      PUSH [tag] 926\t\t\t\n      DUP2 \t\t\t\n      DUP6 \t\t\t\n      PUSH [tag] 709\t\t\t\n      JUMP \t\t\t\n    tag 926\t\t\t\n      JUMPDEST \t\t\t\n      SWAP1 \t\t\t\n      POP \t\t\t\n      PUSH [tag] 927\t\t\t\n      PUSH 60\t\t\t\n      DUP4 \t\t\t\n      ADD \t\t\t\n      DUP5 \t\t\t\n      PUSH [tag] 710\t\t\t\n      JUMP \t\t\t\n    tag 927\t\t\t\n      JUMPDEST \t\t\t\n      SWAP5 \t\t\t\n      SWAP4 \t\t\t\n      POP \t\t\t\n      POP \t\t\t\n      POP \t\t\t\n      POP \t\t\t\n      JUMP \t\t\t\n    tag 711\t\t\t\n      JUMPDEST \t\t\t\n      PUSH [tag] 929\t\t\t\n      DUP2 \t\t\t\n      PUSH [tag] 687\t\t\t\n      JUMP \t\t\t\n    tag 929\t\t\t\n      JUMPDEST \t\t\t\n      DUP3 \t\t\t\n      MSTORE \t\t\t\n      POP \t\t\t\n      POP \t\t\t\n      JUMP \t\t\t\n    tag 74\t\t\t\n      JUMPDEST \t\t\t\n      PUSH 0\t\t\t\n      PUSH 20\t\t\t\n      DUP3 \t\t\t\n      ADD \t\t\t\n      SWAP1 \t\t\t\n      POP \t\t\t\n      PUSH [tag] 931\t\t\t\n      PUSH 0\t\t\t\n      DUP4 \t\t\t\n      ADD \t\t\t\n      DUP5 \t\t\t\n      PUSH [tag] 711\t\t\t\n      JUMP \t\t\t\n    tag 931\t\t\t\n      JUMPDEST \t\t\t\n      SWAP3 \t\t\t\n      SWAP2 \t\t\t\n      POP \t\t\t\n      POP \t\t\t\n      JUMP \t\t\t\n    tag 712\t\t\t\n      JUMPDEST \t\t\t\n      PUSH 0\t\t\t\n      PUSH 60\t\t\t\n      DUP3 \t\t\t\n      DUP5 \t\t\t\n      SUB \t\t\t\n      SLT \t\t\t\n      ISZERO \t\t\t\n      PUSH [tag] 933\t\t\t\n      JUMPI \t\t\t\n      PUSH [tag] 934\t\t\t\n      PUSH [tag] 695\t\t\t\n      JUMP \t\t\t\n    tag 934\t\t\t\n      JUMPDEST \t\t\t\n    tag 933\t\t\t\n      JUMPDEST \t\t\t\n      DUP2 \t\t\t\n      SWAP1 \t\t\t\n      POP \t\t\t\n      SWAP3 \t\t\t\n      SWAP2 \t\t\t\n      POP \t\t\t\n      POP \t\t\t\n      JUMP \t\t\t\n    tag 713\t\t\t\n      JUMPDEST \t\t\t\n      PUSH 0\t\t\t\n      DUP2 \t\t\t\n      SWAP1 \t\t\t\n      POP \t\t\t\n      SWAP2 \t\t\t\n      SWAP1 \t\t\t\n      POP \t\t\t\n      JUMP \t\t\t\n    tag 714\t\t\t\n      JUMPDEST \t\t\t\n      PUSH [tag] 937\t\t\t\n      DUP2 \t\t\t\n      PUSH [tag] 713\t\t\t\n      JUMP \t\t\t\n    tag 937\t\t\t\n      JUMPDEST \t\t\t\n      DUP2 \t\t\t\n      EQ \t\t\t\n      PUSH [tag] 938\t\t\t\n      JUMPI \t\t\t\n      PUSH 0\t\t\t\n      DUP1 \t\t\t\n      REVERT \t\t\t\n    tag 938\t\t\t\n      JUMPDEST \t\t\t\n      POP \t\t\t\n      JUMP \t\t\t\n    tag 715\t\t\t\n      JUMPDEST \t\t\t\n      PUSH 0\t\t\t\n      DUP2 \t\t\t\n      CALLDATALOAD \t\t\t\n      SWAP1 \t\t\t\n      POP \t\t\t\n      PUSH [tag] 940\t\t\t\n      DUP2 \t\t\t\n      PUSH [tag] 714\t\t\t\n      JUMP \t\t\t\n    tag 940\t\t\t\n      JUMPDEST \t\t\t\n      SWAP3 \t\t\t\n      SWAP2 \t\t\t\n      POP \t\t\t\n      POP \t\t\t\n      JUMP \t\t\t\n    tag 716\t\t\t\n      JUMPDEST \t\t\t\n      PUSH 0\t\t\t\n      DUP1 \t\t\t\n      REVERT \t\t\t\n    tag 717\t\t\t\n      JUMPDEST \t\t\t\n      PUSH 0\t\t\t\n      DUP1 \t\t\t\n      REVERT \t\t\t\n    tag 718\t\t\t\n      JUMPDEST \t\t\t\n      PUSH 0\t\t\t\n      DUP1 \t\t\t\n      REVERT \t\t\t\n    tag 719\t\t\t\n      JUMPDEST \t\t\t\n      PUSH 0\t\t\t\n      DUP1 \t\t\t\n      DUP4 \t\t\t\n      PUSH 1F\t\t\t\n      DUP5 \t\t\t\n      ADD \t\t\t\n      SLT \t\t\t\n      PUSH [tag] 945\t\t\t\n      JUMPI \t\t\t\n      PUSH [tag] 946\t\t\t\n      PUSH [tag] 716\t\t\t\n      JUMP \t\t\t\n    tag 946\t\t\t\n      JUMPDEST \t\t\t\n    tag 945\t\t\t\n      JUMPDEST \t\t\t\n      DUP3 \t\t\t\n      CALLDATALOAD \t\t\t\n      SWAP1 \t\t\t\n      POP \t\t\t\n      PUSH FFFFFFFFFFFFFFFF\t\t\t\n      DUP2 \t\t\t\n      GT \t\t\t\n      ISZERO \t\t\t\n      PUSH [tag] 947\t\t\t\n      JUMPI \t\t\t\n      PUSH [tag] 948\t\t\t\n      PUSH [tag] 717\t\t\t\n      JUMP \t\t\t\n    tag 948\t\t\t\n      JUMPDEST \t\t\t\n    tag 947\t\t\t\n      JUMPDEST \t\t\t\n      PUSH 20\t\t\t\n      DUP4 \t\t\t\n      ADD \t\t\t\n      SWAP2 \t\t\t\n      POP \t\t\t\n      DUP4 \t\t\t\n      PUSH 1\t\t\t\n      DUP3 \t\t\t\n      MUL \t\t\t\n      DUP4 \t\t\t\n      ADD \t\t\t\n      GT \t\t\t\n      ISZERO \t\t\t\n      PUSH [tag] 949\t\t\t\n      JUMPI \t\t\t\n      PUSH [tag] 950\t\t\t\n      PUSH [tag] 718\t\t\t\n      JUMP \t\t\t\n    tag 950\t\t\t\n      JUMPDEST \t\t\t\n    tag 949\t\t\t\n      JUMPDEST \t\t\t\n      SWAP3 \t\t\t\n      POP \t\t\t\n      SWAP3 \t\t\t\n      SWAP1 \t\t\t\n      POP \t\t\t\n      JUMP \t\t\t\n    tag 77\t\t\t\n      JUMPDEST \t\t\t\n      PUSH 0\t\t\t\n      DUP1 \t\t\t\n      PUSH 0\t\t\t\n      DUP1 \t\t\t\n      PUSH 0\t\t\t\n      DUP1 \t\t\t\n      PUSH 0\t\t\t\n      PUSH E0\t\t\t\n      DUP9 \t\t\t\n      DUP11 \t\t\t\n      SUB \t\t\t\n      SLT \t\t\t\n      ISZERO \t\t\t\n      PUSH [tag] 952\t\t\t\n      JUMPI \t\t\t\n      PUSH [tag] 953\t\t\t\n      PUSH [tag] 684\t\t\t\n      JUMP \t\t\t\n    tag 953\t\t\t\n      JUMPDEST \t\t\t\n    tag 952\t\t\t\n      JUMPDEST \t\t\t\n      PUSH 0\t\t\t\n      PUSH [tag] 954\t\t\t\n      DUP11 \t\t\t\n      DUP3 \t\t\t\n      DUP12 \t\t\t\n      ADD \t\t\t\n      PUSH [tag] 712\t\t\t\n      JUMP \t\t\t\n    tag 954\t\t\t\n      JUMPDEST \t\t\t\n      SWAP8 \t\t\t\n      POP \t\t\t\n      POP \t\t\t\n      PUSH 60\t\t\t\n      PUSH [tag] 955\t\t\t\n      DUP11 \t\t\t\n      DUP3 \t\t\t\n      DUP12 \t\t\t\n      ADD \t\t\t\n      PUSH [tag] 715\t\t\t\n      JUMP \t\t\t\n    tag 955\t\t\t\n      JUMPDEST \t\t\t\n      SWAP7 \t\t\t\n      POP \t\t\t\n      POP \t\t\t\n      PUSH 80\t\t\t\n      DUP9 \t\t\t\n      ADD \t\t\t\n      CALLDATALOAD \t\t\t\n      PUSH FFFFFFFFFFFFFFFF\t\t\t\n      DUP2 \t\t\t\n      GT \t\t\t\n      ISZERO \t\t\t\n      PUSH [tag] 956\t\t\t\n      JUMPI \t\t\t\n      PUSH [tag] 957\t\t\t\n      PUSH [tag] 685\t\t\t\n      JUMP \t\t\t\n    tag 957\t\t\t\n      JUMPDEST \t\t\t\n    tag 956\t\t\t\n      JUMPDEST \t\t\t\n      PUSH [tag] 958\t\t\t\n      DUP11 \t\t\t\n      DUP3 \t\t\t\n      DUP12 \t\t\t\n      ADD \t\t\t\n      PUSH [tag] 719\t\t\t\n      JUMP \t\t\t\n    tag 958\t\t\t\n      JUMPDEST \t\t\t\n      SWAP6 \t\t\t\n      POP \t\t\t\n      SWAP6 \t\t\t\n      POP \t\t\t\n      POP \t\t\t\n      PUSH A0\t\t\t\n      PUSH [tag] 959\t\t\t\n      DUP11 \t\t\t\n      DUP3 \t\t\t\n      DUP12 \t\t\t\n      ADD \t\t\t\n      PUSH [tag] 689\t\t\t\n      JUMP \t\t\t\n    tag 959\t\t\t\n      JUMPDEST \t\t\t\n      SWAP4 \t\t\t\n      POP \t\t\t\n      POP \t\t\t\n      PUSH C0\t\t\t\n      DUP9 \t\t\t\n      ADD \t\t\t\n      CALLDATALOAD \t\t\t\n      PUSH FFFFFFFFFFFFFFFF\t\t\t\n      DUP2 \t\t\t\n      GT \t\t\t\n      ISZERO \t\t\t\n      PUSH [tag] 960\t\t\t\n      JUMPI \t\t\t\n      PUSH [tag] 961\t\t\t\n      PUSH [tag] 685\t\t\t\n      JUMP \t\t\t\n    tag 961\t\t\t\n      JUMPDEST \t\t\t\n    tag 960\t\t\t\n      JUMPDEST \t\t\t\n      PUSH [tag] 962\t\t\t\n      DUP11 \t\t\t\n      DUP3 \t\t\t\n      DUP12 \t\t\t\n      ADD \t\t\t\n      PUSH [tag] 719\t\t\t\n      JUMP \t\t\t\n    tag 962\t\t\t\n      JUMPDEST \t\t\t\n      SWAP3 \t\t\t\n      POP \t\t\t\n      SWAP3 \t\t\t\n      POP \t\t\t\n      POP \t\t\t\n      SWAP3 \t\t\t\n      SWAP6 \t\t\t\n      SWAP9 \t\t\t\n      SWAP2 \t\t\t\n      SWAP5 \t\t\t\n      SWAP8 \t\t\t\n      POP \t\t\t\n      SWAP3 \t\t\t\n      SWAP6 \t\t\t\n      POP \t\t\t\n      JUMP \t\t\t\n    tag 720\t\t\t\n      JUMPDEST \t\t\t\n      PUSH 0\t\t\t\n      PUSH FFFF\t\t\t\n      DUP3 \t\t\t\n      AND \t\t\t\n      SWAP1 \t\t\t\n      POP \t\t\t\n      SWAP2 \t\t\t\n      SWAP1 \t\t\t\n      POP \t\t\t\n      JUMP \t\t\t\n    tag 721\t\t\t\n      JUMPDEST \t\t\t\n      PUSH [tag] 965\t\t\t\n      DUP2 \t\t\t\n      PUSH [tag] 720\t\t\t\n      JUMP \t\t\t\n    tag 965\t\t\t\n      JUMPDEST \t\t\t\n      DUP3 \t\t\t\n      MSTORE \t\t\t\n      POP \t\t\t\n      POP \t\t\t\n      JUMP \t\t\t\n    tag 83\t\t\t\n      JUMPDEST \t\t\t\n      PUSH 0\t\t\t\n      PUSH 20\t\t\t\n      DUP3 \t\t\t\n      ADD \t\t\t\n      SWAP1 \t\t\t\n      POP \t\t\t\n      PUSH [tag] 967\t\t\t\n      PUSH 0\t\t\t\n      DUP4 \t\t\t\n      ADD \t\t\t\n      DUP5 \t\t\t\n      PUSH [tag] 721\t\t\t\n      JUMP \t\t\t\n    tag 967\t\t\t\n      JUMPDEST \t\t\t\n      SWAP3 \t\t\t\n      SWAP2 \t\t\t\n      POP \t\t\t\n      POP \t\t\t\n      JUMP \t\t\t\n    tag 722\t\t\t\n      JUMPDEST \t\t\t\n      PUSH 0\t\t\t\n      PUSH FFFFFFFF00000000000000000000000000000000000000000000000000000000\t\t\t\n      DUP3 \t\t\t\n      AND \t\t\t\n      SWAP1 \t\t\t\n      POP \t\t\t\n      SWAP2 \t\t\t\n      SWAP1 \t\t\t\n      POP \t\t\t\n      JUMP \t\t\t\n    tag 723\t\t\t\n      JUMPDEST \t\t\t\n      PUSH [tag] 970\t\t\t\n      DUP2 \t\t\t\n      PUSH [tag] 722\t\t\t\n      JUMP \t\t\t\n    tag 970\t\t\t\n      JUMPDEST \t\t\t\n      DUP3 \t\t\t\n      MSTORE \t\t\t\n      POP \t\t\t\n      POP \t\t\t\n      JUMP \t\t\t\n    tag 724\t\t\t\n      JUMPDEST \t\t\t\n      PUSH 0\t\t\t\n      PUSH FFFFFFFFFFFFFFFF\t\t\t\n      DUP3 \t\t\t\n      AND \t\t\t\n      SWAP1 \t\t\t\n      POP \t\t\t\n      SWAP2 \t\t\t\n      SWAP1 \t\t\t\n      POP \t\t\t\n      JUMP \t\t\t\n    tag 725\t\t\t\n      JUMPDEST \t\t\t\n      PUSH [tag] 973\t\t\t\n      DUP2 \t\t\t\n      PUSH [tag] 724\t\t\t\n      JUMP \t\t\t\n    tag 973\t\t\t\n      JUMPDEST \t\t\t\n      DUP3 \t\t\t\n      MSTORE \t\t\t\n      POP \t\t\t\n      POP \t\t\t\n      JUMP \t\t\t\n    tag 88\t\t\t\n      JUMPDEST \t\t\t\n      PUSH 0\t\t\t\n      PUSH 40\t\t\t\n      DUP3 \t\t\t\n      ADD \t\t\t\n      SWAP1 \t\t\t\n      POP \t\t\t\n      PUSH [tag] 975\t\t\t\n      PUSH 0\t\t\t\n      DUP4 \t\t\t\n      ADD \t\t\t\n      DUP6 \t\t\t\n      PUSH [tag] 723\t\t\t\n      JUMP \t\t\t\n    tag 975\t\t\t\n      JUMPDEST \t\t\t\n      PUSH [tag] 976\t\t\t\n      PUSH 20\t\t\t\n      DUP4 \t\t\t\n      ADD \t\t\t\n      DUP5 \t\t\t\n      PUSH [tag] 725\t\t\t\n      JUMP \t\t\t\n    tag 976\t\t\t\n      JUMPDEST \t\t\t\n      SWAP4 \t\t\t\n      SWAP3 \t\t\t\n      POP \t\t\t\n      POP \t\t\t\n      POP \t\t\t\n      JUMP \t\t\t\n    tag 93\t\t\t\n      JUMPDEST \t\t\t\n      PUSH 0\t\t\t\n      PUSH 40\t\t\t\n      DUP3 \t\t\t\n      ADD \t\t\t\n      SWAP1 \t\t\t\n      POP \t\t\t\n      PUSH [tag] 978\t\t\t\n      PUSH 0\t\t\t\n      DUP4 \t\t\t\n      ADD \t\t\t\n      DUP6 \t\t\t\n      PUSH [tag] 725\t\t\t\n      JUMP \t\t\t\n    tag 978\t\t\t\n      JUMPDEST \t\t\t\n      PUSH [tag] 979\t\t\t\n      PUSH 20\t\t\t\n      DUP4 \t\t\t\n      ADD \t\t\t\n      DUP5 \t\t\t\n      PUSH [tag] 725\t\t\t\n      JUMP \t\t\t\n    tag 979\t\t\t\n      JUMPDEST \t\t\t\n      SWAP4 \t\t\t\n      SWAP3 \t\t\t\n      POP \t\t\t\n      POP \t\t\t\n      POP \t\t\t\n      JUMP \t\t\t\n    tag 726\t\t\t\n      JUMPDEST \t\t\t\n      PUSH [tag] 981\t\t\t\n      DUP2 \t\t\t\n      PUSH [tag] 690\t\t\t\n      JUMP \t\t\t\n    tag 981\t\t\t\n      JUMPDEST \t\t\t\n      DUP3 \t\t\t\n      MSTORE \t\t\t\n      POP \t\t\t\n      POP \t\t\t\n      JUMP \t\t\t\n    tag 98\t\t\t\n      JUMPDEST \t\t\t\n      PUSH 0\t\t\t\n      PUSH 20\t\t\t\n      DUP3 \t\t\t\n      ADD \t\t\t\n      SWAP1 \t\t\t\n      POP \t\t\t\n      PUSH [tag] 983\t\t\t\n      PUSH 0\t\t\t\n      DUP4 \t\t\t\n      ADD \t\t\t\n      DUP5 \t\t\t\n      PUSH [tag] 726\t\t\t\n      JUMP \t\t\t\n    tag 983\t\t\t\n      JUMPDEST \t\t\t\n      SWAP3 \t\t\t\n      SWAP2 \t\t\t\n      POP \t\t\t\n      POP \t\t\t\n      JUMP \t\t\t\n    tag 106\t\t\t\n      JUMPDEST \t\t\t\n      PUSH 0\t\t\t\n      DUP1 \t\t\t\n      PUSH 0\t\t\t\n      PUSH 60\t\t\t\n      DUP5 \t\t\t\n      DUP7 \t\t\t\n      SUB \t\t\t\n      SLT \t\t\t\n      ISZERO \t\t\t\n      PUSH [tag] 985\t\t\t\n      JUMPI \t\t\t\n      PUSH [tag] 986\t\t\t\n      PUSH [tag] 684\t\t\t\n      JUMP \t\t\t\n    tag 986\t\t\t\n      JUMPDEST \t\t\t\n    tag 985\t\t\t\n      JUMPDEST \t\t\t\n      PUSH 0\t\t\t\n      PUSH [tag] 987\t\t\t\n      DUP7 \t\t\t\n      DUP3 \t\t\t\n      DUP8 \t\t\t\n      ADD \t\t\t\n      PUSH [tag] 689\t\t\t\n      JUMP \t\t\t\n    tag 987\t\t\t\n      JUMPDEST \t\t\t\n      SWAP4 \t\t\t\n      POP \t\t\t\n      POP \t\t\t\n      PUSH 20\t\t\t\n      PUSH [tag] 988\t\t\t\n      DUP7 \t\t\t\n      DUP3 \t\t\t\n      DUP8 \t\t\t\n      ADD \t\t\t\n      PUSH [tag] 689\t\t\t\n      JUMP \t\t\t\n    tag 988\t\t\t\n      JUMPDEST \t\t\t\n      SWAP3 \t\t\t\n      POP \t\t\t\n      POP \t\t\t\n      PUSH 40\t\t\t\n      PUSH [tag] 989\t\t\t\n      DUP7 \t\t\t\n      DUP3 \t\t\t\n      DUP8 \t\t\t\n      ADD \t\t\t\n      PUSH [tag] 692\t\t\t\n      JUMP \t\t\t\n    tag 989\t\t\t\n      JUMPDEST \t\t\t\n      SWAP2 \t\t\t\n      POP \t\t\t\n      POP \t\t\t\n      SWAP3 \t\t\t\n      POP \t\t\t\n      SWAP3 \t\t\t\n      POP \t\t\t\n      SWAP3 \t\t\t\n      JUMP \t\t\t\n    tag 727\t\t\t\n      JUMPDEST \t\t\t\n      PUSH 0\t\t\t\n      PUSH FF\t\t\t\n      DUP3 \t\t\t\n      AND \t\t\t\n      SWAP1 \t\t\t\n      POP \t\t\t\n      SWAP2 \t\t\t\n      SWAP1 \t\t\t\n      POP \t\t\t\n      JUMP \t\t\t\n    tag 728\t\t\t\n      JUMPDEST \t\t\t\n      PUSH [tag] 992\t\t\t\n      DUP2 \t\t\t\n      PUSH [tag] 727\t\t\t\n      JUMP \t\t\t\n    tag 992\t\t\t\n      JUMPDEST \t\t\t\n      DUP3 \t\t\t\n      MSTORE \t\t\t\n      POP \t\t\t\n      POP \t\t\t\n      JUMP \t\t\t\n    tag 113\t\t\t\n      JUMPDEST \t\t\t\n      PUSH 0\t\t\t\n      PUSH 20\t\t\t\n      DUP3 \t\t\t\n      ADD \t\t\t\n      SWAP1 \t\t\t\n      POP \t\t\t\n      PUSH [tag] 994\t\t\t\n      PUSH 0\t\t\t\n      DUP4 \t\t\t\n      ADD \t\t\t\n      DUP5 \t\t\t\n      PUSH [tag] 728\t\t\t\n      JUMP \t\t\t\n    tag 994\t\t\t\n      JUMPDEST \t\t\t\n      SWAP3 \t\t\t\n      SWAP2 \t\t\t\n      POP \t\t\t\n      POP \t\t\t\n      JUMP \t\t\t\n    tag 729\t\t\t\n      JUMPDEST \t\t\t\n      PUSH 0\t\t\t\n      PUSH FFFFFFFF\t\t\t\n      DUP3 \t\t\t\n      AND \t\t\t\n      SWAP1 \t\t\t\n      POP \t\t\t\n      SWAP2 \t\t\t\n      SWAP1 \t\t\t\n      POP \t\t\t\n      JUMP \t\t\t\n    tag 730\t\t\t\n      JUMPDEST \t\t\t\n      PUSH [tag] 997\t\t\t\n      DUP2 \t\t\t\n      PUSH [tag] 729\t\t\t\n      JUMP \t\t\t\n    tag 997\t\t\t\n      JUMPDEST \t\t\t\n      DUP2 \t\t\t\n      EQ \t\t\t\n      PUSH [tag] 998\t\t\t\n      JUMPI \t\t\t\n      PUSH 0\t\t\t\n      DUP1 \t\t\t\n      REVERT \t\t\t\n    tag 998\t\t\t\n      JUMPDEST \t\t\t\n      POP \t\t\t\n      JUMP \t\t\t\n    tag 731\t\t\t\n      JUMPDEST \t\t\t\n      PUSH 0\t\t\t\n      DUP2 \t\t\t\n      CALLDATALOAD \t\t\t\n      SWAP1 \t\t\t\n      POP \t\t\t\n      PUSH [tag] 1000\t\t\t\n      DUP2 \t\t\t\n      PUSH [tag] 730\t\t\t\n      JUMP \t\t\t\n    tag 1000\t\t\t\n      JUMPDEST \t\t\t\n      SWAP3 \t\t\t\n      SWAP2 \t\t\t\n      POP \t\t\t\n      POP \t\t\t\n      JUMP \t\t\t\n    tag 117\t\t\t\n      JUMPDEST \t\t\t\n      PUSH 0\t\t\t\n      DUP1 \t\t\t\n      PUSH 40\t\t\t\n      DUP4 \t\t\t\n      DUP6 \t\t\t\n      SUB \t\t\t\n      SLT \t\t\t\n      ISZERO \t\t\t\n      PUSH [tag] 1002\t\t\t\n      JUMPI \t\t\t\n      PUSH [tag] 1003\t\t\t\n      PUSH [tag] 684\t\t\t\n      JUMP \t\t\t\n    tag 1003\t\t\t\n      JUMPDEST \t\t\t\n    tag 1002\t\t\t\n      JUMPDEST \t\t\t\n      PUSH 0\t\t\t\n      PUSH [tag] 1004\t\t\t\n      DUP6 \t\t\t\n      DUP3 \t\t\t\n      DUP7 \t\t\t\n      ADD \t\t\t\n      PUSH [tag] 731\t\t\t\n      JUMP \t\t\t\n    tag 1004\t\t\t\n      JUMPDEST \t\t\t\n      SWAP3 \t\t\t\n      POP \t\t\t\n      POP \t\t\t\n      PUSH 20\t\t\t\n      PUSH [tag] 1005\t\t\t\n      DUP6 \t\t\t\n      DUP3 \t\t\t\n      DUP7 \t\t\t\n      ADD \t\t\t\n      PUSH [tag] 715\t\t\t\n      JUMP \t\t\t\n    tag 1005\t\t\t\n      JUMPDEST \t\t\t\n      SWAP2 \t\t\t\n      POP \t\t\t\n      POP \t\t\t\n      SWAP3 \t\t\t\n      POP \t\t\t\n      SWAP3 \t\t\t\n      SWAP1 \t\t\t\n      POP \t\t\t\n      JUMP \t\t\t\n    tag 732\t\t\t\n      JUMPDEST \t\t\t\n      PUSH [tag] 1007\t\t\t\n      DUP2 \t\t\t\n      PUSH [tag] 693\t\t\t\n      JUMP \t\t\t\n    tag 1007\t\t\t\n      JUMPDEST \t\t\t\n      DUP2 \t\t\t\n      EQ \t\t\t\n      PUSH [tag] 1008\t\t\t\n      JUMPI \t\t\t\n      PUSH 0\t\t\t\n      DUP1 \t\t\t\n      REVERT \t\t\t\n    tag 1008\t\t\t\n      JUMPDEST \t\t\t\n      POP \t\t\t\n      JUMP \t\t\t\n    tag 733\t\t\t\n      JUMPDEST \t\t\t\n      PUSH 0\t\t\t\n      DUP2 \t\t\t\n      CALLDATALOAD \t\t\t\n      SWAP1 \t\t\t\n      POP \t\t\t\n      PUSH [tag] 1010\t\t\t\n      DUP2 \t\t\t\n      PUSH [tag] 732\t\t\t\n      JUMP \t\t\t\n    tag 1010\t\t\t\n      JUMPDEST \t\t\t\n      SWAP3 \t\t\t\n      SWAP2 \t\t\t\n      POP \t\t\t\n      POP \t\t\t\n      JUMP \t\t\t\n    tag 122\t\t\t\n      JUMPDEST \t\t\t\n      PUSH 0\t\t\t\n      DUP1 \t\t\t\n      PUSH 40\t\t\t\n      DUP4 \t\t\t\n      DUP6 \t\t\t\n      SUB \t\t\t\n      SLT \t\t\t\n      ISZERO \t\t\t\n      PUSH [tag] 1012\t\t\t\n      JUMPI \t\t\t\n      PUSH [tag] 1013\t\t\t\n      PUSH [tag] 684\t\t\t\n      JUMP \t\t\t\n    tag 1013\t\t\t\n      JUMPDEST \t\t\t\n    tag 1012\t\t\t\n      JUMPDEST \t\t\t\n      PUSH 0\t\t\t\n      DUP4 \t\t\t\n      ADD \t\t\t\n      CALLDATALOAD \t\t\t\n      PUSH FFFFFFFFFFFFFFFF\t\t\t\n      DUP2 \t\t\t\n      GT \t\t\t\n      ISZERO \t\t\t\n      PUSH [tag] 1014\t\t\t\n      JUMPI \t\t\t\n      PUSH [tag] 1015\t\t\t\n      PUSH [tag] 685\t\t\t\n      JUMP \t\t\t\n    tag 1015\t\t\t\n      JUMPDEST \t\t\t\n    tag 1014\t\t\t\n      JUMPDEST \t\t\t\n      PUSH [tag] 1016\t\t\t\n      DUP6 \t\t\t\n      DUP3 \t\t\t\n      DUP7 \t\t\t\n      ADD \t\t\t\n      PUSH [tag] 696\t\t\t\n      JUMP \t\t\t\n    tag 1016\t\t\t\n      JUMPDEST \t\t\t\n      SWAP3 \t\t\t\n      POP \t\t\t\n      POP \t\t\t\n      PUSH 20\t\t\t\n      PUSH [tag] 1017\t\t\t\n      DUP6 \t\t\t\n      DUP3 \t\t\t\n      DUP7 \t\t\t\n      ADD \t\t\t\n      PUSH [tag] 733\t\t\t\n      JUMP \t\t\t\n    tag 1017\t\t\t\n      JUMPDEST \t\t\t\n      SWAP2 \t\t\t\n      POP \t\t\t\n      POP \t\t\t\n      SWAP3 \t\t\t\n      POP \t\t\t\n      SWAP3 \t\t\t\n      SWAP1 \t\t\t\n      POP \t\t\t\n      JUMP \t\t\t\n    tag 734\t\t\t\n      JUMPDEST \t\t\t\n      PUSH 40\t\t\t\n      DUP3 \t\t\t\n      ADD \t\t\t\n      PUSH 0\t\t\t\n      DUP3 \t\t\t\n      ADD \t\t\t\n      MLOAD \t\t\t\n      PUSH [tag] 1019\t\t\t\n      PUSH 0\t\t\t\n      DUP6 \t\t\t\n      ADD \t\t\t\n      DUP3 \t\t\t\n      PUSH [tag] 697\t\t\t\n      JUMP \t\t\t\n    tag 1019\t\t\t\n      JUMPDEST \t\t\t\n      POP \t\t\t\n      PUSH 20\t\t\t\n      DUP3 \t\t\t\n      ADD \t\t\t\n      MLOAD \t\t\t\n      PUSH [tag] 1020\t\t\t\n      PUSH 20\t\t\t\n      DUP6 \t\t\t\n      ADD \t\t\t\n      DUP3 \t\t\t\n      PUSH [tag] 697\t\t\t\n      JUMP \t\t\t\n    tag 1020\t\t\t\n      JUMPDEST \t\t\t\n      POP \t\t\t\n      POP \t\t\t\n      POP \t\t\t\n      POP \t\t\t\n      JUMP \t\t\t\n    tag 125\t\t\t\n      JUMPDEST \t\t\t\n      PUSH 0\t\t\t\n      PUSH 40\t\t\t\n      DUP3 \t\t\t\n      ADD \t\t\t\n      SWAP1 \t\t\t\n      POP \t\t\t\n      PUSH [tag] 1022\t\t\t\n      PUSH 0\t\t\t\n      DUP4 \t\t\t\n      ADD \t\t\t\n      DUP5 \t\t\t\n      PUSH [tag] 734\t\t\t\n      JUMP \t\t\t\n    tag 1022\t\t\t\n      JUMPDEST \t\t\t\n      SWAP3 \t\t\t\n      SWAP2 \t\t\t\n      POP \t\t\t\n      POP \t\t\t\n      JUMP \t\t\t\n    tag 735\t\t\t\n      JUMPDEST \t\t\t\n      PUSH [tag] 1024\t\t\t\n      DUP2 \t\t\t\n      PUSH [tag] 720\t\t\t\n      JUMP \t\t\t\n    tag 1024\t\t\t\n      JUMPDEST \t\t\t\n      DUP2 \t\t\t\n      EQ \t\t\t\n      PUSH [tag] 1025\t\t\t\n      JUMPI \t\t\t\n      PUSH 0\t\t\t\n      DUP1 \t\t\t\n      REVERT \t\t\t\n    tag 1025\t\t\t\n      JUMPDEST \t\t\t\n      POP \t\t\t\n      JUMP \t\t\t\n    tag 736\t\t\t\n      JUMPDEST \t\t\t\n      PUSH 0\t\t\t\n      DUP2 \t\t\t\n      CALLDATALOAD \t\t\t\n      SWAP1 \t\t\t\n      POP \t\t\t\n      PUSH [tag] 1027\t\t\t\n      DUP2 \t\t\t\n      PUSH [tag] 735\t\t\t\n      JUMP \t\t\t\n    tag 1027\t\t\t\n      JUMPDEST \t\t\t\n      SWAP3 \t\t\t\n      SWAP2 \t\t\t\n      POP \t\t\t\n      POP \t\t\t\n      JUMP \t\t\t\n    tag 133\t\t\t\n      JUMPDEST \t\t\t\n      PUSH 0\t\t\t\n      DUP1 \t\t\t\n      PUSH 40\t\t\t\n      DUP4 \t\t\t\n      DUP6 \t\t\t\n      SUB \t\t\t\n      SLT \t\t\t\n      ISZERO \t\t\t\n      PUSH [tag] 1029\t\t\t\n      JUMPI \t\t\t\n      PUSH [tag] 1030\t\t\t\n      PUSH [tag] 684\t\t\t\n      JUMP \t\t\t\n    tag 1030\t\t\t\n      JUMPDEST \t\t\t\n    tag 1029\t\t\t\n      JUMPDEST \t\t\t\n      PUSH 0\t\t\t\n      PUSH [tag] 1031\t\t\t\n      DUP6 \t\t\t\n      DUP3 \t\t\t\n      DUP7 \t\t\t\n      ADD \t\t\t\n      PUSH [tag] 731\t\t\t\n      JUMP \t\t\t\n    tag 1031\t\t\t\n      JUMPDEST \t\t\t\n      SWAP3 \t\t\t\n      POP \t\t\t\n      POP \t\t\t\n      PUSH 20\t\t\t\n      PUSH [tag] 1032\t\t\t\n      DUP6 \t\t\t\n      DUP3 \t\t\t\n      DUP7 \t\t\t\n      ADD \t\t\t\n      PUSH [tag] 736\t\t\t\n      JUMP \t\t\t\n    tag 1032\t\t\t\n      JUMPDEST \t\t\t\n      SWAP2 \t\t\t\n      POP \t\t\t\n      POP \t\t\t\n      SWAP3 \t\t\t\n      POP \t\t\t\n      SWAP3 \t\t\t\n      SWAP1 \t\t\t\n      POP \t\t\t\n      JUMP \t\t\t\n    tag 737\t\t\t\n      JUMPDEST \t\t\t\n      PUSH 0\t\t\t\n      DUP2 \t\t\t\n      MLOAD \t\t\t\n      SWAP1 \t\t\t\n      POP \t\t\t\n      SWAP2 \t\t\t\n      SWAP1 \t\t\t\n      POP \t\t\t\n      JUMP \t\t\t\n    tag 738\t\t\t\n      JUMPDEST \t\t\t\n      PUSH 0\t\t\t\n      DUP3 \t\t\t\n      DUP3 \t\t\t\n      MSTORE \t\t\t\n      PUSH 20\t\t\t\n      DUP3 \t\t\t\n      ADD \t\t\t\n      SWAP1 \t\t\t\n      POP \t\t\t\n      SWAP3 \t\t\t\n      SWAP2 \t\t\t\n      POP \t\t\t\n      POP \t\t\t\n      JUMP \t\t\t\n    tag 739\t\t\t\n      JUMPDEST \t\t\t\n      PUSH 0\t\t\t\n      PUSH [tag] 1036\t\t\t\n      DUP3 \t\t\t\n      PUSH [tag] 737\t\t\t\n      JUMP \t\t\t\n    tag 1036\t\t\t\n      JUMPDEST \t\t\t\n      PUSH [tag] 1037\t\t\t\n      DUP2 \t\t\t\n      DUP6 \t\t\t\n      PUSH [tag] 738\t\t\t\n      JUMP \t\t\t\n    tag 1037\t\t\t\n      JUMPDEST \t\t\t\n      SWAP4 \t\t\t\n      POP \t\t\t\n      PUSH [tag] 1038\t\t\t\n      DUP2 \t\t\t\n      DUP6 \t\t\t\n      PUSH 20\t\t\t\n      DUP7 \t\t\t\n      ADD \t\t\t\n      PUSH [tag] 680\t\t\t\n      JUMP \t\t\t\n    tag 1038\t\t\t\n      JUMPDEST \t\t\t\n      PUSH [tag] 1039\t\t\t\n      DUP2 \t\t\t\n      PUSH [tag] 681\t\t\t\n      JUMP \t\t\t\n    tag 1039\t\t\t\n      JUMPDEST \t\t\t\n      DUP5 \t\t\t\n      ADD \t\t\t\n      SWAP2 \t\t\t\n      POP \t\t\t\n      POP \t\t\t\n      SWAP3 \t\t\t\n      SWAP2 \t\t\t\n      POP \t\t\t\n      POP \t\t\t\n      JUMP \t\t\t\n    tag 136\t\t\t\n      JUMPDEST \t\t\t\n      PUSH 0\t\t\t\n      PUSH 20\t\t\t\n      DUP3 \t\t\t\n      ADD \t\t\t\n      SWAP1 \t\t\t\n      POP \t\t\t\n      DUP2 \t\t\t\n      DUP2 \t\t\t\n      SUB \t\t\t\n      PUSH 0\t\t\t\n      DUP4 \t\t\t\n      ADD \t\t\t\n      MSTORE \t\t\t\n      PUSH [tag] 1041\t\t\t\n      DUP2 \t\t\t\n      DUP5 \t\t\t\n      PUSH [tag] 739\t\t\t\n      JUMP \t\t\t\n    tag 1041\t\t\t\n      JUMPDEST \t\t\t\n      SWAP1 \t\t\t\n      POP \t\t\t\n      SWAP3 \t\t\t\n      SWAP2 \t\t\t\n      POP \t\t\t\n      POP \t\t\t\n      JUMP \t\t\t\n    tag 740\t\t\t\n      JUMPDEST \t\t\t\n      PUSH 0\t\t\t\n      DUP2 \t\t\t\n      SWAP1 \t\t\t\n      POP \t\t\t\n      SWAP2 \t\t\t\n      SWAP1 \t\t\t\n      POP \t\t\t\n      JUMP \t\t\t\n    tag 741\t\t\t\n      JUMPDEST \t\t\t\n      PUSH 0\t\t\t\n      PUSH [tag] 1044\t\t\t\n      PUSH [tag] 1045\t\t\t\n      PUSH [tag] 1046\t\t\t\n      DUP5 \t\t\t\n      PUSH [tag] 686\t\t\t\n      JUMP \t\t\t\n    tag 1046\t\t\t\n      JUMPDEST \t\t\t\n      PUSH [tag] 740\t\t\t\n      JUMP \t\t\t\n    tag 1045\t\t\t\n      JUMPDEST \t\t\t\n      PUSH [tag] 686\t\t\t\n      JUMP \t\t\t\n    tag 1044\t\t\t\n      JUMPDEST \t\t\t\n      SWAP1 \t\t\t\n      POP \t\t\t\n      SWAP2 \t\t\t\n      SWAP1 \t\t\t\n      POP \t\t\t\n      JUMP \t\t\t\n    tag 742\t\t\t\n      JUMPDEST \t\t\t\n      PUSH 0\t\t\t\n      PUSH [tag] 1048\t\t\t\n      DUP3 \t\t\t\n      PUSH [tag] 741\t\t\t\n      JUMP \t\t\t\n    tag 1048\t\t\t\n      JUMPDEST \t\t\t\n      SWAP1 \t\t\t\n      POP \t\t\t\n      SWAP2 \t\t\t\n      SWAP1 \t\t\t\n      POP \t\t\t\n      JUMP \t\t\t\n    tag 743\t\t\t\n      JUMPDEST \t\t\t\n      PUSH 0\t\t\t\n      PUSH [tag] 1050\t\t\t\n      DUP3 \t\t\t\n      PUSH [tag] 742\t\t\t\n      JUMP \t\t\t\n    tag 1050\t\t\t\n      JUMPDEST \t\t\t\n      SWAP1 \t\t\t\n      POP \t\t\t\n      SWAP2 \t\t\t\n      SWAP1 \t\t\t\n      POP \t\t\t\n      JUMP \t\t\t\n    tag 744\t\t\t\n      JUMPDEST \t\t\t\n      PUSH [tag] 1052\t\t\t\n      DUP2 \t\t\t\n      PUSH [tag] 743\t\t\t\n      JUMP \t\t\t\n    tag 1052\t\t\t\n      JUMPDEST \t\t\t\n      DUP3 \t\t\t\n      MSTORE \t\t\t\n      POP \t\t\t\n      POP \t\t\t\n      JUMP \t\t\t\n    tag 146\t\t\t\n      JUMPDEST \t\t\t\n      PUSH 0\t\t\t\n      PUSH 20\t\t\t\n      DUP3 \t\t\t\n      ADD \t\t\t\n      SWAP1 \t\t\t\n      POP \t\t\t\n      PUSH [tag] 1054\t\t\t\n      PUSH 0\t\t\t\n      DUP4 \t\t\t\n      ADD \t\t\t\n      DUP5 \t\t\t\n      PUSH [tag] 744\t\t\t\n      JUMP \t\t\t\n    tag 1054\t\t\t\n      JUMPDEST \t\t\t\n      SWAP3 \t\t\t\n      SWAP2 \t\t\t\n      POP \t\t\t\n      POP \t\t\t\n      JUMP \t\t\t\n    tag 150\t\t\t\n      JUMPDEST \t\t\t\n      PUSH 0\t\t\t\n      PUSH 20\t\t\t\n      DUP3 \t\t\t\n      DUP5 \t\t\t\n      SUB \t\t\t\n      SLT \t\t\t\n      ISZERO \t\t\t\n      PUSH [tag] 1056\t\t\t\n      JUMPI \t\t\t\n      PUSH [tag] 1057\t\t\t\n      PUSH [tag] 684\t\t\t\n      JUMP \t\t\t\n    tag 1057\t\t\t\n      JUMPDEST \t\t\t\n    tag 1056\t\t\t\n      JUMPDEST \t\t\t\n      PUSH 0\t\t\t\n      PUSH [tag] 1058\t\t\t\n      DUP5 \t\t\t\n      DUP3 \t\t\t\n      DUP6 \t\t\t\n      ADD \t\t\t\n      PUSH [tag] 689\t\t\t\n      JUMP \t\t\t\n    tag 1058\t\t\t\n      JUMPDEST \t\t\t\n      SWAP2 \t\t\t\n      POP \t\t\t\n      POP \t\t\t\n      SWAP3 \t\t\t\n      SWAP2 \t\t\t\n      POP \t\t\t\n      POP \t\t\t\n      JUMP \t\t\t\n    tag 165\t\t\t\n      JUMPDEST \t\t\t\n      PUSH 0\t\t\t\n      PUSH 20\t\t\t\n      DUP3 \t\t\t\n      ADD \t\t\t\n      SWAP1 \t\t\t\n      POP \t\t\t\n      PUSH [tag] 1060\t\t\t\n      PUSH 0\t\t\t\n      DUP4 \t\t\t\n      ADD \t\t\t\n      DUP5 \t\t\t\n      PUSH [tag] 725\t\t\t\n      JUMP \t\t\t\n    tag 1060\t\t\t\n      JUMPDEST \t\t\t\n      SWAP3 \t\t\t\n      SWAP2 \t\t\t\n      POP \t\t\t\n      POP \t\t\t\n      JUMP \t\t\t\n    tag 169\t\t\t\n      JUMPDEST \t\t\t\n      PUSH 0\t\t\t\n      DUP1 \t\t\t\n      PUSH 0\t\t\t\n      DUP1 \t\t\t\n      PUSH A0\t\t\t\n      DUP6 \t\t\t\n      DUP8 \t\t\t\n      SUB \t\t\t\n      SLT \t\t\t\n      ISZERO \t\t\t\n      PUSH [tag] 1062\t\t\t\n      JUMPI \t\t\t\n      PUSH [tag] 1063\t\t\t\n      PUSH [tag] 684\t\t\t\n      JUMP \t\t\t\n    tag 1063\t\t\t\n      JUMPDEST \t\t\t\n    tag 1062\t\t\t\n      JUMPDEST \t\t\t\n      PUSH 0\t\t\t\n      PUSH [tag] 1064\t\t\t\n      DUP8 \t\t\t\n      DUP3 \t\t\t\n      DUP9 \t\t\t\n      ADD \t\t\t\n      PUSH [tag] 712\t\t\t\n      JUMP \t\t\t\n    tag 1064\t\t\t\n      JUMPDEST \t\t\t\n      SWAP5 \t\t\t\n      POP \t\t\t\n      POP \t\t\t\n      PUSH 60\t\t\t\n      DUP6 \t\t\t\n      ADD \t\t\t\n      CALLDATALOAD \t\t\t\n      PUSH FFFFFFFFFFFFFFFF\t\t\t\n      DUP2 \t\t\t\n      GT \t\t\t\n      ISZERO \t\t\t\n      PUSH [tag] 1065\t\t\t\n      JUMPI \t\t\t\n      PUSH [tag] 1066\t\t\t\n      PUSH [tag] 685\t\t\t\n      JUMP \t\t\t\n    tag 1066\t\t\t\n      JUMPDEST \t\t\t\n    tag 1065\t\t\t\n      JUMPDEST \t\t\t\n      PUSH [tag] 1067\t\t\t\n      DUP8 \t\t\t\n      DUP3 \t\t\t\n      DUP9 \t\t\t\n      ADD \t\t\t\n      PUSH [tag] 719\t\t\t\n      JUMP \t\t\t\n    tag 1067\t\t\t\n      JUMPDEST \t\t\t\n      SWAP4 \t\t\t\n      POP \t\t\t\n      SWAP4 \t\t\t\n      POP \t\t\t\n      POP \t\t\t\n      PUSH 80\t\t\t\n      PUSH [tag] 1068\t\t\t\n      DUP8 \t\t\t\n      DUP3 \t\t\t\n      DUP9 \t\t\t\n      ADD \t\t\t\n      PUSH [tag] 689\t\t\t\n      JUMP \t\t\t\n    tag 1068\t\t\t\n      JUMPDEST \t\t\t\n      SWAP2 \t\t\t\n      POP \t\t\t\n      POP \t\t\t\n      SWAP3 \t\t\t\n      SWAP6 \t\t\t\n      SWAP2 \t\t\t\n      SWAP5 \t\t\t\n      POP \t\t\t\n      SWAP3 \t\t\t\n      POP \t\t\t\n      JUMP \t\t\t\n    tag 745\t\t\t\n      JUMPDEST \t\t\t\n      PUSH 0\t\t\t\n      DUP1 \t\t\t\n      DUP4 \t\t\t\n      PUSH 1F\t\t\t\n      DUP5 \t\t\t\n      ADD \t\t\t\n      SLT \t\t\t\n      PUSH [tag] 1070\t\t\t\n      JUMPI \t\t\t\n      PUSH [tag] 1071\t\t\t\n      PUSH [tag] 716\t\t\t\n      JUMP \t\t\t\n    tag 1071\t\t\t\n      JUMPDEST \t\t\t\n    tag 1070\t\t\t\n      JUMPDEST \t\t\t\n      DUP3 \t\t\t\n      CALLDATALOAD \t\t\t\n      SWAP1 \t\t\t\n      POP \t\t\t\n      PUSH FFFFFFFFFFFFFFFF\t\t\t\n      DUP2 \t\t\t\n      GT \t\t\t\n      ISZERO \t\t\t\n      PUSH [tag] 1072\t\t\t\n      JUMPI \t\t\t\n      PUSH [tag] 1073\t\t\t\n      PUSH [tag] 717\t\t\t\n      JUMP \t\t\t\n    tag 1073\t\t\t\n      JUMPDEST \t\t\t\n    tag 1072\t\t\t\n      JUMPDEST \t\t\t\n      PUSH 20\t\t\t\n      DUP4 \t\t\t\n      ADD \t\t\t\n      SWAP2 \t\t\t\n      POP \t\t\t\n      DUP4 \t\t\t\n      PUSH 20\t\t\t\n      DUP3 \t\t\t\n      MUL \t\t\t\n      DUP4 \t\t\t\n      ADD \t\t\t\n      GT \t\t\t\n      ISZERO \t\t\t\n      PUSH [tag] 1074\t\t\t\n      JUMPI \t\t\t\n      PUSH [tag] 1075\t\t\t\n      PUSH [tag] 718\t\t\t\n      JUMP \t\t\t\n    tag 1075\t\t\t\n      JUMPDEST \t\t\t\n    tag 1074\t\t\t\n      JUMPDEST \t\t\t\n      SWAP3 \t\t\t\n      POP \t\t\t\n      SWAP3 \t\t\t\n      SWAP1 \t\t\t\n      POP \t\t\t\n      JUMP \t\t\t\n    tag 204\t\t\t\n      JUMPDEST \t\t\t\n      PUSH 0\t\t\t\n      DUP1 \t\t\t\n      PUSH 20\t\t\t\n      DUP4 \t\t\t\n      DUP6 \t\t\t\n      SUB \t\t\t\n      SLT \t\t\t\n      ISZERO \t\t\t\n      PUSH [tag] 1077\t\t\t\n      JUMPI \t\t\t\n      PUSH [tag] 1078\t\t\t\n      PUSH [tag] 684\t\t\t\n      JUMP \t\t\t\n    tag 1078\t\t\t\n      JUMPDEST \t\t\t\n    tag 1077\t\t\t\n      JUMPDEST \t\t\t\n      PUSH 0\t\t\t\n      DUP4 \t\t\t\n      ADD \t\t\t\n      CALLDATALOAD \t\t\t\n      PUSH FFFFFFFFFFFFFFFF\t\t\t\n      DUP2 \t\t\t\n      GT \t\t\t\n      ISZERO \t\t\t\n      PUSH [tag] 1079\t\t\t\n      JUMPI \t\t\t\n      PUSH [tag] 1080\t\t\t\n      PUSH [tag] 685\t\t\t\n      JUMP \t\t\t\n    tag 1080\t\t\t\n      JUMPDEST \t\t\t\n    tag 1079\t\t\t\n      JUMPDEST \t\t\t\n      PUSH [tag] 1081\t\t\t\n      DUP6 \t\t\t\n      DUP3 \t\t\t\n      DUP7 \t\t\t\n      ADD \t\t\t\n      PUSH [tag] 745\t\t\t\n      JUMP \t\t\t\n    tag 1081\t\t\t\n      JUMPDEST \t\t\t\n      SWAP3 \t\t\t\n      POP \t\t\t\n      SWAP3 \t\t\t\n      POP \t\t\t\n      POP \t\t\t\n      SWAP3 \t\t\t\n      POP \t\t\t\n      SWAP3 \t\t\t\n      SWAP1 \t\t\t\n      POP \t\t\t\n      JUMP \t\t\t\n    tag 209\t\t\t\n      JUMPDEST \t\t\t\n      PUSH 0\t\t\t\n      PUSH 20\t\t\t\n      DUP3 \t\t\t\n      DUP5 \t\t\t\n      SUB \t\t\t\n      SLT \t\t\t\n      ISZERO \t\t\t\n      PUSH [tag] 1083\t\t\t\n      JUMPI \t\t\t\n      PUSH [tag] 1084\t\t\t\n      PUSH [tag] 684\t\t\t\n      JUMP \t\t\t\n    tag 1084\t\t\t\n      JUMPDEST \t\t\t\n    tag 1083\t\t\t\n      JUMPDEST \t\t\t\n      PUSH 0\t\t\t\n      PUSH [tag] 1085\t\t\t\n      DUP5 \t\t\t\n      DUP3 \t\t\t\n      DUP6 \t\t\t\n      ADD \t\t\t\n      PUSH [tag] 731\t\t\t\n      JUMP \t\t\t\n    tag 1085\t\t\t\n      JUMPDEST \t\t\t\n      SWAP2 \t\t\t\n      POP \t\t\t\n      POP \t\t\t\n      SWAP3 \t\t\t\n      SWAP2 \t\t\t\n      POP \t\t\t\n      POP \t\t\t\n      JUMP \t\t\t\n    tag 746\t\t\t\n      JUMPDEST \t\t\t\n      PUSH [tag] 1087\t\t\t\n      DUP2 \t\t\t\n      PUSH [tag] 713\t\t\t\n      JUMP \t\t\t\n    tag 1087\t\t\t\n      JUMPDEST \t\t\t\n      DUP3 \t\t\t\n      MSTORE \t\t\t\n      POP \t\t\t\n      POP \t\t\t\n      JUMP \t\t\t\n    tag 212\t\t\t\n      JUMPDEST \t\t\t\n      PUSH 0\t\t\t\n      PUSH 20\t\t\t\n      DUP3 \t\t\t\n      ADD \t\t\t\n      SWAP1 \t\t\t\n      POP \t\t\t\n      PUSH [tag] 1089\t\t\t\n      PUSH 0\t\t\t\n      DUP4 \t\t\t\n      ADD \t\t\t\n      DUP5 \t\t\t\n      PUSH [tag] 746\t\t\t\n      JUMP \t\t\t\n    tag 1089\t\t\t\n      JUMPDEST \t\t\t\n      SWAP3 \t\t\t\n      SWAP2 \t\t\t\n      POP \t\t\t\n      POP \t\t\t\n      JUMP \t\t\t\n    tag 216\t\t\t\n      JUMPDEST \t\t\t\n      PUSH 0\t\t\t\n      DUP1 \t\t\t\n      PUSH 0\t\t\t\n      DUP1 \t\t\t\n      PUSH 60\t\t\t\n      DUP6 \t\t\t\n      DUP8 \t\t\t\n      SUB \t\t\t\n      SLT \t\t\t\n      ISZERO \t\t\t\n      PUSH [tag] 1091\t\t\t\n      JUMPI \t\t\t\n      PUSH [tag] 1092\t\t\t\n      PUSH [tag] 684\t\t\t\n      JUMP \t\t\t\n    tag 1092\t\t\t\n      JUMPDEST \t\t\t\n    tag 1091\t\t\t\n      JUMPDEST \t\t\t\n      PUSH 0\t\t\t\n      PUSH [tag] 1093\t\t\t\n      DUP8 \t\t\t\n      DUP3 \t\t\t\n      DUP9 \t\t\t\n      ADD \t\t\t\n      PUSH [tag] 731\t\t\t\n      JUMP \t\t\t\n    tag 1093\t\t\t\n      JUMPDEST \t\t\t\n      SWAP5 \t\t\t\n      POP \t\t\t\n      POP \t\t\t\n      PUSH 20\t\t\t\n      PUSH [tag] 1094\t\t\t\n      DUP8 \t\t\t\n      DUP3 \t\t\t\n      DUP9 \t\t\t\n      ADD \t\t\t\n      PUSH [tag] 736\t\t\t\n      JUMP \t\t\t\n    tag 1094\t\t\t\n      JUMPDEST \t\t\t\n      SWAP4 \t\t\t\n      POP \t\t\t\n      POP \t\t\t\n      PUSH 40\t\t\t\n      DUP6 \t\t\t\n      ADD \t\t\t\n      CALLDATALOAD \t\t\t\n      PUSH FFFFFFFFFFFFFFFF\t\t\t\n      DUP2 \t\t\t\n      GT \t\t\t\n      ISZERO \t\t\t\n      PUSH [tag] 1095\t\t\t\n      JUMPI \t\t\t\n      PUSH [tag] 1096\t\t\t\n      PUSH [tag] 685\t\t\t\n      JUMP \t\t\t\n    tag 1096\t\t\t\n      JUMPDEST \t\t\t\n    tag 1095\t\t\t\n      JUMPDEST \t\t\t\n      PUSH [tag] 1097\t\t\t\n      DUP8 \t\t\t\n      DUP3 \t\t\t\n      DUP9 \t\t\t\n      ADD \t\t\t\n      PUSH [tag] 719\t\t\t\n      JUMP \t\t\t\n    tag 1097\t\t\t\n      JUMPDEST \t\t\t\n      SWAP3 \t\t\t\n      POP \t\t\t\n      SWAP3 \t\t\t\n      POP \t\t\t\n      POP \t\t\t\n      SWAP3 \t\t\t\n      SWAP6 \t\t\t\n      SWAP2 \t\t\t\n      SWAP5 \t\t\t\n      POP \t\t\t\n      SWAP3 \t\t\t\n      POP \t\t\t\n      JUMP \t\t\t\n    tag 747\t\t\t\n      JUMPDEST \t\t\t\n      PUSH 0\t\t\t\n      DUP1 \t\t\t\n      DUP4 \t\t\t\n      PUSH 1F\t\t\t\n      DUP5 \t\t\t\n      ADD \t\t\t\n      SLT \t\t\t\n      PUSH [tag] 1099\t\t\t\n      JUMPI \t\t\t\n      PUSH [tag] 1100\t\t\t\n      PUSH [tag] 716\t\t\t\n      JUMP \t\t\t\n    tag 1100\t\t\t\n      JUMPDEST \t\t\t\n    tag 1099\t\t\t\n      JUMPDEST \t\t\t\n      DUP3 \t\t\t\n      CALLDATALOAD \t\t\t\n      SWAP1 \t\t\t\n      POP \t\t\t\n      PUSH FFFFFFFFFFFFFFFF\t\t\t\n      DUP2 \t\t\t\n      GT \t\t\t\n      ISZERO \t\t\t\n      PUSH [tag] 1101\t\t\t\n      JUMPI \t\t\t\n      PUSH [tag] 1102\t\t\t\n      PUSH [tag] 717\t\t\t\n      JUMP \t\t\t\n    tag 1102\t\t\t\n      JUMPDEST \t\t\t\n    tag 1101\t\t\t\n      JUMPDEST \t\t\t\n      PUSH 20\t\t\t\n      DUP4 \t\t\t\n      ADD \t\t\t\n      SWAP2 \t\t\t\n      POP \t\t\t\n      DUP4 \t\t\t\n      PUSH 20\t\t\t\n      DUP3 \t\t\t\n      MUL \t\t\t\n      DUP4 \t\t\t\n      ADD \t\t\t\n      GT \t\t\t\n      ISZERO \t\t\t\n      PUSH [tag] 1103\t\t\t\n      JUMPI \t\t\t\n      PUSH [tag] 1104\t\t\t\n      PUSH [tag] 718\t\t\t\n      JUMP \t\t\t\n    tag 1104\t\t\t\n      JUMPDEST \t\t\t\n    tag 1103\t\t\t\n      JUMPDEST \t\t\t\n      SWAP3 \t\t\t\n      POP \t\t\t\n      SWAP3 \t\t\t\n      SWAP1 \t\t\t\n      POP \t\t\t\n      JUMP \t\t\t\n    tag 221\t\t\t\n      JUMPDEST \t\t\t\n      PUSH 0\t\t\t\n      DUP1 \t\t\t\n      PUSH 20\t\t\t\n      DUP4 \t\t\t\n      DUP6 \t\t\t\n      SUB \t\t\t\n      SLT \t\t\t\n      ISZERO \t\t\t\n      PUSH [tag] 1106\t\t\t\n      JUMPI \t\t\t\n      PUSH [tag] 1107\t\t\t\n      PUSH [tag] 684\t\t\t\n      JUMP \t\t\t\n    tag 1107\t\t\t\n      JUMPDEST \t\t\t\n    tag 1106\t\t\t\n      JUMPDEST \t\t\t\n      PUSH 0\t\t\t\n      DUP4 \t\t\t\n      ADD \t\t\t\n      CALLDATALOAD \t\t\t\n      PUSH FFFFFFFFFFFFFFFF\t\t\t\n      DUP2 \t\t\t\n      GT \t\t\t\n      ISZERO \t\t\t\n      PUSH [tag] 1108\t\t\t\n      JUMPI \t\t\t\n      PUSH [tag] 1109\t\t\t\n      PUSH [tag] 685\t\t\t\n      JUMP \t\t\t\n    tag 1109\t\t\t\n      JUMPDEST \t\t\t\n    tag 1108\t\t\t\n      JUMPDEST \t\t\t\n      PUSH [tag] 1110\t\t\t\n      DUP6 \t\t\t\n      DUP3 \t\t\t\n      DUP7 \t\t\t\n      ADD \t\t\t\n      PUSH [tag] 747\t\t\t\n      JUMP \t\t\t\n    tag 1110\t\t\t\n      JUMPDEST \t\t\t\n      SWAP3 \t\t\t\n      POP \t\t\t\n      SWAP3 \t\t\t\n      POP \t\t\t\n      POP \t\t\t\n      SWAP3 \t\t\t\n      POP \t\t\t\n      SWAP3 \t\t\t\n      SWAP1 \t\t\t\n      POP \t\t\t\n      JUMP \t\t\t\n    tag 748\t\t\t\n      JUMPDEST \t\t\t\n      PUSH 0\t\t\t\n      PUSH 40\t\t\t\n      DUP3 \t\t\t\n      DUP5 \t\t\t\n      SUB \t\t\t\n      SLT \t\t\t\n      ISZERO \t\t\t\n      PUSH [tag] 1112\t\t\t\n      JUMPI \t\t\t\n      PUSH [tag] 1113\t\t\t\n      PUSH [tag] 695\t\t\t\n      JUMP \t\t\t\n    tag 1113\t\t\t\n      JUMPDEST \t\t\t\n    tag 1112\t\t\t\n      JUMPDEST \t\t\t\n      DUP2 \t\t\t\n      SWAP1 \t\t\t\n      POP \t\t\t\n      SWAP3 \t\t\t\n      SWAP2 \t\t\t\n      POP \t\t\t\n      POP \t\t\t\n      JUMP \t\t\t\n    tag 225\t\t\t\n      JUMPDEST \t\t\t\n      PUSH 0\t\t\t\n      DUP1 \t\t\t\n      PUSH 0\t\t\t\n      PUSH 80\t\t\t\n      DUP5 \t\t\t\n      DUP7 \t\t\t\n      SUB \t\t\t\n      SLT \t\t\t\n      ISZERO \t\t\t\n      PUSH [tag] 1115\t\t\t\n      JUMPI \t\t\t\n      PUSH [tag] 1116\t\t\t\n      PUSH [tag] 684\t\t\t\n      JUMP \t\t\t\n    tag 1116\t\t\t\n      JUMPDEST \t\t\t\n    tag 1115\t\t\t\n      JUMPDEST \t\t\t\n      PUSH 0\t\t\t\n      DUP5 \t\t\t\n      ADD \t\t\t\n      CALLDATALOAD \t\t\t\n      PUSH FFFFFFFFFFFFFFFF\t\t\t\n      DUP2 \t\t\t\n      GT \t\t\t\n      ISZERO \t\t\t\n      PUSH [tag] 1117\t\t\t\n      JUMPI \t\t\t\n      PUSH [tag] 1118\t\t\t\n      PUSH [tag] 685\t\t\t\n      JUMP \t\t\t\n    tag 1118\t\t\t\n      JUMPDEST \t\t\t\n    tag 1117\t\t\t\n      JUMPDEST \t\t\t\n      PUSH [tag] 1119\t\t\t\n      DUP7 \t\t\t\n      DUP3 \t\t\t\n      DUP8 \t\t\t\n      ADD \t\t\t\n      PUSH [tag] 696\t\t\t\n      JUMP \t\t\t\n    tag 1119\t\t\t\n      JUMPDEST \t\t\t\n      SWAP4 \t\t\t\n      POP \t\t\t\n      POP \t\t\t\n      PUSH 20\t\t\t\n      PUSH [tag] 1120\t\t\t\n      DUP7 \t\t\t\n      DUP3 \t\t\t\n      DUP8 \t\t\t\n      ADD \t\t\t\n      PUSH [tag] 748\t\t\t\n      JUMP \t\t\t\n    tag 1120\t\t\t\n      JUMPDEST \t\t\t\n      SWAP3 \t\t\t\n      POP \t\t\t\n      POP \t\t\t\n      PUSH 60\t\t\t\n      PUSH [tag] 1121\t\t\t\n      DUP7 \t\t\t\n      DUP3 \t\t\t\n      DUP8 \t\t\t\n      ADD \t\t\t\n      PUSH [tag] 689\t\t\t\n      JUMP \t\t\t\n    tag 1121\t\t\t\n      JUMPDEST \t\t\t\n      SWAP2 \t\t\t\n      POP \t\t\t\n      POP \t\t\t\n      SWAP3 \t\t\t\n      POP \t\t\t\n      SWAP3 \t\t\t\n      POP \t\t\t\n      SWAP3 \t\t\t\n      JUMP \t\t\t\n    tag 749\t\t\t\n      JUMPDEST \t\t\t\n      PUSH [tag] 1123\t\t\t\n      DUP2 \t\t\t\n      PUSH [tag] 713\t\t\t\n      JUMP \t\t\t\n    tag 1123\t\t\t\n      JUMPDEST \t\t\t\n      DUP3 \t\t\t\n      MSTORE \t\t\t\n      POP \t\t\t\n      POP \t\t\t\n      JUMP \t\t\t\n    tag 750\t\t\t\n      JUMPDEST \t\t\t\n      PUSH [tag] 1125\t\t\t\n      DUP2 \t\t\t\n      PUSH [tag] 724\t\t\t\n      JUMP \t\t\t\n    tag 1125\t\t\t\n      JUMPDEST \t\t\t\n      DUP3 \t\t\t\n      MSTORE \t\t\t\n      POP \t\t\t\n      POP \t\t\t\n      JUMP \t\t\t\n    tag 751\t\t\t\n      JUMPDEST \t\t\t\n      PUSH 40\t\t\t\n      DUP3 \t\t\t\n      ADD \t\t\t\n      PUSH 0\t\t\t\n      DUP3 \t\t\t\n      ADD \t\t\t\n      MLOAD \t\t\t\n      PUSH [tag] 1127\t\t\t\n      PUSH 0\t\t\t\n      DUP6 \t\t\t\n      ADD \t\t\t\n      DUP3 \t\t\t\n      PUSH [tag] 697\t\t\t\n      JUMP \t\t\t\n    tag 1127\t\t\t\n      JUMPDEST \t\t\t\n      POP \t\t\t\n      PUSH 20\t\t\t\n      DUP3 \t\t\t\n      ADD \t\t\t\n      MLOAD \t\t\t\n      PUSH [tag] 1128\t\t\t\n      PUSH 20\t\t\t\n      DUP6 \t\t\t\n      ADD \t\t\t\n      DUP3 \t\t\t\n      PUSH [tag] 697\t\t\t\n      JUMP \t\t\t\n    tag 1128\t\t\t\n      JUMPDEST \t\t\t\n      POP \t\t\t\n      POP \t\t\t\n      POP \t\t\t\n      POP \t\t\t\n      JUMP \t\t\t\n    tag 752\t\t\t\n      JUMPDEST \t\t\t\n      PUSH 80\t\t\t\n      DUP3 \t\t\t\n      ADD \t\t\t\n      PUSH 0\t\t\t\n      DUP3 \t\t\t\n      ADD \t\t\t\n      MLOAD \t\t\t\n      PUSH [tag] 1130\t\t\t\n      PUSH 0\t\t\t\n      DUP6 \t\t\t\n      ADD \t\t\t\n      DUP3 \t\t\t\n      PUSH [tag] 749\t\t\t\n      JUMP \t\t\t\n    tag 1130\t\t\t\n      JUMPDEST \t\t\t\n      POP \t\t\t\n      PUSH 20\t\t\t\n      DUP3 \t\t\t\n      ADD \t\t\t\n      MLOAD \t\t\t\n      PUSH [tag] 1131\t\t\t\n      PUSH 20\t\t\t\n      DUP6 \t\t\t\n      ADD \t\t\t\n      DUP3 \t\t\t\n      PUSH [tag] 750\t\t\t\n      JUMP \t\t\t\n    tag 1131\t\t\t\n      JUMPDEST \t\t\t\n      POP \t\t\t\n      PUSH 40\t\t\t\n      DUP3 \t\t\t\n      ADD \t\t\t\n      MLOAD \t\t\t\n      PUSH [tag] 1132\t\t\t\n      PUSH 40\t\t\t\n      DUP6 \t\t\t\n      ADD \t\t\t\n      DUP3 \t\t\t\n      PUSH [tag] 751\t\t\t\n      JUMP \t\t\t\n    tag 1132\t\t\t\n      JUMPDEST \t\t\t\n      POP \t\t\t\n      POP \t\t\t\n      POP \t\t\t\n      POP \t\t\t\n      JUMP \t\t\t\n    tag 228\t\t\t\n      JUMPDEST \t\t\t\n      PUSH 0\t\t\t\n      PUSH C0\t\t\t\n      DUP3 \t\t\t\n      ADD \t\t\t\n      SWAP1 \t\t\t\n      POP \t\t\t\n      PUSH [tag] 1134\t\t\t\n      PUSH 0\t\t\t\n      DUP4 \t\t\t\n      ADD \t\t\t\n      DUP6 \t\t\t\n      PUSH [tag] 752\t\t\t\n      JUMP \t\t\t\n    tag 1134\t\t\t\n      JUMPDEST \t\t\t\n      PUSH [tag] 1135\t\t\t\n      PUSH 80\t\t\t\n      DUP4 \t\t\t\n      ADD \t\t\t\n      DUP5 \t\t\t\n      PUSH [tag] 710\t\t\t\n      JUMP \t\t\t\n    tag 1135\t\t\t\n      JUMPDEST \t\t\t\n      SWAP4 \t\t\t\n      SWAP3 \t\t\t\n      POP \t\t\t\n      POP \t\t\t\n      POP \t\t\t\n      JUMP \t\t\t\n    tag 243\t\t\t\n      JUMPDEST \t\t\t\n      PUSH 0\t\t\t\n      DUP1 \t\t\t\n      PUSH 40\t\t\t\n      DUP4 \t\t\t\n      DUP6 \t\t\t\n      SUB \t\t\t\n      SLT \t\t\t\n      ISZERO \t\t\t\n      PUSH [tag] 1137\t\t\t\n      JUMPI \t\t\t\n      PUSH [tag] 1138\t\t\t\n      PUSH [tag] 684\t\t\t\n      JUMP \t\t\t\n    tag 1138\t\t\t\n      JUMPDEST \t\t\t\n    tag 1137\t\t\t\n      JUMPDEST \t\t\t\n      PUSH 0\t\t\t\n      PUSH [tag] 1139\t\t\t\n      DUP6 \t\t\t\n      DUP3 \t\t\t\n      DUP7 \t\t\t\n      ADD \t\t\t\n      PUSH [tag] 689\t\t\t\n      JUMP \t\t\t\n    tag 1139\t\t\t\n      JUMPDEST \t\t\t\n      SWAP3 \t\t\t\n      POP \t\t\t\n      POP \t\t\t\n      PUSH 20\t\t\t\n      PUSH [tag] 1140\t\t\t\n      DUP6 \t\t\t\n      DUP3 \t\t\t\n      DUP7 \t\t\t\n      ADD \t\t\t\n      PUSH [tag] 689\t\t\t\n      JUMP \t\t\t\n    tag 1140\t\t\t\n      JUMPDEST \t\t\t\n      SWAP2 \t\t\t\n      POP \t\t\t\n      POP \t\t\t\n      SWAP3 \t\t\t\n      POP \t\t\t\n      SWAP3 \t\t\t\n      SWAP1 \t\t\t\n      POP \t\t\t\n      JUMP \t\t\t\n    tag 257\t\t\t\n      JUMPDEST \t\t\t\n      PUSH 0\t\t\t\n      PUSH 60\t\t\t\n      DUP3 \t\t\t\n      DUP5 \t\t\t\n      SUB \t\t\t\n      SLT \t\t\t\n      ISZERO \t\t\t\n      PUSH [tag] 1142\t\t\t\n      JUMPI \t\t\t\n      PUSH [tag] 1143\t\t\t\n      PUSH [tag] 684\t\t\t\n      JUMP \t\t\t\n    tag 1143\t\t\t\n      JUMPDEST \t\t\t\n    tag 1142\t\t\t\n      JUMPDEST \t\t\t\n      PUSH 0\t\t\t\n      PUSH [tag] 1144\t\t\t\n      DUP5 \t\t\t\n      DUP3 \t\t\t\n      DUP6 \t\t\t\n      ADD \t\t\t\n      PUSH [tag] 712\t\t\t\n      JUMP \t\t\t\n    tag 1144\t\t\t\n      JUMPDEST \t\t\t\n      SWAP2 \t\t\t\n      POP \t\t\t\n      POP \t\t\t\n      SWAP3 \t\t\t\n      SWAP2 \t\t\t\n      POP \t\t\t\n      POP \t\t\t\n      JUMP \t\t\t\n    tag 753\t\t\t\n      JUMPDEST \t\t\t\n      PUSH 4E487B7100000000000000000000000000000000000000000000000000000000\t\t\t\n      PUSH 0\t\t\t\n      MSTORE \t\t\t\n      PUSH 22\t\t\t\n      PUSH 4\t\t\t\n      MSTORE \t\t\t\n      PUSH 24\t\t\t\n      PUSH 0\t\t\t\n      REVERT \t\t\t\n    tag 262\t\t\t\n      JUMPDEST \t\t\t\n      PUSH 0\t\t\t\n      PUSH 2\t\t\t\n      DUP3 \t\t\t\n      DIV \t\t\t\n      SWAP1 \t\t\t\n      POP \t\t\t\n      PUSH 1\t\t\t\n      DUP3 \t\t\t\n      AND \t\t\t\n      DUP1 \t\t\t\n      PUSH [tag] 1147\t\t\t\n      JUMPI \t\t\t\n      PUSH 7F\t\t\t\n      DUP3 \t\t\t\n      AND \t\t\t\n      SWAP2 \t\t\t\n      POP \t\t\t\n    tag 1147\t\t\t\n      JUMPDEST \t\t\t\n      PUSH 20\t\t\t\n      DUP3 \t\t\t\n      LT \t\t\t\n      DUP2 \t\t\t\n      SUB \t\t\t\n      PUSH [tag] 1148\t\t\t\n      JUMPI \t\t\t\n      PUSH [tag] 1149\t\t\t\n      PUSH [tag] 753\t\t\t\n      JUMP \t\t\t\n    tag 1149\t\t\t\n      JUMPDEST \t\t\t\n    tag 1148\t\t\t\n      JUMPDEST \t\t\t\n      POP \t\t\t\n      SWAP2 \t\t\t\n      SWAP1 \t\t\t\n      POP \t\t\t\n      JUMP \t\t\t\n    tag 754\t\t\t\n      JUMPDEST \t\t\t\n      PUSH 0\t\t\t\n      DUP2 \t\t\t\n      MLOAD \t\t\t\n      SWAP1 \t\t\t\n      POP \t\t\t\n      PUSH [tag] 1151\t\t\t\n      DUP2 \t\t\t\n      PUSH [tag] 688\t\t\t\n      JUMP \t\t\t\n    tag 1151\t\t\t\n      JUMPDEST \t\t\t\n      SWAP3 \t\t\t\n      SWAP2 \t\t\t\n      POP \t\t\t\n      POP \t\t\t\n      JUMP \t\t\t\n    tag 280\t\t\t\n      JUMPDEST \t\t\t\n      PUSH 0\t\t\t\n      PUSH 20\t\t\t\n      DUP3 \t\t\t\n      DUP5 \t\t\t\n      SUB \t\t\t\n      SLT \t\t\t\n      ISZERO \t\t\t\n      PUSH [tag] 1153\t\t\t\n      JUMPI \t\t\t\n      PUSH [tag] 1154\t\t\t\n      PUSH [tag] 684\t\t\t\n      JUMP \t\t\t\n    tag 1154\t\t\t\n      JUMPDEST \t\t\t\n    tag 1153\t\t\t\n      JUMPDEST \t\t\t\n      PUSH 0\t\t\t\n      PUSH [tag] 1155\t\t\t\n      DUP5 \t\t\t\n      DUP3 \t\t\t\n      DUP6 \t\t\t\n      ADD \t\t\t\n      PUSH [tag] 754\t\t\t\n      JUMP \t\t\t\n    tag 1155\t\t\t\n      JUMPDEST \t\t\t\n      SWAP2 \t\t\t\n      POP \t\t\t\n      POP \t\t\t\n      SWAP3 \t\t\t\n      SWAP2 \t\t\t\n      POP \t\t\t\n      POP \t\t\t\n      JUMP \t\t\t\n    tag 755\t\t\t\n      JUMPDEST \t\t\t\n      PUSH 0\t\t\t\n      DUP2 \t\t\t\n      MLOAD \t\t\t\n      SWAP1 \t\t\t\n      POP \t\t\t\n      PUSH [tag] 1157\t\t\t\n      DUP2 \t\t\t\n      PUSH [tag] 691\t\t\t\n      JUMP \t\t\t\n    tag 1157\t\t\t\n      JUMPDEST \t\t\t\n      SWAP3 \t\t\t\n      SWAP2 \t\t\t\n      POP \t\t\t\n      POP \t\t\t\n      JUMP \t\t\t\n    tag 284\t\t\t\n      JUMPDEST \t\t\t\n      PUSH 0\t\t\t\n      PUSH 20\t\t\t\n      DUP3 \t\t\t\n      DUP5 \t\t\t\n      SUB \t\t\t\n      SLT \t\t\t\n      ISZERO \t\t\t\n      PUSH [tag] 1159\t\t\t\n      JUMPI \t\t\t\n      PUSH [tag] 1160\t\t\t\n      PUSH [tag] 684\t\t\t\n      JUMP \t\t\t\n    tag 1160\t\t\t\n      JUMPDEST \t\t\t\n    tag 1159\t\t\t\n      JUMPDEST \t\t\t\n      PUSH 0\t\t\t\n      PUSH [tag] 1161\t\t\t\n      DUP5 \t\t\t\n      DUP3 \t\t\t\n      DUP6 \t\t\t\n      ADD \t\t\t\n      PUSH [tag] 755\t\t\t\n      JUMP \t\t\t\n    tag 1161\t\t\t\n      JUMPDEST \t\t\t\n      SWAP2 \t\t\t\n      POP \t\t\t\n      POP \t\t\t\n      SWAP3 \t\t\t\n      SWAP2 \t\t\t\n      POP \t\t\t\n      POP \t\t\t\n      JUMP \t\t\t\n    tag 287\t\t\t\n      JUMPDEST \t\t\t\n      PUSH 4E487B7100000000000000000000000000000000000000000000000000000000\t\t\t\n      PUSH 0\t\t\t\n      MSTORE \t\t\t\n      PUSH 41\t\t\t\n      PUSH 4\t\t\t\n      MSTORE \t\t\t\n      PUSH 24\t\t\t\n      PUSH 0\t\t\t\n      REVERT \t\t\t\n    tag 756\t\t\t\n      JUMPDEST \t\t\t\n      PUSH [tag] 1164\t\t\t\n      DUP2 \t\t\t\n      PUSH [tag] 729\t\t\t\n      JUMP \t\t\t\n    tag 1164\t\t\t\n      JUMPDEST \t\t\t\n      DUP3 \t\t\t\n      MSTORE \t\t\t\n      POP \t\t\t\n      POP \t\t\t\n      JUMP \t\t\t\n    tag 304\t\t\t\n      JUMPDEST \t\t\t\n      PUSH 0\t\t\t\n      PUSH 40\t\t\t\n      DUP3 \t\t\t\n      ADD \t\t\t\n      SWAP1 \t\t\t\n      POP \t\t\t\n      PUSH [tag] 1166\t\t\t\n      PUSH 0\t\t\t\n      DUP4 \t\t\t\n      ADD \t\t\t\n      DUP6 \t\t\t\n      PUSH [tag] 756\t\t\t\n      JUMP \t\t\t\n    tag 1166\t\t\t\n      JUMPDEST \t\t\t\n      PUSH [tag] 1167\t\t\t\n      PUSH 20\t\t\t\n      DUP4 \t\t\t\n      ADD \t\t\t\n      DUP5 \t\t\t\n      PUSH [tag] 746\t\t\t\n      JUMP \t\t\t\n    tag 1167\t\t\t\n      JUMPDEST \t\t\t\n      SWAP4 \t\t\t\n      SWAP3 \t\t\t\n      POP \t\t\t\n      POP \t\t\t\n      POP \t\t\t\n      JUMP \t\t\t\n    tag 757\t\t\t\n      JUMPDEST \t\t\t\n      PUSH [tag] 1169\t\t\t\n      DUP3 \t\t\t\n      PUSH [tag] 681\t\t\t\n      JUMP \t\t\t\n    tag 1169\t\t\t\n      JUMPDEST \t\t\t\n      DUP2 \t\t\t\n      ADD \t\t\t\n      DUP2 \t\t\t\n      DUP2 \t\t\t\n      LT \t\t\t\n      PUSH FFFFFFFFFFFFFFFF\t\t\t\n      DUP3 \t\t\t\n      GT \t\t\t\n      OR \t\t\t\n      ISZERO \t\t\t\n      PUSH [tag] 1170\t\t\t\n      JUMPI \t\t\t\n      PUSH [tag] 1171\t\t\t\n      PUSH [tag] 287\t\t\t\n      JUMP \t\t\t\n    tag 1171\t\t\t\n      JUMPDEST \t\t\t\n    tag 1170\t\t\t\n      JUMPDEST \t\t\t\n      DUP1 \t\t\t\n      PUSH 40\t\t\t\n      MSTORE \t\t\t\n      POP \t\t\t\n      POP \t\t\t\n      POP \t\t\t\n      JUMP \t\t\t\n    tag 758\t\t\t\n      JUMPDEST \t\t\t\n      PUSH 0\t\t\t\n      PUSH [tag] 1173\t\t\t\n      PUSH [tag] 683\t\t\t\n      JUMP \t\t\t\n    tag 1173\t\t\t\n      JUMPDEST \t\t\t\n      SWAP1 \t\t\t\n      POP \t\t\t\n      PUSH [tag] 1174\t\t\t\n      DUP3 \t\t\t\n      DUP3 \t\t\t\n      PUSH [tag] 757\t\t\t\n      JUMP \t\t\t\n    tag 1174\t\t\t\n      JUMPDEST \t\t\t\n      SWAP2 \t\t\t\n      SWAP1 \t\t\t\n      POP \t\t\t\n      JUMP \t\t\t\n    tag 759\t\t\t\n      JUMPDEST \t\t\t\n      PUSH 0\t\t\t\n      PUSH FFFFFFFFFFFFFFFF\t\t\t\n      DUP3 \t\t\t\n      GT \t\t\t\n      ISZERO \t\t\t\n      PUSH [tag] 1176\t\t\t\n      JUMPI \t\t\t\n      PUSH [tag] 1177\t\t\t\n      PUSH [tag] 287\t\t\t\n      JUMP \t\t\t\n    tag 1177\t\t\t\n      JUMPDEST \t\t\t\n    tag 1176\t\t\t\n      JUMPDEST \t\t\t\n      PUSH 20\t\t\t\n      DUP3 \t\t\t\n      MUL \t\t\t\n      SWAP1 \t\t\t\n      POP \t\t\t\n      PUSH 20\t\t\t\n      DUP2 \t\t\t\n      ADD \t\t\t\n      SWAP1 \t\t\t\n      POP \t\t\t\n      SWAP2 \t\t\t\n      SWAP1 \t\t\t\n      POP \t\t\t\n      JUMP \t\t\t\n    tag 760\t\t\t\n      JUMPDEST \t\t\t\n      PUSH 0\t\t\t\n      DUP1 \t\t\t\n      REVERT \t\t\t\n    tag 761\t\t\t\n      JUMPDEST \t\t\t\n      PUSH 0\t\t\t\n      DUP1 \t\t\t\n      REVERT \t\t\t\n    tag 762\t\t\t\n      JUMPDEST \t\t\t\n      PUSH 0\t\t\t\n      DUP1 \t\t\t\n      REVERT \t\t\t\n    tag 763\t\t\t\n      JUMPDEST \t\t\t\n      PUSH 0\t\t\t\n      PUSH FFFFFFFFFFFFFFFF\t\t\t\n      DUP3 \t\t\t\n      GT \t\t\t\n      ISZERO \t\t\t\n      PUSH [tag] 1182\t\t\t\n      JUMPI \t\t\t\n      PUSH [tag] 1183\t\t\t\n      PUSH [tag] 287\t\t\t\n      JUMP \t\t\t\n    tag 1183\t\t\t\n      JUMPDEST \t\t\t\n    tag 1182\t\t\t\n      JUMPDEST \t\t\t\n      PUSH [tag] 1184\t\t\t\n      DUP3 \t\t\t\n      PUSH [tag] 681\t\t\t\n      JUMP \t\t\t\n    tag 1184\t\t\t\n      JUMPDEST \t\t\t\n      SWAP1 \t\t\t\n      POP \t\t\t\n      PUSH 20\t\t\t\n      DUP2 \t\t\t\n      ADD \t\t\t\n      SWAP1 \t\t\t\n      POP \t\t\t\n      SWAP2 \t\t\t\n      SWAP1 \t\t\t\n      POP \t\t\t\n      JUMP \t\t\t\n    tag 764\t\t\t\n      JUMPDEST \t\t\t\n      DUP3 \t\t\t\n      DUP2 \t\t\t\n      DUP4 \t\t\t\n      CALLDATACOPY \t\t\t\n      PUSH 0\t\t\t\n      DUP4 \t\t\t\n      DUP4 \t\t\t\n      ADD \t\t\t\n      MSTORE \t\t\t\n      POP \t\t\t\n      POP \t\t\t\n      POP \t\t\t\n      JUMP \t\t\t\n    tag 765\t\t\t\n      JUMPDEST \t\t\t\n      PUSH 0\t\t\t\n      PUSH [tag] 1187\t\t\t\n      PUSH [tag] 1188\t\t\t\n      DUP5 \t\t\t\n      PUSH [tag] 763\t\t\t\n      JUMP \t\t\t\n    tag 1188\t\t\t\n      JUMPDEST \t\t\t\n      PUSH [tag] 758\t\t\t\n      JUMP \t\t\t\n    tag 1187\t\t\t\n      JUMPDEST \t\t\t\n      SWAP1 \t\t\t\n      POP \t\t\t\n      DUP3 \t\t\t\n      DUP2 \t\t\t\n      MSTORE \t\t\t\n      PUSH 20\t\t\t\n      DUP2 \t\t\t\n      ADD \t\t\t\n      DUP5 \t\t\t\n      DUP5 \t\t\t\n      DUP5 \t\t\t\n      ADD \t\t\t\n      GT \t\t\t\n      ISZERO \t\t\t\n      PUSH [tag] 1189\t\t\t\n      JUMPI \t\t\t\n      PUSH [tag] 1190\t\t\t\n      PUSH [tag] 762\t\t\t\n      JUMP \t\t\t\n    tag 1190\t\t\t\n      JUMPDEST \t\t\t\n    tag 1189\t\t\t\n      JUMPDEST \t\t\t\n      PUSH [tag] 1191\t\t\t\n      DUP5 \t\t\t\n      DUP3 \t\t\t\n      DUP6 \t\t\t\n      PUSH [tag] 764\t\t\t\n      JUMP \t\t\t\n    tag 1191\t\t\t\n      JUMPDEST \t\t\t\n      POP \t\t\t\n      SWAP4 \t\t\t\n      SWAP3 \t\t\t\n      POP \t\t\t\n      POP \t\t\t\n      POP \t\t\t\n      JUMP \t\t\t\n    tag 766\t\t\t\n      JUMPDEST \t\t\t\n      PUSH 0\t\t\t\n      DUP3 \t\t\t\n      PUSH 1F\t\t\t\n      DUP4 \t\t\t\n      ADD \t\t\t\n      SLT \t\t\t\n      PUSH [tag] 1193\t\t\t\n      JUMPI \t\t\t\n      PUSH [tag] 1194\t\t\t\n      PUSH [tag] 716\t\t\t\n      JUMP \t\t\t\n    tag 1194\t\t\t\n      JUMPDEST \t\t\t\n    tag 1193\t\t\t\n      JUMPDEST \t\t\t\n      DUP2 \t\t\t\n      CALLDATALOAD \t\t\t\n      PUSH [tag] 1195\t\t\t\n      DUP5 \t\t\t\n      DUP3 \t\t\t\n      PUSH 20\t\t\t\n      DUP7 \t\t\t\n      ADD \t\t\t\n      PUSH [tag] 765\t\t\t\n      JUMP \t\t\t\n    tag 1195\t\t\t\n      JUMPDEST \t\t\t\n      SWAP2 \t\t\t\n      POP \t\t\t\n      POP \t\t\t\n      SWAP3 \t\t\t\n      SWAP2 \t\t\t\n      POP \t\t\t\n      POP \t\t\t\n      JUMP \t\t\t\n    tag 767\t\t\t\n      JUMPDEST \t\t\t\n      PUSH 0\t\t\t\n      PUSH 60\t\t\t\n      DUP3 \t\t\t\n      DUP5 \t\t\t\n      SUB \t\t\t\n      SLT \t\t\t\n      ISZERO \t\t\t\n      PUSH [tag] 1197\t\t\t\n      JUMPI \t\t\t\n      PUSH [tag] 1198\t\t\t\n      PUSH [tag] 760\t\t\t\n      JUMP \t\t\t\n    tag 1198\t\t\t\n      JUMPDEST \t\t\t\n    tag 1197\t\t\t\n      JUMPDEST \t\t\t\n      PUSH [tag] 1199\t\t\t\n      PUSH 60\t\t\t\n      PUSH [tag] 758\t\t\t\n      JUMP \t\t\t\n    tag 1199\t\t\t\n      JUMPDEST \t\t\t\n      SWAP1 \t\t\t\n      POP \t\t\t\n      PUSH 0\t\t\t\n      PUSH [tag] 1200\t\t\t\n      DUP5 \t\t\t\n      DUP3 \t\t\t\n      DUP6 \t\t\t\n      ADD \t\t\t\n      PUSH [tag] 731\t\t\t\n      JUMP \t\t\t\n    tag 1200\t\t\t\n      JUMPDEST \t\t\t\n      PUSH 0\t\t\t\n      DUP4 \t\t\t\n      ADD \t\t\t\n      MSTORE \t\t\t\n      POP \t\t\t\n      PUSH 20\t\t\t\n      PUSH [tag] 1201\t\t\t\n      DUP5 \t\t\t\n      DUP3 \t\t\t\n      DUP6 \t\t\t\n      ADD \t\t\t\n      PUSH [tag] 736\t\t\t\n      JUMP \t\t\t\n    tag 1201\t\t\t\n      JUMPDEST \t\t\t\n      PUSH 20\t\t\t\n      DUP4 \t\t\t\n      ADD \t\t\t\n      MSTORE \t\t\t\n      POP \t\t\t\n      PUSH 40\t\t\t\n      DUP3 \t\t\t\n      ADD \t\t\t\n      CALLDATALOAD \t\t\t\n      PUSH FFFFFFFFFFFFFFFF\t\t\t\n      DUP2 \t\t\t\n      GT \t\t\t\n      ISZERO \t\t\t\n      PUSH [tag] 1202\t\t\t\n      JUMPI \t\t\t\n      PUSH [tag] 1203\t\t\t\n      PUSH [tag] 761\t\t\t\n      JUMP \t\t\t\n    tag 1203\t\t\t\n      JUMPDEST \t\t\t\n    tag 1202\t\t\t\n      JUMPDEST \t\t\t\n      PUSH [tag] 1204\t\t\t\n      DUP5 \t\t\t\n      DUP3 \t\t\t\n      DUP6 \t\t\t\n      ADD \t\t\t\n      PUSH [tag] 766\t\t\t\n      JUMP \t\t\t\n    tag 1204\t\t\t\n      JUMPDEST \t\t\t\n      PUSH 40\t\t\t\n      DUP4 \t\t\t\n      ADD \t\t\t\n      MSTORE \t\t\t\n      POP \t\t\t\n      SWAP3 \t\t\t\n      SWAP2 \t\t\t\n      POP \t\t\t\n      POP \t\t\t\n      JUMP \t\t\t\n    tag 768\t\t\t\n      JUMPDEST \t\t\t\n      PUSH 0\t\t\t\n      PUSH [tag] 1206\t\t\t\n      PUSH [tag] 1207\t\t\t\n      DUP5 \t\t\t\n      PUSH [tag] 759\t\t\t\n      JUMP \t\t\t\n    tag 1207\t\t\t\n      JUMPDEST \t\t\t\n      PUSH [tag] 758\t\t\t\n      JUMP \t\t\t\n    tag 1206\t\t\t\n      JUMPDEST \t\t\t\n      SWAP1 \t\t\t\n      POP \t\t\t\n      DUP1 \t\t\t\n      DUP4 \t\t\t\n      DUP3 \t\t\t\n      MSTORE \t\t\t\n      PUSH 20\t\t\t\n      DUP3 \t\t\t\n      ADD \t\t\t\n      SWAP1 \t\t\t\n      POP \t\t\t\n      PUSH 20\t\t\t\n      DUP5 \t\t\t\n      MUL \t\t\t\n      DUP4 \t\t\t\n      ADD \t\t\t\n      DUP6 \t\t\t\n      DUP2 \t\t\t\n      GT \t\t\t\n      ISZERO \t\t\t\n      PUSH [tag] 1208\t\t\t\n      JUMPI \t\t\t\n      PUSH [tag] 1209\t\t\t\n      PUSH [tag] 718\t\t\t\n      JUMP \t\t\t\n    tag 1209\t\t\t\n      JUMPDEST \t\t\t\n    tag 1208\t\t\t\n      JUMPDEST \t\t\t\n      DUP4 \t\t\t\n    tag 1210\t\t\t\n      JUMPDEST \t\t\t\n      DUP2 \t\t\t\n      DUP2 \t\t\t\n      LT \t\t\t\n      ISZERO \t\t\t\n      PUSH [tag] 1212\t\t\t\n      JUMPI \t\t\t\n      DUP1 \t\t\t\n      CALLDATALOAD \t\t\t\n      PUSH FFFFFFFFFFFFFFFF\t\t\t\n      DUP2 \t\t\t\n      GT \t\t\t\n      ISZERO \t\t\t\n      PUSH [tag] 1213\t\t\t\n      JUMPI \t\t\t\n      PUSH [tag] 1214\t\t\t\n      PUSH [tag] 716\t\t\t\n      JUMP \t\t\t\n    tag 1214\t\t\t\n      JUMPDEST \t\t\t\n    tag 1213\t\t\t\n      JUMPDEST \t\t\t\n      DUP1 \t\t\t\n      DUP7 \t\t\t\n      ADD \t\t\t\n      PUSH [tag] 1215\t\t\t\n      DUP10 \t\t\t\n      DUP3 \t\t\t\n      PUSH [tag] 767\t\t\t\n      JUMP \t\t\t\n    tag 1215\t\t\t\n      JUMPDEST \t\t\t\n      DUP6 \t\t\t\n      MSTORE \t\t\t\n      PUSH 20\t\t\t\n      DUP6 \t\t\t\n      ADD \t\t\t\n      SWAP5 \t\t\t\n      POP \t\t\t\n      POP \t\t\t\n      POP \t\t\t\n      PUSH 20\t\t\t\n      DUP2 \t\t\t\n      ADD \t\t\t\n      SWAP1 \t\t\t\n      POP \t\t\t\n      PUSH [tag] 1210\t\t\t\n      JUMP \t\t\t\n    tag 1212\t\t\t\n      JUMPDEST \t\t\t\n      POP \t\t\t\n      POP \t\t\t\n      POP \t\t\t\n      SWAP4 \t\t\t\n      SWAP3 \t\t\t\n      POP \t\t\t\n      POP \t\t\t\n      POP \t\t\t\n      JUMP \t\t\t\n    tag 369\t\t\t\n      JUMPDEST \t\t\t\n      PUSH 0\t\t\t\n      PUSH [tag] 1217\t\t\t\n      CALLDATASIZE \t\t\t\n      DUP5 \t\t\t\n      DUP5 \t\t\t\n      PUSH [tag] 768\t\t\t\n      JUMP \t\t\t\n    tag 1217\t\t\t\n      JUMPDEST \t\t\t\n      SWAP1 \t\t\t\n      POP \t\t\t\n      SWAP3 \t\t\t\n      SWAP2 \t\t\t\n      POP \t\t\t\n      POP \t\t\t\n      JUMP \t\t\t\n    tag 769\t\t\t\n      JUMPDEST \t\t\t\n      PUSH 0\t\t\t\n      DUP1 \t\t\t\n      REVERT \t\t\t\n    tag 770\t\t\t\n      JUMPDEST \t\t\t\n      PUSH 0\t\t\t\n      DUP1 \t\t\t\n      REVERT \t\t\t\n    tag 383\t\t\t\n      JUMPDEST \t\t\t\n      PUSH 0\t\t\t\n      DUP1 \t\t\t\n      DUP6 \t\t\t\n      DUP6 \t\t\t\n      GT \t\t\t\n      ISZERO \t\t\t\n      PUSH [tag] 1221\t\t\t\n      JUMPI \t\t\t\n      PUSH [tag] 1222\t\t\t\n      PUSH [tag] 769\t\t\t\n      JUMP \t\t\t\n    tag 1222\t\t\t\n      JUMPDEST \t\t\t\n    tag 1221\t\t\t\n      JUMPDEST \t\t\t\n      DUP4 \t\t\t\n      DUP7 \t\t\t\n      GT \t\t\t\n      ISZERO \t\t\t\n      PUSH [tag] 1223\t\t\t\n      JUMPI \t\t\t\n      PUSH [tag] 1224\t\t\t\n      PUSH [tag] 770\t\t\t\n      JUMP \t\t\t\n    tag 1224\t\t\t\n      JUMPDEST \t\t\t\n    tag 1223\t\t\t\n      JUMPDEST \t\t\t\n      PUSH 1\t\t\t\n      DUP6 \t\t\t\n      MUL \t\t\t\n      DUP4 \t\t\t\n      ADD \t\t\t\n      SWAP2 \t\t\t\n      POP \t\t\t\n      DUP5 \t\t\t\n      DUP7 \t\t\t\n      SUB \t\t\t\n      SWAP1 \t\t\t\n      POP \t\t\t\n      SWAP5 \t\t\t\n      POP \t\t\t\n      SWAP5 \t\t\t\n      SWAP3 \t\t\t\n      POP \t\t\t\n      POP \t\t\t\n      POP \t\t\t\n      JUMP \t\t\t\n    tag 771\t\t\t\n      JUMPDEST \t\t\t\n      PUSH 0\t\t\t\n      DUP2 \t\t\t\n      SWAP1 \t\t\t\n      POP \t\t\t\n      SWAP3 \t\t\t\n      SWAP2 \t\t\t\n      POP \t\t\t\n      POP \t\t\t\n      JUMP \t\t\t\n    tag 772\t\t\t\n      JUMPDEST \t\t\t\n      PUSH 0\t\t\t\n      PUSH [tag] 1227\t\t\t\n      DUP3 \t\t\t\n      PUSH [tag] 737\t\t\t\n      JUMP \t\t\t\n    tag 1227\t\t\t\n      JUMPDEST \t\t\t\n      PUSH [tag] 1228\t\t\t\n      DUP2 \t\t\t\n      DUP6 \t\t\t\n      PUSH [tag] 771\t\t\t\n      JUMP \t\t\t\n    tag 1228\t\t\t\n      JUMPDEST \t\t\t\n      SWAP4 \t\t\t\n      POP \t\t\t\n      PUSH [tag] 1229\t\t\t\n      DUP2 \t\t\t\n      DUP6 \t\t\t\n      PUSH 20\t\t\t\n      DUP7 \t\t\t\n      ADD \t\t\t\n      PUSH [tag] 680\t\t\t\n      JUMP \t\t\t\n    tag 1229\t\t\t\n      JUMPDEST \t\t\t\n      DUP1 \t\t\t\n      DUP5 \t\t\t\n      ADD \t\t\t\n      SWAP2 \t\t\t\n      POP \t\t\t\n      POP \t\t\t\n      SWAP3 \t\t\t\n      SWAP2 \t\t\t\n      POP \t\t\t\n      POP \t\t\t\n      JUMP \t\t\t\n    tag 773\t\t\t\n      JUMPDEST \t\t\t\n      PUSH 0\t\t\t\n      PUSH [tag] 1231\t\t\t\n      DUP4 \t\t\t\n      DUP6 \t\t\t\n      PUSH [tag] 771\t\t\t\n      JUMP \t\t\t\n    tag 1231\t\t\t\n      JUMPDEST \t\t\t\n      SWAP4 \t\t\t\n      POP \t\t\t\n      PUSH [tag] 1232\t\t\t\n      DUP4 \t\t\t\n      DUP6 \t\t\t\n      DUP5 \t\t\t\n      PUSH [tag] 764\t\t\t\n      JUMP \t\t\t\n    tag 1232\t\t\t\n      JUMPDEST \t\t\t\n      DUP3 \t\t\t\n      DUP5 \t\t\t\n      ADD \t\t\t\n      SWAP1 \t\t\t\n      POP \t\t\t\n      SWAP4 \t\t\t\n      SWAP3 \t\t\t\n      POP \t\t\t\n      POP \t\t\t\n      POP \t\t\t\n      JUMP \t\t\t\n    tag 385\t\t\t\n      JUMPDEST \t\t\t\n      PUSH 0\t\t\t\n      PUSH [tag] 1234\t\t\t\n      DUP3 \t\t\t\n      DUP7 \t\t\t\n      PUSH [tag] 772\t\t\t\n      JUMP \t\t\t\n    tag 1234\t\t\t\n      JUMPDEST \t\t\t\n      SWAP2 \t\t\t\n      POP \t\t\t\n      PUSH [tag] 1235\t\t\t\n      DUP3 \t\t\t\n      DUP5 \t\t\t\n      DUP7 \t\t\t\n      PUSH [tag] 773\t\t\t\n      JUMP \t\t\t\n    tag 1235\t\t\t\n      JUMPDEST \t\t\t\n      SWAP2 \t\t\t\n      POP \t\t\t\n      DUP2 \t\t\t\n      SWAP1 \t\t\t\n      POP \t\t\t\n      SWAP5 \t\t\t\n      SWAP4 \t\t\t\n      POP \t\t\t\n      POP \t\t\t\n      POP \t\t\t\n      POP \t\t\t\n      JUMP \t\t\t\n    tag 774\t\t\t\n      JUMPDEST \t\t\t\n      PUSH 0\t\t\t\n      PUSH [tag] 1237\t\t\t\n      DUP4 \t\t\t\n      DUP6 \t\t\t\n      PUSH [tag] 738\t\t\t\n      JUMP \t\t\t\n    tag 1237\t\t\t\n      JUMPDEST \t\t\t\n      SWAP4 \t\t\t\n      POP \t\t\t\n      PUSH [tag] 1238\t\t\t\n      DUP4 \t\t\t\n      DUP6 \t\t\t\n      DUP5 \t\t\t\n      PUSH [tag] 764\t\t\t\n      JUMP \t\t\t\n    tag 1238\t\t\t\n      JUMPDEST \t\t\t\n      PUSH [tag] 1239\t\t\t\n      DUP4 \t\t\t\n      PUSH [tag] 681\t\t\t\n      JUMP \t\t\t\n    tag 1239\t\t\t\n      JUMPDEST \t\t\t\n      DUP5 \t\t\t\n      ADD \t\t\t\n      SWAP1 \t\t\t\n      POP \t\t\t\n      SWAP4 \t\t\t\n      SWAP3 \t\t\t\n      POP \t\t\t\n      POP \t\t\t\n      POP \t\t\t\n      JUMP \t\t\t\n    tag 387\t\t\t\n      JUMPDEST \t\t\t\n      PUSH 0\t\t\t\n      PUSH 20\t\t\t\n      DUP3 \t\t\t\n      ADD \t\t\t\n      SWAP1 \t\t\t\n      POP \t\t\t\n      DUP2 \t\t\t\n      DUP2 \t\t\t\n      SUB \t\t\t\n      PUSH 0\t\t\t\n      DUP4 \t\t\t\n      ADD \t\t\t\n      MSTORE \t\t\t\n      PUSH [tag] 1241\t\t\t\n      DUP2 \t\t\t\n      DUP5 \t\t\t\n      DUP7 \t\t\t\n      PUSH [tag] 774\t\t\t\n      JUMP \t\t\t\n    tag 1241\t\t\t\n      JUMPDEST \t\t\t\n      SWAP1 \t\t\t\n      POP \t\t\t\n      SWAP4 \t\t\t\n      SWAP3 \t\t\t\n      POP \t\t\t\n      POP \t\t\t\n      POP \t\t\t\n      JUMP \t\t\t\n    tag 394\t\t\t\n      JUMPDEST \t\t\t\n      PUSH 4E487B7100000000000000000000000000000000000000000000000000000000\t\t\t\n      PUSH 0\t\t\t\n      MSTORE \t\t\t\n      PUSH 32\t\t\t\n      PUSH 4\t\t\t\n      MSTORE \t\t\t\n      PUSH 24\t\t\t\n      PUSH 0\t\t\t\n      REVERT \t\t\t\n    tag 775\t\t\t\n      JUMPDEST \t\t\t\n      PUSH 0\t\t\t\n      DUP1 \t\t\t\n      REVERT \t\t\t\n    tag 776\t\t\t\n      JUMPDEST \t\t\t\n      PUSH 0\t\t\t\n      DUP1 \t\t\t\n      REVERT \t\t\t\n    tag 777\t\t\t\n      JUMPDEST \t\t\t\n      PUSH 0\t\t\t\n      DUP1 \t\t\t\n      REVERT \t\t\t\n    tag 396\t\t\t\n      JUMPDEST \t\t\t\n      PUSH 0\t\t\t\n      DUP3 \t\t\t\n      CALLDATALOAD \t\t\t\n      PUSH 1\t\t\t\n      PUSH 140\t\t\t\n      SUB \t\t\t\n      DUP4 \t\t\t\n      CALLDATASIZE \t\t\t\n      SUB \t\t\t\n      SUB \t\t\t\n      DUP2 \t\t\t\n      SLT \t\t\t\n      PUSH [tag] 1247\t\t\t\n      JUMPI \t\t\t\n      PUSH [tag] 1248\t\t\t\n      PUSH [tag] 775\t\t\t\n      JUMP \t\t\t\n    tag 1248\t\t\t\n      JUMPDEST \t\t\t\n    tag 1247\t\t\t\n      JUMPDEST \t\t\t\n      DUP1 \t\t\t\n      DUP4 \t\t\t\n      ADD \t\t\t\n      SWAP2 \t\t\t\n      POP \t\t\t\n      POP \t\t\t\n      SWAP3 \t\t\t\n      SWAP2 \t\t\t\n      POP \t\t\t\n      POP \t\t\t\n      JUMP \t\t\t\n    tag 401\t\t\t\n      JUMPDEST \t\t\t\n      PUSH 0\t\t\t\n      DUP1 \t\t\t\n      DUP4 \t\t\t\n      CALLDATALOAD \t\t\t\n      PUSH 1\t\t\t\n      PUSH 20\t\t\t\n      SUB \t\t\t\n      DUP5 \t\t\t\n      CALLDATASIZE \t\t\t\n      SUB \t\t\t\n      SUB \t\t\t\n      DUP2 \t\t\t\n      SLT \t\t\t\n      PUSH [tag] 1250\t\t\t\n      JUMPI \t\t\t\n      PUSH [tag] 1251\t\t\t\n      PUSH [tag] 775\t\t\t\n      JUMP \t\t\t\n    tag 1251\t\t\t\n      JUMPDEST \t\t\t\n    tag 1250\t\t\t\n      JUMPDEST \t\t\t\n      DUP1 \t\t\t\n      DUP5 \t\t\t\n      ADD \t\t\t\n      SWAP3 \t\t\t\n      POP \t\t\t\n      DUP3 \t\t\t\n      CALLDATALOAD \t\t\t\n      SWAP2 \t\t\t\n      POP \t\t\t\n      PUSH FFFFFFFFFFFFFFFF\t\t\t\n      DUP3 \t\t\t\n      GT \t\t\t\n      ISZERO \t\t\t\n      PUSH [tag] 1252\t\t\t\n      JUMPI \t\t\t\n      PUSH [tag] 1253\t\t\t\n      PUSH [tag] 776\t\t\t\n      JUMP \t\t\t\n    tag 1253\t\t\t\n      JUMPDEST \t\t\t\n    tag 1252\t\t\t\n      JUMPDEST \t\t\t\n      PUSH 20\t\t\t\n      DUP4 \t\t\t\n      ADD \t\t\t\n      SWAP3 \t\t\t\n      POP \t\t\t\n      PUSH 1\t\t\t\n      DUP3 \t\t\t\n      MUL \t\t\t\n      CALLDATASIZE \t\t\t\n      SUB \t\t\t\n      DUP4 \t\t\t\n      SGT \t\t\t\n      ISZERO \t\t\t\n      PUSH [tag] 1254\t\t\t\n      JUMPI \t\t\t\n      PUSH [tag] 1255\t\t\t\n      PUSH [tag] 777\t\t\t\n      JUMP \t\t\t\n    tag 1255\t\t\t\n      JUMPDEST \t\t\t\n    tag 1254\t\t\t\n      JUMPDEST \t\t\t\n      POP \t\t\t\n      SWAP3 \t\t\t\n      POP \t\t\t\n      SWAP3 \t\t\t\n      SWAP1 \t\t\t\n      POP \t\t\t\n      JUMP \t\t\t\n    tag 778\t\t\t\n      JUMPDEST \t\t\t\n      PUSH 0\t\t\t\n      PUSH [tag] 1257\t\t\t\n      PUSH 20\t\t\t\n      DUP5 \t\t\t\n      ADD \t\t\t\n      DUP5 \t\t\t\n      PUSH [tag] 731\t\t\t\n      JUMP \t\t\t\n    tag 1257\t\t\t\n      JUMPDEST \t\t\t\n      SWAP1 \t\t\t\n      POP \t\t\t\n      SWAP3 \t\t\t\n      SWAP2 \t\t\t\n      POP \t\t\t\n      POP \t\t\t\n      JUMP \t\t\t\n    tag 779\t\t\t\n      JUMPDEST \t\t\t\n      PUSH [tag] 1259\t\t\t\n      DUP2 \t\t\t\n      PUSH [tag] 729\t\t\t\n      JUMP \t\t\t\n    tag 1259\t\t\t\n      JUMPDEST \t\t\t\n      DUP3 \t\t\t\n      MSTORE \t\t\t\n      POP \t\t\t\n      POP \t\t\t\n      JUMP \t\t\t\n    tag 780\t\t\t\n      JUMPDEST \t\t\t\n      PUSH 0\t\t\t\n      PUSH [tag] 1261\t\t\t\n      PUSH 20\t\t\t\n      DUP5 \t\t\t\n      ADD \t\t\t\n      DUP5 \t\t\t\n      PUSH [tag] 715\t\t\t\n      JUMP \t\t\t\n    tag 1261\t\t\t\n      JUMPDEST \t\t\t\n      SWAP1 \t\t\t\n      POP \t\t\t\n      SWAP3 \t\t\t\n      SWAP2 \t\t\t\n      POP \t\t\t\n      POP \t\t\t\n      JUMP \t\t\t\n    tag 781\t\t\t\n      JUMPDEST \t\t\t\n      PUSH [tag] 1263\t\t\t\n      DUP2 \t\t\t\n      PUSH [tag] 724\t\t\t\n      JUMP \t\t\t\n    tag 1263\t\t\t\n      JUMPDEST \t\t\t\n      DUP2 \t\t\t\n      EQ \t\t\t\n      PUSH [tag] 1264\t\t\t\n      JUMPI \t\t\t\n      PUSH 0\t\t\t\n      DUP1 \t\t\t\n      REVERT \t\t\t\n    tag 1264\t\t\t\n      JUMPDEST \t\t\t\n      POP \t\t\t\n      JUMP \t\t\t\n    tag 782\t\t\t\n      JUMPDEST \t\t\t\n      PUSH 0\t\t\t\n      DUP2 \t\t\t\n      CALLDATALOAD \t\t\t\n      SWAP1 \t\t\t\n      POP \t\t\t\n      PUSH [tag] 1266\t\t\t\n      DUP2 \t\t\t\n      PUSH [tag] 781\t\t\t\n      JUMP \t\t\t\n    tag 1266\t\t\t\n      JUMPDEST \t\t\t\n      SWAP3 \t\t\t\n      SWAP2 \t\t\t\n      POP \t\t\t\n      POP \t\t\t\n      JUMP \t\t\t\n    tag 783\t\t\t\n      JUMPDEST \t\t\t\n      PUSH 0\t\t\t\n      PUSH [tag] 1268\t\t\t\n      PUSH 20\t\t\t\n      DUP5 \t\t\t\n      ADD \t\t\t\n      DUP5 \t\t\t\n      PUSH [tag] 782\t\t\t\n      JUMP \t\t\t\n    tag 1268\t\t\t\n      JUMPDEST \t\t\t\n      SWAP1 \t\t\t\n      POP \t\t\t\n      SWAP3 \t\t\t\n      SWAP2 \t\t\t\n      POP \t\t\t\n      POP \t\t\t\n      JUMP \t\t\t\n    tag 784\t\t\t\n      JUMPDEST \t\t\t\n      PUSH 60\t\t\t\n      DUP3 \t\t\t\n      ADD \t\t\t\n      PUSH [tag] 1270\t\t\t\n      PUSH 0\t\t\t\n      DUP4 \t\t\t\n      ADD \t\t\t\n      DUP4 \t\t\t\n      PUSH [tag] 778\t\t\t\n      JUMP \t\t\t\n    tag 1270\t\t\t\n      JUMPDEST \t\t\t\n      PUSH [tag] 1271\t\t\t\n      PUSH 0\t\t\t\n      DUP6 \t\t\t\n      ADD \t\t\t\n      DUP3 \t\t\t\n      PUSH [tag] 779\t\t\t\n      JUMP \t\t\t\n    tag 1271\t\t\t\n      JUMPDEST \t\t\t\n      POP \t\t\t\n      PUSH [tag] 1272\t\t\t\n      PUSH 20\t\t\t\n      DUP4 \t\t\t\n      ADD \t\t\t\n      DUP4 \t\t\t\n      PUSH [tag] 780\t\t\t\n      JUMP \t\t\t\n    tag 1272\t\t\t\n      JUMPDEST \t\t\t\n      PUSH [tag] 1273\t\t\t\n      PUSH 20\t\t\t\n      DUP6 \t\t\t\n      ADD \t\t\t\n      DUP3 \t\t\t\n      PUSH [tag] 749\t\t\t\n      JUMP \t\t\t\n    tag 1273\t\t\t\n      JUMPDEST \t\t\t\n      POP \t\t\t\n      PUSH [tag] 1274\t\t\t\n      PUSH 40\t\t\t\n      DUP4 \t\t\t\n      ADD \t\t\t\n      DUP4 \t\t\t\n      PUSH [tag] 783\t\t\t\n      JUMP \t\t\t\n    tag 1274\t\t\t\n      JUMPDEST \t\t\t\n      PUSH [tag] 1275\t\t\t\n      PUSH 40\t\t\t\n      DUP6 \t\t\t\n      ADD \t\t\t\n      DUP3 \t\t\t\n      PUSH [tag] 750\t\t\t\n      JUMP \t\t\t\n    tag 1275\t\t\t\n      JUMPDEST \t\t\t\n      POP \t\t\t\n      POP \t\t\t\n      POP \t\t\t\n      POP \t\t\t\n      JUMP \t\t\t\n    tag 405\t\t\t\n      JUMPDEST \t\t\t\n      PUSH 0\t\t\t\n      PUSH E0\t\t\t\n      DUP3 \t\t\t\n      ADD \t\t\t\n      SWAP1 \t\t\t\n      POP \t\t\t\n      PUSH [tag] 1277\t\t\t\n      PUSH 0\t\t\t\n      DUP4 \t\t\t\n      ADD \t\t\t\n      DUP11 \t\t\t\n      PUSH [tag] 784\t\t\t\n      JUMP \t\t\t\n    tag 1277\t\t\t\n      JUMPDEST \t\t\t\n      PUSH [tag] 1278\t\t\t\n      PUSH 60\t\t\t\n      DUP4 \t\t\t\n      ADD \t\t\t\n      DUP10 \t\t\t\n      PUSH [tag] 746\t\t\t\n      JUMP \t\t\t\n    tag 1278\t\t\t\n      JUMPDEST \t\t\t\n      DUP2 \t\t\t\n      DUP2 \t\t\t\n      SUB \t\t\t\n      PUSH 80\t\t\t\n      DUP4 \t\t\t\n      ADD \t\t\t\n      MSTORE \t\t\t\n      PUSH [tag] 1279\t\t\t\n      DUP2 \t\t\t\n      DUP8 \t\t\t\n      DUP10 \t\t\t\n      PUSH [tag] 774\t\t\t\n      JUMP \t\t\t\n    tag 1279\t\t\t\n      JUMPDEST \t\t\t\n      SWAP1 \t\t\t\n      POP \t\t\t\n      PUSH [tag] 1280\t\t\t\n      PUSH A0\t\t\t\n      DUP4 \t\t\t\n      ADD \t\t\t\n      DUP7 \t\t\t\n      PUSH [tag] 711\t\t\t\n      JUMP \t\t\t\n    tag 1280\t\t\t\n      JUMPDEST \t\t\t\n      DUP2 \t\t\t\n      DUP2 \t\t\t\n      SUB \t\t\t\n      PUSH C0\t\t\t\n      DUP4 \t\t\t\n      ADD \t\t\t\n      MSTORE \t\t\t\n      PUSH [tag] 1281\t\t\t\n      DUP2 \t\t\t\n      DUP5 \t\t\t\n      DUP7 \t\t\t\n      PUSH [tag] 774\t\t\t\n      JUMP \t\t\t\n    tag 1281\t\t\t\n      JUMPDEST \t\t\t\n      SWAP1 \t\t\t\n      POP \t\t\t\n      SWAP9 \t\t\t\n      SWAP8 \t\t\t\n      POP \t\t\t\n      POP \t\t\t\n      POP \t\t\t\n      POP \t\t\t\n      POP \t\t\t\n      POP \t\t\t\n      POP \t\t\t\n      POP \t\t\t\n      JUMP \t\t\t\n    tag 785\t\t\t\n      JUMPDEST \t\t\t\n      PUSH 0\t\t\t\n      PUSH [tag] 1283\t\t\t\n      PUSH [tag] 1284\t\t\t\n      DUP5 \t\t\t\n      PUSH [tag] 763\t\t\t\n      JUMP \t\t\t\n    tag 1284\t\t\t\n      JUMPDEST \t\t\t\n      PUSH [tag] 758\t\t\t\n      JUMP \t\t\t\n    tag 1283\t\t\t\n      JUMPDEST \t\t\t\n      SWAP1 \t\t\t\n      POP \t\t\t\n      DUP3 \t\t\t\n      DUP2 \t\t\t\n      MSTORE \t\t\t\n      PUSH 20\t\t\t\n      DUP2 \t\t\t\n      ADD \t\t\t\n      DUP5 \t\t\t\n      DUP5 \t\t\t\n      DUP5 \t\t\t\n      ADD \t\t\t\n      GT \t\t\t\n      ISZERO \t\t\t\n      PUSH [tag] 1285\t\t\t\n      JUMPI \t\t\t\n      PUSH [tag] 1286\t\t\t\n      PUSH [tag] 762\t\t\t\n      JUMP \t\t\t\n    tag 1286\t\t\t\n      JUMPDEST \t\t\t\n    tag 1285\t\t\t\n      JUMPDEST \t\t\t\n      PUSH [tag] 1287\t\t\t\n      DUP5 \t\t\t\n      DUP3 \t\t\t\n      DUP6 \t\t\t\n      PUSH [tag] 680\t\t\t\n      JUMP \t\t\t\n    tag 1287\t\t\t\n      JUMPDEST \t\t\t\n      POP \t\t\t\n      SWAP4 \t\t\t\n      SWAP3 \t\t\t\n      POP \t\t\t\n      POP \t\t\t\n      POP \t\t\t\n      JUMP \t\t\t\n    tag 786\t\t\t\n      JUMPDEST \t\t\t\n      PUSH 0\t\t\t\n      DUP3 \t\t\t\n      PUSH 1F\t\t\t\n      DUP4 \t\t\t\n      ADD \t\t\t\n      SLT \t\t\t\n      PUSH [tag] 1289\t\t\t\n      JUMPI \t\t\t\n      PUSH [tag] 1290\t\t\t\n      PUSH [tag] 716\t\t\t\n      JUMP \t\t\t\n    tag 1290\t\t\t\n      JUMPDEST \t\t\t\n    tag 1289\t\t\t\n      JUMPDEST \t\t\t\n      DUP2 \t\t\t\n      MLOAD \t\t\t\n      PUSH [tag] 1291\t\t\t\n      DUP5 \t\t\t\n      DUP3 \t\t\t\n      PUSH 20\t\t\t\n      DUP7 \t\t\t\n      ADD \t\t\t\n      PUSH [tag] 785\t\t\t\n      JUMP \t\t\t\n    tag 1291\t\t\t\n      JUMPDEST \t\t\t\n      SWAP2 \t\t\t\n      POP \t\t\t\n      POP \t\t\t\n      SWAP3 \t\t\t\n      SWAP2 \t\t\t\n      POP \t\t\t\n      POP \t\t\t\n      JUMP \t\t\t\n    tag 412\t\t\t\n      JUMPDEST \t\t\t\n      PUSH 0\t\t\t\n      PUSH 20\t\t\t\n      DUP3 \t\t\t\n      DUP5 \t\t\t\n      SUB \t\t\t\n      SLT \t\t\t\n      ISZERO \t\t\t\n      PUSH [tag] 1293\t\t\t\n      JUMPI \t\t\t\n      PUSH [tag] 1294\t\t\t\n      PUSH [tag] 684\t\t\t\n      JUMP \t\t\t\n    tag 1294\t\t\t\n      JUMPDEST \t\t\t\n    tag 1293\t\t\t\n      JUMPDEST \t\t\t\n      PUSH 0\t\t\t\n      DUP3 \t\t\t\n      ADD \t\t\t\n      MLOAD \t\t\t\n      PUSH FFFFFFFFFFFFFFFF\t\t\t\n      DUP2 \t\t\t\n      GT \t\t\t\n      ISZERO \t\t\t\n      PUSH [tag] 1295\t\t\t\n      JUMPI \t\t\t\n      PUSH [tag] 1296\t\t\t\n      PUSH [tag] 685\t\t\t\n      JUMP \t\t\t\n    tag 1296\t\t\t\n      JUMPDEST \t\t\t\n    tag 1295\t\t\t\n      JUMPDEST \t\t\t\n      PUSH [tag] 1297\t\t\t\n      DUP5 \t\t\t\n      DUP3 \t\t\t\n      DUP6 \t\t\t\n      ADD \t\t\t\n      PUSH [tag] 786\t\t\t\n      JUMP \t\t\t\n    tag 1297\t\t\t\n      JUMPDEST \t\t\t\n      SWAP2 \t\t\t\n      POP \t\t\t\n      POP \t\t\t\n      SWAP3 \t\t\t\n      SWAP2 \t\t\t\n      POP \t\t\t\n      POP \t\t\t\n      JUMP \t\t\t\n    tag 454\t\t\t\n      JUMPDEST \t\t\t\n      PUSH 0\t\t\t\n      PUSH 40\t\t\t\n      DUP3 \t\t\t\n      ADD \t\t\t\n      SWAP1 \t\t\t\n      POP \t\t\t\n      PUSH [tag] 1299\t\t\t\n      PUSH 0\t\t\t\n      DUP4 \t\t\t\n      ADD \t\t\t\n      DUP6 \t\t\t\n      PUSH [tag] 726\t\t\t\n      JUMP \t\t\t\n    tag 1299\t\t\t\n      JUMPDEST \t\t\t\n      PUSH [tag] 1300\t\t\t\n      PUSH 20\t\t\t\n      DUP4 \t\t\t\n      ADD \t\t\t\n      DUP5 \t\t\t\n      PUSH [tag] 726\t\t\t\n      JUMP \t\t\t\n    tag 1300\t\t\t\n      JUMPDEST \t\t\t\n      SWAP4 \t\t\t\n      SWAP3 \t\t\t\n      POP \t\t\t\n      POP \t\t\t\n      POP \t\t\t\n      JUMP \t\t\t\n    tag 458\t\t\t\n      JUMPDEST \t\t\t\n      PUSH 0\t\t\t\n      PUSH 20\t\t\t\n      DUP3 \t\t\t\n      ADD \t\t\t\n      SWAP1 \t\t\t\n      POP \t\t\t\n      PUSH [tag] 1302\t\t\t\n      PUSH 0\t\t\t\n      DUP4 \t\t\t\n      ADD \t\t\t\n      DUP5 \t\t\t\n      PUSH [tag] 756\t\t\t\n      JUMP \t\t\t\n    tag 1302\t\t\t\n      JUMPDEST \t\t\t\n      SWAP3 \t\t\t\n      SWAP2 \t\t\t\n      POP \t\t\t\n      POP \t\t\t\n      JUMP \t\t\t\n    tag 476\t\t\t\n      JUMPDEST \t\t\t\n      PUSH 0\t\t\t\n      PUSH 20\t\t\t\n      DUP3 \t\t\t\n      DUP5 \t\t\t\n      SUB \t\t\t\n      SLT \t\t\t\n      ISZERO \t\t\t\n      PUSH [tag] 1304\t\t\t\n      JUMPI \t\t\t\n      PUSH [tag] 1305\t\t\t\n      PUSH [tag] 684\t\t\t\n      JUMP \t\t\t\n    tag 1305\t\t\t\n      JUMPDEST \t\t\t\n    tag 1304\t\t\t\n      JUMPDEST \t\t\t\n      PUSH 0\t\t\t\n      PUSH [tag] 1306\t\t\t\n      DUP5 \t\t\t\n      DUP3 \t\t\t\n      DUP6 \t\t\t\n      ADD \t\t\t\n      PUSH [tag] 782\t\t\t\n      JUMP \t\t\t\n    tag 1306\t\t\t\n      JUMPDEST \t\t\t\n      SWAP2 \t\t\t\n      POP \t\t\t\n      POP \t\t\t\n      SWAP3 \t\t\t\n      SWAP2 \t\t\t\n      POP \t\t\t\n      POP \t\t\t\n      JUMP \t\t\t\n    tag 787\t\t\t\n      JUMPDEST \t\t\t\n      PUSH 0\t\t\t\n      DUP2 \t\t\t\n      SWAP1 \t\t\t\n      POP \t\t\t\n      SWAP2 \t\t\t\n      SWAP1 \t\t\t\n      POP \t\t\t\n      JUMP \t\t\t\n    tag 788\t\t\t\n      JUMPDEST \t\t\t\n      PUSH 0\t\t\t\n      PUSH [tag] 1309\t\t\t\n      PUSH [tag] 1310\t\t\t\n      PUSH [tag] 1311\t\t\t\n      DUP5 \t\t\t\n      PUSH [tag] 787\t\t\t\n      JUMP \t\t\t\n    tag 1311\t\t\t\n      JUMPDEST \t\t\t\n      PUSH [tag] 740\t\t\t\n      JUMP \t\t\t\n    tag 1310\t\t\t\n      JUMPDEST \t\t\t\n      PUSH [tag] 720\t\t\t\n      JUMP \t\t\t\n    tag 1309\t\t\t\n      JUMPDEST \t\t\t\n      SWAP1 \t\t\t\n      POP \t\t\t\n      SWAP2 \t\t\t\n      SWAP1 \t\t\t\n      POP \t\t\t\n      JUMP \t\t\t\n    tag 789\t\t\t\n      JUMPDEST \t\t\t\n      PUSH [tag] 1313\t\t\t\n      DUP2 \t\t\t\n      PUSH [tag] 788\t\t\t\n      JUMP \t\t\t\n    tag 1313\t\t\t\n      JUMPDEST \t\t\t\n      DUP3 \t\t\t\n      MSTORE \t\t\t\n      POP \t\t\t\n      POP \t\t\t\n      JUMP \t\t\t\n    tag 482\t\t\t\n      JUMPDEST \t\t\t\n      PUSH 0\t\t\t\n      PUSH 80\t\t\t\n      DUP3 \t\t\t\n      ADD \t\t\t\n      SWAP1 \t\t\t\n      POP \t\t\t\n      PUSH [tag] 1315\t\t\t\n      PUSH 0\t\t\t\n      DUP4 \t\t\t\n      ADD \t\t\t\n      DUP8 \t\t\t\n      PUSH [tag] 711\t\t\t\n      JUMP \t\t\t\n    tag 1315\t\t\t\n      JUMPDEST \t\t\t\n      PUSH [tag] 1316\t\t\t\n      PUSH 20\t\t\t\n      DUP4 \t\t\t\n      ADD \t\t\t\n      DUP7 \t\t\t\n      PUSH [tag] 746\t\t\t\n      JUMP \t\t\t\n    tag 1316\t\t\t\n      JUMPDEST \t\t\t\n      PUSH [tag] 1317\t\t\t\n      PUSH 40\t\t\t\n      DUP4 \t\t\t\n      ADD \t\t\t\n      DUP6 \t\t\t\n      PUSH [tag] 789\t\t\t\n      JUMP \t\t\t\n    tag 1317\t\t\t\n      JUMPDEST \t\t\t\n      DUP2 \t\t\t\n      DUP2 \t\t\t\n      SUB \t\t\t\n      PUSH 60\t\t\t\n      DUP4 \t\t\t\n      ADD \t\t\t\n      MSTORE \t\t\t\n      PUSH [tag] 1318\t\t\t\n      DUP2 \t\t\t\n      DUP5 \t\t\t\n      PUSH [tag] 739\t\t\t\n      JUMP \t\t\t\n    tag 1318\t\t\t\n      JUMPDEST \t\t\t\n      SWAP1 \t\t\t\n      POP \t\t\t\n      SWAP6 \t\t\t\n      SWAP5 \t\t\t\n      POP \t\t\t\n      POP \t\t\t\n      POP \t\t\t\n      POP \t\t\t\n      POP \t\t\t\n      JUMP \t\t\t\n    tag 488\t\t\t\n      JUMPDEST \t\t\t\n      PUSH 0\t\t\t\n      PUSH 40\t\t\t\n      DUP3 \t\t\t\n      ADD \t\t\t\n      SWAP1 \t\t\t\n      POP \t\t\t\n      PUSH [tag] 1320\t\t\t\n      PUSH 0\t\t\t\n      DUP4 \t\t\t\n      ADD \t\t\t\n      DUP6 \t\t\t\n      PUSH [tag] 756\t\t\t\n      JUMP \t\t\t\n    tag 1320\t\t\t\n      JUMPDEST \t\t\t\n      PUSH [tag] 1321\t\t\t\n      PUSH 20\t\t\t\n      DUP4 \t\t\t\n      ADD \t\t\t\n      DUP5 \t\t\t\n      PUSH [tag] 726\t\t\t\n      JUMP \t\t\t\n    tag 1321\t\t\t\n      JUMPDEST \t\t\t\n      SWAP4 \t\t\t\n      SWAP3 \t\t\t\n      POP \t\t\t\n      POP \t\t\t\n      POP \t\t\t\n      JUMP \t\t\t\n    tag 494\t\t\t\n      JUMPDEST \t\t\t\n      PUSH 0\t\t\t\n      PUSH 60\t\t\t\n      DUP3 \t\t\t\n      ADD \t\t\t\n      SWAP1 \t\t\t\n      POP \t\t\t\n      PUSH [tag] 1323\t\t\t\n      PUSH 0\t\t\t\n      DUP4 \t\t\t\n      ADD \t\t\t\n      DUP7 \t\t\t\n      PUSH [tag] 711\t\t\t\n      JUMP \t\t\t\n    tag 1323\t\t\t\n      JUMPDEST \t\t\t\n      PUSH [tag] 1324\t\t\t\n      PUSH 20\t\t\t\n      DUP4 \t\t\t\n      ADD \t\t\t\n      DUP6 \t\t\t\n      PUSH [tag] 726\t\t\t\n      JUMP \t\t\t\n    tag 1324\t\t\t\n      JUMPDEST \t\t\t\n      PUSH [tag] 1325\t\t\t\n      PUSH 40\t\t\t\n      DUP4 \t\t\t\n      ADD \t\t\t\n      DUP5 \t\t\t\n      PUSH [tag] 726\t\t\t\n      JUMP \t\t\t\n    tag 1325\t\t\t\n      JUMPDEST \t\t\t\n      SWAP5 \t\t\t\n      SWAP4 \t\t\t\n      POP \t\t\t\n      POP \t\t\t\n      POP \t\t\t\n      POP \t\t\t\n      JUMP \t\t\t\n    tag 524\t\t\t\n      JUMPDEST \t\t\t\n      PUSH 0\t\t\t\n      PUSH 40\t\t\t\n      DUP3 \t\t\t\n      ADD \t\t\t\n      SWAP1 \t\t\t\n      POP \t\t\t\n      DUP2 \t\t\t\n      DUP2 \t\t\t\n      SUB \t\t\t\n      PUSH 0\t\t\t\n      DUP4 \t\t\t\n      ADD \t\t\t\n      MSTORE \t\t\t\n      PUSH [tag] 1327\t\t\t\n      DUP2 \t\t\t\n      DUP6 \t\t\t\n      PUSH [tag] 739\t\t\t\n      JUMP \t\t\t\n    tag 1327\t\t\t\n      JUMPDEST \t\t\t\n      SWAP1 \t\t\t\n      POP \t\t\t\n      DUP2 \t\t\t\n      DUP2 \t\t\t\n      SUB \t\t\t\n      PUSH 20\t\t\t\n      DUP4 \t\t\t\n      ADD \t\t\t\n      MSTORE \t\t\t\n      PUSH [tag] 1328\t\t\t\n      DUP2 \t\t\t\n      DUP5 \t\t\t\n      PUSH [tag] 739\t\t\t\n      JUMP \t\t\t\n    tag 1328\t\t\t\n      JUMPDEST \t\t\t\n      SWAP1 \t\t\t\n      POP \t\t\t\n      SWAP4 \t\t\t\n      SWAP3 \t\t\t\n      POP \t\t\t\n      POP \t\t\t\n      POP \t\t\t\n      JUMP \t\t\t\n    tag 790\t\t\t\n      JUMPDEST \t\t\t\n      PUSH 0\t\t\t\n      DUP2 \t\t\t\n      MLOAD \t\t\t\n      SWAP1 \t\t\t\n      POP \t\t\t\n      PUSH [tag] 1330\t\t\t\n      DUP2 \t\t\t\n      PUSH [tag] 732\t\t\t\n      JUMP \t\t\t\n    tag 1330\t\t\t\n      JUMPDEST \t\t\t\n      SWAP3 \t\t\t\n      SWAP2 \t\t\t\n      POP \t\t\t\n      POP \t\t\t\n      JUMP \t\t\t\n    tag 528\t\t\t\n      JUMPDEST \t\t\t\n      PUSH 0\t\t\t\n      PUSH 20\t\t\t\n      DUP3 \t\t\t\n      DUP5 \t\t\t\n      SUB \t\t\t\n      SLT \t\t\t\n      ISZERO \t\t\t\n      PUSH [tag] 1332\t\t\t\n      JUMPI \t\t\t\n      PUSH [tag] 1333\t\t\t\n      PUSH [tag] 684\t\t\t\n      JUMP \t\t\t\n    tag 1333\t\t\t\n      JUMPDEST \t\t\t\n    tag 1332\t\t\t\n      JUMPDEST \t\t\t\n      PUSH 0\t\t\t\n      PUSH [tag] 1334\t\t\t\n      DUP5 \t\t\t\n      DUP3 \t\t\t\n      DUP6 \t\t\t\n      ADD \t\t\t\n      PUSH [tag] 790\t\t\t\n      JUMP \t\t\t\n    tag 1334\t\t\t\n      JUMPDEST \t\t\t\n      SWAP2 \t\t\t\n      POP \t\t\t\n      POP \t\t\t\n      SWAP3 \t\t\t\n      SWAP2 \t\t\t\n      POP \t\t\t\n      POP \t\t\t\n      JUMP \t\t\t\n    tag 791\t\t\t\n      JUMPDEST \t\t\t\n      PUSH 0\t\t\t\n      DUP3 \t\t\t\n      DUP3 \t\t\t\n      MSTORE \t\t\t\n      PUSH 20\t\t\t\n      DUP3 \t\t\t\n      ADD \t\t\t\n      SWAP1 \t\t\t\n      POP \t\t\t\n      SWAP3 \t\t\t\n      SWAP2 \t\t\t\n      POP \t\t\t\n      POP \t\t\t\n      JUMP \t\t\t\n    tag 792\t\t\t\n      JUMPDEST \t\t\t\n      PUSH 0\t\t\t\n      PUSH [tag] 1337\t\t\t\n      DUP3 \t\t\t\n      PUSH [tag] 737\t\t\t\n      JUMP \t\t\t\n    tag 1337\t\t\t\n      JUMPDEST \t\t\t\n      PUSH [tag] 1338\t\t\t\n      DUP2 \t\t\t\n      DUP6 \t\t\t\n      PUSH [tag] 791\t\t\t\n      JUMP \t\t\t\n    tag 1338\t\t\t\n      JUMPDEST \t\t\t\n      SWAP4 \t\t\t\n      POP \t\t\t\n      PUSH [tag] 1339\t\t\t\n      DUP2 \t\t\t\n      DUP6 \t\t\t\n      PUSH 20\t\t\t\n      DUP7 \t\t\t\n      ADD \t\t\t\n      PUSH [tag] 680\t\t\t\n      JUMP \t\t\t\n    tag 1339\t\t\t\n      JUMPDEST \t\t\t\n      PUSH [tag] 1340\t\t\t\n      DUP2 \t\t\t\n      PUSH [tag] 681\t\t\t\n      JUMP \t\t\t\n    tag 1340\t\t\t\n      JUMPDEST \t\t\t\n      DUP5 \t\t\t\n      ADD \t\t\t\n      SWAP2 \t\t\t\n      POP \t\t\t\n      POP \t\t\t\n      SWAP3 \t\t\t\n      SWAP2 \t\t\t\n      POP \t\t\t\n      POP \t\t\t\n      JUMP \t\t\t\n    tag 793\t\t\t\n      JUMPDEST \t\t\t\n      PUSH [tag] 1342\t\t\t\n      DUP2 \t\t\t\n      PUSH [tag] 693\t\t\t\n      JUMP \t\t\t\n    tag 1342\t\t\t\n      JUMPDEST \t\t\t\n      DUP3 \t\t\t\n      MSTORE \t\t\t\n      POP \t\t\t\n      POP \t\t\t\n      JUMP \t\t\t\n    tag 794\t\t\t\n      JUMPDEST \t\t\t\n      PUSH 0\t\t\t\n      PUSH A0\t\t\t\n      DUP4 \t\t\t\n      ADD \t\t\t\n      PUSH 0\t\t\t\n      DUP4 \t\t\t\n      ADD \t\t\t\n      MLOAD \t\t\t\n      PUSH [tag] 1344\t\t\t\n      PUSH 0\t\t\t\n      DUP7 \t\t\t\n      ADD \t\t\t\n      DUP3 \t\t\t\n      PUSH [tag] 779\t\t\t\n      JUMP \t\t\t\n    tag 1344\t\t\t\n      JUMPDEST \t\t\t\n      POP \t\t\t\n      PUSH 20\t\t\t\n      DUP4 \t\t\t\n      ADD \t\t\t\n      MLOAD \t\t\t\n      PUSH [tag] 1345\t\t\t\n      PUSH 20\t\t\t\n      DUP7 \t\t\t\n      ADD \t\t\t\n      DUP3 \t\t\t\n      PUSH [tag] 749\t\t\t\n      JUMP \t\t\t\n    tag 1345\t\t\t\n      JUMPDEST \t\t\t\n      POP \t\t\t\n      PUSH 40\t\t\t\n      DUP4 \t\t\t\n      ADD \t\t\t\n      MLOAD \t\t\t\n      DUP5 \t\t\t\n      DUP3 \t\t\t\n      SUB \t\t\t\n      PUSH 40\t\t\t\n      DUP7 \t\t\t\n      ADD \t\t\t\n      MSTORE \t\t\t\n      PUSH [tag] 1346\t\t\t\n      DUP3 \t\t\t\n      DUP3 \t\t\t\n      PUSH [tag] 792\t\t\t\n      JUMP \t\t\t\n    tag 1346\t\t\t\n      JUMPDEST \t\t\t\n      SWAP2 \t\t\t\n      POP \t\t\t\n      POP \t\t\t\n      PUSH 60\t\t\t\n      DUP4 \t\t\t\n      ADD \t\t\t\n      MLOAD \t\t\t\n      DUP5 \t\t\t\n      DUP3 \t\t\t\n      SUB \t\t\t\n      PUSH 60\t\t\t\n      DUP7 \t\t\t\n      ADD \t\t\t\n      MSTORE \t\t\t\n      PUSH [tag] 1347\t\t\t\n      DUP3 \t\t\t\n      DUP3 \t\t\t\n      PUSH [tag] 792\t\t\t\n      JUMP \t\t\t\n    tag 1347\t\t\t\n      JUMPDEST \t\t\t\n      SWAP2 \t\t\t\n      POP \t\t\t\n      POP \t\t\t\n      PUSH 80\t\t\t\n      DUP4 \t\t\t\n      ADD \t\t\t\n      MLOAD \t\t\t\n      PUSH [tag] 1348\t\t\t\n      PUSH 80\t\t\t\n      DUP7 \t\t\t\n      ADD \t\t\t\n      DUP3 \t\t\t\n      PUSH [tag] 793\t\t\t\n      JUMP \t\t\t\n    tag 1348\t\t\t\n      JUMPDEST \t\t\t\n      POP \t\t\t\n      DUP1 \t\t\t\n      SWAP2 \t\t\t\n      POP \t\t\t\n      POP \t\t\t\n      SWAP3 \t\t\t\n      SWAP2 \t\t\t\n      POP \t\t\t\n      POP \t\t\t\n      JUMP \t\t\t\n    tag 533\t\t\t\n      JUMPDEST \t\t\t\n      PUSH 0\t\t\t\n      PUSH 40\t\t\t\n      DUP3 \t\t\t\n      ADD \t\t\t\n      SWAP1 \t\t\t\n      POP \t\t\t\n      DUP2 \t\t\t\n      DUP2 \t\t\t\n      SUB \t\t\t\n      PUSH 0\t\t\t\n      DUP4 \t\t\t\n      ADD \t\t\t\n      MSTORE \t\t\t\n      PUSH [tag] 1350\t\t\t\n      DUP2 \t\t\t\n      DUP6 \t\t\t\n      PUSH [tag] 794\t\t\t\n      JUMP \t\t\t\n    tag 1350\t\t\t\n      JUMPDEST \t\t\t\n      SWAP1 \t\t\t\n      POP \t\t\t\n      PUSH [tag] 1351\t\t\t\n      PUSH 20\t\t\t\n      DUP4 \t\t\t\n      ADD \t\t\t\n      DUP5 \t\t\t\n      PUSH [tag] 711\t\t\t\n      JUMP \t\t\t\n    tag 1351\t\t\t\n      JUMPDEST \t\t\t\n      SWAP4 \t\t\t\n      SWAP3 \t\t\t\n      POP \t\t\t\n      POP \t\t\t\n      POP \t\t\t\n      JUMP \t\t\t\n    tag 795\t\t\t\n      JUMPDEST \t\t\t\n      PUSH 0\t\t\t\n      PUSH 40\t\t\t\n      DUP3 \t\t\t\n      DUP5 \t\t\t\n      SUB \t\t\t\n      SLT \t\t\t\n      ISZERO \t\t\t\n      PUSH [tag] 1353\t\t\t\n      JUMPI \t\t\t\n      PUSH [tag] 1354\t\t\t\n      PUSH [tag] 760\t\t\t\n      JUMP \t\t\t\n    tag 1354\t\t\t\n      JUMPDEST \t\t\t\n    tag 1353\t\t\t\n      JUMPDEST \t\t\t\n      PUSH [tag] 1355\t\t\t\n      PUSH 40\t\t\t\n      PUSH [tag] 758\t\t\t\n      JUMP \t\t\t\n    tag 1355\t\t\t\n      JUMPDEST \t\t\t\n      SWAP1 \t\t\t\n      POP \t\t\t\n      PUSH 0\t\t\t\n      PUSH [tag] 1356\t\t\t\n      DUP5 \t\t\t\n      DUP3 \t\t\t\n      DUP6 \t\t\t\n      ADD \t\t\t\n      PUSH [tag] 755\t\t\t\n      JUMP \t\t\t\n    tag 1356\t\t\t\n      JUMPDEST \t\t\t\n      PUSH 0\t\t\t\n      DUP4 \t\t\t\n      ADD \t\t\t\n      MSTORE \t\t\t\n      POP \t\t\t\n      PUSH 20\t\t\t\n      PUSH [tag] 1357\t\t\t\n      DUP5 \t\t\t\n      DUP3 \t\t\t\n      DUP6 \t\t\t\n      ADD \t\t\t\n      PUSH [tag] 755\t\t\t\n      JUMP \t\t\t\n    tag 1357\t\t\t\n      JUMPDEST \t\t\t\n      PUSH 20\t\t\t\n      DUP4 \t\t\t\n      ADD \t\t\t\n      MSTORE \t\t\t\n      POP \t\t\t\n      SWAP3 \t\t\t\n      SWAP2 \t\t\t\n      POP \t\t\t\n      POP \t\t\t\n      JUMP \t\t\t\n    tag 537\t\t\t\n      JUMPDEST \t\t\t\n      PUSH 0\t\t\t\n      PUSH 40\t\t\t\n      DUP3 \t\t\t\n      DUP5 \t\t\t\n      SUB \t\t\t\n      SLT \t\t\t\n      ISZERO \t\t\t\n      PUSH [tag] 1359\t\t\t\n      JUMPI \t\t\t\n      PUSH [tag] 1360\t\t\t\n      PUSH [tag] 684\t\t\t\n      JUMP \t\t\t\n    tag 1360\t\t\t\n      JUMPDEST \t\t\t\n    tag 1359\t\t\t\n      JUMPDEST \t\t\t\n      PUSH 0\t\t\t\n      PUSH [tag] 1361\t\t\t\n      DUP5 \t\t\t\n      DUP3 \t\t\t\n      DUP6 \t\t\t\n      ADD \t\t\t\n      PUSH [tag] 795\t\t\t\n      JUMP \t\t\t\n    tag 1361\t\t\t\n      JUMPDEST \t\t\t\n      SWAP2 \t\t\t\n      POP \t\t\t\n      POP \t\t\t\n      SWAP3 \t\t\t\n      SWAP2 \t\t\t\n      POP \t\t\t\n      POP \t\t\t\n      JUMP \t\t\t\n    tag 796\t\t\t\n      JUMPDEST \t\t\t\n      PUSH 0\t\t\t\n      DUP2 \t\t\t\n      SWAP1 \t\t\t\n      POP \t\t\t\n      DUP2 \t\t\t\n      PUSH 0\t\t\t\n      MSTORE \t\t\t\n      PUSH 20\t\t\t\n      PUSH 0\t\t\t\n      KECCAK256 \t\t\t\n      SWAP1 \t\t\t\n      POP \t\t\t\n      SWAP2 \t\t\t\n      SWAP1 \t\t\t\n      POP \t\t\t\n      JUMP \t\t\t\n    tag 797\t\t\t\n      JUMPDEST \t\t\t\n      PUSH 0\t\t\t\n      PUSH 20\t\t\t\n      PUSH 1F\t\t\t\n      DUP4 \t\t\t\n      ADD \t\t\t\n      DIV \t\t\t\n      SWAP1 \t\t\t\n      POP \t\t\t\n      SWAP2 \t\t\t\n      SWAP1 \t\t\t\n      POP \t\t\t\n      JUMP \t\t\t\n    tag 798\t\t\t\n      JUMPDEST \t\t\t\n      PUSH 0\t\t\t\n      DUP3 \t\t\t\n      DUP3 \t\t\t\n      SHL \t\t\t\n      SWAP1 \t\t\t\n      POP \t\t\t\n      SWAP3 \t\t\t\n      SWAP2 \t\t\t\n      POP \t\t\t\n      POP \t\t\t\n      JUMP \t\t\t\n    tag 799\t\t\t\n      JUMPDEST \t\t\t\n      PUSH 0\t\t\t\n      PUSH 8\t\t\t\n      DUP4 \t\t\t\n      MUL \t\t\t\n      PUSH [tag] 1366\t\t\t\n      PUSH FFFFFFFFFFFFFFFFFFFFFFFFFFFFFFFFFFFFFFFFFFFFFFFFFFFFFFFFFFFFFFFF\t\t\t\n      DUP3 \t\t\t\n      PUSH [tag] 798\t\t\t\n      JUMP \t\t\t\n    tag 1366\t\t\t\n      JUMPDEST \t\t\t\n      PUSH [tag] 1367\t\t\t\n      DUP7 \t\t\t\n      DUP4 \t\t\t\n      PUSH [tag] 798\t\t\t\n      JUMP \t\t\t\n    tag 1367\t\t\t\n      JUMPDEST \t\t\t\n      SWAP6 \t\t\t\n      POP \t\t\t\n      DUP1 \t\t\t\n      NOT \t\t\t\n      DUP5 \t\t\t\n      AND \t\t\t\n      SWAP4 \t\t\t\n      POP \t\t\t\n      DUP1 \t\t\t\n      DUP7 \t\t\t\n      AND \t\t\t\n      DUP5 \t\t\t\n      OR \t\t\t\n      SWAP3 \t\t\t\n      POP \t\t\t\n      POP \t\t\t\n      POP \t\t\t\n      SWAP4 \t\t\t\n      SWAP3 \t\t\t\n      POP \t\t\t\n      POP \t\t\t\n      POP \t\t\t\n      JUMP \t\t\t\n    tag 800\t\t\t\n      JUMPDEST \t\t\t\n      PUSH 0\t\t\t\n      PUSH [tag] 1369\t\t\t\n      PUSH [tag] 1370\t\t\t\n      PUSH [tag] 1371\t\t\t\n      DUP5 \t\t\t\n      PUSH [tag] 690\t\t\t\n      JUMP \t\t\t\n    tag 1371\t\t\t\n      JUMPDEST \t\t\t\n      PUSH [tag] 740\t\t\t\n      JUMP \t\t\t\n    tag 1370\t\t\t\n      JUMPDEST \t\t\t\n      PUSH [tag] 690\t\t\t\n      JUMP \t\t\t\n    tag 1369\t\t\t\n      JUMPDEST \t\t\t\n      SWAP1 \t\t\t\n      POP \t\t\t\n      SWAP2 \t\t\t\n      SWAP1 \t\t\t\n      POP \t\t\t\n      JUMP \t\t\t\n    tag 801\t\t\t\n      JUMPDEST \t\t\t\n      PUSH 0\t\t\t\n      DUP2 \t\t\t\n      SWAP1 \t\t\t\n      POP \t\t\t\n      SWAP2 \t\t\t\n      SWAP1 \t\t\t\n      POP \t\t\t\n      JUMP \t\t\t\n    tag 802\t\t\t\n      JUMPDEST \t\t\t\n      PUSH [tag] 1374\t\t\t\n      DUP4 \t\t\t\n      PUSH [tag] 800\t\t\t\n      JUMP \t\t\t\n    tag 1374\t\t\t\n      JUMPDEST \t\t\t\n      PUSH [tag] 1375\t\t\t\n      PUSH [tag] 1376\t\t\t\n      DUP3 \t\t\t\n      PUSH [tag] 801\t\t\t\n      JUMP \t\t\t\n    tag 1376\t\t\t\n      JUMPDEST \t\t\t\n      DUP5 \t\t\t\n      DUP5 \t\t\t\n      SLOAD \t\t\t\n      PUSH [tag] 799\t\t\t\n      JUMP \t\t\t\n    tag 1375\t\t\t\n      JUMPDEST \t\t\t\n      DUP3 \t\t\t\n      SSTORE \t\t\t\n      POP \t\t\t\n      POP \t\t\t\n      POP \t\t\t\n      POP \t\t\t\n      JUMP \t\t\t\n    tag 803\t\t\t\n      JUMPDEST \t\t\t\n      PUSH 0\t\t\t\n      SWAP1 \t\t\t\n      JUMP \t\t\t\n    tag 804\t\t\t\n      JUMPDEST \t\t\t\n      PUSH [tag] 1379\t\t\t\n      PUSH [tag] 803\t\t\t\n      JUMP \t\t\t\n    tag 1379\t\t\t\n      JUMPDEST \t\t\t\n      PUSH [tag] 1380\t\t\t\n      DUP2 \t\t\t\n      DUP5 \t\t\t\n      DUP5 \t\t\t\n      PUSH [tag] 802\t\t\t\n      JUMP \t\t\t\n    tag 1380\t\t\t\n      JUMPDEST \t\t\t\n      POP \t\t\t\n      POP \t\t\t\n      POP \t\t\t\n      JUMP \t\t\t\n    tag 805\t\t\t\n      JUMPDEST \t\t\t\n    tag 1382\t\t\t\n      JUMPDEST \t\t\t\n      DUP2 \t\t\t\n      DUP2 \t\t\t\n      LT \t\t\t\n      ISZERO \t\t\t\n      PUSH [tag] 1384\t\t\t\n      JUMPI \t\t\t\n      PUSH [tag] 1385\t\t\t\n      PUSH 0\t\t\t\n      DUP3 \t\t\t\n      PUSH [tag] 804\t\t\t\n      JUMP \t\t\t\n    tag 1385\t\t\t\n      JUMPDEST \t\t\t\n      PUSH 1\t\t\t\n      DUP2 \t\t\t\n      ADD \t\t\t\n      SWAP1 \t\t\t\n      POP \t\t\t\n      PUSH [tag] 1382\t\t\t\n      JUMP \t\t\t\n    tag 1384\t\t\t\n      JUMPDEST \t\t\t\n      POP \t\t\t\n      POP \t\t\t\n      JUMP \t\t\t\n    tag 806\t\t\t\n      JUMPDEST \t\t\t\n      PUSH 1F\t\t\t\n      DUP3 \t\t\t\n      GT \t\t\t\n      ISZERO \t\t\t\n      PUSH [tag] 1387\t\t\t\n      JUMPI \t\t\t\n      PUSH [tag] 1388\t\t\t\n      DUP2 \t\t\t\n      PUSH [tag] 796\t\t\t\n      JUMP \t\t\t\n    tag 1388\t\t\t\n      JUMPDEST \t\t\t\n      PUSH [tag] 1389\t\t\t\n      DUP5 \t\t\t\n      PUSH [tag] 797\t\t\t\n      JUMP \t\t\t\n    tag 1389\t\t\t\n      JUMPDEST \t\t\t\n      DUP2 \t\t\t\n      ADD \t\t\t\n      PUSH 20\t\t\t\n      DUP6 \t\t\t\n      LT \t\t\t\n      ISZERO \t\t\t\n      PUSH [tag] 1390\t\t\t\n      JUMPI \t\t\t\n      DUP2 \t\t\t\n      SWAP1 \t\t\t\n      POP \t\t\t\n    tag 1390\t\t\t\n      JUMPDEST \t\t\t\n      PUSH [tag] 1391\t\t\t\n      PUSH [tag] 1392\t\t\t\n      DUP6 \t\t\t\n      PUSH [tag] 797\t\t\t\n      JUMP \t\t\t\n    tag 1392\t\t\t\n      JUMPDEST \t\t\t\n      DUP4 \t\t\t\n      ADD \t\t\t\n      DUP3 \t\t\t\n      PUSH [tag] 805\t\t\t\n      JUMP \t\t\t\n    tag 1391\t\t\t\n      JUMPDEST \t\t\t\n      POP \t\t\t\n      POP \t\t\t\n    tag 1387\t\t\t\n      JUMPDEST \t\t\t\n      POP \t\t\t\n      POP \t\t\t\n      POP \t\t\t\n      JUMP \t\t\t\n    tag 807\t\t\t\n      JUMPDEST \t\t\t\n      PUSH 0\t\t\t\n      DUP3 \t\t\t\n      DUP3 \t\t\t\n      SHR \t\t\t\n      SWAP1 \t\t\t\n      POP \t\t\t\n      SWAP3 \t\t\t\n      SWAP2 \t\t\t\n      POP \t\t\t\n      POP \t\t\t\n      JUMP \t\t\t\n    tag 808\t\t\t\n      JUMPDEST \t\t\t\n      PUSH 0\t\t\t\n      PUSH [tag] 1395\t\t\t\n      PUSH 0\t\t\t\n      NOT \t\t\t\n      DUP5 \t\t\t\n      PUSH 8\t\t\t\n      MUL \t\t\t\n      PUSH [tag] 807\t\t\t\n      JUMP \t\t\t\n    tag 1395\t\t\t\n      JUMPDEST \t\t\t\n      NOT \t\t\t\n      DUP1 \t\t\t\n      DUP4 \t\t\t\n      AND \t\t\t\n      SWAP2 \t\t\t\n      POP \t\t\t\n      POP \t\t\t\n      SWAP3 \t\t\t\n      SWAP2 \t\t\t\n      POP \t\t\t\n      POP \t\t\t\n      JUMP \t\t\t\n    tag 809\t\t\t\n      JUMPDEST \t\t\t\n      PUSH 0\t\t\t\n      PUSH [tag] 1397\t\t\t\n      DUP4 \t\t\t\n      DUP4 \t\t\t\n      PUSH [tag] 808\t\t\t\n      JUMP \t\t\t\n    tag 1397\t\t\t\n      JUMPDEST \t\t\t\n      SWAP2 \t\t\t\n      POP \t\t\t\n      DUP3 \t\t\t\n      PUSH 2\t\t\t\n      MUL \t\t\t\n      DUP3 \t\t\t\n      OR \t\t\t\n      SWAP1 \t\t\t\n      POP \t\t\t\n      SWAP3 \t\t\t\n      SWAP2 \t\t\t\n      POP \t\t\t\n      POP \t\t\t\n      JUMP \t\t\t\n    tag 553\t\t\t\n      JUMPDEST \t\t\t\n      PUSH [tag] 1399\t\t\t\n      DUP3 \t\t\t\n      PUSH [tag] 737\t\t\t\n      JUMP \t\t\t\n    tag 1399\t\t\t\n      JUMPDEST \t\t\t\n      PUSH FFFFFFFFFFFFFFFF\t\t\t\n      DUP2 \t\t\t\n      GT \t\t\t\n      ISZERO \t\t\t\n      PUSH [tag] 1400\t\t\t\n      JUMPI \t\t\t\n      PUSH [tag] 1401\t\t\t\n      PUSH [tag] 287\t\t\t\n      JUMP \t\t\t\n    tag 1401\t\t\t\n      JUMPDEST \t\t\t\n    tag 1400\t\t\t\n      JUMPDEST \t\t\t\n      PUSH [tag] 1402\t\t\t\n      DUP3 \t\t\t\n      SLOAD \t\t\t\n      PUSH [tag] 262\t\t\t\n      JUMP \t\t\t\n    tag 1402\t\t\t\n      JUMPDEST \t\t\t\n      PUSH [tag] 1403\t\t\t\n      DUP3 \t\t\t\n      DUP3 \t\t\t\n      DUP6 \t\t\t\n      PUSH [tag] 806\t\t\t\n      JUMP \t\t\t\n    tag 1403\t\t\t\n      JUMPDEST \t\t\t\n      PUSH 0\t\t\t\n      PUSH 20\t\t\t\n      SWAP1 \t\t\t\n      POP \t\t\t\n      PUSH 1F\t\t\t\n      DUP4 \t\t\t\n      GT \t\t\t\n      PUSH 1\t\t\t\n      DUP2 \t\t\t\n      EQ \t\t\t\n      PUSH [tag] 1405\t\t\t\n      JUMPI \t\t\t\n      PUSH 0\t\t\t\n      DUP5 \t\t\t\n      ISZERO \t\t\t\n      PUSH [tag] 1406\t\t\t\n      JUMPI \t\t\t\n      DUP3 \t\t\t\n      DUP8 \t\t\t\n      ADD \t\t\t\n      MLOAD \t\t\t\n      SWAP1 \t\t\t\n      POP \t\t\t\n    tag 1406\t\t\t\n      JUMPDEST \t\t\t\n      PUSH [tag] 1407\t\t\t\n      DUP6 \t\t\t\n      DUP3 \t\t\t\n      PUSH [tag] 809\t\t\t\n      JUMP \t\t\t\n    tag 1407\t\t\t\n      JUMPDEST \t\t\t\n      DUP7 \t\t\t\n      SSTORE \t\t\t\n      POP \t\t\t\n      PUSH [tag] 1404\t\t\t\n      JUMP \t\t\t\n    tag 1405\t\t\t\n      JUMPDEST \t\t\t\n      PUSH 1F\t\t\t\n      NOT \t\t\t\n      DUP5 \t\t\t\n      AND \t\t\t\n      PUSH [tag] 1408\t\t\t\n      DUP7 \t\t\t\n      PUSH [tag] 796\t\t\t\n      JUMP \t\t\t\n    tag 1408\t\t\t\n      JUMPDEST \t\t\t\n      PUSH 0\t\t\t\n    tag 1409\t\t\t\n      JUMPDEST \t\t\t\n      DUP3 \t\t\t\n      DUP2 \t\t\t\n      LT \t\t\t\n      ISZERO \t\t\t\n      PUSH [tag] 1411\t\t\t\n      JUMPI \t\t\t\n      DUP5 \t\t\t\n      DUP10 \t\t\t\n      ADD \t\t\t\n      MLOAD \t\t\t\n      DUP3 \t\t\t\n      SSTORE \t\t\t\n      PUSH 1\t\t\t\n      DUP3 \t\t\t\n      ADD \t\t\t\n      SWAP2 \t\t\t\n      POP \t\t\t\n      PUSH 20\t\t\t\n      DUP6 \t\t\t\n      ADD \t\t\t\n      SWAP5 \t\t\t\n      POP \t\t\t\n      PUSH 20\t\t\t\n      DUP2 \t\t\t\n      ADD \t\t\t\n      SWAP1 \t\t\t\n      POP \t\t\t\n      PUSH [tag] 1409\t\t\t\n      JUMP \t\t\t\n    tag 1411\t\t\t\n      JUMPDEST \t\t\t\n      DUP7 \t\t\t\n      DUP4 \t\t\t\n      LT \t\t\t\n      ISZERO \t\t\t\n      PUSH [tag] 1412\t\t\t\n      JUMPI \t\t\t\n      DUP5 \t\t\t\n      DUP10 \t\t\t\n      ADD \t\t\t\n      MLOAD \t\t\t\n      PUSH [tag] 1413\t\t\t\n      PUSH 1F\t\t\t\n      DUP10 \t\t\t\n      AND \t\t\t\n      DUP3 \t\t\t\n      PUSH [tag] 808\t\t\t\n      JUMP \t\t\t\n    tag 1413\t\t\t\n      JUMPDEST \t\t\t\n      DUP4 \t\t\t\n      SSTORE \t\t\t\n      POP \t\t\t\n    tag 1412\t\t\t\n      JUMPDEST \t\t\t\n      PUSH 1\t\t\t\n      PUSH 2\t\t\t\n      DUP9 \t\t\t\n      MUL \t\t\t\n      ADD \t\t\t\n      DUP9 \t\t\t\n      SSTORE \t\t\t\n      POP \t\t\t\n      POP \t\t\t\n      POP \t\t\t\n    tag 1404\t\t\t\n      JUMPDEST \t\t\t\n      POP \t\t\t\n      POP \t\t\t\n      POP \t\t\t\n      POP \t\t\t\n      POP \t\t\t\n      POP \t\t\t\n      JUMP \t\t\t\n    tag 810\t\t\t\n      JUMPDEST \t\t\t\n      PUSH 0\t\t\t\n      DUP2 \t\t\t\n      MLOAD \t\t\t\n      SWAP1 \t\t\t\n      POP \t\t\t\n      SWAP2 \t\t\t\n      SWAP1 \t\t\t\n      POP \t\t\t\n      JUMP \t\t\t\n    tag 811\t\t\t\n      JUMPDEST \t\t\t\n      PUSH 0\t\t\t\n      DUP3 \t\t\t\n      DUP3 \t\t\t\n      MSTORE \t\t\t\n      PUSH 20\t\t\t\n      DUP3 \t\t\t\n      ADD \t\t\t\n      SWAP1 \t\t\t\n      POP \t\t\t\n      SWAP3 \t\t\t\n      SWAP2 \t\t\t\n      POP \t\t\t\n      POP \t\t\t\n      JUMP \t\t\t\n    tag 812\t\t\t\n      JUMPDEST \t\t\t\n      PUSH 0\t\t\t\n      DUP2 \t\t\t\n      SWAP1 \t\t\t\n      POP \t\t\t\n      PUSH 20\t\t\t\n      DUP3 \t\t\t\n      ADD \t\t\t\n      SWAP1 \t\t\t\n      POP \t\t\t\n      SWAP2 \t\t\t\n      SWAP1 \t\t\t\n      POP \t\t\t\n      JUMP \t\t\t\n    tag 813\t\t\t\n      JUMPDEST \t\t\t\n      PUSH [tag] 1418\t\t\t\n      DUP2 \t\t\t\n      PUSH [tag] 720\t\t\t\n      JUMP \t\t\t\n    tag 1418\t\t\t\n      JUMPDEST \t\t\t\n      DUP3 \t\t\t\n      MSTORE \t\t\t\n      POP \t\t\t\n      POP \t\t\t\n      JUMP \t\t\t\n    tag 814\t\t\t\n      JUMPDEST \t\t\t\n      PUSH 0\t\t\t\n      PUSH 60\t\t\t\n      DUP4 \t\t\t\n      ADD \t\t\t\n      PUSH 0\t\t\t\n      DUP4 \t\t\t\n      ADD \t\t\t\n      MLOAD \t\t\t\n      PUSH [tag] 1420\t\t\t\n      PUSH 0\t\t\t\n      DUP7 \t\t\t\n      ADD \t\t\t\n      DUP3 \t\t\t\n      PUSH [tag] 779\t\t\t\n      JUMP \t\t\t\n    tag 1420\t\t\t\n      JUMPDEST \t\t\t\n      POP \t\t\t\n      PUSH 20\t\t\t\n      DUP4 \t\t\t\n      ADD \t\t\t\n      MLOAD \t\t\t\n      PUSH [tag] 1421\t\t\t\n      PUSH 20\t\t\t\n      DUP7 \t\t\t\n      ADD \t\t\t\n      DUP3 \t\t\t\n      PUSH [tag] 813\t\t\t\n      JUMP \t\t\t\n    tag 1421\t\t\t\n      JUMPDEST \t\t\t\n      POP \t\t\t\n      PUSH 40\t\t\t\n      DUP4 \t\t\t\n      ADD \t\t\t\n      MLOAD \t\t\t\n      DUP5 \t\t\t\n      DUP3 \t\t\t\n      SUB \t\t\t\n      PUSH 40\t\t\t\n      DUP7 \t\t\t\n      ADD \t\t\t\n      MSTORE \t\t\t\n      PUSH [tag] 1422\t\t\t\n      DUP3 \t\t\t\n      DUP3 \t\t\t\n      PUSH [tag] 792\t\t\t\n      JUMP \t\t\t\n    tag 1422\t\t\t\n      JUMPDEST \t\t\t\n      SWAP2 \t\t\t\n      POP \t\t\t\n      POP \t\t\t\n      DUP1 \t\t\t\n      SWAP2 \t\t\t\n      POP \t\t\t\n      POP \t\t\t\n      SWAP3 \t\t\t\n      SWAP2 \t\t\t\n      POP \t\t\t\n      POP \t\t\t\n      JUMP \t\t\t\n    tag 815\t\t\t\n      JUMPDEST \t\t\t\n      PUSH 0\t\t\t\n      PUSH [tag] 1424\t\t\t\n      DUP4 \t\t\t\n      DUP4 \t\t\t\n      PUSH [tag] 814\t\t\t\n      JUMP \t\t\t\n    tag 1424\t\t\t\n      JUMPDEST \t\t\t\n      SWAP1 \t\t\t\n      POP \t\t\t\n      SWAP3 \t\t\t\n      SWAP2 \t\t\t\n      POP \t\t\t\n      POP \t\t\t\n      JUMP \t\t\t\n    tag 816\t\t\t\n      JUMPDEST \t\t\t\n      PUSH 0\t\t\t\n      PUSH 20\t\t\t\n      DUP3 \t\t\t\n      ADD \t\t\t\n      SWAP1 \t\t\t\n      POP \t\t\t\n      SWAP2 \t\t\t\n      SWAP1 \t\t\t\n      POP \t\t\t\n      JUMP \t\t\t\n    tag 817\t\t\t\n      JUMPDEST \t\t\t\n      PUSH 0\t\t\t\n      PUSH [tag] 1427\t\t\t\n      DUP3 \t\t\t\n      PUSH [tag] 810\t\t\t\n      JUMP \t\t\t\n    tag 1427\t\t\t\n      JUMPDEST \t\t\t\n      PUSH [tag] 1428\t\t\t\n      DUP2 \t\t\t\n      DUP6 \t\t\t\n      PUSH [tag] 811\t\t\t\n      JUMP \t\t\t\n    tag 1428\t\t\t\n      JUMPDEST \t\t\t\n      SWAP4 \t\t\t\n      POP \t\t\t\n      DUP4 \t\t\t\n      PUSH 20\t\t\t\n      DUP3 \t\t\t\n      MUL \t\t\t\n      DUP6 \t\t\t\n      ADD \t\t\t\n      PUSH [tag] 1429\t\t\t\n      DUP6 \t\t\t\n      PUSH [tag] 812\t\t\t\n      JUMP \t\t\t\n    tag 1429\t\t\t\n      JUMPDEST \t\t\t\n      DUP1 \t\t\t\n      PUSH 0\t\t\t\n    tag 1430\t\t\t\n      JUMPDEST \t\t\t\n      DUP6 \t\t\t\n      DUP2 \t\t\t\n      LT \t\t\t\n      ISZERO \t\t\t\n      PUSH [tag] 1432\t\t\t\n      JUMPI \t\t\t\n      DUP5 \t\t\t\n      DUP5 \t\t\t\n      SUB \t\t\t\n      DUP10 \t\t\t\n      MSTORE \t\t\t\n      DUP2 \t\t\t\n      MLOAD \t\t\t\n      PUSH [tag] 1433\t\t\t\n      DUP6 \t\t\t\n      DUP3 \t\t\t\n      PUSH [tag] 815\t\t\t\n      JUMP \t\t\t\n    tag 1433\t\t\t\n      JUMPDEST \t\t\t\n      SWAP5 \t\t\t\n      POP \t\t\t\n      PUSH [tag] 1434\t\t\t\n      DUP4 \t\t\t\n      PUSH [tag] 816\t\t\t\n      JUMP \t\t\t\n    tag 1434\t\t\t\n      JUMPDEST \t\t\t\n      SWAP3 \t\t\t\n      POP \t\t\t\n      PUSH 20\t\t\t\n      DUP11 \t\t\t\n      ADD \t\t\t\n      SWAP10 \t\t\t\n      POP \t\t\t\n      POP \t\t\t\n      PUSH 1\t\t\t\n      DUP2 \t\t\t\n      ADD \t\t\t\n      SWAP1 \t\t\t\n      POP \t\t\t\n      PUSH [tag] 1430\t\t\t\n      JUMP \t\t\t\n    tag 1432\t\t\t\n      JUMPDEST \t\t\t\n      POP \t\t\t\n      DUP3 \t\t\t\n      SWAP8 \t\t\t\n      POP \t\t\t\n      DUP8 \t\t\t\n      SWAP6 \t\t\t\n      POP \t\t\t\n      POP \t\t\t\n      POP \t\t\t\n      POP \t\t\t\n      POP \t\t\t\n      POP \t\t\t\n      SWAP3 \t\t\t\n      SWAP2 \t\t\t\n      POP \t\t\t\n      POP \t\t\t\n      JUMP \t\t\t\n    tag 555\t\t\t\n      JUMPDEST \t\t\t\n      PUSH 0\t\t\t\n      PUSH 20\t\t\t\n      DUP3 \t\t\t\n      ADD \t\t\t\n      SWAP1 \t\t\t\n      POP \t\t\t\n      DUP2 \t\t\t\n      DUP2 \t\t\t\n      SUB \t\t\t\n      PUSH 0\t\t\t\n      DUP4 \t\t\t\n      ADD \t\t\t\n      MSTORE \t\t\t\n      PUSH [tag] 1436\t\t\t\n      DUP2 \t\t\t\n      DUP5 \t\t\t\n      PUSH [tag] 817\t\t\t\n      JUMP \t\t\t\n    tag 1436\t\t\t\n      JUMPDEST \t\t\t\n      SWAP1 \t\t\t\n      POP \t\t\t\n      SWAP3 \t\t\t\n      SWAP2 \t\t\t\n      POP \t\t\t\n      POP \t\t\t\n      JUMP \t\t\t\n    tag 818\t\t\t\n      JUMPDEST \t\t\t\n      PUSH 0\t\t\t\n      PUSH 40\t\t\t\n      DUP3 \t\t\t\n      DUP5 \t\t\t\n      SUB \t\t\t\n      SLT \t\t\t\n      ISZERO \t\t\t\n      PUSH [tag] 1438\t\t\t\n      JUMPI \t\t\t\n      PUSH [tag] 1439\t\t\t\n      PUSH [tag] 760\t\t\t\n      JUMP \t\t\t\n    tag 1439\t\t\t\n      JUMPDEST \t\t\t\n    tag 1438\t\t\t\n      JUMPDEST \t\t\t\n      PUSH [tag] 1440\t\t\t\n      PUSH 40\t\t\t\n      PUSH [tag] 758\t\t\t\n      JUMP \t\t\t\n    tag 1440\t\t\t\n      JUMPDEST \t\t\t\n      SWAP1 \t\t\t\n      POP \t\t\t\n      PUSH 0\t\t\t\n      PUSH [tag] 1441\t\t\t\n      DUP5 \t\t\t\n      DUP3 \t\t\t\n      DUP6 \t\t\t\n      ADD \t\t\t\n      PUSH [tag] 692\t\t\t\n      JUMP \t\t\t\n    tag 1441\t\t\t\n      JUMPDEST \t\t\t\n      PUSH 0\t\t\t\n      DUP4 \t\t\t\n      ADD \t\t\t\n      MSTORE \t\t\t\n      POP \t\t\t\n      PUSH 20\t\t\t\n      PUSH [tag] 1442\t\t\t\n      DUP5 \t\t\t\n      DUP3 \t\t\t\n      DUP6 \t\t\t\n      ADD \t\t\t\n      PUSH [tag] 692\t\t\t\n      JUMP \t\t\t\n    tag 1442\t\t\t\n      JUMPDEST \t\t\t\n      PUSH 20\t\t\t\n      DUP4 \t\t\t\n      ADD \t\t\t\n      MSTORE \t\t\t\n      POP \t\t\t\n      SWAP3 \t\t\t\n      SWAP2 \t\t\t\n      POP \t\t\t\n      POP \t\t\t\n      JUMP \t\t\t\n    tag 569\t\t\t\n      JUMPDEST \t\t\t\n      PUSH 0\t\t\t\n      PUSH 40\t\t\t\n      DUP3 \t\t\t\n      DUP5 \t\t\t\n      SUB \t\t\t\n      SLT \t\t\t\n      ISZERO \t\t\t\n      PUSH [tag] 1444\t\t\t\n      JUMPI \t\t\t\n      PUSH [tag] 1445\t\t\t\n      PUSH [tag] 684\t\t\t\n      JUMP \t\t\t\n    tag 1445\t\t\t\n      JUMPDEST \t\t\t\n    tag 1444\t\t\t\n      JUMPDEST \t\t\t\n      PUSH 0\t\t\t\n      PUSH [tag] 1446\t\t\t\n      DUP5 \t\t\t\n      DUP3 \t\t\t\n      DUP6 \t\t\t\n      ADD \t\t\t\n      PUSH [tag] 818\t\t\t\n      JUMP \t\t\t\n    tag 1446\t\t\t\n      JUMPDEST \t\t\t\n      SWAP2 \t\t\t\n      POP \t\t\t\n      POP \t\t\t\n      SWAP3 \t\t\t\n      SWAP2 \t\t\t\n      POP \t\t\t\n      POP \t\t\t\n      JUMP \t\t\t\n    tag 573\t\t\t\n      JUMPDEST \t\t\t\n      PUSH 0\t\t\t\n      PUSH 60\t\t\t\n      DUP3 \t\t\t\n      ADD \t\t\t\n      SWAP1 \t\t\t\n      POP \t\t\t\n      PUSH [tag] 1448\t\t\t\n      PUSH 0\t\t\t\n      DUP4 \t\t\t\n      ADD \t\t\t\n      DUP7 \t\t\t\n      PUSH [tag] 756\t\t\t\n      JUMP \t\t\t\n    tag 1448\t\t\t\n      JUMPDEST \t\t\t\n      PUSH [tag] 1449\t\t\t\n      PUSH 20\t\t\t\n      DUP4 \t\t\t\n      ADD \t\t\t\n      DUP6 \t\t\t\n      PUSH [tag] 726\t\t\t\n      JUMP \t\t\t\n    tag 1449\t\t\t\n      JUMPDEST \t\t\t\n      PUSH [tag] 1450\t\t\t\n      PUSH 40\t\t\t\n      DUP4 \t\t\t\n      ADD \t\t\t\n      DUP5 \t\t\t\n      PUSH [tag] 726\t\t\t\n      JUMP \t\t\t\n    tag 1450\t\t\t\n      JUMPDEST \t\t\t\n      SWAP5 \t\t\t\n      SWAP4 \t\t\t\n      POP \t\t\t\n      POP \t\t\t\n      POP \t\t\t\n      POP \t\t\t\n      JUMP \t\t\t\n    tag 819\t\t\t\n      JUMPDEST \t\t\t\n      PUSH 4E487B7100000000000000000000000000000000000000000000000000000000\t\t\t\n      PUSH 0\t\t\t\n      MSTORE \t\t\t\n      PUSH 12\t\t\t\n      PUSH 4\t\t\t\n      MSTORE \t\t\t\n      PUSH 24\t\t\t\n      PUSH 0\t\t\t\n      REVERT \t\t\t\n    tag 820\t\t\t\n      JUMPDEST \t\t\t\n      PUSH 4E487B7100000000000000000000000000000000000000000000000000000000\t\t\t\n      PUSH 0\t\t\t\n      MSTORE \t\t\t\n      PUSH 11\t\t\t\n      PUSH 4\t\t\t\n      MSTORE \t\t\t\n      PUSH 24\t\t\t\n      PUSH 0\t\t\t\n      REVERT \t\t\t\n    tag 585\t\t\t\n      JUMPDEST \t\t\t\n      PUSH 0\t\t\t\n      PUSH [tag] 1454\t\t\t\n      DUP3 \t\t\t\n      PUSH [tag] 690\t\t\t\n      JUMP \t\t\t\n    tag 1454\t\t\t\n      JUMPDEST \t\t\t\n      SWAP2 \t\t\t\n      POP \t\t\t\n      PUSH [tag] 1455\t\t\t\n      DUP4 \t\t\t\n      PUSH [tag] 690\t\t\t\n      JUMP \t\t\t\n    tag 1455\t\t\t\n      JUMPDEST \t\t\t\n      SWAP3 \t\t\t\n      POP \t\t\t\n      DUP3 \t\t\t\n      PUSH [tag] 1456\t\t\t\n      JUMPI \t\t\t\n      PUSH [tag] 1457\t\t\t\n      PUSH [tag] 819\t\t\t\n      JUMP \t\t\t\n    tag 1457\t\t\t\n      JUMPDEST \t\t\t\n    tag 1456\t\t\t\n      JUMPDEST \t\t\t\n      DUP3 \t\t\t\n      DUP3 \t\t\t\n      DIV \t\t\t\n      SWAP1 \t\t\t\n      POP \t\t\t\n      SWAP3 \t\t\t\n      SWAP2 \t\t\t\n      POP \t\t\t\n      POP \t\t\t\n      JUMP \t\t\t\n    tag 587\t\t\t\n      JUMPDEST \t\t\t\n      PUSH 0\t\t\t\n      PUSH [tag] 1459\t\t\t\n      DUP3 \t\t\t\n      PUSH [tag] 690\t\t\t\n      JUMP \t\t\t\n    tag 1459\t\t\t\n      JUMPDEST \t\t\t\n      SWAP2 \t\t\t\n      POP \t\t\t\n      PUSH [tag] 1460\t\t\t\n      DUP4 \t\t\t\n      PUSH [tag] 690\t\t\t\n      JUMP \t\t\t\n    tag 1460\t\t\t\n      JUMPDEST \t\t\t\n      SWAP3 \t\t\t\n      POP \t\t\t\n      DUP3 \t\t\t\n      DUP3 \t\t\t\n      MUL \t\t\t\n      PUSH [tag] 1461\t\t\t\n      DUP2 \t\t\t\n      PUSH [tag] 690\t\t\t\n      JUMP \t\t\t\n    tag 1461\t\t\t\n      JUMPDEST \t\t\t\n      SWAP2 \t\t\t\n      POP \t\t\t\n      DUP3 \t\t\t\n      DUP3 \t\t\t\n      DIV \t\t\t\n      DUP5 \t\t\t\n      EQ \t\t\t\n      DUP4 \t\t\t\n      ISZERO \t\t\t\n      OR \t\t\t\n      PUSH [tag] 1462\t\t\t\n      JUMPI \t\t\t\n      PUSH [tag] 1463\t\t\t\n      PUSH [tag] 820\t\t\t\n      JUMP \t\t\t\n    tag 1463\t\t\t\n      JUMPDEST \t\t\t\n    tag 1462\t\t\t\n      JUMPDEST \t\t\t\n      POP \t\t\t\n      SWAP3 \t\t\t\n      SWAP2 \t\t\t\n      POP \t\t\t\n      POP \t\t\t\n      JUMP \t\t\t\n    tag 821\t\t\t\n      JUMPDEST \t\t\t\n      PUSH 0\t\t\t\n      DUP3 \t\t\t\n      SWAP1 \t\t\t\n      POP \t\t\t\n      SWAP3 \t\t\t\n      SWAP2 \t\t\t\n      POP \t\t\t\n      POP \t\t\t\n      JUMP \t\t\t\n    tag 591\t\t\t\n      JUMPDEST \t\t\t\n      PUSH 0\t\t\t\n      PUSH [tag] 1467\t\t\t\n      DUP4 \t\t\t\n      DUP4 \t\t\t\n      PUSH [tag] 821\t\t\t\n      JUMP \t\t\t\n    tag 1467\t\t\t\n      JUMPDEST \t\t\t\n      DUP3 \t\t\t\n      PUSH [tag] 1468\t\t\t\n      DUP2 \t\t\t\n      CALLDATALOAD \t\t\t\n      PUSH [tag] 713\t\t\t\n      JUMP \t\t\t\n    tag 1468\t\t\t\n      JUMPDEST \t\t\t\n      SWAP3 \t\t\t\n      POP \t\t\t\n      PUSH 20\t\t\t\n      DUP3 \t\t\t\n      LT \t\t\t\n      ISZERO \t\t\t\n      PUSH [tag] 1469\t\t\t\n      JUMPI \t\t\t\n      PUSH [tag] 1470\t\t\t\n      PUSH FFFFFFFFFFFFFFFFFFFFFFFFFFFFFFFFFFFFFFFFFFFFFFFFFFFFFFFFFFFFFFFF\t\t\t\n      DUP4 \t\t\t\n      PUSH 20\t\t\t\n      SUB \t\t\t\n      PUSH 8\t\t\t\n      MUL \t\t\t\n      PUSH [tag] 798\t\t\t\n      JUMP \t\t\t\n    tag 1470\t\t\t\n      JUMPDEST \t\t\t\n      DUP4 \t\t\t\n      AND \t\t\t\n      SWAP3 \t\t\t\n      POP \t\t\t\n    tag 1469\t\t\t\n      JUMPDEST \t\t\t\n      POP \t\t\t\n      POP \t\t\t\n      SWAP3 \t\t\t\n      SWAP2 \t\t\t\n      POP \t\t\t\n      POP \t\t\t\n      JUMP \t\t\t\n    tag 823\t\t\t\n      JUMPDEST \t\t\t\n      PUSH 0\t\t\t\n      PUSH FFFFFFFFFFFFFFFF000000000000000000000000000000000000000000000000\t\t\t\n      DUP3 \t\t\t\n      AND \t\t\t\n      SWAP1 \t\t\t\n      POP \t\t\t\n      SWAP2 \t\t\t\n      SWAP1 \t\t\t\n      POP \t\t\t\n      JUMP \t\t\t\n    tag 596\t\t\t\n      JUMPDEST \t\t\t\n      PUSH 0\t\t\t\n      PUSH [tag] 1473\t\t\t\n      DUP4 \t\t\t\n      DUP4 \t\t\t\n      PUSH [tag] 821\t\t\t\n      JUMP \t\t\t\n    tag 1473\t\t\t\n      JUMPDEST \t\t\t\n      DUP3 \t\t\t\n      PUSH [tag] 1474\t\t\t\n      DUP2 \t\t\t\n      CALLDATALOAD \t\t\t\n      PUSH [tag] 823\t\t\t\n      JUMP \t\t\t\n    tag 1474\t\t\t\n      JUMPDEST \t\t\t\n      SWAP3 \t\t\t\n      POP \t\t\t\n      PUSH 8\t\t\t\n      DUP3 \t\t\t\n      LT \t\t\t\n      ISZERO \t\t\t\n      PUSH [tag] 1475\t\t\t\n      JUMPI \t\t\t\n      PUSH [tag] 1476\t\t\t\n      PUSH FFFFFFFFFFFFFFFF000000000000000000000000000000000000000000000000\t\t\t\n      DUP4 \t\t\t\n      PUSH 8\t\t\t\n      SUB \t\t\t\n      PUSH 8\t\t\t\n      MUL \t\t\t\n      PUSH [tag] 798\t\t\t\n      JUMP \t\t\t\n    tag 1476\t\t\t\n      JUMPDEST \t\t\t\n      DUP4 \t\t\t\n      AND \t\t\t\n      SWAP3 \t\t\t\n      POP \t\t\t\n    tag 1475\t\t\t\n      JUMPDEST \t\t\t\n      POP \t\t\t\n      POP \t\t\t\n      SWAP3 \t\t\t\n      SWAP2 \t\t\t\n      POP \t\t\t\n      POP \t\t\t\n      JUMP \t\t\t\n    tag 824\t\t\t\n      JUMPDEST \t\t\t\n      PUSH 0\t\t\t\n      DUP2 \t\t\t\n      PUSH C0\t\t\t\n      SHL \t\t\t\n      SWAP1 \t\t\t\n      POP \t\t\t\n      SWAP2 \t\t\t\n      SWAP1 \t\t\t\n      POP \t\t\t\n      JUMP \t\t\t\n    tag 825\t\t\t\n      JUMPDEST \t\t\t\n      PUSH 0\t\t\t\n      PUSH [tag] 1479\t\t\t\n      DUP3 \t\t\t\n      PUSH [tag] 824\t\t\t\n      JUMP \t\t\t\n    tag 1479\t\t\t\n      JUMPDEST \t\t\t\n      SWAP1 \t\t\t\n      POP \t\t\t\n      SWAP2 \t\t\t\n      SWAP1 \t\t\t\n      POP \t\t\t\n      JUMP \t\t\t\n    tag 826\t\t\t\n      JUMPDEST \t\t\t\n      PUSH [tag] 1481\t\t\t\n      PUSH [tag] 1482\t\t\t\n      DUP3 \t\t\t\n      PUSH [tag] 724\t\t\t\n      JUMP \t\t\t\n    tag 1482\t\t\t\n      JUMPDEST \t\t\t\n      PUSH [tag] 825\t\t\t\n      JUMP \t\t\t\n    tag 1481\t\t\t\n      JUMPDEST \t\t\t\n      DUP3 \t\t\t\n      MSTORE \t\t\t\n      POP \t\t\t\n      POP \t\t\t\n      JUMP \t\t\t\n    tag 827\t\t\t\n      JUMPDEST \t\t\t\n      PUSH 0\t\t\t\n      DUP2 \t\t\t\n      PUSH E0\t\t\t\n      SHL \t\t\t\n      SWAP1 \t\t\t\n      POP \t\t\t\n      SWAP2 \t\t\t\n      SWAP1 \t\t\t\n      POP \t\t\t\n      JUMP \t\t\t\n    tag 828\t\t\t\n      JUMPDEST \t\t\t\n      PUSH 0\t\t\t\n      PUSH [tag] 1485\t\t\t\n      DUP3 \t\t\t\n      PUSH [tag] 827\t\t\t\n      JUMP \t\t\t\n    tag 1485\t\t\t\n      JUMPDEST \t\t\t\n      SWAP1 \t\t\t\n      POP \t\t\t\n      SWAP2 \t\t\t\n      SWAP1 \t\t\t\n      POP \t\t\t\n      JUMP \t\t\t\n    tag 829\t\t\t\n      JUMPDEST \t\t\t\n      PUSH [tag] 1487\t\t\t\n      PUSH [tag] 1488\t\t\t\n      DUP3 \t\t\t\n      PUSH [tag] 729\t\t\t\n      JUMP \t\t\t\n    tag 1488\t\t\t\n      JUMPDEST \t\t\t\n      PUSH [tag] 828\t\t\t\n      JUMP \t\t\t\n    tag 1487\t\t\t\n      JUMPDEST \t\t\t\n      DUP3 \t\t\t\n      MSTORE \t\t\t\n      POP \t\t\t\n      POP \t\t\t\n      JUMP \t\t\t\n    tag 830\t\t\t\n      JUMPDEST \t\t\t\n      PUSH 0\t\t\t\n      DUP2 \t\t\t\n      SWAP1 \t\t\t\n      POP \t\t\t\n      SWAP2 \t\t\t\n      SWAP1 \t\t\t\n      POP \t\t\t\n      JUMP \t\t\t\n    tag 831\t\t\t\n      JUMPDEST \t\t\t\n      PUSH [tag] 1491\t\t\t\n      PUSH [tag] 1492\t\t\t\n      DUP3 \t\t\t\n      PUSH [tag] 690\t\t\t\n      JUMP \t\t\t\n    tag 1492\t\t\t\n      JUMPDEST \t\t\t\n      PUSH [tag] 830\t\t\t\n      JUMP \t\t\t\n    tag 1491\t\t\t\n      JUMPDEST \t\t\t\n      DUP3 \t\t\t\n      MSTORE \t\t\t\n      POP \t\t\t\n      POP \t\t\t\n      JUMP \t\t\t\n    tag 608\t\t\t\n      JUMPDEST \t\t\t\n      PUSH 0\t\t\t\n      PUSH [tag] 1494\t\t\t\n      DUP3 \t\t\t\n      DUP8 \t\t\t\n      PUSH [tag] 826\t\t\t\n      JUMP \t\t\t\n    tag 1494\t\t\t\n      JUMPDEST \t\t\t\n      PUSH 8\t\t\t\n      DUP3 \t\t\t\n      ADD \t\t\t\n      SWAP2 \t\t\t\n      POP \t\t\t\n      PUSH [tag] 1495\t\t\t\n      DUP3 \t\t\t\n      DUP7 \t\t\t\n      PUSH [tag] 829\t\t\t\n      JUMP \t\t\t\n    tag 1495\t\t\t\n      JUMPDEST \t\t\t\n      PUSH 4\t\t\t\n      DUP3 \t\t\t\n      ADD \t\t\t\n      SWAP2 \t\t\t\n      POP \t\t\t\n      PUSH [tag] 1496\t\t\t\n      DUP3 \t\t\t\n      DUP6 \t\t\t\n      PUSH [tag] 831\t\t\t\n      JUMP \t\t\t\n    tag 1496\t\t\t\n      JUMPDEST \t\t\t\n      PUSH 20\t\t\t\n      DUP3 \t\t\t\n      ADD \t\t\t\n      SWAP2 \t\t\t\n      POP \t\t\t\n      PUSH [tag] 1497\t\t\t\n      DUP3 \t\t\t\n      DUP5 \t\t\t\n      PUSH [tag] 772\t\t\t\n      JUMP \t\t\t\n    tag 1497\t\t\t\n      JUMPDEST \t\t\t\n      SWAP2 \t\t\t\n      POP \t\t\t\n      DUP2 \t\t\t\n      SWAP1 \t\t\t\n      POP \t\t\t\n      SWAP6 \t\t\t\n      SWAP5 \t\t\t\n      POP \t\t\t\n      POP \t\t\t\n      POP \t\t\t\n      POP \t\t\t\n      POP \t\t\t\n      JUMP \t\t\t\n    tag 612\t\t\t\n      JUMPDEST \t\t\t\n      PUSH 0\t\t\t\n      PUSH [tag] 1499\t\t\t\n      DUP3 \t\t\t\n      PUSH [tag] 690\t\t\t\n      JUMP \t\t\t\n    tag 1499\t\t\t\n      JUMPDEST \t\t\t\n      SWAP2 \t\t\t\n      POP \t\t\t\n      PUSH [tag] 1500\t\t\t\n      DUP4 \t\t\t\n      PUSH [tag] 690\t\t\t\n      JUMP \t\t\t\n    tag 1500\t\t\t\n      JUMPDEST \t\t\t\n      SWAP3 \t\t\t\n      POP \t\t\t\n      DUP3 \t\t\t\n      DUP3 \t\t\t\n      ADD \t\t\t\n      SWAP1 \t\t\t\n      POP \t\t\t\n      DUP1 \t\t\t\n      DUP3 \t\t\t\n      GT \t\t\t\n      ISZERO \t\t\t\n      PUSH [tag] 1501\t\t\t\n      JUMPI \t\t\t\n      PUSH [tag] 1502\t\t\t\n      PUSH [tag] 820\t\t\t\n      JUMP \t\t\t\n    tag 1502\t\t\t\n      JUMPDEST \t\t\t\n    tag 1501\t\t\t\n      JUMPDEST \t\t\t\n      SWAP3 \t\t\t\n      SWAP2 \t\t\t\n      POP \t\t\t\n      POP \t\t\t\n      JUMP \t\t\t\n    tag 832\t\t\t\n      JUMPDEST \t\t\t\n      PUSH 0\t\t\t\n      DUP2 \t\t\t\n      SWAP1 \t\t\t\n      POP \t\t\t\n      SWAP2 \t\t\t\n      SWAP1 \t\t\t\n      POP \t\t\t\n      JUMP \t\t\t\n    tag 833\t\t\t\n      JUMPDEST \t\t\t\n      PUSH [tag] 1505\t\t\t\n      PUSH [tag] 1506\t\t\t\n      DUP3 \t\t\t\n      PUSH [tag] 713\t\t\t\n      JUMP \t\t\t\n    tag 1506\t\t\t\n      JUMPDEST \t\t\t\n      PUSH [tag] 832\t\t\t\n      JUMP \t\t\t\n    tag 1505\t\t\t\n      JUMPDEST \t\t\t\n      DUP3 \t\t\t\n      MSTORE \t\t\t\n      POP \t\t\t\n      POP \t\t\t\n      JUMP \t\t\t\n    tag 624\t\t\t\n      JUMPDEST \t\t\t\n      PUSH 0\t\t\t\n      PUSH [tag] 1508\t\t\t\n      DUP3 \t\t\t\n      DUP6 \t\t\t\n      PUSH [tag] 833\t\t\t\n      JUMP \t\t\t\n    tag 1508\t\t\t\n      JUMPDEST \t\t\t\n      PUSH 20\t\t\t\n      DUP3 \t\t\t\n      ADD \t\t\t\n      SWAP2 \t\t\t\n      POP \t\t\t\n      PUSH [tag] 1509\t\t\t\n      DUP3 \t\t\t\n      DUP5 \t\t\t\n      PUSH [tag] 826\t\t\t\n      JUMP \t\t\t\n    tag 1509\t\t\t\n      JUMPDEST \t\t\t\n      PUSH 8\t\t\t\n      DUP3 \t\t\t\n      ADD \t\t\t\n      SWAP2 \t\t\t\n      POP \t\t\t\n      DUP2 \t\t\t\n      SWAP1 \t\t\t\n      POP \t\t\t\n      SWAP4 \t\t\t\n      SWAP3 \t\t\t\n      POP \t\t\t\n      POP \t\t\t\n      POP \t\t\t\n      JUMP \t\t\t\n    tag 629\t\t\t\n      JUMPDEST \t\t\t\n      PUSH 0\t\t\t\n      PUSH [tag] 1511\t\t\t\n      DUP3 \t\t\t\n      DUP8 \t\t\t\n      PUSH [tag] 833\t\t\t\n      JUMP \t\t\t\n    tag 1511\t\t\t\n      JUMPDEST \t\t\t\n      PUSH 20\t\t\t\n      DUP3 \t\t\t\n      ADD \t\t\t\n      SWAP2 \t\t\t\n      POP \t\t\t\n      PUSH [tag] 1512\t\t\t\n      DUP3 \t\t\t\n      DUP7 \t\t\t\n      PUSH [tag] 826\t\t\t\n      JUMP \t\t\t\n    tag 1512\t\t\t\n      JUMPDEST \t\t\t\n      PUSH 8\t\t\t\n      DUP3 \t\t\t\n      ADD \t\t\t\n      SWAP2 \t\t\t\n      POP \t\t\t\n      PUSH [tag] 1513\t\t\t\n      DUP3 \t\t\t\n      DUP6 \t\t\t\n      PUSH [tag] 833\t\t\t\n      JUMP \t\t\t\n    tag 1513\t\t\t\n      JUMPDEST \t\t\t\n      PUSH 20\t\t\t\n      DUP3 \t\t\t\n      ADD \t\t\t\n      SWAP2 \t\t\t\n      POP \t\t\t\n      PUSH [tag] 1514\t\t\t\n      DUP3 \t\t\t\n      DUP5 \t\t\t\n      PUSH [tag] 772\t\t\t\n      JUMP \t\t\t\n    tag 1514\t\t\t\n      JUMPDEST \t\t\t\n      SWAP2 \t\t\t\n      POP \t\t\t\n      DUP2 \t\t\t\n      SWAP1 \t\t\t\n      POP \t\t\t\n      SWAP6 \t\t\t\n      SWAP5 \t\t\t\n      POP \t\t\t\n      POP \t\t\t\n      POP \t\t\t\n      POP \t\t\t\n      POP \t\t\t\n      JUMP \t\t\t\n    tag 834\t\t\t\n      JUMPDEST \t\t\t\n      PUSH 0\t\t\t\n      DUP2 \t\t\t\n      MLOAD \t\t\t\n      SWAP1 \t\t\t\n      POP \t\t\t\n      PUSH [tag] 1516\t\t\t\n      DUP2 \t\t\t\n      PUSH [tag] 714\t\t\t\n      JUMP \t\t\t\n    tag 1516\t\t\t\n      JUMPDEST \t\t\t\n      SWAP3 \t\t\t\n      SWAP2 \t\t\t\n      POP \t\t\t\n      POP \t\t\t\n      JUMP \t\t\t\n    tag 835\t\t\t\n      JUMPDEST \t\t\t\n      PUSH 0\t\t\t\n      DUP2 \t\t\t\n      MLOAD \t\t\t\n      SWAP1 \t\t\t\n      POP \t\t\t\n      PUSH [tag] 1518\t\t\t\n      DUP2 \t\t\t\n      PUSH [tag] 781\t\t\t\n      JUMP \t\t\t\n    tag 1518\t\t\t\n      JUMPDEST \t\t\t\n      SWAP3 \t\t\t\n      SWAP2 \t\t\t\n      POP \t\t\t\n      POP \t\t\t\n      JUMP \t\t\t\n    tag 836\t\t\t\n      JUMPDEST \t\t\t\n      PUSH 0\t\t\t\n      PUSH 80\t\t\t\n      DUP3 \t\t\t\n      DUP5 \t\t\t\n      SUB \t\t\t\n      SLT \t\t\t\n      ISZERO \t\t\t\n      PUSH [tag] 1520\t\t\t\n      JUMPI \t\t\t\n      PUSH [tag] 1521\t\t\t\n      PUSH [tag] 760\t\t\t\n      JUMP \t\t\t\n    tag 1521\t\t\t\n      JUMPDEST \t\t\t\n    tag 1520\t\t\t\n      JUMPDEST \t\t\t\n      PUSH [tag] 1522\t\t\t\n      PUSH 60\t\t\t\n      PUSH [tag] 758\t\t\t\n      JUMP \t\t\t\n    tag 1522\t\t\t\n      JUMPDEST \t\t\t\n      SWAP1 \t\t\t\n      POP \t\t\t\n      PUSH 0\t\t\t\n      PUSH [tag] 1523\t\t\t\n      DUP5 \t\t\t\n      DUP3 \t\t\t\n      DUP6 \t\t\t\n      ADD \t\t\t\n      PUSH [tag] 834\t\t\t\n      JUMP \t\t\t\n    tag 1523\t\t\t\n      JUMPDEST \t\t\t\n      PUSH 0\t\t\t\n      DUP4 \t\t\t\n      ADD \t\t\t\n      MSTORE \t\t\t\n      POP \t\t\t\n      PUSH 20\t\t\t\n      PUSH [tag] 1524\t\t\t\n      DUP5 \t\t\t\n      DUP3 \t\t\t\n      DUP6 \t\t\t\n      ADD \t\t\t\n      PUSH [tag] 835\t\t\t\n      JUMP \t\t\t\n    tag 1524\t\t\t\n      JUMPDEST \t\t\t\n      PUSH 20\t\t\t\n      DUP4 \t\t\t\n      ADD \t\t\t\n      MSTORE \t\t\t\n      POP \t\t\t\n      PUSH 40\t\t\t\n      PUSH [tag] 1525\t\t\t\n      DUP5 \t\t\t\n      DUP3 \t\t\t\n      DUP6 \t\t\t\n      ADD \t\t\t\n      PUSH [tag] 795\t\t\t\n      JUMP \t\t\t\n    tag 1525\t\t\t\n      JUMPDEST \t\t\t\n      PUSH 40\t\t\t\n      DUP4 \t\t\t\n      ADD \t\t\t\n      MSTORE \t\t\t\n      POP \t\t\t\n      SWAP3 \t\t\t\n      SWAP2 \t\t\t\n      POP \t\t\t\n      POP \t\t\t\n      JUMP \t\t\t\n    tag 646\t\t\t\n      JUMPDEST \t\t\t\n      PUSH 0\t\t\t\n      PUSH 80\t\t\t\n      DUP3 \t\t\t\n      DUP5 \t\t\t\n      SUB \t\t\t\n      SLT \t\t\t\n      ISZERO \t\t\t\n      PUSH [tag] 1527\t\t\t\n      JUMPI \t\t\t\n      PUSH [tag] 1528\t\t\t\n      PUSH [tag] 684\t\t\t\n      JUMP \t\t\t\n    tag 1528\t\t\t\n      JUMPDEST \t\t\t\n    tag 1527\t\t\t\n      JUMPDEST \t\t\t\n      PUSH 0\t\t\t\n      PUSH [tag] 1529\t\t\t\n      DUP5 \t\t\t\n      DUP3 \t\t\t\n      DUP6 \t\t\t\n      ADD \t\t\t\n      PUSH [tag] 836\t\t\t\n      JUMP \t\t\t\n    tag 1529\t\t\t\n      JUMPDEST \t\t\t\n      SWAP2 \t\t\t\n      POP \t\t\t\n      POP \t\t\t\n      SWAP3 \t\t\t\n      SWAP2 \t\t\t\n      POP \t\t\t\n      POP \t\t\t\n      JUMP \t\t\t\n    tag 669\t\t\t\n      JUMPDEST \t\t\t\n      PUSH 0\t\t\t\n      PUSH 60\t\t\t\n      DUP3 \t\t\t\n      ADD \t\t\t\n      SWAP1 \t\t\t\n      POP \t\t\t\n      PUSH [tag] 1531\t\t\t\n      PUSH 0\t\t\t\n      DUP4 \t\t\t\n      ADD \t\t\t\n      DUP7 \t\t\t\n      PUSH [tag] 711\t\t\t\n      JUMP \t\t\t\n    tag 1531\t\t\t\n      JUMPDEST \t\t\t\n      PUSH [tag] 1532\t\t\t\n      PUSH 20\t\t\t\n      DUP4 \t\t\t\n      ADD \t\t\t\n      DUP6 \t\t\t\n      PUSH [tag] 711\t\t\t\n      JUMP \t\t\t\n    tag 1532\t\t\t\n      JUMPDEST \t\t\t\n      PUSH [tag] 1533\t\t\t\n      PUSH 40\t\t\t\n      DUP4 \t\t\t\n      ADD \t\t\t\n      DUP5 \t\t\t\n      PUSH [tag] 726\t\t\t\n      JUMP \t\t\t\n    tag 1533\t\t\t\n      JUMPDEST \t\t\t\n      SWAP5 \t\t\t\n      SWAP4 \t\t\t\n      POP \t\t\t\n      POP \t\t\t\n      POP \t\t\t\n      POP \t\t\t\n      JUMP \t\t\t\n    .data\n"
}