{
	"compilerInput": "{\"language\":\"Solidity\",\"sources\":{\"Create2Factory.sol\":{\"content\":\"// SPDX-License-Identifier: MIT\\r\\npragma solidity ^0.8.29;\\r\\n\\r\\ncontract Create2Factory {\\r\\n    event Deploy(address addr);\\r\\n    // store the last deployed address\\r\\n    address public lastDeployedAddress;\\r\\n\\r\\n    function deploy(\\r\\n        bytes memory bytecode,\\r\\n        string memory _salt\\r\\n    ) external returns (address) {\\r\\n        address addr;\\r\\n        assembly {\\r\\n            addr := create2(0, add(bytecode, 0x20), mload(bytecode), _salt)\\r\\n            if iszero(extcodesize(addr)) {\\r\\n                revert(0, 0)\\r\\n            }\\r\\n        }\\r\\n\\r\\n        lastDeployedAddress = addr;\\r\\n        emit Deploy(addr);\\r\\n        return addr;\\r\\n    }\\r\\n}\\r\\n// This contract can be deployed on multiple EVM Chains.  However, it MUST be deployed using the same nonce; the nonce will impact the address at which this contract will get deployed.  The address of this factory contract will impact the address of any other contract that this factory contract deploys using the \\\"deployUsingCreate2\\\"\\r\\n\"}},\"settings\":{\"optimizer\":{\"enabled\":false,\"runs\":200},\"outputSelection\":{\"*\":{\"\":[\"ast\"],\"*\":[\"abi\",\"metadata\",\"devdoc\",\"userdoc\",\"storageLayout\",\"evm.legacyAssembly\",\"evm.bytecode\",\"evm.deployedBytecode\",\"evm.methodIdentifiers\",\"evm.gasEstimates\",\"evm.assembly\"]}},\"remappings\":[],\"evmVersion\":\"cancun\"}}",
	"name": "Create2Factory",
	"bytecode": {
		"linkReferences": {},
		"object": "6080604052348015600e575f5ffd5b506104308061001c5f395ff3fe608060405234801561000f575f5ffd5b5060043610610034575f3560e01c806334537c8814610038578063d0c3587314610056575b5f5ffd5b610040610086565b60405161004d9190610180565b60405180910390f35b610070600480360381019061006b9190610384565b6100aa565b60405161007d9190610180565b60405180910390f35b5f5f9054906101000a900473ffffffffffffffffffffffffffffffffffffffff1681565b5f5f828451602086015ff59050803b6100c1575f5ffd5b805f5f6101000a81548173ffffffffffffffffffffffffffffffffffffffff021916908373ffffffffffffffffffffffffffffffffffffffff1602179055507f55ea6c6b31543d8e2ec6a72f71a79c0f4b72ed0d4757172b043d8f4f4cd848488160405161012f9190610180565b60405180910390a18091505092915050565b5f73ffffffffffffffffffffffffffffffffffffffff82169050919050565b5f61016a82610141565b9050919050565b61017a81610160565b82525050565b5f6020820190506101935f830184610171565b92915050565b5f604051905090565b5f5ffd5b5f5ffd5b5f5ffd5b5f5ffd5b5f601f19601f8301169050919050565b7f4e487b71000000000000000000000000000000000000000000000000000000005f52604160045260245ffd5b6101f8826101b2565b810181811067ffffffffffffffff82111715610217576102166101c2565b5b80604052505050565b5f610229610199565b905061023582826101ef565b919050565b5f67ffffffffffffffff821115610254576102536101c2565b5b61025d826101b2565b9050602081019050919050565b828183375f83830152505050565b5f61028a6102858461023a565b610220565b9050828152602081018484840111156102a6576102a56101ae565b5b6102b184828561026a565b509392505050565b5f82601f8301126102cd576102cc6101aa565b5b81356102dd848260208601610278565b91505092915050565b5f67ffffffffffffffff821115610300576102ff6101c2565b5b610309826101b2565b9050602081019050919050565b5f610328610323846102e6565b610220565b905082815260208101848484011115610344576103436101ae565b5b61034f84828561026a565b509392505050565b5f82601f83011261036b5761036a6101aa565b5b813561037b848260208601610316565b91505092915050565b5f5f6040838503121561039a576103996101a2565b5b5f83013567ffffffffffffffff8111156103b7576103b66101a6565b5b6103c3858286016102b9565b925050602083013567ffffffffffffffff8111156103e4576103e36101a6565b5b6103f085828601610357565b915050925092905056fea2646970667358221220173661ea5614e218b4a695b694e192207832815a7432fb1822bee946259ab50964736f6c634300081e0033",
		"opcodes": "PUSH1 0x80 PUSH1 0x40 MSTORE CALLVALUE DUP1 ISZERO PUSH1 0xE JUMPI PUSH0 PUSH0 REVERT JUMPDEST POP PUSH2 0x430 DUP1 PUSH2 0x1C PUSH0 CODECOPY PUSH0 RETURN INVALID PUSH1 0x80 PUSH1 0x40 MSTORE CALLVALUE DUP1 ISZERO PUSH2 0xF JUMPI PUSH0 PUSH0 REVERT JUMPDEST POP PUSH1 0x4 CALLDATASIZE LT PUSH2 0x34 JUMPI PUSH0 CALLDATALOAD PUSH1 0xE0 SHR DUP1 PUSH4 0x34537C88 EQ PUSH2 0x38 JUMPI DUP1 PUSH4 0xD0C35873 EQ PUSH2 0x56 JUMPI JUMPDEST PUSH0 PUSH0 REVERT JUMPDEST PUSH2 0x40 PUSH2 0x86 JUMP JUMPDEST PUSH1 0x40 MLOAD PUSH2 0x4D SWAP2 SWAP1 PUSH2 0x180 JUMP JUMPDEST PUSH1 0x40 MLOAD DUP1 SWAP2 SUB SWAP1 RETURN JUMPDEST PUSH2 0x70 PUSH1 0x4 DUP1 CALLDATASIZE SUB DUP2 ADD SWAP1 PUSH2 0x6B SWAP2 SWAP1 PUSH2 0x384 JUMP JUMPDEST PUSH2 0xAA JUMP JUMPDEST PUSH1 0x40 MLOAD PUSH2 0x7D SWAP2 SWAP1 PUSH2 0x180 JUMP JUMPDEST PUSH1 0x40 MLOAD DUP1 SWAP2 SUB SWAP1 RETURN JUMPDEST PUSH0 PUSH0 SWAP1 SLOAD SWAP1 PUSH2 0x100 EXP SWAP1 DIV PUSH20 0xFFFFFFFFFFFFFFFFFFFFFFFFFFFFFFFFFFFFFFFF AND DUP2 JUMP JUMPDEST PUSH0 PUSH0 DUP3 DUP5 MLOAD PUSH1 0x20 DUP7 ADD PUSH0 CREATE2 SWAP1 POP DUP1 EXTCODESIZE PUSH2 0xC1 JUMPI PUSH0 PUSH0 REVERT JUMPDEST DUP1 PUSH0 PUSH0 PUSH2 0x100 EXP DUP2 SLOAD DUP2 PUSH20 0xFFFFFFFFFFFFFFFFFFFFFFFFFFFFFFFFFFFFFFFF MUL NOT AND SWAP1 DUP4 PUSH20 0xFFFFFFFFFFFFFFFFFFFFFFFFFFFFFFFFFFFFFFFF AND MUL OR SWAP1 SSTORE POP PUSH32 0x55EA6C6B31543D8E2EC6A72F71A79C0F4B72ED0D4757172B043D8F4F4CD84848 DUP2 PUSH1 0x40 MLOAD PUSH2 0x12F SWAP2 SWAP1 PUSH2 0x180 JUMP JUMPDEST PUSH1 0x40 MLOAD DUP1 SWAP2 SUB SWAP1 LOG1 DUP1 SWAP2 POP POP SWAP3 SWAP2 POP POP JUMP JUMPDEST PUSH0 PUSH20 0xFFFFFFFFFFFFFFFFFFFFFFFFFFFFFFFFFFFFFFFF DUP3 AND SWAP1 POP SWAP2 SWAP1 POP JUMP JUMPDEST PUSH0 PUSH2 0x16A DUP3 PUSH2 0x141 JUMP JUMPDEST SWAP1 POP SWAP2 SWAP1 POP JUMP JUMPDEST PUSH2 0x17A DUP2 PUSH2 0x160 JUMP JUMPDEST DUP3 MSTORE POP POP JUMP JUMPDEST PUSH0 PUSH1 0x20 DUP3 ADD SWAP1 POP PUSH2 0x193 PUSH0 DUP4 ADD DUP5 PUSH2 0x171 JUMP JUMPDEST SWAP3 SWAP2 POP POP JUMP JUMPDEST PUSH0 PUSH1 0x40 MLOAD SWAP1 POP SWAP1 JUMP JUMPDEST PUSH0 PUSH0 REVERT JUMPDEST PUSH0 PUSH0 REVERT JUMPDEST PUSH0 PUSH0 REVERT JUMPDEST PUSH0 PUSH0 REVERT JUMPDEST PUSH0 PUSH1 0x1F NOT PUSH1 0x1F DUP4 ADD AND SWAP1 POP SWAP2 SWAP1 POP JUMP JUMPDEST PUSH32 0x4E487B7100000000000000000000000000000000000000000000000000000000 PUSH0 MSTORE PUSH1 0x41 PUSH1 0x4 MSTORE PUSH1 0x24 PUSH0 REVERT JUMPDEST PUSH2 0x1F8 DUP3 PUSH2 0x1B2 JUMP JUMPDEST DUP2 ADD DUP2 DUP2 LT PUSH8 0xFFFFFFFFFFFFFFFF DUP3 GT OR ISZERO PUSH2 0x217 JUMPI PUSH2 0x216 PUSH2 0x1C2 JUMP JUMPDEST JUMPDEST DUP1 PUSH1 0x40 MSTORE POP POP POP JUMP JUMPDEST PUSH0 PUSH2 0x229 PUSH2 0x199 JUMP JUMPDEST SWAP1 POP PUSH2 0x235 DUP3 DUP3 PUSH2 0x1EF JUMP JUMPDEST SWAP2 SWAP1 POP JUMP JUMPDEST PUSH0 PUSH8 0xFFFFFFFFFFFFFFFF DUP3 GT ISZERO PUSH2 0x254 JUMPI PUSH2 0x253 PUSH2 0x1C2 JUMP JUMPDEST JUMPDEST PUSH2 0x25D DUP3 PUSH2 0x1B2 JUMP JUMPDEST SWAP1 POP PUSH1 0x20 DUP2 ADD SWAP1 POP SWAP2 SWAP1 POP JUMP JUMPDEST DUP3 DUP2 DUP4 CALLDATACOPY PUSH0 DUP4 DUP4 ADD MSTORE POP POP POP JUMP JUMPDEST PUSH0 PUSH2 0x28A PUSH2 0x285 DUP5 PUSH2 0x23A JUMP JUMPDEST PUSH2 0x220 JUMP JUMPDEST SWAP1 POP DUP3 DUP2 MSTORE PUSH1 0x20 DUP2 ADD DUP5 DUP5 DUP5 ADD GT ISZERO PUSH2 0x2A6 JUMPI PUSH2 0x2A5 PUSH2 0x1AE JUMP JUMPDEST JUMPDEST PUSH2 0x2B1 DUP5 DUP3 DUP6 PUSH2 0x26A JUMP JUMPDEST POP SWAP4 SWAP3 POP POP POP JUMP JUMPDEST PUSH0 DUP3 PUSH1 0x1F DUP4 ADD SLT PUSH2 0x2CD JUMPI PUSH2 0x2CC PUSH2 0x1AA JUMP JUMPDEST JUMPDEST DUP2 CALLDATALOAD PUSH2 0x2DD DUP5 DUP3 PUSH1 0x20 DUP7 ADD PUSH2 0x278 JUMP JUMPDEST SWAP2 POP POP SWAP3 SWAP2 POP POP JUMP JUMPDEST PUSH0 PUSH8 0xFFFFFFFFFFFFFFFF DUP3 GT ISZERO PUSH2 0x300 JUMPI PUSH2 0x2FF PUSH2 0x1C2 JUMP JUMPDEST JUMPDEST PUSH2 0x309 DUP3 PUSH2 0x1B2 JUMP JUMPDEST SWAP1 POP PUSH1 0x20 DUP2 ADD SWAP1 POP SWAP2 SWAP1 POP JUMP JUMPDEST PUSH0 PUSH2 0x328 PUSH2 0x323 DUP5 PUSH2 0x2E6 JUMP JUMPDEST PUSH2 0x220 JUMP JUMPDEST SWAP1 POP DUP3 DUP2 MSTORE PUSH1 0x20 DUP2 ADD DUP5 DUP5 DUP5 ADD GT ISZERO PUSH2 0x344 JUMPI PUSH2 0x343 PUSH2 0x1AE JUMP JUMPDEST JUMPDEST PUSH2 0x34F DUP5 DUP3 DUP6 PUSH2 0x26A JUMP JUMPDEST POP SWAP4 SWAP3 POP POP POP JUMP JUMPDEST PUSH0 DUP3 PUSH1 0x1F DUP4 ADD SLT PUSH2 0x36B JUMPI PUSH2 0x36A PUSH2 0x1AA JUMP JUMPDEST JUMPDEST DUP2 CALLDATALOAD PUSH2 0x37B DUP5 DUP3 PUSH1 0x20 DUP7 ADD PUSH2 0x316 JUMP JUMPDEST SWAP2 POP POP SWAP3 SWAP2 POP POP JUMP JUMPDEST PUSH0 PUSH0 PUSH1 0x40 DUP4 DUP6 SUB SLT ISZERO PUSH2 0x39A JUMPI PUSH2 0x399 PUSH2 0x1A2 JUMP JUMPDEST JUMPDEST PUSH0 DUP4 ADD CALLDATALOAD PUSH8 0xFFFFFFFFFFFFFFFF DUP2 GT ISZERO PUSH2 0x3B7 JUMPI PUSH2 0x3B6 PUSH2 0x1A6 JUMP JUMPDEST JUMPDEST PUSH2 0x3C3 DUP6 DUP3 DUP7 ADD PUSH2 0x2B9 JUMP JUMPDEST SWAP3 POP POP PUSH1 0x20 DUP4 ADD CALLDATALOAD PUSH8 0xFFFFFFFFFFFFFFFF DUP2 GT ISZERO PUSH2 0x3E4 JUMPI PUSH2 0x3E3 PUSH2 0x1A6 JUMP JUMPDEST JUMPDEST PUSH2 0x3F0 DUP6 DUP3 DUP7 ADD PUSH2 0x357 JUMP JUMPDEST SWAP2 POP POP SWAP3 POP SWAP3 SWAP1 POP JUMP INVALID LOG2 PUSH5 0x6970667358 0x22 SLT KECCAK256 OR CALLDATASIZE PUSH2 0xEA56 EQ 0xE2 XOR 0xB4 0xA6 SWAP6 0xB6 SWAP5 RJUMPI 0x9220 PUSH25 0x32815A7432FB1822BEE946259AB50964736F6C634300081E00 CALLER "
	},
	"abi": [
		{
			"anonymous": false,
			"inputs": [
				{
					"indexed": false,
					"internalType": "address",
					"name": "addr",
					"type": "address"
				}
			],
			"name": "Deploy",
			"type": "event"
		},
		{
			"inputs": [
				{
					"internalType": "bytes",
					"name": "bytecode",
					"type": "bytes"
				},
				{
					"internalType": "string",
					"name": "_salt",
					"type": "string"
				}
			],
			"name": "deploy",
			"outputs": [
				{
					"internalType": "address",
					"name": "",
					"type": "address"
				}
			],
			"stateMutability": "nonpayable",
			"type": "function"
		},
		{
			"inputs": [],
			"name": "lastDeployedAddress",
			"outputs": [
				{
					"internalType": "address",
					"name": "",
					"type": "address"
				}
			],
			"stateMutability": "view",
			"type": "function"
		}
	],
	"storageLayout": {
		"storage": [
			{
				"astId": 7,
				"contract": "Create2Factory.sol:Create2Factory",
				"label": "lastDeployedAddress",
				"offset": 0,
				"slot": "0",
				"type": "t_address"
			}
		],
		"types": {
			"t_address": {
				"encoding": "inplace",
				"label": "address",
				"numberOfBytes": "20"
			}
		}
	},
	"web3Deploy": "var create2factoryContract = new web3.eth.Contract([{\"anonymous\":false,\"inputs\":[{\"indexed\":false,\"internalType\":\"address\",\"name\":\"addr\",\"type\":\"address\"}],\"name\":\"Deploy\",\"type\":\"event\"},{\"inputs\":[{\"internalType\":\"bytes\",\"name\":\"bytecode\",\"type\":\"bytes\"},{\"internalType\":\"string\",\"name\":\"_salt\",\"type\":\"string\"}],\"name\":\"deploy\",\"outputs\":[{\"internalType\":\"address\",\"name\":\"\",\"type\":\"address\"}],\"stateMutability\":\"nonpayable\",\"type\":\"function\"},{\"inputs\":[],\"name\":\"lastDeployedAddress\",\"outputs\":[{\"internalType\":\"address\",\"name\":\"\",\"type\":\"address\"}],\"stateMutability\":\"view\",\"type\":\"function\"}]);\nvar create2factory = create2factoryContract.deploy({\n     data: '0x6080604052348015600e575f5ffd5b506104308061001c5f395ff3fe608060405234801561000f575f5ffd5b5060043610610034575f3560e01c806334537c8814610038578063d0c3587314610056575b5f5ffd5b610040610086565b60405161004d9190610180565b60405180910390f35b610070600480360381019061006b9190610384565b6100aa565b60405161007d9190610180565b60405180910390f35b5f5f9054906101000a900473ffffffffffffffffffffffffffffffffffffffff1681565b5f5f828451602086015ff59050803b6100c1575f5ffd5b805f5f6101000a81548173ffffffffffffffffffffffffffffffffffffffff021916908373ffffffffffffffffffffffffffffffffffffffff1602179055507f55ea6c6b31543d8e2ec6a72f71a79c0f4b72ed0d4757172b043d8f4f4cd848488160405161012f9190610180565b60405180910390a18091505092915050565b5f73ffffffffffffffffffffffffffffffffffffffff82169050919050565b5f61016a82610141565b9050919050565b61017a81610160565b82525050565b5f6020820190506101935f830184610171565b92915050565b5f604051905090565b5f5ffd5b5f5ffd5b5f5ffd5b5f5ffd5b5f601f19601f8301169050919050565b7f4e487b71000000000000000000000000000000000000000000000000000000005f52604160045260245ffd5b6101f8826101b2565b810181811067ffffffffffffffff82111715610217576102166101c2565b5b80604052505050565b5f610229610199565b905061023582826101ef565b919050565b5f67ffffffffffffffff821115610254576102536101c2565b5b61025d826101b2565b9050602081019050919050565b828183375f83830152505050565b5f61028a6102858461023a565b610220565b9050828152602081018484840111156102a6576102a56101ae565b5b6102b184828561026a565b509392505050565b5f82601f8301126102cd576102cc6101aa565b5b81356102dd848260208601610278565b91505092915050565b5f67ffffffffffffffff821115610300576102ff6101c2565b5b610309826101b2565b9050602081019050919050565b5f610328610323846102e6565b610220565b905082815260208101848484011115610344576103436101ae565b5b61034f84828561026a565b509392505050565b5f82601f83011261036b5761036a6101aa565b5b813561037b848260208601610316565b91505092915050565b5f5f6040838503121561039a576103996101a2565b5b5f83013567ffffffffffffffff8111156103b7576103b66101a6565b5b6103c3858286016102b9565b925050602083013567ffffffffffffffff8111156103e4576103e36101a6565b5b6103f085828601610357565b915050925092905056fea2646970667358221220173661ea5614e218b4a695b694e192207832815a7432fb1822bee946259ab50964736f6c634300081e0033', \n     arguments: [\n     ]\n}).send({\n     from: web3.eth.accounts[0], \n     gas: '4700000'\n   }, function (e, contract){\n    console.log(e, contract);\n    if (typeof contract.address !== 'undefined') {\n         console.log('Contract mined! address: ' + contract.address + ' transactionHash: ' + contract.transactionHash);\n    }\n })",
	"functionHashes": {
		"d0c35873": "deploy(bytes,string)",
		"34537c88": "lastDeployedAddress()"
	},
	"gasEstimates": {
		"Creation": {
			"codeDepositCost": "214400",
			"executionCost": "255",
			"totalCost": "214655"
		},
		"External": {
			"deploy(bytes,string)": "infinite",
			"lastDeployedAddress()": "2485"
		}
	},
	"devdoc": {
		"kind": "dev",
		"methods": {},
		"version": 1
	},
	"userdoc": {
		"kind": "user",
		"methods": {},
		"version": 1
	},
	"Runtime Bytecode": {
		"immutableReferences": {},
		"linkReferences": {},
		"object": "608060405234801561000f575f5ffd5b5060043610610034575f3560e01c806334537c8814610038578063d0c3587314610056575b5f5ffd5b610040610086565b60405161004d9190610180565b60405180910390f35b610070600480360381019061006b9190610384565b6100aa565b60405161007d9190610180565b60405180910390f35b5f5f9054906101000a900473ffffffffffffffffffffffffffffffffffffffff1681565b5f5f828451602086015ff59050803b6100c1575f5ffd5b805f5f6101000a81548173ffffffffffffffffffffffffffffffffffffffff021916908373ffffffffffffffffffffffffffffffffffffffff1602179055507f55ea6c6b31543d8e2ec6a72f71a79c0f4b72ed0d4757172b043d8f4f4cd848488160405161012f9190610180565b60405180910390a18091505092915050565b5f73ffffffffffffffffffffffffffffffffffffffff82169050919050565b5f61016a82610141565b9050919050565b61017a81610160565b82525050565b5f6020820190506101935f830184610171565b92915050565b5f604051905090565b5f5ffd5b5f5ffd5b5f5ffd5b5f5ffd5b5f601f19601f8301169050919050565b7f4e487b71000000000000000000000000000000000000000000000000000000005f52604160045260245ffd5b6101f8826101b2565b810181811067ffffffffffffffff82111715610217576102166101c2565b5b80604052505050565b5f610229610199565b905061023582826101ef565b919050565b5f67ffffffffffffffff821115610254576102536101c2565b5b61025d826101b2565b9050602081019050919050565b828183375f83830152505050565b5f61028a6102858461023a565b610220565b9050828152602081018484840111156102a6576102a56101ae565b5b6102b184828561026a565b509392505050565b5f82601f8301126102cd576102cc6101aa565b5b81356102dd848260208601610278565b91505092915050565b5f67ffffffffffffffff821115610300576102ff6101c2565b5b610309826101b2565b9050602081019050919050565b5f610328610323846102e6565b610220565b905082815260208101848484011115610344576103436101ae565b5b61034f84828561026a565b509392505050565b5f82601f83011261036b5761036a6101aa565b5b813561037b848260208601610316565b91505092915050565b5f5f6040838503121561039a576103996101a2565b5b5f83013567ffffffffffffffff8111156103b7576103b66101a6565b5b6103c3858286016102b9565b925050602083013567ffffffffffffffff8111156103e4576103e36101a6565b5b6103f085828601610357565b915050925092905056fea2646970667358221220173661ea5614e218b4a695b694e192207832815a7432fb1822bee946259ab50964736f6c634300081e0033",
		"opcodes": "PUSH1 0x80 PUSH1 0x40 MSTORE CALLVALUE DUP1 ISZERO PUSH2 0xF JUMPI PUSH0 PUSH0 REVERT JUMPDEST POP PUSH1 0x4 CALLDATASIZE LT PUSH2 0x34 JUMPI PUSH0 CALLDATALOAD PUSH1 0xE0 SHR DUP1 PUSH4 0x34537C88 EQ PUSH2 0x38 JUMPI DUP1 PUSH4 0xD0C35873 EQ PUSH2 0x56 JUMPI JUMPDEST PUSH0 PUSH0 REVERT JUMPDEST PUSH2 0x40 PUSH2 0x86 JUMP JUMPDEST PUSH1 0x40 MLOAD PUSH2 0x4D SWAP2 SWAP1 PUSH2 0x180 JUMP JUMPDEST PUSH1 0x40 MLOAD DUP1 SWAP2 SUB SWAP1 RETURN JUMPDEST PUSH2 0x70 PUSH1 0x4 DUP1 CALLDATASIZE SUB DUP2 ADD SWAP1 PUSH2 0x6B SWAP2 SWAP1 PUSH2 0x384 JUMP JUMPDEST PUSH2 0xAA JUMP JUMPDEST PUSH1 0x40 MLOAD PUSH2 0x7D SWAP2 SWAP1 PUSH2 0x180 JUMP JUMPDEST PUSH1 0x40 MLOAD DUP1 SWAP2 SUB SWAP1 RETURN JUMPDEST PUSH0 PUSH0 SWAP1 SLOAD SWAP1 PUSH2 0x100 EXP SWAP1 DIV PUSH20 0xFFFFFFFFFFFFFFFFFFFFFFFFFFFFFFFFFFFFFFFF AND DUP2 JUMP JUMPDEST PUSH0 PUSH0 DUP3 DUP5 MLOAD PUSH1 0x20 DUP7 ADD PUSH0 CREATE2 SWAP1 POP DUP1 EXTCODESIZE PUSH2 0xC1 JUMPI PUSH0 PUSH0 REVERT JUMPDEST DUP1 PUSH0 PUSH0 PUSH2 0x100 EXP DUP2 SLOAD DUP2 PUSH20 0xFFFFFFFFFFFFFFFFFFFFFFFFFFFFFFFFFFFFFFFF MUL NOT AND SWAP1 DUP4 PUSH20 0xFFFFFFFFFFFFFFFFFFFFFFFFFFFFFFFFFFFFFFFF AND MUL OR SWAP1 SSTORE POP PUSH32 0x55EA6C6B31543D8E2EC6A72F71A79C0F4B72ED0D4757172B043D8F4F4CD84848 DUP2 PUSH1 0x40 MLOAD PUSH2 0x12F SWAP2 SWAP1 PUSH2 0x180 JUMP JUMPDEST PUSH1 0x40 MLOAD DUP1 SWAP2 SUB SWAP1 LOG1 DUP1 SWAP2 POP POP SWAP3 SWAP2 POP POP JUMP JUMPDEST PUSH0 PUSH20 0xFFFFFFFFFFFFFFFFFFFFFFFFFFFFFFFFFFFFFFFF DUP3 AND SWAP1 POP SWAP2 SWAP1 POP JUMP JUMPDEST PUSH0 PUSH2 0x16A DUP3 PUSH2 0x141 JUMP JUMPDEST SWAP1 POP SWAP2 SWAP1 POP JUMP JUMPDEST PUSH2 0x17A DUP2 PUSH2 0x160 JUMP JUMPDEST DUP3 MSTORE POP POP JUMP JUMPDEST PUSH0 PUSH1 0x20 DUP3 ADD SWAP1 POP PUSH2 0x193 PUSH0 DUP4 ADD DUP5 PUSH2 0x171 JUMP JUMPDEST SWAP3 SWAP2 POP POP JUMP JUMPDEST PUSH0 PUSH1 0x40 MLOAD SWAP1 POP SWAP1 JUMP JUMPDEST PUSH0 PUSH0 REVERT JUMPDEST PUSH0 PUSH0 REVERT JUMPDEST PUSH0 PUSH0 REVERT JUMPDEST PUSH0 PUSH0 REVERT JUMPDEST PUSH0 PUSH1 0x1F NOT PUSH1 0x1F DUP4 ADD AND SWAP1 POP SWAP2 SWAP1 POP JUMP JUMPDEST PUSH32 0x4E487B7100000000000000000000000000000000000000000000000000000000 PUSH0 MSTORE PUSH1 0x41 PUSH1 0x4 MSTORE PUSH1 0x24 PUSH0 REVERT JUMPDEST PUSH2 0x1F8 DUP3 PUSH2 0x1B2 JUMP JUMPDEST DUP2 ADD DUP2 DUP2 LT PUSH8 0xFFFFFFFFFFFFFFFF DUP3 GT OR ISZERO PUSH2 0x217 JUMPI PUSH2 0x216 PUSH2 0x1C2 JUMP JUMPDEST JUMPDEST DUP1 PUSH1 0x40 MSTORE POP POP POP JUMP JUMPDEST PUSH0 PUSH2 0x229 PUSH2 0x199 JUMP JUMPDEST SWAP1 POP PUSH2 0x235 DUP3 DUP3 PUSH2 0x1EF JUMP JUMPDEST SWAP2 SWAP1 POP JUMP JUMPDEST PUSH0 PUSH8 0xFFFFFFFFFFFFFFFF DUP3 GT ISZERO PUSH2 0x254 JUMPI PUSH2 0x253 PUSH2 0x1C2 JUMP JUMPDEST JUMPDEST PUSH2 0x25D DUP3 PUSH2 0x1B2 JUMP JUMPDEST SWAP1 POP PUSH1 0x20 DUP2 ADD SWAP1 POP SWAP2 SWAP1 POP JUMP JUMPDEST DUP3 DUP2 DUP4 CALLDATACOPY PUSH0 DUP4 DUP4 ADD MSTORE POP POP POP JUMP JUMPDEST PUSH0 PUSH2 0x28A PUSH2 0x285 DUP5 PUSH2 0x23A JUMP JUMPDEST PUSH2 0x220 JUMP JUMPDEST SWAP1 POP DUP3 DUP2 MSTORE PUSH1 0x20 DUP2 ADD DUP5 DUP5 DUP5 ADD GT ISZERO PUSH2 0x2A6 JUMPI PUSH2 0x2A5 PUSH2 0x1AE JUMP JUMPDEST JUMPDEST PUSH2 0x2B1 DUP5 DUP3 DUP6 PUSH2 0x26A JUMP JUMPDEST POP SWAP4 SWAP3 POP POP POP JUMP JUMPDEST PUSH0 DUP3 PUSH1 0x1F DUP4 ADD SLT PUSH2 0x2CD JUMPI PUSH2 0x2CC PUSH2 0x1AA JUMP JUMPDEST JUMPDEST DUP2 CALLDATALOAD PUSH2 0x2DD DUP5 DUP3 PUSH1 0x20 DUP7 ADD PUSH2 0x278 JUMP JUMPDEST SWAP2 POP POP SWAP3 SWAP2 POP POP JUMP JUMPDEST PUSH0 PUSH8 0xFFFFFFFFFFFFFFFF DUP3 GT ISZERO PUSH2 0x300 JUMPI PUSH2 0x2FF PUSH2 0x1C2 JUMP JUMPDEST JUMPDEST PUSH2 0x309 DUP3 PUSH2 0x1B2 JUMP JUMPDEST SWAP1 POP PUSH1 0x20 DUP2 ADD SWAP1 POP SWAP2 SWAP1 POP JUMP JUMPDEST PUSH0 PUSH2 0x328 PUSH2 0x323 DUP5 PUSH2 0x2E6 JUMP JUMPDEST PUSH2 0x220 JUMP JUMPDEST SWAP1 POP DUP3 DUP2 MSTORE PUSH1 0x20 DUP2 ADD DUP5 DUP5 DUP5 ADD GT ISZERO PUSH2 0x344 JUMPI PUSH2 0x343 PUSH2 0x1AE JUMP JUMPDEST JUMPDEST PUSH2 0x34F DUP5 DUP3 DUP6 PUSH2 0x26A JUMP JUMPDEST POP SWAP4 SWAP3 POP POP POP JUMP JUMPDEST PUSH0 DUP3 PUSH1 0x1F DUP4 ADD SLT PUSH2 0x36B JUMPI PUSH2 0x36A PUSH2 0x1AA JUMP JUMPDEST JUMPDEST DUP2 CALLDATALOAD PUSH2 0x37B DUP5 DUP3 PUSH1 0x20 DUP7 ADD PUSH2 0x316 JUMP JUMPDEST SWAP2 POP POP SWAP3 SWAP2 POP POP JUMP JUMPDEST PUSH0 PUSH0 PUSH1 0x40 DUP4 DUP6 SUB SLT ISZERO PUSH2 0x39A JUMPI PUSH2 0x399 PUSH2 0x1A2 JUMP JUMPDEST JUMPDEST PUSH0 DUP4 ADD CALLDATALOAD PUSH8 0xFFFFFFFFFFFFFFFF DUP2 GT ISZERO PUSH2 0x3B7 JUMPI PUSH2 0x3B6 PUSH2 0x1A6 JUMP JUMPDEST JUMPDEST PUSH2 0x3C3 DUP6 DUP3 DUP7 ADD PUSH2 0x2B9 JUMP JUMPDEST SWAP3 POP POP PUSH1 0x20 DUP4 ADD CALLDATALOAD PUSH8 0xFFFFFFFFFFFFFFFF DUP2 GT ISZERO PUSH2 0x3E4 JUMPI PUSH2 0x3E3 PUSH2 0x1A6 JUMP JUMPDEST JUMPDEST PUSH2 0x3F0 DUP6 DUP3 DUP7 ADD PUSH2 0x357 JUMP JUMPDEST SWAP2 POP POP SWAP3 POP SWAP3 SWAP1 POP JUMP INVALID LOG2 PUSH5 0x6970667358 0x22 SLT KECCAK256 OR CALLDATASIZE PUSH2 0xEA56 EQ 0xE2 XOR 0xB4 0xA6 SWAP6 0xB6 SWAP5 RJUMPI 0x9220 PUSH25 0x32815A7432FB1822BEE946259AB50964736F6C634300081E00 CALLER "
	},
	"Assembly": ".code\n  PUSH 80\t\t\tcontract Create2Factory {\\r\\n ...\n  PUSH 40\t\t\tcontract Create2Factory {\\r\\n ...\n  MSTORE \t\t\tcontract Create2Factory {\\r\\n ...\n  CALLVALUE \t\t\tcontract Create2Factory {\\r\\n ...\n  DUP1 \t\t\tcontract Create2Factory {\\r\\n ...\n  ISZERO \t\t\tcontract Create2Factory {\\r\\n ...\n  PUSH [tag] 1\t\t\tcontract Create2Factory {\\r\\n ...\n  JUMPI \t\t\tcontract Create2Factory {\\r\\n ...\n  PUSH 0\t\t\tcontract Create2Factory {\\r\\n ...\n  PUSH 0\t\t\tcontract Create2Factory {\\r\\n ...\n  REVERT \t\t\tcontract Create2Factory {\\r\\n ...\ntag 1\t\t\tcontract Create2Factory {\\r\\n ...\n  JUMPDEST \t\t\tcontract Create2Factory {\\r\\n ...\n  POP \t\t\tcontract Create2Factory {\\r\\n ...\n  PUSH #[$] 0000000000000000000000000000000000000000000000000000000000000000\t\t\tcontract Create2Factory {\\r\\n ...\n  DUP1 \t\t\tcontract Create2Factory {\\r\\n ...\n  PUSH [$] 0000000000000000000000000000000000000000000000000000000000000000\t\t\tcontract Create2Factory {\\r\\n ...\n  PUSH 0\t\t\tcontract Create2Factory {\\r\\n ...\n  CODECOPY \t\t\tcontract Create2Factory {\\r\\n ...\n  PUSH 0\t\t\tcontract Create2Factory {\\r\\n ...\n  RETURN \t\t\tcontract Create2Factory {\\r\\n ...\n.data\n  0:\n    .code\n      PUSH 80\t\t\tcontract Create2Factory {\\r\\n ...\n      PUSH 40\t\t\tcontract Create2Factory {\\r\\n ...\n      MSTORE \t\t\tcontract Create2Factory {\\r\\n ...\n      CALLVALUE \t\t\tcontract Create2Factory {\\r\\n ...\n      DUP1 \t\t\tcontract Create2Factory {\\r\\n ...\n      ISZERO \t\t\tcontract Create2Factory {\\r\\n ...\n      PUSH [tag] 1\t\t\tcontract Create2Factory {\\r\\n ...\n      JUMPI \t\t\tcontract Create2Factory {\\r\\n ...\n      PUSH 0\t\t\tcontract Create2Factory {\\r\\n ...\n      PUSH 0\t\t\tcontract Create2Factory {\\r\\n ...\n      REVERT \t\t\tcontract Create2Factory {\\r\\n ...\n    tag 1\t\t\tcontract Create2Factory {\\r\\n ...\n      JUMPDEST \t\t\tcontract Create2Factory {\\r\\n ...\n      POP \t\t\tcontract Create2Factory {\\r\\n ...\n      PUSH 4\t\t\tcontract Create2Factory {\\r\\n ...\n      CALLDATASIZE \t\t\tcontract Create2Factory {\\r\\n ...\n      LT \t\t\tcontract Create2Factory {\\r\\n ...\n      PUSH [tag] 2\t\t\tcontract Create2Factory {\\r\\n ...\n      JUMPI \t\t\tcontract Create2Factory {\\r\\n ...\n      PUSH 0\t\t\tcontract Create2Factory {\\r\\n ...\n      CALLDATALOAD \t\t\tcontract Create2Factory {\\r\\n ...\n      PUSH E0\t\t\tcontract Create2Factory {\\r\\n ...\n      SHR \t\t\tcontract Create2Factory {\\r\\n ...\n      DUP1 \t\t\tcontract Create2Factory {\\r\\n ...\n      PUSH 34537C88\t\t\tcontract Create2Factory {\\r\\n ...\n      EQ \t\t\tcontract Create2Factory {\\r\\n ...\n      PUSH [tag] 3\t\t\tcontract Create2Factory {\\r\\n ...\n      JUMPI \t\t\tcontract Create2Factory {\\r\\n ...\n      DUP1 \t\t\tcontract Create2Factory {\\r\\n ...\n      PUSH D0C35873\t\t\tcontract Create2Factory {\\r\\n ...\n      EQ \t\t\tcontract Create2Factory {\\r\\n ...\n      PUSH [tag] 4\t\t\tcontract Create2Factory {\\r\\n ...\n      JUMPI \t\t\tcontract Create2Factory {\\r\\n ...\n    tag 2\t\t\tcontract Create2Factory {\\r\\n ...\n      JUMPDEST \t\t\tcontract Create2Factory {\\r\\n ...\n      PUSH 0\t\t\tcontract Create2Factory {\\r\\n ...\n      PUSH 0\t\t\tcontract Create2Factory {\\r\\n ...\n      REVERT \t\t\tcontract Create2Factory {\\r\\n ...\n    tag 3\t\t\taddress public lastDeployedAdd...\n      JUMPDEST \t\t\taddress public lastDeployedAdd...\n      PUSH [tag] 5\t\t\taddress public lastDeployedAdd...\n      PUSH [tag] 6\t\t\taddress public lastDeployedAdd...\n      JUMP \t\t\taddress public lastDeployedAdd...\n    tag 5\t\t\taddress public lastDeployedAdd...\n      JUMPDEST \t\t\taddress public lastDeployedAdd...\n      PUSH 40\t\t\taddress public lastDeployedAdd...\n      MLOAD \t\t\taddress public lastDeployedAdd...\n      PUSH [tag] 7\t\t\taddress public lastDeployedAdd...\n      SWAP2 \t\t\taddress public lastDeployedAdd...\n      SWAP1 \t\t\taddress public lastDeployedAdd...\n      PUSH [tag] 8\t\t\taddress public lastDeployedAdd...\n      JUMP \t\t\taddress public lastDeployedAdd...\n    tag 7\t\t\taddress public lastDeployedAdd...\n      JUMPDEST \t\t\taddress public lastDeployedAdd...\n      PUSH 40\t\t\taddress public lastDeployedAdd...\n      MLOAD \t\t\taddress public lastDeployedAdd...\n      DUP1 \t\t\taddress public lastDeployedAdd...\n      SWAP2 \t\t\taddress public lastDeployedAdd...\n      SUB \t\t\taddress public lastDeployedAdd...\n      SWAP1 \t\t\taddress public lastDeployedAdd...\n      RETURN \t\t\taddress public lastDeployedAdd...\n    tag 4\t\t\tfunction deploy(\\r\\n        by...\n      JUMPDEST \t\t\tfunction deploy(\\r\\n        by...\n      PUSH [tag] 9\t\t\tfunction deploy(\\r\\n        by...\n      PUSH 4\t\t\tfunction deploy(\\r\\n        by...\n      DUP1 \t\t\tfunction deploy(\\r\\n        by...\n      CALLDATASIZE \t\t\tfunction deploy(\\r\\n        by...\n      SUB \t\t\tfunction deploy(\\r\\n        by...\n      DUP2 \t\t\tfunction deploy(\\r\\n        by...\n      ADD \t\t\tfunction deploy(\\r\\n        by...\n      SWAP1 \t\t\tfunction deploy(\\r\\n        by...\n      PUSH [tag] 10\t\t\tfunction deploy(\\r\\n        by...\n      SWAP2 \t\t\tfunction deploy(\\r\\n        by...\n      SWAP1 \t\t\tfunction deploy(\\r\\n        by...\n      PUSH [tag] 11\t\t\tfunction deploy(\\r\\n        by...\n      JUMP \t\t\tfunction deploy(\\r\\n        by...\n    tag 10\t\t\tfunction deploy(\\r\\n        by...\n      JUMPDEST \t\t\tfunction deploy(\\r\\n        by...\n      PUSH [tag] 12\t\t\tfunction deploy(\\r\\n        by...\n      JUMP \t\t\tfunction deploy(\\r\\n        by...\n    tag 9\t\t\tfunction deploy(\\r\\n        by...\n      JUMPDEST \t\t\tfunction deploy(\\r\\n        by...\n      PUSH 40\t\t\tfunction deploy(\\r\\n        by...\n      MLOAD \t\t\tfunction deploy(\\r\\n        by...\n      PUSH [tag] 13\t\t\tfunction deploy(\\r\\n        by...\n      SWAP2 \t\t\tfunction deploy(\\r\\n        by...\n      SWAP1 \t\t\tfunction deploy(\\r\\n        by...\n      PUSH [tag] 8\t\t\tfunction deploy(\\r\\n        by...\n      JUMP \t\t\tfunction deploy(\\r\\n        by...\n    tag 13\t\t\tfunction deploy(\\r\\n        by...\n      JUMPDEST \t\t\tfunction deploy(\\r\\n        by...\n      PUSH 40\t\t\tfunction deploy(\\r\\n        by...\n      MLOAD \t\t\tfunction deploy(\\r\\n        by...\n      DUP1 \t\t\tfunction deploy(\\r\\n        by...\n      SWAP2 \t\t\tfunction deploy(\\r\\n        by...\n      SUB \t\t\tfunction deploy(\\r\\n        by...\n      SWAP1 \t\t\tfunction deploy(\\r\\n        by...\n      RETURN \t\t\tfunction deploy(\\r\\n        by...\n    tag 6\t\t\taddress public lastDeployedAdd...\n      JUMPDEST \t\t\taddress public lastDeployedAdd...\n      PUSH 0\t\t\taddress public lastDeployedAdd...\n      PUSH 0\t\t\taddress public lastDeployedAdd...\n      SWAP1 \t\t\taddress public lastDeployedAdd...\n      SLOAD \t\t\taddress public lastDeployedAdd...\n      SWAP1 \t\t\taddress public lastDeployedAdd...\n      PUSH 100\t\t\taddress public lastDeployedAdd...\n      EXP \t\t\taddress public lastDeployedAdd...\n      SWAP1 \t\t\taddress public lastDeployedAdd...\n      DIV \t\t\taddress public lastDeployedAdd...\n      PUSH FFFFFFFFFFFFFFFFFFFFFFFFFFFFFFFFFFFFFFFF\t\t\taddress public lastDeployedAdd...\n      AND \t\t\taddress public lastDeployedAdd...\n      DUP2 \t\t\taddress public lastDeployedAdd...\n      JUMP \t\t\taddress public lastDeployedAdd...\n    tag 12\t\t\tfunction deploy(\\r\\n        by...\n      JUMPDEST \t\t\tfunction deploy(\\r\\n        by...\n      PUSH 0\t\t\taddress\n      PUSH 0\t\t\taddress addr\n      DUP3 \t\t\t_salt\n      DUP5 \t\t\tbytecode\n      MLOAD \t\t\tmload(bytecode)\n      PUSH 20\t\t\t0x20\n      DUP7 \t\t\tbytecode\n      ADD \t\t\tadd(bytecode, 0x20)\n      PUSH 0\t\t\t0\n      CREATE2 \t\t\tcreate2(0, add(bytecode, 0x20)...\n      SWAP1 \t\t\taddr := create2(0, add(bytecod...\n      POP \t\t\taddr := create2(0, add(bytecod...\n      DUP1 \t\t\taddr\n      EXTCODESIZE \t\t\textcodesize(addr)\n      PUSH [tag] 15\t\t\tif iszero(extcodesize(addr)) {...\n      JUMPI \t\t\tif iszero(extcodesize(addr)) {...\n      PUSH 0\t\t\t0\n      PUSH 0\t\t\t0\n      REVERT \t\t\trevert(0, 0)\n    tag 15\t\t\tif iszero(extcodesize(addr)) {...\n      JUMPDEST \t\t\tif iszero(extcodesize(addr)) {...\n      DUP1 \t\t\taddr\n      PUSH 0\t\t\tlastDeployedAddress\n      PUSH 0\t\t\tlastDeployedAddress\n      PUSH 100\t\t\tlastDeployedAddress = addr\n      EXP \t\t\tlastDeployedAddress = addr\n      DUP2 \t\t\tlastDeployedAddress = addr\n      SLOAD \t\t\tlastDeployedAddress = addr\n      DUP2 \t\t\tlastDeployedAddress = addr\n      PUSH FFFFFFFFFFFFFFFFFFFFFFFFFFFFFFFFFFFFFFFF\t\t\tlastDeployedAddress = addr\n      MUL \t\t\tlastDeployedAddress = addr\n      NOT \t\t\tlastDeployedAddress = addr\n      AND \t\t\tlastDeployedAddress = addr\n      SWAP1 \t\t\tlastDeployedAddress = addr\n      DUP4 \t\t\tlastDeployedAddress = addr\n      PUSH FFFFFFFFFFFFFFFFFFFFFFFFFFFFFFFFFFFFFFFF\t\t\tlastDeployedAddress = addr\n      AND \t\t\tlastDeployedAddress = addr\n      MUL \t\t\tlastDeployedAddress = addr\n      OR \t\t\tlastDeployedAddress = addr\n      SWAP1 \t\t\tlastDeployedAddress = addr\n      SSTORE \t\t\tlastDeployedAddress = addr\n      POP \t\t\tlastDeployedAddress = addr\n      PUSH 55EA6C6B31543D8E2EC6A72F71A79C0F4B72ED0D4757172B043D8F4F4CD84848\t\t\tDeploy(addr)\n      DUP2 \t\t\taddr\n      PUSH 40\t\t\tDeploy(addr)\n      MLOAD \t\t\tDeploy(addr)\n      PUSH [tag] 16\t\t\tDeploy(addr)\n      SWAP2 \t\t\tDeploy(addr)\n      SWAP1 \t\t\tDeploy(addr)\n      PUSH [tag] 8\t\t\tDeploy(addr)\n      JUMP \t\t\tDeploy(addr)\n    tag 16\t\t\tDeploy(addr)\n      JUMPDEST \t\t\tDeploy(addr)\n      PUSH 40\t\t\tDeploy(addr)\n      MLOAD \t\t\tDeploy(addr)\n      DUP1 \t\t\tDeploy(addr)\n      SWAP2 \t\t\tDeploy(addr)\n      SUB \t\t\tDeploy(addr)\n      SWAP1 \t\t\tDeploy(addr)\n      LOG1 \t\t\tDeploy(addr)\n      DUP1 \t\t\taddr\n      SWAP2 \t\t\treturn addr\n      POP \t\t\treturn addr\n      POP \t\t\treturn addr\n      SWAP3 \t\t\tfunction deploy(\\r\\n        by...\n      SWAP2 \t\t\tfunction deploy(\\r\\n        by...\n      POP \t\t\tfunction deploy(\\r\\n        by...\n      POP \t\t\tfunction deploy(\\r\\n        by...\n      JUMP \t\t\tfunction deploy(\\r\\n        by...\n    tag 17\t\t\t-License-Identifier: MIT\\r\\npr...\n      JUMPDEST \t\t\t-License-Identifier: MIT\\r\\npr...\n      PUSH 0\t\t\tdity ^0\n      PUSH FFFFFFFFFFFFFFFFFFFFFFFFFFFFFFFFFFFFFFFF\t\t\t {\\r\\n    event Deploy(address...\n      DUP3 \t\t\tFacto\n      AND \t\t\tate2Factory {\\r\\n    event Dep...\n      SWAP1 \t\t\tontract Create2Factory {\\r\\n  ...\n      POP \t\t\tontract Create2Factory {\\r\\n  ...\n      SWAP2 \t\t\t-License-Identifier: MIT\\r\\npr...\n      SWAP1 \t\t\t-License-Identifier: MIT\\r\\npr...\n      POP \t\t\t-License-Identifier: MIT\\r\\npr...\n      JUMP \t\t\t-License-Identifier: MIT\\r\\npr...\n    tag 18\t\t\tast deployed address\\r\\n    ad...\n      JUMPDEST \t\t\tast deployed address\\r\\n    ad...\n      PUSH 0\t\t\tlic las\n      PUSH [tag] 39\t\t\t   function deploy(\\r\\n   \n      DUP3 \t\t\t(\\r\\n  \n      PUSH [tag] 17\t\t\t   function deploy(\\r\\n   \n      JUMP \t\t\t   function deploy(\\r\\n   \n    tag 39\t\t\t   function deploy(\\r\\n   \n      JUMPDEST \t\t\t   function deploy(\\r\\n   \n      SWAP1 \t\t\tdress;\\r\\n\\r\\n    function dep...\n      POP \t\t\tdress;\\r\\n\\r\\n    function dep...\n      SWAP2 \t\t\tast deployed address\\r\\n    ad...\n      SWAP1 \t\t\tast deployed address\\r\\n    ad...\n      POP \t\t\tast deployed address\\r\\n    ad...\n      JUMP \t\t\tast deployed address\\r\\n    ad...\n    tag 19\t\t\temory bytecode,\\r\\n        str...\n      JUMPDEST \t\t\temory bytecode,\\r\\n        str...\n      PUSH [tag] 41\t\t\t   address addr;\\r\\n      \n      DUP2 \t\t\t     \n      PUSH [tag] 18\t\t\t   address addr;\\r\\n      \n      JUMP \t\t\t   address addr;\\r\\n      \n    tag 41\t\t\t   address addr;\\r\\n      \n      JUMPDEST \t\t\t   address addr;\\r\\n      \n      DUP3 \t\t\t   \n      MSTORE \t\t\tss) {\\r\\n        address addr;...\n      POP \t\t\temory bytecode,\\r\\n        str...\n      POP \t\t\temory bytecode,\\r\\n        str...\n      JUMP \t\t\temory bytecode,\\r\\n        str...\n    tag 8\t\t\t\\n            addr := create2(...\n      JUMPDEST \t\t\t\\n            addr := create2(...\n      PUSH 0\t\t\tisze\n      PUSH 20\t\t\t  \n      DUP3 \t\t\t\\r\\n       \n      ADD \t\t\t)) {\\r\\n            \n      SWAP1 \t\t\tize(addr)) {\\r\\n            \n      POP \t\t\tize(addr)) {\\r\\n            \n      PUSH [tag] 43\t\t\t(0, 0)\\r\\n            }\\r\\n   ...\n      PUSH 0\t\t\td\n      DUP4 \t\t\tddress = \n      ADD \t\t\tyedAddress = addr\n      DUP5 \t\t\tlastDe\n      PUSH [tag] 19\t\t\t(0, 0)\\r\\n            }\\r\\n   ...\n      JUMP \t\t\t(0, 0)\\r\\n            }\\r\\n   ...\n    tag 43\t\t\t(0, 0)\\r\\n            }\\r\\n   ...\n      JUMPDEST \t\t\t(0, 0)\\r\\n            }\\r\\n   ...\n      SWAP3 \t\t\t\\n            addr := create2(...\n      SWAP2 \t\t\t\\n            addr := create2(...\n      POP \t\t\t\\n            addr := create2(...\n      POP \t\t\t\\n            addr := create2(...\n      JUMP \t\t\t\\n            addr := create2(...\n    tag 20\t\t\tt Deploy(addr);\\r\\n        ret...\n      JUMPDEST \t\t\tt Deploy(addr);\\r\\n        ret...\n      PUSH 0\t\t\tddr;\\r\\n\n      PUSH 40\t\t\tca\n      MLOAD \t\t\ttract can\n      SWAP1 \t\t\t/ This contract can\n      POP \t\t\t/ This contract can\n      SWAP1 \t\t\tt Deploy(addr);\\r\\n        ret...\n      JUMP \t\t\tt Deploy(addr);\\r\\n        ret...\n    tag 21\t\t\t on multiple EVM Chains.  Howe...\n      JUMPDEST \t\t\t on multiple EVM Chains.  Howe...\n      PUSH 0\t\t\ts\n      PUSH 0\t\t\tr\n      REVERT \t\t\tthe address \n    tag 22\t\t\ts contract will get deployed. ...\n      JUMPDEST \t\t\ts contract will get deployed. ...\n      PUSH 0\t\t\tr\n      PUSH 0\t\t\to\n      REVERT \t\t\tother contra\n    tag 23\t\t\t factory contract deploys usin...\n      JUMPDEST \t\t\t factory contract deploys usin...\n      PUSH 0\t\t\t\n      PUSH 0\t\t\t\n      REVERT \t\t\t\n    tag 24\t\t\t\n      JUMPDEST \t\t\t\n      PUSH 0\t\t\t\n      PUSH 0\t\t\t\n      REVERT \t\t\t\n    tag 25\t\t\t\n      JUMPDEST \t\t\t\n      PUSH 0\t\t\t\n      PUSH 1F\t\t\t\n      NOT \t\t\t\n      PUSH 1F\t\t\t\n      DUP4 \t\t\t\n      ADD \t\t\t\n      AND \t\t\t\n      SWAP1 \t\t\t\n      POP \t\t\t\n      SWAP2 \t\t\t\n      SWAP1 \t\t\t\n      POP \t\t\t\n      JUMP \t\t\t\n    tag 26\t\t\t\n      JUMPDEST \t\t\t\n      PUSH 4E487B7100000000000000000000000000000000000000000000000000000000\t\t\t\n      PUSH 0\t\t\t\n      MSTORE \t\t\t\n      PUSH 41\t\t\t\n      PUSH 4\t\t\t\n      MSTORE \t\t\t\n      PUSH 24\t\t\t\n      PUSH 0\t\t\t\n      REVERT \t\t\t\n    tag 27\t\t\t\n      JUMPDEST \t\t\t\n      PUSH [tag] 52\t\t\t\n      DUP3 \t\t\t\n      PUSH [tag] 25\t\t\t\n      JUMP \t\t\t\n    tag 52\t\t\t\n      JUMPDEST \t\t\t\n      DUP2 \t\t\t\n      ADD \t\t\t\n      DUP2 \t\t\t\n      DUP2 \t\t\t\n      LT \t\t\t\n      PUSH FFFFFFFFFFFFFFFF\t\t\t\n      DUP3 \t\t\t\n      GT \t\t\t\n      OR \t\t\t\n      ISZERO \t\t\t\n      PUSH [tag] 53\t\t\t\n      JUMPI \t\t\t\n      PUSH [tag] 54\t\t\t\n      PUSH [tag] 26\t\t\t\n      JUMP \t\t\t\n    tag 54\t\t\t\n      JUMPDEST \t\t\t\n    tag 53\t\t\t\n      JUMPDEST \t\t\t\n      DUP1 \t\t\t\n      PUSH 40\t\t\t\n      MSTORE \t\t\t\n      POP \t\t\t\n      POP \t\t\t\n      POP \t\t\t\n      JUMP \t\t\t\n    tag 28\t\t\t\n      JUMPDEST \t\t\t\n      PUSH 0\t\t\t\n      PUSH [tag] 56\t\t\t\n      PUSH [tag] 20\t\t\t\n      JUMP \t\t\t\n    tag 56\t\t\t\n      JUMPDEST \t\t\t\n      SWAP1 \t\t\t\n      POP \t\t\t\n      PUSH [tag] 57\t\t\t\n      DUP3 \t\t\t\n      DUP3 \t\t\t\n      PUSH [tag] 27\t\t\t\n      JUMP \t\t\t\n    tag 57\t\t\t\n      JUMPDEST \t\t\t\n      SWAP2 \t\t\t\n      SWAP1 \t\t\t\n      POP \t\t\t\n      JUMP \t\t\t\n    tag 29\t\t\t\n      JUMPDEST \t\t\t\n      PUSH 0\t\t\t\n      PUSH FFFFFFFFFFFFFFFF\t\t\t\n      DUP3 \t\t\t\n      GT \t\t\t\n      ISZERO \t\t\t\n      PUSH [tag] 59\t\t\t\n      JUMPI \t\t\t\n      PUSH [tag] 60\t\t\t\n      PUSH [tag] 26\t\t\t\n      JUMP \t\t\t\n    tag 60\t\t\t\n      JUMPDEST \t\t\t\n    tag 59\t\t\t\n      JUMPDEST \t\t\t\n      PUSH [tag] 61\t\t\t\n      DUP3 \t\t\t\n      PUSH [tag] 25\t\t\t\n      JUMP \t\t\t\n    tag 61\t\t\t\n      JUMPDEST \t\t\t\n      SWAP1 \t\t\t\n      POP \t\t\t\n      PUSH 20\t\t\t\n      DUP2 \t\t\t\n      ADD \t\t\t\n      SWAP1 \t\t\t\n      POP \t\t\t\n      SWAP2 \t\t\t\n      SWAP1 \t\t\t\n      POP \t\t\t\n      JUMP \t\t\t\n    tag 30\t\t\t\n      JUMPDEST \t\t\t\n      DUP3 \t\t\t\n      DUP2 \t\t\t\n      DUP4 \t\t\t\n      CALLDATACOPY \t\t\t\n      PUSH 0\t\t\t\n      DUP4 \t\t\t\n      DUP4 \t\t\t\n      ADD \t\t\t\n      MSTORE \t\t\t\n      POP \t\t\t\n      POP \t\t\t\n      POP \t\t\t\n      JUMP \t\t\t\n    tag 31\t\t\t\n      JUMPDEST \t\t\t\n      PUSH 0\t\t\t\n      PUSH [tag] 64\t\t\t\n      PUSH [tag] 65\t\t\t\n      DUP5 \t\t\t\n      PUSH [tag] 29\t\t\t\n      JUMP \t\t\t\n    tag 65\t\t\t\n      JUMPDEST \t\t\t\n      PUSH [tag] 28\t\t\t\n      JUMP \t\t\t\n    tag 64\t\t\t\n      JUMPDEST \t\t\t\n      SWAP1 \t\t\t\n      POP \t\t\t\n      DUP3 \t\t\t\n      DUP2 \t\t\t\n      MSTORE \t\t\t\n      PUSH 20\t\t\t\n      DUP2 \t\t\t\n      ADD \t\t\t\n      DUP5 \t\t\t\n      DUP5 \t\t\t\n      DUP5 \t\t\t\n      ADD \t\t\t\n      GT \t\t\t\n      ISZERO \t\t\t\n      PUSH [tag] 66\t\t\t\n      JUMPI \t\t\t\n      PUSH [tag] 67\t\t\t\n      PUSH [tag] 24\t\t\t\n      JUMP \t\t\t\n    tag 67\t\t\t\n      JUMPDEST \t\t\t\n    tag 66\t\t\t\n      JUMPDEST \t\t\t\n      PUSH [tag] 68\t\t\t\n      DUP5 \t\t\t\n      DUP3 \t\t\t\n      DUP6 \t\t\t\n      PUSH [tag] 30\t\t\t\n      JUMP \t\t\t\n    tag 68\t\t\t\n      JUMPDEST \t\t\t\n      POP \t\t\t\n      SWAP4 \t\t\t\n      SWAP3 \t\t\t\n      POP \t\t\t\n      POP \t\t\t\n      POP \t\t\t\n      JUMP \t\t\t\n    tag 32\t\t\t\n      JUMPDEST \t\t\t\n      PUSH 0\t\t\t\n      DUP3 \t\t\t\n      PUSH 1F\t\t\t\n      DUP4 \t\t\t\n      ADD \t\t\t\n      SLT \t\t\t\n      PUSH [tag] 70\t\t\t\n      JUMPI \t\t\t\n      PUSH [tag] 71\t\t\t\n      PUSH [tag] 23\t\t\t\n      JUMP \t\t\t\n    tag 71\t\t\t\n      JUMPDEST \t\t\t\n    tag 70\t\t\t\n      JUMPDEST \t\t\t\n      DUP2 \t\t\t\n      CALLDATALOAD \t\t\t\n      PUSH [tag] 72\t\t\t\n      DUP5 \t\t\t\n      DUP3 \t\t\t\n      PUSH 20\t\t\t\n      DUP7 \t\t\t\n      ADD \t\t\t\n      PUSH [tag] 31\t\t\t\n      JUMP \t\t\t\n    tag 72\t\t\t\n      JUMPDEST \t\t\t\n      SWAP2 \t\t\t\n      POP \t\t\t\n      POP \t\t\t\n      SWAP3 \t\t\t\n      SWAP2 \t\t\t\n      POP \t\t\t\n      POP \t\t\t\n      JUMP \t\t\t\n    tag 33\t\t\t\n      JUMPDEST \t\t\t\n      PUSH 0\t\t\t\n      PUSH FFFFFFFFFFFFFFFF\t\t\t\n      DUP3 \t\t\t\n      GT \t\t\t\n      ISZERO \t\t\t\n      PUSH [tag] 74\t\t\t\n      JUMPI \t\t\t\n      PUSH [tag] 75\t\t\t\n      PUSH [tag] 26\t\t\t\n      JUMP \t\t\t\n    tag 75\t\t\t\n      JUMPDEST \t\t\t\n    tag 74\t\t\t\n      JUMPDEST \t\t\t\n      PUSH [tag] 76\t\t\t\n      DUP3 \t\t\t\n      PUSH [tag] 25\t\t\t\n      JUMP \t\t\t\n    tag 76\t\t\t\n      JUMPDEST \t\t\t\n      SWAP1 \t\t\t\n      POP \t\t\t\n      PUSH 20\t\t\t\n      DUP2 \t\t\t\n      ADD \t\t\t\n      SWAP1 \t\t\t\n      POP \t\t\t\n      SWAP2 \t\t\t\n      SWAP1 \t\t\t\n      POP \t\t\t\n      JUMP \t\t\t\n    tag 34\t\t\t\n      JUMPDEST \t\t\t\n      PUSH 0\t\t\t\n      PUSH [tag] 78\t\t\t\n      PUSH [tag] 79\t\t\t\n      DUP5 \t\t\t\n      PUSH [tag] 33\t\t\t\n      JUMP \t\t\t\n    tag 79\t\t\t\n      JUMPDEST \t\t\t\n      PUSH [tag] 28\t\t\t\n      JUMP \t\t\t\n    tag 78\t\t\t\n      JUMPDEST \t\t\t\n      SWAP1 \t\t\t\n      POP \t\t\t\n      DUP3 \t\t\t\n      DUP2 \t\t\t\n      MSTORE \t\t\t\n      PUSH 20\t\t\t\n      DUP2 \t\t\t\n      ADD \t\t\t\n      DUP5 \t\t\t\n      DUP5 \t\t\t\n      DUP5 \t\t\t\n      ADD \t\t\t\n      GT \t\t\t\n      ISZERO \t\t\t\n      PUSH [tag] 80\t\t\t\n      JUMPI \t\t\t\n      PUSH [tag] 81\t\t\t\n      PUSH [tag] 24\t\t\t\n      JUMP \t\t\t\n    tag 81\t\t\t\n      JUMPDEST \t\t\t\n    tag 80\t\t\t\n      JUMPDEST \t\t\t\n      PUSH [tag] 82\t\t\t\n      DUP5 \t\t\t\n      DUP3 \t\t\t\n      DUP6 \t\t\t\n      PUSH [tag] 30\t\t\t\n      JUMP \t\t\t\n    tag 82\t\t\t\n      JUMPDEST \t\t\t\n      POP \t\t\t\n      SWAP4 \t\t\t\n      SWAP3 \t\t\t\n      POP \t\t\t\n      POP \t\t\t\n      POP \t\t\t\n      JUMP \t\t\t\n    tag 35\t\t\t\n      JUMPDEST \t\t\t\n      PUSH 0\t\t\t\n      DUP3 \t\t\t\n      PUSH 1F\t\t\t\n      DUP4 \t\t\t\n      ADD \t\t\t\n      SLT \t\t\t\n      PUSH [tag] 84\t\t\t\n      JUMPI \t\t\t\n      PUSH [tag] 85\t\t\t\n      PUSH [tag] 23\t\t\t\n      JUMP \t\t\t\n    tag 85\t\t\t\n      JUMPDEST \t\t\t\n    tag 84\t\t\t\n      JUMPDEST \t\t\t\n      DUP2 \t\t\t\n      CALLDATALOAD \t\t\t\n      PUSH [tag] 86\t\t\t\n      DUP5 \t\t\t\n      DUP3 \t\t\t\n      PUSH 20\t\t\t\n      DUP7 \t\t\t\n      ADD \t\t\t\n      PUSH [tag] 34\t\t\t\n      JUMP \t\t\t\n    tag 86\t\t\t\n      JUMPDEST \t\t\t\n      SWAP2 \t\t\t\n      POP \t\t\t\n      POP \t\t\t\n      SWAP3 \t\t\t\n      SWAP2 \t\t\t\n      POP \t\t\t\n      POP \t\t\t\n      JUMP \t\t\t\n    tag 11\t\t\t\n      JUMPDEST \t\t\t\n      PUSH 0\t\t\t\n      PUSH 0\t\t\t\n      PUSH 40\t\t\t\n      DUP4 \t\t\t\n      DUP6 \t\t\t\n      SUB \t\t\t\n      SLT \t\t\t\n      ISZERO \t\t\t\n      PUSH [tag] 88\t\t\t\n      JUMPI \t\t\t\n      PUSH [tag] 89\t\t\t\n      PUSH [tag] 21\t\t\t\n      JUMP \t\t\t\n    tag 89\t\t\t\n      JUMPDEST \t\t\t\n    tag 88\t\t\t\n      JUMPDEST \t\t\t\n      PUSH 0\t\t\t\n      DUP4 \t\t\t\n      ADD \t\t\t\n      CALLDATALOAD \t\t\t\n      PUSH FFFFFFFFFFFFFFFF\t\t\t\n      DUP2 \t\t\t\n      GT \t\t\t\n      ISZERO \t\t\t\n      PUSH [tag] 90\t\t\t\n      JUMPI \t\t\t\n      PUSH [tag] 91\t\t\t\n      PUSH [tag] 22\t\t\t\n      JUMP \t\t\t\n    tag 91\t\t\t\n      JUMPDEST \t\t\t\n    tag 90\t\t\t\n      JUMPDEST \t\t\t\n      PUSH [tag] 92\t\t\t\n      DUP6 \t\t\t\n      DUP3 \t\t\t\n      DUP7 \t\t\t\n      ADD \t\t\t\n      PUSH [tag] 32\t\t\t\n      JUMP \t\t\t\n    tag 92\t\t\t\n      JUMPDEST \t\t\t\n      SWAP3 \t\t\t\n      POP \t\t\t\n      POP \t\t\t\n      PUSH 20\t\t\t\n      DUP4 \t\t\t\n      ADD \t\t\t\n      CALLDATALOAD \t\t\t\n      PUSH FFFFFFFFFFFFFFFF\t\t\t\n      DUP2 \t\t\t\n      GT \t\t\t\n      ISZERO \t\t\t\n      PUSH [tag] 93\t\t\t\n      JUMPI \t\t\t\n      PUSH [tag] 94\t\t\t\n      PUSH [tag] 22\t\t\t\n      JUMP \t\t\t\n    tag 94\t\t\t\n      JUMPDEST \t\t\t\n    tag 93\t\t\t\n      JUMPDEST \t\t\t\n      PUSH [tag] 95\t\t\t\n      DUP6 \t\t\t\n      DUP3 \t\t\t\n      DUP7 \t\t\t\n      ADD \t\t\t\n      PUSH [tag] 35\t\t\t\n      JUMP \t\t\t\n    tag 95\t\t\t\n      JUMPDEST \t\t\t\n      SWAP2 \t\t\t\n      POP \t\t\t\n      POP \t\t\t\n      SWAP3 \t\t\t\n      POP \t\t\t\n      SWAP3 \t\t\t\n      SWAP1 \t\t\t\n      POP \t\t\t\n      JUMP \t\t\t\n    .data\n"
}